:020000040800F2
:10000000500600200101000805380008813400086E
:1000100001380008490E0008E53C00080000000017
:100020000000000000000000000000008D3C0008FF
:10003000650E00080000000009380008913C000827
:100040001B0100081B0100081B0100081B01000820
:100050001B0100081B0100081B0100081B01000810
:100060001B0100081B010008690E00084D0E000866
:100070001B010008590E00081B0100081B010008A5
:100080001B0100081B0100081B0100081B010008E0
:100090001B0100081B0100081B0100081B010008D0
:1000A0001B0100081B0100081B0100081B010008C0
:1000B0001B0100081B0100081B0100081B010008B0
:1000C0001B0100081B0100081B0100081B010008A0
:1000D0001B0100081B0100081B0100081B01000890
:1000E0001B0100081B0100081B010008DFF80CD0F1
:1000F00000F0C8F900480047853D00085006002080
:100100000648804706480047FEE7FEE7FEE7FEE7B1
:10011000FEE7FEE7FEE7FEE7FEE7FEE7953C0008A8
:10012000ED000008F0B480EA0102D40F4200B2EB07
:10013000410F02D20246084611464A0042D0C30D82
:10014000DDB2C1F3C752AD1A202D35DAC1F3160165
:1001500041F4000204B15242C5F1200602FA06F150
:100160002A411044B3EBD05F23D0C4B1012DA0EBE2
:10017000C35009DCF0BC4FF0004202EAC352DBB2CC
:1001800000F5000000F03AB9400000F1807000EB8B
:10019000C350A0F1807040EAD170490009E04908DD
:1001A00041EAC071A0EBC35000F50000400800EB2D
:1001B000C350F0BC00F019B96142012202EB4101C9
:1001C000001BF6E7F0BC704781F00041AAE780F021
:1001D0000040A7E780EA010210B502F000434000AA
:1001E00022D04A001FD0010E01EB1261C0F356006D
:1001F000C2F3560240F4000042F40002A0FB0220C9
:1002000000047F39140400D0401C50EA124001D48D
:100210004000491EC2B20C0604EBD010401C40083E
:10022000802A02D003E0002010BD20F00100002948
:1002300000DA0020184310BD30B480EA010202F059
:10024000004530F0004221F0004013D090B1C30DC2
:10025000D40DC2F31601C0F31600E41A41F40001F4
:1002600040F400027D34914201D3641C00E0490057
:10027000002C02DA30BC002070474FF4000000234D
:10028000914201D3891A034340084FEA4101F7D153
:1002900051B1914202D14FF0004105E002D24FF03E
:1002A000010101E06FF0010103EBC450284430BCB0
:1002B00000F09BB8002801DBC0F10040002901DB01
:1002C000C1F10041814201D80120704700207047F0
:1002D000002801DBC0F10040002901DBC1F1004131
:1002E000814201D20120704700207047002801DBC5
:1002F000C0F10040002901DBC1F10041814201D37E
:100300000120704700207047002801DBC0F1004049
:10031000002901DBC1F10041814201D90120704770
:100320000020704796230022114600F067B800F0C5
:10033000004220F00040C10DC0F3160040F4000060
:100340007F2901DA00207047962903DCC1F196016C
:10035000C84001E096398840002AF4D040427047F6
:1003600020F00040C10DC0F3160040F400007F29CA
:1003700001DA00207047962903DCC1F19601C840DC
:1003800070479639884070472DE9F05F0546002098
:1003900092469B4688460646814640241BE02846F6
:1003A00041464746224600F094F853465A46C01A42
:1003B000914110D311461846224600F07BF82D1AC1
:1003C00067EB01084F4622460120002100F072F839
:1003D00017EB00094E41201EA4F10104DFDC484662
:1003E00031462A464346BDE8F09F0029A8BF704722
:1003F000401C490008BF20F00100704710B4B0FA5B
:1004000080FC00FA0CF050EA010404BF10BC7047F5
:1004100049B1CCF1200421FA04F411FA0CF118BF0F
:10042000012121430843A3EB0C01CB1D4FEA0061DE
:100430004FEA102042BF002010BC704700EBC350B1
:1004400010440029A4BF10BC7047401C490008BFDD
:1004500020F0010010BC7047420005D0C0F3C75225
:100460005242914201DC0020704700EBC1507047BE
:10047000C10F80EAE0700844CA0796230021FFF705
:10048000BDBF00001CB50948009009480190054611
:10049000009C06E0E06840F0010394E807009847FC
:1004A0001034AC42F6D3FFF725FE00006C4F000875
:1004B0008C4F0008202A04DB203A00FA02F10020C9
:1004C00070479140C2F1200320FA03F31943904092
:1004D0007047202A04DB203A21FA02F000217047FD
:1004E00021FA02F3D040C2F120029140084319469C
:1004F00070470000B0B5044600688168C90701D1A3
:100500000020B0BD816821F00101816001F04AFC4A
:10051000054600BF20688068C007F1D001F042FCAA
:10052000401B0328F6D3A06A40F01000A062E06AE6
:1005300040F00100E0620120B0BD00000146406AC9
:10054000826A12F0500F03D0006A026B084610470F
:100550000168826A42F400728262896801F4602153
:10056000B1F5602F01D1017B11B100F09FBD00BF3B
:10057000816A21F480718162816AC90448BF00F0F8
:1005800095BD816A41F00101816200F08FBD0000DC
:10059000406A816A41F040018162C16A41F0040110
:1005A000C16200F0A3BD0000406A00F08FBD0000F2
:1005B000B0B582B004460020019021688A68D20755
:1005C0003FD1886840F00100886040F21400C2F218
:1005D000000000684DF68361C4F21B31A0FB0101ED
:1005E000880C01900198A0B1019801380190019800
:1005F00078B1019801380190019850B10198013803
:100600000190019828B101980138019001980028C3
:10061000EAD101F0C7FB054620688068C00713D106
:1006200001F0C0FB401B0328F6D3A06A40F0100085
:10063000A062E06A40F00100E062002084F824003B
:10064000012002B0B0BD00BF002002B0B0BD00006C
:1006500070B584B040F22006C2F2000606F128040C
:10066000204600F007FC40F27805C2F2000528465B
:1006700000F000FC05F130003C2102F0D7FC286BB3
:1006800040F20825406AC2F20005F08028460421A5
:1006900002F0BEFE2846042102F064FA2868002613
:1006A00086632846002102F087FE2846002102F0DA
:1006B0003DFA28682022C16A4908C16340F2E80176
:1006C000C2F20001204600F0CBFF2846082102F0CC
:1006D00073FE03F04FF9002003F03EF9002003F011
:1006E0003BF940F20C04C2F20004D4E900304FF6AA
:1006F000E071CDE9000127A204200221029603F057
:10070000D5F900200F21A0221F2303F0EDFAD4E930
:1007100000304FF6FF75CDE9000521A20420162117
:10072000029603F0C3F9D4E900301FA2CDE9000519
:1007300004202821029603F0B9F9D4E900301CA264
:10074000CDE9000504203A21029603F0AFF9D4E97F
:10075000003019A2CDE9000504204C21029603F0D7
:10076000A5F9D4E9003016A2CDE9000504205E21E8
:10077000029603F09BF9D4E9003013A2CDE90005FD
:1007800004207021029603F091F904B0BDE8704096
:1007900002F078BE4255434B204D4F4445000000C7
:1007A00056696E203A000000566F75743A000000DA
:1007B000496F75743A00000054656D703A0000008E
:1007C000536574203A0000004F5554203A00000051
:1007D0002DE9F04F85B040F27800C2F20000006BC6
:1007E00040F2200BC2F2000B406ABBF80610ABF8D7
:1007F0000600411ADBF8240040F2180909B2C2F2DF
:1008000000094418D9F80000042CCBF8244021DB5F
:10081000261F012101EB960111F0030772D04CF65F
:10082000CD41C3F6CC51FFF77DFC0021C4F2F0119D
:100830000546FFF769FD0146284600291CBF002038
:10084000C4F2F010012F61D1344637460C2E80F0EF
:100850008E80D5E014F1040F00F3D6804CF6CD481D
:10086000CBF6CC584146271DFFF75CFC4FF07E517C
:100870000546FFF72DFD01462846002918BF4FF019
:100880007E5014F1080F00F2BB80414604F10806C7
:10089000FFF748FC4FF07E510546FFF719FD014672
:1008A0002846002918BF4FF07E5017F1080F00F2BC
:1008B000A3804146FFF736FC4FF07E510546FFF717
:1008C00007FD01462846002918BF4FF07E5016F15B
:1008D000080F00F29380414604F11007FFF722FC55
:1008E0004FF07E510546FFF7F3FC014628460029EC
:1008F00004F10C0118BF4FF07E5011F1070F3C4678
:10090000B0D37DE00C2E32D27AE000BF4CF6CD4160
:10091000C3F6CC51FFF706FC0021C4F2F0110546E6
:10092000FFF7F2FC0146284600291CBF0020C4F254
:10093000F010022F04D1083C27460C2E17D25FE09E
:100940004CF6CD41C3F6CC510C3CFFF7EBFB00213C
:10095000C4F2F0110546FFF7D7FC014628460029EE
:100960001CBF0020C4F2F01027460C2E48D34CF6D2
:10097000CD480025C3F6CC58C4F2F0154146FFF728
:10098000D1FB29460646FFF7BFFC00281CBF002606
:10099000C4F2F01630464146FFF7C4FB294606462E
:1009A000FFF7B2FC00281CBF0026C4F2F016304648
:1009B0004146FFF7B7FB29460646FFF7A5FC00288E
:1009C0001CBF0026C4F2F01630464146A4F11007C1
:1009D000FFF7A8FB29460646FFF796FC014630467E
:1009E0000029A4F114011CBF0020C4F2F01011F181
:1009F000080F3C46C2D303E0374601E004F10C0780
:100A0000CBF82470C9F8000001F0CCF9DBF81C1019
:100A1000401A3228C0F0078201F0C4F940F278078A
:100A2000CBF81C000720C2F200074FF00108049029
:100A300002A93846CDE90288072500F097FA384622
:100A400000F066FD38460A2100F074FC384600F0DC
:100A50004FFB0446384600F04BFB0444384600F098
:100A600047FB0444384600F0CFFE4AF6AB29CAF6ED
:100A7000AA29A4FB0901C1F34F00FFF753FC43F27D
:100A8000333AC4F2530A5146FFF7A4FB4FF2000475
:100A9000C4F27F542146FFF7CFFB0026C4F2301684
:100AA0003146FFF797FB01900020CDE9020802A92B
:100AB0003846049500F05AFA384600F029FD3846C9
:100AC0000A2100F037FC384600F012FB0546384694
:100AD00000F00EFB0544384600F00AFB054438469A
:100AE00000F092FEA5FB0901C1F34F00FFF71AFCCD
:100AF0005146FFF76FFB2146FFF79EFB3146FFF79C
:100B000069FB00900320CDE902080720049002A9A8
:100B1000384600F02BFA384600F0FAFC38460A2135
:100B200000F008FC384600F0E3FA0546384600F0CD
:100B3000DFFA0544384600F0DBFA0544384600F099
:100B400063FEA5FB0901C1F34F00FFF7EBFB514624
:100B5000FFF740FB2146FFF76FFB4DF20A71C3F62A
:100B600023410446FFF7B4FB48F65C7100281CBF24
:100B70004DF20A74C3F62344C4F252012046FFF733
:100B8000C3FB44F20005C4F21C6500281CBF48F6F4
:100B90005C74C4F2520420462946FFF71BFB06464C
:100BA00050462146FFF710FB01463046FFF744FB55
:100BB0002946FFF741FB03F0DDFC4EF20001C4F2D1
:100BC0007651FFF739FB4CF60F71C3F65B31FFF737
:100BD000A9FA01464FF07E50FFF72EFB49F2333160
:100BE000CCF28831FFF79EFA49F69A11C4F201213E
:100BF000FFF798FA4CF6CD478246C3F64C6701984A
:100C0000DBF808403946FFF7E5FA4CF6CD46C3F667
:100C10004C76054620463146FFF7DCFA2946FFF7B9
:100C200081FA8046CBF808000098DBF80C50394672
:100C3000FFF7D0FA044628463146FFF7CBFA2146A3
:100C4000FFF770FADBF81440CBF80C005046394639
:100C5000FFF7C0FA054620463146FFF7BBFA2946A2
:100C6000FFF760FACBF8140005469BF80000002857
:100C700000F0808000208BF8000040F2E800C2F213
:100C8000000001884288C388114482881144028987
:100C900019444389114482891944C3891144028A41
:100CA0001944438A1144828A1944C38A1144028B2D
:100CB0001944438B1144828B1944C38B1144028C19
:100CC0001944438C1144828C1944C38C1144028D05
:100CD0001944438D1144828D1944C38D1144028EF1
:100CE0001944438E1144828E1944C38E1144028FDD
:100CF0001944438F1144828F1944C08F1144084412
:100D0000FFF710FB4FF07451FFF764FA43F23331F1
:100D1000C4F25301FFF75EFA4FF20001C4F27F51B3
:100D2000FFF78AFA0021C4F24221FFF785FA4DF25B
:100D30000A71C3F62341FFF77FFA00210446FFF74B
:100D4000C7FA4CF6CD41002818BF0024DBF810602C
:100D5000C3F64C612046FFF73DFA4CF6CD41044600
:100D6000C3F64C713046FFF735FA2146FFF7DAF942
:100D7000CBF810009BF8040050B140464FF0804182
:100D8000FFF7B4FA60B900208BF804004BE000BF15
:100D900040F20820C2F2000000681421416342E0E2
:100DA000DBF810000021C4F24001FFF7ADFA002883
:100DB000E9D10021C4F2A0212846FFF77BFA0028E0
:100DC000E1D040F21800C2F2000000684146FFF78F
:100DD00033FA4DF20A71C3F6A3410446CBF818006A
:100DE000FFF776FA43F2333100281CBF4DF20A7444
:100DF000C3F6A344C3F673712046FFF785FA0021BA
:100E000000281CBF43F23334C3F67374C4F27A4132
:100E10002046FFF7DFF9FFF7A3FA40F20821C2F2FC
:100E200000010968486300F0BDFFDBF82010401A9C
:100E3000C82805D300F0B6FFCBF8200002F022FB53
:100E400005B0BDE8F08F0000FEE7000040F228107A
:100E5000C2F2000000F010BD40F26C10C2F20000BF
:100E600000F00ABD70470000102000F07FBE0000B7
:100E70007047000070B582B004460020019094F8DD
:100E80002400012802D1022002B070BD012084F8A4
:100E900024002046FFF72EFB20B1002184F8241007
:100EA00002B070BD0646A06A41F2021188430230CA
:100EB000A06240F21400C2F200000568022001F0B6
:100EC0002DF8B5FBF0F0400001900198A8B100BFEB
:100ED000019801380190019878B10198013801908A
:100EE000019850B1019801380190019828B10198FA
:100EF0000138019001980028EAD12046FFF758FBFD
:100F00002068816841F00801816000F04BFF0546D0
:100F100020688168090705D500F044FF401B0A28B6
:100F2000F6D910E0816841F00401816000F03AFFD9
:100F3000054600BF20688068400709D500F032FFF1
:100F4000401B0B28F6D3012010216FF0120203E0A2
:100F500001216FF003023046A36A1A401143A162D7
:100F6000002184F8241002B070BD000070B581B07B
:100F70000022009290F82420012A03D10221084681
:100F800001B070BD4A680123062A02EB820E80F888
:100F9000243007D8D0F800C06FF004030CF13406F9
:100FA0000CE000BFD0F800C00C2A87BF0CF12C0663
:100FB0006FF040030CF130066FF022030EEB0302DA
:100FC0001F23346803FA02F50B6824EA050503FAC7
:100FD00002F22A433260092B03EB43021AD9DCF8F0
:100FE0000C601E3A072589689540AE43914023F076
:100FF00001023143102ACCF80C1015D142F2004105
:10100000C4F201018C4517D0816A41F02001816250
:1010100001210AE0DCF81030072689689640B343C6
:1010200091401943CCF810100021002280F82420B0
:10103000084601B070BD00BF89680902F4D4DCF82D
:101040000810102B41F40001CCF80810ECD140F24C
:101050001401C2F2000109684DF68362C4F21B322A
:10106000A1FB0212910C01EB810149000091009952
:101070000029D9D000990139009100990029D3D0D5
:1010800000990139009100990029CDD000990139CA
:10109000009100990029C7D0009901390091009969
:1010A00000294FF00001E5D1BFE70000006842F2DF
:1010B0000041C4F20101884218BF704740F220008D
:1010C000C2F200000121017070470000006842F286
:1010D0000041C4F20101884218BF704740F220006D
:1010E000C2F200000121017070470000704700004B
:1010F0000068C06C70470000002804BF01207047E2
:10110000B0B50446806A28B120688168C9070CD050
:1011100032E000BF0020E06284F82400204600F0A6
:101120008FF820688168C90726D1A16AC9063DD415
:10113000A16A41F2021291430231A162E169D4E94C
:10114000013241EA030C531EB3FA83F35D091346DF
:10115000B2F5807F18BF2B02217D257B01294CEA47
:1011600045012ED145B3A56A45F02005A562E56A83
:1011700045F00105E56224E0816821F0010181600C
:1011800000F010FE054600BF20688168C907CCD07A
:1011900000F008FE401B0328F6D3A06A40F01000C0
:1011A000A062E06A40F00100E062A06AA06A40F03C
:1011B0001000A0620120B0BDA56903EB4533A3F583
:1011C000C0534568B2F5807F25F4694543EA0503BD
:1011D000436083684FF2FD75CFF6E17503EA0503BE
:1011E00043EA0103836001D0012A07D12269002369
:1011F000CFF6F07303EB025201E000BF0022C36A96
:1012000023F470031A43C262806840F6FE62CFF690
:101210001F721040884207D10020E062A16A0122BB
:1012200062F30101A162B0BDA06A40F0100020F09D
:101230000200A062E06A40F00100E0620120B0BD5F
:10124000F0B585B0016842F60002C4F20102914295
:101250004FF00002CDE90322CDE9012246D042F24F
:101260000042C4F20102914261D1074641F21800E6
:10127000C4F20200016841F400710160016801F4E8
:10128000007100910099016841F00401016000685B
:1012900001A900F0040000900098042001900320B0
:1012A000029040F60000C4F2010000F06BFC40F236
:1012B00028140820C2F20004C4F202000021C4E98C
:1012C000000104F1080080224FF480734FF4806520
:1012D00020266EC02046E16100F09CFB002818BF6C
:1012E000FFF7C6FD3C62676205B0F0BD41F2180031
:1012F000C4F20200016841F480610160016801F4F8
:10130000806100910099016841F00401016000686A
:1013100001A900F00400009000980B200190032028
:10132000029040F60000C4F2010000F02BFC05B072
:10133000F0BD00002DE9F04182B000270D460446C3
:10134000019700F02FFD21688A68D20544D4064633
:101350004868C00503D4C86A10F4700F46D040F244
:101360001400C2F20000076842F292480220C1F263
:10137000492800F0D3FD216844F624130A69B7FB1D
:10138000F0F0C2F292431A4206D1CA6844F624131E
:10139000C0F292031A4249D00A6912EA080F07D133
:1013A000CA6842F29243C0F249031A4200F08480B4
:1013B0000A6949F24923C0F224031A424FF0FC02A1
:1013C00042D1CF681F4208BF5422019B02FB00F7A5
:1013D000BB423ED379E000BFA06A40F02000A0628B
:1013E00084F82470012002B0BDE8F081086880070D
:1013F0006BD4002D55D0681C12D10868800764D4C6
:10140000086880075CBF08685FEA80705DD4086880
:101410008007F2D559E000BF21680868800754D4DE
:1014200000F0C0FC801BA842F6D93AE00A6912EA33
:10143000080F4FF0290207D1CB6842F29247C0F261
:1014400049073B4208BF1422019B02FB00F7BB4245
:101450003BD235B3681C1FD101980130019001982F
:10146000B84232D20198013001900198B8422CD292
:101470000198013001900198B84226D201980130BC
:1014800001900198B842E7D31FE000BF01980130F6
:1014900001900198B84217D200F084FC801BA8424A
:1014A000F4D9A06A40F00400A062002084F824006F
:1014B000032002B0BDE8F0815422019B02FB00F73B
:1014C000BB42C6D301E000BF21686FF01200086084
:1014D000A06A40F40070A062886800F46020B0F553
:1014E000602F01D1207B18B1002002B0BDE8F0814F
:1014F000A06A20F48070A062A06AC004F4D4A06A3C
:1015000040F00100A062002002B0BDE8F0810000C0
:10151000B0B582B0044690F82400012802D1022020
:1015200002B0B0BD012084F82400002001902068A2
:101530008168C90742D1816841F00101816040F2B0
:101540001400C2F2000000684DF68361C4F21B3142
:10155000A0FB0101880C01900198A0B1019801380D
:101560000190019878B1019801380190019850B12B
:10157000019801380190019828B101980138019033
:1015800001980028EAD100F00DFC0546206881682A
:10159000C90713D100F006FC401B0228F6D9A06A47
:1015A00040F01000A062E06A40F00100E06200201C
:1015B00084F82400012002B0B0BD00BFA26A42F24C
:1015C000044140F20133C4F201019A4302F58073F1
:1015D00001F57F729042A3622AD0A36A23F480139C
:1015E000A36243685B0504D5A36A012565F30D3347
:1015F000A362A56A0023ED044FF0000544BFE56A2D
:1016000025F00605E56284F824306FF002030360DC
:10161000836803F46023B3F5602F19D1904213D08F
:10162000816841F4A0018160002002B0B0BD00BF1C
:101630000B6813F4702FD0D0A36A43F48013A36215
:101640000B685B05D0D4D4E7096811F4702FE7D09C
:10165000816841F480118160002002B0B0BD0000BB
:10166000F0B581B00446036842F60000C4F2010000
:10167000834205D042F20040C4F2010083420BD104
:1016800042F20440C4F20100006810F4702F03D04D
:10169000012001B0F0BD00BF94F82400012803D15F
:1016A000022001B0F0BD00BF012084F8240000201A
:1016B000009098680E461546C00743D198684DF6CD
:1016C000836140F00100986040F21400C2F2000013
:1016D0000068C4F21B31A0FB0101880C0090009847
:1016E000A8B100BF009801380090009878B1009828
:1016F00001380090009850B100980138009000988F
:1017000028B100980138009000980028EAD100F034
:1017100049FB074623689868C00713D100F042FBD5
:10172000C01B0228F6D9A06A40F01000A062E06A4F
:1017300040F00100E062002084F82400012001B0A4
:10174000F0BD00BF42F20440A16AC4F2010040F6BD
:101750000172914300F57F7201F580719342A1629D
:1017600046D0A06A20F48010A0625868400504D5D5
:10177000A06A012161F30D30A062A16A0020C904B2
:101780004FF0000144BFE16A21F00601E16284F8F4
:101790002400206A40F23D51C0F6000140F2A952F7
:1017A00040F2915700F1280CC0F60002C0F6000785
:1017B0008CE886006FF0020119609968324641F4A6
:1017C0008071996003F14C012B4600F05DF92068AF
:1017D000816801F460228168B2F5602F0CBF41F48A
:1017E000A00141F480118160002001B0F0BD00BF74
:1017F000016811F4702FB4D0A16A41F48011A16284
:1018000000684005B4D4B8E7B0B5044690F82400A9
:10181000012804BF0220B0BD0121206884F82410F3
:101820008168C90708D1214651F8280F41F20112F9
:1018300020EA0202002018E0816821F001018160A5
:1018400000F0B0FA054600BF20688068C007EAD003
:1018500000F0A8FA401B0328F6D3A06A214640F006
:101860001000A06251F82C2F012042F001020A6002
:10187000002184F82410B0BD10B5D0E90FCE016866
:10188000DCF800300A6823FA0EF35C072AD512F060
:10189000040427D00A68920603D40A6822F00402DE
:1018A0000A602F22C4F20202914240F20402C4F202
:1018B000020259DD3023C4F20203994270D044235E
:1018C000C4F20203994271D05823C4F20203994230
:1018D00078D14FF480231360C16A002940F09780CB
:1018E0006EE000BF9C0727D512F0020424D00A68DE
:1018F000920606D40A6822F00A020A60012280F8E1
:1019000021202F22C4F20202914240F20402C4F2CA
:10191000020239DD3023C4F2020399425ED044232F
:10192000C4F2020399425DD05823C4F202039942E3
:101930005ED14FF4003363E01B0741D512F008027B
:1019400008BF10BD0A6822F00E020A60012101FAE8
:101950000EF2CCF804208163016B4FF480720029F1
:10196000028454D12CE000BF0823C4F20203994240
:1019700022D01C23C4F20203994223D140231360D6
:10198000C16A002943D11BE00823C4F20203994233
:101990002CD01C23C4F20203994229D120232FE02A
:1019A0004FF480631360C16A89BB09E04FF4804340
:1019B0001360C16A59BB03E004231360C16A31BBE1
:1019C00010BD00BF02F168044FF08063A14208BF60
:1019D0004FF480031360C16AC9B9F1E74FF4007393
:1019E0000EE000BF4FF400530AE000BF022307E0FF
:1019F00002F168044FF00073A14208BF4FF40013D6
:101A00001360816A0022002980F82020D8D0BDE828
:101A100010400847002804BF012070472DE9F0411D
:101A200001684FF6F872CBF6FD724CF6CD430A44CE
:101A3000CCF6CC43A2FB03236FF0030202EA93022D
:101A40000023C4F2020300F1040E00F11007C0E904
:101A50000F329EE80051F0CF0A6843F6F0739A43C4
:101A600042EA080242EA0C0242EA0E0222432A43F8
:101A700032433A430A6000214FF48072816302844A
:101A8000BDE8F0410846704790F820C0BCF1010F56
:101A900004BF02207047F0B590F821C04FF0010E4E
:101AA000BCF1010F80F820E026D14FF0020C80F845
:101AB00021C04FF0000CC0F838C0D0E900C4C56A9E
:101AC000C66BDCF80070102C27F00107CCF8007012
:101AD000006C0EFA00F070600846CCF8043004BFC9
:101AE00010460A46CCF80800CCF80C20DCF80000C0
:101AF00045B140F00E000DE0002180F820100220DA
:101B0000F0BD00BF20F00400CCF80000DCF80000BD
:101B100040F00A00CCF80000DCF8000040F00100C2
:101B2000CCF800000020F0BDB0B5044600F03AF952
:101B3000054640F20400C2F200000078611C18BFA4
:101B4000044400BF00F02EF9401BA042FAD3B0BD00
:101B5000102818BF704740F22000C2F2000001793F
:101B6000B1FA81F1490901717047000040F2144156
:101B7000C4F201010A68024214BF08607047FFF70F
:101B8000E7BF00002DE9F04F82B00E68002E00F094
:101B9000FF8040F20C4C40F2004E41F20042C4F291
:101BA000010CC4F2010EC4F2010204270024012337
:101BB0004FF0000A4FF00009904208BF032700973A
:101BC00049E000BF41F20002C4F20102009F9042CE
:101BD00008BF022704F00C030F229A402BEA0202EE
:101BE00007FA03F34FEA9A051A4346F825204E6890
:101BF000F203DEF8002054BF22EA080242EA08029B
:101C0000CEF80020DEF80420B30354BF22EA080215
:101C100042EA0802CEF80420F302DEF8082054BF9E
:101C200022EA080242EA0802B302CEF80820DCF8F1
:101C300000204FF0010354BF22EA080242EA0802E2
:101C4000CCF800200E680AF1010A36FA0AF204F113
:101C5000040400F09D8003FA0AFB16EA0B08F1D099
:101C60004E684FF6FF72C1F21002964212DC122E3D
:101C700056D8DFE806F0350B4D49555555555555A5
:101C80005555555555555545510000BFD1F80C9047
:101C900046E000BF4FF6FF72C1F2210296420FDC10
:101CA0000022C1F2110296421AD00022C1F21202A1
:101CB000964215D00022C1F22102964210D02FE0A8
:101CC0000022C1F2220296420AD00022C1F2310261
:101CD000964205D00022C1F23202964220D100BFC6
:101CE0008A684AB1012A14BFC0F814B0C0F810B015
:101CF0004FF0080914E000BF4FF0040910E000BFE6
:101D0000CA6802F104090BE04FF0000908E000BFC7
:101D1000CA6802F1080903E0CA6802F10C0900BFB1
:101D200002462646B8F5807F24BF0432203E17685D
:101D30000F25B54027EA050509FA06F63543156073
:101D4000CA79D2067FF57EAF41F21803C4F20203CE
:101D50001A68AEF57E7642F001021A601A6802F047
:101D600001020192019A2AF0030256F802B040F6ED
:101D70000002C4F20102904208D040F60042C4F2D0
:101D8000010290427FF41EAF012723E7002721E7DD
:101D900002B0BDE8F08F0000002A08BF090401610D
:101DA0007047000040F24820C2F20000006870470F
:101DB00040F2040040F24821C2F20000C2F20001E9
:101DC00000780A68104408607047000080B542F24D
:101DD0000000C4F20200016841F01001016003201C
:101DE00000F08CF8002000F005F800F027F8002043
:101DF00080BD000070B540F20406C2F2000640F259
:101E000014013278C2F200014FF47A730968B3FB0F
:101E1000F2F20446B1FBF2F1084600F029FE0F2C65
:101E20004FF0010508D838B94FF0FF3021460022A5
:101E3000002500F037F87460284670BD82B041F28A
:101E40001800C4F202000168022241F001010160A1
:101E5000016801F0010101910199416841F080514F
:101E60004160406800F08050009000980420C4F267
:101E70000100016862F31A61016002B0704700005E
:101E8000002848BF704700F01F01012202FA01F14B
:101E90001C2202EAD0004EF20012CEF20002815063
:101EA0007047000010B54EF60C5CCEF2000CDCF86A
:101EB0000030C3F3022E8EF00704042C28BF042444
:101EC000BEF103034FF0FF3E0EFA04F438BF0023C7
:101ED000A14399400EFA03F39A43114300F00F0215
:101EE00000F160430901043A03F5644362440028A9
:101EF00048BF02F10C03197010BD00004EF60C51E2
:101F0000CEF200010A684FF6FF031A4060F30A227E
:101F100042F0806040F0FD7008607047012821D0D9
:101F200002280DD0102808D141F20401C4F20201A8
:101F30000A6851F8040CC00134D40020704700BF77
:101F400080B500F0C7F941F20401C4F2020109684A
:101F50000222C1F3813102EB4101B0FBF1F0BDE897
:101F60008040704741F20400C4F20200C16940F2AF
:101F700002320A40B2F5817F04BF4FF4004070473F
:101F800001F44071B1F5407F18D0B1F5007F1CBF5E
:101F900000207047006A49F64041800701EAE0707E
:101FA000704700BFC2F3834015A3185CD2030DD461
:101FB00040F60012C0F23D02504313E050F8040C0A
:101FC0004FF22441800301EAE07070470A6810A3D1
:101FD000C2F340429A5C41F20023C0F27A03B3FBA1
:101FE000F2F250430968490248BF70474AF6AB21F4
:101FF0004000CAF6AA21A0FB01014808704700BFB3
:1020000002030405060708090A0B0C0D0E0F101039
:10201000010200002DE9F04182B00446007841F24F
:102020001C06C007C4F202064AD030685FEAC00846
:1020300008D4306840F080503060306800F0805044
:102040000190019847F20007C4F200073868C00504
:1020500012D4386840F480703860FFF7A3FE05465C
:102060003868C00508D4FFF79DFE401B6428F7D9E7
:10207000032002B0BDE8F081706810F4407012D007
:10208000616801F4407188420DD0706840F24042AE
:10209000C4F24222012320F4407113600023C007E0
:1020A0001360716026D17068616820F44070084345
:1020B000B8F1000F706003D4306820F080503060B9
:1020C0002068810707D556F8181CA26821F4404102
:1020D000114346F8181CC00607D556F8180CE168DD
:1020E00020F48000084346F8180C002002B0BDE838
:1020F000F08100BFFFF756FE054641F2883700BF6A
:1021000070688007CFD4FFF74DFE401BB8424FF0F8
:102110000300F5D9EAE70000002804BF012070475A
:102120002DE9F04381B042F20008C4F202080446EF
:10213000D8F800000D4600F0070081420CD9D8F80D
:10214000000020F007002843C8F80000D8F800007D
:1021500000F00700A8426CD1206841F20409810711
:10216000C4F2020917D5410705D5D9F8001041F48A
:10217000E061C9F80010010705D5D9F8001041F455
:102180006051C9F80010D9F80010A26821F0F001E0
:102190001143C9F80010C00742D1D8F8000000F080
:1021A000070085420CD2D8F8000020F00700284331
:1021B000C8F80000D8F8000000F00700A84238D1A5
:1021C0002068410707D5D9F80010E26821F4E061E2
:1021D0001143C9F80010000708D5D9F8000021699B
:1021E00020F4605040EAC100C9F80000D9F800208E
:1021F00002F00C00082841F20020C0F27A004DD114
:1022000044F6CA63C2F38341C0F60003595CD203AB
:1022100038D440F60010C0F23D0048433EE000BF15
:10222000606859F8041C022808D0012826D18903C7
:1022300006D4012001B0BDE8F08300BF8901F8D5C4
:10224000D9F8001021F003010843C9F80000FFF796
:10225000A9FD064641F28837D9F80000616800F010
:102260000C00B0EB810F98D0FFF79CFD801BB842AB
:10227000F2D9032001B0BDE8F08300BF8907D8D5AB
:10228000DEE700BFD9F8002044F24473C2F34042B5
:10229000C0F600039A5C4843B0FBF2F0D9F8001096
:1022A00044F24672C1F30311C0F60002515C40F2E1
:1022B000140220FA01F140F20800C2F200000068A6
:1022C000C2F200021160FFF795FD002001B0BDE8E9
:1022D000F083000040F2140041F20401C2F2000059
:1022E000C4F202010068096844F25672C1F3C221C7
:1022F000C0F60002515CC84070470000002804BFCF
:10230000012070472DE9F04182B00446007841F287
:102310000006C007C4F202060CD0706800F00C0082
:10232000042840F081803068800303D5606800286D
:1023300000F04681207880071BD5706810F00C0FE4
:1023400009D0706800F00C00082840F087807068A1
:10235000C00300F183803068800703D5206901281D
:1023600040F02E813068616920F0F80040EAC10039
:1023700030602078000713D4207840072CD4E5691A
:10238000002D00F01881706800F00C00082840F063
:10239000A780012D40F00481012002B0BDE8F0814A
:1023A000A069002800F084800020C4F242200121AE
:1023B000C0F88014FFF7F6FC054600BF706A80077E
:1023C00000F1B280FFF7EEFC401B0228F6D9032093
:1023D00002B0BDE8F08100BFF0695FEAC00808D430
:1023E000F06940F08050F061F06900F0805000909A
:1023F000009847F20007C4F200073868C00549D4C6
:10240000386840F480703860FFF7CCFC054600BFA8
:102410003868C0053ED4FFF7C5FC401B6428F7D9D7
:10242000032002B0BDE8F081706800F00C000828BD
:1024300003D17068C0033FF576AF6168306800294A
:1024400000F00C81B1F5A02F00F00081B1F5803FC4
:1024500040F01A8140F480301CE100BF2069002860
:1024600040F20000C4F2422000F0888001210160A7
:10247000FFF798FC054600BF306880073FF572AF54
:10248000FFF790FC401B0228F6D9032002B0BDE8FC
:10249000F08100BFE168306A002900F09D800529C5
:1024A00000F09280012940F0AF8040F00100B1E0DF
:1024B0000020C4F242200021C0F88014FFF772FC13
:1024C000054600BF706A80077FF556AFFFF76AFCCC
:1024D000401B0228F6D9032002B0BDE8F08100BFFE
:1024E0000027C4F2422700203866FFF75BFC022D6C
:1024F00005460DD13068800140F1DE80FFF752FCC7
:10250000401B02284FF00300F4D902B0BDE8F0816F
:10251000306880014FD5FFF745FC401B02284FF083
:102520000300F5D9F1E700BF40F21400C2F2000049
:10253000006844F6D351C1F26201A0FB0101480AD0
:10254000019000BF00BF0198411E002801913FF497
:1025500013AF00BF0198411E002801913FF40CAF5A
:1025600000BF0198411E002801913FF405AF00BF54
:102570000198411E00280191E4D1FDE6002101608F
:10258000FFF710FC054600BF306880077FF5F1AE0D
:10259000FFF708FC401B02284FF00300F4D9B4E712
:1025A0007068216A00F480328A4209D1616A00F4BD
:1025B0007010884204D1002002B0BDE8F08100BF55
:1025C000012002B0BDE8F08140F004003062306AC2
:1025D00040F001001EE000BF20F001003062306AD0
:1025E00020F004003062FFF7DDFB054641F288373A
:1025F000306A800720D5FFF7D5FB401BB8424FF06B
:102600000300F5D981E700BF20F001003062306A95
:1026100020F004003062FFF7C5FB054641F2883721
:10262000306A800708D4FFF7BDFB401BB842F7D9DA
:10263000032002B0BDE8F081B8F1000F3FF59FAE76
:10264000F06920F08050F06199E600BF40F48020EE
:102650003060306840F480301CE000BF20F48030EF
:102660003060306820F480203060FFF79BFB054627
:10267000306880037FF55EAEFFF794FB401B642853
:102680004FF00300F4D940E720F480303060306828
:1026900020F480203060FFF785FB0546306880031A
:1026A0003FF548AEFFF77EFB401B6428F6D90320B8
:1026B00002B0BDE8F08100BF206AB0F5803F05D1CF
:1026C0007168A26821F40031114371607168626A17
:1026D00021F4741111430843706001203866FFF73C
:1026E00061FB0446306880013FF565AFFFF75AFB98
:1026F000001B02284FF00300F4D906E7002804BFAE
:1027000001207047B0B504460020A06294F8511033
:1027100029B984F85000204600F032F80020022148
:1027200084F85110D4E9001ED4E9023C0A6822F072
:1027300040020A6043EA0E02236942EA0C0242EABE
:10274000030CD4E90532E5694CEA030C02F4007E7F
:102750004CEA0E0343EA050C256AA36A45EA0C0518
:102760002B430B60042303EA12424A60CA6922F435
:102770000062CA610121606584F85110B0BD00009B
:1027800070B586B0044640F60000C4F2010021682E
:1027900000F52052002691420596CDE90366029687
:1027A00002D006B070BD00BF41F21801C4F20201B0
:1027B0000A6842F480520A600A6802F48052019268
:1027C000019A0A6842F004020A60096801F00401F3
:1027D00001910199A0210291022103910321059108
:1027E00002A9FFF7CFF940F26C153020C2F20005C4
:1027F000C4F202001021802285E8430005F10C009C
:102800004FF480734FF4806C80E80C102846C5E9C3
:102810000666FFF7FFF8002818BFFEF729FBA5643E
:102820006C6206B070BD00002DE9F04381B0044633
:1028300090F85000012803D1022001B0BDE8F083D8
:102840004FF001081D460F46164684F85080FFF7EA
:10285000A9FA94F85110012942D18146002F4FF076
:10286000010018BF002E00F0FB800320002284F836
:10287000510062652763A686E686A263A287E28787
:10288000A0683146B0F5004F20682264626403D12D
:10289000026842F4804202600268520603D4026871
:1028A00042F04002026062680139E368B2FA82F2E3
:1028B000B1FA81F152094909B3F5006F41EA020109
:1028C0003CD131B137F8021BC1602763E08E01387B
:1028D000E086E08E00286BD0681C0ED11DE000BFA2
:1028E0000220BDE0216B31F8022BC2602163E08E33
:1028F0000138E086E08E00285AD020688168890778
:10290000F0D4FFF74FFAA0EB0900A842F2D338E069
:10291000FFF748FAE08E00284AD0206881688907CE
:10292000F6D5216B31F8022BC2602163E08E0138AD
:10293000E086E08E0028F0D13AE000BF39B1397866
:102940000173206B01302063E08E0138E086E08E59
:1029500070B3681C0BD11BE0216B09780173206BED
:1029600001302063E08E0138E086E08E00B32068FD
:1029700081688907F0D4FFF715FAA0EB0900A84297
:10298000F3D303206CE000BFFFF70CFAE08E78B1C0
:10299000206881688907F7D5216B09780173206B5E
:1029A00001302063E08E0138E086E08E0028EFD110
:1029B00020688168090646D5691C0ED0FFF7F2F938
:1029C000A0EB09012068A94212D281680906F5D45A
:1029D00039E000BF8168090635D58168090632D51E
:1029E0008168090644BF81685FEA01612BD5F1E780
:1029F000416821F0E00141606168B1F5827F0AD150
:102A0000A168B1F5004F02D0B1F5806F03D1016824
:102A100021F040010160A16AB1F5005F07D10168B2
:102A200021F400510160016841F40051016001216D
:102A300084F85110002184F85010616D41F020019C
:102A4000616520216165A16831B900210091C168EB
:102A50000091806800900098606D002818BF0120E8
:102A6000002184F8518084F8501001B0BDE8F08353
:102A7000411E0020B0EB116F1CBF012070474EF2C9
:102A80001002CEF2000251604EF62351CEF2000148
:102A9000F0230B70072190601160704790F83C2084
:102AA000012A04BF02207047B0B501F108053CCDF2
:102AB000D1E900CE23F47C5322F470521A432EF451
:102AC000F0431A432CF4E0431A4324F4C0431A435E
:102AD0002A43C96922F480420368114359640021E2
:102AE00080F83C100020B0BD90F83C20012A4FF047
:102AF000020219D080B580F83D2002685368D2F8F0
:102B000008C091E8024023F0700319432CF08003C1
:102B100043EA0E03516093600121002280F83D10CA
:102B200080F83C20BDE8804010467047006801F006
:102B30001F010422036A02FA01F123EA0102026280
:102B4000026A11430162416C41F4004141648168B1
:102B500001F00701062903D0016841F0010101607D
:102B600000207047006801F01F010422036A02FA86
:102B700001F123EA01010162016A0162026A41F284
:102B800011110A4204D1026A40F244431A4205D0AC
:102B9000026A0A4209D00020704700BF426C22F44A
:102BA00000424264026A0A42F5D1016A40F244429C
:102BB0001142F0D1016821F001010160002070474D
:102BC000002804BF0120704710B590F83D1031B9BE
:102BD000002180F83C10044600F056F820460221FF
:102BE00080F83D10016840F2FF740B68C4F20004E5
:102BF00042F6004CA142C4F2010C15DCB1F1804F49
:102C00001AD040F20042C4F20002914214D0A14214
:102C100018DCB1F1804F1DD040F20042C4F2000236
:102C2000914217D01AE000BF614505D040F600027E
:102C3000C4F200029142EAD1826823F07003134388
:102C4000A142E6DD614505D040F60002C4F2000273
:102C5000914203D1026923F440731343846923F042
:102C60008002D0F804E0C368224361450A60CB6269
:102C7000C1F828E002D14269CCF8302001224A6133
:102C800080F83D20002010BD006842F60041C4F2EB
:102C90000101884218BF704781B041F21800C4F2A8
:102CA0000200016841F400610160006800F4006006
:102CB0000090009801B0704790F83C20012A4FF036
:102CC000020248D080B580F83D20D0F800C04FF611
:102CD0007772DCF8083023EA0202CCF808200B688F
:102CE0003F2B1DDD5F2B39DD602B5BD0B3F5005F23
:102CF00000F09880702B26D1D1E901E3C968DCF897
:102D0000082043EA0E0322F47F4243EA01211143E3
:102D1000CCF80810DCF8081041F0770111E000BF92
:102D20001F2B03DC33B1102B04D00CE0202B01D07F
:102D3000302B08D1DCF8081021F07001194341F064
:102D40000701CCF808100121002280F83D1080F81E
:102D50003C20BDE880401046704700BF402B41D06A
:102D6000502BF0D1D1F804E0C968DCF82030DCF851
:102D7000202022F00102CCF82020DCF8182022F0DC
:102D8000F00242EA011123F00A0242EA0E02CCF8F4
:102D90001810CCF82020DCF8081041F0570121F081
:102DA0002001CEE7D1F804E0C968DCF8203023F038
:102DB0001003CCF82030DCF81830DCF8202023F4A5
:102DC000704322F0A00243EA013142EA0E12CCF82D
:102DD0001810CCF82020DCF8081041F0670121F031
:102DE0001001AEE7D1F804E0C968DCF82030DCF867
:102DF000202022F00102CCF82020DCF8182022F05C
:102E0000F00242EA011123F00A0242EA0E02CCF873
:102E10001810CCF82020DCF8081041F0470121F010
:102E200030018EE7D1E901E3C968DCF8082043EA04
:102E30000E0322F47F4243EA01211143CCF808102B
:102E4000DCF8081041F480417BE70000002804BF53
:102E5000012070472DE9F04F81B090F83D2042B934
:102E6000002280F83C2004460D4600F08BF82946ED
:102E70002046022280F83D20026844F2070593684C
:102E800042F6004CAB43936040F2FF731468C4F207
:102E900000039A42C4F2010C14DCB2F1804F19D045
:102EA00040F20045C4F20005AA4213D09A4217DC52
:102EB000B2F1804F1CD040F20043C4F200039A42AA
:102EC00016D01AE0624505D040F60005C4F20005B0
:102ED000AA42EBD1856824F070042C439A42E7DDC6
:102EE000624505D040F60003C4F200039A4204D1C3
:102EF000036924F4407543EA050424F080038469DF
:102F0000D0F804E0C568234362451360D562C2F877
:102F100028E002D14369CCF830304FF0010CC2F800
:102F200014C095689469D2F820E0D1E90038D1E95D
:102F3000027B43EA050A8D694FF6FF7924EA09040A
:102F400047EA05254FF6FC47BD43D1E9077644EA39
:102F50000B040B692C4344EA07242EF0220749692D
:102F600044EA031347EA080743EA063347EA011134
:102F7000C2F808A09361116280F83DC0002001B042
:102F8000BDE8F08F70B586B000680026B0F1804FC4
:102F9000CDE904660396029602D006B070BD00BF6C
:102FA00041F21800C4F20200416840F6000441F00A
:102FB000010141604168C4F2010401F00101019185
:102FC0000199016802AD41F004010160016801F05E
:102FD000040101910199016841F008010160006854
:102FE000294600F00800019001984FF40040CDE917
:102FF000020620460496FEF7C5FD0820CDE902062C
:1030000004F5806029460496FEF7BCFD0420C4F256
:10301000010001684FF6FF42CFF6FF02114041F078
:10302000E06141F48071016006B070BD026804295E
:10303000106A0BD020F0010011B9012109E000BF96
:103040001062106A40F001001062106A20F0100057
:1030500010211062106A08431062106840F00101EC
:10306000002011607047000070B586B040F6000483
:10307000C4F20104006804F5105188424FF00000CA
:10308000CDE90400CDE9020002D006B070BD00BF5A
:1030900041F21800C4F20200016802AD41F00801DB
:1030A00001600168022601F008010191019901689F
:1030B00041F0040101600068294600F0040001901D
:1030C00001984FF4C040029004F580600396059685
:1030D000FEF758FD4FF44070CDE902062046294620
:1030E0000596FEF74FFD06B070BD000090F83C302D
:1030F000012B4FF0020300F0F6804FEAB202032AE0
:1031000080F83D3000F2E9802DE9F043DFE802F07D
:1031100002A43A74036842F600461A6AC4F2010631
:1031200022F001021A621D6A1A465C6852F818CF32
:10313000B3428E68D1F800E025F0020545EA0605A5
:103140000CD1CE68D1E9057824F4407425F00C0543
:1031500026F004063C43354344EA08042CF0730788
:1031600047EA0E075C609F614F6809695F631D62F3
:103170009F6947F008079F619F6927F004079F61D7
:10318000A6E000BF036842F600461A6AC4F20106D0
:1031900022F480721A621D6A1A46D3F804C052F8EB
:1031A0001CEFB3428E680C6825F4007545EA0625CD
:1031B0000FD1CE68D1E90598360240F2FF4725F4D9
:1031C0004065BE4335432CF4405748EA090647EAB8
:1031D000061C2EF073072743C3F804C0DF614F6855
:1031E0000969DF631D62DF6947F00807DF61DF6996
:1031F00027F00407DF616BE0036842F600471A6AB4
:10320000C4F2010722F480521A621A46D3F820C091
:103210005D6852F81C4FD1F800E08E68BB4204D1C3
:103220004F6925F4804545EA87152CF4005747EA95
:10323000063724F4E64646EA0E265D60DE614E68F7
:1032400009691E641F62DF6947F40067DF61DF6997
:1032500027F48067DF613AE0036842F600461A6AA5
:10326000C4F2010622F010021A621D6A1A46D3F84F
:1032700004C052F8184FB3428E68D1F800E025F030
:10328000200545EA06150FD1CE68D1E905986FF003
:10329000400725F0C00507EA061635432CF44067C1
:1032A00048EA090647EA860C24F4E64444EA0E2775
:1032B000C3F804C09F614F6809699F631D629F69DD
:1032C00047F400679F619F6927F480679F61090247
:1032D000136819431160BDE8F0430121002380F811
:1032E0003D1080F83C30184670470000002804BFAD
:1032F0000120704710B590F83D1031B9002180F8D9
:103300003C10044600F056F82046022180F83D109B
:10331000016840F2FF740B68C4F2000442F6004CEE
:10332000A142C4F2010C15DCB1F1804F1AD040F279
:103330000042C4F20002914214D0A14218DCB1F163
:10334000804F1DD040F20042C4F20002914217D0DB
:103350001AE000BF614505D040F60002C4F2000249
:103360009142EAD1826823F070031343A142E6DD63
:10337000614505D040F60002C4F20002914203D13B
:10338000026923F440731343846923F08002D0F868
:1033900004E0C368224361450A60CB62C1F828E0BB
:1033A00002D14269CCF8302001224A6180F83D20E8
:1033B000002010BD70470000006801F01F010122CD
:1033C000036A8A4023EA02010162036A42F6444129
:1033D000C4F201011A43A1F144039842026207D0EA
:1033E000816801F0070106290BD10020704700BF5A
:1033F0000A6842F400420A60816801F00701062968
:10340000F3D0016841F00101016000207047000025
:103410000246006801F01F0101238B40016A42F659
:10342000004C99430162C4F2010C016A60450162DB
:103430000ED1DCF8201041F21113194208D1016AB3
:1034400040F24443194203D1416C21F400414164EC
:10345000016A41F21113194204D00121002082F8BF
:103460003D107047016A40F244431942F5D10168AA
:1034700021F0010101600121002082F83D10704718
:10348000FEE700002DE9F04F89B040F22000C2F2C3
:1034900000008468002120464FF0000BFCF726FF57
:1034A000002100284FF03F46C4F2C82120464FF0CB
:1034B0003F4918BF4FF07C56FCF78CFE3146FCF7B5
:1034C00031FEFCF734FF48F21F580346C5F2EB18F3
:1034D00044F65E76002848BF4342A3FB081244F638
:1034E0005D77C0F60006C0F60007314652094FF07E
:1034F000640A002802FB1A3348BF394644F64D7768
:1035000003ACC0F600072046009700F0C7FD372047
:1035100016215A220C23CDF800B000F0BFF940F27A
:103520000C00C2F20000D0E9003040F2FF71CDE99A
:103530000001372016212246CDF808B000F0B6FA77
:1035400040F22000C2F20000C76800213846FCF7B4
:10355000CDFE002100284FF03F453846C4F2C82177
:1035600018BF4FF07C55FCF735FE2946FCF7DAFD15
:10357000FCF7DDFE0346002848BF4342A3FB0812C8
:1035800000284FEA521244F65D70314602FB1A33AE
:10359000C0F6000044F64D7748BF01462046C0F60D
:1035A0000007009700F07AFD372028215A220C23CB
:1035B000CDF800B000F072F940F20C00C2F2000049
:1035C000D0E900304FF4FC61CDE90001372028211B
:1035D0002246CDF808B000F069FA40F22000C2F2AD
:1035E0000000056900212846FCF780FE0021002824
:1035F0004FF03F472846C4F2C82118BF4FF07C5710
:10360000FCF7E8FD3946FCF78DFDFCF790FE01461E
:10361000002848BF4142A1FB082300284FEA53126B
:1036200044F65D7002FB1A13C0F6000048BF064660
:103630006FA720463146009700F030FD37203A2131
:103640005A220C23CDF800B000F028F940F20C000B
:10365000C2F20000D0E900304FF6E071CDE9000180
:1036600037203A212246CDF808B000F01FFA40F288
:103670002000C2F20000456900212846FCF736FE12
:1036800040F20008C4F2201800284FF03F462846B8
:10369000414618BF4FF07C56FCF79CFD3146FCF7C5
:1036A00041FDFCF744FE4CF6CD4A0346CCF6CC4A2D
:1036B000002848BF4342A3FB0A1244F65176D208C1
:1036C000C0F60006002802EB820044F6507731462F
:1036D000A3EB400347A52046C0F6000748BF394684
:1036E000009500F0DBFC37204C215A220C23CDF84A
:1036F00000B000F0D3F840F20C00C2F20000D0E9B4
:1037000000304FF61F01CDE9000137204C21224641
:10371000CDF808B000F0CAF940F21800C2F200007B
:10372000056800212846FCF7E1FD002828464146AF
:1037300018BF4FF07C59FCF74DFD4946FCF7F2FCF1
:10374000FCF7F5FD0146002848BF4142A1FB0A23D2
:10375000DA08002848BF3E4602EB820044F64D7767
:10376000A1EB400320463146C0F60007009700F069
:1037700095FC37205E215A220C23CDF800B000F0D2
:103780008DF840F20C05C2F20005D5E900304FF685
:10379000FF71CDE9000137205E212246CDF808B047
:1037A00000F084F9372070215A220C23CDF800B0A4
:1037B00000F074F840F22000C2F200000179D5E96F
:1037C0000030002731B14FF4FC61CDE900010AA2BD
:1037D00005E000BF4FF4784108A2CDE90001372091
:1037E0007021029700F062F909B0BDE8F08F00BFC8
:1037F00020410000204300004F4E00004F4646008D
:10380000FEE7000070470000704700002DE9F04718
:1038100082B00478002C3DD040F6004940F2B01A46
:10382000C4F20109451CC2F2000A0DF1070802E0CA
:10383000013C20062ED015F8020B01218DF807005F
:1038400048460022FEF7A8FA5046414601224FF0B2
:10385000FF33FEF7E9FF15F8016C16F07F070CD077
:10386000484601210122FEF797FA504629463A467A
:103870004FF0FF33FEF7D8FF3D4470B2B0F1FF3F89
:10388000D6DC15F8010BFF2808BF4FF4FA70FEF7DD
:103890004BF9CDE702B0BDE8F08700009F2898BF44
:1038A0007F2901D9704700BF2DE9F04381B09046D0
:1038B00040F6004602449946C4F20106A02A03EBF2
:1038C0000102089D88BFC0F1A008802A88BFC1F10D
:1038D0008009044630460F464FF480610022FEF70F
:1038E0005BFA08EB040009EB070101380139C2B2A9
:1038F000CBB2E0B2F9B200F06FF868BA5FEA094102
:10390000ADF8020018BF5FEA08401BD040F2B017C4
:10391000C2F200070DF10205444600BF3046012106
:103920000122FEF739FA3846294602224FF0FF33CA
:10393000FEF77AFF013C2004F0D1A9F101095FEA0A
:103940000940E9D130464FF480610122FEF724FAA4
:1039500001B0BDE8F043704780B582B084460020D6
:103960000021A0228023CDF800C0FFF797FF02B00E
:1039700080BD000010B540F60044C4F201042046AA
:103980004FF480610022FEF707FA20460221002250
:10399000FEF702FA0520FEF7C7F8204602210122B1
:1039A000FEF7FAF944F6DA60C0F60000FFF72EFFE2
:1039B00044F61570C0F60000FFF728FF44F62270A9
:1039C000C0F60000FFF722FF20464FF4806101227D
:1039D000BDE81040FEF7E0B92DE9F04782B040F6AF
:1039E000004A07462A20C4F2010A164689468DF885
:1039F000050050460121002298460024FEF7CCF92C
:103A000040F2B015C2F200050DF105012846012271
:103A10004FF0FF33FEF708FF5046012101228DF8D9
:103A200001408DF802708DF803408DF80460FEF7B8
:103A3000B3F90DF101062846314604224FF0FF3359
:103A4000FEF7F2FE2B208DF80600504601210022E1
:103A5000FEF7A2F90DF10601284601224FF0FF33CF
:103A6000FEF7E2FE5046012101228DF802908DF80A
:103A70000480FEF791F92846314604224FF0FF33C7
:103A8000FEF7D2FE2C208DF80700504601210022BF
:103A9000FEF782F90DF10701284601224FF0FF33AE
:103AA000FEF7C2FE02B0BDE8F08700002DE9F04F3E
:103AB00089B0074640F6004015468A46C4F2010028
:103AC0004FF4806100221C46FEF766F92B78002B2C
:103AD00000F0D080C4F307202A4600285FFA84F95A
:103AE000079000F08580B9F1000F4FEA1420029092
:103AF00000F09E80DDE9131040F2B0154FEA112866
:103B00004FEA102BC2F200050DF1220601940AE0E3
:103B1000049FDDF814A0019C039A4F4412F8013F62
:103B2000002B00F0A780B8B248449F280CD9079911
:103B30008A441FFA8AF001447F2900F29B80202BDF
:103B40004FF00007EAD001E01FFA8AF00392029AD0
:103B5000E119104401390138CAB21C46C3B2F8B2A7
:103B60005FFA8AF10497CDF814A0FFF735FF0799A3
:103B7000A4F1200048431299002701EB4000069071
:103B800004E000BF079801378742C1D006984FF084
:103B9000000A30F8174017E0149801218DF8210031
:103BA00040F60040C4F2010001228DF820B0FEF77B
:103BB000F3F8284608A902224FF0FF33FEF734FE3F
:103BC0000AF1010AD145DDD004FA0AF00004E3D578
:103BD000139801218DF8230040F60040C4F2010043
:103BE00001228DF82280FEF7D7F828463146E2E719
:103BF000AAF10100561CC5B20DE000BFE019013862
:103C0000C2B2F8B25FFA8AF12B46FFF7E5FE4F44E5
:103C100016F8013B73B3B8B24844A028EED3BAF10A
:103C20007F0F27D8202B4FF00007E7D1F0E700BF28
:103C3000551C0FE01FFA8AF002997A1E08440138D9
:103C4000C3B2F8B25FFA8AF1D2B2FFF7C5FE15F837
:103C5000013B7BB1B8B29F28ECD907998A441FFA7F
:103C60008AF001447F2905D8202B4FF00007E3D1CB
:103C7000EDE700BF40F60040C4F201004FF4806160
:103C80000122FEF789F809B0BDE8F08F7047000007
:103C9000FEF78EB841F20000C4F202000168002273
:103CA00041F0010101604168CFF6FF02114041601F
:103CB00001684FF6FF72CFF6F662114001600168AD
:103CC00021F480210160416821F4FE0141604FF43C
:103CD0001F0181604EF60850CEF200004FF00061E7
:103CE00001607047FEE700002DE9F04F81B0054606
:103CF00010440138A84201DD7F2903D901B0BDE895
:103D0000F08F00BF481C40F6004698464FEA132B40
:103D1000C4F20106A2F10109CFB2C4B20DF1020A48
:103D200005E000BFB9F1010905F10105E6D0A8B22F
:103D30009F28F7D830464FF480610022FEF72CF818
:103D4000691CE8B2CAB239462346FFF745FE304641
:103D5000012101228DF802B08DF80380FEF71CF8D6
:103D600040F2B010C2F20000514602224FF0FF3381
:103D7000FEF75AFD30464FF480610122FEF70CF841
:103D8000D0E7000098B0FEF721F800274FF480300C
:103D90004FF00209CDE90107CDE907904FF4E0109B
:103DA0004FF0010809906846CDE90577CDE9037722
:103DB0001797CDE91577CDF80080CDF81080FEF784
:103DC0009DFA0F20CDE90A094FF48060CDE90D0777
:103DD0000AA802210C97FEF79FF94FF400401690B5
:103DE00014A8CDF85090FEF715F941F21804CDE96A
:103DF0000277CDE90077C4F20204206840F6004A59
:103E000040F0100020602068C4F2010A00F01000A9
:103E10000A900A9820680AF5806540F0200020602A
:103E200020684FF4604100F020000A900A98206852
:103E3000002240F00400206020684FF4604600F04B
:103E400004000A900A98206840F00800206020686A
:103E500000F008000A900A982846FDF79DFF50469A
:103E600040F20341002240F2034BFDF795FFCDE9FC
:103E700000686E4628463146CDE90279FDF782FE9C
:103E800050463146CDE900B8CDE90279FDF77AFE1A
:103E9000102000900020C1F21100CDE9010750462A
:103EA0003146FDF76FFE0A20002100220A25FDF7AA
:103EB000F9FF0A20FDF7E4FF54F8040C002140F05C
:103EC000010044F8040C54F8040C002200F0010036
:103ED000009000980B20FDF7E5FF0B20FDF7D0FFC9
:103EE0000D2000210022FDF7DDFF0D20FDF7C8FFAA
:103EF00040F2B0100AF51051C2F200004FF4007306
:103F000008264FF4827280E88600C0E90377C0E992
:103F10000573C0E90767C0E90977C562FEF7EEFBE4
:103F200040F220050AF5C050C2F2000545F8280FFE
:103F30004FF48020E86128462F732F75C5E901777B
:103F4000C5F81080FDF7D8F84FF0030B69462846F6
:103F5000CDE90098CDF808B0FDF708F840F27805F3
:103F60000AF5E050C2F200054FF46021C5E90007F0
:103F700028462F732F75E961AF60C5F81080FDF7F3
:103F8000BBF806206E46029028463146CDE90078FF
:103F9000FCF7ECFF28463146CDE90089FCF7E6FF47
:103FA00028463146CDE900BBFCF7E0FF40F208248B
:103FB0000AF50050C2F20004602605214FF47A721F
:103FC00084E8830020461797CDE91577139712965A
:103FD0000697C4E90327C4E90577FEF7F1FD4FF41E
:103FE0008050149014A92046FEF766FE2046FFF785
:103FF0007DF912A92046FEF777FDCDE90A670AAEE2
:10400000204631460022CDE90C77CDE90E77109796
:10401000FFF76CF8204631460422FFF767F870205E
:104020000A900A200B90204631460822FFF75EF8DE
:104030002320CDE903074FF4005005906946204640
:10404000CDE9007702970797FEF728FD2046FFF796
:104050000BF84FF0804045F8300F4FF6FF70C5E980
:10406000030769462846CDE90A77C5E90177AF61BC
:10407000CDE900B7CDE90287CDE90477CDE9068720
:104080000897FEF7E3FE0AA92846FEF72DFDFCF788
:10409000DFFA00BFFCF79CFBFCE700000FB4084B05
:1040A00010B504A902AA039800F02EF8044602A94C
:1040B000002000F05AFA204610BC5DF814FB000006
:1040C0006B45000800214FF07E50FCF7B5B8012188
:1040D000FCF7C2B900210846FCF7AEB802E008C8F8
:1040E000121F08C1002AFAD170477047002001E072
:1040F00001C1121F002AFBD170470000014908606E
:1041000070470000000000202DE9FF4F8DB00F46E2
:104110000546002606E025280BD0DDE90F12904762
:104120006D1C761C28780028F5D111B03046BDE80A
:10413000F08F0024A246A1460122EC4900E004438E
:1041400015F8013F203B02FA03F00842F7D1287826
:104150002A2810D06FF02F022878A0F13001092909
:1041600014D80AEB8A0102EB410144F0020400EB8F
:10417000010A6D1CF0E701CF5FEA000A03D544F4A1
:104180000054CAF1000A44F002046D1C28782E285D
:1041900017D115F8010F44F004042A280ED06FF04F
:1041A0002F022878A0F1300109290AD809EB8901EA
:1041B00002EB410100EB01096D1CF2E757F8049B8B
:1041C0006D1C28786C280FD006DC4C2817D0682886
:1041D0000DD06A2814D104E0742810D07A280FD1A9
:1041E0000DE044F400140AE044F4801401E044F4C7
:1041F00040146978814202D104F580146D1C6D1C55
:104200002A786E2A1FD00CDC632A31D004DC002A05
:104210008BD0582A11D1A3E0642A68D0692A0CD126
:1042200065E0732A2ED004DC6F2A73D0702A04D183
:104230009BE0752A6FD0782A6ED01046DDE90F1208
:104240009047761C50E1C4F30250022806D00328A0
:1042500009D0042801CF09D0066045E101CFF1174C
:10426000C0E9006140E101CF06803DE106703BE11D
:1042700017F8040B8DF8000000208DF80100EB46C4
:10428000012003E057F804BB4FF0FF3061074FF007
:10429000000102D40DE008F10101884649450FDA1A
:1042A0008045F8DB1BF808100029F4D108E008F17C
:1042B000010188468142FADB1BF808100029F6D17B
:1042C000DDE90F23AAEB08008146214600F036F90C
:1042D000304400EB080604E0DDE90F121BF8010B87
:1042E0009047B8F10108F7D221464846F7E00A2185
:1042F000C4F302534FF0000B0891022B04D001CFFE
:10430000C117032B09D00AE0FF1D27F00707F7E8C4
:10431000020108E032E01FE020E000B2C117042BE8
:1043200001D140B2C117031E71F1000307DA4FF04B
:10433000000CD0EB0C006CEB01012D2302E02305F7
:1043400004D52B238DF82430012303E0E30701D0AB
:104350002023F7E7984658E00A2110E010210EE0EC
:1043600010204FF0000B08900CE010214FF0000BD4
:1043700044F004044FF00809089103E008214FF0CD
:10438000000B0891C4F30253022B04D001CF00218B
:10439000032B06D006E0FF1D27F00707F7E8020110
:1043A00003E080B2042B00D1C0B24FF00008230715
:1043B0002BD5702A07D0DDF820C08CF0100C5CEAF9
:1043C0000B0C05D00EE040238DF82430012308E0CB
:1043D00050EA010306D030238DF824308DF82520D3
:1043E00002239846DDF820C08CF0080C5CEA0B0C28
:1043F0000BD150EA010301D1630706D530238DF8B4
:1044000024304FF00108A9F10109582A04D038A23C
:104410000B9208AA0A920BE03AA2F9E75B46089AC7
:10442000FBF7B2FF0B9B9B5C0A9A521E0A92137019
:1044300050EA0102F2D10A98ADEB000000F1200B26
:10444000600702D524F4803401E04FF00109D9451A
:1044500002DDA9EB0B0000E0002000EB0B01414462
:104460000890AAEB010AE00306D4DDE90F232146F8
:10447000504600F063F806444FF0000908E009A92F
:1044800011F80900DDE90F12904709F10109761CC6
:10449000C145F4DBE0030CD5DDE90F23214650468E
:1044A00000F04CF8064404E0DDE90F12302090479C
:1044B000761C0899481E08900029F5DC08E00A9847
:1044C0000A990078491C0A91DDE90F129047761C81
:1044D000BBF10001ABF1010BF1DC21465046DDE9F7
:1044E0000F2300F019F806446D1C1BE60928010093
:1044F000303132333435363738396162636465665A
:10450000000000003031323334353637383941421B
:1045100043444546000000002DE9F04104460025D3
:104520001E461746880404D405E039462020B047CB
:104530006D1C641EF9D52846BDE8F0812DE9F041D7
:10454000044600251E469046C80301D5302700E0EA
:104550002027880404D505E041463846B0476D1C45
:10456000641EF9D52846BDE8F0810A68531C0B602B
:10457000107070472DE9F0410026A0F50001B1F15F
:10458000FE4F7DD200F500226FF07E0101EBE2517B
:10459000C2F3025477184FF07E52A0EBC15602EBE3
:1045A000045557EA040047D029463046FBF7BAFDC8
:1045B000804629463046FBF707FE4146FBF73CFEA6
:1045C00005460146FBF706FE80464549FBF702FE1D
:1045D0004449FBF7A7FD064641462846FBF7FAFD8E
:1045E0003146FBF7F7FD06463846FBF741FF074625
:1045F0003D49FBF7EFFD3D49794451F82410FBF7A5
:1046000091FD3146FBF78EFD064601212846FBF75A
:1046100023FF3146FBF786FD054638463449FBF754
:10462000D9FD3449794451F82410FBF77BFD294624
:10463000BDE8F041FBF776BD4FF07E513046FBF709
:10464000C3FD05462C49FBF7C5FD2C49FBF76AFD68
:104650002946FBF7BFFD2A49FBF764FD2946FBF716
:10466000B9FD6FF08241FBF75DFD0446294608461F
:10467000FBF7B0FD2146FBF7ADFD0146284600E003
:1046800003E0BDE8F041FBF74DBD4FF07F42B2EBD8
:10469000400F03D2BDE8F041FFF719BDB0F1FF4F65
:1046A00008BFBDE8F081B0F1004F06D90120FFF747
:1046B00025FDBDE8F041FFF70DBD30F0004105D00C
:1046C0006FF016061721FBF7C7FE5BE70220FFF726
:1046D00015FDFFF7F7FC80F00040BDE8F081000019
:1046E00066F1CC3EAAAA2A3FF4FD05382801000055
:1046F0000070313FDC00000021ED423E0A1180BE17
:10470000C1ABAA3E000000000030F13D0070643EE5
:104710000000A33E0090CF3E0090F83E00400F3FC7
:1047200000E0203F0000000015B78337CDE37B3861
:104730000EE1C53860F69138AF5F0F38E1BC3E3806
:1047400023F44739010200000000000000000102CC
:10475000030406070809000000000102030400002A
:104760000000000000000000000000000000000049
:1047700000000010001000100010001000100000D9
:1047800000100000000000280028002800000000A1
:104790000000000000000000000000240024007C55
:1047A00000240048007C0048004800000000003859
:1047B0000054005000380014005400540038001019
:1047C000000000200054005800300028005400145D
:1047D000000800000000001000280028001000342D
:1047E00000480048003400000000001000100010D5
:1047F00000000000000000000000000000000008B1
:1048000000100020002000200020002000200010C8
:104810000008002000100008000800080008000838
:1048200000080010002000100038001000280000D0
:104830000000000000000000000000000000001068
:104840000010007C001000100000000000000000BC
:104850000000000000000000000000000010001038
:104860000010000000000000000000000038000000
:104870000000000000000000000000000000000038
:1048800000000000001000000000000800080010F8
:104890000010001000100020002000000000003870
:1048A0000044004400540044004400440038000028
:1048B0000000001000300050001000100010001028
:1048C000001000000000003800440044000400080C
:1048D00000100020007C00000000003800440004AC
:1048E0000018000400040044003800000000000824
:1048F0000018002800280048007C0008000800007C
:104900000000007C004000400078000400040044E7
:1049100000380000000000380044004000780044E7
:1049200000440044003800000000007C000400083F
:1049300000100010002000200020000000000038BF
:1049400000440044003800440044004400380000A3
:1049500000000038004400440044003C00040044CF
:1049600000380000000000000000001000000000FF
:104970000000000000100000000000000000000027
:1049800000100000000000000010001000100000E7
:104990000000000C003000400030000C000000005F
:1049A0000000000000000000007C0000007C00000F
:1049B000000000000000000000000060001800047B
:1049C00000180060000000000000003800440004EF
:1049D0000008001000100000001000000000003867
:1049E0000044004C0054005C0040004000380000CF
:1049F000000000100028002800280028007C004447
:104A000000440000000000780044004400780044A6
:104A100000440044007800000000003800440040DA
:104A200000400040004000440038000000000070DA
:104A30000048004400440044004400480070000066
:104A40000000007C00400040007C0040004000402E
:104A5000007C00000000007C004000400078004026
:104A600000400040004000000000003800440040CA
:104A70000040005C00440044003800000000004496
:104A800000440044007C0044004400440044000012
:104A9000000000380010001000100010001000107E
:104AA00000380000000000040004000400040004BA
:104AB000000400440038000000000044004800509A
:104AC0000060005000480048004400000000004022
:104AD000004000400040004000400040007C0000DA
:104AE00000000044006C006C00540044004400448A
:104AF00000440000000000440064006400540054BE
:104B0000004C004C00440000000000380044004409
:104B100000440044004400440038000000000078D5
:104B20000044004400440078004000400040000081
:104B30000000003800440044004400440044005495
:104B4000003800040000007800440044004400786D
:104B500000480048004400000000003800440040C5
:104B60000030000800040044003800000000007C11
:104B700000100010001000100010001000100000C5
:104B80000000004400440044004400440044004449
:104B900000380000000000440044004400280028C1
:104BA00000280010001000000000004400440054E1
:104BB00000540054006C002800280000000000444D
:104BC00000280028001000100028002800440000E1
:104BD00000000044004400280028001000100010CD
:104BE000001000000000007C00040008001000100D
:104BF00000200040007C00000000001800100010A1
:104C0000001000100010001000100010001800200C
:104C10000020001000100010001000080008000024
:104C200000000030001000100010001000100010F4
:104C30000010001000300010002800280044000080
:104C40000000000000000000000000000000000064
:104C500000000000000000000000000000FE002036
:104C60000010000000000000000000000000000034
:104C700000000000000000380044003C0044004CEC
:104C80000034000000000040004000580064004470
:104C900000440064005800000000000000000038DC
:104CA00000440040004000440038000000000004C0
:104CB00000040034004C00440044004C0034000068
:104CC00000000000000000380044007C0040004468
:104CD000003800000000000C0010007C00100010E4
:104CE0000010001000100000000000000000003460
:104CF000004C00440044004C0034000400780040A4
:104D00000040005800640044004400440044000097
:104D100000000010000000700010001000100010D3
:104D200000100000000000100000007000100010D3
:104D3000001000100010001000E00040004000488B
:104D40000050006000500048004400000000007067
:104D500000100010001000100010001000100000E3
:104D6000000000000000007800540054005400547B
:104D700000540000000000000000005800640044DF
:104D8000004400440044000000000000000000381F
:104D900000440044004400440038000000000000CB
:104DA00000000058006400440044006400580040C3
:104DB0000040000000000034004C00440044004C5F
:104DC00000340004000400000000005800640040AB
:104DD00000400040004000000000000000000038DB
:104DE00000440030000800440038000000000020AB
:104DF0000020007800200020002000200018000083
:104E00000000000000000044004400440044004C46
:104E100000340000000000000000004400440028AE
:104E200000280028001000000000000000000054CE
:104E300000540054006C002800280000000000000E
:104E4000000000440028001000100028004400006A
:104E5000000000000000004400440028002800106A
:104E600000100010006000000000007C000800102E
:104E700000200040007C000000000018001000101E
:104E8000001000200020001000100010001800107A
:104E90000010001000100010001000100010001092
:104EA0000010003000100010001000080008001072
:104EB0000010001000300000000000000074004CE2
:104EC00000000000000000000000020304050607C7
:104ED00008090A0B0C0D0E0F10100F01809611809F
:104EE000FFB103012C2DB203012C2DB306012C2D93
:104EF000012C2DB40107C003A20284C101C5C20266
:104F00000A00C3028A2AC4028AEEC5010E200036B6
:104F100001A03A0105022A040000007F2B040000D2
:104F2000007F04E010021C07123732292D29252B9F
:104F30003900010310E110031D07062E2C292D2E28
:104F40002E373F0000021013800A2980642056008B
:104F50002D256C642E2530316C642573002D256C55
:104F6000642E2530326C642573000000904F0008D9
:104F70000000002020000000DC400008B04F0008C6
:104F80002000002030060000EC4000080000000077
:104F9000000000000100000010000000070A0000EF
:104FA0005E4700080024F4000000A040000000005C
:04000005080000ED02
:00000001FF
