:020000040800F2
:1000000098150020E1010008994500081D450008E9
:100010009545000825110008E16A0008000000006D
:100020000000000000000000000000000153000874
:1000300091110008000000009D45000805530008CC
:10004000FB010008FB010008FB010008FB010008A0
:10005000FB010008FB010008FB010008FB01000890
:10006000FB010008FB010008FB01000879110008F2
:10007000FB01000885110008FB010008FB010008D6
:10008000FB010008FB010008410C0008FB0100080F
:100090000D6A0008FB010008FB010008FB010008D5
:1000A000FB010008FB010008FB010008FB01000840
:1000B000FB01000859530008FB010008FB01000880
:1000C000FB010008FB010008FB010008FB01000820
:1000D000FB010008FB010008FB010008FB01000810
:1000E000FB010008FB010008FB01000800F002F81A
:1000F00000F067F80AA090E8000C82448344AAF15B
:100100000107DA4501D100F05CF8AFF2090EBAE858
:100110000F0013F0010F18BFFB1A43F0010318473B
:10012000708C0000908C00000A444FF0000C10F816
:10013000013B13F0070408BF10F8014B1D1108BF65
:1001400010F8015B641E05D010F8016B641E01F805
:10015000016BF9D113F0080F1EBF10F8014BAD1C55
:100160000C1B09D16D1E58BF01F801CBFAD505E073
:1001700014F8016B01F8016B6D1EF9D59142D6D3CD
:10018000704700000023002400250026103A28BFF5
:1001900078C1FBD8520728BF30C148BF0B607047F9
:1001A000662908F0FA83002070471FB500F0E6FBCF
:1001B00004000020002107F0F7FFE0601FBD10B52C
:1001C00010BD00F007FD1146FFF7EFFF06F07AFFC4
:1001D00000F025FD03B4FFF7F2FF03BC00F028FD9B
:1001E0000948804709480047FEE7FEE7FEE7FEE7CB
:1001F000FEE7FEE7FEE7FEE7FEE7FEE70448054907
:10020000054A064B7047000009530008ED0000083E
:10021000980F0020981500209811002098110020B8
:100220000FB41CB50C0007AA009001D02044401E5A
:10023000074B7B4469460190069800F05CFB002C5C
:1002400003D06946002000F069FB1CBC5DF814FB7C
:10025000F106000070B5044685690068C10601D545
:10026000302600E02026C00707D070BDD4E9012168
:1002700030469047206A401C20626D1EF6D570BD46
:1002800070B5044685690078C00707D170BDD4E910
:10029000012120209047206A401C20626D1EF6D567
:1002A00070BD00002DE9F05F894604464FF0000A5A
:1002B000DFF824B1FB44C0F820A02046E16888475D
:1002C00000287DD0252806D0D4E901219047206A56
:1002D000401C2062F1E700255F462046E168884720
:1002E0002028064607DB312E05D2B81910F8200C5D
:1002F00008B10543F1E7A80701D525F00405C4F8C6
:100300001CA00027C4F818A02A2E09D0304607F0F8
:1003100067FE38B304EB8708303EC8F8186019E070
:1003200059F8041B204604EB87029161E168884775
:10033000012F064618D1E069002820DA25F02005B3
:100340001DE0D8F8180000EB800006EB40003038C4
:10035000C8F818002046E1688847064607F040FEC6
:100360000028EED1012F0AD02E2E08D12046E168B8
:1003700088477F1C0646022F45F02005C4DBA06994
:10038000002803DA404245F00105A061E80701D0EA
:1003900025F01005A6B1A6F14100192802D8203693
:1003A00045F400654A463146204625604D46FFF734
:1003B000F7FE60B1012807D0ED1D25F0070000E031
:1003C00007E000F1080978E705F1040975E7304610
:1003D0007AE7206ABDE8F09FC687000010B50446A2
:1003E00010F0030F08BF11F0030F40F015804FF01D
:1003F000013E121FC0F20E8051F8043BA3EB0E0C1D
:100400002CEA030C1CEACE1C08BF40F8043BF0D0D9
:10041000A1F1040102F10402521E08DB11F8013BB4
:1004200000F8013B002BF7D1114600F084FA20467A
:1004300010BD00004FF0013C50F8042B51F8043B74
:100440009A4221D1A2EB0C03934313EACC1317D1A8
:1004500050F8042B51F8043B9A4215D1A2EB0C033F
:10046000934313EACC130BD150F8042B51F8043BFF
:100470009A4209D1A2EB0C03934313EACC13DBD0CD
:100480004FF00000704700BFD01A01BAB1FA81F1F5
:1004900001F0180122FA01F0CB40DBB2C0B2C01A61
:1004A000C1F120012CFA01F3D11A914311EAC311D1
:1004B000E6D1704770477047704710B500F062FA98
:1004C000006810BD10B5044600F05CFA046010BD71
:1004D0002DE9FF4F0C461E464FF0FF378BB0D2E997
:1004E0000001DDF860800A908A46C1F30A5505B91B
:1004F0003D46002108464FF00000BAF1000F00F41D
:10050000400005DA00EB80004FF4400101EA5000A2
:100510004FEA9059B9F1010F00DDB9460A9850EA47
:100520004A000ED044F61050A5F2FF3545432F1473
:10053000B8F1000F1ED07542291E1EDDC9F1000260
:100540001CE0B8F1010F4FF0000001D0302103E0B2
:10055000F24305E02154401CB042FBDB3046002250
:10056000002121540B99C1F80880C1E900200FB087
:10057000BDE8F08FBD1B6D1CDEE74A4600DA69421C
:1005800006A800F089FA06AB93E8070003AB83E8FE
:10059000070050460A9907F03BF98DE80700A0F5DF
:1005A00000501F3800900398002D0ADD42F21F0111
:1005B0004A460844002303A90390684607F0A4FBB9
:1005C00009E0A0F500504A461F38002303A9039014
:1005D000684607F0AEFB8DE807000004000C03D06E
:1005E0004FF0FF30410800E01046B8F1000F03D093
:1005F0000022009215461EE0751E05D400F0C6F9D3
:10060000303262556D1EF9D5B3460122084302D03F
:1006100000227F1C04E02078302801D100227F1EB8
:10062000002A099784D01DE0112D07DA00F0AEF9F9
:10063000303262556D1C50EA0102F5D1084302D0F8
:100640000098C8B10EE00021681E05E0235C625CE2
:1006500063542254401E491C8142F7DBAB46A81B61
:10066000401E0990002004F80B000B98099AC0F86E
:100670000880C0E9002B7AE711264FF0000857E701
:100680002DE9F04F88460446D21D22F0070191B0B3
:10069000D1E90001CDE90A0107F082FC02460B987E
:1006A000C00F01D02D2007E02068810701D52B2045
:1006B00002E0202101EAC000032A099001D0072AA4
:1006C00005DB03464146204600F0A6F90BE1207801
:1006D000800601D5E06900E00620B8F1650F81468B
:1006E00006D0B8F1660F18D0B8F1670F70D131E0BD
:1006F0000020B9F1110F009001DB112301E009F195
:1007000001030AAA01A90CA8FFF7E2FEDDE90C70BB
:10071000002609F10105834647E001204B46009081
:100720004FF000470AAA01A90CA8FFF7D1FEDDE9A6
:100730000DB00C995D46002610B909F101000D18A5
:10074000B9EB050003D4C0F1FF3609F10105A5EBB3
:1007500009002BE0B9F1010F01DA4FF00109002087
:10076000B9F1110F0090484601DD112300E0034666
:100770000AAA01A90CA8FFF7ABFEDDE90C704D46F3
:1007800000268346207800070AD4AB4500DA5D4690
:1007900001A8012D04DD411911F8011C302907D0F1
:1007A0004F4502DA17F1040F04DA012082460FE008
:1007B0006D1EEEE7002F02DCED1B3E4403E0781CCB
:1007C000A84200DD7D1CB81B00F1010A4FF0004774
:1007D0002078000703D4AA4501DB4FF0FF3A00213F
:1007E000B7F1004F0DF143088DF8431024D00220DB
:1007F0002B23002F01DA7F422D230A21021EA0F1B4
:10080000010000DC5FB197FBF1FC97FBF1F201FB0B
:100810001C7C17460CF1300C08F801CDEEE7A8F16E
:10082000010003702188090501D5452100E06521FB
:10083000A0F1010800F8011C09980FA9A1EB080715
:10084000FF1D00B10120411901EBEA70A169384494
:10085000081A401EA0612078C00602D42046FFF787
:10086000F9FC099828B1D4E901219047206A401C7D
:1008700020622078C00622D52046FFF7EBFC1EE060
:10088000002E04DBB34502DD01A8805D00E03020CE
:10089000D4E901219047206A401C2062761CAAF10D
:1008A00001005FEA000A0AD100F068F8C068016838
:1008B000405CD4E901219047206A401C2062281E38
:1008C000A5F10105DCDC07E0D4E9012118F8010BF2
:1008D0009047206A401C2062381EA7F10107F3DC14
:1008E0002046FFF7CDFC032011B041E601694A1C08
:1008F00002610878704700B58FB0CDE90131002161
:10090000059105497944CDE9031011466846FFF782
:10091000C9FC0FB000BD0000E5FFFFFF0A6802F848
:10092000010B0A607047D1E900239A4202D2531C9E
:100930000B60107070474FF000020429C0F0128065
:1009400010F0030C00F01C81CCF1040CBCF1020F80
:1009500018BF00F8012BA8BF20F8022BA1EB0C0157
:1009600000F00EB95FEAC17C24BF00F8012B00F84B
:10097000012B48BF00F8012B70470000004870476A
:10098000E801002000487047C801002030B5B0F1F0
:100990000A0271F100034FEA900E4EEA817EB0EB3D
:1009A0000E0061EB91014FEA101E4EEA017E10EB42
:1009B0000E0041EB11114FEA102E4EEA016E10EBC2
:1009C0000E0041EB11214FEA104E4EEA014E10EBA2
:1009D0000E0041EB1141401841F100014FEAD000F7
:1009E00040EA41704FEAD1014FEA810444EA907431
:1009F00010EB800544EB01046D1944EB0404521B19
:100A0000A3414FF0000348BF0A3200D530BD401C5F
:100A100041F1000130BD00002DE9F0411F460446C0
:100A200003260168072A01F4006004DB08B116A55B
:100A300005E016A503E008B115A500E015A521F015
:100A400010002060A069C01EA0610FB1401EA0610F
:100A50002046FFF7FFFB4FB1D4E90121384690470C
:100A6000206A401C2062C01C206206E0206AFAE76F
:100A7000D4E9012115F8010B9047761EF8D22046E3
:100A8000FFF7FEFBBDE8F0814E414E006E616E0047
:100A9000494E4600696E66002DE9F04781461646CC
:100AA0008AB0354878440DC88DE80D003248784446
:100AB000801C03AC0DC884E80D0041F69B3008444F
:100AC000372190FBF1F290FBF1F5A5F1800501FBD8
:100AD00012041B3C02D56442012000E00020DFF834
:100AE00098A080460027FA44AAF1BE0A0EE0E0076B
:100AF0000AD03246684607EB470101230AEB810121
:100B000007F017F98DE8070064107F1C002CEED168
:100B1000194F7F44AE3F19E0E80715D007EB0410EA
:100B20000DF1180A90E80E008AE80E00C068F04245
:100B300001D1981908903246012306A903A807F0AD
:100B4000F8F803AB83E807006D10641C002DE3D1B7
:100B50004FF0010332466946B8F1000F03A802D0F6
:100B600007F0D2F801E007F0E4F8C9E90001C9F89C
:100B700008200AB0BDE8F087A48000004FF0000212
:100B800000B5134694469646203922BFA0E80C5083
:100B9000A0E80C50B1F12001BFF4F7AF090728BF5E
:100BA000A0E80C5048BF0CC05DF804EB890028BFDA
:100BB00040F8042B08BF704748BF20F8022B11F003
:100BC000804F18BF00F8012B7047000000487047A5
:100BD000C80100207546FFF7F9FFAE4605006946DB
:100BE000534620F00700854618B020B5FFF706FBF6
:100BF000BDE820404FF000064FF000074FF000081E
:100C00004FF0000BAC46ACE8C009ACE8C009ACE85A
:100C1000C009ACE8C00921F007018D46704710B546
:100C20000446AFF300802046BDE81040FFF7D2BA7B
:100C300001491820ABBEFEE7260002007047000005
:100C400080B540F27C20C2F2000000F01DFC40F2B2
:100C5000AC20C2F20000BDE8804000F015BC0000EE
:100C6000B0B5044600688168C90701D10020B0BD55
:100C7000816821F00101816001F0D2FA054600BFD0
:100C800020688068C007F1D001F0CAFA401B032831
:100C9000F6D3A06A40F01000A062E06A40F00100C4
:100CA000E0620120B0BD00000146406A826A12F095
:100CB000500F03D0006A026B084610470168826A31
:100CC00042F400728262896801F46021B1F5602FFC
:100CD00001D1017B09B100F097BB816A21F48071D9
:100CE0008162816AC90448BF00F08EBB816A41F00D
:100CF0000101816200F088BB406A816A41F04001D5
:100D00008162C16A41F00401C16200F0B7BB00001A
:100D1000406A00F0B1BB0000B0B582B004460020CC
:100D2000019021688A68D2073FD1886840F00100AD
:100D3000886040F26C00C2F2000000684DF68361EA
:100D4000C4F21B31A0FB0101880C01900198A0B1F5
:100D5000019801380190019878B10198013801900B
:100D6000019850B1019801380190019828B101987B
:100D70000138019001980028EAD101F051FA0546A6
:100D800020688068C00712D101F04AFA401B03288E
:100D9000F6D3A06A40F01000A062E06A40F00100C3
:100DA000E062002084F82400012002B0B0BD0020E1
:100DB00002B0B0BD2DE9F04383B040F2DC29144607
:100DC0008846C2F20009C9E90201C9F8102040B3FF
:100DD000D0E9045700210646C4F2F011284607F076
:100DE000A1FA00281CBF0025C4F2F01528464FF0D8
:100DF0007E5107F0FCF800213061C4F22011384622
:100E000007F090FA4CF6CD4100281CBF0027C4F231
:100E10002017C3F6CC51384607F0E9F8706100207E
:100E20003083B8F1000F0BD040463C2102F0A4FF04
:100E3000D9F80C00D9F810400068406AA9F80200FF
:100E40004CB120463C2102F097FFD9F81000006811
:100E5000406AA9F8040040F60040C4F201004FF4D3
:100E6000007101F0D1F940F20401C2F200010870F2
:100E7000487001F0D5F9C9F8140003F029FD0120EC
:100E800004F0DEF90020002403F00CFD0E201221F6
:100E9000182203F085FB0746002000214FF4A072C2
:100EA0001E23009703F086FB0E201221182203F068
:100EB00077FB07464FF6FF70009085A20A200821B5
:100EC0000223019704F07CF90E201221182203F06E
:100ED00067FB07460820262196225823009703F037
:100EE00069FB37203E21482203F05AFB07460820C1
:100EF000262196225823009703F072FB0E20122120
:100F0000182203F04DFB0746A220262196225823E3
:100F1000009703F04FFB37203E21482203F040FBAF
:100F20000746A220262196225823009703F058FB5B
:100F30000E201221182203F033FB4CF218650190A9
:100F400069A2122030210223009504F039F90E2005
:100F50001221182203F024FB074665A2AC203021A1
:100F600002230095019704F02BF916201B21232260
:100F700003F016FB0746082086214FF498722A23B7
:100F8000009703F017FB37203E21482203F008FBAF
:100F90000746082086214FF498722A23009703F011
:100FA0001FFB16201B21232203F0FAFA074652A248
:100FB0001220902101230095019704F001F91620D9
:100FC0001B21232203F0ECFA07464CA27520902146
:100FD00001230095019704F0F3F816201B2123222A
:100FE00003F0DEFA074647A2E8209021012300958E
:100FF000019704F0E5F80E201221182203F0D0FA30
:1010000007460820B82196223023009703F0D2FA31
:1010100040F2FF750820B82196223023009503F096
:10102000DFFA0E201221182203F0BAFA0746A22096
:10103000B82196223023009703F0BCFA4FF6E076F1
:10104000A220B82196223023009603F0C9FA0E2080
:101050001221182203F0A4FA07462CA21020BE2168
:1010600001230095019704F0ABF80E2012211822FD
:1010700003F096FA074628A2AA20BE210123009673
:10108000019704F09DF840F24C30C2F20000047069
:1010900080F83040047680F8484080F8604040F6A0
:1010A0006800C2F2000089F85840047089F838409E
:1010B00089F84840A9F8004006F04EFB012005F0F1
:1010C00011FD01F0ADF8C9F8180003B0BDE8F083D8
:1010D0004255434B2D424F4F535420504F5745528A
:1010E00020535550504C5900564F555400000000A5
:1010F000494F55540000000056494E00504F574587
:101100005200000054454D50000000005620534549
:1011100054202054494D3200492053455420205436
:10112000494D3400FEE70000002070470020704762
:1011300010B540F68004C2F2000440F62801C2F265
:1011400000012046002204F007FA40F2E871C2F2E2
:101150000001204604F0FAF9002010BD10B540F659
:101160008004C2F200040146204604F0EFF9204654
:1011700004F0CEF9002010BD40F64430C2F2000069
:1011800000F0C8BD40F68830C2F2000000F0C2BDD9
:1011900070470000EFF3108072B600BFFEE700005A
:1011A00070B582B004460020019094F82400012814
:1011B00003D10225284602B070BD012084F8240026
:1011C0002046FFF74DFD054600285AD1A06A41F29E
:1011D000021188430230A06240F26C00C2F20000AB
:1011E0000668022001F024FDB6FBF0F040000190FB
:1011F0000198A0B1019801380190019878B1019847
:1012000001380190019850B101980138019001987E
:1012100028B101980138019001980028EAD12046B0
:10122000FFF77AFD2068816841F00801816000F0D5
:10123000F7FF064620688168090705D500F0F0FF32
:10124000801B0A28F6D910E0816841F00401816012
:1012500000F0E6FF064600BF20688068400709D519
:1012600000F0DEFF801B0B28F6D3012510206FF065
:10127000120102E001206FF00301A26A114008434D
:10128000A062002084F82400284602B070BD00004F
:1012900070470000B0B581B00022009290F8242081
:1012A000012A03D10221084601B0B0BD4B680122DA
:1012B000062B80F8242022D8D0F800C003EB83034B
:1012C00062465D1F1F2352F834EF03FA05F40B68E2
:1012D0002EEA040E03FA05F444EA0E05092B156004
:1012E0002CD8DCF8102003EB4303072589689D40C8
:1012F000AA4399401143CCF8101000213EE0D0F8E9
:1013000000C00C2B624606D852F830EF03EB830383
:10131000A3F1230405E052F82CEF03EB8303A3F1C0
:1013200041041F2303FA04F50B682EEA050E03FAA5
:1013300004F444EA0E05092B1560D2D903EB4305EA
:10134000DCF80C201E3D07248968AC40A243A9406C
:10135000114323F00102102ACCF80C100DD142F2F7
:101360000841C4F20101A1F1080294450CD0816A40
:1013700041F020018162012100E00021002280F87B
:101380002420084601B0B0BD0A6812022FD40A68B2
:10139000102B42F400020A602BD140F26C01C2F221
:1013A000000109684DF68362C4F21B32A1FB0212F0
:1013B000910C01EB8101490000910099D9B100998C
:1013C000013900910099C1B100990139009100994A
:1013D000A9B1009901390091009991B100990139A1
:1013E0000091009900294FF00001E8D1C6E70021E3
:1013F000C4E70021C2E70021C0E70021BEE70021C9
:10140000BCE70021BAE7000080B5006842F2004165
:10141000C4F20101884200D080BD40F22820C2F20F
:101420000000B0F84C10D0E9102E836C02EB010CD8
:10143000B0F84E10B0F852207144C0E910C103EB6F
:10144000020E4389C0F848E001339AB2042A43816E
:1014500038BF80BD890841824FEA9E014FEA9C0255
:10146000818200210282C0E9101181644181012141
:101470000170816180BD000070470000704700006E
:101480000068C06C7047000010B5044600684168F1
:10149000890644BF01685FEA81710AD44168090680
:1014A00044BF01685FEA417129D44168490659D4B3
:1014B00010BDA16AC90603D4A16A41F40071A162FA
:1014C000816801F46021B1F5602F10D1217B71B9E1
:1014D000416821F020014160A06A20F48070A06280
:1014E000A06AC00403D4A06A40F00100A0622046B4
:1014F000FFF78AFF20686FF012010160CEE7A16A52
:10150000C90603D4A16A41F40051A162816801F4C3
:10151000E041B1F5E04F0FD1416821F08001416019
:10152000A06A20F48050A062A06AC00510D4A06A0E
:1015300040F00100A0620BE04168490508D48168D1
:1015400001F46021B1F5602F02D1217B0029E3D0A5
:101550002046FFF79DFE20686FF00C010160416896
:101560004906A5D50068C00708BF10BDA06A40F4B1
:101570008030A062204600F0B1F820686FF00101D1
:10158000016010BD002804BF0120704770B50646F9
:10159000044656F8280F20B120688168C9070BD08F
:1015A00031E00020E06284F82400204600F098F842
:1015B00020688168C90726D132683168D2063CD4D8
:1015C00041F2021291430231A162E169D4E9013290
:1015D00041EA030C531EB3FA83F35D091346B2F5D7
:1015E000807F18BF2B02217D257B01294CEA450114
:1015F00033D13DB3A56A45F02005A562E56A45F003
:101600000105E56229E0816821F00101816000F0B7
:1016100007FE054620688168C907CDD000F000FEAE
:10162000401B0328F6D3A06A40F01000A062E06AD5
:1016300040F00100E062A06AA16A41F010010120BF
:10164000316070BDD4F818C04EF20005CFF6FF75BA
:1016500005EB4C352B4343F400634568B2F5807FBE
:1016600025F4694543EA0503436083684FF2FD753D
:10167000CFF6E17503EA050343EA0103836001D075
:10168000012A06D122690023CFF6F07303EB025240
:1016900000E00022C36A23F470031A43C262806828
:1016A00040F6FE62CFF61F721040884207D100203C
:1016B000E062A16A012262F30101316070BDA06A9B
:1016C00040F0100020F00200A06254F82C0F40F00F
:1016D000010101202646316070BD00007047000006
:1016E000B0B586B00446006842F60001C4F20101BC
:1016F00088424FF00001CDE90411CDE9021146D036
:1017000042F20041C4F20101884269D141F218005D
:10171000C4F20200016841F400710160016801F443
:10172000007101910199016841F0040101600068B4
:1017300002A900F00400019001981B2002900320F0
:10174000039040F60000C4F2010000F051FC40F6A6
:1017500044350820C2F20005C4F202000021C5E9A8
:10176000000105F1080080224FF480734FF4806C73
:101770004FF0200E80E80E502846E96100F09AFBF9
:10178000002818BFFFF706FD25626C6220E041F2D9
:101790001800C4F20200016841F480610160016830
:1017A00001F4806101910199016841F00401016037
:1017B000006802A900F00400019001984420029002
:1017C0000320039040F60000C4F2010000F010FC7A
:1017D00012200021002200F0A1FD122000F08EFD59
:1017E00006B0B0BD2DE9F04182B000270D46044699
:1017F000019700F015FD21688A68D20543D406469A
:101800004868C00503D4C86A10F4700F45D040F290
:101810006C00C2F20000076842F292480220C1F256
:10182000492801F005FA216844F624130A69B7FB38
:10183000F0F0C2F292431A4206D1CA6844F6241369
:10184000C0F292031A4247D00A6912EA080F07D180
:10185000CA6842F29243C0F249031A4200F0828001
:101860000A6949F24923C0F224031A424FF0FC02EC
:1018700040D1CF681F4208BF5422019B02FB00F7F2
:10188000BB423CD376E0A06A40F02000A06284F81E
:101890002470012002B0BDE8F0810868800769D497
:1018A000002D54D0681C11D10868800762D40868E4
:1018B00080075CBF08685FEA80705BD408688007B7
:1018C000F2D557E021680868800753D400F0A8FCDF
:1018D000801BA842F6D93AE00A6912EA080F4FF0D5
:1018E000290207D1CB6842F29247C0F249073B4236
:1018F00008BF1422019B02FB00F7BB423AD235B36A
:10190000681C1FD10198013001900198B84231D272
:101910000198013001900198B8422BD20198013012
:1019200001900198B84225D20198013001900198A8
:10193000B842E7D31EE000BF019801300190019842
:10194000B84216D200F06CFC801BA842F4D9A06A01
:1019500040F00400A062002084F82400032002B0BC
:10196000BDE8F0815422019B02FB00F7BB42C6D3C5
:1019700000E021686FF012000860A06A40F4007077
:10198000A062886800F46020B0F5602F01D1207B50
:1019900018B1002002B0BDE8F081A06A20F4807088
:1019A000A062A06AC004F4D4A06A40F00100A06262
:1019B000002002B0BDE8F081B0B582B0044690F8D6
:1019C0002400012802D1022002B0B0BD012084F819
:1019D00024000020019020688168C90741D18168F6
:1019E00041F00101816040F26C00C2F20000006829
:1019F0004DF68361C4F21B31A0FB0101880C0190FC
:101A00000198A0B1019801380190019878B101982E
:101A100001380190019850B1019801380190019866
:101A200028B101980138019001980028EAD100F00E
:101A3000F7FB054620688168C90712D100F0F0FB6A
:101A4000401B0228F6D9A06A40F01000A062E06AAC
:101A500040F00100E062002084F82400012002B080
:101A6000B0BDA26A42F2044140F20133C4F2010166
:101A70009A4302F5807301F57F729042A3622DD0E4
:101A8000A36A23F48013A36243685B0504D5A36AA9
:101A9000012565F30D33A362A56A0023ED044FF021
:101AA000000544BFE56A25F00605E56284F82430A8
:101AB0006FF002030360836803F46023B3F5602FC3
:101AC00005D1904216D1096811F4702F12D08168A7
:101AD00041F480118160002002B0B0BD0B6813F4A6
:101AE000702FCDD0A36A43F48013A3620B685B050B
:101AF000CDD4D1E7816841F4A0018160002002B01B
:101B0000B0BD0000F0B581B015460446026842F64B
:101B10000000C4F2010082420E4605D042F20040AD
:101B2000C4F2010082420AD142F20440C4F2010030
:101B3000006810F4702F02D0012001B0F0BD94F8BD
:101B40002400012802D1022001B0F0BD012084F858
:101B50002400002000909068C00742D190684DF6A4
:101B6000836140F00100906040F26C00C2F200001E
:101B70000068C4F21B31A0FB0101880C00900098A2
:101B8000A8B100BF009801380090009878B1009883
:101B900001380090009850B10098013800900098EA
:101BA00028B100980138009000980028EAD100F090
:101BB00037FB074622689068C00712D100F030FB5F
:101BC000C01B0228F6D9A06A40F01000A062E06AAB
:101BD00040F00100E062002084F82400012001B000
:101BE000F0BD42F20440A16AC4F2010040F6017364
:101BF000994300F57F7301F580719A42A16245D047
:101C0000A06A20F48010A0625068400504D5A06A44
:101C1000012161F30D30A062A16A0020C9044FF0D8
:101C2000000144BFE16A21F00601E16284F824006A
:101C3000206A40F6A941C0F6000140F6115340F673
:101C4000F94700F1280CC0F60003C0F600078CE845
:101C50008A006FF00201116091682B4641F4807197
:101C6000916002F14C01324600F060F92068816811
:101C700001F460228168B2F5602F0CBF41F4A0012D
:101C800041F480118160002001B0F0BD016811F4C1
:101C9000702FB5D0A16A41F48011A162006840059F
:101CA000BAD5B4E7B0B5044690F82400012804BFC3
:101CB0000220B0BD0121206884F824108168C90782
:101CC00008D1214651F8280F41F2011220EA020200
:101CD000002018E0816821F00101816000F0A0FA85
:101CE000054600BF20688068C007EAD000F098FA77
:101CF000401B0328F6D3A06A214640F01000A062E2
:101D000051F82C2F012042F001020A60002184F8D2
:101D10002410B0BD10B50168D0E90FCEDCF800206A
:101D20000B685C072BD5042404FA0EF4144026D06B
:101D30000A68920603D40A6822F004020A602F227D
:101D4000C4F20202914240F20402C4F202025DDDDA
:101D50003023C4F20203994273D04423C4F2020335
:101D6000994274D05823C4F2020399427AD14FF4B5
:101D700080231360C16A002940F07F8099E09C07AE
:101D800029D5022404FA0EF4144024D00A689206DD
:101D900006D40A6822F00A020A60012280F8212093
:101DA0002F22C4F20202914240F20402C4F2020263
:101DB0003BDD3023C4F20203994261D04423C4F2D4
:101DC000020399425FD05823C4F2020399425FD1C3
:101DD0004FF4003364E01B076BD5082303FA0EF3BE
:101DE0001A4008BF10BD0A6822F00E020A600121E5
:101DF00001FA0EF2CCF804208163016B4FF480727B
:101E00000029028455D0BDE8104008470823C4F2D9
:101E10000203994221D01C23C4F20203994221D12A
:101E200040231360C16A41BB43E00823C4F20203AC
:101E300099422BD01C23C4F20203994228D12023BB
:101E40002EE04FF480631360C16AB1B931E04FF402
:101E500080431360C16A81B92BE004231360C16A17
:101E600059B926E002F168044FF08063A14208BF2F
:101E70004FF480031360C16AD9B1BDE81040084730
:101E80004FF400730CE04FF4005309E0022307E025
:101E900002F168044FF00073A14208BF4FF4001331
:101EA0001360816A002280F8202011B1BDE8104043
:101EB000084710BD002804BF012070472DE9F041FC
:101EC00001684FF6F872CBF6FD724CF6CD430A442A
:101ED000CCF6CC43A2FB03236FF0030707EA93037E
:101EE000002700F1040E00F11008C4F202079EE87A
:101EF000045098E87001C0E90F730B6843F6F0775F
:101F0000BB431A4342EA0C0242EA0E0222432A432E
:101F1000324342EA08020A6000214FF48072816372
:101F20000284BDE8F041084670470000F0B590F823
:101F300020C0BCF1010F32D090F821C04FF0010E4B
:101F4000BCF1010F80F820E026D14FF0020C80F8A0
:101F500021C04FF0000CC0F838C0D0E900C4C56AF9
:101F6000C66BDCF80070102C27F00107CCF800706D
:101F7000006C0EFA00F070600846CCF8043004BF24
:101F800010460A46CCF80800CCF80C20DCF800001B
:101F90003DB140F00E000CE0002180F8201002203E
:101FA000F0BD20F00400CCF80000DCF8000040F0A8
:101FB0000A00CCF80000DCF8000040F00100CCF88A
:101FC00000000020F0BD0000B0B5044600F028F984
:101FD000054640F20800C2F200000078611C18BFFC
:101FE000044400BF00F01CF9401BA042FAD3B0BD6E
:101FF0002DE9F04F82B00E68002E00F0018140F212
:10200000004E41F200424FF6FF77C4F2010EC4F2D7
:102010000102042300244FF0010CC1F210074FF01D
:102020000F0B4FF0000A4FF00009904208BF032346
:10203000009345E00123BB402B4342F82C30D1F8FC
:1020400004B04FF6FF775FEACB32DEF8002054BFD2
:1020500022EA080242EA0802CEF80020DEF8042054
:102060005FEA8B3354BF22EA080242EA0802CEF844
:1020700004205FEACB23DEF8082054BF22EA0802DE
:1020800042EA08025FEA8B2340F20C43CEF80820B4
:10209000C4F201034FF0010C1A68C1F210074FF0AF
:1020A0000F0B54BF22EA080242EA08021A600E68C7
:1020B0000AF1010A36FA0AF204F1040400F0A080E1
:1020C0000CFA0AF816EA080FF1D04A68BA4211DC95
:1020D000122A51D8DFE802F0340A424650505050DC
:1020E000505050505050505050494D00D1F80C9025
:1020F00042E000BF4FF6FF73C1F221039A420FDCAA
:102100000023C1F211039A421AD00023C1F2120334
:102110009A4215D00023C1F221039A4210D02BE03D
:102120000023C1F222039A420AD00023C1F23103F4
:102130009A4205D00023C1F232039A421CD100BF5B
:102140008A6842B1012A14BFC0F81480C0F8108018
:102150004FF0080910E04FF004090DE0CA6802F1E1
:10216000080909E04FF0000906E0CA6802F1040915
:1021700002E0CA6802F10C0922460346BAF1080FD0
:1021800024BF203A04331D680BFA02F6B54309FA5E
:1021900002F22A431A60CA79D2067FF588AF41F26B
:1021A0001803C4F202031A684FEA9A0C42F00102C3
:1021B0001A601A6804F00C0702F001020192019AF9
:1021C000AEF57E7252F82C3040F600060BFA07F599
:1021D000C4F20106B04223EA05050FD040F60043E1
:1021E000C4F2010398423FF425AF41F20003C4F268
:1021F00001039842009B08BF02231CE700231AE753
:1022000002B0BDE8F08F00008068084018BF0120D0
:1022100070470000002A08BF0904016170470000F0
:1022200040F69070C2F200000068704740F208006B
:1022300040F69071C2F20000C2F2000100780A6814
:10224000104408607047000080B542F20000C4F2FC
:102250000200016841F010010160032000F08AF8DB
:10226000002000F005F800F027F8002080BD0000F5
:1022700070B540F20806C2F2000640F26C013278F6
:10228000C2F200014FF47A730968B3FBF2F204461C
:10229000B1FBF2F1084601F03BFA0F2C4FF00105BB
:1022A00008D838B94FF0FF3021460022002500F051
:1022B00035F87460284670BD82B041F21800C4F24F
:1022C00002000168022241F001010160016801F091
:1022D000010101910199416841F0805141604068DC
:1022E00000F08050009000980420C4F201000168C2
:1022F00062F31A61016002B070470000002848BF15
:10230000704700F01F01012202FA01F14EF20012A3
:102310004009CEF2000242F82010704710B54EF688
:102320000C5CCEF2000CDCF80030C3F3022E8EF011
:102330000704042C28BF0424BEF103034FF0FF3E22
:102340000EFA04F438BF0023A14399400EFA03F3B8
:102350009A4300F00F03043B1143634409010C331B
:1023600000F16042B0F1FF3FC8BF02F5644319704D
:1023700010BD00004EF60C51CEF200010A684FF677
:10238000FF031A4060F30A2242F0806040F0FD70C3
:102390000860704701F0070C00EB4C1C0CF1280C96
:1023A00000EB4110090658BF00F5947C4AB10120AA
:1023B0008CF80C00180CACF80A000020ACF80830BF
:1023C000704700208CF80C000020ACF806307047F5
:1023D00070470000D0F8683200EB4110C26B18461D
:1023E00003F036BBD0F8683200EB4110D0F83C2146
:1023F000184603F08FBB000010B50446080601F034
:10240000070004EB401205D402F59471002382F812
:10241000293104E0012302F1280182F8293094F8DF
:1024200028220870012A04BF022010BD2068012262
:1024300084F8282204F094F8002084F8280210BDC3
:10244000B0B50446406801F00F02824284BF01200B
:10245000B0BD080601F0070004EB401205D402F5F8
:102460009471002382F8293104E0012302F128014C
:1024700082F8293094F828220025012A8D700870EE
:1024800004BF0220B0BD2068012284F8282204F095
:102490000DF9284684F82852B0BD000001F007016C
:1024A00000EB4110D0F8440170470000B0B505467C
:1024B000080601F0070005EB401C05D40CF59471EB
:1024C00000248CF8294104E001240CF128018CF847
:1024D00029404C780870002C0A61CB7018BFC88165
:1024E000022B04BF0020087195F82802012804BFC0
:1024F0000220B0BD2868012285F8282203F006FFDB
:10250000002085F82802B0BD10B501F0070C00EBE3
:102510004C1E00680EF594710024CEF83C21CEF8D4
:102520004031CEF844418EF829418EF828C104F09C
:1025300017F9002010BD0000B0B50446406801F056
:102540000705854284BF0120B0BD080607D404EB0F
:10255000411000F59471002280F8292106E004EB77
:102560004510012200F1280180F8292094F8280262
:10257000012201288A700D7004BF0220B0BD2068BE
:1025800084F8282204F0D2F81DB1002084F8280233
:10259000B0BD206804F50C7104F086F8002084F8C2
:1025A0002802B0BD80B501F0070C00EB4C1101F81A
:1025B00028CF01F1140E4FF0000C8EE80C100068CB
:1025C00001224A7004F0CCF8002080BD2DE9F04FC4
:1025D00081B00446006804F01FFA0146206809042F
:1025E00005D5B0F94410B1F1FF3F40F3A78004F0E6
:1025F00013FA400519D52068B0F8441021F4806121
:10260000A0F84410204600F0AFFA94F82802012800
:102610000BD00120002584F8280284F8245020687B
:10262000002104F055FA84F82852206804F0F4F9E7
:1026300001462068490405D5B0F8441021F48041D2
:10264000A0F8441004F0E8F901462068890405D593
:10265000B0F8441021F40051A0F8441004F0DCF963
:1026600001462068C90410D404F0D6F9000526D428
:10267000206804F0D1F9800547D4206804F0CCF933
:10268000C00551D401B0BDE8F08FB0F8401021F082
:102690000401A0F84010B0F8401021F00801A0F8A3
:1026A0004010204600F072FA2068B0F8441021F47F
:1026B0008051A0F8441004F0AFF90005D8D5206887
:1026C000B0F8401041F00801A0F84010B0F84410F4
:1026D00021F40061A0F84410B0F8401041F004016A
:1026E000A0F8401004F098F9C00406D52068B0F8AE
:1026F000441021F48051A0F84410204600F084FAE0
:10270000206804F089F98005B7D52068B0F8441036
:1027100021F40071A0F84410204600F03BFA206834
:1027200004F07AF9C005ADD52068B0F8441021F462
:102730008071A0F8441001B0BDE8F08F04F50C7171
:1027400040F60F75009113E001F0070704EB471105
:1027500001F8287FC1E905320022CA6101224A70CE
:1027600003F0FEFF2068B0F9441000297FF53FAF69
:10277000B0F8442012F00F0B30D030F82B804FEA25
:102780004B0A5FEA084140F1F38030F81A1004EB7D
:102790004B172940803120F81A1097F8341107F5AB
:1027A0009479002900F0848099F8001030F82120F5
:1027B000B0F85030520403EBC10100EB410100F1CD
:1027C0008E80B1F80C646FF39F26002E00F0B0806D
:1027D000D7F83C11B7F832218AE000BF0188D20651
:1027E0002AD4294001F500410180B0F8501094F836
:1027F000282001EBC20100EB4100B0F80404E16BBA
:102800006FF39F2060640844E06320460021FFF7D7
:10281000E1FD94F824000028A4D0206C0028A1D168
:1028200094F82400216840F08000C0B2A1F84C0068
:10283000002084F8240095E70A055DD4090491D5A9
:102840000188294080310180B0F8501094F8282187
:1028500001EBC20100F20C4232F811306FF39F23FA
:10286000C4F84431A3B1D4F83C1189B1B4F82E2195
:1028700004F0D6F8D4F83C01D4F844110844C4F864
:102880003C0120460021FFF7ADFD206800F20C421C
:10289000B0F85010D4F83831002B00F0AA803E2B4D
:1028A00000F2B28003F0010707EB53039B02B8E08C
:1028B000B0F8501099F8002001EBC20100EB410183
:1028C000B1F80C646FF39F26002E00F09080D7F8CB
:1028D0003C11B7F82E21334604F0A2F834E0B1F8E9
:1028E00004646FF39F261EB3D7F83C11B7F830216C
:1028F000334604F095F81CE0B0F8501094F8282105
:1029000001EBC20100EB4101B1F80C34B4F82E2107
:1029100000996FF39F23C4F8443104F081F82068D4
:102920000188294080310180204600F04BF919E7E9
:102930000026206899F8001048F2C00330F82120E2
:102940002A401A4320F82120D7F84421D7E94F1014
:102950003244C7F844218A19C7F83C2118B1D7F886
:102960003811B1422AD999F800102046FFF73AFDF4
:102970005FEA08607FF5F6AE206804EB4B1730F88D
:102980001A10294001F5004120F81A10B0F8502023
:1029900097F8281002EBC10200EB4202B2F80434AF
:1029A0006FF39F237B64D7E90F623344002AFB63F4
:1029B0007FF4CAAE2046FFF70DFDD3E699F800106C
:1029C00001F0070304EB4317C7E94F200020C7F8C5
:1029D000440187F82901206807F5947187F82831A8
:1029E00003F0BEFE5FEA08607FF5BCAEC4E70026D8
:1029F000AAE78B5A48F2000723F4F8438B528B5A0C
:102A0000CFF6FF773B430CE05F09DE064FF0FF3661
:102A100008BF06EB531748F20003CFF6FF7343EAF3
:102A200087238B52018843F60F72114048F2C0028F
:102A300002F53F525140018094E60000F0B585B0A8
:102A400000285CD0044690F8290228B9002084F8B8
:102A50002802204600F064F8032084F82902206848
:102A600003F018FE94E82F50D4E907678DE8205052
:102A7000CDE9036703F072FD00283DD120680021F5
:102A8000002504F023F8616831B3012000230022FF
:102A900004EB431787F82820D3B20132FB86D3B268
:102AA000994287F8290087F82B50C7E90E553D64F5
:102AB000EED800200023002204EB431787F82821DA
:102AC0000132D3B2994287F8290187F82B01C7E96F
:102AD0004E00C7F84001EFD804F10807D4E90565B6
:102AE00020688CCFD4E907CECDE9007602AE86E827
:102AF000205003F0BBFD30B1022084F829020125EB
:102B0000284605B0F0BD0025012084F8245084F843
:102B10002902206803F0A8FD284605B0F0BD00009A
:102B200080B582B0006845F60041C4F200018842D9
:102B30001CBF02B080BD41F21C00C4F2020001685B
:102B4000002241F4000101600068002100F400004F
:102B5000019001981420FFF7E1FB142002B0BDE8BA
:102B60008040FFF7CBBB000010B504468068022808
:102B700018BFFEF70FFBD4F86802012103F0CEF86E
:102B8000D4F86802BDE8104003F086B8D0F86802B7
:102B900003F0ACB8D0F8680203F0B2B810B5044640
:102BA00090F82802012804BF022010BD012084F8FB
:102BB000280284F82410206803F08AFF002084F89B
:102BC000280210BDD0F8682200F50C71104603F001
:102BD000BBB8000010B5044690F82802012804BFD5
:102BE000022010BD012084F8280220460121FFF7B1
:102BF000EFFB206803F036FD206803F0FDFE0020A7
:102C000084F8280210BD000010B50446D0F8680210
:102C100003F0EEF8A069002808BF10BD4EF6105072
:102C2000CEF20000016841F00601016010BD000015
:102C300080B5012818D0022835D0102831D141F2B2
:102C40000401C4F202010A6851F8040CC00128D53D
:102C5000C2F383402CA3185CD2033BD440F600128D
:102C6000C0F23D02504341E041F20400C4F20200D0
:102C7000C16940F202320A40B2F5817F04BF4FF4CD
:102C8000004080BD01F44071B1F5407F1AD0B1F52C
:102C9000007F06D1006A49F64041800701EAE070F2
:102CA00080BD002080BD00F09BF941F20401C4F218
:102CB000020109680222C1F3813102EB4101B0FB3C
:102CC000F1F080BD50F8040C4FF22441800301EA7A
:102CD000E07080BD0A6810A3C2F340429A5C41F2E2
:102CE0000023C0F27A03B3FBF2F2504309684902B1
:102CF00048BF80BD4AF6AB214000CAF6AA21A0FB1E
:102D00000101480880BD00BF020304050607080949
:102D10000A0B0C0D0E0F1010010200002DE9F041FE
:102D200082B00446007841F21C06C007C4F20206D5
:102D30004ED03068C0000BD430684FF0010840F02E
:102D400080503060306800F080500190019801E0C0
:102D50004FF0000847F20007C4F200073868C005CA
:102D600012D4386840F480703860FFF759FA05468D
:102D70003868C00508D4FFF753FA401B6428F7D918
:102D8000032002B0BDE8F081706810F4407012D0EA
:102D9000616801F4407188420DD0706840F2404291
:102DA000C4F24222012320F4407113600023C007C3
:102DB0001360716029D17068616820F44070084325
:102DC000B8F1000F706003D0306820F080503060A0
:102DD0002068810707D556F8181CA26821F44041E5
:102DE000114346F8181CC00603D4002002B0BDE809
:102DF000F08156F8180CE16820F48000084346F88A
:102E0000180C002002B0BDE8F081FFF709FA054672
:102E100041F2883770688007CDD4FFF701FA401B74
:102E2000B8424FF00300F5D9ECE700002DE9F0437C
:102E300081B0002800F0838042F20008C4F202084A
:102E40000446D8F800000D4600F0070088420CD276
:102E5000D8F8000020F007002843C8F80000D8F890
:102E6000000000F00700A84269D1206841F204097F
:102E70008107C4F2020917D5410705D5D9F800101A
:102E800041F4E061C9F80010010705D5D9F8001038
:102E900041F46051C9F80010D9F80010A26821F07F
:102EA000F0011143C9F80010C00741D1D8F8000063
:102EB00000F00700A8420CD9D8F8000020F0070065
:102EC0002843C8F80000D8F8000000F00700A84226
:102ED00035D12068410707D5D9F80010E26821F400
:102EE000E0611143C9F80010000708D5D9F80000C7
:102EF000216920F4605040EAC100C9F80000D9F807
:102F0000002002F00C00082841F20020C0F27A00F4
:102F10004BD148F67A53C2F38341C0F60003595CA3
:102F2000D20336D440F60010C0F23D0048433CE0E6
:102F30006068012807D159F8041C89030CD40120CA
:102F400001B0BDE8F08359F8041C022802D18901C0
:102F5000F5D501E08907F2D5D9F8001021F0030179
:102F60000843C9F80000FFF75BF9064641F28837CD
:102F7000D9F80000616800F00C00B0EB810F95D02B
:102F8000FFF74EF9801BB842F2D9032001B0BDE82B
:102F9000F083D9F8002048F66433C2F34042C0F60B
:102FA00000039A5C4843B0FBF2F0D9F8001048F6F1
:102FB0006632C1F30311C0F60002515C40F26C02AC
:102FC00020FA01F140F20C00C2F200000068C2F2E7
:102FD00000021160FFF74CF9002001B0BDE8F0835A
:102FE00040F26C0041F20401C2F20000C4F202019E
:102FF0000068096848F67632C1F3C221C0F60002C3
:10300000515CC840704700002DE9F04182B00028B3
:1030100067D00446007841F20006C007C4F20206F9
:1030200024D0706800F00C0004281AD0706800F0FA
:103030000C00082802D17068C00312D46068002810
:1030400000F04181B0F5803F07D03168B0F5A02F86
:1030500040F06E8141F480203060306840F4803070
:103060006CE13068800301D56068D0B320788007B8
:1030700018D5706810F00C0F07D0706800F00C00C5
:10308000082856D17068C00353D43068800702D531
:103090002069012825D13068616920F0F80040EAF4
:1030A000C1003060207800071FD42078400731D459
:1030B000E56995B1706800F00C00082840F08B803D
:1030C000012D0ED07068216A00F480328A4208D146
:1030D000616A00F47010884203D1002002B0BDE89C
:1030E000F081012002B0BDE8F081A069B8B30020F2
:1030F000C4F242200121C0F88014FFF791F8054680
:10310000706A800700F18A80FFF78AF8401B022866
:10311000F6D920E1F069C00033D4F0694FF001081E
:1031200040F08050F061F06900F08050009000980D
:1031300029E02069002840F20000C4F2422000F09B
:10314000978001210160FFF76BF805463068800722
:10315000A1D4FFF765F8401B0228F7D9FBE0002057
:10316000C4F242200021C0F88014FFF759F8054648
:10317000706A800799D5FFF753F8401B0228F7D9EA
:10318000E9E04FF0000847F20007C4F20007386892
:10319000C00510D4386840F480703860FFF740F8FC
:1031A000054600BF3868C00505D4FFF739F8401B55
:1031B0006428F7D9CFE0E06800286BD0012806D05A
:1031C000316A052840F0968041F004003062306A90
:1031D00040F0010094E00027C4F242270020386646
:1031E000FFF71EF8022D05460CD100BF30688001A4
:1031F00040F1B580FFF714F8401B02284FF00300A0
:10320000F4D96BE7306880017FF567AFFFF708F806
:10321000401B02284FF00300F4D95FE740F26C0036
:10322000C2F20000006844F6D351C1F26201A0FB73
:103230000101480A019000BF00BF0198411E00280B
:1032400001913FF432AF00BF0198411E0028019167
:103250003FF42BAF00BF0198411E002801913FF4BD
:1032600024AF00BF0198411E00280191E4D11CE762
:1032700000210160FEF7D4FF054600BF30688007DB
:103280007FF510AFFEF7CCFF401B02284FF0030084
:10329000F4D923E7306A20F001003062306A20F070
:1032A00004003062FEF7BCFF054641F2883700BFDC
:1032B000306A800733D5FEF7B3FF401BB8424FF0AA
:1032C0000300F5D90AE7306820F4803030603068B8
:1032D00020F480203060FEF7A3FF054630688003AD
:1032E0007FF5C4AEFEF79CFF401B64284FF003003F
:1032F000F4D9F3E621F001003062306A20F00400D6
:103300003062FEF78DFF054641F28837306A80074C
:1033100005D4FEF785FF401BB842F7D91BE0B8F192
:10332000000F3FF4C5AEF06920F08050F061BFE6B9
:1033300021F480303060306820F480203060FEF767
:103340006FFF0546306880033FF590AEFEF768FFDB
:10335000401B6428F6D9032002B0BDE8F081206A42
:10336000B0F5803F05D17168A26821F400311143A6
:1033700071607168626A21F47411104308437060CF
:1033800001203866FEF74CFF044600BF306880011C
:103390003FF5A3AEFEF744FF001B02284FF00300E9
:1033A000F4D99BE670B5C0B300268662054690F856
:1033B00051004FF0000C30B9284685F8506000F0FD
:1033C0002FF8D5F828C0022185F8511095E80E4055
:1033D000086820F04000086043EA02002A6940EAD9
:1033E0000E001043D5E90523104303F40072104387
:1033F000D5E907241043204340EA0C00086004206C
:1034000000EA13404860C86920F40060C8610120E8
:103410006E6585F85100304670BD012070BD00001A
:1034200070B586B00026044640F600000596CDE94A
:103430000366C4F20100216800F520529142029611
:1034400001D006B070BD41F21801C4F202010A6851
:1034500042F480520A600A6802F480520192019A92
:103460000A6842F004020A60096801F0040101914F
:103470000199A0210291022103910321059102A942
:10348000FEF7B6FD40F688353020C2F20005C4F2E2
:1034900002001021802285E8430005F10C004FF462
:1034A00080734FF4806C80E80C102846C5E90666EE
:1034B000FEF700FD002818BFFDF76CFEA5646C62E6
:1034C00006B070BD2DE9F04381B0044690F850007D
:1034D000012803D1022001B0BDE8F0834FF00109BB
:1034E0001D4616460F4684F85090FEF799FE94F854
:1034F000511001295AD18046002F4FF0010018BF0A
:10350000002E00F0FA800320002184F8510061654C
:103510002763A686E686A163A187E187A068216468
:10352000B0F5004F2068616403D1016841F4804127
:1035300001600168490603D4016841F0400101605F
:103540006168731EE268B1FA81F1B3FA83F3490945
:103550005B09B2F5006F41EA03013ED131B137F8A2
:10356000021BC1602763E18E0139E186E18E0029EB
:103570006CD0691C22D000BF8168890706D4FEF791
:103580004FFEA0EB0800A84208D3BEE0216B31F843
:10359000022BC2602163E08E0138E086E08E0028B5
:1035A00054D0206881688907E9D5EFE70220A4E0BC
:1035B000FEF736FEE08E70B948E000BF81688907EB
:1035C000F6D5216B31F8022BC2602163E08E013801
:1035D000E086E08ED0B32068F0E739B13978017326
:1035E000206B01302063E08E0138E086E08E68B306
:1035F000681C0BD11AE0216B09780173206B013034
:103600002063E08E0138E086E08EF8B120688168A2
:103610008907F0D4FEF704FEA0EB0800A842F3D31C
:1036200003206AE0FEF7FCFDE08E78B12068816837
:103630008907F7D5216B09780173206B013020636E
:10364000E08E0138E086E08E0028EFD120688168A6
:10365000090645D5691C0DD0FEF7E2FDA0EB080177
:103660002068A94211D281680906F5D438E0816842
:10367000090635D58168090632D58168090644BF37
:1036800081685FEA01612BD5F1E7416821F0E00133
:1036900041606168B1F5827F0AD1A168B1F5004F40
:1036A00002D0B1F5806F03D1016821F040010160C3
:1036B000A16AB1F5005F07D1016821F400510160F2
:1036C000016841F400510160012184F8511000218A
:1036D00084F85010616D41F0200161652021616521
:1036E000A16831B900210091C16800918068009003
:1036F0000098606D002818BF0120002184F85190C7
:1037000084F8501001B0BDE8F0830320F5E7000015
:10371000411E0020B0EB116F1CBF012070474EF21C
:103720001002CEF2000251604EF62351CEF200019B
:10373000F0230B7007219060116070477047000004
:1037400070470000B0B590F83C20012A04BF022069
:10375000B0BD01F108053CCDD1E900CE23F47C5386
:1037600022F470521A432EF4F0431A432CF4E0432F
:103770001A4324F4C0431A432A43C96922F48042FD
:10378000036811435964002180F83C100846B0BD1D
:1037900010B590F83C20012A4FF0020216D080F8B4
:1037A0003D2002685368D2F808C023F0700ED1E9BA
:1037B00000342CF0800143EA0E03214353609160F2
:1037C0000121002280F83D1080F83C20104610BDF9
:1037D000006801F01F010422036A02FA01F123EAE2
:1037E00001020262026A11430162416C41F400412C
:1037F0004164816801F00701062903D0016841F0A6
:103800000101016000207047006801F01F010422DF
:10381000036A02FA01F123EA01010162016A01620D
:10382000026A41F211110A4204D1026A40F2444391
:103830001A4204D0026A0A4208D000207047426C43
:1038400022F400424264026A0A42F6D1016A40F25E
:1038500044421142F1D1016821F0010101600020D0
:1038600070470000002804BF0120704710B50446CF
:1038700090F83D0028B9002084F83C00204600F074
:1038800055F8022084F83D00206840F2FF7302687A
:10389000C4F2000342F6004C9842C4F2010C14DC5E
:1038A000B0F1804F19D040F20041C4F200018842CB
:1038B00013D0984217DCB0F1804F1CD040F2004189
:1038C000C4F20001884216D019E0604505D040F6E8
:1038D0000001C4F200018842EBD1A16822F070021D
:1038E0000A439842E7DD604505D040F60001C4F286
:1038F0000001884203D1216922F440720A43A3697E
:1039000022F08001D4F804E0E268194360450160C8
:10391000C262C0F828E002D16169CCF83010012100
:103920004161002084F83D1010BD000080B582B0D8
:10393000006840F20041C4F20001884214D042F60F
:103940000041C4F2010188420CD141F21800C4F2D6
:103950000200016841F400610160006800F4006049
:103960000190019802B080BD41F21800C4F202003B
:103970004168002241F0020141604068002100F0EE
:103980000200009000981D20FEF7C8FC1D2002B028
:10399000BDE88040FEF7B2BC0068C16841F001019B
:1039A000C160816801F00701062903D0016841F078
:1039B000010101600020704780B590F83C20012A89
:1039C0004FF0020200F0C080012380F83C3080F804
:1039D0003D20D0F800C04FF67772DCF8083023EABB
:1039E0000202CCF808200B683F2B1CDD5F2B20DD8A
:1039F000602B4FD0B3F5005F6CD0702B40F09E80F1
:103A0000D1E901E3C968DCF8082043EA0E0322F497
:103A10007F4243EA01211143CCF80810DCF808107A
:103A200041F0770188E01F2B28DC5BB3102B29D0F5
:103A300084E0402B61D0502B40F08080D1F804E02E
:103A4000C968DCF82030DCF8202022F00102CCF834
:103A50002020DCF8182022F0F00242EA011123F0C5
:103A60000A0242EA0E02CCF81810CCF82020DCF84A
:103A7000081041F0570121F020015DE0202B01D01A
:103A8000302B5BD1DCF8081021F07001194341F0B4
:103A9000070151E0D1F804E0C968DCF8203023F0D8
:103AA0001003CCF82030DCF81830DCF8202023F4A8
:103AB000704322F0A00243EA013142EA0E12CCF830
:103AC0001810CCF82020DCF8081041F0670121F034
:103AD000100131E0D1E901E3C968DCF8082043EACC
:103AE0000E0322F47F4243EA01211143CCF808106F
:103AF000DCF8081041F480411EE0D1F804E0C96808
:103B0000DCF82030DCF8202022F00102CCF8202064
:103B1000DCF8182022F0F00242EA011123F00A0238
:103B200042EA0E02CCF81810CCF82020DCF808107D
:103B300041F0470121F03001CCF8081001210022AA
:103B400080F83D1080F83C20104680BD002804BF5E
:103B5000012070472DE9F04F81B0044690F83D00F8
:103B60000D4628B9002084F83C00204600F088F873
:103B7000022084F83D00206844F20702816840F288
:103B8000FF73914381600268C4F2000342F6004C67
:103B90009842C4F2010C14DCB0F1804F19D040F20D
:103BA0000041C4F20001884213D0984217DCB0F102
:103BB000804F1CD040F20041C4F20001884216D070
:103BC00019E0604505D040F60001C4F200018842CA
:103BD000EBD1A16822F070020A439842E7DD60450C
:103BE00005D040F60001C4F20001884203D12169EA
:103BF00022F440720A43A36922F08001D4F804E061
:103C0000E268194360450160C262C0F828E002D151
:103C10006169CCF830104FF0010CC0F814C0826814
:103C20008369D0F820E0D5E90018D5E9027B41EAA4
:103C3000020AAA694FF6FF7923EA090347EA02223A
:103C40004FF6FC47BA43D5E9077643EA0B032969E7
:103C50001A4342EA072242EA01112EF022026B695E
:103C600042EA080241EA063142EA0312C0F808A01B
:103C70008161026284F83DC0002001B0BDE8F08F90
:103C800070B586B000210591CDE90311006840F6BA
:103C90000002C4F200029042029149D0B0F1804F7C
:103CA00067D141F21800C4F20200416840F60044B6
:103CB00041F0010141604168C4F2010401F00101D9
:103CC00001910199016802AD41F0040101600168B0
:103CD000002601F0040101910199016841F00801F9
:103CE00001600068294600F00800019001984FF437
:103CF00000400290A4F58060CDE90366FEF778F9F4
:103D00000820CDE90206204629460496FEF770F900
:103D10000420C4F2010001684FF6FF42CFF6FF0213
:103D2000114041F0E06141F48071016006B070BD66
:103D300041F21800C4F20200426842F004024260FC
:103D4000426802F004020192019A026842F00802FD
:103D50000260006800F0080001900198C020CDE9E1
:103D6000020140F600400491C4F2010002A9FEF7EE
:103D70003FF906B070BD000004290BD0A9B9016855
:103D8000086A20F001000862086A40F00100086239
:103D9000022020E00168086A20F010000862086A2A
:103DA00040F010000862042015E00168086A20F065
:103DB00001000862086A40F001000862086A20F009
:103DC00010000862086A40F010000862C86840F0FD
:103DD0000200C8600420CA681043C860086840F048
:103DE000010200200A6070477047000010B50168AA
:103DF00004460869800744BFC8685FEA807038D409
:103E00000869400744BFC8685FEA40703DD408694C
:103E1000000744BFC8685FEA007043D40869C00661
:103E200044BFC8685FEAC06048D40869C0071CBFC7
:103E3000C8685FEAC0704ED10869000644BFC86810
:103E40005FEA00604FD40869400644BFC8685FEA73
:103E5000406050D40869800646BFC8685FEA806049
:103E600010BD6FF0200220460A61BDE81040FFF748
:103E700067BC6FF002000861012020778869800725
:103E800041D02046FFF7B0FF43E06FF00400086127
:103E900002202077886910F4407F3ED02046FFF74B
:103EA000A3FF40E06FF00800086104202077C86994
:103EB00080073CD02046FFF797FF3EE06FF01000F0
:103EC000086108202077C86910F4407F39D0204667
:103ED000FFF78AFF3BE06FF001000861204600F029
:103EE0007BFA2168A8E76FF0800008612046FFF7A1
:103EF00025FC2168A7E76FF040000861204600F02C
:103F00000BFB2168A6E7204600F096F8204600F05B
:103F1000FBF921680020207772E7204600F08CF83A
:103F2000204600F0F1F92168002020776FE7204655
:103F300000F082F8204600F0E7F9216800202077A1
:103F40006CE7204600F078F8204600F0DDF92168A3
:103F50000020207769E7000070B586B0006840F265
:103F60000041C4F2000188424FF00001CDE9041184
:103F7000CDE9021136D042F60041C4F20101884277
:103F800057D141F21800C4F20200016840F6004423
:103F900041F0080101600168C4F2010401F0080168
:103FA00001910199016802AD41F0040101600068CE
:103FB000022600F00400019001984FF4C0400290E6
:103FC0002046294603960596FEF712F84FF44070F6
:103FD000CDE90206A4F5806029460596FEF708F8AB
:103FE00006B070BD41F21800C4F20200016841F051
:103FF00008010160006802A900F008000190019822
:104000002020029002200390059040F60040C4F268
:104010000100FDF7EDFF0420C4F2010001684FF23A
:10402000FF32CFF6FF02114041F0E06141F4006140
:10403000016006B070BD0000704700002DE9F0433C
:1040400090F83C30012B4FF0020300F0F4804FEA6F
:10405000B2024FF0010C032A80F83CC080F83D30DA
:1040600000F2E480DFE802F0023974AE03681A6AF5
:1040700022F001021A621A461D6AD3F804E052F8CF
:10408000184F0E6824F073048F68344342F60046DC
:1040900025F00205C4F20106B34245EA07050CD13A
:1040A000CE6825F00C05D1E9057826F004063543E5
:1040B0002EF44076374347EA080EC3F804E09C61CB
:1040C0004F6809695F631D629F6947F008079F6138
:1040D0009F6927F004079F61A5E003681A6A22F030
:1040E00010021A621A461D6AD3F804E052F8184FFB
:1040F0000E6824F4E6448F6844EA062442F600463B
:1041000025F02005C4F20106B34245EA07150FD198
:10411000CE68D1E905986FF0400707EA06162EF43D
:10412000406725F0C00547EA8907354347EA880E0E
:10413000C3F804E09C614F6809699F631D629F6931
:1041400047F400679F619F6927F480679F6169E07A
:1041500003681A6A22F480721A621A461D6AD3F83A
:1041600004E052F81C4F0E6824F073048F68344347
:1041700042F6004625F40075C4F20106B34245EA52
:1041800007250FD1CE68D1E90598360240F2FF47E6
:10419000BE432EF4405725F4406547EA09173543DE
:1041A00047EA081EC3F804E0DC614F680969DF6371
:1041B0001D62DF6947F00807DF61DF6927F0040748
:1041C000DF6130E003681A6A22F480521A621A46EC
:1041D0001D6AD3F8048052F81C7F0E6827F4E64766
:1041E0008C6847EA062E42F6004625F40055C4F2D4
:1041F0000106B34245EA043504D14C6928F48046EF
:1042000046EA8418C3F80480C3F81CE04F680969C3
:104210001F641D62DF6947F40067DF61DF6927F40F
:104220008067DF610902136819431160002380F879
:104230003DC080F83C301846BDE8F083002804BF3C
:104240000120704710B5044690F83D0028B90020C1
:1042500084F83C00204600F055F8022084F83D0028
:10426000206840F2FF730268C4F2000342F6004C7B
:104270009842C4F2010C14DCB0F1804F19D040F226
:104280000041C4F20001884213D0984217DCB0F11B
:10429000804F1CD040F20041C4F20001884216D089
:1042A00019E0604505D040F60001C4F200018842E3
:1042B000EBD1A16822F070020A439842E7DD604525
:1042C00005D040F60001C4F20001884203D1216903
:1042D00022F440720A43A36922F08001D4F804E07A
:1042E000E268194360450160C262C0F828E002D16B
:1042F0006169CCF8301001214161002084F83D1043
:1043000010BD00007047000070470000006801F019
:104310001F010122036A8A4023EA02010162036A43
:1043200042F64441C4F201011A43A1F14403984208
:10433000026206D0816801F0070106290AD1002037
:1043400070470A6842F400420A60816801F0070180
:104350000629F4D0016841F0010101600020704796
:104360000246006801F01F0101238B40016A42F6FA
:10437000444C9943C4F2010C0162016AACF144035C
:104380009842016210D15CF8241C41F211131942C9
:104390000AD1016A40F24443194205D1DCF8001009
:1043A00021F40041CCF80010016A41F211131942C6
:1043B00004D00121002082F83D107047016A40F2CC
:1043C00044431942F5D1016821F001010160012146
:1043D000002082F83D1070472DE9F04F81B0006851
:1043E00040F20041C4F20001884202D001B0BDE8B1
:1043F000F08F40F22821C2F20001888A0E4604F0B4
:104400000FF943F23335C4F25305294604F084F919
:104410004FF20007C4F27F57394603F0F3FF002440
:10442000C4F23014214604F077F9318A009008462E
:1044300004F0F6F8294604F06FF9394603F0E2FF7C
:10444000214604F069F9718A8246084604F0E8F8CA
:10445000294604F061F9394603F0D4FF0021C4F283
:10446000483103F0CFFF41F26F21C3F6033103F06F
:10447000C9FF40F22C08C2F20008D8E90054834674
:104480000098D8F80870D8F81090294604F010FA6F
:104490004CF6CD46C3F64C76314604F03DF9014664
:1044A000284603F0C9FE0546C8F8000050462146DC
:1044B00004F0FEF9314604F02FF90146204603F0DE
:1044C000BBFEC8F804005846394604F0F1F93146FD
:1044D00004F022F90146384603F0AEFEC8F80800A1
:1044E0004846294603F08EFF40F22821C2F200011F
:1044F000C86140F2BC20C0F22C10C1F8060042F6A0
:104500003440C4F201004FF42F7101600A21416070
:1045100001B0BDE8F08F000070470000FEE700002A
:1045200080B540F6800040F21001C2F20000C2F2F5
:104530000001002201F050FA002818BFFCF72AFE03
:1045400040F6800040F27001C2F20000C2F20001A9
:1045500001F076FC002818BFFCF71CFE40F6800036
:1045600040F29411C2F20000C2F2000100F0E6FF36
:10457000002818BFFCF70EFE40F68000C2F20000D3
:1045800001F074FC002808BF80BDBDE88040FCF746
:1045900001BE0000FEE70000FEE7000070470000DB
:1045A00001F0FC0100F0F800C90041EA002040EAF7
:1045B000D2007047002A18BF002B00D1704780B589
:1045C00082B002440B44DDF810C0013A013B92B2C4
:1045D0009BB2CDF800C000F03DF802B080BD0000F5
:1045E0002DE9F04381B08AB31F467BB306461044E1
:1045F0000138DDF820901FFA80F815463046424613
:104600000B460C46CDF8009000F024F8E019012F7D
:10461000A0F1010707D0B9B2304642460B46CDF8AB
:10462000009000F017F8BFB23046214632463B46B4
:10463000CDF8009000F00EF8022D07D34046214639
:1046400042463B46CDF8009000F004F801B0BDE8CA
:10465000F08300002DE9F04FC3B040F20006C2F233
:1046600000063788874240F2198182467088884266
:1046700040F21481974298BF7A1E98421FFA82F93D
:1046800098BF431ED145C0F009811FFA83FC8C45B9
:10469000C0F004814C9E0DF1030E340A0EF10F0898
:1046A000002500BF0EEB05000EF8054008EB0507DE
:1046B00008F805602035B5F5807F46708470C670B7
:1046C000047146718471C671047246728472C67236
:1046D0000473467384737C70BE708474C6740475EE
:1046E00046758475C675047646768476C6760477F4
:1046F00046778477C677D5D1ACEB010000F101088D
:104700004FEA1A208DF80701100A8DF80901080AEE
:1047100040F6004B8DF80301180AC4F2010B8DF826
:1047200005012A208DF80A218DF804118DF80B015E
:1047300058464FF4806100228DF808A18DF80631AB
:10474000FDF768FD584601210022FDF763FD40F6A4
:104750003866C2F200060DF20B11304601224FF40A
:104760007A73FEF7AFFE58464FF480610122FDF7E1
:1047700051FD58464FF480610022FDF74BFD58462D
:1047800001210122FDF746FD0DF2071130460422FA
:104790004FF47A73FEF796FEA9EB0A00013008FB8E
:1047A00000F458464FF480610122FDF733FD2B20C1
:1047B0008DF80B0158464FF480610022FDF72AFD69
:1047C000584601210022FDF725FD0DF20B11304660
:1047D00001224FF47A73FEF775FE58464FF480615C
:1047E0000122FDF717FD58464FF480610022FDF7C6
:1047F00011FD584601210122FDF70CFD0DF20311B8
:10480000304604224FF47A73FEF75CFE58464FF4AC
:1048100080610122FDF7FEFC2C208DF80B0158462B
:104820004FF480610022FDF7F5FC5846012100227B
:10483000FDF7F0FC0DF20B11304601224FF47A73B4
:10484000FEF740FE58464FF480610122FDF7E2FC7E
:1048500058464FF480610022FDF7DCFC58460121E8
:104860000122FDF7D7FC9CB140F63865C2F2000585
:104870000DF103062746802C28BF8027780082B2DE
:10488000284631464FF47A73FEF71CFEE41BF1D143
:1048900058464FF480610122FDF7BCFC43B0BDE8EF
:1048A000F08F000080B582B0844640F20000C2F272
:1048B000000001884088013901388AB283B20020A3
:1048C0000021CDF800C0FFF7C5FE02B080BD00009A
:1048D0002DE9F04383B040F60044C4F201042046C1
:1048E0004FF4806101224FF00109FDF793FC20464F
:1048F00002210122FDF78EFC19201926FDF764FB29
:104900002046022100224FF00008FDF783FC192009
:10491000FDF75AFB204602210122FDF77BFC3220E5
:10492000FDF752FB3A208DF80B0020464FF48061D2
:104930000022FDF76FFC204601210022FDF76AFCF2
:1049400040F63865C2F200050DF10B012846012240
:104950004FF47A73FEF7B6FD20464FF480610122D2
:10496000FDF758FC55208DF80B0020464FF4806170
:104970000022FDF74FFC204601210122FDF74AFCF1
:104980000DF10B01284601224FF47A73FEF79AFDD0
:1049900020464FF480610122FDF73CFCB2208DF8E7
:1049A0000B0020464FF480610022FDF733FC2046C7
:1049B00001210022FDF72EFC0DF10B0128460122FA
:1049C0004FF47A73FEF77EFD20464FF4806101229A
:1049D000FDF720FC20464FF480610022FDF71AFC11
:1049E000204601210122FDF715FC48F66751C0F66B
:1049F0000001284605224FF47A73FEF763FD204636
:104A00004FF480610122FDF705FC40F2000740F2FF
:104A10004010C2F20007C0F2F000386036208DF876
:104A20000B0020464FF480610022FDF7F3FB204687
:104A300001210022FDF7EEFB0DF10B0128460122BA
:104A40004FF47A73FEF73EFD20464FF48061012259
:104A5000FDF7E0FBA0208DF80B0020464FF48061AD
:104A60000022FDF7D7FB204601210122FDF7D2FBF2
:104A70000DF10B01284601224FF47A73FEF722FD57
:104A800020464FF480610122FDF7C4FBB7208DF86A
:104A90000B0020464FF480610022FDF7BBFB20464F
:104AA00001210022FDF7B6FB0DF10B012846012282
:104AB0004FF47A73FEF706FD20464FF48061012221
:104AC000FDF7A8FB35208DF80B0020464FF48061E0
:104AD0000022FDF79FFB204601210122FDF79AFBF2
:104AE0000DF10B01284601224FF47A73FEF7EAFC20
:104AF00020464FF480610122FDF78CFBBB208DF82E
:104B00000B0020464FF480610022FDF783FB204616
:104B100001210022FDF77EFB0DF10B012846012249
:104B20004FF47A73FEF7CEFC20464FF480610122E9
:104B3000FDF770FB20464FF4806100228DF80B607A
:104B4000FDF768FB204601210122FDF763FB0DF113
:104B50000B01284601224FF47A73FEF7B3FC20467E
:104B60004FF480610122FDF755FBC0208DF80B004A
:104B700020464FF480610022FDF74CFB20460121C6
:104B80000022FDF747FB0DF10B01284601224FF4EF
:104B90007A73FEF797FC20464FF480610122FDF7FF
:104BA00039FB2C208DF80B0020464FF48061002249
:104BB000FDF730FB204601210122FDF72BFB0DF113
:104BC0000B01284601224FF47A73FEF77BFC204646
:104BD0004FF480610122FDF71DFBC2208DF80B0010
:104BE00020464FF480610022FDF714FB204601218E
:104BF0000022FDF70FFB0DF10B01284601224FF4B7
:104C00007A73FEF75FFC20464FF480610122FDF7C6
:104C100001FB20464FF4806100228DF80B90FDF7D8
:104C2000F9FA204601210122FDF7F4FA0DF10B01FA
:104C3000284601224FF47A73FEF744FC20464FF4D5
:104C400080610122FDF7E6FAC3208DF80B002046B3
:104C50004FF480610022FDF7DDFA20460121002299
:104C6000FDF7D8FA0DF10B01284601224FF47A73B3
:104C7000FEF728FC20464FF480610122FDF7CAFAB6
:104C800012208DF80B0020464FF480610022FDF7C2
:104C9000C1FA204601210122FDF7BCFA0DF10B01FA
:104CA000284601224FF47A73FEF70CFC20464FF49D
:104CB00080610122FDF7AEFAC4208DF80B0020467A
:104CC0004FF480610022FDF7A5FA20460121002261
:104CD000FDF7A0FA0DF10B01284601224FF47A737B
:104CE000FEF7F0FB20464FF480610122FDF792FAB7
:104CF00020208DF80B0020464FF480610022FDF744
:104D000089FA204601210122FDF784FA0DF10B01F9
:104D1000284601224FF47A73FEF7D4FB20464FF465
:104D200080610122FDF776FAC6208DF80B0020463F
:104D30004FF480610022FDF76DFA20460121002228
:104D4000FDF768FA0DF10B01284601224FF47A7342
:104D5000FEF7B8FB20464FF480610122FDF75AFAB6
:104D60000F208DF80B0020464FF480610022FDF7E4
:104D700051FA204601210122FDF74CFA0DF10B01F9
:104D8000284601224FF47A73FEF79CFB20464FF42D
:104D900080610122FDF73EFAD0208DF80B002046FD
:104DA0004FF480610022FDF735FA204601210022F0
:104DB000FDF730FA0DF10B01284601224FF47A730A
:104DC000FEF780FB20464FF480610122FDF722FAB6
:104DD000A4208DF80B0020464FF480610022FDF7DF
:104DE00019FA204601210122FDF714FA0DF10B01F9
:104DF000284601224FF47A73FEF764FB20464FF4F5
:104E000080610122FDF706FAA1208DF80B002046F3
:104E10004FF480610022FDF7FDF9204601210122B7
:104E2000FDF7F8F90DF10B01284601224FF47A73D2
:104E3000FEF748FB20464FF480610122FDF7EAF9B6
:104E4000E0208DF80B0020464FF480610022FDF732
:104E5000E1F9204601210022FDF7DCF90DF10B01FB
:104E6000284601224FF47A73FEF72CFB20464FF4BC
:104E700080610122FDF7CEF920464FF480610022C7
:104E8000FDF7C8F9204601210122FDF7C3F948F6D4
:104E90006C51C0F6000128460E224FF47A73FEF7DB
:104EA00011FB20464FF480610122FDF7B3F9E120A8
:104EB0008DF80B0020464FF480610022FDF7AAF91F
:104EC000204601210022FDF7A5F90DF10B0128462E
:104ED00001224FF47A73FEF7F5FA20464FF4806111
:104EE0000122FDF797F920464FF480610022FDF77B
:104EF00091F9204601210122FDF78CF948F659511C
:104F0000C0F6000128460E224FF47A73FEF7DAFA53
:104F100020464FF480610122FDF77CF921208DF8B5
:104F20000B0020464FF480610022FDF773F9204604
:104F300001210022FDF76EF90DF10B012846012237
:104F40004FF47A73FEF7BEFA20464FF480610122D7
:104F5000FDF760F911208DF80B0020464FF48061B9
:104F60000022FDF757F9204601210022FDF752F9F2
:104F70000DF10B01284601224FF47A73FEF7A2FAD5
:104F800020464FF480610122FDF744F97820FDF7B7
:104F90001BF813208DF80B0020464FF4806100228F
:104FA000FDF738F9204601210022FDF733F90DF114
:104FB0000B01284601224FF47A73FEF783FA20464C
:104FC0004FF480610122FDF725F929208DF80B00AF
:104FD00020464FF480610022FDF71CF92046012194
:104FE0000022FDF717F90DF10B01284601224FF4BD
:104FF0007A73FEF767FA20464FF480610122FDF7CD
:1050000009F96420FCF7E0FF388879880138013914
:1050100082B28BB200200021CDF80080FFF71AFB8E
:1050200003B0BDE8F08300002DE9F04F95B0129079
:10503000A2F12000002BC2B208BF01235E2A88BF64
:105040001F20C0B248F67E3600EB8000C0F6000696
:105050005F1E01EB8302304407EB010C1090B8187F
:1050600003EB010A1FFA8CF680B207EB0A0E0F96CB
:105070001FFA8AF6079003EB830001EB430B03EB67
:1050800043050E961FFA8EF60290084407EB0B08B4
:105090006C1801EB45050D961FFA8BF61491391823
:1050A00080B20C961FFA88F6069088B207EB0409C6
:1050B0000B96A6B205907819DDE91EBA0A961FFA7A
:1050C00089F692B2A9B280B200254FF0FF3409965A
:1050D0000892139311970491039000BF10981199AF
:1050E0002044477812985E4628440144FA0708BFD6
:1050F00056461FFA80F91FFA81F814990F9B48460B
:1051000042460096FFF7A6FA5E46B80758BF5646D5
:105110000E990D9B484642460096FFF79BFA5E4665
:10512000780758BF56460C990B9B48464246009656
:10513000FFF790FA5E46380758BF56460A99099B12
:10514000484642460096FFF785FA5E46F80658BF85
:1051500056460899079B484642460096FFF77AFA5A
:105160005E46B80658BF56460699059B48464246D5
:105170000096FFF76FFA78065F4658BF57460499C6
:10518000039B484642460097FFF764FA13980134A0
:10519000042C0544A2D112980299CDF800A008442D
:1051A0001399C1EBC10311990A18149980B20B44E9
:1051B000013B92B29BB2FFF74DFA15B0BDE8F08FFC
:1051C0002DE9F04F83B0C2B39A468146002B08BF49
:1051D0004FF0010A0AEB4A0015460E464FEA400816
:1051E0004FEACA07CB462A780A2A05D13E44CB4665
:1051F00001352A780A2AF9D0FAB140F20003C2F246
:1052000000031FFA8BF019884044884284BFCB46C4
:105210003E44B1B25888CB1983420ED80C980D9CED
:1052200000901FFA8BF053460194FFF7FDFEC34434
:1052300001352A780A2ADFD1D8E703B0BDE8F08F1C
:1052400070B582B010F0030009D002280CD00128FC
:1052500014BF6026A026F0204FF4A07108E0C026FD
:105260004FF4A070F02103E000264FF4A070F0216D
:1052700040F20002C2F2000240F6004450803620A4
:10528000C4F2010411808DF8060020464FF48061BD
:105290000022FCF7BFFF204601210022FCF7BAFFE5
:1052A00040F63865C2F200050DF1060128460122DC
:1052B0004FF47A73FEF706F920464FF4806101221D
:1052C000FCF7A8FF20464FF4806100228DF80760AC
:1052D000FCF7A0FF204601210122FCF79BFF0DF106
:1052E0000701284601224FF47A73FEF7EBF82046B7
:1052F0004FF480610122FCF78DFF02B070BD000009
:1053000070470000FCF792BF41F20000C4F20200B7
:105310000168002241F0010101604168CFF6FF02FF
:105320001140416001684FF6FF72CFF6F6621140FE
:105330000160016821F480210160416821F4FE01CF
:1053400041604FF41F0181604EF60850CEF200001C
:105350004FF000610160704740F61070C2F200002B
:10536000FEF744BD10B5D0F8B822B2B101EB81030D
:1053700000EB830C5CF81C4F54B1D0F8C03203EB47
:105380004113D3F838E0B4FBFEF303FB1E4333B103
:1053900000242046C2F8144210BD022010BD002493
:1053A00000220023CCF8004000F02CFD204610BD68
:1053B000B0B5D0F8B852044600F0F0FBD4F8B812FB
:1053C000C5F80C0249B1D4F8BC0205F50371C268F6
:1053D000D5F8040290470020B0BD0220B0BD000007
:1053E000B0B58121044600F021FB002520460121B3
:1053F000E56200F01BFB20468221C4F86C5100F0EE
:1054000015FBD4F8B802256448B1D4F8BC02406852
:105410008047D4F8B80200F071FFC4F8B8520020F9
:10542000B0BD000010B5D0F8BC1269B1D0F8B842D8
:1054300094F80002FF2807D08B6894F801222146D7
:105440009847FF2084F80002002010BD014640F27A
:1054500030100A22C2F200000A807047014640F272
:10546000A8004322C2F200000A807047014640F2C1
:10547000EC004322C2F200000A807047014640F26D
:105480003C104322C2F200000A807047F0B581B0A0
:105490000546007C4027002808BF4FF400772846C7
:1054A000812102223B46402400F0CEFB0126284603
:1054B000012102223B46EE6200F0C6FB2846822113
:1054C00003220823C5F86C6100F0BEFB4FF407709F
:1054D0002E6400F015FFC5F8B802A8B10746D5F84C
:1054E000BC02006880470026C7F81462C7F818623B
:1054F000287CD7F80422002808BF4FF400742846FF
:105500000121234600F0B6FB304601B0F0BD00009B
:1055100080B5D0F8B81271B190F810C0D1F804225B
:1055200040230121BCF1000F08BF4FF4007300F0CD
:10553000A1FB002080BD022080BD000000290EBF1D
:105540000220C0F8BC12002070470000D0F8B8223A
:105550000020C2F804127047D0F8B8320020C3F817
:105560000812C3F81022704770B582B00446D0F814
:10557000B86208780D46002210F060018DF807200F
:10558000ADF8042012D0202949D1EA88E2B1000602
:1055900025D46878314686F80002204686F8012234
:1055A00000F06AF80024204602B070BD68780B282D
:1055B0001FD00A2825D090BB94F89C0203282ED136
:1055C00001A92046022224E0D4F8BC0229468368BF
:1055D0006878002200249847204602B070BDD4F8B5
:1055E000BC023146836868789847EA88204631468D
:1055F0000FE094F89C02032811D10024204602B049
:1056000070BD94F89C02032809D10DF107012046D2
:10561000012200F04BF80024204602B070BD204665
:10562000294600F01DF80224204602B070BD00009B
:1056300080B5D0F8B42252689047002080BD0000A9
:1056400080B513460A46002100F014FB002080BDFF
:1056500080B513460A46002100F0D4FB002080BD2F
:1056600010B58021044600F09FFB20460021BDE8D4
:10567000104000F099BB000080B513460A46032194
:10568000C0F894120021C0E9573300F0F3FA00206B
:1056900080BD000080B50521C0F8941200210022D1
:1056A000002300F0E7FA002080BD000080B513461B
:1056B0000A460221C0F894120021C0E9073300F025
:1056C000A1FB002080BD000080B50421C0F8941229
:1056D00000210022002300F095FB002080BD000087
:1056E00010B540F2C834C2F200040A4602A02146B6
:1056F00000F00CF9204610BD43444320436F6E6612
:105700006967000040F280101222C2F200000A8095
:105710007047000010B540F2C834C2F200040A46D7
:1057200002A0214600F0F2F8204610BD4344432079
:10573000496E7465726661636500000040F2A410F2
:105740000422C2F200000A807047000010B540F247
:10575000C834C2F200040A4602A0214600F0D6F87E
:10576000204610BD44756E675F44657669636500C9
:1057700010B540F2C834C2F200040A4602A0214625
:1057800000F0C4F8204610BD53544D333220566902
:10579000727475616C20436F6D506F7274000000FD
:1057A000B0B54FF2E870C1F6FF70026883684FF041
:1057B0001A0C9B18A1F800C000F0A2804FF0370C23
:1057C000190F0CEB13724068B3F1204F38BF01F191
:1057D000300240F2A811C2F200014FF0000E8A70B0
:1057E00081F803E0C3F303641A0104F13705B2F151
:1057F000204F38BF04F130050D7181F805E0C3F387
:1058000003541A0204F13705B2F1204F38BF04F1F6
:1058100030058D7181F807E0C3F303441A0304F1E6
:105820003705B2F1204F38BF04F130050D7281F811
:1058300009E0C3F303341A0404F13705B2F1204F31
:1058400038BF04F130058D7281F80BE0C3F30324F7
:105850001A0504F13705B2F1204F38BF04F13005C5
:105860000D731A0681F80DE0C3F3031404F1370534
:10587000B2F1204F4FEA037203F00F0338BF04F177
:10588000300503F137048D7381F80FE0B2F1204F3A
:1058900038BF03F130040CEB10730C7481F811E085
:1058A000020FB0F1204F38BF02F130038B7481F842
:1058B00013E0C0F30363020103F13705B2F1204F97
:1058C00038BF03F130050D7581F815E0C0F30353BF
:1058D000020203F13705B2F1204F38BF03F1300562
:1058E0008D75020381F817E0C0F3034000F1370320
:1058F000B2F1204F38BF00F130030B7681F819E088
:1059000040F2A810C2F20000B0BD000010B500289F
:1059100061D00378B3B100F1020E4FF0000C00BF6C
:105920001EF8013C83B19EF8003083B19EF801302F
:1059300083B19EF802300CF1040C002B0EF1040E22
:10594000EED109E002230CE04CF0010C04E04CF035
:10595000020C01E04CF0030C5FFA8CFC022303EB19
:105960004C03138003220B704A7090F800E0BEF1E4
:10597000000F30D0023002224FF0000CD3B243F0BF
:10598000010401F803E001F804C010F8013C13B36E
:10599000941CE4B244F0010E0B5501F80EC00378DC
:1059A000CBB1141DE4B244F0010E0B5501F80EC04A
:1059B0004378002B08BF10BD941DE4B244F0010EE3
:1059C0000B5501F80EC090F802E00832BEF1000F4E
:1059D00000F10400D2D110BD002804BF022070479E
:1059E00080B5D0F8B432002B1CBF0023C0F8B4320D
:1059F000002918BFC0F8B012012180F89C12027073
:105A000000F0D0F8002080BD80B5D0F8C002FCF7CF
:105A100017FD032884BF022080BD40F20021C00092
:105A2000C0F2012121FA00F0C0B280BD80B5D0F8EB
:105A3000C002FCF7E1FC032884BF022080BD40F2D5
:105A40000021C000C0F2012121FA00F0C0B280BDE7
:105A5000B0B5044669B1D4F8B40242693AB194F8D9
:105A60009C02032803D1204690470020B0BD0220AD
:105A7000B0BDD4F89402002818BF042804D12046F1
:105A8000802100F091F93AE0022838D1D4E90810D9
:105A9000814208D9081A83B22062204611461A466C
:105AA000FFF7D6FD13E0E169814217D3B1FBF0F2B5
:105AB00002FB101090B9D4F8980281420ED2204611
:105AC000002100220025FFF7C3FDC4F898522046AC
:105AD00000210022002300F0CDF810E0D4F8B40239
