:020000040800F2
:10000000E016002015020008DD5A0008615A0008B9
:10001000D95A0008A9220008758C000800000000C9
:10002000000000000000000000000000616E0008F9
:100030001523000800000000E15A0008656E000862
:100040002F0200082F0200082F0200082F020008CC
:100050002F0200082F0200082F0200082F020008BC
:100060002F0200082F0200082F020008FD220008BE
:100070002F020008092300082F0200082F020008A1
:100080002F0200082F020008DD0D00082F020008D3
:10009000998B00082F0200082F0200082F02000889
:1000A0002F0200082F0200082F0200082F0200086C
:1000B0002F020008B96E00082F0200082F02000866
:1000C0002F0200082F0200082F0200082F0200084C
:1000D0002F0200082F0200082F0200082F0200083C
:1000E0002F0200082F0200082F02000800F002F87B
:1000F00000F080F814A696E8000CB244B344DA4548
:1001000001D100F077F8BAE80F000FA696E83000AA
:10011000A5EB040504EB0607AAEB0704A7F101070A
:100120004FEA15154FEA3414A4F10104AC4201D38F
:1001300000F060F813F0010F18BFFB1A43F0010341
:1001400000F001F8DBE718477CC100009CC100000B
:100150000A444FF0000C10F8013B13F0070408BFED
:1001600010F8014B1D1108BF10F8015B641E05D08B
:1001700010F8016B641E01F8016BF9D113F0080F40
:100180001EBF10F8014BAD1C0C1B09D16D1E58BFD2
:1001900001F801CBFAD505E014F8016B01F8016B09
:1001A0006D1EF9D59142D6D370470000704700000C
:1001B0000023002400250026103A28BF78C1FBD870
:1001C000520728BF30C148BF0B60704766290BF04B
:1001D0004E86752900F08680002070471FB500F01C
:1001E0009BFC0400002000210BF054FAE0601FBDCE
:1001F00010B510BD00F0BCFD1146FFF7EFFF09F090
:100200001FFF00F0DAFD03B4FFF7F2FF03BC00F0BC
:10021000DDFD00000948804709480047FEE7FEE78A
:10022000FEE7FEE7FEE7FEE7FEE7FEE7FEE7FEE7A6
:1002300004480549054A064B70470000696E0008EE
:10024000ED000008E0100020E0160020E012002081
:10025000E01200200FB41CB50C0007AA009007D0D4
:100260004142A14202D32044401E01E04FF0FF3042
:10027000074B7B4469460190069800F010FC002073
:10028000002C01D0009908701CBC5DF814FB000024
:100290004F08000070B5044685690068C10601D5A5
:1002A000302600E02026C00707D070BDD4E9012128
:1002B00030469047206A401C20626D1EF6D570BD06
:1002C00070B5044685690078C00707D170BDD4E9D0
:1002D000012120209047206A401C20626D1EF6D527
:1002E00070BD00002DE9F041064600241068752914
:1002F000314616A510D0AFF30080002802DA404244
:1003000013A507E031688A0701D512A502E0490765
:1003100004D511A5012401E0AFF3008000210A22D9
:1003200006F1240709E0B0FBF2FCB0FBF2F302FB9C
:100330001C00303078541846491C0028F3D123465D
:100340002A463046BDE8F04100F03CB9000000000C
:100350002D0000002B000000200000002DE9F05FC0
:10036000894604464FF0000ADFF824B1FB44C0F888
:1003700020A02046E168884700287DD0252806D0A7
:10038000D4E901219047206A401C2062F1E7002552
:100390005F462046E16888472028064607DB312E65
:1003A00005D2B81910F8200C08B10543F1E7A807E9
:1003B00001D525F00405C4F81CA00027C4F818A036
:1003C0002A2E09D030460BF095F838B304EB870895
:1003D000303EC8F8186019E059F8041B204604EBB9
:1003E00087029161E1688847012F064618D1E069CC
:1003F000002820DA25F020051DE0D8F8180000EBD1
:10040000800006EB40003038C8F818002046E1684C
:10041000884706460BF06EF80028EED1012F0AD06F
:100420002E2E08D12046E16888477F1C0646022F01
:1004300045F02005C4DBA069002803DA404245F0FE
:100440000105A061E80701D025F01005A6B1A6F1CD
:100450004100192802D8203645F400654A46314645
:10046000204625604D46FFF7B1FE60B1012807D058
:10047000ED1D25F0070000E007E000F1080978E72E
:1004800005F1040975E730467AE7206ABDE8F09F78
:10049000E2BB000010B5431C02E010F8011B71B173
:1004A0008107FAD14FF0013202C88C1A8C4314EA4A
:1004B000C211F9D0C01A0A0603D0C01E10BDC01A5E
:1004C00010BD0A0401D0801E10BD0902FCD0401EE0
:1004D00010BD10B5044610F0030F08BF11F0030F54
:1004E00040F015804FF0013E121FC0F20E8051F80F
:1004F000043BA3EB0E0C2CEA030C1CEACE1C08BF39
:1005000040F8043BF0D0A1F1040102F10402521EB4
:1005100008DB11F8013B00F8013B002BF7D1114635
:1005200000F0D8FA204610BD4FF0013C50F8042BE3
:1005300051F8043B9A4221D1A2EB0C03934313EAF6
:10054000CC1317D150F8042B51F8043B9A4215D123
:10055000A2EB0C03934313EACC130BD150F8042BFA
:1005600051F8043B9A4209D1A2EB0C03934313EADE
:10057000CC13DBD04FF00000704700BFD01A01BA97
:10058000B1FA81F101F0180122FA01F0CB40DBB29F
:10059000C0B2C01AC1F120012CFA01F3D11A914363
:1005A00011EAC311E6D1704770477047704710B524
:1005B00000F0B6FA006810BD10B5044600F0B0FABD
:1005C000046010BD2DE9F0470D4699469246044659
:1005D00000F124080168880604D5E06921F01001C3
:1005E000216000E00120A84201DD471B00E0002758
:1005F000A1697A1902EB0900081AA0612078C006E7
:1006000002D42046FFF746FE002608E0D4E9012187
:100610001AF806009047206A401C761C20624E455E
:10062000F4DB2078C0060AD52046FFF733FE06E04B
:10063000D4E9012130209047206A401C2062381EF6
:10064000A7F10107F4DC07E0D4E9012118F805005F
:100650009047206A401C2062281EA5F10105F3DCAA
:100660002046FFF72DFE2078000602D50220BDE8C7
:10067000F0870120FBE72DE9FF4F0C461E464FF0A7
:10068000FF378BB0D2E90001DDF860800A908A461E
:10069000C1F30A5505B93D46002108464FF0000058
:1006A000BAF1000F00F4400005DA00EB80004FF4CF
:1006B000400101EA50004FEA9059B9F1010F00DD05
:1006C000B9460A9850EA4A000ED044F61050A5F2F6
:1006D000FF3545432F14B8F1000F1ED07542291E77
:1006E0001EDDC9F100021CE0B8F1010F4FF000005F
:1006F00001D0302103E0F24305E02154401CB04218
:10070000FBDB30460022002121540B99C1F8088000
:10071000C1E900200FB0BDE8F08FBD1B6D1CDEE706
:100720004A4600DA694206A800F084FA06AB93E86C
:10073000070003AB83E8070050460A990AF0F2FA73
:100740008DE80700A0F500501F3800900398002D99
:100750000ADD42F21F014A460844002303A9039020
:1007600068460AF05BFD09E0A0F500504A461F38D4
:10077000002303A9039068460AF065FD8DE8070091
:100780000004000C03D04FF0FF30410800E0104699
:10079000B8F1000F03D00022009215461EE0751E2E
:1007A00005D400F0C1F9303262556D1EF9D5B3465B
:1007B0000122084302D000227F1C04E02078302868
:1007C00001D100227F1E002A099784D01DE0112D3F
:1007D00007DA00F0A9F9303262556D1C50EA0102C7
:1007E000F5D1084302D00098C8B10EE00021681E80
:1007F00005E0235C625C63542254401E491C814224
:10080000F7DBAB46A81B401E0990002004F80B0044
:100810000B98099AC0F80880C0E9002B7AE71126E6
:100820004FF0000857E72DE9F04F88460446D21DE7
:1008300022F0070191B0D1E90001CDE90A010AF0E7
:1008400039FE02460B98C00F01D02D2007E020682A
:10085000810701D52B2002E0202101EAC000032AF4
:10086000099001D0072A05DB03464146204600F0E7
:10087000A1F90BE12078800601D5E06900E00620AF
:10088000B8F1650F814606D0B8F1660F18D0B8F1FF
:10089000670F70D131E00020B9F1110F009001DB3A
:1008A000112301E009F101030AAA01A90CA8FFF72D
:1008B000E2FEDDE90C70002609F10105834647E000
:1008C00001204B4600904FF000470AAA01A90CA84E
:1008D000FFF7D1FEDDE90DB00C995D46002610B999
:1008E00009F101000D18B9EB050003D4C0F1FF3682
:1008F00009F10105A5EB09002BE0B9F1010F01DABF
:100900004FF001090020B9F1110F0090484601DDB8
:10091000112300E003460AAA01A90CA8FFF7ABFEC9
:10092000DDE90C704D4600268346207800070AD486
:10093000AB4500DA5D4601A8012D04DD411911F82F
:10094000011C302907D04F4502DA17F1040F04DAF1
:10095000012082460FE06D1EEEE7002F02DCED1B4A
:100960003E4403E0781CA84200DD7D1CB81B00F16A
:10097000010A4FF000472078000703D4AA4501DBA5
:100980004FF0FF3A0021B7F1004F0DF143088DF809
:10099000431024D002202B23002F01DA7F422D2385
:1009A0000A21021EA0F1010000DC5FB197FBF1FCFF
:1009B00097FBF1F201FB1C7C17460CF1300C08F898
:1009C00001CDEEE7A8F1010003702188090501D5EA
:1009D000452100E06521A0F1010800F8011C0998FB
:1009E0000FA9A1EB0807FF1D00B10120411901EB80
:1009F000EA70A1693844081A401EA0612078C00638
:100A000002D42046FFF746FC099828B1D4E9012119
:100A10009047206A401C20622078C00622D52046DC
:100A2000FFF738FC1EE0002E04DBB34502DD01A811
:100A3000805D00E03020D4E901219047206A401C0D
:100A40002062761CAAF101005FEA000A0AD100F0D8
:100A500063F8C0680168405CD4E901219047206ACE
:100A6000401C2062281EA5F10105DCDC07E0D4E96A
:100A7000012118F8010B9047206A401C2062381EA3
:100A8000A7F10107F3DC2046FFF71AFC032011B0A1
:100A900041E6000001694A1C02610878704700B510
:100AA0008FB0CDE901310021059105497944CDE9A7
:100AB000031011466846FFF751FC0FB000BD00005F
:100AC000E5FFFFFFD1E900239A4202D2531C0B60DD
:100AD000107070474FF000020429C0F0128010F02F
:100AE000030C00F01B81CCF1040CBCF1020F18BF09
:100AF00000F8012BA8BF20F8022BA1EB0C0100F09D
:100B00000DB95FEAC17C24BF00F8012B00F8012B6E
:100B100048BF00F8012B70470048704728020020AA
:100B2000004870470802002030B5B0F10A0271F1A8
:100B300000034FEA900E4EEA817EB0EB0E0061EBAF
:100B400091014FEA101E4EEA017E10EB0E0041EBC0
:100B500011114FEA102E4EEA016E10EB0E0041EB20
:100B600011214FEA104E4EEA014E10EB0E0041EB00
:100B70001141401841F100014FEAD00040EA4170B4
:100B80004FEAD1014FEA810444EA907410EB8005EA
:100B900044EB01046D1944EB0404521BA3414FF0D4
:100BA000000348BF0A3200D530BD401C41F10001AE
:100BB00030BD00002DE9F0411F46044603260168C0
:100BC000072A01F4006004DB08B116A505E016A5AC
:100BD00003E008B115A500E015A521F01000206084
:100BE000A069C01EA0610FB1401EA0612046FFF7A2
:100BF00051FB4FB1D4E9012138469047206A401C8F
:100C00002062C01C206206E0206AFAE7D4E90121D4
:100C100015F8010B9047761EF8D22046FFF750FBDF
:100C2000BDE8F0814E414E006E616E00494E4600B7
:100C3000696E66002DE9F047814616468AB0354850
:100C400078440DC88DE80D0032487844801C03AC10
:100C50000DC884E80D0041F69B300844372190FB15
:100C6000F1F290FBF1F5A5F1800501FB12041B3CAC
:100C700002D56442012000E00020DFF898A0804601
:100C80000027FA44AAF1BE0A0EE0E0070AD0324675
:100C9000684607EB470101230AEB81010AF0D3FA0A
:100CA0008DE8070064107F1C002CEED1194F7F44A3
:100CB000AE3F19E0E80715D007EB04100DF1180A54
:100CC00090E80E008AE80E00C068F04201D1981941
:100CD00008903246012306A903A80AF0B4FA03AB30
:100CE00083E807006D10641C002DE3D14FF0010371
:100CF00032466946B8F1000F03A802D00AF08EFA16
:100D000001E00AF0A0FAC9E90001C9F808200AB018
:100D1000BDE8F087DCB300004FF0000200B51346D9
:100D200094469646203922BFA0E80C50A0E80C500B
:100D3000B1F12001BFF4F7AF090728BFA0E80C50BC
:100D400048BF0CC05DF804EB890028BF40F8042BB5
:100D500008BF704748BF20F8022B11F0804F18BF22
:100D600000F8012B7047000000487047080200207F
:100D70007546FFF7F9FFAE4605006946534620F079
:100D80000700854618B020B5FFF752FABDE82040AD
:100D90004FF000064FF000074FF000084FF0000B37
:100DA000AC46ACE8C009ACE8C009ACE8C009ACE8A6
:100DB000C00921F007018D46704710B50446AFF316
:100DC00000802046BDE81040FFF71DBA01491820F9
:100DD000ABBEFEE7260002007047000080B540F27F
:100DE0002030C2F2000001F069FC40F25030C2F243
:100DF0000000BDE8804001F061BC0000B0B50446D1
:100E000000688168C90701D10020B0BD816821F068
:100E10000101816002F044FC054600BF2068806843
:100E2000C007F1D002F03CFC401B0328F6D3A06AB7
:100E300040F01000A062E06A40F00100E062012092
:100E4000B0BD00000146406A826A12F0500F03D024
:100E5000006A026B084610470168826A42F4007219
:100E60008262896801F46021B1F5602F01D1017BB4
:100E700011B101F0D9BB00BF816A21F48071816298
:100E8000816AC90448BF01F0CFBB816A41F001010A
:100E9000816201F0C9BB0000406A816A41F04001F3
:100EA0008162C16A41F00401C16201F001BC00002D
:100EB000406A01F0FBBB0000B0B582B004460020E0
:100EC000019021688A68D2073FD1886840F001000C
:100ED000886040F2AC00C2F2000000684DF6836109
:100EE000C4F21B31A0FB0101880C01900198A0B154
:100EF000019801380190019878B10198013801906A
:100F0000019850B1019801380190019828B10198D9
:100F10000138019001980028EAD102F0C1FB054692
:100F200020688068C00713D102F0BAFB401B032879
:100F3000F6D3A06A40F01000A062E06A40F0010021
:100F4000E062002084F82400012002B0B0BD00BFA0
:100F5000002002B0B0BD00002DE9F04F85B040F296
:100F6000803AC2F2000A40F20409934688460AF128
:100F700020030028C2F2000907C300F01D814FF6CC
:100F80000841C0F60001064651F8080C44F242221E
:100F9000C4F25522904240F0DD8051F8040C022248
:100FA000C0F20102904249D0B0F1011F40F0D2805E
:100FB0008A68D1E9000780EA02014EF2E572C1F6C3
:100FC0000E0279400132914240F0C4800AF092FD55
:100FD0000021C4F2C8210AF043FC4FF07E510546BF
:100FE0000AF02BFC002840F0B5800021C4F2F0117B
:100FF00028460AF00DFC002840F0AC8038460AF084
:1010000079FD0021C4F2C8210AF02AFC4CF6CD413A
:10101000C3F6CC5104900AF010FC002840F09A80EE
:1010200000210498C4F220110AF0F2FB002840F0DD
:1010300091800498C6E904508CE000BF91E89100CB
:101040004A69D1E9035380EA02016140794069406D
:101050004EF2E5725940C1F60E0291427AD10293E6
:101060000AF048FD0021C4F2C8210AF0F9FB039000
:1010700020460AF03FFD0024C4F2C82421460AF0AD
:10108000EFFB049038460AF035FD21460AF0E8FBF4
:10109000074628460AF02EFD21460AF0E1FB0190A2
:1010A00002980AF027FD0021C4F220110AF0D8FBB3
:1010B000029003984FF07E5105460AF0BEFB0028CF
:1010C00048D10021C4F2F01128460AF0A1FB002803
:1010D00040D14CF6CD410498C3F6CC510AF0ADFB9B
:1010E000C0BB00210498C4F220110AF091FB88BB18
:1010F0000021C4F2A00138460AF09FFB50BB00213A
:10110000C4F20C2138460AF083FB18BB01984FF05B
:101110007C510AF092FBE8B900210198C4F2401119
:101120000AF076FBB0B900210298C4F220110AF04F
:1011300084FB78B900210298C4F296310AF068FB6A
:1011400040B90198C9F81C70C9F820000298C9F884
:1011500024006EE7D6E904570021C4F2F0112846B6
:101160000AF056FB00281CBF0025C4F2F0152846E3
:101170004FF07E514FF07E540AF04AFB00210028C8
:10118000C4F22011384608BF254635610AF040FBFD
:101190004CF6CD45C3F6CC5500281CBF0027C4F241
:1011A0002017384629460AF033FB00284FF000008C
:1011B00008BF2F4677613083B8F1000F09D0404651
:1011C0003C2104F0B5F8DAE9090B0068406AAAF896
:1011D0001800BBF1000F09D058463C2104F0A8F8D4
:1011E000DAF828000068406AAAF81A0040F60044BD
:1011F000C4F2010420464FF4807102F045FA89F8E8
:10120000000089F8040002F04BFACAF82C002046CE
:10121000102102F039FA89F8060089F8080002F076
:101220003FFACAF8300020464FF4007102F02CFA61
:1012300089F80A0089F80C0002F032FACAF8340082
:1012400005F012F80120012605F004FD002504F543
:1012500080604FF480410022AAF80A508AF80C50AE
:1012600002F018FA05F094FE20464FF4006102F0F7
:101270000BFA89F80D0002F013FADAF82010CAF818
:10128000380069B14868CAF83C008868CAF840006C
:1012900008688AF80060CAF84400C868CAF84800BC
:1012A00002F0FEF9CAF84C0002F0FAF9CAF8500050
:1012B00002F0F6F9CAF85400AAF801508AF803506F
:1012C00002F0EEF9CAF8580000208AF8045005B080
:1012D000BDE8F04F08F0C4BB2DE9F04F83B002F039
:1012E000DFF940F2803AC2F2000ADAF820108146B3
:1012F000002959D002F0D4F9DAF84C10411A5029DB
:1013000052D3DAF820409AF800206168CAF84C00FD
:10131000E2B3DAE90F57DAF84460CB46DAF84890DE
:10132000084629460AF02EFD49F69A18C3F6996830
:1013300041460AF05BFC29460AF0F4F9CAF83C0081
:10134000A06839460AF01EFD41460AF04FFC3946B6
:101350000AF0E8F9CAF84000206831460AF012FDA8
:1013600041460AF043FC31460AF0DCF9CAF8440071
:10137000E06849460AF006FD41460AF037FC494656
:10138000D9460AF0CFF9CAF848000DE0CAF83C1077
:10139000A068CAF840002068CAF84400E068CAF8AB
:1013A000480001208AF8000041F20007C4F201075A
:1013B000A7F5806630464FF4006102F065F90446F7
:1013C00002F06EF940F2040BC2F2000B9BF80D1014
:1013D000012908BF002C2FD0DAF820808BF80D40AF
:1013E000B8F1000F00F00485DAF82400002800F0BE
:1013F00053810068406ABAF8181082B28A42AAF88B
:10140000180000F049819AF80520401A012A51D9A4
:10141000022A00F0A780032A40F03E81DAF860102B
:1014200000B208440328CAF8600040F3AF800121ED
:101430006FF00302B0E000BFDAF83810411A6429F7
:10144000CAD39AF80510CAF838000329C4D0DAF8CC
:101450002000002800F092809AF80910027E8AF895
:10146000101001698AF81120CBF828104169002278
:10147000CBF82C100021C4F2C011C4F2E002C0E984
:10148000041240F2011100250183AAF8015002F074
:1014900007F9CAF858008AF80350CAF8685005F0EE
:1014A00049FD03208AF805000120CAE9185505F016
:1014B000C3FD91E79BF810104CF6CD45C3F6CC5513
:1014C000CDF80890022904BF4DF20A75C3F62345F2
:1014D000002908BF4FF07E55DAF8601000B2D8F846
:1014E00010900F18042F11DBA7F1040B012000EB63
:1014F0009B0010F0030447D0284649460AF012F931
:10150000012C67D15F465C4672E000BF17F1040F03
:101510004846CAF8607000F38D80484629460AF0B4
:1015200031FC17F1080F07F1040400F2818029460D
:101530000AF028FC14F1080F07F1080478D82946AE
:101540000AF020FC14F1080F00F2B08329460AF0DB
:1015500019FC07F1100407F10C0111F1070F2746E0
:10156000DCD365E0DAF8601000B208440328CAF85A
:10157000600019DD01216FF003021BE000208BF8F1
:101580000D0000F035BC00BF484631E010F1040FFB
:1015900000F38280FF2104221044CAF8600048B2A0
:1015A00005F090FC78E000BF10F1040F74DC4FF000
:1015B000FF31042210449AF81220CAF860008818FB
:1015C00048BF03200328C8BF00208AF8120007F094
:1015D00069FC61E0014628460AF0A4F8022C01D11A
:1015E000083F04E0014628460AF09CF80C3F3C46C0
:1015F000BBF10C0F40F2040BC2F2000B18D300BF7A
:10160000014628460AF08EF8014628460AF08AF874
:10161000014628460AF086F8014628460AF082F874
:10162000A7F11004A7F1140111F1080F2746E7D321
:10163000CAF860400021C4F2F01104460AF0E8F84C
:1016400000281CBF0024C4F2F01420464FF07E5145
:101650004FF07E550AF0DCF8002808BF2C462046E3
:101660004946C8F810400AF0C5F8DDF8089041F284
:101670000007C4F2010778B902F012F800F5FA6029
:10168000CAF86C0001208BF8120002F009F8CAF8C1
:10169000540000208AF80600DAF82800002800F03C
:1016A0006D810068406ABAF81A1082B28A42AAF8BC
:1016B0001A0000F063819AF80520401A012A0FD918
:1016C000022A40F05B81DAF8641000B20144032979
:1016D000CAF8641060DD4FF07E506FF0030263E0E3
:1016E0005A464CF6CD45527CC3F6CC55DAF820B0BC
:1016F000DAF864102F46022A04BF4DF20A77C3F6C7
:10170000234700B2002A08BF4FF07E575246DBF84D
:1017100014A00C18042C13DBA4F10408012000EB26
:10172000980010F00305CDF8089051D03846514686
:1017300009F0F8FF012D4DD14446C14658E000BFE5
:1017400014F1040F5046546600F37A805046CDF8E9
:10175000089039460AF016FB14F1080F04F1040949
:1017600066D839460AF00EFB19F1080F04F1080992
:101770005ED839460AF006FB19F1080F00F29A828A
:1017800039460AF0FFFA04F1100904F10C0111F1D5
:10179000070F4C46DDD34BE011F1040F00F3EE8050
:1017A0000020CBF6807004229AF812301144032BEB
:1017B000CAF8641000F2E080DFE803F002BE7A9E0F
:1017C0009AF81300B0FA80F040098AF81300D3E0C9
:1017D00050460DE00146384609F0A4FF022D01D124
:1017E000083C04E00146384609F09CFF0C3CA14649
:1017F0004CF6CD45C3F6CC55B8F10C0F18D300BF4D
:101800000146384609F08EFF0146384609F08AFF46
:101810000146384609F086FF0146384609F082FF46
:10182000A4F11009A4F1140111F1080F4C46E7D3FB
:1018300040F28031C2F20001C1F86490DDF80890F6
:101840000021C4F22011074609F0E2FF00281CBF66
:101850000027C4F220173846294609F0D9FF00288E
:1018600008BF2F4638465146CBF8147009F0C2FF26
:1018700040F2803A40F2040B41F200070028C2F225
:10188000000AC2F2000BC4F2010777D101F008FF91
:1018900000F5FA60CAF8700001208BF8120001F020
:1018A000FFFECAF8540000208AF8070066E000BF77
:1018B0004CF6CD41DBF83440C3F6CC510AF096F932
:1018C000214609F02FFF0021C4F24011044609F01F
:1018D0009FFF00281CBF0024C4F2401420464FF094
:1018E0007C514FF07C5509F093FF002808BF2C462F
:1018F000CBF8344040E000BF0024C4F22014DBF8F1
:10190000385021460AF072F9294609F00BFF0021F0
:10191000C4F29631054609F07BFF00281CBF002564
:10192000C4F296352846214609F072FF002808BF08
:101930002546CBF838501FE0DBF830404FF07C51A3
:101940000AF054F9214609F0EDFE0021C4F20C2101
:10195000044609F05DFF0025C4F2A00500281CBF65
:101960000024C4F20C242046294609F051FF002827
:1019700008BF2C46CBF8304007F094FADAF8200084
:10198000002800F0358201F08BFE044630464FF40B
:10199000807101F079FE9BF80010884206D1DAF8D8
:1019A0002C10611A232909D20EE000BF21468BF8C2
:1019B0000000CAF82C40611A232905D39BF80410B3
:1019C000884218BF8BF8040001F06AFE04463046D6
:1019D000102101F059FE9BF80610884206D1DAF872
:1019E0003010611A232909D210E000BF21468BF87C
:1019F0000600CAF83040611A232907D39BF8081063
:101A0000884203D000288BF8080069D0012501F036
:101A100047FE044630464FF4007101F035FE9BF856
:101A20000A10884206D1DAF83410611A232909D243
:101A30000EE000BF21468BF80A00CAF83440611A54
:101A4000232905D39BF80C10884218BF8BF80C0093
:101A500001F026FE9BF804209AF8141082B10029A8
:101A60005FD09AF81500002858D19AF8050001288F
:101A700038D9032852D1002005F0CAFA4EE000BF41
:101A800051B19AF8151000294BD19AF80510012987
:101A900047D8DAF8741009E00121AAF814109AF86E
:101AA0000510CAF87400012901463AD8401AB0F569
:101AB0007A7F36D39AF8091001200BF11C028AF8BC
:101AC00015008AF8131007CA0BF1300307C3002072
:101AD0008AF8120002208AF8050007F0E3F920E0F6
:101AE000002594E79BF81000411EB1FA81F14909E5
:101AF0004900002808BF01218BF8101001F0D0FD2B
:101B000000F5FA60CAF86C0001208BF8120001F0B1
:101B1000C7FDCAF8540000208AF806000020AAF881
:101B2000140001F0BDFD9BF80C209AF816107AB154
:101B3000002900F0E9809AF81700002840F0E180C1
:101B40009AF8050003283BD1022005F061FAD8E09D
:101B500041B19AF81710002940F0D680DAF87810D1
:101B600006E000BF0121AAF81610CAF87800014665
:101B7000401AB0F57A7FC0F0C7809AF80520DAF8ED
:101B800020000121032A8AF8171031D1002800F023
:101B9000BB8005F0F5F9DBF82800DAF820100861C1
:101BA000DBF82C009AF8112048619AF810000A76A8
:101BB000002A18BF01224A7607F052FFA4E000BFB6
:101BC000012847D9022840F09C800BF1300207CA57
:101BD000CBF82420CBE90701DAF82000416900693D
:101BE00008F064FD9AF8130007F03AFF89E000BF9F
:101BF000002800F089809AF80910027E8AF81010F7
:101C000001698AF81120CBF8281041690022CBF82D
:101C10002C100021C4F2C011C4F2E002C0E9041289
:101C200040F2011100240183AAF8014001F038FDBF
:101C3000CAF858008AF80340CAF8684005F07AF9F3
:101C400003208AF805000120CAE9184405F0F4F9D8
:101C50005AE000BF9AF80210DAF8200051B10021D2
:101C6000AAF801108AF803100028CAF8681018BFF3
:101C700001830AE0417E032920D10021AAF8011046
:101C80008AF80310CAF868100183002438464FF41C
:101C9000804100228AF80440AAF80A408AF80C40E1
:101CA00001F0F8FC8AF808402BE000BF07F10C04B3
:101CB000BEE400BF04F10C09BAE500BF027E82F069
:101CC000010101769AB90024AAF8014001F0E8FC6C
:101CD000CAF85800DAF820008AF803404169006920
:101CE000CAF8684008F0E2FCDAF82000017E19B179
:101CF000417E19B9012100E00021417600208AF8D7
:101D000008000020AAF8160035BB9AF80500012843
:101D100006D9032820D1012005F07AF91CE000BF84
:101D20009BF81100411EB1FA81F1490949000028D0
:101D300008BF01218BF8111001F0B2FC00F5FA6028
:101D4000CAF8700001208BF8120001F0A9FCCAF853
:101D5000540000208AF80700DAF82000002847D055
:101D60009AF8041061B9017E51B101F099FCCAF8EA
:101D70005800DAF8200000218AF80310CAF8681029
:101D8000427E017E032A8AF804101FD19AF80220AD
:101D9000E2B94FF48270AAF8010040F20110002469
:101DA000AAF80A008AF80C4001F07AFC40F2FC31F3
:101DB000C2F20001086038464FF48041012201F070
:101DC00069FCDAF820008AF80840017E59B1407EAB
:101DD000032808D001F064FCDAF858100446401AD1
:101DE000F92800F2F18100208AF80300CAF868009F
:101DF0009AF80A00012831D101F052FC40F2FC317E
:101E0000C2F200019AF80B200B68012AA0EB030232
:101E100018D1962A22D308609AF80C0000240130C9
:101E20008AF80C0038464FF4804100228AF80B40B3
:101E300001F030FC9AF80C00032828BF8AF80A4009
:101E40000CE000BF962A09D3086001208AF80B0035
:101E500038464FF48041012201F01CFC9AF805003D
:101E600001282DD801F01CFCDAE91B130A1A002AFC
:101E7000A3EB0001D8BF002914DDDAF85430C31AEF
:101E8000DC2B1BD39BF81230CAF8540083F00100FE
:101E9000012A8BF81200A4BF00208AF8060001294D
:101EA00009DA0BE09BF8120040B901208BF8120010
:101EB00000208AF8060000208AF807009AF805003A
:101EC000032843D0012829D0002840F07481DAF893
:101ED0005000A9EB000064283ED3CAF8509007F0E8
:101EE00017F907F0A3F99AF80600C8BB01203721BB
:101EF000012407F04BFA8AF806409AF8070098BBCD
:101F00000020D72107F042FA01208AF807009AF84A
:101F10000800002840F04F812BE000BF01F0C0FB1B
:101F2000DAF85C10411AFA2928D29AF8060000283B
:101F300000F02B819AF80700002800F032819AF80F
:101F40000800002800F03A8135E100BF002003B00E
:101F5000BDE8F04F05F070B89AF806000028C5D02B
:101F60009AF807000028CBD09AF80800002840F023
:101F7000228103B0BDE8F04F07F058B9DAE90F65E8
:101F80000027BAF81C40C4F2F017CAF85C003046CB
:101F9000394604F1140909F03BFC00281CBF002657
:101FA000C4F2F0163046002109F032FC3946002810
:101FB00018BF304609F054FC40F20008C4F2103853
:101FC000414609F013FE09F041FD0027C0F1AC00C5
:101FD000C4F2201701902846394609F019FC002860
:101FE0001CBF0025C4F220152846002109F010FC72
:101FF0003946002818BF284609F032FC414609F04E
:10200000F5FD09F023FDC0F1AC06484607F0F2FEED
:10201000B4F5937F03D804F1150007F0EBFE9AF8AE
:102020000D00012840F08480BBF91450142DC0F23B
:102030007F80A94540F37C800296BBF91640DDF80D
:102040000480A9EB050AB8EB04074FF0FF3BC4BFBF
:102050004FF0010BA4EB080707EB0A06A8090428B8
:1020600098BFEF2C04D94D4508BF44450AD117E06D
:10207000A8B2A1B240F2FF7204F016F84D4508BFB5
:1020800044450DD03046B7EB460FDCBF3844013530
:10209000BAEB460FA4BF5C4450440646DEE700BFDF
:1020A00040F20400C2F20000B0F914504FF0FF34C7
:1020B000B9EB0507B0F91860C8BF0124002F48BF6D
:1020C0007F4202984FF0FF3BB0EB060AC4BF4FF0CF
:1020D000010BA6EB000A0AEB07080BE04046BAEB3F
:1020E000480FDCBF50442544B7EB480FA4BF5E4403
:1020F00038448046A809042898BFEF2E02D94D45E0
:1021000008D0EBE7A8B2B1B24FF6E07203F0CCFF13
:102110004D45E3D102988642E0D140F2803A40F248
:10212000040BDDE90146C2F2000AC2F2000B0EE028
:10213000019C1FFA89F5A1B2284640F2FF7203F014
:10214000B3FFB1B228464FF6E07203F0ADFFBAF824
:102150001C1001208AF80D00481C81B2ABF81490C5
:10216000ABF81640ABF81860B1F5947FAAF81C00E4
:1021700022BF0020AAF81C008AF80D0006F07CFDA2
:102180009AF8060000287FF4D5AE012037210124FB
:1021900007F0FCF88AF806409AF8070000287FF458
:1021A000CEAE0020D72107F0F1F801208AF8070011
:1021B0009AF8080010B103B0BDE8F08F03B0BDE895
:1021C000F04F06F059BD00BFDAF82000B846D0E95C
:1021D000017601903846314609F008FDDBF81C1005
:1021E0000546384609F01BFB80B9DBF82010304665
:1021F00009F015FB60B9DBF82410284609F00FFB45
:10220000002847463FF4EFAD032003E0012000E043
:10221000022047469AF8031081423FD1DAF868104D
:10222000611A3229FFF4E4AD8AF8010001208AF82E
:10223000020001984FF440740483002540F201101D
:10224000AAF80350CAF86850AAF80A008AF80C5095
:1022500001F026FA40F2FC31C2F200010860384673
:102260004FF48041012201F015FA9AF80500032885
:1022700011D104F085FEDBF82800DAF8201008619F
:10228000DBF82C000C8348619AF8100007F0E8FB9B
:10229000DAF8200004838AF80850A9E58AF80300D8
:1022A000CAF86840A4E50000FEE70000002070477F
:1022B0000020704710B540F68414C2F2000440F6C6
:1022C0004411C2F200012046002205F0FFF940F659
:1022D0000411C2F20001204605F0F2F9002010BD01
:1022E00010B540F68414C2F200040146204605F001
:1022F000E7F9204605F0C6F9002010BD40F6484039
:10230000C2F2000000F024BE40F68C40C2F2000091
:1023100000F01EBE70470000EFF3108072B600BFE1
:10232000FEE7000070B542F20C060446C4F2020655
:1023300001F0B6F93168C9071CD13068800644BF86
:10234000202030603068C00607D43069C00704D14F
:10235000306840075CBF002070BD3068C00641F2A5
:102360009800C2F2000021D400213268520725D41F
:102370002AE000BFC4B10546601C10D13068C00718
:10238000DBD03068C0071CBF30685FEAC070D4D0B3
:102390003068C007F2D1D0E73068C007CDD001F077
:1023A0007FF9401BA042F7D9032070BDC16941F0FD
:1023B0000201C16110213268520705D5C26941F09E
:1023C000040142F00102C2613269D20702D1012048
:1023D000316070BDC26942F00402C261306920F010
:1023E000010030610120316070BD000070B582B025
:1023F00004460020019094F82400012802D1022014
:1024000002B070BD012084F824002046FEF7F6FCDF
:1024100020B1002184F8241002B070BD0646A06AE5
:1024200041F2021188430230A06240F2AC00C2F2D5
:1024300000000568022001F099FEB5FBF0F04000B5
:1024400001900198A8B100BF01980138019001984E
:1024500078B1019801380190019850B10198013884
:102460000190019828B10198013801900198002845
:10247000EAD12046FEF720FD2068816841F008017E
:10248000816001F00DF9054620688168090705D5CE
:1024900001F006F9401B0A28F6D910E0816841F0E6
:1024A0000401816001F0FCF8054600BF20688068E7
:1024B000400709D501F0F4F8401B0B28F6D30120A2
:1024C00010216FF0120203E001216FF00302304689
:1024D000A36A1A401143A162002184F8241002B0BB
:1024E00070BD00007047000070B581B000220092FE
:1024F00090F82420012A03D10221084601B070BDC2
:102500004A680123062A02EB820E80F8243007D89D
:10251000D0F800C06FF004030CF134060CE000BFEB
:10252000D0F800C00C2A87BF0CF12C066FF04003D6
:102530000CF130066FF022030EEB03021F23346808
:1025400003FA02F50B6824EA050503FA02F22A43AE
:102550003260092B03EB43021AD9DCF80C601E3AF7
:10256000072589689540AE43914023F0010231432D
:10257000102ACCF80C1015D142F20041C4F201012E
:102580008C4517D0816A41F02001816201210AE067
:10259000DCF81030072689689640B3439140194310
:1025A000CCF810100021002280F82420084601B049
:1025B00070BD00BF89680902F4D4DCF80810102B44
:1025C00041F40001CCF80810ECD140F2AC01C2F2A9
:1025D000000109684DF68362C4F21B32A1FB0212AE
:1025E000910C01EB81014900009100990029D9D09B
:1025F00000990139009100990029D3D0009901393F
:10260000009100990029CDD00099013900910099DD
:102610000029C7D0009901390091009900294FF095
:102620000001E5D1BFE70000006842F20041C4F2BA
:102630000101884218BF704780B540F26820C2F29D
:10264000000000F1300CB0F848109CE80C1002EBD0
:10265000010EB0F84E20B0F84A109444028A0B44A0
:10266000013291B21E29C0E90CE3C0F838C00282E1
:1026700018D348F68901C8F68801AEFB012EA3FBEA
:102680000123ACFB01124FEA1E114181190981811E
:102690001109C1810021C0E90C118163018201216E
:1026A00001704161BDE88040704700007047000044
:1026B000704700000068C06C7047000010B5044609
:1026C00000684168890644BF01685FEA81710BD4E4
:1026D0004168090644BF01685FEA41712AD4416834
:1026E00049065BD410BD00BFA16AC90603D4A16A24
:1026F00041F40071A162816801F46021B1F5602F9D
:1027000010D1217B71B9416821F020014160A06A9C
:1027100020F48070A062A06AC00403D4A06A40F0D4
:102720000100A0622046FFF77FFF20686FF01201D2
:102730000160CDE7A16AC90603D4A16A41F4005142
:10274000A162816801F4E041B1F5E04F10D1416828
:1027500021F080014160A06A20F48050A062A06A4C
:10276000C00511D4A06A40F00100A0620CE000BFD7
:102770004168490508D4816801F46021B1F5602FF2
:1027800002D1217B0029E2D02046FFF7ABFE206872
:102790006FF00C01016041684906A3D50068C007CD
:1027A00008BF10BDA06A40F48030A062204600F04F
:1027B000A9F820686FF00101016010BD002804BF76
:1027C00001207047B0B50446806A28B1206881684E
:1027D000C9070CD032E000BF0020E06284F824007A
:1027E000204600F091F820688168C90726D1A16AC7
:1027F000C9063DD4A16A41F2021291430231A1629D
:10280000E169D4E9013241EA030C531EB3FA83F3C0
:102810005D091346B2F5807F18BF2B02217D257B11
:1028200001294CEA45012ED145B3A56A45F02005A2
:10283000A562E56A45F00105E56224E0816821F0C2
:102840000101816000F02CFF054600BF206881680F
:10285000C907CCD000F024FF401B0328F6D3A06AA0
:1028600040F01000A062E06A40F00100E062A06A5F
:10287000A06A40F01000A0620120B0BDA56903EB82
:102880004533A3F5C0534568B2F5807F25F469450B
:1028900043EA0503436083684FF2FD75CFF6E175A7
:1028A00003EA050343EA0103836001D0012A07D14B
:1028B00022690023CFF6F07303EB025201E000BF60
:1028C0000022C36A23F470031A43C262806840F690
:1028D000FE62CFF61F721040884207D10020E062EE
:1028E000A16A012262F30101A162B0BDA06A40F0B9
:1028F000100020F00200A062E06A40F00100E062F7
:102900000120B0BD70470000F0B585B0016842F607
:102910000002C4F2010291424FF00002CDE903220D
:10292000CDE9012246D042F20042C4F201029142B6
:1029300069D1074641F21800C4F20200016841F46F
:1029400000710160016801F4007100910099016853
:1029500041F004010160006801A900F0040000904A
:1029600000981B2001900320029040F60000C4F262
:10297000010000F07FFD40F648440820C2F2000448
:10298000C4F202000021C4E9000104F10800802221
:102990004FF480734FF4806520266EC02046E161BD
:1029A00000F0A4FB002818BFFFF7B6FC3C6267628A
:1029B00021E000BF41F21800C4F20200016841F4B6
:1029C00080610160016801F48061009100990168F3
:1029D00041F004010160006801A900F004000090CA
:1029E0000098442001900320029040F60000C4F2B9
:1029F000010000F03FFD12200021002200F0D0FE77
:102A0000122000F0BBFE05B0F0BD00002DE9F04142
:102A100082B000270D460446019700F041FE216870
:102A20008A68D20544D406464868C00503D4C86AFB
:102A300010F4700F46D040F2AC00C2F200000768FC
:102A400042F292480220C1F2492801F08FFB21682E
:102A500044F624130A69B7FBF0F0C2F292431A421B
:102A600006D1CA6844F62413C0F292031A4249D030
:102A70000A6912EA080F07D1CA6842F29243C0F20B
:102A800049031A4200F084800A6949F24923C0F2DE
:102A900024031A424FF0FC0242D1CF681F4208BF04
:102AA0005422019B02FB00F7BB423ED379E000BFFA
:102AB000A06A40F02000A06284F82470012002B0D7
:102AC000BDE8F081086880076BD4002D55D0681CE4
:102AD00012D10868800764D4086880075CBF086862
:102AE0005FEA80705DD408688007F2D559E000BFC6
:102AF00021680868800754D400F0D2FD801BA842EA
:102B0000F6D93AE00A6912EA080F4FF0290207D114
:102B1000CB6842F29247C0F249073B4208BF1422F9
:102B2000019B02FB00F7BB423BD235B3681C1FD1AF
:102B30000198013001900198B84232D201980130D9
:102B400001900198B8422CD201980130019001986F
:102B5000B84226D20198013001900198B842E7D3DB
:102B60001FE000BF0198013001900198B84217D2D0
:102B700000F096FD801BA842F4D9A06A40F0040042
:102B8000A062002084F82400032002B0BDE8F08198
:102B90005422019B02FB00F7BB42C6D301E000BFF9
:102BA00021686FF012000860A06A40F40070A06213
:102BB000886800F46020B0F5602F01D1207B18B147
:102BC000002002B0BDE8F081A06A20F48070A0620D
:102BD000A06AC004F4D4A06A40F00100A062002002
:102BE00002B0BDE8F0810000B0B582B0044690F8B4
:102BF0002400012802D1022002B0B0BD012084F8D7
:102C000024000020019020688168C90742D18168B2
:102C100041F00101816040F2AC00C2F200000068A6
:102C20004DF68361C4F21B31A0FB0101880C0190B9
:102C30000198A0B1019801380190019878B10198EC
:102C400001380190019850B1019801380190019824
:102C500028B101980138019001980028EAD100F0CC
:102C60001FFD054620688168C90713D100F018FDD3
:102C7000401B0228F6D9A06A40F01000A062E06A6A
:102C800040F00100E062002084F82400012002B03E
:102C9000B0BD00BFA26A42F2044140F20133C4F267
:102CA00001019A4302F5807301F57F729042A3629D
:102CB0002AD0A36A23F48013A36243685B0504D57A
:102CC000A36A012565F30D33A362A56A0023ED0411
:102CD0004FF0000544BFE56A25F00605E56284F87B
:102CE00024306FF002030360836803F46023B3F5BC
:102CF000602F19D1904213D0816841F4A001816006
:102D0000002002B0B0BD00BF0B6813F4702FD0D00C
:102D1000A36A43F48013A3620B685B05D0D4D4E7A5
:102D2000096811F4702FE7D0816841F48011816047
:102D3000002002B0B0BD0000F0B581B004460368C9
:102D400042F60000C4F20100834205D042F2004086
:102D5000C4F2010083420BD142F20440C4F20100EC
:102D6000006810F4702F03D0012001B0F0BD00BF47
:102D700094F82400012803D1022001B0F0BD00BF67
:102D8000012084F824000020009098680E46154623
:102D9000C00743D198684DF6836140F00100986008
:102DA00040F2AC00C2F200000068C4F21B31A0FB8C
:102DB0000101880C00900098A8B100BF009801386C
:102DC0000090009878B1009801380090009850B1B8
:102DD000009801380090009828B1009801380090C0
:102DE00000980028EAD100F05BFC07462368986849
:102DF000C00713D100F054FCC01B0228F6D9A06A0A
:102E000040F01000A062E06A40F00100E0620020A3
:102E100084F82400012001B0F0BD00BF42F204405C
:102E2000A16AC4F2010040F60172914300F57F727D
:102E300001F580719342A16246D0A06A20F480100F
:102E4000A0625868400504D5A06A012161F30D30E5
:102E5000A062A16A0020C9044FF0000144BFE16AEA
:102E600021F00601E16284F82400206A40F6456101
:102E7000C0F6000140F6B16240F6996700F1280CF7
:102E8000C0F60002C0F600078CE886006FF0020171
:102E900019609968324641F48071996003F14C01E0
:102EA0002B4600F05DF92068816801F4602281689A
:102EB000B2F5602F0CBF41F4A00141F48011816094
:102EC000002001B0F0BD00BF016811F4702FB4D034
:102ED000A16A41F48011A16200684005B4D4B8E74A
:102EE000B0B5044690F82400012804BF0220B0BD0C
:102EF0000121206884F824108168C90708D121467F
:102F000051F8280F41F2011220EA0202002018E0D5
:102F1000816821F00101816000F0C2FB054600BF1D
:102F200020688068C007EAD000F0BAFB401B032885
:102F3000F6D3A06A214640F01000A06251F82C2F71
:102F4000012042F001020A60002184F82410B0BD83
:102F500010B5D0E90FCE0168DCF800300A6823FA1A
:102F60000EF35C072AD512F0040427D00A689206F3
:102F700003D40A6822F004020A602F22C4F202027B
:102F8000914240F20402C4F2020259DD3023C4F23D
:102F90000203994270D04423C4F20203994271D0D3
:102FA0005823C4F20203994278D14FF4802313606E
:102FB000C16A002940F097806EE000BF9C0727D5CA
:102FC00012F0020424D00A68920606D40A6822F09D
:102FD0000A020A60012280F821202F22C4F2020294
:102FE000914240F20402C4F2020239DD3023C4F2FD
:102FF000020399425ED04423C4F2020399425DD099
:103000005823C4F2020399425ED14FF4003363E0C7
:103010001B0741D512F0080208BF10BD0A6822F054
:103020000E020A60012101FA0EF2CCF8042081633D
:10303000016B4FF480720029028454D12CE000BF50
:103040000823C4F20203994222D01C23C4F20203D3
:10305000994223D140231360C16A002943D11BE068
:103060000823C4F2020399422CD01C23C4F20203A9
:10307000994229D120232FE04FF480631360C16A65
:1030800089BB09E04FF480431360C16A59BB03E078
:1030900004231360C16A31BB10BD00BF02F1680494
:1030A0004FF08063A14208BF4FF480031360C16AF0
:1030B000C9B9F1E74FF400730EE000BF4FF40053BD
:1030C0000AE000BF022307E002F168044FF000733A
:1030D000A14208BF4FF400131360816A0022002947
:1030E00080F82020D8D0BDE810400847002804BF51
:1030F000012070472DE9F04101684FF6F872CBF6D8
:10310000FD724CF6CD430A44CCF6CC43A2FB03231C
:103110006FF0030202EA93020023C4F2020300F1FB
:10312000040E00F11007C0E90F329EE80051F0CF05
:103130000A6843F6F0739A4342EA080242EA0C0234
:1031400042EA0E0222432A4332433A430A600021F4
:103150004FF4807281630284BDE8F04108467047F5
:1031600090F820C0BCF1010F04BF02207047F0B5F9
:1031700090F821C04FF0010EBCF1010F80F820E063
:1031800026D14FF0020C80F821C04FF0000CC0F89F
:1031900038C0D0E900C4C56AC66BDCF80070102CDA
:1031A00027F00107CCF80070006C0EFA00F0706098
:1031B0000846CCF8043004BF10460A46CCF8080094
:1031C000CCF80C20DCF8000045B140F00E000DE01A
:1031D000002180F820100220F0BD00BF20F0040084
:1031E000CCF80000DCF8000040F00A00CCF8000049
:1031F000DCF8000040F00100CCF800000020F0BD39
:10320000B0B5044600F04CFA054640F24800C2F260
:1032100000000078611C18BF044400BF00F040FAB1
:10322000401BA042FAD3B0BD2DE9F04381B041F27A
:103230009805C2F200052A7E012A03D1022001B0BE
:10324000BDE8F08304460120266828764CF2503011
:103250008846FFF767F8022E1CD100284ED10020C7
:1032600042F21004E861C4F20204206840F0040055
:103270002060206840F0400020604CF25030FFF7A2
:1032800051F8216821F0040121600021297601B064
:10329000BDE8F08390BB4FF0FF30C8F80000D4E9E0
:1032A000027007EB8020874228D242F21006C4F257
:1032B00002064FF0000900BFC5F81C90306840F0CE
:1032C000020030607760306840F0400030604CF2BF
:1032D0005030FFF727F8316821F00201316098B9CA
:1032E000D4E9020107F5806700EB81208742E3D330
:1032F00000200021297601B0BDE8F08301200021E3
:10330000297601B0BDE8F083C8F800700021297665
:1033100001B0BDE8F083000042F21001C4F20201E6
:10332000086840F0800200200A6070472DE9F043F1
:1033300081B041F29807C2F2000716463A7E012A90
:1033400004D1022001B0BDE8F08300BF0546012092
:1033500038764CF250300C469946FEF7E3FF28B120
:103360000021397601B0BDE8F08300BF42F21008B9
:103370000020C4F20208F861D8F8000040F0010013
:10338000C8F800004CF250302680FEF7CBFFD8F88A
:103390000010002821F00101C8F8001018BF0046F5
:1033A000DED1012DDCD00020F861D8F80000310C0E
:1033B00040F00100C8F800004CF250306180FEF788
:1033C000B1FFD8F80010002821F00101C8F8001062
:1033D000C6D1E81E10F1030F4FF00000C0D8F8610D
:1033E000D8F8000040F00100C8F800004CF250305E
:1033F000A4F80490FEF796FFD8F80010002821F0FA
:103400000101C8F80010ABD10020F861D8F8000025
:103410004FEA194140F00100C8F800004CF250306A
:10342000E180FEF77FFFD8F80010002821F00101AD
:10343000C8F8001018BF00460021397601B0BDE879
:10344000F083000042F20400C4F20200C1680906E1
:103450005CBF0020704740F22311C4F26751016045
:1034600048F6AB11CCF6EF510160C068C0B2C0099C
:10347000704700002DE9F04F82B00E68002E00F07A
:10348000FF8040F20C4C40F2004E41F20042C4F288
:10349000010CC4F2010EC4F201020427002401232E
:1034A0004FF0000A4FF00009904208BF0327009731
:1034B00049E000BF41F20002C4F20102009F9042C5
:1034C00008BF022704F00C030F229A402BEA0202E5
:1034D00007FA03F34FEA9A051A4346F825204E6887
:1034E000F203DEF8002054BF22EA080242EA080292
:1034F000CEF80020DEF80420B30354BF22EA08020D
:1035000042EA0802CEF80420F302DEF8082054BF95
:1035100022EA080242EA0802B302CEF80820DCF8E8
:1035200000204FF0010354BF22EA080242EA0802D9
:10353000CCF800200E680AF1010A36FA0AF204F10A
:10354000040400F09D8003FA0AFB16EA0B08F1D090
:103550004E684FF6FF72C1F21002964212DC122E34
:1035600056D8DFE806F0350B4D495555555555559C
:103570005555555555555545510000BFD1F80C903E
:1035800046E000BF4FF6FF72C1F2210296420FDC07
:103590000022C1F2110296421AD00022C1F2120298
:1035A000964215D00022C1F22102964210D02FE09F
:1035B0000022C1F2220296420AD00022C1F2310258
:1035C000964205D00022C1F23202964220D100BFBD
:1035D0008A684AB1012A14BFC0F814B0C0F810B00C
:1035E0004FF0080914E000BF4FF0040910E000BFDD
:1035F000CA6802F104090BE04FF0000908E000BFBF
:10360000CA6802F1080903E0CA6802F10C0900BFA8
:1036100002462646B8F5807F24BF0432203E176854
:103620000F25B54027EA050509FA06F6354315606A
:10363000CA79D2067FF57EAF41F21803C4F20203C5
:103640001A68AEF57E7642F001021A601A6802F03E
:1036500001020192019A2AF0030256F802B040F6E4
:103660000002C4F20102904208D040F60042C4F2C7
:10367000010290427FF41EAF012723E7002721E7D4
:1036800002B0BDE8F08F00008068084018BF01203C
:1036900070470000002A08BF09040161704700005C
:1036A00041F2DC00C2F200000068704740F24800BE
:1036B00041F2DC01C2F20000C2F2000100780A68A7
:1036C000104408607047000080B542F20000C4F268
:1036D0000200016841F010010160032000F08CF845
:1036E000002000F005F800F027F8002080BD000061
:1036F00070B540F24806C2F2000640F2AC013278E2
:10370000C2F200014FF47A730968B3FBF2F2044687
:10371000B1FBF2F1084601F0D3FA0F2C4FF001058E
:1037200008D838B94FF0FF3021460022002500F0BC
:1037300037F87460284670BD82B041F21800C4F2B8
:1037400002000168022241F001010160016801F0FC
:10375000010101910199416841F080514160406847
:1037600000F08050009000980420C4F2010001682D
:1037700062F31A61016002B070470000002848BF80
:10378000704700F01F01012202FA01F11C2202EA37
:10379000D0004EF20012CEF20002815070470000BD
:1037A00010B54EF60C5CCEF2000CDCF80030C3F322
:1037B000022E8EF00704042C28BF0424BEF103035C
:1037C0004FF0FF3E0EFA04F438BF0023A1439940A6
:1037D0000EFA03F39A43114300F00F0200F1604325
:1037E0000901043A03F564436244002848BF02F12A
:1037F0000C03197010BD00004EF60C51CEF2000102
:103800000A684FF6FF031A4060F30A2242F0806014
:1038100040F0FD700860704701F0070C00EB4C1C95
:103820000CF1280C00EB4110090658BF00F5947C00
:1038300052B1ACF808301B0C01210A202CF80030E2
:1038400000208CF80C107047002106202CF8003066
:1038500000208CF80C10704770470000D0F86832D8
:1038600000EB4110C26B184604F0B2B9D0F86832D0
:1038700000EB4110D0F83C21184604F00FBA0000CC
:1038800010B54FFA81FC4FF49472BCF1000F48BFA1
:10389000282201F0070302444FEAD11C02EB431136
:1038A00081F801C090F828C24FEA431EBCF1010F15
:1038B00002F80E3004BF022010BD0268012380F818
:1038C00028320446104604F027FF002084F828021E
:1038D00010BD0000B0B5426801F00F03934284BFF1
:1038E0000120B0BD4AB24FF49474002A48BF282486
:1038F00001F00703021990F828424FEAD11C02EBAD
:10390000431181F801C04FEA431C012C4FF0000421
:103910008C7002F80C3004BF0220B0BD0268012395
:1039200080F828320546104604F08AFF204685F8C4
:103930002842B0BD01F0070100EB4110D0F844016E
:103940007047000010B54FFA81FCBCF1000F01F088
:10395000070C0DD400EB4C1E00240EF594718EF86C
:1039600029418EF828C1CEF838218EF82B3109E094
:1039700000EB4C1101F828CF01244C700A61CB7088
:10398000A1F80EC0022B04BF00220A7190F8282271
:10399000012A04BF022010BD0268012380F82832EA
:1039A0000446104604F072FD002084F8280210BD81
:1039B00010B501F0070C00EB4C1E00680EF5947179
:1039C0000024CEF83C21CEF84031CEF844418EF8A8
:1039D00029418EF828C104F087FF002010BD0000A7
:1039E000B0B5426801F0070494424FF0010229D8B3
:1039F0004BB24FF49475002B48BF28254FEAD113E2
:103A000048BF214605444FEA411C05EB41114B706C
:103A100090F828328A70012B05F80C4004BF022070
:103A2000B0BD02680123054680F82832104604F034
:103A300041FF24B9286805F50C7104F0FFFE00224F
:103A400085F828221046B0BD80B501F0070C00EBC8
:103A50004C1101F828CF01F1140E00684FF0000C52
:103A60008EE80C1001224A7004F03EFF002080BD59
:103A70002DE9F04F83B00446006805F093F8014645
:103A80002068090405D5B0F94410B1F1FF3F40F3B7
:103A9000A98005F087F8400519D52068B0F84410D2
:103AA00021F48061A0F84410204600F0FBFA94F85D
:103AB000280201280BD00120002584F8280284F870
:103AC00024502068002105F0CDF884F828522068A1
:103AD00005F068F801462068490405D5B0F844109F
:103AE00021F48041A0F8441005F05CF801462068FC
:103AF000890405D5B0F8441021F40051A0F8441011
:103B000005F050F801462068C90411D405F04AF8C0
:103B1000000527D4206805F045F8800548D42068C2
:103B200005F040F8C00552D403B0BDE8F08F00BFE7
:103B3000B0F8401021F00401A0F84010B0F8401097
:103B400021F00801A0F84010204600F0BDFA2068DE
:103B5000B0F8441021F48051A0F8441005F022F888
:103B60000005D7D52068B0F8401041F00801A0F852
:103B70004010B0F8441021F40061A0F84410B0F8EF
:103B8000401041F00401A0F8401005F00BF8C0040B
:103B900006D52068B0F8441021F48051A0F84410F4
:103BA000204600F0CFFA206804F0FCFF8005B6D56F
:103BB0002068B0F8441021F40071A0F844102046A9
:103BC00000F086FA206804F0EDFFC005ACD520684F
:103BD000B0F8441021F48071A0F8441003B0BDE89F
:103BE000F08F00BF04F59471029104F1280504F5EB
:103BF0000C7140F60F7A019114E000BF01F0070745
:103C000005EB4711C1E9053200227E01CA6101229C
:103C10004A70AF5504F068FE2068B0F944100029DE
:103C20007FF537AFB0F8442012F00F080CD030F910
:103C300028B04FEA4809BBF1FF3F35DD1FFA8BF092
:103C40000006E9D51CE100BF0188D20656D401EA7E
:103C50000A0101F500410180B0F8501094F82820C5
:103C600000EB410000EB0210B0F80404E16B6FF3CD
:103C70009F2060640844E06320460021FFF7EEFDCA
:103C800094F824000028C7D0206C0028C4D194F8F0
:103C90002400216840F08000C0B2A1F84C00002050
:103CA00084F82400B8E700BF30F8191040F60F7709
:103CB00001EA0A01803120F81910029901EB481A33
:103CC0009AF80C10002977D09AF8001030F82120CB
:103CD000B0F8503000EB0111520401EB430100F148
:103CE0008180B1F80C646FF39F26002E00F088806D
:103CF000DAF81410BAF80A207DE000BF0A053DD4B6
:103D000009B2B1F1FF3F3FF787AF018801EA0A012D
:103D100080310180B0F8501094F82821130100F28E
:103D20000C4202EB4101CB5A6FF39F23C4F844319C
:103D3000A3B1D4F83C1189B1B4F82E2104F036FFB8
:103D4000D4F83C01D4F844110844C4F83C0120469E
:103D50000021FFF78BFD206800F20C42B0F85010F4
:103D6000D4F83831002B00F0B1803E2B00F2BA803D
:103D700003F0010606EB53039B02C0E0B0F85010BD
:103D800094F8282100EB410101EB0211B1F80C3449
:103D9000B4F82E2101996FF39F23C4F8443104F045
:103DA00005FF2068018801EA0A0180310180204670
:103DB00000F0A8F930E700BFB0F850109AF80020E2
:103DC00000EB410101EB0211B1F80C646FF39F2687
:103DD000002E79D0DAF81410BAF80620334604F031
:103DE000E5FE19E0B1F804646FF39F2646B1DAF8F6
:103DF0001410BAF80820334604F0D8FE01E000BFE2
:103E0000002620689AF8001048F2C00330F82120FC
:103E10003A401A4320F82120DAF81C20DAE905108C
:103E20003244CAF81C208A19CAF81420E0B1DAF822
:103E300010309AF80010B34218D8029E01F0070320
:103E400006EB4311C1E905200020C86148702068D5
:103E50005F01F35504F048FD40F60F7A1FFA8BF02E
:103E600000067FF5D9AE0BE09AF800102046FFF768
:103E7000FDFC40F60F7A1FFA8BF000067FF5CCAE02
:103E800020684FEA481230F8191005EB481701EA8C
:103E90000A0101F5004120F81910B0F85030A95C72
:103EA00000EB430202EB0112B2F80434D7E90562D9
:103EB0006FF39F23FB613344002A7B617FF49EAE46
:103EC0002046FFF7CBFCA7E60026A5E7535A48F2A9
:103ED000000723F4F8435352535ACFF6FF773B437E
:103EE0000DE000BF5E09DF064FF0FF3708BF07EBAC
:103EF000531648F20003CFF6FF7343EA862353526A
:103F0000018843F60F72114048F2C00202F53F5299
:103F10005140018080E60000002804BF0120704766
:103F2000F0B585B0064690F8290228B9002086F839
:103F30002802304600F094F8032086F82902306801
:103F400004F072FC06F1140E96E82F009EE8105063
:103F5000376ACDE90054CDE902CE049704F0DAFBCC
:103F600000286AD130680021002504F079FE7168CC
:103F7000002952D006F128004FF0010C0022002346
:103F800000EB421752018354DAB20133FA81DAB2FC
:103F9000914287F801C0FD70C7E90455BD61EFD8B3
:103FA00006F5947000220025002300BF00EB4517A2
:103FB0006D01435543F00105ECB2A1427A70FA70ED
:103FC000C7E90422BA6128D900EB441764010555FA
:103FD00043F00205ECB2A1427A70FA70C7E90422FC
:103FE000BA611AD900EB44176401055543F0030583
:103FF000ECB2A1427A70FA70C7E90422BA610CD916
:1040000000EB4417640104330555DDB2A9427A7010
:10401000FA70C7E90422BA61C8D806F10807D6E9E0
:10402000055430688CCFD6E907CECDE9007502ADD6
:1040300085E8105004F0E4FB30B1022086F8290234
:10404000012005B0F0BD00BF002086F8240001204B
:1040500086F82902306804F0D1FB002005B0F0BDDD
:10406000006845F60041C4F20001884218BF70475D
:1040700080B582B041F21C00C4F202000168002247
:1040800041F4000101600068002100F4000001908B
:1040900001981420FFF784FB142002B0BDE8804093
:1040A000FFF76CBB10B504468068022818BFFEF706
:1040B00033F9D4F86802012103F0F0FED4F8680265
:1040C000BDE8104003F0A8BED0F8680203F0CEBEF1
:1040D000D0F8680203F0D4BE90F82822012A04BF69
:1040E0000220704710B5012280F8282280F82410A1
:1040F00002680446104604F0B5FD002084F828024A
:1041000010BD0000D0F8682200F50C71104603F0D5
:10411000DBBE000090F82812012904BF022070477E
:1041200010B5012180F828120446FFF795FB20689E
:1041300004F062FB206804F025FD002084F82802CA
:1041400010BD000010B50446D0F8680203F00EFF61
:10415000A069002808BF10BD4EF61050CEF2000036
:10416000016841F00601016010BD0000012821D066
:1041700002280DD0102808D141F20401C4F2020136
:104180000A6851F8040CC00134D40020704700BF05
:1041900080B500F0C7F941F20401C4F202010968D8
:1041A0000222C1F3813102EB4101B0FBF1F0BDE825
:1041B0008040704741F20400C4F20200C16940F23D
:1041C00002320A40B2F5817F04BF4FF400407047CD
:1041D00001F44071B1F5407F18D0B1F5007F1CBFEC
:1041E00000207047006A49F64041800701EAE0700C
:1041F000704700BFC2F3834015A3185CD2030DD4EF
:1042000040F60012C0F23D02504313E050F8040C97
:104210004FF22441800301EAE07070470A6810A35E
:10422000C2F340429A5C41F20023C0F27A03B3FB2E
:10423000F2F250430968490248BF70474AF6AB2181
:104240004000CAF6AA21A0FB01014808704700BF40
:1042500002030405060708090A0B0C0D0E0F1010C7
:10426000010200002DE9F04182B00446007841F2DD
:104270001C06C007C4F202064AD030685FEAC008D4
:1042800008D4306840F080503060306800F08050D2
:104290000190019847F20007C4F200073868C00592
:1042A00012D4386840F480703860FFF7F9F9054699
:1042B0003868C00508D4FFF7F3F9401B6428F7D924
:1042C000032002B0BDE8F081706810F4407012D095
:1042D000616801F4407188420DD0706840F240423C
:1042E000C4F24222012320F4407113600023C0076E
:1042F0001360716026D17068616820F440700843D3
:10430000B8F1000F706003D4306820F08050306046
:104310002068810707D556F8181CA26821F440418F
:10432000114346F8181CC00607D556F8180CE1686A
:1043300020F48000084346F8180C002002B0BDE8C5
:10434000F08100BFFFF7ACF9054641F2883700BFA6
:1043500070688007CFD4FFF7A3F9401BB8424FF035
:104360000300F5D9EAE70000002804BF01207047E8
:104370002DE9F04381B042F20008C4F2020804467D
:10438000D8F800000D4600F0070081420CD9D8F89B
:10439000000020F007002843C8F80000D8F800000B
:1043A00000F00700A8426CD1206841F2040981079F
:1043B000C4F2020917D5410705D5D9F8001041F418
:1043C000E061C9F80010010705D5D9F8001041F4E3
:1043D0006051C9F80010D9F80010A26821F0F0016E
:1043E0001143C9F80010C00742D1D8F8000000F00E
:1043F000070085420CD2D8F8000020F007002843BF
:10440000C8F80000D8F8000000F00700A84238D132
:104410002068410707D5D9F80010E26821F4E0616F
:104420001143C9F80010000708D5D9F80000216928
:1044300020F4605040EAC100C9F80000D9F800201B
:1044400002F00C00082841F20020C0F27A004DD1A1
:104450004CF26223C2F38341C0F60003595CD203DD
:1044600038D440F60010C0F23D0048433EE000BFA3
:10447000606859F8041C022808D0012826D1890355
:1044800006D4012001B0BDE8F08300BF8901F8D552
:10449000D9F8001021F003010843C9F80000FFF724
:1044A000FFF8064641F28837D9F80000616800F04D
:1044B0000C00B0EB810F98D0FFF7F2F8801BB842E8
:1044C000F2D9032001B0BDE8F08300BF8907D8D539
:1044D000DEE700BFD9F800204CF23803C2F34042B7
:1044E000C0F600039A5C4843B0FBF2F0D9F8001024
:1044F0004CF24E02C1F30311C0F60002515C40F2CF
:10450000AC0220FA01F140F24C00C2F20000006857
:10451000C2F200021160FFF7EBF8002001B0BDE825
:10452000F083000040F2AC0041F20401C2F200004E
:10453000C4F20201006809684CF25E02C1F3C221B4
:10454000C0F60002515CC84070470000002804BF5C
:10455000012070472DE9F04182B00446007841F215
:104560000006C007C4F202060CD0706800F00C0010
:10457000042840F081803068800303D560680028FB
:1045800000F04681207880071BD5706810F00C0F72
:1045900009D0706800F00C00082840F0878070682F
:1045A000C00300F183803068800703D520690128AB
:1045B00040F02E813068616920F0F80040EAC100C7
:1045C00030602078000713D4207840072CD4E569A8
:1045D000002D00F01881706800F00C00082840F0F1
:1045E000A780012D40F00481012002B0BDE8F081D8
:1045F000A069002800F084800020C4F2422001213C
:10460000C0F88014FFF74CF8054600BF706A8007B9
:1046100000F1B280FFF744F8401B0228F6D90320CE
:1046200002B0BDE8F08100BFF0695FEAC00808D4BD
:10463000F06940F08050F061F06900F08050009027
:10464000009847F20007C4F200073868C00549D453
:10465000386840F480703860FFF722F8054600BFE4
:104660003868C0053ED4FFF71BF8401B6428F7D913
:10467000032002B0BDE8F081706800F00C0008284B
:1046800003D17068C0033FF576AF616830680029D8
:1046900000F00C81B1F5A02F00F00081B1F5803F52
:1046A00040F01A8140F480301CE100BF20690028EE
:1046B00040F20000C4F2422000F088800121016035
:1046C000FEF7EEFF054600BF306880073FF572AF8A
:1046D000FEF7E6FF401B0228F6D9032002B0BDE832
:1046E000F08100BFE168306A002900F09D80052953
:1046F00000F09280012940F0AF8040F00100B1E06D
:104700000020C4F242200021C0F88014FEF7C8FF48
:10471000054600BF706A80077FF556AFFEF7C0FF01
:10472000401B0228F6D9032002B0BDE8F08100BF8B
:104730000027C4F2422700203866FEF7B1FF022DA1
:1047400005460DD13068800140F1DE80FEF7A8FFFC
:10475000401B02284FF00300F4D902B0BDE8F081FD
:10476000306880014FD5FEF79BFF401B02284FF0B9
:104770000300F5D9F1E700BF40F2AC00C2F200003F
:10478000006844F6D351C1F26201A0FB0101480A5E
:10479000019000BF00BF0198411E002801913FF425
:1047A00013AF00BF0198411E002801913FF40CAFE8
:1047B00000BF0198411E002801913FF405AF00BFE2
:1047C0000198411E00280191E4D1FDE6002101601D
:1047D000FEF766FF054600BF306880077FF5F1AE43
:1047E000FEF75EFF401B02284FF00300F4D9B4E748
:1047F0007068216A00F480328A4209D1616A00F44B
:104800007010884204D1002002B0BDE8F08100BFE2
:10481000012002B0BDE8F08140F004003062306A4F
:1048200040F001001EE000BF20F001003062306A5D
:1048300020F004003062FEF733FF054641F288376E
:10484000306A800720D5FEF72BFF401BB8424FF09F
:104850000300F5D981E700BF20F001003062306A23
:1048600020F004003062FEF71BFF054641F2883756
:10487000306A800708D4FEF713FF401BB842F7D90F
:10488000032002B0BDE8F081B8F1000F3FF59FAE04
:10489000F06920F08050F06199E600BF40F480207C
:1048A0003060306840F480301CE000BF20F480307D
:1048B0003060306820F480203060FEF7F1FE05465D
:1048C000306880037FF55EAEFEF7EAFE401B642889
:1048D0004FF00300F4D940E720F4803030603068B6
:1048E00020F480203060FEF7DBFE05463068800350
:1048F0003FF548AEFEF7D4FE401B6428F6D90320EE
:1049000002B0BDE8F08100BF206AB0F5803F05D15C
:104910007168A26821F40031114371607168626AA4
:1049200021F4741111430843706001203866FEF7CA
:10493000B7FE0446306880013FF565AFFEF7B0FE74
:10494000001B02284FF00300F4D906E7002804BF3B
:1049500001207047B0B504460020A06294F85110C1
:1049600029B984F85000204600F032F800200221D6
:1049700084F85110D4E9001ED4E9023C0A6822F000
:1049800040020A6043EA0E02236942EA0C0242EA4C
:10499000030CD4E90532E5694CEA030C02F4007E0D
:1049A0004CEA0E0343EA050C256AA36A45EA0C05A6
:1049B0002B430B60042303EA12424A60CA6922F4C3
:1049C0000062CA610121606584F85110B0BD000029
:1049D00070B586B0044640F60000C4F201002168BC
:1049E00000F52052002691420596CDE90366029615
:1049F00002D006B070BD00BF41F21801C4F202013E
:104A00000A6842F480520A600A6802F480520192F5
:104A1000019A0A6842F004020A60096801F0040180
:104A200001910199A0210291022103910321059195
:104A300002A9FEF71FFD40F68C453020C2F20005AA
:104A4000C4F202001021802285E8430005F10C0029
:104A50004FF480734FF4806C80E80C102846C5E951
:104A60000666FEF743FB002818BFFDF755FCA5645A
:104A70006C6206B070BD00002DE9F04381B00446C1
:104A800090F85000012803D1022001B0BDE8F08366
:104A90004FF001081D460F46164684F85080FEF779
:104AA000FFFD94F85110012942D18146002F4FF0AB
:104AB000010018BF002E00F0FB800320002284F8C4
:104AC000510062652763A686E686A263A287E28715
:104AD000A0683146B0F5004F20682264626403D1BB
:104AE000026842F4804202600268520603D40268FF
:104AF00042F04002026062680139E368B2FA82F271
:104B0000B1FA81F152094909B3F5006F41EA020196
:104B10003CD131B137F8021BC1602763E08E013808
:104B2000E086E08E00286BD0681C0ED11DE000BF2F
:104B30000220BDE0216B31F8022BC2602163E08EC0
:104B40000138E086E08E00285AD020688168890705
:104B5000F0D4FEF7A5FDA0EB0900A842F2D338E09F
:104B6000FEF79EFDE08E00284AD020688168890704
:104B7000F6D5216B31F8022BC2602163E08E01383B
:104B8000E086E08E0028F0D13AE000BF39B13978F4
:104B90000173206B01302063E08E0138E086E08EE7
:104BA00070B3681C0BD11BE0216B09780173206B7B
:104BB00001302063E08E0138E086E08E00B320688B
:104BC00081688907F0D4FEF76BFDA0EB0900A842CD
:104BD000F3D303206CE000BFFEF762FDE08E78B1F6
:104BE000206881688907F7D5216B09780173206BEC
:104BF00001302063E08E0138E086E08E0028EFD19E
:104C000020688168090646D5691C0ED0FEF748FD6C
:104C1000A0EB09012068A94212D281680906F5D4E7
:104C200039E000BF8168090635D58168090632D5AB
:104C30008168090644BF81685FEA01612BD5F1E70D
:104C4000416821F0E00141606168B1F5827F0AD1DD
:104C5000A168B1F5004F02D0B1F5806F03D10168B2
:104C600021F040010160A16AB1F5005F07D1016840
:104C700021F400510160016841F4005101600121FB
:104C800084F85110002184F85010616D41F020012A
:104C9000616520216165A16831B900210091C16879
:104CA0000091806800900098606D002818BF012076
:104CB000002184F8518084F8501001B0BDE8F083E1
:104CC000411E0020B0EB116F1CBF012070474EF257
:104CD0001002CEF2000251604EF62351CEF20001D6
:104CE000F0230B700721906011607047704700003F
:104CF0007047000090F83C20012A04BF0220704752
:104D0000B0B501F108053CCDD1E900CE23F47C53C8
:104D100022F470521A432EF4F0431A432CF4E04369
:104D20001A4324F4C0431A432A43C96922F4804237
:104D3000036811435964002180F83C100020B0BD85
:104D400090F83C20012A4FF0020219D080B580F87B
:104D50003D2002685368D2F808C091E8024023F071
:104D6000700319432CF0800343EA0E0351609360F3
:104D70000121002280F83D1080F83C20BDE88040F1
:104D800010467047006801F01F010422036A02FA0E
:104D900001F123EA01020262026A11430162416CDD
:104DA00041F400414164816801F00701062903D004
:104DB000016841F00101016000207047006801F0C6
:104DC0001F010422036A02FA01F123EA01010162D0
:104DD000016A0162026A41F211110A4204D1026AB7
:104DE00040F244431A4205D0026A0A4209D0002028
:104DF000704700BF426C22F400424264026A0A42D9
:104E0000F5D1016A40F244421142F0D1016821F02B
:104E10000101016000207047002804BF0120704795
:104E200010B590F83D1031B9002180F83C100446CF
:104E300000F056F82046022180F83D10016840F24B
:104E4000FF740B68C4F2000442F6004CA142C4F2A5
:104E5000010C15DCB1F1804F1AD040F20042C4F2CF
:104E60000002914214D0A14218DCB1F1804F1DD054
:104E700040F20042C4F20002914217D01AE000BF93
:104E8000614505D040F60002C4F200029142EAD129
:104E9000826823F070031343A142E6DD614505D02B
:104EA00040F60002C4F20002914203D1026923F4E9
:104EB00040731343846923F08002D0F804E0C36890
:104EC000224361450A60CB62C1F828E002D1426901
:104ED000CCF8302001224A6180F83D20002010BD2E
:104EE00080B582B0006840F20041C4F200018842FF
:104EF00014D042F60041C4F2010188420CD141F2C3
:104F00001800C4F20200016841F400610160006809
:104F100000F400600190019802B080BD41F21800D9
:104F2000C4F202004168002241F002014160406881
:104F3000002100F00200009000981D20FEF730FCD8
:104F40001D2002B0BDE88040FEF718BC0068C168B3
:104F500041F00101C160816801F00701062903D019
:104F6000016841F0010101600020704790F83C2089
:104F7000012A4FF0020248D080B580F83D20D0F8D9
:104F800000C04FF67772DCF8083023EA0202CCF852
:104F900008200B683F2B1DDD5F2B39DD602B5BD0BC
:104FA000B3F5005F00F09880702B26D1D1E901E3C2
:104FB000C968DCF8082043EA0E0322F47F4243EA82
:104FC00001211143CCF80810DCF8081041F07701FA
:104FD00011E000BF1F2B03DC33B1102B04D00CE019
:104FE000202B01D0302B08D1DCF8081021F0700103
:104FF000194341F00701CCF808100121002280F884
:105000003D1080F83C20BDE880401046704700BF4E
:10501000402B41D0502BF0D1D1F804E0C968DCF826
:105020002030DCF8202022F00102CCF82020DCF82F
:10503000182022F0F00242EA011123F00A0242EAAB
:105040000E02CCF81810CCF82020DCF8081041F043
:10505000570121F02001CEE7D1F804E0C968DCF85F
:10506000203023F01003CCF82030DCF81830DCF8C6
:10507000202023F4704322F0A00243EA013142EAE7
:105080000E12CCF81810CCF82020DCF8081041F0F3
:10509000670121F01001AEE7D1F804E0C968DCF83F
:1050A0002030DCF8202022F00102CCF82020DCF8AF
:1050B000182022F0F00242EA011123F00A0242EA2B
:1050C0000E02CCF81810CCF82020DCF8081041F0C3
:1050D000470121F030018EE7D1E901E3C968DCF82E
:1050E000082043EA0E0322F47F4243EA01211143E0
:1050F000CCF80810DCF8081041F480417BE7000090
:10510000002804BF012070472DE9F04F81B090F8CE
:105110003D2042B9002280F83C2004460D4600F0B4
:105120008BF829462046022280F83D20026844F28E
:105130000705936842F6004CAB43936040F2FF735F
:105140001468C4F200039A42C4F2010C14DCB2F1F8
:10515000804F19D040F20045C4F20005AA4213D096
:105160009A4217DCB2F1804F1CD040F20043C4F2E7
:1051700000039A4216D01AE0624505D040F60005B9
:10518000C4F20005AA42EBD1856824F070042C43D8
:105190009A42E7DD624505D040F60003C4F2000301
:1051A0009A4204D1036924F4407543EA050424F0CB
:1051B00080038469D0F804E0C56823436245136026
:1051C000D562C2F828E002D14369CCF830304FF004
:1051D000010CC2F814C095689469D2F820E0D1E9B6
:1051E0000038D1E9027B43EA050A8D694FF6FF7961
:1051F00024EA090447EA05254FF6FC47BD43D1E9F7
:10520000077644EA0B040B692C4344EA07242EF08A
:105210002207496944EA031347EA080743EA0633C9
:1052200047EA0111C2F808A09361116280F83DC0FD
:10523000002001B0BDE8F08F70B586B0006840F680
:105240000002C4F20002002190420591CDE9031151
:10525000029149D0B0F1804F67D141F21800C4F2F9
:105260000200416840F6004441F00101416041689C
:10527000C4F2010401F0010101910199016802AD3C
:1052800041F0040101600168002601F00401019170
:105290000199016841F0080101600068294600F0A9
:1052A0000800019001984FF400400290A4F580603E
:1052B000CDE90366FEF7DEF80820CDE902062046B8
:1052C00029460496FEF7D6F80420C4F201000168CE
:1052D0004FF6FF42CFF6FF02114041F0E06141F48A
:1052E0008071016006B070BD41F21800C4F2020086
:1052F000426842F004024260426802F004020192F5
:10530000019A026842F008020260006800F008009A
:1053100001900198C020CDE9020140F600400491BF
:10532000C4F2010002A9FEF7A5F806B070BD0000A6
:1053300002680429106A0BD020F0010011B9012184
:1053400009E000BF1062106A40F001001062106AAC
:1053500020F0100010211062106A084310621068DB
:1053600040F001010020116070470000704700000C
:1053700010B5016804460869800744BFC8685FEA41
:10538000807039D40869400744BFC8685FEA40703C
:105390003ED40869000744BFC8685FEA007045D47E
:1053A0000869C00644BFC8685FEAC0604AD408699B
:1053B000C0071CBFC8685FEAC07051D10869000609
:1053C00044BFC8685FEA006052D40869400644BF21
:1053D000C8685FEA406053D40869800646BFC86861
:1053E0005FEA806010BD6FF0200220460A61BDE8D0
:1053F0001040FFF77DBC00BF6FF002000861012084
:1054000020778869800743D02046FFF7AFFF45E04B
:105410006FF00400086102202077886910F4407F53
:1054200040D02046FFF7A2FF42E000BF6FF0080027
:10543000086104202077C86980073DD02046FFF727
:1054400095FF3FE06FF01000086108202077C869E1
:1054500010F4407F3AD02046FFF788FF3CE000BFC1
:105460006FF001000861204600F078FA2168A5E796
:105470006FF0800008612046FFF738FC2168A4E740
:105480006FF040000861204600F0E8FA2168A3E7C9
:10549000204600F095F8204600F0FAF92168002037
:1054A00020776FE7204600F08BF8204600F0F0F9F7
:1054B0002168002020776CE7204600F081F8204624
:1054C00000F0E6F921680020207769E7204600F027
:1054D00077F8204600F0DCF921680020207766E7A5
:1054E00070B586B0006840F20041C4F20001884205
:1054F0004FF00001CDE90411CDE9021136D042F69A
:105500000041C4F20101884257D141F21800C4F2AF
:105510000200016840F6004441F0080101600168A2
:10552000C4F2010401F0080101910199016802AD82
:1055300041F0040101600068022600F004000190BF
:1055400001984FF4C04002902046294603960596E4
:10555000FDF790FF4FF44070CDE90206A4F580609E
:1055600029460596FDF786FF06B070BD41F218008A
:10557000C4F20200016841F008010160006802A95C
:1055800000F0080001900198202002900220039072
:10559000059040F60040C4F20100FDF76BFF0420C7
:1055A000C4F2010001684FF2FF32CFF6FF02114052
:1055B00041F0E06141F40061016006B070BD00009F
:1055C0007047000090F83C30012B4FF0020300F0D0
:1055D000F6804FEAB202032A80F83D3000F2E980FB
:1055E0002DE9F043DFE802F002A43A74036842F6C2
:1055F00000461A6AC4F2010622F001021A621D6A0C
:105600001A465C6852F818CFB3428E68D1F800E0B1
:1056100025F0020545EA06050CD1CE68D1E90578EA
:1056200024F4407425F00C0526F004063C43354371
:1056300044EA08042CF0730747EA0E075C609F6198
:105640004F6809695F631D629F6947F008079F61A2
:105650009F6927F004079F61A6E000BF036842F638
:1056600000461A6AC4F2010622F480721A621D6AA8
:105670001A46D3F804C052F81CEFB3428E680C6887
:1056800025F4007545EA06250FD1CE68D1E90598C5
:10569000360240F2FF4725F44065BE4335432CF403
:1056A000405748EA090647EA061C2EF073072743CD
:1056B000C3F804C0DF614F680969DF631D62DF69F9
:1056C00047F00807DF61DF6927F00407DF616BE05F
:1056D000036842F600471A6AC4F2010722F48052B6
:1056E0001A621A46D3F820C05D6852F81C4FD1F8F0
:1056F00000E08E68BB4204D14F6925F4804545EA3D
:1057000087152CF4005747EA063724F4E64646EAA4
:105710000E265D60DE614E6809691E641F62DF69E6
:1057200047F40067DF61DF6927F48067DF613AE0F3
:10573000036842F600461A6AC4F2010622F010021B
:105740001A621D6A1A46D3F804C052F8184FB342C1
:105750008E68D1F800E025F0200545EA06150FD146
:10576000CE68D1E905986FF0400725F0C00507EA3B
:10577000061635432CF4406748EA090647EA860CCA
:1057800024F4E64444EA0E27C3F804C09F614F683E
:1057900009699F631D629F6947F400679F619F6964
:1057A00027F480679F610902136819431160BDE8FF
:1057B000F0430121002380F83D1080F83C3018466A
:1057C00070470000002804BF0120704710B590F812
:1057D0003D1031B9002180F83C10044600F056F825
:1057E0002046022180F83D10016840F2FF740B68EA
:1057F000C4F2000442F6004CA142C4F2010C15DCD4
:10580000B1F1804F1AD040F20042C4F2000291423E
:1058100014D0A14218DCB1F1804F1DD040F20042FB
:10582000C4F20002914217D01AE000BF614505D0D2
:1058300040F60002C4F200029142EAD1826823F0ED
:1058400070031343A142E6DD614505D040F6000236
:10585000C4F20002914203D1026923F4407313435E
:10586000846923F08002D0F804E0C36822436145D4
:105870000A60CB62C1F828E002D14269CCF830203E
:1058800001224A6180F83D20002010BD70470000D1
:1058900070470000006801F01F010122036A8A407E
:1058A00023EA02010162036A42F64441C4F20101A3
:1058B0001A43A1F144039842026207D0816801F0C3
:1058C000070106290BD10020704700BF0A6842F487
:1058D00000420A60816801F007010629F3D00168DF
:1058E00041F001010160002070470000024600689D
:1058F00001F01F0101238B40016A42F6004C9943DD
:105900000162C4F2010C016A604501620ED1DCF84B
:10591000201041F21113194208D1016A40F24443A8
:10592000194203D1416C21F400414164016A41F202
:105930001113194204D00121002082F83D10704754
:10594000016A40F244431942F5D1016821F0010196
:1059500001600121002082F83D107047006840F28C
:105960000041C4F20001884218BF70472DE9F0479A
:1059700040F26824C2F20004E08906F0BBF843F26A
:105980003336C4F25306314606F030F94FF20007C1
:10599000C4F27F57394605F063FF0025C4F2301585
:1059A000294606F023F961898146084606F0A2F8E7
:1059B000314606F01BF9394605F052FF294606F03C
:1059C00015F9A1898046084606F094F8314606F09C
:1059D0000DF9394605F044FF0021C4F2483105F0C5
:1059E0003FFF41F26F21C3F6033105F039FF00217B
:1059F000064605F022FF40F26C07C2F200070028BD
:105A000018BF002697E830044846214606F0BAF948
:105A10004CF6CD49C3F6CC69494606F0E7F8214675
:105A200005F080FE38604046294606F0ABF949464D
:105A300006F0DCF8294605F075FE786030465146E0
:105A400006F0A0F9494606F0D1F8514605F06AFE85
:105A5000B860BDE8F04700F045B8000070470000AE
:105A6000FEE7000080B540F6841040F25001C2F21B
:105A70000000C2F20001002202F06EF8002818BFF8
:105A8000FCF74AFC40F6841040F2B001C2F200007C
:105A9000C2F2000102F092FA002818BFFCF73CFCA9
:105AA00040F6841040F2D411C2F20000C2F20001AC
:105AB00001F0FEFD002818BFFCF72EFC40F6841014
:105AC000C2F2000002F090FA002808BF80BDBDE8D5
:105AD0008040FCF721BC0000FEE70000FEE700006C
