:020000040800F2
:10000000A817002015020008956800081968000864
:10001000916800086D290008BDA0000800000000DC
:1000200000000000000000000000000095760008BD
:10003000D92900080000000099680008717A0008BA
:100040002F0200082F0200082F0200082F020008CC
:100050002F0200082F0200082F0200082F020008BC
:100060002F0200082F0200082F020008C1290008F3
:100070002F020008CD2900082F0200082F020008D7
:100080002F0200082F0200082D0E00082F02000882
:10009000E19F00082F0200082F0200082F0200082D
:1000A0002F020008C57A00082F0200082F0200085E
:1000B0002F0200082F0200082F0200082F0200085C
:1000C0002F0200082F0200082F0200082F0200084C
:1000D0002F0200082F0200082F0200082F0200083C
:1000E0002F0200082F0200082F02000800F002F87B
:1000F00000F080F814A696E8000CB244B344DA4548
:1001000001D100F077F8BAE80F000FA696E83000AA
:10011000A5EB040504EB0607AAEB0704A7F101070A
:100120004FEA15154FEA3414A4F10104AC4201D38F
:1001300000F060F813F0010F18BFFB1A43F0010341
:1001400000F001F8DBE7184794DD0000B4DD0000A3
:100150000A444FF0000C10F8013B13F0070408BFED
:1001600010F8014B1D1108BF10F8015B641E05D08B
:1001700010F8016B641E01F8016BF9D113F0080F40
:100180001EBF10F8014BAD1C0C1B09D16D1E58BFD2
:1001900001F801CBFAD505E014F8016B01F8016B09
:1001A0006D1EF9D59142D6D370470000704700000C
:1001B0000023002400250026103A28BF78C1FBD870
:1001C000520728BF30C148BF0B60704766290DF049
:1001D0006084752900F08680002070471FB500F00C
:1001E00083FC0400002000210DF066F8E0601FBDD4
:1001F00010B510BD00F0A4FD1146FFF7EFFF0BF0A6
:1002000073FC00F0C2FD03B4FFF7F2FF03BC00F083
:1002100005FE00000948804709480047FEE7FEE761
:10022000FEE7FEE7FEE7FEE7FEE7FEE7FEE7FEE7A6
:1002300004480549054A064B70470000757A0008D6
:10024000ED000008A8110020A8170020A813002026
:10025000A81300200FB41CB50C0007AA009007D00B
:100260004142A14202D32044401E01E04FF0FF3042
:10027000074B7B4469460190069800F0F8FB00208C
:10028000002C01D0009908701CBC5DF814FB000024
:100290001F08000070B5044685690068C10601D5D5
:1002A000302600E02026C00707D070BDD4E9012128
:1002B00030469047206A401C20626D1EF6D570BD06
:1002C00070B5044685690078C00707D170BDD4E9D0
:1002D000012120209047206A401C20626D1EF6D527
:1002E00070BD00002DE9F041064600241068752914
:1002F000314616A510D0AFF30080002802DA404244
:1003000013A507E031688A0701D512A502E0490765
:1003100004D511A5012401E0AFF3008000210A22D9
:1003200006F1240709E0B0FBF2FCB0FBF2F302FB9C
:100330001C00303078541846491C0028F3D123465D
:100340002A463046BDE8F04100F024B90000000024
:100350002D0000002B000000200000002DE9F05FC0
:10036000894604464FF0000ADFF874B1FB44C0F838
:1003700020A02046E1688847002874D0252806D0B0
:10038000D4E901219047206A401C2062F1E7002651
:100390005F462046E16888472028054607DB312D67
:1003A00005D2781910F8200C08B10643F1E7B00720
:1003B00001D526F00406C4F81CA00027C4F818A034
:1003C0002A2D09D028460CF0A7FE38B304EB870885
:1003D000303DC8F8185019E059F8041B204604EBCA
:1003E00087029161E1688847012F054618D1E069CD
:1003F000002820DA26F020061DE0D8F8180000EBCF
:10040000800005EB40003038C8F818002046E1684D
:10041000884705460CF080FE0028EED1012F0AD057
:100420002E2D08D12046E16888477F1C0546022F03
:1004300046F02006C4DBA069002803DA404246F0FB
:100440000106A061F00701D026F010066C2D0BD03C
:10045000682D09D04C2D39D06A2D35D0742D35D06A
:100460007A2D33D016E038E0E1682F4620468847E1
:10047000B842054609D16C2F26D04FF48060E16860
:10048000064320468847054604E06C2F1AD04FF4F7
:10049000807006430DB3A5F14100192802D820351C
:1004A00046F400664A462946204626604E46FFF737
:1004B0008DFE80B101280BD0F61D26F0070000F15B
:1004C000080956E74020E4E78020D8E70020D6E777
:1004D00006F104094DE7284652E7206ABDE8F09F7F
:1004E00006D8000010B5431C02E010F8011B71B1E2
:1004F0008107FAD14FF0013202C88C1A8C4314EAFA
:10050000C211F9D0C01A0A0603D0C01E10BDC01A0D
:1005100010BD0A0401D0801E10BD0902FCD0401E8F
:1005200010BD10B5044610F0030F08BF11F0030F03
:1005300040F015804FF0013E121FC0F20E8051F8BE
:10054000043BA3EB0E0C2CEA030C1CEACE1C08BFE8
:1005500040F8043BF0D0A1F1040102F10402521E64
:1005600008DB11F8013B00F8013B002BF7D11146E5
:1005700000F098FA204610BD70477047704710B5DC
:1005800000F0B6FA006810BD10B5044600F0B0FAED
:10059000046010BD2DE9F0470D4699469246044689
:1005A00000F124080168880604D5E06921F01001F3
:1005B000216000E00120A84201DD471B00E0002788
:1005C000A1697A1902EB0900081AA0612078C00617
:1005D00002D42046FFF75EFE002608E0D4E90121A0
:1005E0001AF806009047206A401C761C20624E458F
:1005F000F4DB2078C0060AD52046FFF74BFE06E064
:10060000D4E9012130209047206A401C2062381E26
:10061000A7F10107F4DC07E0D4E9012118F805008F
:100620009047206A401C2062281EA5F10105F3DCDA
:100630002046FFF745FE2078000602D50220BDE8DF
:10064000F0870120FBE72DE9FF4F0C461E464FF0D7
:10065000FF378BB0D2E90001DDF860800A908A464E
:10066000C1F30A5505B93D46002108464FF0000088
:10067000BAF1000F00F4400005DA00EB80004FF4FF
:10068000400101EA50004FEA9059B9F1010F00DD35
:10069000B9460A9850EA4A000ED044F61050A5F226
:1006A000FF3545432F14B8F1000F1ED07542291EA7
:1006B0001EDDC9F100021CE0B8F1010F4FF000008F
:1006C00001D0302103E0F24305E02154401CB04248
:1006D000FBDB30460022002121540B99C1F8088031
:1006E000C1E900200FB0BDE8F08FBD1B6D1CDEE737
:1006F0004A4600DA694206A800F084FA06AB93E89D
:10070000070003AB83E8070050460A990CF01CF978
:100710008DE80700A0F500501F3800900398002DC9
:100720000ADD42F21F014A460844002303A9039050
:1007300068460CF085FB09E0A0F500504A461F38DA
:10074000002303A9039068460CF08FFB8DE8070097
:100750000004000C03D04FF0FF30410800E01046C9
:10076000B8F1000F03D00022009215461EE0751E5E
:1007700005D400F0C1F9303262556D1EF9D5B3468B
:100780000122084302D000227F1C04E02078302898
:1007900001D100227F1E002A099784D01DE0112D6F
:1007A00007DA00F0A9F9303262556D1C50EA0102F7
:1007B000F5D1084302D00098C8B10EE00021681EB0
:1007C00005E0235C625C63542254401E491C814254
:1007D000F7DBAB46A81B401E0990002004F80B0075
:1007E0000B98099AC0F80880C0E9002B7AE7112617
:1007F0004FF0000857E72DE9F04F88460446D21D18
:1008000022F0070191B0D1E90001CDE90A010CF015
:1008100063FC02460B98C00F01D02D2007E0206832
:10082000810701D52B2002E0202101EAC000032A24
:10083000099001D0072A05DB03464146204600F017
:10084000A1F90BE12078800601D5E06900E00620DF
:10085000B8F1650F814606D0B8F1660F18D0B8F12F
:10086000670F70D131E00020B9F1110F009001DB6A
:10087000112301E009F101030AAA01A90CA8FFF75D
:10088000E2FEDDE90C70002609F10105834647E030
:1008900001204B4600904FF000470AAA01A90CA87E
:1008A000FFF7D1FEDDE90DB00C995D46002610B9C9
:1008B00009F101000D18B9EB050003D4C0F1FF36B2
:1008C00009F10105A5EB09002BE0B9F1010F01DAEF
:1008D0004FF001090020B9F1110F0090484601DDE9
:1008E000112300E003460AAA01A90CA8FFF7ABFEFA
:1008F000DDE90C704D4600268346207800070AD4B7
:10090000AB4500DA5D4601A8012D04DD411911F85F
:10091000011C302907D04F4502DA17F1040F04DA21
:10092000012082460FE06D1EEEE7002F02DCED1B7A
:100930003E4403E0781CA84200DD7D1CB81B00F19A
:10094000010A4FF000472078000703D4AA4501DBD5
:100950004FF0FF3A0021B7F1004F0DF143088DF839
:10096000431024D002202B23002F01DA7F422D23B5
:100970000A21021EA0F1010000DC5FB197FBF1FC2F
:1009800097FBF1F201FB1C7C17460CF1300C08F8C8
:1009900001CDEEE7A8F1010003702188090501D51A
:1009A000452100E06521A0F1010800F8011C09982B
:1009B0000FA9A1EB0807FF1D00B10120411901EBB0
:1009C000EA70A1693844081A401EA0612078C00668
:1009D00002D42046FFF75EFC099828B1D4E9012132
:1009E0009047206A401C20622078C00622D520460D
:1009F000FFF750FC1EE0002E04DBB34502DD01A82A
:100A0000805D00E03020D4E901219047206A401C3D
:100A10002062761CAAF101005FEA000A0AD100F008
:100A200063F8C0680168405CD4E901219047206AFE
:100A3000401C2062281EA5F10105DCDC07E0D4E99A
:100A4000012118F8010B9047206A401C2062381ED3
:100A5000A7F10107F3DC2046FFF732FC032011B0B9
:100A600041E6000001694A1C02610878704700B540
:100A70008FB0CDE901310021059105497944CDE9D7
:100A8000031011466846FFF769FC0FB000BD000077
:100A9000E5FFFFFFD1E900239A4202D2531C0B600D
:100AA000107070474FF000020429C0F0128010F05F
:100AB000030C00F01B81CCF1040CBCF1020F18BF39
:100AC00000F8012BA8BF20F8022BA1EB0C0100F0CD
:100AD0000DB95FEAC17C24BF00F8012B00F8012B9F
:100AE00048BF00F8012B70470048704738020020CB
:100AF000004870471802002030B5B0F10A0271F1C9
:100B000000034FEA900E4EEA817EB0EB0E0061EBDF
:100B100091014FEA101E4EEA017E10EB0E0041EBF0
:100B200011114FEA102E4EEA016E10EB0E0041EB50
:100B300011214FEA104E4EEA014E10EB0E0041EB30
:100B40001141401841F100014FEAD00040EA4170E4
:100B50004FEAD1014FEA810444EA907410EB80051A
:100B600044EB01046D1944EB0404521BA3414FF004
:100B7000000348BF0A3200D530BD401C41F10001DE
:100B800030BD00002DE9F0411F46044603260168F0
:100B9000072A01F4006004DB08B116A505E016A5DC
:100BA00003E008B115A500E015A521F010002060B4
:100BB000A069C01EA0610FB1401EA0612046FFF7D2
:100BC00069FB4FB1D4E9012138469047206A401CA7
:100BD0002062C01C206206E0206AFAE7D4E9012105
:100BE00015F8010B9047761EF8D22046FFF768FBF8
:100BF000BDE8F0814E414E006E616E00494E4600E8
:100C0000696E66002DE9F047814616468AB0354880
:100C100078440DC88DE80D0032487844801C03AC40
:100C20000DC884E80D0041F69B300844372190FB45
:100C3000F1F290FBF1F5A5F1800501FB12041B3CDC
:100C400002D56442012000E00020DFF898A0804631
:100C50000027FA44AAF1BE0A0EE0E0070AD03246A5
:100C6000684607EB470101230AEB81010CF0FDF810
:100C70008DE8070064107F1C002CEED1194F7F44D3
:100C8000AE3F19E0E80715D007EB04100DF1180A84
:100C900090E80E008AE80E00C068F04201D1981971
:100CA00008903246012306A903A80CF0DEF803AB36
:100CB00083E807006D10641C002DE3D14FF00103A1
:100CC00032466946B8F1000F03A802D00CF0B8F81C
:100CD00001E00CF0CAF8C9E90001C9F808200AB01F
:100CE000BDE8F08730D000004FF0000200B5134699
:100CF00094469646203922BFA0E80C50A0E80C503C
:100D0000B1F12001BFF4F7AF090728BFA0E80C50EC
:100D100048BF0CC05DF804EB890028BF40F8042BE5
:100D200008BF704748BF20F8022B11F0804F18BF52
:100D300000F8012B7047000000487047180200209F
:100D40007546FFF7F9FFAE4605006946534620F0A9
:100D50000700854618B020B5FFF76AFABDE82040C5
:100D60004FF000064FF000074FF000084FF0000B67
:100D7000AC46ACE8C009ACE8C009ACE8C009ACE8D6
:100D8000C00921F007018D46704710B50446AFF346
:100D900000802046BDE81040FFF735BA4FF0013C17
:100DA00050F8042B51F8043B9A4221D1A2EB0C03DA
:100DB000934313EACC1317D150F8042B51F8043B9A
:100DC0009A4215D1A2EB0C03934313EACC130BD137
:100DD00050F8042B51F8043B9A4209D1A2EB0C03C2
:100DE000934313EACC13DBD04FF00000704700BFF1
:100DF000D01A01BAB1FA81F101F0180122FA01F01A
:100E0000CB40DBB2C0B2C01AC1F120012CFA01F311
:100E1000D11A914311EAC311E6D170470149182054
:100E2000ABBEFEE7260002007047000080B540F22E
:100E3000EC30C2F2000001F09DFF40F25850C2F2C7
:100E40000000BDE8804001F095BF0000B0B5044649
:100E500000688168C90701D10020B0BD816821F018
:100E60000101816002F078FF054600BF20688068BC
:100E7000C007F1D002F070FF401B0328F6D3A06A30
:100E800040F01000A062E06A40F00100E062012042
:100E9000B0BD00000146406A826A12F0500F03D0D4
:100EA000006A026B084610470168826A42F40072C9
:100EB0008262896801F46021B1F5602F01D1017B64
:100EC00011B101F013BF00BF816A21F4807181620A
:100ED000816AC90448BF01F009BF816A41F001017C
:100EE000816201F003BF0000406A816A41F0400165
:100EF0008162C16A41F00401C16201F035BF0000A6
:100F0000406A01F02FBF0000B0B582B00446002057
:100F1000019021688A68D2073FD1886840F00100BB
:100F2000886040F2C000C2F2000000684DF68361A4
:100F3000C4F21B31A0FB0101880C01900198A0B103
:100F4000019801380190019878B101980138019019
:100F5000019850B1019801380190019828B1019889
:100F60000138019001980028EAD102F0F5FE05460B
:100F700020688068C00713D102F0EEFE401B0328F2
:100F8000F6D3A06A40F01000A062E06A40F00100D1
:100F9000E062002084F82400012002B0B0BD00BF50
:100FA000002002B0B0BD00002DE9F04F89B040F242
:100FB0001C48C2F2000840F2040A91468B4608F130
:100FC00024030028C2F2000A07C300F0FD814FF697
:100FD0000841C0F60001064651F8080C44F24222CE
:100FE000C4F25522904240F0BD8151F8040C032216
:100FF000C0F20102904200F0EB800222C0F2010236
:10100000904247D0B0F1011F40F0AC818A68D1E92D
:10101000000780EA02014EF2E472C1F60E02794046
:101020000232914240F09E810CF076FB0025C4F222
:10103000C82529460CF026FA044638460CF06CFB0D
:1010400029460CF01FFA089020464FF07E51079475
:101050000CF005FA002840F0858100210798C4F2C1
:10106000F0110CF0E7F9002840F07C814CF6CD41FE
:101070000898C3F6CC510CF0F2F9002840F07281C8
:1010800000210898C4F220110CF0D4F9002800F0D7
:10109000658167E1D1E90007D1E90432D1E9025461
:1010A00080EA0201794069404EF2E4726140C1F683
:1010B0000E0259400132914240F0548105930CF0E8
:1010C0002BFB0021C4F2C8210CF0DCF90790384654
:1010D0000CF022FB0027C4F2C82739460CF0D2F9E5
:1010E000089028460CF018FB39460CF0CBF9069016
:1010F0002046079C0CF010FB39460CF0C3F907465C
:1011000005980CF009FB0021C4F220110CF0BAF98B
:10111000054620464FF07E510CF0A1F9002840F022
:10112000218100210798C4F2F0110CF083F9002806
:1011300040F018814CF6CD410898C3F6CC510CF024
:101140008EF9002840F00E8100210898C4F2201189
:101150000CF070F9002840F0058100210698C4F2D7
:10116000A0010CF07CF9002840F0FC8000210698DA
:10117000C4F20C210CF05EF9002840F0F3803846F0
:101180004FF07C510CF06BF9002840F0EB8000210F
:10119000C4F2401138460CF04DF9002840F0E280CE
:1011A0000021C4F2201128460CF059F9002840F023
:1011B000D9800021C4F2963128460CF03BF9002872
:1011C00040F0D0800698CAF82450CAE90707C5E065
:1011D000086AD1E902C40890D1E9000E0D690790B0
:1011E0005A46D1E905B3CF690899CDF820E04140CE
:1011F00081EA0E0181EA0C016140694081EA0B013C
:10120000E646A4462C465D46934659404EF2E472AB
:101210007940C1F60E0291420693059740F0A280F4
:101220000798CDE90145674674460CF075FA00252C
:10123000C4F2C82529460CF025F9079008980CF04F
:101240006BFA29460CF01EF9089020460CF064FA5F
:1012500029460CF017F9049038460CF05DFA29463F
:101260000CF010F9039001980CF056FA0027C4F224
:10127000201739460CF006F9054602980CF04CFA96
:1012800039460CF0FFF8DDE905211143012969D841
:10129000074607984FF07E510CF0E1F8002861D125
:1012A00000210798C4F2F0110CF0C4F8002859D1BD
:1012B0004CF6CD410898C3F6CC510CF0D0F800287C
:1012C00050D100210898C4F220110CF0B3F8002886
:1012D00048D100210498C4F2A0010CF0C0F8002805
:1012E00040D100210498C4F20C210CF0A3F8C8BB33
:1012F00003984FF07C510CF0B2F898BB0021039892
:10130000C4F240110CF096F860BB0021C4F2201129
:1013100028460CF0A4F828BB0021C4F296312846D8
:101320000CF088F8F0B90021C4F2163138460CF000
:1013300096F8B8B90021C4F2963138460CF07AF824
:1013400080B904980AF12001CAF81C000398A1C1D1
:1013500006988AF80F00059888F80000DDE9071064
:10136000C6E90410D6E904570021C4F2F01128465A
:101370000CF060F800281CBF0025C4F2F0152846C8
:101380004FF07E514FF07E540CF054F800210028AD
:10139000C4F22011384608BF254635610CF04AF8E2
:1013A0004CF6CD45C3F6CC5500281CBF0027C4F22F
:1013B0002017384629460CF03DF800284FF0000071
:1013C00008BF2F4677613083BBF1000F09D0584624
:1013D0003C2104F0DDFAD8E90A090068406AA8F85F
:1013E0001C00B9F1000F09D048463C2104F0D0FAA6
:1013F000D8F82C000068406AA8F81E0040F60044A7
:10140000C4F2010420464FF4807102F099FC8AF87E
:1014100000008AF8040002F09FFCC8F83000204663
:10142000102102F08DFC8AF806008AF8080002F00C
:1014300093FCC8F8340020464FF4007102F080FCA1
:101440008AF80A008AF80C0002F086FCC8F8380016
:1014500005F024FB0120012706F016F804F580654D
:10146000002628464FF480410022A8F80C6088F836
:101470000E6002F06BFC06F0E1FB20464FF40061C9
:1014800002F05EFC8AF80D008AF80E0002F064FC9F
:1014900098F80010C8F83C00481EB0FA80F04009E7
:1014A00006F0A6FC28464FF40051002202F04EFC44
:1014B00020464FF40041002202F048FCD8F82400F6
:1014C00068B14168C8F840108168C8F844100168E4
:1014D00088F80170C8F84810C068C8F84C0002F0DD
:1014E0003BFCC8F8500002F037FCC8F8540002F08A
:1014F00033FCC8F85800A8F8026002F02DFCC8F8C8
:101500005C00A8F8046002F027FCC8E91806C8F8D7
:101510006860002088F8066009B0BDE8F04F09F067
:10152000FBBD00002DE9F04F8DB002F015FC40F23C
:101530001C4BC2F2000BDBF824100546002959D0E1
:1015400002F00AFCDBF85010411A502952D3DBF8A4
:101550002440CBF850009BF801106068E1B30BF118
:10156000400A2E469AE8A004DBF84C8029460CF08D
:101570001BFA49F69A19C3F6996949460CF048F9DD
:10158000294635460BF0E0FECBF84000A06839460E
:101590000CF00AFA49460CF03BF939460BF0D4FE40
:1015A000CBF84400206851460CF0FEF949460CF097
:1015B0002FF951460BF0C8FECBF84800E0684146D1
:1015C0000CF0F2F949460CF023F941460BF0BCFE51
:1015D000CBF84C000EE000BFCBF84000A068CBF881
:1015E00044002068CBF84800E068CBF84C000120AC
:1015F0008BF8010040F6004AC4F2010A50464FF44D
:10160000006102F09DFB044602F0A6FB40F20409D3
:10161000C2F2000999F80D108C4205D1DBF83C109C
:10162000401A962808D218E0014689F80D40CBF8F8
:101630003C00401A962810D399F80E0084420CD032
:101640009BF8070089F80E40032806D1B4FA84F00D
:10165000D9F82810400906F05BFBDBF82460002E67
:1016600000F04785DBF82800002800F003810068BF
:10167000406ABBF81C1082B28A42ABF81C0000F032
:10168000F9809BF80720401A012A11D9022A65D057
:10169000032A40F0EF80DBF8701000B20844032802
:1016A000CBF8700068DD01216FF0030269E000BF34
:1016B00099F812104CF6CD47C3F6CC57079502297E
:1016C00004BF4DF20A77C3F62347002908BF4FF045
:1016D0007E57DBF8701000B2D6F810900D18042D6C
:1016E00010DBA5F10408012000EB980010F00304C2
:1016F00040D0384649460BF027FE012C5ED14546C6
:10170000444669E015F1040F4846CBF8705000F3E9
:101710008180484639460CF047F915F1080F05F16C
:10172000040475D839460CF03FF914F1080F05F19F
:1017300008046DD839460CF037F914F1080F00F29F
:10174000A78139460CF030F905F1100405F10C01C0
:1017500011F1070F2546DDD35AE000BFDBF870100A
:1017600000B208440328CBF8700011DD01216FF0AE
:10177000030213E048462FE010F1040F7ADCFF214A
:1017800004221044CBF8700048B206F0A1F971E0D1
:1017900010F1040F6EDC4FF0FF31042210449BF86F
:1017A0001220CBF87000881848BF06200628C8BF52
:1017B00000208BF8120008F02FFD5BE00146384650
:1017C0000BF0C2FD022C01D1083D04E00146384671
:1017D0000BF0BAFD0C3D2C46B8F10C0F18D300BF2E
:1017E000014638460BF0B0FD014638460BF0ACFD23
:1017F000014638460BF0A8FD014638460BF0A4FD23
:10180000A5F11004A5F1140111F1080F2546E7D345
:10181000CBF870400021C4F2F01104460BF00AFE30
:1018200000281CBF0024C4F2F01420464FF07E5163
:101830004FF07E550BF0FEFD002808BF2C462046D9
:10184000494634610BF0E8FD40F20409079DC2F2FD
:10185000000978B902F080FA00F5FA60CBF8780058
:10186000012089F8150002F077FACBF85800002023
:101870008BF80800DBF82C00002800F0AC81006831
:10188000406ABBF81E1082B28A42ABF81E0000F01C
:10189000A2819BF80720401A012A0FD9022A40F0A2
:1018A0009A81DBF8741000B201440329CBF874105C
:1018B00062DD4FF07E506FF0030265E04CF6CD44E0
:1018C0005B4699F81320C3F6CC54DBF824B0596F6B
:1018D0002646022A04BF4DF20A76C3F6234600B21A
:1018E000002A08BF4FF07E56DBF8147001EB0008A9
:1018F000B8F1040F12DBA8F10404012000EB9400FE
:101900000795994610F0030558D0304639460BF03C
:101910001BFD012D54D1A046254662E0994618F1E1
:10192000040F3846C3F8748000F37D80384607956D
:1019300031460CF039F818F1080F08F104056FD89A
:1019400031460CF031F815F1080F08F1080567D899
:1019500031460CF029F815F1080F00F29D80314650
:101960000CF022F808F1100508F10C0111F1070F35
:10197000A846DDD354E000BF11F1040F00F32B8122
:101980000020CBF6807004229BF812301144062B05
:10199000CBF8741000F21D81DFE813F00800EA00B4
:1019A000A400CA0082000C01140100BF9BF81300C0
:1019B000B0FA80F040098BF813000AE1384610E0D5
:1019C000014630460BF0C0FC022D03D1A8F10808F7
:1019D00006E000BF014630460BF0B6FCA8F10C084B
:1019E00045460C2C4CF6CD44C3F6CC5418D300BF5E
:1019F000014630460BF0A8FC014630460BF0A4FC33
:101A0000014630460BF0A0FC014630460BF09CFC32
:101A1000A8F11005A8F1140111F1080FA846E7D3A9
:101A2000C9F87450079D0021C4F2201106460BF03E
:101A300001FD00281CBF0026C4F2201630462146B6
:101A40000BF0F8FC002808BF264630463946CBF894
:101A500014600BF0E1FCCB4640F204090028C2F20E
:101A6000000940F0B88002F077F940F2984100F5A3
:101A7000FA60C2F200010860012089F8150002F046
:101A80006BF9CBF8580000208BF80900A3E000BFE9
:101A900005F10C04BCE600BF08F10C05C0E700BF6F
:101AA0000021D9F83840C4F2A0010BF0B1FE214664
:101AB0000BF04AFC0021C4F2963104460BF0BAFC4C
:101AC0000026C4F2163600281CBF0024C4F2963447
:101AD000204631460BF0AEFC002808BF3446C9F85A
:101AE000384076E04CF6CD41D9F83040C3F6CC51C1
:101AF0000BF08EFE21460BF027FC0021C4F24011B2
:101B000004460BF097FC00281CBF0024C4F24014CC
:101B100020464FF07C512E464FF07C550BF08AFC4E
:101B2000002808BF2C463546C9F8304051E000BFB8
:101B30000024C4F22014D9F8346021460BF068FE6A
:101B400031460BF001FC0021C4F2963106460BF041
:101B500071FC00281CBF0026C4F296363046214690
:101B60000BF068FC002808BF2646C9F8346030E056
:101B7000D9F82C404FF07C510BF04AFE21460BF077
:101B8000E3FB0021C4F20C2104460BF053FC0026B9
:101B9000C4F2A00600281CBF0024C4F20C24204676
:101BA00031460BF047FC002808BF3446C9F82C40EA
:101BB0000FE000BF99F8140080F0010089F81400CC
:101BC00007E000BF9BF81400B0FA80F040098BF8E2
:101BD000140008F021FBDBF82400002800F08982C3
:101BE00002F0BAF8044650464FF4807102F0A8F8AB
:101BF00099F80010884205D1DBF83010611A2329CA
:101C000008D20DE0214689F80000CBF83040611A77
:101C1000232905D399F80410884218BF89F80400D5
:101C200002F09AF804465046102102F089F899F81B
:101C30000610884206D1DBF83410611A232909D234
:101C400010E000BF214689F80600CBF83440611A45
:101C5000232907D399F80810884203D0002889F86F
:101C600008007BD0012602F077F8044650464FF476
:101C7000007102F065F899F80A10884206D1DBF885
:101C80003810611A232909D20EE000BF214689F8D5
:101C90000A00CBF83840611A232905D399F80C10B3
:101CA000884218BF89F80C0002F056F899F8042011
:101CB0009BF8151082B1002971D09BF816000028FE
:101CC0006AD19BF8070001284AD9032864D1002073
:101CD00006F006F860E000BF71B19BF8161000290D
:101CE0005DD19BF80710012959D840F29841C2F202
:101CF000000149680DE000BF0121ABF8151040F26A
:101D000098419BF80720C2F200014860012A014671
:101D100045D8401AB0F57A7F41D301208BF81600E0
:101D20009BF80B0009F11C078BF813008DCF09F10C
:101D30002C0C8CE80D0099F80F009BF8001089F826
:101D4000140000208BF812000220C9F838708BF8BC
:101D500014108BF8070008F05FFA20E0002682E7F5
:101D600099F81200411EB1FA81F149094900002891
:101D700008BF012189F8121001F0EEFF00F5FA60AA
:101D8000CBF87800012089F8150001F0E5FFCBF8C9
:101D9000580000208BF808000020ABF8150001F077
:101DA000DBFF99F80C209BF817107AB1002900F09E
:101DB00021819BF81800002840F019819BF807004A
:101DC000032845D1022005F08BFF10E151B19BF8AB
:101DD0001810002940F00E8140F29841C2F2000133
:101DE000896808E00121ABF8171040F29841C2F26F
:101DF000000188600146401AB0F57A7FC0F0FA8091
:101E00009BF80720DBF824000121032A8BF8181027
:101E100046D1002800F0EE8005F0ECFED9F83C0039
:101E2000DBF8241000220861D9F8400048619BF8D3
:101E300019000876002818BF0120487650464FF454
:101E4000004101F083FF9BF81A0009F065F9D1E029
:101E5000012873D9022840F0CA8009F12C030FCB66
:101E6000C9F82420C9E9070199F81400C9F82830F5
:101E700089F80F009BF814008BF800000138B0FAC5
:101E800080F0400905F0B4FFDBF8240041690069E7
:101E90000AF016F99BF8130009F03EF9A7E000BF1D
:101EA000002800F0A7809BF80B1000228BF81A1076
:101EB0000169C4F2C002C9F83C1041690024C9F8A4
:101EC0004010017E8BF802408BF819100021C4F2FB
:101ED0004011C0E9041240F20111018301F03CFFFE
:101EE000CBF85C0040F29840C2F20000C46050465B
:101EF0004FF4004101228BF8034001F027FF9BF8CB
:101F000000000138B0FA80F0400905F071FF05F0DB
:101F10001DFE03208BF8070050464FF4006101F0CE
:101F20000FFFB0FA80F0D9F82810400905F0F0FE54
:101F30000120CBE91C4405F085FF5BE09BF8021013
:101F4000DBF8240061B140F298420021C2F20002A5
:101F5000ABF802100028D16018BF01830CE000BF6D
:101F6000417E03291AD140F298420021C2F20002B8
:101F7000ABF80210D160018300240AF580604FF4B1
:101F8000804100228BF80440ABF80C408BF80E40E7
:101F900001F0DCFE8BF80A4029E000BF027E82F0EF
:101FA00001010176B2B900248BF8024001F0D4FEA1
:101FB000CBF85C00DBF8240040F2984241690069EC
:101FC000C2F200028BF80340D4600AF079F8DBF823
:101FD0002400017E21B1417E21B9012101E000BF31
:101FE0000021417600208BF80A0008F069F80020F3
:101FF000ABF817004EBB9BF80700012806D9032851
:1020000023D1012005F06CFE1FE000BF99F81300FA
:10201000411EB1FA81F149094900002808BF012198
:1020200089F8131001F098FE40F2984100F5FA602B
:10203000C2F200010860012089F8150001F08CFE51
:10204000CBF8580000208BF80900DBF824000028AA
:102050004FD09BF8041079B9017E69B101F07CFE84
:10206000CBF85C0040F29842DBF824000021C2F279
:1020700000028BF80310D160427E017E032A8BF8A8
:10208000041021D19BF80220F2B901208BF8020044
:1020900040F201100024ABF80C008BF80E408BF8D6
:1020A0001B4001F059FE40F29841C2F20001086164
:1020B0000AF580604FF48041012201F047FEDBF811
:1020C00024008BF80A40017E59B1407E032808D0D5
:1020D00001F042FEDBF85C100446401AF92800F2D9
:1020E0004F8340F298410020C2F200018BF80300B8
:1020F000C8609BF80C00012839D101F02DFE40F298
:102100009841C2F200019BF80D200B69012AA0EB57
:1021100003021FD1962A2AD308619BF80E000024DF
:1021200001308BF80E000AF580604FF480410022E8
:102130008BF80D4001F00AFE9BF81B109BF80E0077
:102140000322002918BF0122904228BF8BF80C40BF
:102150000DE000BF962A0AD3086101208BF80D001C
:102160000AF580604FF48041012201F0EFFDDBF8B9
:10217000240000285CD001F0EFFDDBF824109BF870
:1021800005300A7E002A114618BF012143B93AB131
:102190000022CBE91802CBF868208BF8062045E036
:1021A000002B18BF002A1BD1D3B3CABBDBF86020B9
:1021B000DBF86830821A1A4444F6D353C1F2620342
:1021C000A2FB0337DBF86430BE0903EB97134FF42F
:1021D0007A7706FB1722CBE91803CBF868201BE0BF
:1021E000DBF86020DBF86830821A1A44B2F57A7F97
:1021F000CBF8600018D344F6D350C1F26200A2FBC2
:1022000000039809DBF864704FF47A7600FB16201F
:1022100007EB9312CBE9192000208BF8060005E0AC
:10222000CBF8600002E000BFCBF868208BF8051007
:1022300005F0FCFC40071AD099F80F00B8B140F245
:102240000110ABF80C0000208BF80E0001208BF879
:102250001B0001F081FD40F29841C2F200010861CB
:102260000AF580604FF48041012201F06FFD9BF878
:102270000700032806D105F02DFDB0FA80F04209D1
:102280000BE000BFDBF8240030B1017E21B1407EBD
:10229000C21E18BF012200E000220AF580604FF440
:1022A000005101F053FD9BF80700012832D801F0DE
:1022B00053FDDBF878100A1A40F29841C2F200018F
:1022C0000968002AA1EB0001D8BF002914DDDBF862
:1022D0005830C31ADC2B1BD399F81530CBF85800B3
:1022E00083F00100012A89F81500A4BF00208BF8B3
:1022F0000800012909DA0BE099F8150040B901201E
:1023000089F8150000208BF8080000208BF80900E0
:102310009BF80700032879D001281FD0002840F03F
:10232000DA80DBF85400281A642875D3CBF85450AF
:1023300008F0F0F901208BF80A009BF8080000284B
:102340006ED101203721012408F09AFA8BF8084059
:102350009BF80900002866D06CE000BF01F0FCFC8F
:10236000DBF86C10411AFA2980F0B8809BF808005D
:10237000002800F0F8819BF8090030B90020D7212F
:1023800008F07EFA01208BF809009BF80A0000286B
:1023900008BF07F0BDFE9BF80600002840F09B80B8
:1023A000DBF864004BF2C531C9F2A211A0FB0112A7
:1023B00048F68901C8F68801A0FB011748F6890391
:1023C0007909C0F68803A1FB0336D30A720812010B
:1023D000A2EB5602A1EB82020901A1EB5711A0EB7F
:1023E0008100CDE900204DF6AE6208ACC0F60002D7
:1023F000204614211425FDF72DFF40F298419BF84B
:102400000000C2F20001323153E000BF00200DB0E5
:10241000BDE8F04F05F016BD9BF80800002890D0ED
:102420009BF8090030B90020D72108F029FA0120D3
:102430008BF809009BF80A00002804BF01208BF8E4
:102440000A009BF80600002845D1DBF864004BF237
:10245000C531C9F2A211A0FB011248F68901C8F6E4
:102460008801A0FB011748F689037909C0F68803A3
:10247000A1FB0336D30A72081201A2EB5602A1EBAC
:1024800082020901A1EB5711A0EB8100CDE90020E8
:102490004DF6AE6208ACC0F60002204614211425A9
:1024A000FDF7D8FE40F298419BF80000C2F200010F
:1024B0001E31CDE90041431E4FF0DA004FF0B40168
:1024C0004FF0020218BF4FF6FF73029508F01EFD91
:1024D00001208BF806000DB0BDE8F08F5946D1E918
:1024E00010650027BBF820B0C4F2F017C86630466C
:1024F00039460BF114040AF09DFF00281CBF00268A
:10250000C4F2F016304600210AF094FF3946002844
:1025100018BF30460AF0B6FF0026C4F21036314626
:102520000BF076F90BF0A4F80027C0F1AC00C4F270
:1025300020170590284639460AF07CFF00281CBF6A
:102540000025C4F22015284600210AF073FF394601
:10255000002818BF28460AF095FF31460BF058F9BD
:102560000BF086F8C0F1AC062046079409F076F926
:10257000BBF5937F03D80BF1150009F06FF940F21A
:102580001C4BC2F2000B9BF800009BF80F1040F2AE
:10259000FF78012808BF4FF01F0801294FF6E070AF
:1025A000069040F0A980B9F91650142DC0F2A4800D
:1025B0000798A84240F3A08004960798B9F91840FC
:1025C000A0EB050905984FF0FF3B061BC4BF4FF079
:1025D000010B261A06EB090A0CE000BF5046B6EBC9
:1025E0004A0FDCBF30440135B9EB4A0FA4BF5C444D
:1025F00048448246A809042898BFEF2C06D90798BA
:102600008542EBD105988442E8D10FE0AFB2A1B288
:102610003846424604F062F9EE2CF0D8601C81B2D4
:102620003846424604F05AF9E9E700BF40F21C4040
:1026300040F20401C2F20000C2F200010078B1F9D8
:102640001670B1F91AB0012805D1AF20732100220C
:1026500004F024F9069007984FF0FF39B0EB070813
:10266000C8BF4FF00109B8F1000F48BFC8F100081A
:1026700004984FF0FF3AB0EB0B04C4BF4FF0010ACF
:10268000ABEB000404EB08050CE000BF2846B4EBFC
:10269000450FDCBF20444F44B8EB450FA4BFD344E3
:1026A00040440546B809042898BFBBF1EF0F07D98D
:1026B00007988742EAD104988345E7D112E000BF2A
:1026C000BEB2069A1FFA8BF1304604F007F9BBF14F
:1026D000EE0FEDD80BF10100069A81B2304604F0FE
:1026E000FDF8E5E740F21C4B40F20409049EC2F2FB
:1026F000000BC2F2000916E00798424687B205981F
:1027000081B2384604F0EAF89BF80000012805D1B0
:10271000AF207321002204F0C1F80690069AB1B2EE
:10272000384604F0DBF80798BBF82010A9F816002B
:102730000598A9F81A60A9F8180001208BF80F0075
:10274000481C81B2B1F5947FABF8200022BF002075
:10275000ABF820008BF80F0007F0DAFC9BF80800BC
:1027600000287FF408AE01203721012408F088F802
:102770008BF808409BF8090000283FF4FFAD04E601
:10278000DBF824800795D8E90167304639460BF01D
:102790003FF8D9F81C104D46814630460AF051FEEC
:1027A000A0B9296A38460AF04CFE98B9696A4846C9
:1027B0002E460AF046FE88B940F298410020C2F247
:1027C00000018BF80300C860B14652E00120A94621
:1027D00006E000BF0220A94602E000BF0320B14688
:1027E0009BF80310079D814246D140F29846C2F201
:1027F0000006F068201A3228FFF47BAC01208BF829
:1028000002004FF44074002540F20110A8F818406F
:10281000ABF80350F560ABF80C008BF80E508BF85A
:102820001B5001F099FA30610AF580604FF4804145
:10283000012201F08BFA9BF80700032817D105F05D
:10284000D9F9D9F83C00DBF8241000220861D9F846
:1028500040000C83486150464FF4004101F076FA85
:102860009BF81A0008F058FCDBF8240004838BF86E
:102870000A50079DFFF73DBC8BF8030040F29840DB
:10288000C2F20000C460FFF734BC000070B540F233
:10289000CC30C2F2000000F12004204600F008F91C
:1028A00040F25855C2F20005284600F001F940F206
:1028B0006436C2F2000606F160012046042200F0F0
:1028C00097FD642000F0F8FF40F25800C2F20000CB
:1028D00041F2BC02043005F13001C2F20002FEF701
:1028E00063FB42F62C45C4F201052C6820460AF031
:1028F00013FF4CF6CD41C3F64C510AF089FF0AF0A4
:10290000D3FE7081211A80B241F27C04B181A860AB
:1029100088B2C2F20004E86020460021002503F0DE
:10292000E9FA2046002102F089FD2046042103F047
:10293000E1FA2046042102F081FD206841F21112E3
:10294000016A114208D1016A40F24442114203D1A6
:10295000416C21F40041416441F27C00C2F200006C
:102960007571BDE8704002F021BE0000FEE7000076
:10297000002070470020704710B540F66C24C2F26A
:10298000000440F62C21C2F200012046002206F08D
:10299000C1F840F6EC11C2F20001204606F0B4F88E
:1029A000002010BD10B540F66C24C2F200040146B0
:1029B000204606F0A9F8204606F088F8002010BD51
:1029C00040F63050C2F2000000F01EBE40F67450D7
:1029D000C2F2000000F018BE70470000EFF3108054
:1029E00072B600BFFEE7000070B542F20C06044666
:1029F000C4F2020601F0B0F93168C9071CD1306891
:102A0000800644BF202030603068C00607D430699B
:102A1000C00704D1306840075CBF002070BD30683B
:102A2000C00641F28010C2F2000021D400213268B9
:102A3000520725D42AE000BFC4B10546601C10D15E
:102A40003068C007DBD03068C0071CBF30685FEA61
:102A5000C070D4D03068C007F2D1D0E73068C0076A
:102A6000CDD001F079F9401BA042F7D9032070BD09
:102A7000C16941F00201C16110213268520705D5D8
:102A8000C26941F0040142F00102C2613269D20719
:102A900002D10120316070BDC26942F00402C261FE
:102AA000306920F0010030610120316070BD00000C
:102AB00070B582B004460020019094F824000128EB
:102AC00002D1022002B070BD012084F8240020460B
:102AD000FEF7BCF920B1002184F8241002B070BDCB
:102AE0000646A06A41F2021188430230A06240F219
:102AF000C000C2F200000568022001F093FEB5FBA1
:102B0000F0F0400001900198A8B100BF0198013891
:102B10000190019878B1019801380190019850B165
:102B2000019801380190019828B10198013801906D
:102B300001980028EAD12046FEF7E6F9206881686E
:102B400041F00801816001F007F9054620688168BD
:102B5000090705D501F000F9401B0A28F6D910E055
:102B6000816841F00401816001F0F6F8054600BF7C
:102B700020688068400709D501F0EEF8401B0B285B
:102B8000F6D3012010216FF0120203E001216FF053
:102B900003023046A36A1A401143A162002184F85F
:102BA000241002B070BD00007047000070B581B005
:102BB0000022009290F82420012A03D10221084625
:102BC00001B070BD4A680123062A02EB820E80F82C
:102BD000243007D8D0F800C06FF004030CF134069D
:102BE0000CE000BFD0F800C00C2A87BF0CF12C0607
:102BF0006FF040030CF130066FF022030EEB03027E
:102C00001F23346803FA02F50B6824EA050503FA6A
:102C100002F22A433260092B03EB43021AD9DCF893
:102C20000C601E3A072589689540AE43914023F019
:102C300001023143102ACCF80C1015D142F20041A8
:102C4000C4F201018C4517D0816A41F020018162F4
:102C500001210AE0DCF81030072689689640B3436A
:102C600091401943CCF810100021002280F8242054
:102C7000084601B070BD00BF89680902F4D4DCF8D1
:102C80000810102B41F40001CCF80810ECD140F2F0
:102C9000C001C2F2000109684DF68362C4F21B3222
:102CA000A1FB0212910C01EB8101490000910099F6
:102CB0000029D9D000990139009100990029D3D079
:102CC00000990139009100990029CDD0009901396E
:102CD000009100990029C7D000990139009100990D
:102CE00000294FF00001E5D1BFE70000006842F283
:102CF0000041C4F20101884218BF704780B540F21C
:102D00006430C2F2000000F1240CB0F860109CE8BE
:102D10000C1002EB010EB0F86220B0F866101A44F5
:102D2000C3896144C162591C8BB21E2BC0E909E200
:102D3000C18113D348F6890CC8F6880CAEFB0C3160
:102D4000A2FB0C2309090182190941820021C0E973
:102D50000911C162C181012101704161BDE880405A
:102D60007047000070470000704700000068C06CAA
:102D70007047000010B5044600684168890644BFEA
:102D800001685FEA81710BD44168090644BF01689C
:102D90005FEA41712AD4416849065BD410BD00BF87
:102DA000A16AC90603D4A16A41F40071A1628168D5
:102DB00001F46021B1F5602F10D1217B71B9416818
:102DC00021F020014160A06A20F48070A062A06A16
:102DD000C00403D4A06A40F00100A0622046FFF7BF
:102DE00085FF20686FF012010160CDE7A16AC90676
:102DF00003D4A16A41F40051A162816801F4E04169
:102E0000B1F5E04F10D1416821F080014160A06A26
:102E100020F48050A062A06AC00511D4A06A40F0DE
:102E20000100A0620CE000BF4168490508D4816838
:102E300001F46021B1F5602F02D1217B0029E2D09D
:102E40002046FFF7B1FE20686FF00C010160416879
:102E50004906A3D50068C00708BF10BDA06A40F4AA
:102E60008030A062204600F0A9F820686FF00101D0
:102E7000016010BD002804BF01207047B0B50446B2
:102E8000806A28B120688168C9070CD032E000BF91
:102E90000020E06284F82400204600F091F82068C9
:102EA0008168C90726D1A16AC9063DD4A16A41F249
:102EB000021291430231A162E169D4E9013241EA8F
:102EC000030C531EB3FA83F35D091346B2F5807FFA
:102ED00018BF2B02217D257B01294CEA45012ED10B
:102EE00045B3A56A45F02005A562E56A45F00105F0
:102EF000E56224E0816821F00101816000F02CFF8F
:102F0000054600BF20688168C907CCD000F024FFC7
:102F1000401B0328F6D3A06A40F01000A062E06ACC
:102F200040F00100E062A06AA06A40F01000A062D8
:102F30000120B0BDA56903EB4533A3F5C053456837
:102F4000B2F5807F25F4694543EA05034360836851
:102F50004FF2FD75CFF6E17503EA050343EA01037D
:102F6000836001D0012A07D122690023CFF6F073D4
:102F700003EB025201E000BF0022C36A23F4700396
:102F80001A43C262806840F6FE62CFF61F7210409C
:102F9000884207D10020E062A16A012262F30101A8
:102FA000A162B0BDA06A40F0100020F00200A06253
:102FB000E06A40F00100E0620120B0BD704700000F
:102FC000F0B585B0016842F60002C4F201029142F8
:102FD0004FF00002CDE90322CDE9012246D042F2B2
:102FE0000042C4F20102914269D1074641F2180041
:102FF000C4F20200016841F400710160016801F44B
:10300000007100910099016841F0040101600068BD
:1030100001A900F00400009000981B2001900320FB
:10302000029040F60000C4F2010000F07FFD40F67F
:1030300030540820C2F20004C4F202000021C4E9A6
:10304000000104F1080080224FF480734FF4806582
:1030500020266EC02046E16100F0A4FB002818BFC6
:10306000FFF7BCFC3C62676221E000BF41F2180040
:10307000C4F20200016841F480610160016801F45A
:10308000806100910099016841F0040101600068CD
:1030900001A900F004000090009844200190032052
:1030A000029040F60000C4F2010000F03FFD122043
:1030B0000021002200F0D0FE122000F0BBFE05B07F
:1030C000F0BD00002DE9F04182B000270D46044616
:1030D000019700F041FE21688A68D20544D4064673
:1030E0004868C00503D4C86A10F4700F46D040F297
:1030F000C000C2F20000076842F292480220C1F20A
:10310000492801F08FFB216844F624130A69B7FBB4
:10311000F0F0C2F292431A4206D1CA6844F6241370
:10312000C0F292031A4249D00A6912EA080F07D185
:10313000CA6842F29243C0F249031A4200F0848006
:103140000A6949F24923C0F224031A424FF0FC02F3
:1031500042D1CF681F4208BF5422019B02FB00F7F7
:10316000BB423ED379E000BFA06A40F02000A062DD
:1031700084F82470012002B0BDE8F081086880075F
:103180006BD4002D55D0681C12D10868800764D418
:10319000086880075CBF08685FEA80705DD40868D3
:1031A0008007F2D559E000BF21680868800754D431
:1031B00000F0D2FD801BA842F6D93AE00A6912EA73
:1031C000080F4FF0290207D1CB6842F29247C0F2B4
:1031D00049073B4208BF1422019B02FB00F7BB4298
:1031E0003BD235B3681C1FD1019801300190019882
:1031F000B84232D20198013001900198B8422CD2E5
:103200000198013001900198B84226D2019801300E
:1032100001900198B842E7D31FE000BF0198013048
:1032200001900198B84217D200F096FD801BA84289
:10323000F4D9A06A40F00400A062002084F82400C1
:10324000032002B0BDE8F0815422019B02FB00F78D
:10325000BB42C6D301E000BF21686FF012000860D6
:10326000A06A40F40070A062886800F46020B0F5A5
:10327000602F01D1207B18B1002002B0BDE8F081A1
:10328000A06A20F48070A062A06AC004F4D4A06A8E
:1032900040F00100A062002002B0BDE8F081000013
:1032A000B0B582B0044690F82400012802D1022073
:1032B00002B0B0BD012084F82400002001902068F5
:1032C0008168C90742D1816841F00101816040F203
:1032D000C000C2F2000000684DF68361C4F21B31E9
:1032E000A0FB0101880C01900198A0B10198013860
:1032F0000190019878B1019801380190019850B17E
:10330000019801380190019828B101980138019085
:1033100001980028EAD100F01FFD05462068816869
:10332000C90713D100F018FD401B0228F6D9A06A86
:1033300040F01000A062E06A40F00100E06200206E
:1033400084F82400012002B0B0BD00BFA26A42F29E
:10335000044140F20133C4F201019A4302F5807343
:1033600001F57F729042A3622AD0A36A23F48013EE
:10337000A36243685B0504D5A36A012565F30D3399
:10338000A362A56A0023ED044FF0000544BFE56A7F
:1033900025F00605E56284F824306FF0020303602F
:1033A000836803F46023B3F5602F19D1904213D0E2
:1033B000816841F4A0018160002002B0B0BD00BF6F
:1033C0000B6813F4702FD0D0A36A43F48013A36268
:1033D0000B685B05D0D4D4E7096811F4702FE7D0EF
:1033E000816841F480118160002002B0B0BD00000E
:1033F000F0B581B00446036842F60000C4F2010053
:10340000834205D042F20040C4F2010083420BD156
:1034100042F20440C4F20100006810F4702F03D09F
:10342000012001B0F0BD00BF94F82400012803D1B1
:10343000022001B0F0BD00BF012084F8240000206C
:10344000009098680E461546C00743D198684DF61F
:10345000836140F00100986040F2C000C2F20000B9
:103460000068C4F21B31A0FB0101880C0090009899
:10347000A8B100BF009801380090009878B100987A
:1034800001380090009850B10098013800900098E1
:1034900028B100980138009000980028EAD100F087
:1034A0005BFC074623689868C00713D100F054FC02
:1034B000C01B0228F6D9A06A40F01000A062E06AA2
:1034C00040F00100E062002084F82400012001B0F7
:1034D000F0BD00BF42F20440A16AC4F2010040F610
:1034E0000172914300F57F7201F580719342A162F0
:1034F00046D0A06A20F48010A0625868400504D528
:10350000A06A012161F30D30A062A16A0020C90404
:103510004FF0000144BFE16A21F00601E16284F846
:103520002400206A40F69561C0F6000140F6017261
:1035300040F6E96700F1280CC0F60002C0F600076B
:103540008CE886006FF0020119609968324641F4F8
:103550008071996003F14C012B4600F05DF9206801
:10356000816801F460228168B2F5602F0CBF41F4DC
:10357000A00141F480118160002001B0F0BD00BFC6
:10358000016811F4702FB4D0A16A41F48011A162D6
:1035900000684005B4D4B8E7B0B5044690F82400FC
:1035A000012804BF0220B0BD0121206884F8241046
:1035B0008168C90708D1214651F8280F41F201124C
:1035C00020EA0202002018E0816821F001018160F8
:1035D00000F0C2FB054600BF20688068C007EAD043
:1035E00000F0BAFB401B0328F6D3A06A214640F046
:1035F0001000A06251F82C2F012042F001020A6055
:10360000002184F82410B0BD10B5D0E90FCE0168B8
:10361000DCF800300A6823FA0EF35C072AD512F0B2
:10362000040427D00A68920603D40A6822F0040230
:103630000A602F22C4F20202914240F20402C4F254
:10364000020259DD3023C4F20203994270D04423B0
:10365000C4F20203994271D05823C4F20203994282
:1036600078D14FF480231360C16A002940F097801D
:103670006EE000BF9C0727D512F0020424D00A6830
:10368000920606D40A6822F00A020A60012280F833
:1036900021202F22C4F20202914240F20402C4F21D
:1036A000020239DD3023C4F2020399425ED0442382
:1036B000C4F2020399425DD05823C4F20203994236
:1036C0005ED14FF4003363E01B0741D512F00802CE
:1036D00008BF10BD0A6822F00E020A60012101FA3B
:1036E0000EF2CCF804208163016B4FF48072002944
:1036F000028454D12CE000BF0823C4F20203994293
:1037000022D01C23C4F20203994223D14023136028
:10371000C16A002943D11BE00823C4F20203994285
:103720002CD01C23C4F20203994229D120232FE07C
:103730004FF480631360C16A89BB09E04FF4804392
:103740001360C16A59BB03E004231360C16A31BB33
:1037500010BD00BF02F168044FF08063A14208BFB2
:103760004FF480031360C16AC9B9F1E74FF40073E5
:103770000EE000BF4FF400530AE000BF022307E051
:1037800002F168044FF00073A14208BF4FF4001328
:103790001360816A0022002980F82020D8D0BDE87B
:1037A00010400847002804BF012070472DE9F04170
:1037B00001684FF6F872CBF6FD724CF6CD430A4421
:1037C000CCF6CC43A2FB03236FF0030202EA930280
:1037D0000023C4F2020300F1040E00F11007C0E957
:1037E0000F329EE80051F0CF0A6843F6F0739A4317
:1037F00042EA080242EA0C0242EA0E0222432A434B
:1038000032433A430A6000214FF48072816302849C
:10381000BDE8F0410846704790F820C0BCF1010FA8
:1038200004BF02207047F0B590F821C04FF0010EA0
:10383000BCF1010F80F820E026D14FF0020C80F897
:1038400021C04FF0000CC0F838C0D0E900C4C56AF0
:10385000C66BDCF80070102C27F00107CCF8007064
:10386000006C0EFA00F070600846CCF8043004BF1B
:1038700010460A46CCF80800CCF80C20DCF8000012
:1038800045B140F00E000DE0002180F8201002202C
:10389000F0BD00BF20F00400CCF80000DCF8000010
:1038A00040F00A00CCF80000DCF8000040F0010015
:1038B000CCF800000020F0BDB0B5044600F04CFA92
:1038C000054640F29C00C2F200000078611C18BF5F
:1038D000044400BF00F040FA401BA042FAD3B0BD40
:1038E0002DE9F04381B041F28015C2F200052A7E35
:1038F000012A03D1022001B0BDE8F0830446012073
:10390000266828764CF250308846FFF76DF8022E74
:103910001CD100284ED1002042F21004E861C4F20C
:103920000204206840F004002060206840F040005D
:1039300020604CF25030FFF757F8216821F0040165
:1039400021600021297601B0BDE8F08390BB4FF0E3
:10395000FF30C8F80000D4E9027007EB80208742EE
:1039600028D242F21006C4F202064FF0000900BF4E
:10397000C5F81C90306840F0020030607760306815
:1039800040F0400030604CF25030FFF72DF83168C5
:1039900021F00201316098B9D4E9020107F580678E
:1039A00000EB81208742E3D300200021297601B07B
:1039B000BDE8F08301200021297601B0BDE8F08345
:1039C000C8F800700021297601B0BDE8F08300003E
:1039D00042F21001C4F20201086840F080020020A7
:1039E0000A6070472DE9F04381B041F28017C2F2BE
:1039F000000716463A7E012A04D1022001B0BDE834
:103A0000F08300BF0546012038764CF250300C465A
:103A10009946FEF7E9FF28B10021397601B0BDE8EB
:103A2000F08300BF42F210080020C4F20208F861DF
:103A3000D8F8000040F00100C8F800004CF2503007
:103A40002680FEF7D1FFD8F80010002821F00101F0
:103A5000C8F8001018BF0046DED1012DDCD00020D0
:103A6000F861D8F80000310C40F00100C8F80000FF
:103A70004CF250306180FEF7B7FFD8F800100028F4
:103A800021F00101C8F80010C6D1E81E10F1030FA3
:103A90004FF00000C0D8F861D8F8000040F00100F5
:103AA000C8F800004CF25030A4F80490FEF79CFFD8
:103AB000D8F80010002821F00101C8F80010ABD19F
:103AC0000020F861D8F800004FEA194140F00100E9
:103AD000C8F800004CF25030E180FEF785FFD8F8BE
:103AE0000010002821F00101C8F8001018BF00469E
:103AF0000021397601B0BDE8F083000042F20400F5
:103B0000C4F20200C16809065CBF0020704740F2A1
:103B10002311C4F26751016048F6AB11CCF6EF51A6
:103B20000160C068C0B2C009704700002DE9F04FC5
:103B300082B00E68002E00F0FF8040F20C4C40F284
:103B4000004E41F20042C4F2010CC4F2010EC4F274
:103B500001020427002401234FF0000A4FF000095E
:103B6000904208BF0327009749E000BF41F20002DE
:103B7000C4F20102009F904208BF022704F00C0328
:103B80000F229A402BEA020207FA03F34FEA9A0542
:103B90001A4346F825204E68F203DEF8002054BF91
:103BA00022EA080242EA0802CEF80020DEF80420E9
:103BB000B30354BF22EA080242EA0802CEF8042006
:103BC000F302DEF8082054BF22EA080242EA0802A3
:103BD000B302CEF80820DCF800204FF0010354BFF8
:103BE00022EA080242EA0802CCF800200E680AF134
:103BF000010A36FA0AF204F1040400F09D8003FA87
:103C00000AFB16EA0B08F1D04E684FF6FF72C1F2BC
:103C10001002964212DC122E56D8DFE806F0350B61
:103C20004D49555555555555555555555555554568
:103C3000510000BFD1F80C9046E000BF4FF6FF7274
:103C4000C1F2210296420FDC0022C1F2110296421B
:103C50001AD00022C1F21202964215D00022C1F2FF
:103C60002102964210D02FE00022C1F22202964299
:103C70000AD00022C1F23102964205D00022C1F2E0
:103C80003202964220D100BF8A684AB1012A14BF8D
:103C9000C0F814B0C0F810B04FF0080914E000BF2D
:103CA0004FF0040910E000BFCA6802F104090BE0FC
:103CB0004FF0000908E000BFCA6802F1080903E0FC
:103CC000CA6802F10C0900BF02462646B8F5807F9B
:103CD00024BF0432203E17680F25B54027EA0505AA
:103CE00009FA06F635431560CA79D2067FF57EAF2C
:103CF00041F21803C4F202031A68AEF57E7642F070
:103D000001021A601A6802F001020192019A2AF077
:103D1000030256F802B040F60002C4F201029042DB
:103D200008D040F60042C4F2010290427FF41EAF78
:103D3000012723E7002721E702B0BDE8F08F00004C
:103D40008068084018BF012070470000002A08BFA3
:103D5000090401617047000041F2A010C2F20000A6
:103D60000068704740F29C0041F2A011C2F20000CE
:103D7000C2F2000100780A68104408607047000031
:103D800080B542F20000C4F20200016841F0100167
:103D90000160032000F08CF8002000F005F800F02E
:103DA00027F8002080BD000070B540F29C06C2F2EA
:103DB000000640F2C0013278C2F200014FF47A737B
:103DC0000968B3FBF2F20446B1FBF2F1084601F0D8
:103DD000D3FA0F2C4FF0010508D838B94FF0FF3057
:103DE00021460022002500F037F87460284670BD97
:103DF00082B041F21800C4F202000168022241F0D0
:103E000001010160016801F001010191019941681E
:103E100041F080514160406800F08050009000986F
:103E20000420C4F20100016862F31A61016002B06B
:103E300070470000002848BF704700F01F010122B2
:103E400002FA01F11C2202EAD0004EF20012CEF278
:103E5000000281507047000010B54EF60C5CCEF2A7
:103E6000000CDCF80030C3F3022E8EF00704042CA3
:103E700028BF0424BEF103034FF0FF3E0EFA04F402
:103E800038BF0023A14399400EFA03F39A4311432C
:103E900000F00F0200F160430901043A03F56443A6
:103EA0006244002848BF02F10C03197010BD0000E5
:103EB0004EF60C51CEF200010A684FF6FF031A408D
:103EC00060F30A2242F0806040F0FD7008607047A5
:103ED00001F0070C00EB4C1C0CF1280C00EB41101E
:103EE000090658BF00F5947C52B1ACF808301B0CA1
:103EF00001210A202CF8003000208CF80C107047AB
:103F0000002106202CF8003000208CF80C1070479F
:103F100070470000D0F8683200EB4110C26B1846C1
:103F200005F07AB8D0F8683200EB4110D0F83C21A7
:103F3000184605F0D7B8000010B54FFA81FC4FF4D1
:103F40009472BCF1000F48BF282201F0070302441D
:103F50004FEAD11C02EB431181F801C090F828C24E
:103F60004FEA431EBCF1010F02F80E3004BF0220DD
:103F700010BD0268012380F828320446104605F07F
:103F8000EFFD002084F8280210BD0000B0B54268A3
:103F900001F00F03934284BF0120B0BD4AB24FF439
:103FA0009474002A48BF282401F00703021990F8EE
:103FB00028424FEAD11C02EB431181F801C04FEABD
:103FC000431C012C4FF000048C7002F80C3004BF2D
:103FD0000220B0BD0268012380F828320546104651
:103FE00005F052FE204685F82842B0BD01F00701D9
:103FF00000EB4110D0F844017047000010B54FFAB3
:1040000081FCBCF1000F01F0070C0DD400EB4C1E3D
:1040100000240EF594718EF829418EF828C1CEF84F
:1040200038218EF82B3109E000EB4C1101F828CF34
:1040300001244C700A61CB70A1F80EC0022B04BFA2
:1040400000220A7190F82822012A04BF022010BD24
:104050000268012380F828320446104605F03AFC35
:10406000002084F8280210BD10B501F0070C00EB09
:104070004C1E00680EF594710024CEF83C21CEF859
:104080004031CEF844418EF829418EF828C105F020
:104090004FFE002010BD0000B0B5426801F00704DB
:1040A00094424FF0010229D84BB24FF49475002B83
:1040B00048BF28254FEAD11348BF214605444FEA9F
:1040C000411C05EB41114B7090F828328A70012B8E
:1040D00005F80C4004BF0220B0BD0268012305466C
:1040E00080F82832104605F009FE24B9286805F545
:1040F0000C7105F0C7FD002285F828221046B0BDDE
:1041000080B501F0070C00EB4C1101F828CF01F14C
:10411000140E00684FF0000C8EE80C1001224A705B
:1041200005F006FE002080BD2DE9F04F83B0044667
:10413000006805F05BFF01462068090405D5B0F969
:104140004410B1F1FF3F40F3A98005F04FFF400557
:1041500019D52068B0F8441021F48061A0F844100B
:10416000204600F0FBFA94F8280201280BD0012029
:10417000002584F8280284F824502068002105F0E6
:1041800095FF84F82852206805F030FF014620682A
:10419000490405D5B0F8441021F48041A0F844103A
:1041A00005F024FF01462068890405D5B0F84410C5
:1041B00021F40051A0F8441005F018FF01462068D2
:1041C000C90411D405F012FF000527D4206805F0BA
:1041D0000DFF800548D4206805F008FFC00552D4C3
:1041E00003B0BDE8F08F00BFB0F8401021F004012B
:1041F000A0F84010B0F8401021F00801A0F84010DD
:10420000204600F0BDFA2068B0F8441021F4805137
:10421000A0F8441005F0EAFE0005D7D52068B0F8F4
:10422000401041F00801A0F84010B0F8441021F40B
:104230000061A0F84410B0F8401041F00401A0F86B
:10424000401005F0D3FEC00406D52068B0F8441035
:1042500021F48051A0F84410204600F0CFFA2068E5
:1042600005F0C4FE8005B6D52068B0F8441021F4EE
:104270000071A0F84410204600F086FA206805F08E
:10428000B5FEC005ACD52068B0F8441021F48071AB
:10429000A0F8441003B0BDE8F08F00BF04F594719E
:1042A000029104F1280504F50C7140F60F7A019192
:1042B00014E000BF01F0070705EB4711C1E9053223
:1042C00000227E01CA6101224A70AF5505F030FD1F
:1042D0002068B0F9441000297FF537AFB0F84420CA
:1042E00012F00F080CD030F928B04FEA4809BBF1A2
:1042F000FF3F35DD1FFA8BF00006E9D51CE100BF5A
:104300000188D20656D401EA0A0101F50041018074
:10431000B0F8501094F8282000EB410000EB021098
:10432000B0F80404E16B6FF39F2060640844E0631D
:1043300020460021FFF7EEFD94F824000028C7D0A6
:10434000206C0028C4D194F82400216840F080003B
:10435000C0B2A1F84C00002084F82400B8E700BFE8
:1043600030F8191040F60F7701EA0A01803120F881
:104370001910029901EB481A9AF80C10002977D00D
:104380009AF8001030F82120B0F8503000EB0111FD
:10439000520401EB430100F18180B1F80C646FF32A
:1043A0009F26002E00F08880DAF81410BAF80A2050
:1043B0007DE000BF0A053DD409B2B1F1FF3F3FF7F0
:1043C00087AF018801EA0A0180310180B0F85010FE
:1043D00094F82821130100F20C4202EB4101CB5A60
:1043E0006FF39F23C4F84431A3B1D4F83C1189B1D1
:1043F000B4F82E2105F0FEFDD4F83C01D4F84411A8
:104400000844C4F83C0120460021FFF78BFD2068DA
:1044100000F20C42B0F85010D4F83831002B00F004
:10442000B1803E2B00F2BA8003F0010606EB530385
:104430009B02C0E0B0F8501094F8282100EB410135
:1044400001EB0211B1F80C34B4F82E2101996FF38D
:104450009F23C4F8443105F0CDFD2068018801EAAE
:104460000A0180310180204600F0A8F930E700BF42
:10447000B0F850109AF8002000EB410101EB021156
:10448000B1F80C646FF39F26002E79D0DAF814107F
:10449000BAF80620334605F0ADFD19E0B1F8046422
:1044A0006FF39F2646B1DAF81410BAF808203346A5
:1044B00005F0A0FD01E000BF002620689AF800107A
:1044C00048F2C00330F821203A401A4320F8212056
:1044D000DAF81C20DAE905103244CAF81C208A19DF
:1044E000CAF81420E0B1DAF810309AF80010B3429C
:1044F00018D8029E01F0070306EB4311C1E905201D
:104500000020C861487020685F01F35505F010FC79
:1045100040F60F7A1FFA8BF000067FF5D9AE0BE05C
:104520009AF800102046FFF7FDFC40F60F7A1FFABC
:104530008BF000067FF5CCAE20684FEA481230F8C9
:10454000191005EB481701EA0A0101F5004120F8AE
:104550001910B0F85030A95C00EB430202EB0112D5
:10456000B2F80434D7E905626FF39F23FB6133444B
:10457000002A7B617FF49EAE2046FFF7CBFCA7E6C6
:104580000026A5E7535A48F2000723F4F843535294
:10459000535ACFF6FF773B430DE000BF5E09DF06BD
:1045A0004FF0FF3708BF07EB531648F20003CFF672
:1045B000FF7343EA86235352018843F60F7211407A
:1045C00048F2C00202F53F525140018080E60000EF
:1045D000002804BF01207047F0B585B0064690F86A
:1045E000290228B9002086F82802304600F094F805
:1045F000032086F82902306805F03AFB06F1140E14
:1046000096E82F009EE81050376ACDE90054CDE9B6
:1046100002CE049705F0A2FA00286AD13068002182
:10462000002505F041FD7168002952D006F12800EF
:104630004FF0010C0022002300EB4217520183547B
:10464000DAB20133FA81DAB2914287F801C0FD7023
:10465000C7E90455BD61EFD806F594700022002526
:10466000002300BF00EB45176D01435543F00105E2
:10467000ECB2A1427A70FA70C7E90422BA6128D973
:1046800000EB44176401055543F00205ECB2A1426A
:104690007A70FA70C7E90422BA611AD900EB44179C
:1046A0006401055543F00305ECB2A1427A70FA703B
:1046B000C7E90422BA610CD900EB44176401043342
:1046C0000555DDB2A9427A70FA70C7E90422BA61D1
:1046D000C8D806F10807D6E9055430688CCFD6E96A
:1046E00007CECDE9007502AD85E8105005F0ACFAB3
:1046F00030B1022086F82902012005B0F0BD00BFCC
:10470000002086F82400012086F82902306805F090
:1047100099FA002005B0F0BD006845F60041C4F2EA
:104720000001884218BF704780B582B041F21C007A
:10473000C4F202000168002241F400010160006837
:10474000002100F40000019001981420FFF784FB81
:10475000142002B0BDE88040FFF76CBB10B50446E2
:104760008068022818BFFEF739F9D4F868020121E1
:1047700004F0B8FDD4F86802BDE8104004F070BD44
:10478000D0F8680204F096BDD0F8680204F09CBD31
:1047900090F82822012A04BF0220704710B5012298
:1047A00080F8282280F8241002680446104605F09C
:1047B0007DFC002084F8280210BD0000D0F868229B
:1047C00000F50C71104604F0A3BD000090F828120B
:1047D000012904BF0220704710B5012180F828127A
:1047E0000446FFF795FB206805F02AFA206805F0DB
:1047F000EDFB002084F8280210BD000010B504462F
:10480000D0F8680204F0D6FDA069002808BF10BDEA
:104810004EF61050CEF20000016841F00601016032
:1048200010BD0000012821D002280DD0102808D189
:1048300041F20401C4F202010A6851F8040CC001FB
:1048400034D40020704700BF80B500F0C7F941F2B2
:104850000401C4F2020109680222C1F3813102EBB2
:104860004101B0FBF1F0BDE88040704741F2040027
:10487000C4F20200C16940F202320A40B2F5817FFF
:1048800004BF4FF40040704701F44071B1F5407F20
:1048900018D0B1F5007F1CBF00207047006A49F6B0
:1048A0004041800701EAE070704700BFC2F38340D7
:1048B00015A3185CD2030DD440F60012C0F23D02DD
:1048C000504313E050F8040C4FF22441800301EAF6
:1048D000E07070470A6810A3C2F340429A5C41F24C
:1048E0000023C0F27A03B3FBF2F250430968490295
:1048F00048BF70474AF6AB214000CAF6AA21A0FB88
:1049000001014808704700BF0203040506070809B3
:104910000A0B0C0D0E0F1010010200002DE9F041E2
:1049200082B00446007841F21C06C007C4F20206B9
:104930004AD030685FEAC00808D4306840F0805040
:104940003060306800F080500190019847F2000715
:10495000C4F200073868C00512D4386840F480708B
:104960003860FFF7F9F905463868C00508D4FFF745
:10497000F3F9401B6428F7D9032002B0BDE8F081A9
:10498000706810F4407012D0616801F44071884280
:104990000DD0706840F24042C4F24222012320F45C
:1049A000407113600023C0071360716026D17068E6
:1049B000616820F440700843B8F1000F706003D4C0
:1049C000306820F0805030602068810707D556F8A5
:1049D000181CA26821F44041114346F8181CC00677
:1049E00007D556F8180CE16820F48000084346F813
:1049F000180C002002B0BDE8F08100BFFFF7ACF951
:104A0000054641F2883700BF70688007CFD4FFF7B2
:104A1000A3F9401BB8424FF00300F5D9EAE70000C4
:104A2000002804BF012070472DE9F04381B042F215
:104A30000008C4F202080446D8F800000D4600F051
:104A4000070081420CD9D8F8000020F00700284365
:104A5000C8F80000D8F8000000F00700A8426CD1A8
:104A6000206841F204098107C4F2020917D5410701
:104A700005D5D9F8001041F4E061C9F8001001072C
:104A800005D5D9F8001041F46051C9F80010D9F8E3
:104A90000010A26821F0F0011143C9F80010C0070E
:104AA00042D1D8F8000000F0070085420CD2D8F8B7
:104AB000000020F007002843C8F80000D8F80000E4
:104AC00000F00700A84238D12068410707D5D9F87F
:104AD0000010E26821F4E0611143C9F800100007FA
:104AE00008D5D9F80000216920F4605040EAC100DF
:104AF000C9F80000D9F8002002F00C00082841F2A3
:104B00000020C0F27A004DD14DF67263C2F38341AA
:104B1000C0F60003595CD20338D440F60010C0F24E
:104B20003D0048433EE000BF606859F8041C02287D
:104B300008D0012826D1890306D4012001B0BDE8A0
:104B4000F08300BF8901F8D5D9F8001021F00301E6
:104B50000843C9F80000FFF7FFF8064641F288371E
:104B6000D9F80000616800F00C00B0EB810F98D01C
:104B7000FFF7F2F8801BB842F2D9032001B0BDE87C
:104B8000F08300BF8907D8D5DEE700BFD9F8002041
:104B90004DF65C43C2F34042C0F600039A5C4843C2
:104BA000B0FBF2F0D9F800104DF65E42C1F30311EC
:104BB000C0F60002515C40F2C00220FA01F140F25E
:104BC000A000C2F200000068C2F200021160FFF70C
:104BD000EBF8002001B0BDE8F083000040F2C00017
:104BE00041F20401C2F20000C4F202010068096847
:104BF0004DF66E42C1F3C221C0F60002515CC840BE
:104C000070470000002804BF012070472DE9F041E3
:104C100082B00446007841F20006C007C4F20206E2
:104C20000CD0706800F00C00042840F081803068DF
:104C3000800303D56068002800F046812078800753
:104C40001BD5706810F00C0F09D0706800F00C00D4
:104C5000082840F087807068C00300F183803068C6
:104C6000800703D52069012840F02E8130686169F2
:104C700020F0F80040EAC10030602078000713D42B
:104C8000207840072CD4E569002D00F01881706869
:104C900000F00C00082840F0A780012D40F00481AE
:104CA000012002B0BDE8F081A069002800F08480F6
:104CB0000020C4F242200121C0F88014FFF74CF814
:104CC000054600BF706A800700F1B280FFF744F824
:104CD000401B0228F6D9032002B0BDE8F08100BFD6
:104CE000F0695FEAC00808D4F06940F08050F061D4
:104CF000F06900F080500090009847F20007C4F27D
:104D000000073868C00549D4386840F480703860BE
:104D1000FFF722F8054600BF3868C0053ED4FFF70C
:104D20001BF8401B6428F7D9032002B0BDE8F081CE
:104D3000706800F00C00082803D17068C0033FF5CC
:104D400076AF61683068002900F00C81B1F5A02FC2
:104D500000F00081B1F5803F40F01A8140F48030CE
:104D60001CE100BF2069002840F20000C4F242208C
:104D700000F0888001210160FEF7EEFF054600BFCC
:104D8000306880073FF572AFFEF7E6FF401B022850
:104D9000F6D9032002B0BDE8F08100BFE168306AB7
:104DA000002900F09D80052900F09280012940F043
:104DB000AF8040F00100B1E00020C4F242200021A9
:104DC000C0F88014FEF7C8FF054600BF706A800770
:104DD0007FF556AFFEF7C0FF401B0228F6D903202F
:104DE00002B0BDE8F08100BF0027C4F242270020D6
:104DF0003866FEF7B1FF022D05460DD130688001FF
:104E000040F1DE80FEF7A8FF401B02284FF00300B0
:104E1000F4D902B0BDE8F081306880014FD5FEF7CB
:104E20009BFF401B02284FF00300F5D9F1E700BFBC
:104E300040F2C000C2F20000006844F6D351C1F253
:104E40006201A0FB0101480A019000BF00BF019868
:104E5000411E002801913FF413AF00BF0198411E8D
:104E6000002801913FF40CAF00BF0198411E0028BB
:104E700001913FF405AF00BF0198411E0028019148
:104E8000E4D1FDE600210160FEF766FF054600BFA4
:104E9000306880077FF5F1AEFEF75EFF401B022809
:104EA0004FF00300F4D9B4E77068216A00F480324F
:104EB0008A4209D1616A00F47010884204D100204E
:104EC00002B0BDE8F08100BF012002B0BDE8F08172
:104ED00040F004003062306A40F001001EE000BF84
:104EE00020F001003062306A20F004003062FEF7EA
:104EF00033FF054641F28837306A800720D5FEF738
:104F00002BFF401BB8424FF00300F5D981E700BFEB
:104F100020F001003062306A20F004003062FEF7B9
:104F20001BFF054641F28837306A800708D4FEF738
:104F300013FF401BB842F7D9032002B0BDE8F0814F
:104F4000B8F1000F3FF59FAEF06920F08050F0619E
:104F500099E600BF40F480203060306840F4803033
:104F60001CE000BF20F480303060306820F48020E6
:104F70003060FEF7F1FE0546306880037FF55EAED7
:104F8000FEF7EAFE401B64284FF00300F4D940E727
:104F900020F480303060306820F480203060FEF7EC
:104FA000DBFE0546306880033FF548AEFEF7D4FED1
:104FB000401B6428F6D9032002B0BDE8F08100BF91
:104FC000206AB0F5803F05D17168A26821F40031F4
:104FD000114371607168626A21F4741111430843CE
:104FE000706001203866FEF7B7FE04463068800125
:104FF0003FF565AFFEF7B0FE001B02284FF003003F
:10500000F4D906E7002804BF01207047B0B5044674
:105010000020A06294F8511029B984F8500020466D
:1050200000F032F80020022184F85110D4E9001E6B
:10503000D4E9023C0A6822F040020A6043EA0E0208
:10504000236942EA0C0242EA030CD4E90532E5691D
:105050004CEA030C02F4007E4CEA0E0343EA050C12
:10506000256AA36A45EA0C052B430B60042303EA77
:1050700012424A60CA6922F40062CA610121606575
:1050800084F85110B0BD000070B586B0044640F6FB
:105090000000C4F20100216800F520520026914270
:1050A0000596CDE90366029602D006B070BD00BF3A
:1050B00041F21801C4F202010A6842F480520A6007
:1050C0000A6802F480520192019A0A6842F00402CE
:1050D0000A60096801F0040101910199A02102917F
:1050E000022103910321059102A9FEF71FFD40F65D
:1050F00074553020C2F20005C4F202001021802253
:1051000085E8430005F10C004FF480734FF4806C88
:1051100080E80C102846C5E90666FEF743FB002828
:1051200018BFFDF75BFCA5646C6206B070BD0000A3
:105130002DE9F04381B0044690F85000012803D1D6
:10514000022001B0BDE8F0834FF001081D460F4674
:10515000164684F85080FEF7FFFD94F8511001299F
:1051600042D18146002F4FF0010018BF002E00F001
:10517000FB800320002284F8510062652763A68625
:10518000E686A263A287E287A0683146B0F5004FA9
:1051900020682264626403D1026842F480420260A3
:1051A0000268520603D4026842F04002026062685C
:1051B0000139E368B2FA82F2B1FA81F15209490980
:1051C000B3F5006F41EA02013CD131B137F8021B5F
:1051D000C1602763E08E0138E086E08E00286BD046
:1051E000681C0ED11DE000BF0220BDE0216B31F82C
:1051F000022BC2602163E08E0138E086E08E002839
:105200005AD0206881688907F0D4FEF7A5FDA0EB8D
:105210000900A842F2D338E0FEF79EFDE08E002898
:105220004AD0206881688907F6D5216B31F8022BB6
:10523000C2602163E08E0138E086E08E0028F0D164
:105240003AE000BF39B139780173206B0130206337
:10525000E08E0138E086E08E70B3681C0BD11BE055
:10526000216B09780173206B01302063E08E0138D7
:10527000E086E08E00B3206881688907F0D4FEF7ED
:105280006BFDA0EB0900A842F3D303206CE000BF44
:10529000FEF762FDE08E78B1206881688907F7D556
:1052A000216B09780173206B01302063E08E013897
:1052B000E086E08E0028EFD120688168090646D597
:1052C000691C0ED0FEF748FDA0EB09012068A94239
:1052D00012D281680906F5D439E000BF8168090659
:1052E00035D58168090632D58168090644BF8168D1
:1052F0005FEA01612BD5F1E7416821F0E0014160EF
:105300006168B1F5827F0AD1A168B1F5004F02D082
:10531000B1F5806F03D1016821F040010160A16AFD
:10532000B1F5005F07D1016821F400510160016807
:1053300041F400510160012184F85110002184F8EA
:105340005010616D41F02001616520216165A16807
:1053500031B900210091C1680091806800900098E7
:10536000606D002818BF0120002184F8518084F866
:10537000501001B0BDE8F083411E0020B0EB116F6A
:105380001CBF012070474EF21002CEF200025160A5
:105390004EF62351CEF20001F0230B7007219060EE
:1053A00011607047704700007047000090F83C2083
:1053B000012A04BF02207047B0B501F108053CCDB9
:1053C000D1E900CE23F47C5322F470521A432EF418
:1053D000F0431A432CF4E0431A4324F4C0431A4325
:1053E0002A43C96922F480420368114359640021A9
:1053F00080F83C100020B0BD90F83C20012A4FF00E
:10540000020219D080B580F83D2002685368D2F8B6
:1054100008C091E8024023F0700319432CF0800388
:1054200043EA0E03516093600121002280F83D1091
:1054300080F83C20BDE8804010467047006801F0CD
:105440001F010422036A02FA01F123EA0102026247
:10545000026A11430162416C41F400414164816878
:1054600001F00701062903D0016841F00101016044
:1054700000207047002804BF0120704710B590F845
:105480003D1031B9002180F83C10044600F056F878
:105490002046022180F83D10016840F2FF740B683D
:1054A000C4F2000442F6004CA142C4F2010C15DC27
:1054B000B1F1804F1AD040F20042C4F20002914292
:1054C00014D0A14218DCB1F1804F1DD040F200424F
:1054D000C4F20002914217D01AE000BF614505D026
:1054E00040F60002C4F200029142EAD1826823F041
:1054F00070031343A142E6DD614505D040F600028A
:10550000C4F20002914203D1026923F440731343B1
:10551000846923F08002D0F804E0C3682243614527
:105520000A60CB62C1F828E002D14269CCF8302091
:1055300001224A6180F83D20002010BD80B582B074
:10554000006840F20041C4F2000188421ED042F6D9
:105550000041C4F20101884225D141F21800C4F291
:1055600002000168002241F400610160006800212E
:1055700000F40060019001981920FEF76DFC1920DD
:1055800002B0BDE88040FEF755BC00BF41F21800F4
:10559000C4F20200416841F002014160406800F03D
:1055A00002000090009802B080BD00000068C16851
:1055B00041F00101C160816801F00701062903D0B3
:1055C000016841F0010101600020704790F83C2023
:1055D000012A4FF0020248D080B580F83D20D0F873
:1055E00000C04FF67772DCF8083023EA0202CCF8EC
:1055F00008200B683F2B1DDD5F2B39DD602B5BD056
:10560000B3F5005F00F09880702B26D1D1E901E35B
:10561000C968DCF8082043EA0E0322F47F4243EA1B
:1056200001211143CCF80810DCF8081041F0770193
:1056300011E000BF1F2B03DC33B1102B04D00CE0B2
:10564000202B01D0302B08D1DCF8081021F070019C
:10565000194341F00701CCF808100121002280F81D
:105660003D1080F83C20BDE880401046704700BFE8
:10567000402B41D0502BF0D1D1F804E0C968DCF8C0
:105680002030DCF8202022F00102CCF82020DCF8C9
:10569000182022F0F00242EA011123F00A0242EA45
:1056A0000E02CCF81810CCF82020DCF8081041F0DD
:1056B000570121F02001CEE7D1F804E0C968DCF8F9
:1056C000203023F01003CCF82030DCF81830DCF860
:1056D000202023F4704322F0A00243EA013142EA81
:1056E0000E12CCF81810CCF82020DCF8081041F08D
:1056F000670121F01001AEE7D1F804E0C968DCF8D9
:105700002030DCF8202022F00102CCF82020DCF848
:10571000182022F0F00242EA011123F00A0242EAC4
:105720000E02CCF81810CCF82020DCF8081041F05C
:10573000470121F030018EE7D1E901E3C968DCF8C7
:10574000082043EA0E0322F47F4243EA0121114379
:10575000CCF80810DCF8081041F480417BE7000029
:10576000002804BF012070472DE9F04F81B090F868
:105770003D2042B9002280F83C2004460D4600F04E
:105780008BF829462046022280F83D20026844F228
:105790000705936842F6004CAB43936040F2FF73F9
:1057A0001468C4F200039A42C4F2010C14DCB2F192
:1057B000804F19D040F20045C4F20005AA4213D030
:1057C0009A4217DCB2F1804F1CD040F20043C4F281
:1057D00000039A4216D01AE0624505D040F6000553
:1057E000C4F20005AA42EBD1856824F070042C4372
:1057F0009A42E7DD624505D040F60003C4F200039B
:105800009A4204D1036924F4407543EA050424F064
:1058100080038469D0F804E0C568234362451360BF
:10582000D562C2F828E002D14369CCF830304FF09D
:10583000010CC2F814C095689469D2F820E0D1E94F
:105840000038D1E9027B43EA050A8D694FF6FF79FA
:1058500024EA090447EA05254FF6FC47BD43D1E990
:10586000077644EA0B040B692C4344EA07242EF024
:105870002207496944EA031347EA080743EA063363
:1058800047EA0111C2F808A09361116280F83DC097
:10589000002001B0BDE8F08F70B586B0006840F61A
:1058A0000002C4F20002002190420591CDE90311EB
:1058B000029149D0B0F1804F67D141F21800C4F293
:1058C0000200416840F6004441F001014160416836
:1058D000C4F2010401F0010101910199016802ADD6
:1058E00041F0040101600168002601F0040101910A
:1058F0000199016841F0080101600068294600F043
:105900000800019001984FF400400290A4F58060D7
:10591000CDE90366FEF70AF90820CDE90206204624
:1059200029460496FEF702F90420C4F2010001683A
:105930004FF6FF42CFF6FF02114041F0E06141F423
:105940008071016006B070BD41F21800C4F202001F
:10595000426842F004024260426802F0040201928E
:10596000019A026842F008020260006800F0080034
:1059700001900198C020CDE9020140F60040049159
:10598000C4F2010002A9FEF7D1F806B070BD000014
:1059900002680429106A0BD020F0010011B901211E
:1059A00009E000BF1062106A40F001001062106A46
:1059B00020F0100010211062106A08431062106875
:1059C00040F00101002011607047000070470000A6
:1059D00010B5016804460869800744BFC8685FEADB
:1059E000807039D40869400744BFC8685FEA4070D6
:1059F0003ED40869000744BFC8685FEA007045D418
:105A00000869C00644BFC8685FEAC0604AD4086934
:105A1000C0071CBFC8685FEAC07051D108690006A2
:105A200044BFC8685FEA006052D40869400644BFBA
:105A3000C8685FEA406053D40869800646BFC868FA
:105A40005FEA806010BD6FF0200220460A61BDE869
:105A50001040FFF7A9BC00BF6FF0020008610120F1
:105A600020778869800743D02046FFF7AFFF45E0E5
:105A70006FF00400086102202077886910F4407FED
:105A800040D02046FFF7A2FF42E000BF6FF00800C1
:105A9000086104202077C86980073DD02046FFF7C1
:105AA00095FF3FE06FF01000086108202077C8697B
:105AB00010F4407F3AD02046FFF788FF3CE000BF5B
:105AC0006FF001000861204600F040FA2168A5E768
:105AD0006FF0800008612046FFF764FC2168A4E7AE
