:020000040800F2
:1000000028170020E9010008AD5B0008315B0008FB
:10001000A95B0008BD240008CD9100080000000085
:100020000000000000000000000000005D700008FB
:100030002925000800000000B15B00088D7300084E
:10004000030200080302000803020008030200087C
:10005000030200080302000803020008030200086C
:10006000030200080302000803020008112500082B
:10007000030200081D25000803020008030200080F
:100080000302000803020008FD0D00080302000837
:10009000F9900008030200080302000803020008A8
:1000A000030200080302000803020008030200081C
:1000B00003020008E17300080302000803020008BD
:1000C00003020008030200080302000803020008FC
:1000D00003020008030200080302000803020008EC
:1000E00003020008030200080302000800F002F8FF
:1000F00000F06AF80AA090E8000C82448344AAF158
:100100000107DA4501D100F05FF8AFF2090EBAE855
:100110000F0013F0010F18BFFB1A43F0010318473B
:10012000C8C50000E8C500000A444FF0000C10F8F4
:10013000013B13F0070408BF10F8014B1D1108BF65
:1001400010F8015B641E05D010F8016B641E01F805
:10015000016BF9D113F0080F1EBF10F8014BAD1C55
:100160000C1B09D16D1E58BF01F801CBFAD505E073
:1001700014F8016B01F8016B6D1EF9D59142D6D3CD
:10018000704700000023002400250026103A28BFF5
:1001900078C1FBD8520728BF30C148BF0B607047F9
:1001A00066290CF08480752900F08080002070475B
:1001B0001FB500F0A9FC0400002000210BF042FC58
:1001C000E0601FBD10B510BD00F0A2FD1146FFF7A5
:1001D000EFFF0AF0F3F800F0C0FD03B4FFF7F2FF01
:1001E00003BC00F003FE00000948804709480047AF
:1001F000FEE7FEE7FEE7FEE7FEE7FEE7FEE7FEE7D7
:10020000FEE7FEE704480549054A064B7047000033
:1002100091730008ED000008281100202817002025
:1002200028130020281300200FB41CB50C0007AAC7
:10023000009001D02044401E074B7B44694601904A
:10024000069800F01EFC002C03D06946002000F048
:100250002BFC1CBC5DF814FB7508000070B504464F
:1002600085690068C10601D5302600E02026C00758
:1002700007D070BDD4E9012130469047206A401C68
:1002800020626D1EF6D570BD70B504468569007894
:10029000C00707D170BDD4E9012120209047206A12
:1002A000401C20626D1EF6D570BD00002DE9F041A6
:1002B0000646002410687529314616A510D0AFF304
:1002C0000080002802DA404213A507E031688A075F
:1002D00001D512A502E0490704D511A5012401E0CA
:1002E000AFF3008000210A2206F1240709E0B0FBE9
:1002F000F2FCB0FBF2F302FB1C00303078541846DD
:10030000491C0028F3D123462A463046BDE8F04177
:1003100000F04BB9000000002D0000002B00000091
:10032000200000002DE9F05F894604464FF0000AE6
:10033000DFF874B1FB44C0F820A02046E16888478C
:10034000002874D0252806D0D4E901219047206ADE
:10035000401C2062F1E700265F462046E16888479E
:100360002028054607DB312D05D2781910F8200C1E
:1003700008B10643F1E7B00701D526F00406C4F83A
:100380001CA00027C4F818A02A2D09D028460BF07D
:1003900075FA38B304EB8708303DC8F8185019E0F7
:1003A00059F8041B204604EB87029161E1688847F5
:1003B000012F054618D1E069002820DA26F0200632
:1003C0001DE0D8F8180000EB800005EB4000303845
:1003D000C8F818002046E168884705460BF04EFA39
:1003E0000028EED1012F0AD02E2D08D12046E16839
:1003F00088477F1C0546022F46F02006C4DBA06913
:10040000002803DA404246F00106A061F00701D05F
:1004100026F010066C2D0BD0682D09D04C2D39D04C
:100420006A2D35D0742D35D07A2D33D016E038E0D2
:10043000E1682F4620468847B842054609D16C2F0F
:1004400026D04FF48060E168064320468847054681
:1004500004E06C2F1AD04FF4807006430DB3A5F161
:100460004100192802D8203546F400664A4629463C
:10047000204626604E46FFF793FE80B101280BD040
:10048000F61D26F0070000F1080956E74020E4E7D2
:100490008020D8E70020D6E706F104094DE728467A
:1004A00052E7206ABDE8F09F5AC0000010B5431C17
:1004B00002E010F8011B71B18107FAD14FF001324F
:1004C00002C88C1A8C4314EAC211F9D0C01A0A0669
:1004D00003D0C01E10BDC01A10BD0A0401D0801E7A
:1004E00010BD0902FCD0401E10BD4FF0000200B547
:1004F000134694469646203922BFA0E80C50A0E847
:100500000C50B1F12001BFF4F7AF090728BFA0E8F4
:100510000C5048BF0CC05DF804EB890028BF40F8C0
:10052000042B08BF704748BF20F8022B11F0804F02
:1005300018BF00F8012B704710B5044610F0030FE8
:1005400008BF11F0030F40F015804FF0013E121F5D
:10055000C0F20E8051F8043BA3EB0E0C2CEA030C06
:100560001CEACE1C08BF40F8043BF0D0A1F1040106
:1005700002F10402521E08DB11F8013B00F8013BB6
:10058000002BF7D1114600F09CFA204610BD7047B1
:100590007047704710B500F0BBFA006810BD10B589
:1005A000044600F0B5FA046010BD2DE9F0470D4691
:1005B00099469246044600F124080168880604D54D
:1005C000E06921F01001216000E00120A84201DD76
:1005D000471B00E00027A1697A1902EB0900081AFD
:1005E000A0612078C00602D42046FFF737FE00261F
:1005F00008E0D4E901211AF806009047206A401C5F
:10060000761C20624E45F4DB2078C0060AD52046D1
:10061000FFF724FE06E0D4E9012130209047206A4C
:10062000401C2062381EA7F10107F4DC07E0D4E982
:10063000012118F805009047206A401C2062281EFE
:10064000A5F10105F3DC2046FFF71EFE2078000629
:1006500002D50220BDE8F0870120FBE72DE9FF4F1E
:100660000C461E464FF0FF378BB0D2E90001DDF893
:1006700060800A908A46C1F30A5505B93D460021BB
:1006800008464FF00000BAF1000F00F4400005DA10
:1006900000EB80004FF4400101EA50004FEA90590E
:1006A000B9F1010F00DDB9460A9850EA4A000ED0B0
:1006B00044F61050A5F2FF3545432F14B8F1000F52
:1006C0001ED07542291E1EDDC9F100021CE0B8F1E2
:1006D000010F4FF0000001D0302103E0F24305E0AC
:1006E0002154401CB042FBDB304600220021215443
:1006F0000B99C1F80880C1E900200FB0BDE8F08F68
:10070000BD1B6D1CDEE74A4600DA694206A800F010
:1007100089FA06AB93E8070003AB83E8070050466D
:100720000A990AF0C3FC8DE80700A0F500501F38B5
:1007300000900398002D0ADD42F21F014A4608444A
:10074000002303A9039068460AF02CFF09E0A0F5F6
:1007500000504A461F38002303A9039068460AF058
:1007600036FF8DE807000004000C03D04FF0FF3087
:10077000410800E01046B8F1000F03D000220092BB
:1007800015461EE0751E05D400F0C6F930326255DC
:100790006D1EF9D5B3460122084302D000227F1C0A
:1007A00004E02078302801D100227F1E002A09971A
:1007B00084D01DE0112D07DA00F0AEF93032625519
:1007C0006D1C50EA0102F5D1084302D00098C8B16F
:1007D0000EE00021681E05E0235C625C6354225435
:1007E000401E491C8142F7DBAB46A81B401E099006
:1007F000002004F80B000B98099AC0F80880C0E9A3
:10080000002B7AE711264FF0000857E72DE9F04F4B
:1008100088460446D21D22F0070191B0D1E90001BB
:10082000CDE90A010BF00AF802460B98C00F01D07F
:100830002D2007E02068810701D52B2002E0202130
:1008400001EAC000032A099001D0072A05DB03460C
:100850004146204600F0A6F90BE12078800601D53C
:10086000E06900E00620B8F1650F814606D0B8F1D6
:10087000660F18D0B8F1670F70D131E00020B9F1E0
:10088000110F009001DB112301E009F101030AAA15
:1008900001A90CA8FFF7E2FEDDE90C70002609F1C2
:1008A0000105834647E001204B4600904FF000478A
:1008B0000AAA01A90CA8FFF7D1FEDDE90DB00C9939
:1008C0005D46002610B909F101000D18B9EB0500CD
:1008D00003D4C0F1FF3609F10105A5EB09002BE0B7
:1008E000B9F1010F01DA4FF001090020B9F1110F40
:1008F0000090484601DD112300E003460AAA01A941
:100900000CA8FFF7ABFEDDE90C704D4600268346D0
:10091000207800070AD4AB4500DA5D4601A8012D16
:1009200004DD411911F8011C302907D04F4502DAC6
:1009300017F1040F04DA012082460FE06D1EEEE786
:10094000002F02DCED1B3E4403E0781CA84200DDD2
:100950007D1CB81B00F1010A4FF00047207800070A
:1009600003D4AA4501DB4FF0FF3A0021B7F1004F55
:100970000DF143088DF8431024D002202B23002FC3
:1009800001DA7F422D230A21021EA0F1010000DCC2
:100990005FB197FBF1FC97FBF1F201FB1C7C174662
:1009A0000CF1300C08F801CDEEE7A8F1010003705E
:1009B0002188090501D5452100E06521A0F1010844
:1009C00000F8011C09980FA9A1EB0807FF1D00B151
:1009D0000120411901EBEA70A1693844081A401E50
:1009E000A0612078C00602D42046FFF737FC0998A2
:1009F00028B1D4E901219047206A401C2062207868
:100A0000C00622D52046FFF729FC1EE0002E04DB9D
:100A1000B34502DD01A8805D00E03020D4E901216A
:100A20009047206A401C2062761CAAF101005FEA10
:100A3000000A0AD100F068F8C0680168405CD4E997
:100A400001219047206A401C2062281EA5F1010563
:100A5000DCDC07E0D4E9012118F8010B9047206A9B
:100A6000401C2062381EA7F10107F3DC2046FFF787
:100A70000BFC032011B041E601694A1C02610878B1
:100A8000704700B58FB0CDE90131002105910549CE
:100A90007944CDE9031011466846FFF743FC0FB0D7
:100AA00000BD0000E5FFFFFF0A6802F8010B0A60C5
:100AB0007047D1E900239A4202D2531C0B60107098
:100AC00070474FF000020429C0F0128010F0030CB0
:100AD0003FF40DADCCF1040CBCF1020F18BF00F8CF
:100AE000012BA8BF20F8022BA1EB0C01FFF7FFBCE4
:100AF0005FEAC17C24BF00F8012B00F8012B48BF3E
:100B000000F8012B704700000048704728020020C1
:100B1000004870470802002030B5B0F10A0271F1B8
:100B200000034FEA900E4EEA817EB0EB0E0061EBBF
:100B300091014FEA101E4EEA017E10EB0E0041EBD0
:100B400011114FEA102E4EEA016E10EB0E0041EB30
:100B500011214FEA104E4EEA014E10EB0E0041EB10
:100B60001141401841F100014FEAD00040EA4170C4
:100B70004FEAD1014FEA810444EA907410EB8005FA
:100B800044EB01046D1944EB0404521BA3414FF0E4
:100B9000000348BF0A3200D530BD401C41F10001BE
:100BA00030BD00002DE9F0411F46044603260168D0
:100BB000072A01F4006004DB08B116A505E016A5BC
:100BC00003E008B115A500E015A521F01000206094
:100BD000A069C01EA0610FB1401EA0612046FFF7B2
:100BE0003DFB4FB1D4E9012138469047206A401CB3
:100BF0002062C01C206206E0206AFAE7D4E90121E5
:100C000015F8010B9047761EF8D22046FFF73CFB03
:100C1000BDE8F0814E414E006E616E00494E4600C7
:100C2000696E66002DE9F047814616468AB0354860
:100C300078440DC88DE80D0032487844801C03AC20
:100C40000DC884E80D0041F69B300844372190FB25
:100C5000F1F290FBF1F5A5F1800501FB12041B3CBC
:100C600002D56442012000E00020DFF898A0804611
:100C70000027FA44AAF1BE0A0EE0E0070AD0324685
:100C8000684607EB470101230AEB81010AF09FFC4C
:100C90008DE8070064107F1C002CEED1194F7F44B3
:100CA000AE3F19E0E80715D007EB04100DF1180A64
:100CB00090E80E008AE80E00C068F04201D1981951
:100CC00008903246012306A903A80AF080FC03AB72
:100CD00083E807006D10641C002DE3D14FF0010381
:100CE00032466946B8F1000F03A802D00AF05AFC58
:100CF00001E00AF06CFCC9E90001C9F808200AB05B
:100D0000BDE8F0872CB800000048704708020020BA
:100D10007546FFF7F9FFAE4605006946534620F0D9
:100D20000700854618B020B5FFF76CFABDE82040F3
:100D30004FF000064FF000074FF000084FF0000B97
:100D4000AC46ACE8C009ACE8C009ACE8C009ACE806
:100D5000C00921F007018D46704710B50446AFF376
:100D600000802046BDE81040FFF737BA4FF0013C45
:100D700050F8042B51F8043B9A4221D1A2EB0C030A
:100D8000934313EACC1317D150F8042B51F8043BCA
:100D90009A4215D1A2EB0C03934313EACC130BD167
:100DA00050F8042B51F8043B9A4209D1A2EB0C03F2
:100DB000934313EACC13DBD04FF00000704700BF21
:100DC000D01A01BAB1FA81F101F0180122FA01F04A
:100DD000CB40DBB2C0B2C01AC1F120012CFA01F342
:100DE000D11A914311EAC311E6D170470149182085
:100DF000ABBEFEE7260002007047000080B540F25F
:100E0000B820C2F2000001F07FFD40F2E820C2F2FB
:100E10000000BDE8804001F077BD0000B0B5044699
:100E200000688168C90701D10020B0BD816821F048
:100E30000101816002F032FD054600BF2068806834
:100E4000C007F1D002F02AFD401B0328F6D3A06AA8
:100E500040F01000A062E06A40F00100E062012072
:100E6000B0BD00000146406A826A12F0500F03D004
:100E7000006A026B084610470168826A42F40072F9
:100E80008262896801F46021B1F5602F01D1017B94
:100E900009B101F0F1BC816A21F480718162816A3B
:100EA000C90448BF01F0E8BC816A41F001018162D8
:100EB00001F0E2BC406A816A41F040018162C16A8E
:100EC00041F00401C16201F019BD0000406A01F067
:100ED00013BD0000B0B582B0044600200190216827
:100EE0008A68D2073FD1886840F00100886040F2EC
:100EF000AC00C2F2000000684DF68361C4F21B3101
:100F0000A0FB0101880C01900198A0B10198013863
:100F10000190019878B1019801380190019850B181
:100F2000019801380190019828B101980138019089
:100F300001980028EAD102F0B1FC054620688068DB
:100F4000C00712D102F0AAFC401B0328F6D3A06A06
:100F500040F01000A062E06A40F00100E062002072
:100F600084F82400012002B0B0BD002002B0B0BD62
:100F70002DE9F04F85B040F2D43AC2F2000A40F2B7
:100F80000409144688460AF120030028C2F2000929
:100F900007C300F014814FF60841C0F60001064671
:100FA00051F8080C44F24222C4F25522904240F01B
:100FB000DE8051F8040C0222C0F2010290424BD0B4
:100FC000B0F1011F40F0D3804EF2E572D1E9000785
:100FD000C1F60E020132896842407A40914240F0E7
:100FE000C6800AF0A7FF40F2000BC4F2C82B594696
:100FF0000AF056FE054638460AF09CFF59460AF0AC
:101000004FFE049028464FF07E51AB460AF0EDFDAE
:10101000002840F0AC800021C4F2F01158460AF0DC
:10102000CFFD002840F0A3804CF6CD410498C3F6D4
:10103000CC510AF0DAFD002840F099800021049894
:10104000C4F220110AF0BCFD002840F09080049802
:10105000C6F810B070618AE091E80118D1E9037513
:1010600080EA0B0282EA0C027A404EF2E57349698B
:101070006A40C1F60E035A40914278D10395019718
:1010800067460AF057FF0025C4F2C82529460AF032
:1010900007FE029058460AF04DFF29460AF000FE6E
:1010A000049038460AF046FF29460AF0F9FD009000
:1010B00001980AF03FFF29460AF0F2FD0546039821
:1010C0000AF038FF0021C4F220110AF0E9FD039074
:1010D00002984FF07E5183460AF087FD002846D1E2
:1010E0000021C4F2F01158460AF06AFD00283ED1F2
:1010F0004CF6CD410498C3F6CC510AF076FDB0BB56
:1011000000210498C4F220110AF05AFD78BB002196
:101110000098C4F2A0010AF068FD40BB00210098CD
:10112000C4F20C210AF04CFD08BB28464FF07C515C
:101130000AF05BFDD8B90021C4F2401128460AF03C
:101140003FFDA0B900210398C4F220110AF04DFD23
:1011500068B900210398C4F296310AF031FD30B924
:101160000098C9E906050398C9F820006FE7D6E999
:1011700004570021C4F2F01128460AF021FD00288E
:101180001CBF0025C4F2F01528464FF07E510AF02E
:101190007CFB00213061C4F2201138460AF010FDBA
:1011A0004CF6CD4100281CBF0027C4F22017C3F61F
:1011B000CC5138460AF069FB706100203083B8F1E9
:1011C000000F0BD040463C2104F014F9DAF824005B
:1011D000DAF828400068406AAAF81A004CB12046A4
:1011E0003C2104F007F9DAF828000068406AAAF800
:1011F0001C0040F60044C4F2010420464FF4807104
:1012000002F040FB89F8060089F8080002F046FB6E
:1012100040F25045C2F2000568602046102102F0FD
:1012200031FB89F80A0089F80C0002F037FBA8604E
:1012300020464FF4007102F025FB89F80E0089F872
:10124000100002F02BFBE86005F0F0F90120012608
:1012500005F0A4FE002504F580604FF480410022D3
:10126000AAF80B508AF80D5002F012FB06F04EF966
:1012700020464FF4006102F005FB89F8000002F0FF
:101280000DFBCAF82C0020464FF40041002202F06A
:10129000FFFADAF8200068B14168CAF830108168B6
:1012A000CAF8341001688AF80060CAF83810C068BB
:1012B000CAF83C0002F0F2FACAF8400002F0EEFA76
:1012C000CAF8440002F0EAFACAF84800AAF8015045
:1012D00002F0E4FACAF84C00AAF8035002F0DEFA71
:1012E000CAE91405DAF82000CAF858508AF80550FF
:1012F000D8B39AF80610032937D00169027EC9F8DD
:10130000241041698AF80F20C9F828109AF80A10A9
:1013100000228AF80E100021C4F2A011C4F2E002EB
:10132000C0E9041201210025017641768AF80150B6
:1013300002F0B4FACAF84C0020464FF400410122F2
:101340008AF80250CAF8645002F0A2FA06F080F857
:1013500003208AF80600CAF85C500120CAF86050E1
:1013600005B0BDE8F04F06F027B905B0BDE8F08F35
:101370002DE9F04F8BB002F091FA40F2D43AC2F26C
:10138000000ADAF82010054600295DD002F086FA3E
:10139000DAF84010411A502956D3DAF82040CAF83A
:1013A00040009AF80010606800293FD00AF1300B25
:1013B0002E469BE8A008DAF83C8029460AF002FF96
:1013C00049F69A19C3F6996949460AF02FFE014673
:1013D000284635460AF07EFBCAF83000A068394638
:1013E0000AF0F0FE49460AF021FE014638460AF0AE
:1013F00071FBCAF83400206859460AF0E3FE4946FA
:101400000AF014FE014658460AF064FBCAF8380098
:10141000E06841460AF0D6FE49460AF007FE01465A
:1014200040460AF057FBCAF83C000DE0CAF830000D
:10143000A068CAF834002068CAF83800E068CAF822
:101440003C0001208AF8000040F60048C4F2010880
:1014500040464FF4006102F015FA044602F01EFA0D
:1014600040F20409002CC2F2000948D199F800109A
:10147000012944D1DAF82C10411A64293FD39AF893
:101480000610CAF82C00032939D0DAF82000002809
:1014900000F0A18001699AF80A20C9F82410416976
:1014A0008AF80E20C9F82810017E00228AF80F1051
:1014B0000021C4F2A011C4F2E002C0E9041201212B
:1014C0002E460025017641768AF8015002F0E6F9B1
:1014D000CAF84C0040464FF4004101228AF80250FD
:1014E000CAF8645002F0D4F905F0B2FF03208AF87C
:1014F00006000120CAE91755354606F05DF8DAF80E
:1015000020B089F80040BBF1000F00F08984DAF8C0
:101510002400002800F001810068416ABAF81A002E
:10152000AAF81A10081A020400F0F7809AF80610B8
:10153000012910D9022953D0032940F0EE80DAF8AE
:101540005C1000B208440328CAF85C0054DD012195
:101550006FF0030256E099F801104CF6CD47C3F640
:10156000CC57022904BF4DF20A77C3F6234700295E
:1015700008BF4FF07E57DAF85C10DBF8109000B22D
:101580000C18042C4E46CAF85C406ADBA84604F1ED
:1015900010054E4638463146A5F110040AF09AFA75
:1015A000072C06464CDD384631460AF093FA0C2CDF
:1015B000064648DB384631460AF08CFA102C0646BF
:1015C00044DB384631460AF085FA0646132C254698
:1015D000E0DC103C3CE0002089F8000000F020BC7A
:1015E000DAF85C1000B208440328CAF85C0010DD89
:1015F00001216FF0030213E010F1040F00F38D805E
:10160000FF2104221044CAF85C0048B205F0EEFE47
:1016100083E010F1040F00F380804FF0FF310422CB
:1016200010449AF81020CAF85C00881848BF0320BC
:101630000328C8BF00208AF8100007F03BFE6CE0CA
:10164000A5F1140404E0A5F1180401E0A5F11C04BF
:10165000454640F60048C4F20108CBF81060CAF8CD
:101660005C4014F1040F2EDC304639460AF0AAFD26
:1016700014F1070F06461BDA304639460AF0A2FD80
:1016800014F10C0F064615DC304639460AF09AFD77
:1016900014F1100F064610DC304639460AF092FD70
:1016A000064604F1100014F1130F0446DCDB06E0DB
:1016B000201D04E004F1080001E004F10C00CBF867
:1016C0001060CAF85C000021C4F2F01130460AF044
:1016D00077FA00281CBF0026C4F2F01630464FF0FF
:1016E0007E510AF0D2F84946CBF810000AF05AFAB7
:1016F00040F20409C2F2000978B902F0CFF800F50F
:10170000FA60CAF86800012089F8030002F0C6F800
:10171000CAF8480000208AF80700DAF828000028F4
:1017200000F045810068416ABAF81C00AAF81C1054
:10173000081A020400F03B819AF8061001290FD91B
:10174000022940F03481DAF8601000B20144032924
:10175000CAF8601047DD4FF07E506FF003024AE098
:1017600099F802204CF6CD47DAF820B0C3F6CC57F2
:10177000DAF86010022A04BF4DF20A77C3F6234755
:10178000002A08BF4FF07E57DBF8149000B20E1805
:10179000042E4C46CAF8606052DBA84606F11005DC
:1017A0004C4600BF38462146A5F110060AF092F9D2
:1017B000072E044633DD384621460AF08BF90C2EFD
:1017C00004462FDB384621460AF084F9102E0446E1
:1017D0002BDB384621460AF07DF90446132E3546A8
:1017E000E0DC103E23E011F1040F00F3E080002064
:1017F000CBF6807004229AF810301144032BCAF8FB
:10180000601000F2D280DFE803F0027C98B59AF80D
:101810001100B0FA80F040098AF81100C5E0A5F186
:10182000140604E0A5F1180601E0A5F11C064546E2
:1018300040F60048C4F20108CBF81440CAF86060D2
:1018400016F1040F2FDC00BF204639460AF0BAFC1F
:1018500016F1070F04461BDA204639460AF0B2FC9F
:1018600016F10C0F044615DC204639460AF0AAFC96
:1018700016F1100F044610DC204639460AF0A2FC8F
:10188000044606F1100016F1130F0646DCDB06E0F5
:10189000301D04E006F1080001E006F10C00CBF871
:1018A0001440CAF860000021C4F2201120460AF05A
:1018B00087F94CF6CD4100281CBF0024C4F2201447
:1018C000C3F6CC51204609F0E0FF4946CBF814009E
:1018D0000AF068F940F204090028C2F2000966D152
:1018E00001F0DCFF00F5FA60CAF86C00012089F80D
:1018F000030001F0D3FFCAF8480000208AF808006E
:1019000055E04FF07C510AF091FBD9F82C100AF009
:10191000E1F80021C4F20C2104460AF051F900213B
:1019200000281CBF0024C4F20C24C4F2A0012046ED
:1019300009F0ABFFC9F82C0037E04CF6CD41C3F6F7
:10194000CC510AF073FBD9F830100AF0C3F800212B
:10195000C4F2401104460AF033F900281CBF0024E9
:10196000C4F2401420464FF07C5109F08EFFC9F8B4
:1019700030001AE00024C4F2201421460AF056FB7D
:10198000D9F834100AF0A6F80021C4F296310646C0
:101990000AF016F900281CBF0026C4F2963630461D
:1019A000214609F072FFC9F8340007F083FCDAF829
:1019B0002000002800F0348201F070FF0446404609
:1019C0004FF4807101F05EFF99F80610884208D14B
:1019D00040F25041C2F200014968611A23290BD23A
:1019E00010E040F25041C2F200014C60214689F8FB
:1019F0000600611A232905D399F80810884218BFF8
:101A000089F8080001F04AFF04464046102101F021
:101A100039FF99F80A10884208D140F25041C2F2C9
:101A200000018968611A23290BD212E040F250416B
:101A3000C2F200018C60214689F80A00611A23294C
:101A400007D399F80C10884203D0002889F80C00BD
:101A500042D0002601F022FF044640464FF40071B8
:101A600001F010FF99F80E10884208D140F2504161
:101A7000C2F20001C968611A23290BD210E040F2BA
:101A80005041C2F20001CC60214689F80E00611A73
:101A9000232905D399F81010884218BF89F810003F
:101AA00001F0FCFE99F808209AF812107AB100298A
:101AB00058D09AF81300002851D19AF8060001284E
:101AC00031D903284BD1002005F062FD47E029B150
:101AD0009AF8131039B145E00126BBE70121AAF8B5
:101AE0001210CAF870009AF8061001293AD8DAF8EC
:101AF0007010401AB0F57A7F34D39AF80A1001209A
:101B000009F118028AF813008AF8111007CA09F1BE
:101B10002C0307C300208AF8100002208AF8060070
:101B200007F0C8FB1EE099F80100411EB1FA81F1EF
:101B300049094900002808BF012189F8011001F076
:101B4000ADFE00F5FA60CAF86800012089F80300CC
:101B500001F0A4FECAF8480000208AF8070000201F
:101B6000AAF8120001F09AFE99F810209AF81410C1
:101B70007AB1002900F0E4809AF81500002840F0BE
:101B8000DC809AF8060003283FD1022005F000FD12
:101B9000D3E039B19AF81510002940F0D180DAF875
:101BA000741005E00121AAF81410CAF87400014667
:101BB000401AB0F57A7FC0F0C3809AF80620DAF8B0
:101BC00020000121032A8AF8151035D1002800F0E1
:101BD000B78005F081FCD9F82400DAF820109AF8D3
:101BE0000F200861D9F828000A764861002A18BF3A
:101BF00001224A7640464FF40041002201F048FE9F
:101C00009AF80E0008F046F89AE001284BD902280D
:101C100040F0938009F12C0207CAC9E90601DAF8FD
:101C20002010C9F82020D1E9040108F017FF9AF824
:101C3000110008F02FF880E0002800F08180016991
:101C40009AF80A20C9F8241041698AF80E20C9F8C8
:101C50002810017E00228AF80F100021C4F2A01182
:101C6000C4F2E002C0E904120121002401764176A9
:101C70008AF8014001F012FECAF84C0040464FF4C9
:101C8000004101228AF80240CAF8644001F000FED7
:101C900005F0DEFB03208AF806000120CAE917449C
:101CA00005F08AFC4CE09AF80110DAF8200031B116
:101CB0000021AAF80110CAF8641040B909E0417E79
:101CC000032917D10021AAF80110CAF864100021D5
:101CD0000183002408F580604FF4804100228AF8D7
:101CE0000340AAF80B408AF80D4001F0D1FD8AF8B4
:101CF000094022E0027E82F0010101769AB90024B7
:101D00008AF8014001F0CAFDDAF82010CAF84C0048
:101D1000CAF86440D1E904018AF8024008F09EFE46
:101D2000DAF82000017E19B1417E19B9012100E0E5
:101D30000021417600208AF809000020AAF814004A
:101D40002EB39AF80600012805D903281FD10120D7
:101D500005F01EFC1BE099F80200411EB1FA81F16A
:101D600049094900002808BF012189F8021001F043
:101D700095FD00F5FA60CAF86C00012089F80300AF
:101D800001F08CFDCAF8480000208AF80800DAF853
:101D90002000002844D09AF8031061B9017E51B1A7
:101DA00001F07CFDCAF84C00DAF8200000218AF826
:101DB0000210CAF86410427E017E032A8AF80310DA
:101DC0001CD19AF80120CAB901208AF8010040F21A
:101DD00001100024AAF80B008AF80D4001F05EFD06
:101DE000CAF8780008F580604FF48041012201F0C4
:101DF0004FFDDAF820008AF80940017E59B1407E93
:101E0000032808D001F04AFDDAF84C100446401AC5
:101E1000F92800F2498200208AF80200CAF864001A
:101E20009AF80B00012831D101F038FD9AF80C1016
:101E3000DAF878200129A0EB020119D1962925D3DF
:101E4000CAF878009AF80D00002401308AF80D00D5
:101E500008F580604FF4804100228AF80C4001F0C0
:101E600017FD9AF80D00032828BF8AF80B400DE0F3
:101E700096290BD3CAF8780001208AF80C0008F5DF
:101E800080604FF48041012201F002FDDAF8200069
:101E900000285FD001F002FDDAF820100A7E11461A
:101EA000002A18BF01219AF8043042B13BB9002240
:101EB000CAE91402CAF858208AF8052048E0B2FAA4
:101EC00082F7B3FA83F67F097609374319D0D2BB7C
:101ED000CBB3DAF85020DAF85830821A1A4444F6B4
:101EE000D353C1F26203A2FB0337DAF85430BE09C0
:101EF00003EB97134FF47A7706FB1722CAE9140312
:101F00001BE0DAF85020DAF85830821A1A44B2F599
:101F10007A7FCAF8500019D344F6D350C1F2620058
:101F2000A2FB0003DAF854009F0900EB93104FF472
:101F30007A7307FB1322CAF854000020CAF858200D
:101F40008AF8050004E0CAF8500001E0CAF85820F9
:101F50008AF804109AF8060001282DD801F09EFC9A
:101F6000DAE91A130A1A002AA3EB0001D8BF0029E4
:101F700017DDDAF84830C31ADC2B1BD399F803308D
:101F8000CAF8480083F00100012A89F80300A4BFC1
:101F900000208AF807000129A4BF00208AF8080061
:101FA00008E099F8030028B9012089F8030000200F
:101FB000AAF807009AF80600032863D0012867D022
:101FC000002840F0C380DAF84400281A642880F022
:101FD000C0809AF80700002800F0C7809AF808002F
:101FE00030B90020D72107F021FB01208AF8080032
:101FF0009AF80900002804BF01208AF809009AF81D
:102000000500002840F0A280DAF8540048F6890262
:102010004BF2C531C8F68802C9F2A211A0FB023703
:10202000A0FB01137909A1FB022672091201A2EBA0
:102030005612A1EB82020901A1EB5711A0EB81001E
:10204000CDE900204CF2CA6206ACDB0AC0F6000201
:10205000204614211425FEF7E7F840F25040C2F262
:1020600000001A30CDE90040DA20B42102224FF6F8
:10207000FF73029507F030FD01208AF805000BB0D0
:10208000BDE8F08F00200BB0BDE8F04F05F094BA2A
:102090004FF6E07501F002FC40F2504BC2F2000B2B
:1020A000DBF80010411AFA296CD29AF807000028D0
:1020B00000F0ED809AF8080030B90020D72107F031
:1020C000B5FA01208AF808009AF80900002808BF2C
:1020D00007F07EF89AF80500C0BBDAF8540048F61D
:1020E00089024BF2C531C8F68802C9F2A211A0FBE1
:1020F0000237A0FB01137909A1FB02267209120124
:10210000A2EB5612A1EB82020901A1EB5711A0EB41
:102110008100CDE900204CF2CA6206ACDB0AC0F6B1
:102120000002204614211426FEF77EF805F11F0058
:102130000BF12E01CDE9004183B2DA20B421022255
:10214000029607F0C9FC01208AF805000BB0BDE833
:10215000F08FCAF8445007F0DDF901208AF8090031
:102160009AF8070000287FF439AF012037210124B5
:1021700007F05CFA8AF807409AF8080000283FF454
:1021800030AF35E7D046D8E90C650027BAF81E40D5
:10219000C4F2F017CBF800003046394604F1140AB7
:1021A00009F00EFD00281CBF0026C4F2F0163046D0
:1021B000002109F06AFB394609F072FD0026C4F2DD
:1021C0001036314609F032FF09F060FE0027C0F1F9
:1021D000AC00C4F2201705902846394609F0F0FCFF
:1021E00000281CBF0025C4F220152846002109F054
:1021F0004CFB394609F054FD3146564609F016FFAE
:1022000009F044FEC0F1AC07504607F0ABFFB4F54F
:10221000937F03D804F1150007F0A4FF98F8180085
:10222000C246012805D1B9F91250142DA8BFAE42FB
:1022300068DC059CB5B2A1B2284640F2FF7203F0FB
:10224000EBFFB9B228464FF6E07203F0E5FF4FF618
:10225000E075BAF81E1001208AF81800481C81B2F7
:10226000A9F81260A9F81440A9F81670B1F5947F86
:10227000AAF81E0022BF0020AAF81E008AF8180043
:1022800006F0A6FF9AF8070000287FF413AF01209C
:102290003721012407F0CAF98AF807409AF80800A4
:1022A00000283FF40AAF0FE7DAF820B0A846DBE9D0
:1022B00001673046394609F0B9FED9F818104D4685
:1022C0008146304609F083FC002840F09A80E96995
:1022D000384609F07CFC002840F09580296A484681
:1022E0002E4609F074FC002840F0E58000204546A9
:1022F00040F600488AF80200CAF86400B146C4F209
:1023000001088DE50497B9F914700598B246A6EB5B
:10231000050BC61BC8BF3E1A4FF0FF3806EB0B0477
:10232000C8BF4FF00108EF2F09D800BFA809042843
:1023300005D8A8B2B9B240F2FF7203F06DFF05985C
:10234000874208BF554510D000202146B6EB440F08
:10235000DCBF012031440544BBEB440FA4BF47441C
:1023600059440C46EF2FE1D9E9E7B9F9125050462C
:10237000B5EB0A044FF0FF38B9F91670B8BFAAEBF5
:102380000504B8BF4FF0010804984FF0FF36B0EBDA
:10239000070BC4BFA7EB000B01260BEB0409EF2FC3
:1023A00009D800BFA809042805D8A8B2B9B24FF6C9
:1023B000E07203F031FF0498874208BF55450ED004
:1023C0004846BBEB490FDCBF58444544B4EB490FCA
:1023D000A4BF374420448146EF2FE3D9EBE740F216
:1023E000040940F2504B564640F2D43ADDE90474F9
:1023F000C2F200094FF6E075C2F2000BC2F2000A09
:1024000027E7012000E00220A9469AF8021045467D
:1024100040F60048C4F20108814247D1BBF1000FE9
:102420003FF4FEACDAF86400201A3228FFF4F8AC6E
:1024300001208AF801004FF44076002440F2011098
:10244000ABF81860AAF80240CAF86440AAF80B007A
:102450008AF80D4001F022FACAF8780008F5806089
:102460004FF48041012201F013FA9AF80600032884
:1024700019D105F031F8D9F82400DAF8201000223B
:102480000861D9F828000E83486140464FF40041A6
:1024900001F0FEF99AF80E0007F0FCFBDAF82000D4
:1024A0008AF8094006838AF80940B9E48AF80200EC
:1024B000CAF86440B4E40320B146A6E7FEE7000092
:1024C000002070470020704710B540F6AC14C2F2EF
:1024D000000440F66C11C2F200012046002205F013
:1024E000B1FB40F62C11C2F20001204605F0A4FB1E
:1024F000002010BD10B540F6AC14C2F20004014635
:10250000204605F099FB204605F078FB002010BD21
:1025100040F67040C2F2000000F03CBE40F6B4400D
:10252000C2F2000000F036BE70470000EFF31080EA
:1025300072B600BFFEE7000070B542F20C0604461A
:10254000C4F2020601F0AAF93168C90717D1306850
:10255000800644BF202030603068C00607D4306950
:10256000C00704D1306840075CBF002070BD3068F0
:10257000C00620D400203168490728D431E0002C5F
:1025800044D00546601C0DD13068C007DFD03068EC
:10259000C0071CBF30685FEAC070D8D03068C00781
:1025A000F2D1D4E701F07AF9401BA0422ED830686E
:1025B000C007F7D1CBE741F20010C2F20000C169B9
:1025C00041F00201C16110203168490709D541F28B
:1025D0000011C2F20001CA6940F0040042F0010299
:1025E000CA613169C90702D13060012070BD41F272
:1025F0000011C2F20001CA6942F00402CA613169E5
:1026000021F0010131613060012070BD032070BDF7
:1026100070B582B004460020019094F8240001288F
:1026200003D10225284602B070BD012084F82400A1
:102630002046FEF7F3FB054600285AD1A06A41F276
:10264000021188430230A06240F2AC00C2F20000E6
:102650000668022001F02AFEB6FBF0F0400001906F
:102660000198A0B1019801380190019878B10198C2
:1026700001380190019850B10198013801900198FA
:1026800028B101980138019001980028EAD120462C
:10269000FEF720FC2068816841F00801816001F0AC
:1026A000FDF8064620688168090705D501F0F6F8AF
:1026B000801B0A28F6D910E0816841F0040181608E
:1026C00001F0ECF8064600BF20688068400709D595
:1026D00001F0E4F8801B0B28F6D3012510206FF0E1
:1026E000120102E001206FF00301A26A11400843C9
:1026F000A062002084F82400284602B070BD0000CB
:1027000070470000B0B581B00022009290F82420FC
:10271000012A03D10221084601B0B0BD4B68012255
:10272000062B80F8242022D8D0F800C003EB8303C6
:1027300062465D1F1F2352F834EF03FA05F40B685D
:102740002EEA040E03FA05F444EA0E05092B15607F
:102750002CD8DCF8102003EB4303072589689D4043
:10276000AA4399401143CCF8101000213EE0D0F864
:1027700000C00C2B624606D852F830EF03EB8303FF
:10278000A3F1230405E052F82CEF03EB8303A3F13C
:1027900041041F2303FA04F50B682EEA050E03FA21
:1027A00004F444EA0E05092B1560D2D903EB430566
:1027B000DCF80C201E3D07248968AC40A243A940E8
:1027C000114323F00102102ACCF80C100DD142F273
:1027D0000841C4F20101A1F1080294450CD0816ABC
:1027E00041F020018162012100E00021002280F8F7
:1027F0002420084601B0B0BD0A6812022FD40A682E
:10280000102B42F400020A602BD140F2AC01C2F25C
:10281000000109684DF68362C4F21B32A1FB02126B
:10282000910C01EB8101490000910099D9B1009907
:10283000013900910099C1B10099013900910099C5
:10284000A9B1009901390091009991B1009901391C
:102850000091009900294FF00001E8D1C6E700215E
:10286000C4E70021C2E70021C0E70021BEE7002144
:10287000BCE70021BAE7000010B5006842F2004151
:10288000C4F20101884200D010BD40F26820C2F2BB
:102890000000B0F84810D0E90F2C436C02EB010E99
:1028A000B0F84A10B0F84E206144C0E90FE103EBE4
:1028B000020C4289C0F844C0013293B21E2B4281FF
:1028C00038BF10BD48F68904C8F68804AEFB043250
:1028D000A1FB0413ACFB0414110981811909C18106
:1028E000210901820021C0E90F11416441810121C8
:1028F0000170416110BD000070470000704700008A
:102900000068C06C7047000010B50446006841685C
:10291000890644BF01685FEA81710AD441680906EB
:1029200044BF01685FEA417129D44168490659D41E
:1029300010BDA16AC90603D4A16A41F40071A16265
:10294000816801F46021B1F5602F10D1217B71B94C
:10295000416821F020014160A06A20F48070A062EB
:10296000A06AC00403D4A06A40F00100A06220461F
:10297000FFF782FF20686FF012010160CEE7A16AC5
:10298000C90603D4A16A41F40051A162816801F42F
:10299000E041B1F5E04F0FD1416821F08001416085
:1029A000A06A20F48050A062A06AC00510D4A06A7A
:1029B00040F00100A0620BE04168490508D481683D
:1029C00001F46021B1F5602F02D1217B0029E3D011
:1029D0002046FFF795FE20686FF00C01016041680A
:1029E0004906A5D50068C00708BF10BDA06A40F41D
:1029F0008030A062204600F0B1F820686FF001013D
:102A0000016010BD002804BF0120704770B5064664
:102A1000044656F8280F20B120688168C9070BD0FA
:102A200031E00020E06284F82400204600F098F8AD
:102A300020688168C90726D132683168D2063CD443
:102A400041F2021291430231A162E169D4E90132FB
:102A500041EA030C531EB3FA83F35D091346B2F542
:102A6000807F18BF2B02217D257B01294CEA45017F
:102A700033D13DB3A56A45F02005A562E56A45F06E
:102A80000105E56229E0816821F00101816000F023
:102A900005FF054620688168C907CDD000F0FEFE1D
:102AA000401B0328F6D3A06A40F01000A062E06A41
:102AB00040F00100E062A06AA16A41F0100101202B
:102AC000316070BDD4F818C04EF20005CFF6FF7526
:102AD00005EB4C352B4343F400634568B2F5807F2A
:102AE00025F4694543EA0503436083684FF2FD75A9
:102AF000CFF6E17503EA050343EA0103836001D0E1
:102B0000012A06D122690023CFF6F07303EB0252AB
:102B100000E00022C36A23F470031A43C262806893
:102B200040F6FE62CFF61F721040884207D10020A7
:102B3000E062A16A012262F30101316070BDA06A06
:102B400040F0100020F00200A06254F82C0F40F07A
:102B5000010101202646316070BD00007047000071
:102B6000B0B586B00446006842F60001C4F2010127
:102B700088424FF00001CDE90411CDE9021146D0A1
:102B800042F20041C4F20101884269D141F21800C9
:102B9000C4F20200016841F400710160016801F4AF
:102BA000007101910199016841F004010160006820
:102BB00002A900F00400019001981B20029003205C
:102BC000039040F60000C4F2010000F04FFD40F613
:102BD00070450820C2F20005C4F202000021C5E9D8
:102BE000000105F1080080224FF480734FF4806CDF
:102BF0004FF0200E80E80E502846E96100F09AFB65
:102C0000002818BFFFF792FC25626C6220E041F2B9
:102C10001800C4F20200016841F48061016001689B
:102C200001F4806101910199016841F004010160A2
:102C3000006802A900F0040001900198442002906D
:102C40000320039040F60000C4F2010000F00EFDE6
:102C500012200021002200F09FFE122000F08CFEC6
:102C600006B0B0BD2DE9F04182B000270D46044604
:102C7000019700F013FE21688A68D20543D4064606
:102C80004868C00503D4C86A10F4700F45D040F2FC
:102C9000AC00C2F20000076842F292480220C1F282
:102CA000492801F003FB216844F624130A69B7FBA5
:102CB000F0F0C2F292431A4206D1CA6844F62413D5
:102CC000C0F292031A4247D00A6912EA080F07D1EC
:102CD000CA6842F29243C0F249031A4200F082806D
:102CE0000A6949F24923C0F224031A424FF0FC0258
:102CF00040D1CF681F4208BF5422019B02FB00F75E
:102D0000BB423CD376E0A06A40F02000A06284F889
:102D10002470012002B0BDE8F0810868800769D402
:102D2000002D54D0681C11D10868800762D408684F
:102D300080075CBF08685FEA80705BD40868800722
:102D4000F2D557E021680868800753D400F0A6FD4B
:102D5000801BA842F6D93AE00A6912EA080F4FF040
:102D6000290207D1CB6842F29247C0F249073B42A1
:102D700008BF1422019B02FB00F7BB423AD235B3D5
:102D8000681C1FD10198013001900198B84231D2DE
:102D90000198013001900198B8422BD2019801307E
:102DA00001900198B84225D2019801300190019814
:102DB000B842E7D31EE000BF0198013001900198AE
:102DC000B84216D200F06AFD801BA842F4D9A06A6E
:102DD00040F00400A062002084F82400032002B028
:102DE000BDE8F0815422019B02FB00F7BB42C6D331
:102DF00000E021686FF012000860A06A40F40070E3
:102E0000A062886800F46020B0F5602F01D1207BBB
:102E100018B1002002B0BDE8F081A06A20F48070F3
:102E2000A062A06AC004F4D4A06A40F00100A062CD
:102E3000002002B0BDE8F081B0B582B0044690F841
:102E40002400012802D1022002B0B0BD012084F884
:102E500024000020019020688168C90741D1816861
:102E600041F00101816040F2AC00C2F20000006854
:102E70004DF68361C4F21B31A0FB0101880C019067
:102E80000198A0B1019801380190019878B101989A
:102E900001380190019850B10198013801900198D2
:102EA00028B101980138019001980028EAD100F07A
:102EB000F5FC054620688168C90712D100F0EEFCD8
:102EC000401B0228F6D9A06A40F01000A062E06A18
:102ED00040F00100E062002084F82400012002B0EC
:102EE000B0BDA26A42F2044140F20133C4F20101D2
:102EF0009A4302F5807301F57F729042A3622DD050
:102F0000A36A23F48013A36243685B0504D5A36A14
:102F1000012565F30D33A362A56A0023ED044FF08C
:102F2000000544BFE56A25F00605E56284F8243013
:102F30006FF002030360836803F46023B3F5602F2E
:102F400005D1904216D1096811F4702F12D0816812
:102F500041F480118160002002B0B0BD0B6813F411
:102F6000702FCDD0A36A43F48013A3620B685B0576
:102F7000CDD4D1E7816841F4A0018160002002B086
:102F8000B0BD0000F0B581B015460446026842F6B7
:102F90000000C4F2010082420E4605D042F2004019
:102FA000C4F2010082420AD142F20440C4F201009C
:102FB000006810F4702F02D0012001B0F0BD94F829
:102FC0002400012802D1022001B0F0BD012084F8C4
:102FD0002400002000909068C00742D190684DF610
:102FE000836140F00100906040F2AC00C2F200004A
:102FF0000068C4F21B31A0FB0101880C009000980E
:10300000A8B100BF009801380090009878B10098EE
:1030100001380090009850B1009801380090009855
:1030200028B100980138009000980028EAD100F0FB
:1030300035FC074622689068C00712D100F02EFCCC
:10304000C01B0228F6D9A06A40F01000A062E06A16
:1030500040F00100E062002084F82400012001B06B
:10306000F0BD42F20440A16AC4F2010040F60173CF
:10307000994300F57F7301F580719A42A16245D0B2
:10308000A06A20F48010A0625068400504D5A06AB0
:10309000012161F30D30A062A16A0020C9044FF044
:1030A000000144BFE16A21F00601E16284F82400D6
:1030B000206A40F66561C0F6000140F6CD6340F637
:1030C000B56700F1280CC0F60003C0F600078CE8D5
:1030D0008A006FF00201116091682B4641F4807103
:1030E000916002F14C01324600F060F9206881687D
:1030F00001F460228168B2F5602F0CBF41F4A00199
:1031000041F480118160002001B0F0BD016811F42C
:10311000702FB5D0A16A41F48011A162006840050A
:10312000BAD5B4E7B0B5044690F82400012804BF2E
:103130000220B0BD0121206884F824108168C907ED
:1031400008D1214651F8280F41F2011220EA02026B
:10315000002018E0816821F00101816000F09EFBF1
:10316000054600BF20688068C007EAD000F096FBE3
:10317000401B0328F6D3A06A214640F01000A0624D
:1031800051F82C2F012042F001020A60002184F83E
:103190002410B0BD10B50168D0E90FCEDCF80020D6
:1031A0000B685C072BD5042404FA0EF4144026D0D7
:1031B0000A68920603D40A6822F004020A602F22E9
:1031C000C4F20202914240F20402C4F202025DDD46
:1031D0003023C4F20203994273D04423C4F20203A1
:1031E000994274D05823C4F2020399427AD14FF421
:1031F00080231360C16A002940F07F8099E09C071A
:1032000029D5022404FA0EF4144024D00A68920648
:1032100006D40A6822F00A020A60012280F82120FE
:103220002F22C4F20202914240F20402C4F20202CE
:103230003BDD3023C4F20203994261D04423C4F23F
:10324000020399425FD05823C4F2020399425FD12E
:103250004FF4003364E01B076BD5082303FA0EF329
:103260001A4008BF10BD0A6822F00E020A60012150
:1032700001FA0EF2CCF804208163016B4FF48072E6
:103280000029028455D0BDE8104008470823C4F245
:103290000203994221D01C23C4F20203994221D196
:1032A00040231360C16A41BB43E00823C4F2020318
:1032B00099422BD01C23C4F20203994228D1202327
:1032C0002EE04FF480631360C16AB1B931E04FF46E
:1032D00080431360C16A81B92BE004231360C16A83
:1032E00059B926E002F168044FF08063A14208BF9B
:1032F0004FF480031360C16AD9B1BDE8104008479C
:103300004FF400730CE04FF4005309E0022307E090
:1033100002F168044FF00073A14208BF4FF400139C
:103320001360816A002280F8202011B1BDE81040AE
:10333000084710BD002804BF012070472DE9F04167
:1033400001684FF6F872CBF6FD724CF6CD430A4495
:10335000CCF6CC43A2FB03236FF0030707EA9303E9
:10336000002700F1040E00F11008C4F202079EE8E5
:10337000045098E87001C0E90F730B6843F6F077CA
:10338000BB431A4342EA0C0242EA0E0222432A439A
:10339000324342EA08020A6000214FF480728163DE
:1033A0000284BDE8F041084670470000F0B590F88F
:1033B00020C0BCF1010F32D090F821C04FF0010EB7
:1033C000BCF1010F80F820E026D14FF0020C80F80C
:1033D00021C04FF0000CC0F838C0D0E900C4C56A65
:1033E000C66BDCF80070102C27F00107CCF80070D9
:1033F000006C0EFA00F070600846CCF8043004BF90
:1034000010460A46CCF80800CCF80C20DCF8000086
:103410003DB140F00E000CE0002180F820100220A9
:10342000F0BD20F00400CCF80000DCF8000040F013
:103430000A00CCF80000DCF8000040F00100CCF8F5
:1034400000000020F0BD0000B0B5044600F026FAF0
:10345000054640F24800C2F200000078611C18BF27
:10346000044400BF00F01AFA401BA042FAD3B0BDDA
:103470002DE9F04381B041F20016C2F20006327E1F
:10348000012A03D1022001B0BDE8F08305460120E6
:103490002C6830764CF250308846FFF74DF8022CFD
:1034A0001CD100284ED1002042F21004F061C4F279
:1034B0000204206840F004002060206840F04000D2
:1034C00020604CF25030FFF737F8216821F00401FA
:1034D00021600021317601B0BDE8F08390BB4FF050
:1034E000FF30C8F80000D5E9027007EB8020874262
:1034F00028D242F21004C4F202044FF0000900BFC7
:10350000C6F81C90206840F00200206067602068C8
:1035100040F0400020604CF25030FFF70DF8216879
:1035200021F00201216098B9D5E9020107F5806711
:1035300000EB81208742E3D300200021317601B0E7
:10354000BDE8F08301200021317601B0BDE8F083B1
:10355000C8F800700021317601B0BDE8F0830000AA
:1035600042F21001C4F20201086840F0800200201B
:103570000A6070472DE9F04F81B041F20018C2F2A5
:103580000008924698F81820012A03D1022001B0C1
:10359000BDE8F08F8146012088F818004CF25030C9
:1035A0001C460E46FEF7C8FF28B1002188F8181007
:1035B00001B0BDE8F08F4D4642F21007B9F1020F9D
:1035C00018BF0425C4F20207B9F1010F08BF4D4628
:1035D0006FF01F0900204FF0000B00BF20220023D6
:1035E0000101A2EB0012C8F81C3004FA02F22AFA18
:1035F00001F13B68114309EB0012002A58BF24FA7D
:1036000002F143F001023A6026F810104CF25030FB
:10361000FEF792FF3968002821F001013960C4D11A
:103620000BF1010B5FFA8BF08542D7D80020002107
:1036300088F8181001B0BDE8F08F000042F20400D5
:10364000C4F20200C16809065CBF0020704740F266
:103650002311C4F26751016048F6AB11CCF6EF516B
:103660000160C068C0F3C010704700002DE9F04F42
:1036700082B00E68002E00F0018140F2004E41F24F
:1036800000424FF6FF77C4F2010EC4F20102042398
:1036900000244FF0010CC1F210074FF00F0B4FF058
:1036A000000A4FF00009904208BF0323009345E051
:1036B0000123BB402B4342F82C30D1F804B04FF625
:1036C000FF775FEACB32DEF8002054BF22EA08021F
:1036D00042EA0802CEF80020DEF804205FEA8B33CD
:1036E00054BF22EA080242EA0802CEF804205FEA48
:1036F000CB23DEF8082054BF22EA080242EA08027F
:103700005FEA8B2340F20C43CEF80820C4F2010399
:103710004FF0010C1A68C1F210074FF00F0B54BFA5
:1037200022EA080242EA08021A600E680AF1010A57
:1037300036FA0AF204F1040400F0A0800CFA0AF848
:1037400016EA080FF1D04A68BA4211DC122A51D8A1
:10375000DFE802F0340A424650505050505050506A
:103760005050505050494D00D1F80C9042E000BFED
:103770004FF6FF73C1F221039A420FDC0023C1F21E
:1037800011039A421AD00023C1F212039A4215D0B3
:103790000023C1F221039A4210D02BE00023C1F292
:1037A00022039A420AD00023C1F231039A4205D083
:1037B0000023C1F232039A421CD100BF8A6842B191
:1037C000012A14BFC0F81480C0F810804FF0080917
:1037D00010E04FF004090DE0CA6802F1080909E0A1
:1037E0004FF0000906E0CA6802F1040902E0CA6865
:1037F00002F10C0922460346BAF1080F24BF203A11
:1038000004331D680BFA02F6B54309FA02F22A43A3
:103810001A60CA79D2067FF588AF41F21803C4F264
:1038200002031A684FEA9A0C42F001021A601A6801
:1038300004F00C0702F001020192019AAEF57E72CB
:1038400052F82C3040F600060BFA07F5C4F20106D8
:10385000B04223EA05050FD040F60043C4F201034D
:1038600098423FF425AF41F20003C4F201039842AD
:10387000009B08BF02231CE700231AE702B0BDE843
:10388000F08F00008068084018BF012070470000DA
:10389000002A08BF090401617047000041F22010AE
:1038A000C2F200000068704740F2480041F2201167
:1038B000C2F20000C2F2000100780A6810440860F9
:1038C0007047000080B542F20000C4F202000168B7
:1038D00041F010010160032000F08AF8002000F0A0
:1038E00005F800F027F8002080BD000070B540F218
:1038F0004806C2F2000640F2AC013278C2F2000182
:103900004FF47A730968B3FBF2F20446B1FBF2F1AB
:10391000084601F03BFA0F2C4FF0010508D838B9E2
:103920004FF0FF3021460022002500F035F874608A
:10393000284670BD82B041F21800C4F2020001684E
:10394000022241F001010160016801F001010191D1
:103950000199416841F080514160406800F0805019
:10396000009000980420C4F20100016862F31A611B
:10397000016002B070470000002848BF704700F0A7
:103980001F01012202FA01F14EF200124009CEF2AB
:10399000000242F82010704710B54EF60C5CCEF2D3
:1039A000000CDCF80030C3F3022E8EF00704042C68
:1039B00028BF0424BEF103034FF0FF3E0EFA04F4C7
:1039C00038BF0023A14399400EFA03F39A4300F055
:1039D0000F03043B1143634409010C3300F16042BF
:1039E000B0F1FF3FC8BF02F56443197010BD00007D
:1039F0004EF60C51CEF200010A684FF6FF031A4052
:103A000060F30A2242F0806040F0FD700860704769
:103A100001F0070C00EB4C1C0CF1280C00EB4110E2
:103A2000090658BF00F5947C4AB101208CF80C00BF
:103A3000180CACF80A000020ACF8083070470020E1
:103A40008CF80C000020ACF806307047704700007E
:103A5000D0F8683200EB4110C26B184604F06EBB20
:103A6000D0F8683200EB4110D0F83C21184604F041
:103A7000C7BB000010B50446080601F0070004EBC0
:103A8000401205D402F59471002382F8293104E034
:103A9000012302F1280182F8293094F828220870C5
:103AA000012A04BF022010BD2068012284F82822C8
:103AB00005F0CCF8002084F8280210BDB0B504460B
:103AC000406801F00F02824284BF0120B0BD0806A9
:103AD00001F0070004EB401205D402F594710023B5
:103AE00082F8293104E0012302F1280182F829300B
:103AF00094F828220025012A8D70087004BF022046
:103B0000B0BD2068012284F8282205F045F9284636
:103B100084F82852B0BD000001F0070100EB41100D
:103B2000D0F8440170470000B0B50546080601F022
:103B3000070005EB401C05D40CF5947100248CF8AB
:103B4000294104E001240CF128018CF829404C782B
:103B50000870002C0A61CB7018BFC881022B04BF0B
:103B60000020087195F82802012804BF0220B0BD8A
:103B70002868012285F8282204F03EFF002085F8FD
:103B80002802B0BD10B501F0070C00EB4C1E006818
:103B90000EF594710024CEF83C21CEF84031CEF8D9
:103BA00044418EF829418EF828C105F04FF90020D4
:103BB00010BD0000B0B50446406801F0070585421D
:103BC00084BF0120B0BD080607D404EB411000F506
:103BD0009471002280F8292106E004EB45100122AF
:103BE00000F1280180F8292094F8280201220128F8
:103BF0008A700D7004BF0220B0BD206884F82822AE
:103C000005F00AF91DB1002084F82802B0BD206833
:103C100004F50C7105F0BEF8002084F82802B0BD50
:103C200080B501F0070C00EB4C1101F828CF01F131
:103C3000140E4FF0000C8EE80C10006801224A7040
:103C400005F004F9002080BD2DE9F04F81B0044655
:103C5000006805F057FA01462068090405D5B0F957
:103C60004410B1F1FF3F40F3A78005F04BFA400547
:103C700019D52068B0F8441021F48061A0F84410F0
:103C8000204600F0AFFA94F8280201280BD001205A
:103C9000002584F8280284F824502068002105F0CB
:103CA0008DFA84F82852206805F02CFA0146206825
:103CB000490405D5B0F8441021F48041A0F844101F
:103CC00005F020FA01462068890405D5B0F84410B3
:103CD00021F40051A0F8441005F014FA01462068C0
:103CE000C90410D405F00EFA000526D4206805F0AA
:103CF00009FA800547D4206805F004FAC00551D4BC
:103D000001B0BDE8F08FB0F8401021F00401A0F838
:103D10004010B0F8401021F00801A0F840102046F3
:103D200000F072FA2068B0F8441021F48051A0F835
:103D3000441005F0E7F90005D8D52068B0F8401028
:103D400041F00801A0F84010B0F8441021F40061DF
:103D5000A0F84410B0F8401041F00401A0F8401061
:103D600005F0D0F9C00406D52068B0F8441021F45D
:103D70008051A0F84410204600F084FA206805F035
:103D8000C1F98005B7D52068B0F8441021F400715E
:103D9000A0F84410204600F03BFA206805F0B2F984
:103DA000C005ADD52068B0F8441021F48071A0F8AA
:103DB000441001B0BDE8F08F04F50C7140F60F75AA
:103DC000009113E001F0070704EB471101F8287F89
:103DD000C1E905320022CA6101224A7005F036F8B5
:103DE0002068B0F9441000297FF53FAFB0F84420B7
:103DF00012F00F0B30D030F82B804FEA4B0A5FEAFD
:103E0000084140F1F38030F81A1004EB4B172940B9
:103E1000803120F81A1097F8341107F594790029A9
:103E200000F0848099F8001030F82120B0F850306C
:103E3000520403EBC10100EB410100F18E80B1F8A7
:103E40000C646FF39F26002E00F0B080D7F83C1171
:103E5000B7F832218AE000BF0188D2062AD429406F
:103E600001F500410180B0F8501094F8282001EBD2
:103E7000C20100EB4100B0F80404E16B6FF39F2036
:103E800060640844E06320460021FFF7E1FD94F8F8
:103E900024000028A4D0206C0028A1D194F824008C
:103EA000216840F08000C0B2A1F84C00002084F8E6
:103EB000240095E70A055DD4090491D501882940BD
:103EC00080310180B0F8501094F8282101EBC20134
:103ED00000F20C4232F811306FF39F23C4F84431E2
:103EE000A3B1D4F83C1189B1B4F82E2105F00EF934
:103EF000D4F83C01D4F844110844C4F83C012046ED
:103F00000021FFF7ADFD206800F20C42B0F8501020
:103F1000D4F83831002B00F0AA803E2B00F2B2809A
:103F200003F0010707EB53039B02B8E0B0F8501011
:103F300099F8002001EBC20100EB4101B1F80C64DB
:103F40006FF39F26002E00F09080D7F83C11B7F851
:103F50002E21334605F0DAF834E0B1F804646FF34B
:103F60009F261EB3D7F83C11B7F83021334605F031
:103F7000CDF81CE0B0F8501094F8282101EBC201F4
:103F800000EB4101B1F80C34B4F82E2100996FF325
:103F90009F23C4F8443105F0B9F82068018829400E
:103FA00080310180204600F04BF919E70026206897
:103FB00099F8001048F2C00330F821202A401A4333
:103FC00020F82120D7F84421D7E94F103244C7F810
:103FD00044218A19C7F83C2118B1D7F83811B142E9
:103FE0002AD999F800102046FFF73AFD5FEA0860E9
:103FF0007FF5F6AE206804EB4B1730F81A10294015
:1040000001F5004120F81A10B0F8502097F8281058
:1040100002EBC10200EB4202B2F804346FF39F23BB
:104020007B64D7E90F623344002AFB637FF4CAAE96
:104030002046FFF70DFDD3E699F8001001F00703C5
:1040400004EB4317C7E94F200020C7F8440187F865
:104050002901206807F5947187F8283104F0F6FEED
:104060005FEA08607FF5BCAEC4E70026AAE78B5A7A
:1040700048F2000723F4F8438B528B5ACFF6FF77B0
:104080003B430CE05F09DE064FF0FF3608BF06EB4E
:10409000531748F20003CFF6FF7343EA87238B528E
:1040A000018843F60F72114048F2C00202F53F52F8
:1040B0005140018094E60000F0B585B000285CD046
:1040C000044690F8290228B9002084F828022046E6
:1040D00000F064F8032084F82902206804F050FE00
:1040E00094E82F50D4E907678DE82050CDE90367A5
:1040F00004F0AAFD00283DD120680021002505F02C
:104100005BF8616831B301200023002204EB431700
:1041100087F82820D3B20132FB86D3B2994287F8C0
:10412000290087F82B50C7E90E553D64EED80020D2
:104130000023002204EB431787F828210132D3B271
:10414000994287F8290187F82B01C7E94E00C7F883
:104150004001EFD804F10807D4E9056520688CCF49
:10416000D4E907CECDE9007602AE86E8205004F00F
:10417000F3FD30B1022084F829020125284605B05C
:10418000F0BD0025012084F8245084F8290220681D
:1041900004F0E0FD284605B0F0BD000080B582B017
:1041A000006845F60041C4F2000188421CBF02B01D
:1041B00080BD41F21C00C4F202000168002241F4FB
:1041C000000101600068002100F4000001900198E6
:1041D0001420FFF7E1FB142002B0BDE88040FFF798
:1041E000CBBB000010B504468068022818BFFEF75C
:1041F0009DF9D4F86802012104F006F9D4F86802A8
:10420000BDE8104004F0BEB8D0F8680204F0E4B88D
:10421000D0F8680204F0EAB810B5044690F8280215
:10422000012804BF022010BD012084F8280284F870
:104230002410206804F0C2FF002084F8280210BD7A
:10424000D0F8682200F50C71104604F0F3B80000B5
:1042500010B5044690F82802012804BF022010BDC2
:10426000012084F8280220460121FFF7EFFB206897
:1042700004F06EFD206804F035FF002084F8280269
:1042800010BD000010B50446D0F8680204F026F90D
:10429000A069002808BF10BD4EF61050CEF20000F5
:1042A000016841F00601016010BD000080B50128E1
:1042B00018D0022835D0102831D141F20401C4F2BF
:1042C00002010A6851F8040CC00128D5C2F38340EA
:1042D0002CA3185CD2033BD440F60012C0F23D027E
:1042E000504341E041F20400C4F20200C16940F2CF
:1042F00002320A40B2F5817F04BF4FF4004080BD16
:1043000001F44071B1F5407F1AD0B1F5007F06D1BC
:10431000006A49F64041800701EAE07080BD002054
:1043200080BD00F09BF941F20401C4F2020109686A
:104330000222C1F3813102EB4101B0FBF1F080BDFB
:1043400050F8040C4FF22441800301EAE07080BD74
:104350000A6810A3C2F340429A5C41F20023C0F203
:104360007A03B3FBF2F250430968490248BF80BDAB
:104370004AF6AB214000CAF6AA21A0FB0101480879
:1043800080BD00BF02030405060708090A0B0C0DD7
:104390000E0F1010010200002DE9F04182B004461A
:1043A000007841F21C06C007C4F202064ED0306805
:1043B000C0000BD430684FF0010840F080503060EE
:1043C000306800F080500190019801E04FF0000843
:1043D00047F20007C4F200073868C00512D43868F5
:1043E00040F480703860FFF759FA05463868C00518
:1043F00008D4FFF753FA401B6428F7D9032002B012
:10440000BDE8F081706810F4407012D0616801F46A
:10441000407188420DD0706840F24042C4F242229E
:10442000012320F4407113600023C0071360716002
:1044300029D17068616820F440700843B8F1000F1A
:10444000706003D0306820F08050306020688107B1
:1044500007D556F8181CA26821F44041114346F8CC
:10446000181CC00603D4002002B0BDE8F08156F845
:10447000180CE16820F48000084346F8180C00206E
:1044800002B0BDE8F081FFF709FA054641F288372E
:1044900070688007CDD4FFF701FA401BB8424FF097
:1044A0000300F5D9ECE700002DE9F04381B00028C6
:1044B00000F0838042F20008C4F202080446D8F8F3
:1044C00000000D4600F0070088420CD2D8F800002A
:1044D00020F007002843C8F80000D8F8000000F0DA
:1044E0000700A84269D1206841F204098107C4F29B
:1044F000020917D5410705D5D9F8001041F4E0614C
:10450000C9F80010010705D5D9F8001041F4605131
:10451000C9F80010D9F80010A26821F0F001114389
:10452000C9F80010C00741D1D8F8000000F007001A
:10453000A8420CD9D8F8000020F007002843C8F89A
:104540000000D8F8000000F00700A84235D120682C
:10455000410707D5D9F80010E26821F4E061114362
:10456000C9F80010000708D5D9F80000216920F427
:10457000605040EAC100C9F80000D9F8002002F0FC
:104580000C00082841F20020C0F27A004BD14CF216
:104590008E63C2F38341C0F60003595CD20336D464
:1045A00040F60010C0F23D0048433CE0606801283E
:1045B00007D159F8041C89030CD4012001B0BDE8CF
:1045C000F08359F8041C022802D18901F5D501E0D5
:1045D0008907F2D5D9F8001021F003010843C9F882
:1045E0000000FFF75BF9064641F28837D9F8000072
:1045F000616800F00C00B0EB810F95D0FFF74EF929
:10460000801BB842F2D9032001B0BDE8F083D9F88D
:1046100000204CF27843C2F34042C0F600039A5C9B
:104620004843B0FBF2F0D9F800104CF27A42C1F3E3
:104630000311C0F60002515C40F2AC0220FA01F115
:1046400040F24C00C2F200000068C2F200021160A9
:10465000FFF74CF9002001B0BDE8F08340F2AC0058
:1046600041F20401C2F20000C4F2020100680968CC
:104670004CF28A42C1F3C221C0F60002515CC8402C
:10468000704700002DE9F04182B0002867D0044651
:10469000007841F20006C007C4F2020624D0706818
:1046A00000F00C0004281AD0706800F00C000828F4
:1046B00002D17068C00312D46068002800F0418104
:1046C000B0F5803F07D03168B0F5A02F40F06E8183
:1046D00041F480203060306840F480306CE1306814
:1046E000800301D56068D0B32078800718D5706842
:1046F00010F00C0F07D0706800F00C00082856D19D
:104700007068C00353D43068800702D5206901283F
:1047100025D13068616920F0F80040EAC1003060BE
:10472000207800071FD42078400731D4E56995B17F
:10473000706800F00C00082840F08B80012D0ED02E
:104740007068216A00F480328A4208D1616A00F4FC
:104750007010884203D1002002B0BDE8F081012032
:1047600002B0BDE8F081A069B8B30020C4F24220D5
:104770000121C0F88014FFF791F80546706A8007A0
:1047800000F18A80FFF78AF8401B0228F6D920E161
:10479000F069C00033D4F0694FF0010840F0805058
:1047A000F061F06900F080500090009829E02069E5
:1047B000002840F20000C4F2422000F0978001215E
:1047C0000160FFF76BF8054630688007A1D4FFF75A
:1047D00065F8401B0228F7D9FBE00020C4F2422014
:1047E0000021C0F88014FFF759F80546706A800769
:1047F00099D5FFF753F8401B0228F7D9E9E04FF0AD
:10480000000847F20007C4F200073868C00510D45A
:10481000386840F480703860FFF740F8054600BF04
:104820003868C00505D4FFF739F8401B6428F7D96C
:10483000CFE0E06800286BD0012806D0316A052857
:1048400040F0968041F004003062306A40F0010090
:1048500094E00027C4F2422700203866FFF71EF8D4
:10486000022D05460CD100BF3068800140F1B580B3
:10487000FFF714F8401B02284FF00300F4D96BE750
:10488000306880017FF567AFFFF708F8401B02280A
:104890004FF00300F4D95FE740F2AC00C2F2000031
:1048A000006844F6D351C1F26201A0FB0101480A3D
:1048B000019000BF00BF0198411E002801913FF404
:1048C00032AF00BF0198411E002801913FF42BAF89
:1048D00000BF0198411E002801913FF424AF00BFA2
:1048E0000198411E00280191E4D11CE700210160DC
:1048F000FEF7D4FF054600BF306880077FF510AF94
:10490000FEF7CCFF401B02284FF00300F4D923E749
:10491000306A20F001003062306A20F0040030621A
:10492000FEF7BCFF054641F2883700BF306A8007BA
:1049300033D5FEF7B3FF401BB8424FF00300F5D963
:104940000AE7306820F480303060306820F480203E
:104950003060FEF7A3FF0546306880037FF5C4AEE4
:10496000FEF79CFF401B64284FF00300F4D9F3E6E8
:1049700021F001003062306A20F004003062FEF75E
:104980008DFF054641F28837306A800705D4FEF76F
:1049900085FF401BB842F7D91BE0B8F1000F3FF488
:1049A000C5AEF06920F08050F061BFE621F48030A0
:1049B0003060306820F480203060FEF76FFF0546DD
:1049C000306880033FF590AEFEF768FF401B642817
:1049D000F6D9032002B0BDE8F081206AB0F5803F2F
:1049E00005D17168A26821F40031114371607168CA
:1049F000626A21F474111043084370600120386624
:104A0000FEF74CFF044600BF306880013FF5A3AEBF
:104A1000FEF744FF001B02284FF00300F4D99BE689
:104A200070B5C0B300268662054690F851004FF07D
:104A3000000C30B9284685F8506000F02FF8D5F802
:104A400028C0022185F8511095E80E40086820F032
:104A50004000086043EA02002A6940EA0E00104361
:104A6000D5E90523104303F400721043D5E9072468
:104A70001043204340EA0C000860042000EA134081
:104A80004860C86920F40060C86101206E6585F83F
:104A90005100304670BD012070BD000070B586B079
:104AA0000026044640F600000596CDE90366C4F2F0
:104AB0000100216800F520529142029601D006B013
:104AC00070BD41F21801C4F202010A6842F480523A
:104AD0000A600A6802F480520192019A0A6842F060
:104AE00004020A60096801F0040101910199A02102
:104AF0000291022103910321059102A9FEF7B6FD5F
:104B000040F6B4453020C2F20005C4F20200102184
:104B1000802285E8430005F10C004FF480734FF4C8
:104B2000806C80E80C102846C5E90666FEF702FC9A
:104B3000002818BFFDF7FAFCA5646C6206B070BDD2
:104B40002DE9F04381B0044690F85000012803D1CC
:104B5000022001B0BDE8F0834FF001091D46164662
:104B60000F4684F85090FEF799FE94F851100129F1
:104B70005AD18046002F4FF0010018BF002E00F0E0
:104B8000FA800320002184F8510061652763A6861E
:104B9000E686A163A187E187A0682164B0F5004F94
:104BA0002068616403D1016841F4804101600168BB
:104BB000490603D4016841F0400101606168731E39
:104BC000E268B1FA81F1B3FA83F349095B09B2F5FE
:104BD000006F41EA03013ED131B137F8021BC160D9
:104BE0002763E18E0139E186E18E00296CD0691CD2
:104BF00022D000BF8168890706D4FEF74FFEA0EBE4
:104C00000800A84208D3BEE0216B31F8022BC26035
:104C10002163E08E0138E086E08E002854D02068C1
:104C200081688907E9D5EFE70220A4E0FEF736FEA8
:104C3000E08E70B948E000BF81688907F6D5216B26
:104C400031F8022BC2602163E08E0138E086E08EED
:104C5000D0B32068F0E739B139780173206B0130A7
:104C60002063E08E0138E086E08E68B3681C0BD1CB
:104C70001AE0216B09780173206B01302063E08E0C
:104C80000138E086E08EF8B1206881688907F0D4A9
:104C9000FEF704FEA0EB0800A842F3D303206AE06D
:104CA000FEF7FCFDE08E78B1206881688907F7D5B2
:104CB000216B09780173206B01302063E08E01388D
:104CC000E086E08E0028EFD120688168090645D58E
:104CD000691C0DD0FEF7E2FDA0EB08012068A94297
:104CE00011D281680906F5D438E08168090635D506
:104CF0008168090632D58168090644BF81685FEA88
:104D000001612BD5F1E7416821F0E0014160616864
:104D1000B1F5827F0AD1A168B1F5004F02D0B1F59B
:104D2000806F03D1016821F040010160A16AB1F5F3
:104D3000005F07D1016821F400510160016841F46E
:104D400000510160012184F85110002184F85010B5
:104D5000616D41F02001616520216165A16831B973
:104D600000210091C1680091806800900098606DFA
:104D7000002818BF0120002184F8519084F85010B9
:104D800001B0BDE8F0830320F5E70000411E0020DC
:104D9000B0EB116F1CBF012070474EF21002CEF233
:104DA000000251604EF62351CEF20001F0230B7049
:104DB0000721906011607047704700007047000045
:104DC000B0B590F83C20012A04BF0220B0BD01F12B
:104DD00008053CCDD1E900CE23F47C5322F4705277
:104DE0001A432EF4F0431A432CF4E0431A4324F4FC
:104DF000C0431A432A43C96922F48042036811431D
:104E00005964002180F83C100846B0BD10B590F8F8
:104E10003C20012A4FF0020216D080F83D200268A3
:104E20005368D2F808C023F0700ED1E900342CF09A
:104E3000800143EA0E032143536091600121002267
:104E400080F83D1080F83C20104610BD006801F04D
:104E50001F010422036A02FA01F123EA010202623D
:104E6000026A11430162416C41F40041416481686E
:104E700001F00701062903D0016841F0010101603A
:104E800000207047006801F01F010422036A02FA43
:104E900001F123EA01010162016A0162026A41F241
:104EA00011110A4204D1026A40F244431A4204D06A
:104EB000026A0A4208D000207047426C22F4004285
:104EC0004264026A0A42F6D1016A40F24442114247
:104ED000F1D1016821F0010101600020704700005C
:104EE000002804BF0120704710B5044690F83D002B
:104EF00028B9002084F83C00204600F055F8022034
:104F000084F83D00206840F2FF730268C4F2000399
:104F100042F6004C9842C4F2010C14DCB0F1804F10
:104F200019D040F20041C4F20001884213D09842E7
:104F300017DCB0F1804F1CD040F20041C4F20001F8
:104F4000884216D019E0604505D040F60001C4F251
:104F500000018842EBD1A16822F070020A43984216
:104F6000E7DD604505D040F60001C4F2000188424B
:104F700003D1216922F440720A43A36922F080011F
:104F8000D4F804E0E268194360450160C262C0F8E9
:104F900028E002D16169CCF8301001214161002084
:104FA00084F83D1010BD000080B582B0006840F26A
:104FB0000041C4F20001884214D042F60041C4F21C
:104FC000010188420CD141F21800C4F202000168CC
:104FD00041F400610160006800F4006001900198F4
:104FE00002B080BD41F21800C4F202004168002204
:104FF00041F0020141604068002100F00200009091
:1050000000981D20FEF7C8FC1D2002B0BDE88040BE
:10501000FEF7B2BC0068C16841F00101C16081685F
:1050200001F00701062903D0016841F00101016088
:105030000020704780B590F83C20012A4FF0020212
:1050400000F0C080012380F83C3080F83D20D0F88B
:1050500000C04FF67772DCF8083023EA0202CCF881
:1050600008200B683F2B1CDD5F2B20DD602B4FD011
:10507000B3F5005F6CD0702B40F09E80D1E901E366
:10508000C968DCF8082043EA0E0322F47F4243EAB1
:1050900001211143CCF80810DCF8081041F0770129
:1050A00088E01F2B28DC5BB3102B29D084E0402B39
:1050B00061D0502B40F08080D1F804E0C968DCF862
:1050C0002030DCF8202022F00102CCF82020DCF88F
:1050D000182022F0F00242EA011123F00A0242EA0B
:1050E0000E02CCF81810CCF82020DCF8081041F0A3
:1050F000570121F020015DE0202B01D0302B5BD146
:10510000DCF8081021F07001194341F0070151E06B
:10511000D1F804E0C968DCF8203023F01003CCF8A3
:105120002030DCF81830DCF8202023F4704322F023
:10513000A00243EA013142EA0E12CCF81810CCF872
:105140002020DCF8081041F0670121F0100131E067
:10515000D1E901E3C968DCF8082043EA0E0322F430
:105160007F4243EA01211143CCF80810DCF8081013
:1051700041F480411EE0D1F804E0C968DCF8203039
:10518000DCF8202022F00102CCF82020DCF81820E6
:1051900022F0F00242EA011123F00A0242EA0E0272
:1051A000CCF81810CCF82020DCF8081041F04701AA
:1051B00021F03001CCF808100121002280F83D10C8
:1051C00080F83C20104680BD002804BF01207047B5
:1051D0002DE9F04F81B0044690F83D000D4628B906
:1051E000002084F83C00204600F088F8022084F873
:1051F0003D00206844F20702816840F2FF7391434A
:1052000081600268C4F2000342F6004C9842C4F286
:10521000010C14DCB0F1804F19D040F20041C4F20F
:105220000001884213D0984217DCB0F1804F1CD0A7
:1052300040F20041C4F20001884216D019E06045F6
:1052400005D040F60001C4F200018842EBD1A1680C
:1052500022F070020A439842E7DD604505D040F62F
:105260000001C4F20001884203D1216922F4407296
:105270000A43A36922F08001D4F804E0E2681943EC
:1052800060450160C262C0F828E002D16169CCF8D3
:1052900030104FF0010CC0F814C082688369D0F858
:1052A00020E0D5E90018D5E9027B41EA020AAA69A3
:1052B0004FF6FF7923EA090347EA02224FF6FC473B
:1052C000BA43D5E9077643EA0B0329691A4342EA50
:1052D000072242EA01112EF022026B6942EA08021B
:1052E00041EA063142EA0312C0F808A08161026275
:1052F00084F83DC0002001B0BDE8F08F70B586B0E5
:1053000000210591CDE90311006840F60002C4F2C6
:1053100000029042029149D0B0F1804F67D141F232
:105320001800C4F20200416840F6004441F0010157
:1053300041604168C4F2010401F001010191019949
:10534000016802AD41F0040101600168002601F02E
:10535000040101910199016841F0080101600068B0
:10536000294600F00800019001984FF40040029097
:10537000A4F58060CDE90366FEF778F90820CDE951
:105380000206204629460496FEF770F90420C4F26E
:10539000010001684FF6FF42CFF6FF02114041F0D5
:1053A000E06141F48071016006B070BD41F2180007
:1053B000C4F20200426842F004024260426802F015
:1053C00004020192019A026842F008020260006839
:1053D00000F0080001900198C020CDE9020140F6DC
:1053E00000400491C4F2010002A9FEF73FF906B0A3
:1053F00070BD0000042905D049B9016801206FF093
:10540000010210E0016810206FF010020BE001684B
:105410006FF01002086A20F001000862086A40F08C
:105420000100086210200B6A1A400A620A6A1043DF
:105430000862086840F0010200200A60704700001E
:105440007047000010B5016804460869800744BF32
:10545000C8685FEA807038D40869400744BFC868EC
:105460005FEA40703DD40869000744BFC8685FEA3E
:10547000007043D40869C00644BFC8685FEAC060D2
:1054800048D40869C0071CBFC8685FEAC0704ED125
:105490000869000644BFC8685FEA00604FD4086925
:1054A000400644BFC8685FEA406050D4086980067F
:1054B00046BFC8685FEA806010BD6FF020022046DA
:1054C0000A61BDE81040FFF779BC6FF00200086187
:1054D000012020778869800741D02046FFF7B0FF80
:1054E00043E06FF00400086102202077886910F41F
:1054F000407F3ED02046FFF7A3FF40E06FF008005A
:10550000086104202077C86980073CD02046FFF757
:1055100097FF3EE06FF01000086108202077C8690F
:1055200010F4407F39D02046FFF78AFF3BE06FF050
:1055300001000861204600F07BFA2168A8E76FF0BF
:10554000800008612046FFF737FC2168A7E76FF06D
:1055500040000861204600F0E9FA2168A6E72046ED
:1055600000F096F8204600F0FBF921680020207733
:1055700072E7204600F08CF8204600F0F1F921682F
:10558000002020776FE7204600F082F8204600F0E8
:10559000E7F92168002020776CE7204600F078F8D2
:1055A000204600F0DDF921680020207769E700003F
:1055B00070B586B0006840F20041C4F20001884234
:1055C0004FF00001CDE90411CDE9021136D042F6C9
:1055D0000041C4F20101884257D141F21800C4F2DF
:1055E0000200016840F6004441F0080101600168D2
:1055F000C4F2010401F0080101910199016802ADB2
:1056000041F0040101600068022600F004000190EE
:1056100001984FF4C0400290204629460396059613
:10562000FEF724F84FF44070CDE90206A4F580603F
:1056300029460596FEF71AF806B070BD41F218002B
:10564000C4F20200016841F008010160006802A98B
:1056500000F00800019001982020029002200390A1
:10566000059040F60040C4F20100FDF7FFFF042062
:10567000C4F2010001684FF2FF32CFF6FF02114081
:1056800041F0E06141F40061016006B070BD0000CE
:10569000704700002DE9F04390F83C30012B4FF0AB
:1056A000020300F0F4804FEAB2024FF0010C032A2B
:1056B00080F83CC080F83D3000F2E480DFE802F082
:1056C000023974AE03681A6A22F001021A621A469D
:1056D0001D6AD3F804E052F8184F0E6824F07304E2
:1056E0008F68344342F6004625F00205C4F20106F5
:1056F000B34245EA07050CD1CE6825F00C05D1E987
:10570000057826F0040635432EF44076374347EA01
:10571000080EC3F804E09C614F6809695F631D626D
:105720009F6947F008079F619F6927F004079F6101
:10573000A5E003681A6A22F010021A621A461D6A6E
:10574000D3F804E052F8184F0E6824F4E6448F684A
:1057500044EA062442F6004625F02005C4F201067C
:10576000B34245EA07150FD1CE68D1E905986FF02D
:10577000400707EA06162EF4406725F0C00547EA01
:105780008907354347EA880EC3F804E09C614F68F7
:1057900009699F631D629F6947F400679F619F6964
:1057A00027F480679F6169E003681A6A22F48072B7
:1057B0001A621A461D6AD3F804E052F81C4F0E68AC
:1057C00024F073048F68344342F6004625F40075D4
:1057D000C4F20106B34245EA07250FD1CE68D1E9EC
:1057E0000598360240F2FF47BE432EF4405725F499
:1057F000406547EA0917354347EA081EC3F804E045
:10580000DC614F680969DF631D62DF6947F00807E3
:10581000DF61DF6927F00407DF6130E003681A6A9F
:1058200022F480521A621A461D6AD3F8048052F894
:105830001C7F0E6827F4E6478C6847EA062E42F67E
:10584000004625F40055C4F20106B34245EA04358A
:1058500004D14C6928F4804646EA8418C3F80480D1
:10586000C3F81CE04F6809691F641D62DF6947F4D3
:105870000067DF61DF6927F48067DF610902136871
:1058800019431160002380F83DC080F83C30184671
:10589000BDE8F083002804BF0120704710B504461E
:1058A00090F83D0028B9002084F83C00204600F024
:1058B00055F8022084F83D00206840F2FF7302682A
:1058C000C4F2000342F6004C9842C4F2010C14DC0E
:1058D000B0F1804F19D040F20041C4F2000188427B
:1058E00013D0984217DCB0F1804F1CD040F2004139
:1058F000C4F20001884216D019E0604505D040F698
:105900000001C4F200018842EBD1A16822F07002CC
:105910000A439842E7DD604505D040F60001C4F235
:105920000001884203D1216922F440720A43A3692D
:1059300022F08001D4F804E0E26819436045016078
:10594000C262C0F828E002D16169CCF830100121B0
:105950004161002084F83D1010BD00007047000038
:1059600070470000006801F01F010122036A8A40AD
:1059700023EA02010162036A42F64441C4F20101D2
:105980001A43A1F144039842026206D0816801F0F3
:10599000070106290AD1002070470A6842F4004234
:1059A0000A60816801F007010629F4D0016841F01E
:1059B00001010160002070470246006801F01F01EC
:1059C00001238B40016A42F6444C9943C4F2010C16
:1059D0000162016AACF144039842016210D15CF8A3
:1059E000241C41F2111319420AD1016A40F24443C6
:1059F000194205D1DCF8001021F40041CCF8001068
:105A0000016A41F21113194204D00121002082F8E9
:105A10003D107047016A40F244431942F5D10168D4
:105A200021F0010101600121002082F83D10704742
:105A30002DE9F047006840F20041C4F200018842BD
:105A400018BFBDE8F08740F26824C2F20004208A43
:105A500006F070FA43F23336C4F25306314606F0CC
:105A6000E5FA4FF20007C4F27F57394606F018F9FD
:105A70000025C4F23015294606F0D8FAA1898246DD
:105A8000084606F057FA314606F0D0FA394606F0D5
:105A900007F9294606F0CAFAE1898046084606F069
:105AA00049FA314606F0C2FA394606F0F9F8002103
:105AB000C4F2483106F0F4F841F26F21C3F6033125
:105AC00006F0EEF840F26C04C2F20004D4E900756E
:105AD0008146A6685046394606F074FB4CF6CD4A1E
