:020000040800F2
:10000000C017002025020008817600080576000848
:100010007D760008C13500082DAD00080000000005
:1000200000000000000000000000000081840008C3
:100030002D3600080000000085760008658800085D
:100040003F0200083F0200083F0200083F0200088C
:100050003F0200083F0200083F0200083F0200087C
:100060003F0200083F0200083F0200081536000862
:100070003F020008213600083F0200083F02000846
:100080003F0200083F020008391100083F02000843
:1000900051AC00083F0200083F0200083F02000880
:1000A0003F020008B98800083F0200083F0200082C
:1000B0003F0200083F0200083F0200083F0200081C
:1000C0003F0200083F0200083F0200083F0200080C
:1000D0003F0200083F0200083F0200083F020008FC
:1000E0003F0200083F0200083F02000800F002F84B
:1000F00000F089F814A696E8000CB244B344DA453F
:1001000001D100F080F8BAE80F000FA696E83000A1
:10011000A5EB040504EB0607AAEB0704A7F101070A
:100120004FEA15154FEA3414A4F10104AC4201D38F
:1001300000F069F813F0010F18BFFB1A43F0010338
:1001400000F001F8DBE71847F4EB000014EC0000C6
:100150000A444FF0000C10F8013B13F0070408BFED
:1001600010F8014B1D1108BF10F8015B641E05D08B
:1001700010F8016B641E01F8016BF9D113F0080F40
:100180001EBF10F8014BAD1C0C1B09D16D1E58BFD2
:1001900001F801CBFAD505E014F8016B01F8016B09
:1001A0006D1EF9D59142D6D370470000704700000C
:1001B0000023002400250026103A28BF78C1FBD870
:1001C000520728BF30C148BF0B60704766290EF048
:1001D000768365290EF0738367290EF07083612999
:1001E0000EF06F83752900F08580002070471FB5E1
:1001F00000F000FE0400002000210DF073FFE0601D
:100200001FBD10B510BD00F021FF1146FFF7EFFF35
:100210000CF072FC00F03FFF03B4FFF7F2FF03BCE9
:1002200000F082FF0948804709480047FEE7FEE7E3
:10023000FEE7FEE7FEE7FEE7FEE7FEE7FEE7FEE796
:1002400004480549054A064B7047000069880008C4
:10025000ED000008C0110020C0170020C0130020CE
:10026000C01300200FB41CB50C0007AA009007D0E3
:100270004142A14202D32044401E01E04FF0FF3032
:10028000074B7B4469460190069800F076FD0020FC
:10029000002C01D0009908701CBC5DF814FB000014
:1002A0001B0B000070B5044685690068C10601D5C6
:1002B000302600E02026C00707D070BDD4E9012118
:1002C00030469047206A401C20626D1EF6D570BDF6
:1002D00070B5044685690078C00707D170BDD4E9C0
:1002E000012120209047206A401C20626D1EF6D517
:1002F00070BD00002DE9F041064600241068752904
:10030000314616A510D0AFF30080002802DA404233
:1003100013A507E031688A0701D512A502E0490755
:1003200004D511A5012401E0AFF3008000210A22C9
:1003300006F1240709E0B0FBF2FCB0FBF2F302FB8C
:100340001C00303078541846491C0028F3D123464D
:100350002A463046BDE8F04100F024B90000000014
:100360002D0000002B000000200000002DE9F05FB0
:10037000894604464FF0000ADFF874B1FB44C0F828
:1003800020A02046E1688847002874D0252806D0A0
:10039000D4E901219047206A401C2062F1E7002641
:1003A0005F462046E16888472028054607DB312D57
:1003B00005D2781910F8200C08B10643F1E7B00710
:1003C00001D526F00406C4F81CA00027C4F818A024
:1003D0002A2D09D028460DF0B5FD38B304EB870867
:1003E000303DC8F8185019E059F8041B204604EBBA
:1003F00087029161E1688847012F054618D1E069BD
:10040000002820DA26F020061DE0D8F8180000EBBE
:10041000800005EB40003038C8F818002046E1683D
:10042000884705460DF08EFD0028EED1012F0AD039
:100430002E2D08D12046E16888477F1C0546022FF3
:1004400046F02006C4DBA069002803DA404246F0EB
:100450000106A061F00701D026F010066C2D0BD02C
:10046000682D09D04C2D39D06A2D35D0742D35D05A
:100470007A2D33D016E038E0E1682F4620468847D1
:10048000B842054609D16C2F26D04FF48060E16850
:10049000064320468847054604E06C2F1AD04FF4E7
:1004A000807006430DB3A5F14100192802D820350C
:1004B00046F400664A462946204626604E46FFF727
:1004C00085FE80B101280BD0F61D26F0070000F153
:1004D000080956E74020E4E78020D8E70020D6E767
:1004E00006F104094DE7284652E7206ABDE8F09F6F
:1004F00026E6000010B5431C02E010F8011B71B1A4
:100500008107FAD14FF0013202C88C1A8C4314EAE9
:10051000C211F9D0C01A0A0603D0C01E10BDC01AFD
:1005200010BD0A0401D0801E10BD0902FCD0401E7F
:1005300010BD10B5044610F0030F08BF11F0030FF3
:1005400040F015804FF0013E121FC0F20E8051F8AE
:10055000043BA3EB0E0C2CEA030C1CEACE1C08BFD8
:1005600040F8043BF0D0A1F1040102F10402521E54
:1005700008DB11F8013B00F8013B002BF7D11146D5
:1005800000F016FC204610BD70477047704710B54C
:1005900000F034FC006810BD10B5044600F02EFCDD
:1005A000046010BD2DE9F0470D4699469246044679
:1005B00000F124080168880604D5E06921F01001E3
:1005C000216000E00120A84201DD471B00E0002778
:1005D000A1697A1902EB0900081AA0612078C00607
:1005E00002D42046FFF75EFE002608E0D4E9012190
:1005F0001AF806009047206A401C761C20624E457F
:10060000F4DB2078C0060AD52046FFF74BFE06E053
:10061000D4E9012130209047206A401C2062381E16
:10062000A7F10107F4DC07E0D4E9012118F805007F
:100630009047206A401C2062281EA5F10105F3DCCA
:100640002046FFF745FE2078000602D50220BDE8CF
:10065000F0870120FBE72DE9FF4F0C461E464FF0C7
:10066000FF378BB0D2E90001DDF860800A908A463E
:10067000C1F30A5505B93D46002108464FF0000078
:10068000BAF1000F00F4400005DA00EB80004FF4EF
:10069000400101EA50004FEA9059B9F1010F00DD25
:1006A000B9460A9850EA4A000ED044F61050A5F216
:1006B000FF3545432F14B8F1000F1ED07542291E97
:1006C0001EDDC9F100021CE0B8F1010F4FF000007F
:1006D00001D0302103E0F24305E02154401CB04238
:1006E000FBDB30460022002121540B99C1F8088021
:1006F000C1E900200FB0BDE8F08FBD1B6D1CDEE727
:100700004A4600DA694206A800F002FC06AB93E80C
:10071000070003AB83E8070050460A990DF02AF85A
:100720008DE80700A0F500501F3800900398002DB9
:100730000ADD42F21F014A460844002303A9039040
:1007400068460DF093FA09E0A0F500504A461F38BC
:10075000002303A9039068460DF09DFA8DE8070079
:100760000004000C03D04FF0FF30410800E01046B9
:10077000B8F1000F03D00022009215461EE0751E4E
:1007800005D400F03FFB303262556D1EF9D5B346FB
:100790000122084302D000227F1C04E02078302888
:1007A00001D100227F1E002A099784D01DE0112D5F
:1007B00007DA00F027FB303262556D1C50EA010267
:1007C000F5D1084302D00098C8B10EE00021681EA0
:1007D00005E0235C625C63542254401E491C814244
:1007E000F7DBAB46A81B401E0990002004F80B0065
:1007F0000B98099AC0F80880C0E9002B7AE7112607
:100800004FF0000857E72DE9F04F88460446D21D07
:1008100022F0070191B0D1E90001CDE90A010DF004
:1008200071FB02460B98C00F01D02D2007E0206815
:10083000810701D52B2002E0202101EAC000032A14
:10084000099001D0072A05DB03464146204600F007
:100850001FFB0BE12078800601D5E06900E006204F
:10086000B8F1650F814606D0B8F1660F18D0B8F11F
:10087000670F70D131E00020B9F1110F009001DB5A
:10088000112301E009F101030AAA01A90CA8FFF74D
:10089000E2FEDDE90C70002609F10105834647E020
:1008A00001204B4600904FF000470AAA01A90CA86E
:1008B000FFF7D1FEDDE90DB00C995D46002610B9B9
:1008C00009F101000D18B9EB050003D4C0F1FF36A2
:1008D00009F10105A5EB09002BE0B9F1010F01DADF
:1008E0004FF001090020B9F1110F0090484601DDD9
:1008F000112300E003460AAA01A90CA8FFF7ABFEEA
:10090000DDE90C704D4600268346207800070AD4A6
:10091000AB4500DA5D4601A8012D04DD411911F84F
:10092000011C302907D04F4502DA17F1040F04DA11
:10093000012082460FE06D1EEEE7002F02DCED1B6A
:100940003E4403E0781CA84200DD7D1CB81B00F18A
:10095000010A4FF000472078000703D4AA4501DBC5
:100960004FF0FF3A0021B7F1004F0DF143088DF829
:10097000431024D002202B23002F01DA7F422D23A5
:100980000A21021EA0F1010000DC5FB197FBF1FC1F
:1009900097FBF1F201FB1C7C17460CF1300C08F8B8
:1009A00001CDEEE7A8F1010003702188090501D50A
:1009B000452100E06521A0F1010800F8011C09981B
:1009C0000FA9A1EB0807FF1D00B10120411901EBA0
:1009D000EA70A1693844081A401EA0612078C00658
:1009E00002D42046FFF75EFC099828B1D4E9012122
:1009F0009047206A401C20622078C00622D52046FD
:100A0000FFF750FC1EE0002E04DBB34502DD01A819
:100A1000805D00E03020D4E901219047206A401C2D
:100A20002062761CAAF101005FEA000A0AD100F0F8
:100A3000E1F9C0680168405CD4E901219047206A6F
:100A4000401C2062281EA5F10105DCDC07E0D4E98A
:100A5000012118F8010B9047206A401C2062381EC3
:100A6000A7F10107F3DC2046FFF732FC032011B0A9
:100A700041E600002DE9F04F04460D46D21D22F05C
:100A8000070089B0D0E90097484639460DF03AFA98
:100A90000246F80F01D02D2307E02068810701D519
:100AA0002B2302E0202101EAC0038DF820300BB196
:100AB000012000E00020032A824601D0072A04DB3F
:100AC0002946204600F0E4F93FE12078800601D471
:100AD0000D2500E0E569C7F30A560D2D49DA00211E
:100AE0004FEA175B08464FF00000002F00F440006B
:100AF00007DA00EB80004FF4400100EBD07001EA10
:100B000060008115012901DD4FF0FF3100224FEA1D
:100B1000850CBCF1180F06D31346ACF118004FF04A
:100B20008052C24003E04FF4801323FA0CF30CF11F
:100B30000C0CBCF1200F04D3ACF1200C09FA0CF022
:100B400001E007FA0CF000294FF0004801DD18B968
:100B50000FE00ED140450CD319EB02095F4121B9DA
:100B6000404502D19F4329EA0209BBEB175F00D041
:100B7000761C2088000502D57B48784402E07A483C
:100B80007844193808AA302302F80A30037C0AF1A5
:100B90000101002E0AF1020A53546A4602DC4FF0AA
:100BA000300101E04FF031014FF001088DF80010E5
:100BB00002D0A6F2FF3603E059EA470100D06B4E9F
:100BC000002D02DC2178090704D54FF002082E2100
:100BD0008DF80110C44600210BE0C7F303433F0129
:100BE000C35C491C6D1E02F80830052908F1010894
:100BF00001DA002DF1DC00210CE000EB1973491C37
:100C00001B786D1E082902F808304FEA091908F10F
:100C1000010801DA002DF0DC21688B0602D516E010
:100C2000A8F10108E04505DD02EB080313F8013CDB
:100C3000302BF5D0B8F1000F09DD02EB080313F8F3
:100C4000013C2E2B03D1090701D4A8F10108002D86
:100C500005DD3E2102F808106D1E08F10108407CF8
:100C6000002E02F8080008F1010804DA2D2076426F
:100C700002F8080002E02B2002F808000A214FF4D5
:100C80007A70864208F101080BDB96FBF0F33033F3
:100C900002F8083096FBF0F308F1010800FB136638
:100CA00001E0642E0CDB642096FBF0F3303302F895
:100CB000083096FBF0F308F1010800FB136601E031
:100CC0000A2E06DB96FBF1F0303002F8080008F13E
:100CD000010896FBF1F001FB1060303002F80800CB
:100CE000A16908F1010808EB050202EB0A00081AE5
:100CF000A0612078C00602D42046FFF7D3FA216A0B
:100D000008AE01EB0A00206204E0D4E9012116F8E4
:100D1000010B9047BAF1010AF7D22078C00602D53C
:100D20002046FFF7BFFA6E4609E016F8010B3E2891
:100D30000FD0D4E901219047206A401C2062B8F10D
:100D40000108F2D22046FFF7C3FA09B00320BDE83C
:100D5000F08F206A2844206203E0D4E9012130208A
:100D600090476D1EEBD3F8E78DDE000002FCFFFF1D
:100D700001694A1C02610878704700B58FB0CDE95F
:100D800001310021059105497944CDE9031011464F
:100D90006846FFF7EBFA0FB000BD0000E5FFFFFF6C
:100DA000D1E900239A4202D2531C0B6010707047A5
:100DB0004FF000020429C0F0128010F0030C00F084
:100DC0001B81CCF1040CBCF1020F18BF00F8012B01
:100DD000A8BF20F8022BA1EB0C0100F00DB95FEACF
:100DE000C17C24BF00F8012B00F8012B48BF00F89C
:100DF000012B7047004870474802002000487047A8
:100E00002802002030B5B0F10A0271F100034FEA68
:100E1000900E4EEA817EB0EB0E0061EB91014FEA3D
:100E2000101E4EEA017E10EB0E0041EB11114FEA4D
:100E3000102E4EEA016E10EB0E0041EB11214FEA2D
:100E4000104E4EEA014E10EB0E0041EB11414018DE
:100E500041F100014FEAD00040EA41704FEAD10170
:100E60004FEA810444EA907410EB800544EB0104DE
:100E70006D1944EB0404521BA3414FF0000348BF1B
:100E80000A3200D530BD401C41F1000130BD0000E8
:100E90002DE9F0411F46044603260168072A01F4A4
:100EA000006004DB08B116A505E016A503E008B153
:100EB00015A500E015A521F010002060A069C01E56
:100EC000A0610FB1401EA0612046FFF7EBF94FB1C2
:100ED000D4E9012138469047206A401C2062C01C9A
:100EE000206206E0206AFAE7D4E9012115F8010B37
:100EF0009047761EF8D22046FFF7EAF9BDE8F08168
:100F00004E414E006E616E00494E4600696E6600AD
:100F10002DE9F047814616468AB0354878440DC819
:100F20008DE80D0032487844801C03AC0DC884E87D
:100F30000D0041F69B300844372190FBF1F290FB05
:100F4000F1F5A5F1800501FB12041B3C02D56442BA
:100F5000012000E00020DFF898A080460027FA4436
:100F6000AAF1BE0A0EE0E0070AD03246684607EB57
:100F7000470101230AEB81010CF08DFE8DE807008B
:100F800064107F1C002CEED1194F7F44AE3F19E056
:100F9000E80715D007EB04100DF1180A90E80E00D1
:100FA0008AE80E00C068F04201D1981908903246D4
:100FB000012306A903A80CF06EFE03AB83E807002B
:100FC0006D10641C002DE3D14FF0010332466946D9
:100FD000B8F1000F03A802D00CF048FE01E00CF0BD
:100FE0005AFEC9E90001C9F808200AB0BDE8F08737
:100FF0007CDB00004FF0000200B513469446964695
:10100000203922BFA0E80C50A0E80C50B1F120011B
:10101000BFF4F7AF090728BFA0E80C5048BF0CC0C9
:101020005DF804EB890028BF40F8042B08BF704727
:1010300048BF20F8022B11F0804F18BF00F8012B99
:101040007047000000487047280200207546FFF7EF
:10105000F9FFAE4605006946534620F00700854675
:1010600018B020B5FFF7ECF8BDE820404FF00006BF
:101070004FF000074FF000084FF0000BAC46ACE813
:10108000C009ACE8C009ACE8C009ACE8C00921F06F
:1010900007018D46704710B50446AFF30080204627
:1010A000BDE81040FFF7B8B84FF0013C50F8042BF2
:1010B00051F8043B9A4221D1A2EB0C03934313EA6B
:1010C000CC1317D150F8042B51F8043B9A4215D198
:1010D000A2EB0C03934313EACC130BD150F8042B6F
:1010E00051F8043B9A4209D1A2EB0C03934313EA53
:1010F000CC13DBD04FF00000704700BFD01A01BA0C
:10110000B1FA81F101F0180122FA01F0CB40DBB213
:10111000C0B2C01AC1F120012CFA01F3D11A9143D7
:1011200011EAC311E6D1704701491820ABBEFEE7B2
:10113000260002007047000080B540F20440C2F271
:10114000000002F041FC40F23440C2F20000BDE871
:10115000804002F039BC0000B0B5044600688168E8
:10116000C90701D10020B0BD816821F00101816073
:1011700003F01CFC054600BF20688068C007F1D062
:1011800003F014FC401B0328F6D3A06A40F01000C3
:10119000A062E06A40F00100E0620120B0BD000002
:1011A0000146406A826A12F0500F03D0006A026B57
:1011B000084610470168826A42F4007282628968B8
:1011C00001F46021B1F5602F01D1017B11B102F072
:1011D000B7BB00BF816A21F480718162816AC90452
:1011E00048BF02F0ADBB816A41F00101816202F0AB
:1011F000A7BB0000406A816A41F040018162C16A78
:1012000041F00401C16202F0D9BB0000406A02F063
:10121000D3BB0000B0B582B0044600200190216825
:101220008A68D2073FD1886840F00100886040F2A8
:10123000CC00C2F2000000684DF68361C4F21B319D
:10124000A0FB0101880C01900198A0B10198013820
:101250000190019878B1019801380190019850B13E
:10126000019801380190019828B101980138019046
:1012700001980028EAD103F099FB054620688068B0
:10128000C00713D103F092FB401B0328F6D3A06ADA
:1012900040F01000A062E06A40F00100E06200202F
:1012A00084F82400012002B0B0BD00BF002002B0CD
:1012B000B0BD00002DE9F04F8FB040F2A44940F2DC
:1012C000040A0646C2F200090028C2F2000AC9E96F
:1012D0000A010E92C9F8302000F002850D914FF6F8
:1012E0000841C0F6000151F8080C44F24222C4F251
:1012F0005522904240F0978451F8040CA0F101105F
:10130000052800F29084DFE810F00700E7024101B1
:1013100011024D00890300BF8A68D1E9000780EA05
:1013200002014EF2E172C1F60E027940053291429D
:1013300040F079840DF006F90025C4F2C82529464D
:101340000CF0B6FF044638460DF0FCF829460CF0C8
:10135000AFFF0C9020464FF07E510B940CF095FFA0
:10136000002840F0608400210B98C4F2F0110CF0CA
:1013700077FF002840F057844CF6CD410C98C3F617
:10138000CC510CF082FF002840F04D8400210C98D5
:10139000C4F220110CF064FF002800F0388300F044
:1013A00042BC00BF886AD1E900380A90C86AD1E916
:1013B00008540C900B93D1E9020ED1E904BCD1E999
:1013C00006720C99CDF83080594081EA08014140FD
:1013D00081EA0E0181EA0B0181EA0C017940039058
:1013E000CDF810E0CDF814B007970692514008955B
:1013F000099469400A984EF2E1726140C1F60E020A
:1014000041400132914240F00E840B9864460DF049
:1014100099F80027C4F2C82739460CF049FF0B9011
:101420000C980DF08FF839460CF042FF0C900398A1
:101430000DF088F839460CF03BFF054604980DF096
:1014400081F839460CF034FF049005980DF07AF8D5
:101450000027C4F2201739460CF02AFF83462046A5
:101460000DF070F839462F460CF022FF0A99022938
:1014700000F2D9830546DDE90610084308990843C0
:1014800009990843012800F2CE830B984FF07E5152
:101490000CF0FBFE002840F0C68300210B98C4F23C
:1014A000F0110CF0DDFE002840F0BD834CF6CD417C
:1014B0000C98C3F6CC510CF0E8FE002840F0B38342
:1014C00000210C98C4F220110CF0CAFE002840F054
:1014D000AA830021C4F2A00138460CF0D6FE0028F1
:1014E00040F0A1830021C4F20C2138460CF0B8FE74
:1014F000002840F0988304984FF07C510CF0C5FE12
:10150000002840F0908300210498C4F240110CF0B0
:10151000A7FE002840F087830021C4F2201158461E
:101520000CF0B3FE002840F07E830021C4F2963117
:1015300058460CF095FE002840F075830021C4F257
:10154000163128460CF0A1FE002840F06C830021E3
:10155000C4F2963128460CF083FE002840F06383E5
:101560000498DDE90932CAE9090B0798CAF8207026
:101570008AF80F000698CAF82C5089F800000898DD
:10158000002789F80C004FF07C5041E391E80148B6
:10159000D1E90742D1E90378D1E9055380EA020194
:1015A00081EA0B0181EA0E01794081EA0801694074
:1015B0004EF2E1725940C1F60E026140033291428F
:1015C0000A93099440F02F83079574460CF0BAFFF4
:1015D0000025C4F2C82529460CF06AFE0B90584637
:1015E0000CF0B0FF29460CF063FE0C9020460CF086
:1015F000A9FF29460CF05CFE089038460CF0A2FFCB
:1016000029460CF055FE834640460CF09BFF002710
:10161000C4F2201739460CF04BFE054607980CF033
:1016200091FF39460CF044FEDDE9092111430129FF
:1016300000F2F98207460B984FF07E510CF025FE20
:10164000002840F0F08200210B98C4F2F0110CF059
:1016500007FE002840F0E7824CF6CD410C98C3F617
:10166000CC510CF012FE002840F0DD8200210C98D5
:10167000C4F220110CF0F4FD002840F0D4820021C7
:101680000898C4F2A0010CF000FE002840F0CB82C4
:1016900000210898C4F20C210CF0E2FD002840F073
:1016A000C28258464FF07C510CF0EFFD002840F00C
:1016B000BA820021C4F2401158460CF0D1FD002836
:1016C00040F0B1820021C4F2201128460CF0DDFD6B
:1016D000002840F0A8820021C4F2963128460CF080
:1016E000BFFD002840F09F820021C4F21631384629
:1016F0000CF0CBFD002840F096820021C4F2963118
:1017000038460CF0ADFD002840F08D820898CAE9FB
:101710000A57CAE9080B0A9800278AF80F000998A7
:1017200089F80C7089F80000012272E14A6A91E898
:101730000149D1E904C701F1180580EA020181EAF3
:10174000080181EA0B0181EA0E0138CD81EA0C0122
:10175000794059404EF2E1726140C1F60E02694093
:1017600002329142CDF81CB00A930994089540F0DA
:101770005A82BB46654677460CF0E4FE0024C4F26C
:10178000C82421460CF094FD0B9040460CF0DAFE84
:1017900021460CF08DFD0C9007980CF0D3FE2146ED
:1017A0000CF086FD079038460CF0CCFE21460CF07C
:1017B0007FFD044628460CF0C5FE0027C4F2201722
:1017C00039460CF075FD054658460CF0BBFE39460F
:1017D0000CF06EFDDDE909211143089A114301293E
:1017E00000F2218207460B984FF07E510CF04DFD20
:1017F000002840F0188200210B98C4F2F0110CF080
:101800002FFD002840F00F824CF6CD410C98C3F616
:10181000CC510CF03AFD002840F0058200210C98D4
:10182000C4F220110CF01CFD002840F0FC810021C6
:101830000798C4F2A0010CF028FD002840F0F381C5
:1018400000210798C4F20C210CF00AFD002840F09A
:10185000EA8120464FF07C510CF017FD002840F043
:10186000E2810021C4F2401120460CF0F9FC00286E
:1018700040F0D9810021C4F2201128460CF005FD6A
:10188000002840F0D0810021C4F2963128460CF0A7
:10189000E7FC002840F0C7810021C4F21631384629
:1018A0000CF0F3FC002840F0BE810021C4F2963118
:1018B00038460CF0D5FC002840F0B58107980AF1B5
:1018C0002001B1C10A988AF80F00099889F8000030
:1018D000089889F80C009AE091E881084A69D1E9F2
:1018E000035380EA0201794081EA0B014EF2E17272
:1018F0006940C1F60E0259400432914240F0938192
:101900000B930CF01FFE0024C4F2C82421460CF0F7
:10191000CFFC804638460CF015FE21460CF0C8FC82
:101920000C9058460CF00EFE21460CF0C1FC074608
:1019300028460CF007FE21460CF0BAFC05460B9831
:101940000CF000FE0021C4F220110CF0B1FC834623
:1019500040464FF07E51CDF82C800CF096FC0028CC
:1019600040F0618100210B98C4F2F0110CF078FC7A
:10197000002840F058814CF6CD410C98C3F6CC516C
:101980000CF083FC002840F04E8100210C98C4F23A
:1019900020110CF065FC002840F045810021C4F2C4
:1019A000A00138460CF071FC002840F03C81002179
:1019B000C4F20C2138460CF053FC002840F033816F
:1019C00028464FF07C510CF060FC002840F02B8141
:1019D0000021C4F2401128460CF042FC002840F0DF
:1019E00022810021C4F2201158460CF04EFC002840
:1019F00040F019810021C4F2963158460CF030FCB9
:101A0000002840F01081CAE90875CAF828B0012200
:101A100000274FF07C500023FAE000BF086AD1E9AC
:101A200000EC0890D1E90940D1E90B750A90486BA8
:101A3000D1E9023A0C90CDF82CE0D1E90408D1E9C3
:101A4000062B0C99CDF830C081EA0E0181EA0C0119
:101A5000594081EA0A0141400093CDF804A0029068
:101A6000CDF80C8081EA08010592CDF810B0514004
:101A7000089881EA0B01099441400A98614041406D
:101A800079404EF2E17240F2040A6940C1F60E025A
:101A9000C2F2000A91420697079540F0C4800B9865
:101AA0000CF050FD0025C4F2C82529460CF000FCBE
:101AB0000B900C980CF046FD29460CF0F9FB0C90AD
:101AC00000980CF03FFD29460CF0F2FB044601980B
:101AD0000CF038FD29460CF0EBFB074602980CF0A1
:101AE00031FD0025C4F2201529460CF0E1FB0290DF
:101AF00003980CF027FD29460CF0DAFB07996329BF
:101B000000F2918083460698012800F28C800A98A2
:101B1000022800F28880DDE9041008430899084390
:101B20000999084301287ED80B984FF07E510CF09C
:101B3000ACFB002877D100210B98C4F2F0110CF017
:101B40008FFB00286FD14CF6CD410C98C3F6CC51D9
:101B50000CF09BFB002866D100210C98C4F22011E8
:101B60000CF07EFB00285ED10021C4F2A0012046CB
:101B70000CF08BFB002856D10021C4F20C2120462A
:101B80000CF06EFB00284ED138464FF07C510CF023
:101B90007CFB002847D10021C4F2401138460CF0EC
:101BA0005FFB00283FD100210298C4F220110CF005
:101BB0006CFBC0BB00210298C4F296310CF050FBC4
:101BC00088BB0021C4F2163158460CF05EFB50BBB6
:101BD0000021C4F2963158460CF042FB18BB029823
:101BE000CAE90847CAE90A0B05988AF80F00049861
:101BF00089F80000089889F80C0007980CF0A2FCFE
:101C00000021C4F2C8210CF053FBDDE90932069F24
:101C1000DDE90B5186F82430C6E9045186F8252009
:101C200086F82670B062D6E904570021C4F2F0119C
:101C300028460CF015FB00281CBF0025C4F2F01547
:101C400028464FF07E514FF07E540CF009FB0021E6
:101C50000028C4F22011384608BF254635610CF033
:101C6000FFFA4CF6CD45C3F6CC5500281CBF002723
:101C7000C4F22017384629460CF0F2FA002896F8EC
:101C8000240008BF2F460228776124BF002086F871
:101C9000240096F8250047F2A401032824BF012060
:101CA00086F8250096F82600C3F67D71022824BF29
:101CB000002086F82600B56A28460CF0D1FA0028E4
:101CC0001CBF47F2A405C3F67D75284600210024F9
:101CD0000CF0C6FA002808BF05460D99B56234839A
:101CE00051B108463C2104F07DFCD9E90B010068A4
:101CF0000E91406AA9F822000E9848B10E983C2136
:101D000004F070FCD9F830000068406AA9F824009B
:101D100040F60044C4F2010420464FF4807102F002
:101D200039FE8AF800008AF8040002F03FFEC9F884
:101D300034002046102102F02DFE8AF806008AF8B1
:101D4000080002F033FEC9F8380020464FF4007155
:101D500002F020FE8AF80A008AF80C0002F026FE43
:101D6000C9F83C0005F090FD0120012706F082FA39
:101D700004F58065002628464FF480410022A9F82A
:101D80000D6089F80F6002F00BFE06F051FE204650
:101D90004FF4006102F0FEFD8AF80D008AF80E0093
:101DA00002F004FE99F80010C9F84000481EB0FA8D
:101DB00080F0400906F016FF28464FF4005100223B
:101DC00002F0EEFD20464FF40041002202F0E8FD53
:101DD000D9F8280068B14168C9F844108168C9F889
:101DE0004810016889F80170C9F84C10C068C9F83A
:101DF000500002F0DBFDC9F8540002F0D7FDC9F82D
:101E0000580002F0D3FDC9F85C00A9F8026002F0A6
:101E1000CDFDC9F86000A9F8046002F0C7FDC9E96A
:101E20001906C9F86C60002089F806600FB0BDE89B
:101E3000F04F0AF033B900002DE9F04F8DB002F0F9
:101E4000B5FD40F2A44BC2F2000BDBF8281080462F
:101E5000002976D002F0AAFDDBF8286050213EB1BF
:101E600096F82520022A08BF9621002A08BF2821BB
:101E7000DBF85420821A8A4263D39BF80110CBF816
:101E8000540000294ED049F69A14C3F69964C2460C
:101E90006EB196F82500022804BF49F69A14C3F6DD
:101EA0001964002804BF4CF6CD44C3F60C740BF142
:101EB000440999E8A003706829460CF08BFC0146A0
:101EC00020460CF0BBFB29460CF054F9CBF844003B
:101ED000B06839460CF07EFC014620460CF0AEFBA3
:101EE00039460CF047F9CBF84800306841460CF011
:101EF00071FC014620460CF0A1FB41460CF03AF97A
:101F0000CBF84C00F06849460CF064FC01462046D2
:101F10000CF094FB49460CF02DF9D046CBF850005C
:101F20000FE000BF7068CBF84400B068CBF8480001
:101F30003068CBF84C00F068CBF8500001208BF8EB
:101F4000010040F6004AC4F2010A50464FF4006115
:101F500002F020FD044602F029FD40F20409C2F21D
:101F6000000999F80D108C4206D1DBF84010401A98
:101F7000962809D219E000BF014689F80D40CBF838
:101F80004000401A962810D399F80E0084420CD0D5
:101F90009BF8070089F80E40032806D1B4FA84F0B4
:101FA000D9F82C10400906F0ADFDDBF82860002EB2
:101FB00000F09986DBF82C0040B10068406ABBF85D
:101FC000221082B28A42ABF8220023D1DBF8300023
:101FD000002800F0A5830068406ABBF8241082B294
:101FE0008A42ABF8240000F09B839BF80720401A3C
:101FF000012A27D9022A40F09383DBF8781000B237
:1020000001440329CBF8781040F3E08001206FF001
:102010000302E1E09BF80720401A012A46D9022A70
:1020200000F0C680032AD1D1DBF8741000B2084456
:102030000328CBF8740040F34F8101216FF00302B5
:1020400050E100BF4CF6CD445B4699F81320C3F62F
:10205000CC54DBF828B0996F2646CDF81C80022AB4
:1020600004BF4DF20A76C3F6234600B2002A08BF29
:102070004FF07E56DBF8147001EB0008B8F1040F46
:102080003ADBA8F10404012000EB9400994610F01B
:10209000030500F01F81304639460CF06BF8012D26
:1020A00040F04081A046254665E100BF96F8261025
:1020B00000B20129CDF81C804ED1DBF87410C8465F
:1020C000D6F828900F18042FC0F2A4803C1F0120DE
:1020D00000EB940010F0030500F02E814DF20A7120
:1020E000C3F6234148460CF045F8012D40F0288105
:1020F00027462546A2E100BF994618F1040F38464D
:10210000C3F8788000F35881384600BF31460CF0A0
:1021100061FB18F1080F08F1040500F24B8131460C
:102120000CF058FB15F1080F08F1080500F2428188
:1021300031460CF04FFB15F1080F00F27381314668
:102140000CF048FB08F1100508F10C0111F1070F24
:10215000A846DBD32EE100BF99F812104CF6CD470C
:10216000C3F6CC57022904BF4DF20A77C3F62347C2
:10217000002908BF4FF07E57DBF87410D6F8109096
:102180000C18042CC0F27880A4F10408012000EBA4
:10219000980010F0030500F0D180384649460BF056
:1021A000E9FF012D40F0D680444645469AE100BF44
:1021B000DBF8741000B208440328CBF8740040F335
:1021C000998001216FF003029BE000BF11F1040F21
:1021D00000F3A682FF2004229BF8133011440A2B3F
:1021E000CBF8781000F29A82DFE813F00C00380286
:1021F000FE010602D2014002660212029202F601BC
:102200008A0200BF9BF81400B0FA80F040098BF8F6
:10221000140083E217F1040F4846CBF8747000F302
:1022200029814DF20A74CBF62344484621460BF02F
:10223000A1FF17F1080F07F1040500F219812146EB
:102240000BF098FF15F1080F07F1080500F2108157
:1022500021460BF08FFF15F1080F00F2B3842146E1
:102260000BF088FF07F1100507F10C0111F1070FC2
:102270002F46DBD3FCE000BF14F1040F4846CBF837
:10228000744000F34D81484639460CF0A3FA14F12E
:10229000080F04F1040500F2418139460CF09AFA66
:1022A00015F1080F04F1080500F2388139460CF0E9
:1022B00091FA15F1080F00F2898439460CF08AFA78
:1022C00004F1100504F10C0111F1070F2C46DBD3CA
:1022D00024E100BF38464EE010F1040F3FF776AE20
:1022E000FF2104221044CBF8740048B206F0EAFA49
:1022F0006CE600BF10F1040F3FF768AE4FF0FF31FE
:10230000042210449BF81320CBF87400881848BFAF
:102310000A200A28C8BF00208BF8130008F0B6FD79
:1023200054E600BF014630460BF024FF022D1BD1BE
:10233000A8F108081EE000BF48467FE04846D1E00B
:102340004DF20A71C3F623410BF014FF022D6DD13B
:10235000083F72E0014638460BF00CFF022D40F0BA
:10236000BB80083CBDE000BF014630460BF002FFD9
:10237000A8F10C0845460C2C4CF6CD44C3F6CC54C1
:1023800018D300BF014630460BF0F4FE014630463C
:102390000BF0F0FE014630460BF0ECFE01463046F5
:1023A0000BF0E8FEA8F11005A8F1140111F1080FD7
:1023B000A846E7D3C9F878500021C4F22011064698
:1023C0000BF04EFF00281CBF0026C4F2201630463A
:1023D00021460BF045FF002808BF26463046394607
:1023E000CBF814600BF02EFFCB4640F20409DDF869
:1023F0001C800028C2F2000940F0928102F0D6FA57
:1024000040F2205100F5FA60C2F20001486001205C
:1024100089F8160002F0CAFACBF85C0000208BF8AD
:1024200009007DE108F10C05C4E700BF4DF20A7117
:10243000C3F623410BF09EFE0C3F3D460C2C17D3F8
:102440004DF20A74C3F6234421460BF093FE214655
:102450000BF090FE21460BF08DFE21460BF08AFE1C
:10246000A7F11005A7F1140111F1080F2F46EBD3C6
:10247000CBF8745047F2A401C3F67D7104460BF00B
:10248000EFFE00281CBF47F2A404C3F67D7420466B
:10249000002100250BF0E4FE4946002818BF204625
:1024A000B0620BF0CFFEC146DDF81C8000287FF43F
:1024B0008DAD02F07BFA40F2205100F5FA60C2F2D5
:1024C00000010860012089F8160002F06FFACBF8CD
:1024D0005C008BF8085079E5014638460BF04AFE5F
:1024E0000C3C2546B8F10C0F18D300BF0146384606
:1024F0000BF040FE014638460BF03CFE01463846E4
:102500000BF038FE014638460BF034FEA4F11005FE
:10251000A4F1140111F1080F2C46E7D3CBF8745045
:102520000021C4F2F01104460BF09AFE00281CBFF3
:102530000024C4F2F01420464FF07E514FF07E5537
:102540000BF08EFE002808BF2C4620464946346119
:102550000BF078FE40F20409DDF81C800028C2F27E
:1025600000097FF433AD02F021FA40F2205100F56A
:10257000FA60C2F200010860012089F8160002F03A
:1025800015FACBF85C0000208BF808001EE500BFB0
:1025900040B20BF0BFFFD9F830404FF07C510CF047
:1025A0004DF821460BF0E6FD0021C4F20C21044653
:1025B0000BF056FE0026C4F2A00600281CBF002423
:1025C000C4F20C24204631460BF04AFE002808BF16
:1025D0003446C9F83040A1E09BF81700B0FA80F00B
:1025E00040098BF8170099E09BF81600B0FA80F0CC
:1025F00040098BF8160091E099F8141040B2401889
:1026000048BF02200228C8BF002089F8140085E0D6
:1026100040B20BF07FFF0021D9F83C40C4F2A0018A
:102620000CF00CF821460BF0A5FD0021C4F2963108
:1026300004460BF015FE0026C4F2163600281CBF17
:102640000024C4F29634204631460BF009FE0028DF
:1026500008BF3446C9F83C4060E000BF9BF8150055
:10266000B0FA80F040098BF8150057E040B20BF04B
:1026700051FF4CF6CD41D9F83440C3F6CC510BF0A4
:10268000DDFF21460BF076FD0021C4F24011044627
:102690000BF0E6FD00281CBF0024C4F240142046C5
:1026A0004FF07C514FF07C550BF0DAFD002808BF4D
:1026B0002C46C9F8344031E040B20BF02BFF002427
:1026C000C4F22014D9F8386021460BF0B7FF314628
:1026D0000BF050FD0021C4F2963106460BF0C0FD10
:1026E00000281CBF0026C4F29636304621460BF067
:1026F000B7FD002808BF2646C9F838600EE000BFC5
:102700009BF81800B0FA80F040098BF8180005E03B
:1027100099F8150080F0010089F8150008F0B6FB63
:10272000DBF82800002800F0DE8202F03FF90446C2
:1027300050464FF4807102F02DF999F8001088424C
:1027400006D1DBF83410611A232909D20EE000BF4C
:10275000214689F80000CBF83440611A232905D3BB
:1027600099F80410884218BF89F8040002F01EF995
:1027700004465046102102F00DF999F806108842DF
:1027800006D1DBF83810611A232909D211E000BF05
:10279000214689F80600CBF83840611A232908D36E
:1027A00099F80810884204D0002889F8080000F041
:1027B0009380012602F0FAF8044650464FF4007167
:1027C00002F0E8F899F80A10884205D1DBF83C10CD
:1027D000611A232908D20DE0214689F80A00CBF8B6
:1027E0003C40611A232905D399F80C10884218BF80
:1027F00089F80C0002F0DAF899F804209BF8191017
:1028000092B1002900F091809BF81A00002840F056
:1028100089809BF80700012860D9032840F0828056
:10282000002006F057F97DE071B19BF81A100029DD
:102830007BD19BF80710012977D840F22051C2F2D2
:10284000000189680DE000BF0121ABF8191040F2CA
:1028500020519BF80720C2F200018860012A01463E
:1028600063D8401AB0F57A7F5FD301208BF81A0045
:102870009BF80B0009F120078BF8140089CF09F1B0
:10288000300C8CE8890099F80F009BF8001089F84B
:102890001500DBF828009BF80C20D9F82C50C9F85B
:1028A0003C508BF818108BF8172058B190F8241072
:1028B00090F8262090F825008BF815208BF816103C
:1028C00089F8140000208BF8130002208BF8070011
:1028D00008F0DCFA29E000BF00266BE7DBF82800EF
:1028E00090F82600F0B999F81200411EB1FA81F172
:1028F00049094900002808BF012189F8121002F097
:1029000055F840F2205100F5FA60C2F2000108606B
:10291000012089F8160002F049F8CBF85C0000208D
:102920008BF808000020ABF8190002F03FF899F886
:102930000C209BF81B107AB1002900F055819BF800
:102940001C00002840F04D819BF8070003284DD162
:10295000022006F0BFF844E151B19BF81C10002999
:1029600040F0428140F22051C2F20001C96808E003
:102970000121ABF81B1040F22051C2F20001C860E7
:102980000146401AB0F57A7FC0F02E819BF80720EF
:10299000DBF828000121032A8BF81C1060D10028E5
:1029A00000F0228106F020F8D9F84000DBF828106A
:1029B0000861D9F8440048619BF81D0008769BF82F
:1029C0001E20002881F82620D9F848208A6218BFE6
:1029D0000120487650464FF40041002201F0E0FF0C
:1029E0009BF81F0009F05AFBFEE000BF012840F2EF
:1029F0009780022840F0F58009F130030FCB09F1F0
:102A0000200C8CE8070099F815009BF8172089F82E
:102A10000F009BF815008BF80C20DBF82820C9F874
:102A20002C309BF8183082F8260099F814009BF897
:102A3000161082F82500581EB0FA80F040098BF875
:102A4000003082F8241006F0CDF8DBF82800416948
:102A500000690AF03DFB9BF8140009F01FFBC0E081
:102A6000002800F0C1809BF80B109BF80C208BF81D
:102A70001F1001690024C9F840104169012AC9F8F2
:102A80004410017E836A8BF81D1090F8261040F2E6
:102A900000028BF81E1040F20001C4F29011C9F838
:102AA000483080F8264004BF0021C4F24011C4F22F
:102AB000A002C0E9041240F2011101838BF8024028
:102AC00001F074FFCBF8600040F22050C2F2000029
:102AD000046150464FF4004101228BF8034001F09D
:102AE0005FFF9BF800000138B0FA80F0400906F063
:102AF00079F805F025FF03208BF8070050464FF4C6
:102B0000006101F047FFB0FA80F0D9F82C104009BD
:102B100005F0F8FF0120CBE91D4406F08DF863E0D5
:102B20009BF80210DBF8280061B140F2205200212E
:102B3000C2F20002ABF802100028116118BF018335
:102B40000CE000BF417E03291AD140F2205200213F
:102B5000C2F20002ABF802101161018300240AF5F1
:102B600080604FF4804100228BF80440ABF80D40A8
:102B70008BF80F4001F014FF8BF80A4031E000BFE2
:102B8000027E82F001010176B2B900248BF8024086
:102B900001F00CFFCBF8600040F22050C2F20000C0
:102BA000DBF828100461D1E904018BF803400AF036
:102BB0008FFADBF82800017E61B1417E61B9012105
:102BC00009E000BF07F10C0552E400BF04F10C0559
:102BD000A4E400BF0021417600208BF80A0008F031
:102BE000A7F80020ABF81B004EBB9BF8070001289C
:102BF00006D9032823D1012005F06CFF1FE000BF98
:102C000099F81300411EB1FA81F1490949000028E1
:102C100008BF012189F8131001F0C8FE40F22051CD
:102C200000F5FA60C2F200014860012089F8160040
:102C300001F0BCFECBF85C0000208BF80900DBF84B
:102C4000280000284FD09BF8041079B9017E69B1A3
:102C500001F0ACFECBF8600040F22052DBF8280017
:102C60000021C2F200028BF803101161427E017E46
:102C7000032A8BF8041021D19BF80220F2B901201D
:102C80008BF8020040F201100024ABF80D008BF825
:102C90000F408BF8204001F089FE40F22051C2F233
:102CA000000148610AF580604FF48041012201F083
:102CB00077FEDBF828008BF80A40017E59B1407E90
:102CC000032808D001F072FEDBF860100446401AB9
:102CD000F92800F27B8340F220510020C2F200016B
:102CE0008BF8030008619BF80D00012839D101F031
:102CF0005DFE40F22051C2F200019BF80E204B69AC
:102D0000012AA0EB03021FD1962A2AD348619BF81F
:102D10000F00002401308BF80F000AF580604FF49B
:102D2000804100228BF80E4001F03AFE9BF8201003
:102D30009BF80F000322002918BF0122904228BFF0
:102D40008BF80D400DE000BF962A0AD348610120A0
:102D50008BF80E000AF580604FF48041012201F0EB
:102D60001FFEDBF8280000285CD001F01FFEDBF816
:102D700028109BF805300A7E002A114618BF012151
:102D800043B93AB10022CBE91902CBF86C208BF899
:102D9000062045E0002B18BF002A1BD1D3B3CABBC5
:102DA000DBF86420DBF86C30821A1A4444F6D35303
:102DB000C1F26203A2FB0337DBF86830BE0903EB04
:102DC00097134FF47A7706FB1722CBE91903CBF858
:102DD0006C201BE0DBF86420DBF86C30821A1A44AC
:102DE000B2F57A7FCBF8640018D344F6D350C1F221
:102DF0006200A2FB00039809DBF868704FF47A7652
:102E000000FB162007EB9312CBE91A2000208BF869
:102E1000060005E0CBF8640002E000BFCBF86C20B0
:102E20008BF8051005F0FCFD40071AD099F80F004B
:102E3000B8B140F20110ABF80D0000208BF80F0084
:102E400001208BF8200001F0B1FD40F22051C2F2C8
:102E5000000148610AF580604FF48041012201F0D1
:102E60009FFD9BF80700032806D105F02DFEB0FA60
:102E700080F042090BE000BFDBF8280030B1017E92
:102E800021B1407EC21E18BF012200E000220AF5D7
:102E900080604FF4005101F083FD9BF8070001288A
:102EA00030D801F083FD40F22051C2F200010AC97E
:102EB0000A1A002AA3EB0001D8BF002914DDDBF8B1
:102EC0005C30C31ADC2B1BD399F81630CBF85C00AE
:102ED00083F00100012A89F81600A4BF00208BF8B6
:102EE0000800012909DA0BE099F8160040B9012021
:102EF00089F8160000208BF8080000208BF80900E4
:102F00009BF80700032800F0DF80012866D0002826
:102F100040F0D780DBF85800DBF82820A8EB000051
:102F20004FF064013AB192F82520022A08BFC82167
:102F3000002A08BF3221884280F074819BF8080083
:102F4000002800F07B819BF8090030B90020D721D0
:102F500008F00EFC01208BF809009BF80A000028FD
:102F600004BF01208BF80A009BF80600002840F0FF
:102F7000A880DBF868004BF2C531C9F2A211A0FBB2
:102F8000011248F68901C8F68801A0FB011748F62E
:102F900089037909C0F68803A1FB0336D30A7208B6
:102FA0001201A2EB5602A1EB82020901A1EB57111B
:102FB000A0EB8100CDE900204EF60C5208ACC0F623
:102FC0000002204614211425FDF74CF940F220514F
:102FD0009BF80000C2F20001223160E001F0E6FC43
:102FE000DBF82820FA2142B192F82520022A08BFF6
:102FF0004FF4C871002A08BF6421DBF87020821AE0
:103000008A4267D29BF80800002800F0CA819BF82A
:10301000090030B90020D72108F0AAFB01208BF865
:1030200009009BF80A00002808BF07F0ABFE9BF8D8
:103030000600002845D1DBF868004BF2C531C9F223
:10304000A211A0FB011248F68901C8F68801A0FB75
:10305000011748F689037909C0F68803A1FB0336F6
:10306000D30A72081201A2EB5602A1EB82020901F7
:10307000A1EB5711A0EB8100CDE900204EF60C52D8
:1030800008ACC0F60002204614211425FDF7EAF82A
:1030900040F220519BF80000C2F200013631CDE928
:1030A0000041431E4FF0DA004FF0B4014FF002022E
:1030B00018BF4FF6FF73029508F0EAFE01208BF867
:1030C00006000DB0BDE8F08F00200DB0BDE8F04F58
:1030D00005F0B2BD5946D1E911650027BBF826B00D
:1030E000C4F2F0170867304639460BF114040BF0B0
:1030F000B7F800281CBF0026C4F2F01630460021A5
:103100000BF0AEF83946002818BF30460BF0D0F867
:103110000026C4F2103631460BF090FA0BF0BEF9DF
:103120000027C0F1AC00C4F22017059028463946AC
:103130000BF096F800281CBF0025C4F22015284685
:1031400000210BF08DF83946002818BF28460BF0F7
:10315000AFF831460BF072FA0BF0A0F9C0F1AC06F3
:103160002046079409F082FBBBF5937F03D80BF14F
:10317000150009F07BFB40F2A44BC2F2000B9BF858
:1031800000009BF8101040F2FF78012808BF4FF0B4
:103190001F0801294FF6E070069040F0CB80B9F986
:1031A0001850142DC0F2C6800798A84240F3C28080
:1031B00004960798B9F91A40A0EB050905984FF055
:1031C000FF3B061BC4BF4FF0010B261A06EB090A92
:1031D0000CE000BF5046B6EB4A0FDCBF304401356F
:1031E000B9EB4A0FA4BF5C4448448246A8090428AE
:1031F00098BFEF2C06D907988542EBD105988442F9
:10320000E8D131E0AFB2A1B23846424604F05CFAF0
:10321000EE2CF0D8601C81B23846424604F054FAD5
:10322000E9E700BFCBF8588008F0ECF901208BF8F3
:103230000A009BF8080000287FF485AEDBF8280020
:10324000372120B190F82600012808BF462101202F
:10325000012408F08DFA8BF808409BF8090000283B
:103260003FF474AE79E600BF40F2A44040F204019E
:10327000C2F20000C2F200010078B1F91870B1F991
:103280001CB0012805D1AF207321002204F0FCF905
:10329000069007984FF0FF39B0EB0708C8BF4FF012
:1032A0000109B8F1000F48BFC8F1000804984FF0B9
:1032B000FF3AB0EB0B04C4BF4FF0010AABEB0004C4
:1032C00004EB08050CE000BF2846B4EB450FDCBF5B
:1032D00020444F44B8EB450FA4BFD34440440546B7
:1032E000B809042898BFBBF1EF0F07D907988742A8
:1032F000EAD104988345E7D112E000BFBEB2069A36
:103300001FFA8BF1304604F0DFF9BBF1EE0FEDD878
:103310000BF10100069A81B2304604F0D5F9E5E7D9
:1033200040F2A44B40F20409049EC2F2000BC2F228
:10333000000916E00798424687B2059881B23846E0
:1033400004F0C2F99BF80000012805D1AF207321D9
:10335000002204F099F90690069AB1B2384604F0BA
:10336000B3F90798BBF82610A9F818000598A9F832
:103370001C60A9F81A0001208BF81000481C81B2CB
:10338000B1F5947FABF8260022BF0020ABF82600F1
:103390008BF8100007F0F6FC9BF8080000287FF47B
:1033A00036AEDBF82800372120B190F8260001283E
:1033B00008BF46210120012408F0DAF98BF8084003
:1033C0009BF8090000283FF425AE2AE6DBF8280028
:1033D000D0E901670790304639460BF02FF9D9F84C
:1033E00020104D46814630460AF041FFA0B9696A77
:1033F00038460AF03CFF98B9A96A48462E460AF0BA
:1034000036FF88B940F220510020C2F200018BF84B
:1034100003000861B14666E40120A94606E000BF4A
:103420000220A94602E000BF0320B1469BF803102A
:10343000814245D140F22056C2F200063069201A7E
:103440003228FFF450AC01208BF8020007984FF4AB
:1034500040740483002540F20110ABF8035035613D
:10346000ABF80D008BF80F508BF8205001F09EFA4E
:1034700070610AF580604FF48041012201F090FAFA
:103480009BF80700032817D105F0AEFAD9F84000E1
:10349000DBF8281000220861D9F844000C83486149
:1034A00050464FF4004101F07BFA9BF81F0008F0F2
:1034B000F5FDDBF8280004838BF80A50FFF713BCF6
:1034C0008BF8030040F22050C2F200000461FFF7C5
:1034D0000ABC0000F0B581B040F2E430C2F2000056
:1034E00000F1200442F634462046C4F2010600F002
:1034F00009F940F23445C2F20005284600F002F90D
:1035000040F27437C2F2000707F168012046042236
:1035100000F098FD642000F0F9FF40F26000C2F274
:10352000000041F2D402043005F13001C2F2000281
:10353000FDF7C0FE56F8084C20460BF003F84CF699
:10354000CD41C3F64C510BF079F80AF0C3FFB881B6
:10355000211A80B241F29404F981306088B2C2F23B
:103560000004706020460021002503F0EDFA20469B
:10357000002102F08DFD2046042103F0E5FA2046EB
:10358000042102F085FD206841F21112016A114206
:1035900008D1016A40F24442114203D1416C21F446
:1035A0000041416440F257203560706041F2940060
:1035B000C2F20000FD7101B0BDE8F04002F020BE93
:1035C000FEE70000002070470020704710B540F66D
:1035D0008424C2F2000440F64421C2F200012046D5
:1035E000002206F0CFF840F60421C2F20001204686
:1035F00006F0C2F8002010BD10B540F68424C2F2D7
:1036000000040146204606F0B7F8204606F096F87A
:10361000002010BD40F64850C2F2000000F01EBE6F
:1036200040F68C50C2F2000000F018BE7047000057
:10363000EFF3108072B600BFFEE7000070B542F2F3
:103640000C060446C4F2020601F0B0F93168C9075D
:103650001CD13068800644BF202030603068C0062E
:1036600007D43069C00704D1306840075CBF002030
:1036700070BD3068C00641F29810C2F2000021D43B
:1036800000213268520725D42AE000BFC4B10546A4
:10369000601C10D13068C007DBD03068C0071CBF89
:1036A00030685FEAC070D4D03068C007F2D1D0E78C
:1036B0003068C007CDD001F079F9401BA042F7D99E
:1036C000032070BDC16941F00201C161102132685F
:1036D000520705D5C26941F0040142F00102C261FE
:1036E0003269D20702D10120316070BDC26942F057
:1036F0000402C261306920F00100306101203160B4
:1037000070BD000070B582B004460020019094F8AE
:103710002400012802D1022002B070BD012084F8EB
:1037200024002046FDF718FD20B1002184F8241064
:1037300002B070BD0646A06A41F202118843023011
:10374000A06240F2CC00C2F200000568022001F045
:1037500093FEB5FBF0F0400001900198A8B100BFC6
:10376000019801380190019878B1019801380190D1
:10377000019850B1019801380190019828B1019841
:103780000138019001980028EAD12046FDF742FD5A
:103790002068816841F00801816001F007F9054661
:1037A00020688168090705D501F000F9401B0A2847
:1037B000F6D910E0816841F00401816001F0F6F86B
:1037C000054600BF20688068400709D501F0EEF883
:1037D000401B0B28F6D3012010216FF0120203E0EA
:1037E00001216FF003023046A36A1A401143A1621F
:1037F000002184F8241002B070BD00007047000062
:1038000070B581B00022009290F82420012A03D1E3
:103810000221084601B070BD4A680123062A02EB66
:10382000820E80F8243007D8D0F800C06FF004036F
:103830000CF134060CE000BFD0F800C00C2A87BFA2
:103840000CF12C066FF040030CF130066FF02203F0
:103850000EEB03021F23346803FA02F50B6824EA17
:10386000050503FA02F22A433260092B03EB4302F7
:103870001AD9DCF80C601E3A072589689540AE43DA
:10388000914023F001023143102ACCF80C1015D1DD
:1038900042F20041C4F201018C4517D0816A41F027
:1038A0002001816201210AE0DCF8103007268968D6
:1038B0009640B34391401943CCF8101000210022E8
:1038C00080F82420084601B070BD00BF8968090255
:1038D000F4D4DCF80810102B41F40001CCF80810E7
:1038E000ECD140F2CC01C2F2000109684DF68362CE
:1038F000C4F21B32A1FB0212910C01EB81014900C1
:10390000009100990029D9D00099013900910099BE
:103910000029D3D000990139009100990029CDD018
:1039200000990139009100990029C7D00099013907
:103930000091009900294FF00001E5D1BFE7000098
:10394000006842F20041C4F20101884218BF70478A
:1039500080B540F27430C2F2000000F1280CB0F8DB
:1039600068109CE80C1002EB010EB0F86A20B0F869
:103970006E101A44038A61440163591C8BB21E2BDA
:10398000C0E90AE2018213D348F6890CC8F6880C14
:10399000AEFB0C31A2FB0C2309094182190981827B
:1039A0000021C0E90A1101630182012101708161D6
:1039B000BDE880407047000070470000704700007D
:1039C0000068C06C7047000010B50446006841688C
:1039D000890644BF01685FEA81710BD4416809061A
:1039E00044BF01685FEA41712AD4416849065BD44B
:1039F00010BD00BFA16AC90603D4A16A41F40071D9
:103A0000A162816801F46021B1F5602F10D1217BA2
:103A100071B9416821F020014160A06A20F48070F2
:103A2000A062A06AC00403D4A06A40F00100A062B2
:103A30002046FFF785FF20686FF012010160CDE797
:103A4000A16AC90603D4A16A41F40051A162816848
:103A500001F4E041B1F5E04F10D1416821F080015F
:103A60004160A06A20F48050A062A06AC00511D411
:103A7000A06A40F00100A0620CE000BF4168490567
:103A800008D4816801F46021B1F5602F02D1217B57
:103A90000029E2D02046FFF7B1FE20686FF00C014C
:103AA000016041684906A3D50068C00708BF10BD82
:103AB000A06A40F48030A062204600F0A9F8206897
:103AC0006FF00101016010BD002804BF01207047A4
:103AD000B0B50446806A28B120688168C9070CD057
:103AE00032E000BF0020E06284F82400204600F0AD
:103AF00091F820688168C90726D1A16AC9063DD41A
:103B0000A16A41F2021291430231A162E169D4E952
:103B1000013241EA030C531EB3FA83F35D091346E5
:103B2000B2F5807F18BF2B02217D257B01294CEA4D
:103B300045012ED145B3A56A45F02005A562E56A89
:103B400045F00105E56224E0816821F00101816012
:103B500000F02CFF054600BF20688168C907CCD063
:103B600000F024FF401B0328F6D3A06A40F01000A9
:103B7000A062E06A40F00100E062A06AA06A40F042
:103B80001000A0620120B0BDA56903EB4533A3F589
:103B9000C0534568B2F5807F25F4694543EA0503C3
:103BA000436083684FF2FD75CFF6E17503EA0503C4
:103BB00043EA0103836001D0012A07D1226900236F
:103BC000CFF6F07303EB025201E000BF0022C36A9C
:103BD00023F470031A43C262806840F6FE62CFF697
:103BE0001F721040884207D10020E062A16A0122C2
:103BF00062F30101A162B0BDA06A40F0100020F0A4
:103C00000200A062E06A40F00100E0620120B0BD65
:103C100070470000F0B585B0016842F60002C4F2BA
:103C2000010291424FF00002CDE90322CDE90122C9
:103C300046D042F20042C4F20102914269D10746E5
:103C400041F21800C4F20200016841F40071016001
:103C5000016801F4007100910099016841F00401CC
:103C60000160006801A900F00400009000981B208A
:103C700001900320029040F60000C4F2010000F021
:103C80007FFD40F648540820C2F20004C4F202004E
:103C90000021C4E9000104F1080080224FF4807380
:103CA0004FF4806520266EC02046E16100F0A4FB41
:103CB000002818BFFFF7BCFC3C62676221E000BF30
:103CC00041F21800C4F20200016841F48061016011
:103CD000016801F4806100910099016841F00401DC
:103CE0000160006801A900F00400009000984420E1
:103CF00001900320029040F60000C4F2010000F0A1
:103D00003FFD12200021002200F0D0FE122000F022
:103D1000BBFE05B0F0BD00002DE9F04182B00027E8
:103D20000D460446019700F041FE21688A68D205DD
:103D300044D406464868C00503D4C86A10F4700F1E
:103D400046D040F2CC00C2F20000076842F292482E
:103D50000220C1F2492801F08FFB216844F62413A8
:103D60000A69B7FBF0F0C2F292431A4206D1CA6860
:103D700044F62413C0F292031A4249D00A6912EAA7
:103D8000080F07D1CA6842F29243C0F249031A42AF
:103D900000F084800A6949F24923C0F224031A42E0
:103DA0004FF0FC0242D1CF681F4208BF5422019B52
:103DB00002FB00F7BB423ED379E000BFA06A40F0AF
:103DC0002000A06284F82470012002B0BDE8F081D8
:103DD000086880076BD4002D55D0681C12D1086884
:103DE000800764D4086880075CBF08685FEA807059
:103DF0005DD408688007F2D559E000BF21680868E3
:103E0000800754D400F0D2FD801BA842F6D93AE0D6
:103E10000A6912EA080F4FF0290207D1CB6842F273
:103E20009247C0F249073B4208BF1422019B02FBA4
:103E300000F7BB423BD235B3681C1FD1019801305B
:103E400001900198B84232D2019801300190019856
:103E5000B8422CD20198013001900198B84226D284
:103E60000198013001900198B842E7D31FE000BFEC
:103E70000198013001900198B84217D200F096FDE8
:103E8000801BA842F4D9A06A40F00400A062002080
:103E900084F82400032002B0BDE8F0815422019B85
:103EA00002FB00F7BB42C6D301E000BF21686FF000
:103EB00012000860A06A40F40070A062886800F4F4
:103EC0006020B0F5602F01D1207B18B1002002B036
:103ED000BDE8F081A06A20F48070A062A06AC004EE
:103EE000F4D4A06A40F00100A062002002B0BDE856
:103EF000F0810000B0B582B0044690F8240001289B
:103F000002D1022002B0B0BD012084F824000020BC
:103F1000019020688168C90742D1816841F00101A0
:103F2000816040F2CC00C2F2000000684DF683616F
:103F3000C4F21B31A0FB0101880C01900198A0B1D3
:103F4000019801380190019878B1019801380190E9
:103F5000019850B1019801380190019828B1019859
:103F60000138019001980028EAD100F01FFD0546B4
:103F700020688168C90713D100F018FD401B022892
:103F8000F6D9A06A40F01000A062E06A40F001009B
:103F9000E062002084F82400012002B0B0BD00BF20
:103FA000A26A42F2044140F20133C4F201019A4391
:103FB00002F5807301F57F729042A3622AD0A36A52
:103FC00023F48013A36243685B0504D5A36A01252B
:103FD00065F30D33A362A56A0023ED044FF00005DD
:103FE00044BFE56A25F00605E56284F824306FF0E9
:103FF00002030360836803F46023B3F5602F19D1D3
:10400000904213D0816841F4A0018160002002B089
:10401000B0BD00BF0B6813F4702FD0D0A36A43F477
:104020008013A3620B685B05D0D4D4E7096811F450
:10403000702FE7D0816841F480118160002002B0C8
:10404000B0BD0000F0B581B00446036842F6000040
:10405000C4F20100834205D042F20040C4F20100E4
:1040600083420BD142F20440C4F20100006810F414
:10407000702F03D0012001B0F0BD00BF94F82400E0
:10408000012803D1022001B0F0BD00BF012084F857
:1040900024000020009098680E461546C00743D1C2
:1040A00098684DF6836140F00100986040F2CC00C2
:1040B000C2F200000068C4F21B31A0FB0101880CB1
:1040C00000900098A8B100BF0098013800900098B7
:1040D00078B1009801380090009850B100980138EC
:1040E0000090009828B100980138009000980028AE
:1040F000EAD100F05BFC074623689868C00713D13B
:1041000000F054FCC01B0228F6D9A06A40F0100051
:10411000A062E06A40F00100E062002084F8240020
:10412000012001B0F0BD00BF42F20440A16AC4F218
:10413000010040F60172914300F57F7201F5807134
:104140009342A16246D0A06A20F48010A062586811
:10415000400504D5A06A012161F30D30A062A16A77
:104160000020C9044FF0000144BFE16A21F00601BC
:10417000E16284F82400206A41F2A111C0F6000136
:1041800041F20D2241F2F51700F1280CC0F60002B1
:10419000C0F600078CE886006FF00201196099688C
:1041A000324641F48071996003F14C012B4600F0D6
:1041B0005DF92068816801F460228168B2F5602FA2
:1041C0000CBF41F4A00141F480118160002001B0D6
:1041D000F0BD00BF016811F4702FB4D0A16A41F4A2
:1041E0008011A16200684005B4D4B8E7B0B50446B8
:1041F00090F82400012804BF0220B0BD01212068EE
:1042000084F824108168C90708D1214651F8280F85
:1042100041F2011220EA0202002018E0816821F038
:104220000101816000F0C2FB054600BF2068806884
:10423000C007EAD000F0BAFB401B0328F6D3A06AFF
:10424000214640F01000A06251F82C2F012042F0CE
:1042500001020A60002184F82410B0BD10B5D0E935
:104260000FCE0168DCF800300A6823FA0EF35C0711
:104270002AD512F0040427D00A68920603D40A68EB
:1042800022F004020A602F22C4F20202914240F29C
:104290000402C4F2020259DD3023C4F2020399423F
:1042A00070D04423C4F20203994271D05823C4F25F
:1042B0000203994278D14FF480231360C16A002928
:1042C00040F097806EE000BF9C0727D512F00204F3
:1042D00024D00A68920606D40A6822F00A020A600C
:1042E000012280F821202F22C4F20202914240F2E2
:1042F0000402C4F2020239DD3023C4F202039942FF
:104300005ED04423C4F2020399425DD05823C4F224
:10431000020399425ED14FF4003363E01B0741D59D
:1043200012F0080208BF10BD0A6822F00E020A60EF
:10433000012101FA0EF2CCF804208163016B4FF4E5
:1043400080720029028454D12CE000BF0823C4F2FB
:104350000203994222D01C23C4F20203994223D1C2
:1043600040231360C16A002943D11BE00823C4F233
:10437000020399422CD01C23C4F20203994229D192
:1043800020232FE04FF480631360C16A89BB09E0EA
:104390004FF480431360C16A59BB03E004231360E8
:1043A000C16A31BB10BD00BF02F168044FF08063E9
:1043B000A14208BF4FF480031360C16AC9B9F1E795
:1043C0004FF400730EE000BF4FF400530AE000BF4B
:1043D000022307E002F168044FF00073A14208BF16
:1043E0004FF400131360816A0022002980F8202016
:1043F000D8D0BDE810400847002804BF012070470E
:104400002DE9F04101684FF6F872CBF6FD724CF6DB
:10441000CD430A44CCF6CC43A2FB03236FF0030246
:1044200002EA93020023C4F2020300F1040E00F139
:104430001007C0E90F329EE80051F0CF0A6843F63A
:10444000F0739A4342EA080242EA0C0242EA0E0280
:1044500022432A4332433A430A6000214FF48072D8
:1044600081630284BDE8F0410846704790F820C09F
:10447000BCF1010F04BF02207047F0B590F821C0D5
:104480004FF0010EBCF1010F80F820E026D14FF073
:10449000020C80F821C04FF0000CC0F838C0D0E901
:1044A00000C4C56AC66BDCF80070102C27F0010749
:1044B000CCF80070006C0EFA00F070600846CCF882
:1044C000043004BF10460A46CCF80800CCF80C2093
:1044D000DCF8000045B140F00E000DE0002180F84E
:1044E00020100220F0BD00BF20F00400CCF8000036
:1044F000DCF8000040F00A00CCF80000DCF8000016
:1045000040F00100CCF800000020F0BDB0B504463A
:1045100000F04CFA054640F2A800C2F20000007814
:10452000611C18BF044400BF00F040FA401BA042C9
:10453000FAD3B0BD2DE9F04381B041F29815C2F233
:1045400000052A7E012A03D1022001B0BDE8F083D4
:1045500004460120266828764CF250308846FFF742
:104560006DF8022E1CD100284ED1002042F210041A
:10457000E861C4F20204206840F004002060206872
:1045800040F0400020604CF25030FFF757F82168AF
:1045900021F0040121600021297601B0BDE8F083FB
:1045A00090BB4FF0FF30C8F80000D4E9027007EB71
:1045B0008020874228D242F21006C4F202064FF051
:1045C000000900BFC5F81C90306840F00200306060
:1045D0007760306840F0400030604CF25030FFF7B8
:1045E0002DF8316821F00201316098B9D4E9020157
:1045F00007F5806700EB81208742E3D3002000218C
:10460000297601B0BDE8F08301200021297601B0B0
:10461000BDE8F083C8F800700021297601B0BDE83C
:10462000F083000042F21001C4F20201086840F079
:10463000800200200A6070472DE9F04381B041F20A
:104640009817C2F2000716463A7E012A04D10220CA
:1046500001B0BDE8F08300BF0546012038764CF27A
:1046600050300C469946FEF7E9FF28B10021397613
:1046700001B0BDE8F08300BF42F210080020C4F290
:104680000208F861D8F8000040F00100C8F8000006
:104690004CF250302680FEF7D1FFD8F800100028E9
:1046A00021F00101C8F8001018BF0046DED1012D2D
:1046B000DCD00020F861D8F80000310C40F0010097
:1046C000C8F800004CF250306180FEF7B7FFD8F810
:1046D0000010002821F00101C8F80010C6D1E81E22
:1046E00010F1030F4FF00000C0D8F861D8F80000B7
:1046F00040F00100C8F800004CF25030A4F80490DB
:10470000FEF79CFFD8F80010002821F00101C8F83E
:104710000010ABD10020F861D8F800004FEA194131
:1047200040F00100C8F800004CF25030E180FEF784
:1047300085FFD8F80010002821F00101C8F800100A
:1047400018BF00460021397601B0BDE8F0830000B3
:1047500042F20400C4F20200C16809065CBF0020F6
:10476000704740F22311C4F26751016048F6AB1163
:10477000CCF6EF510160C068C0B2C00970470000BC
:104780002DE9F04F82B00E68002E00F0FF8040F25D
:104790000C4C40F2004E41F20042C4F2010CC4F253
:1047A000010EC4F201020427002401234FF0000A85
:1047B0004FF00009904208BF0327009749E000BF6F
:1047C00041F20002C4F20102009F904208BF02279A
:1047D00004F00C030F229A402BEA020207FA03F3BB
:1047E0004FEA9A051A4346F825204E68F203DEF890
:1047F000002054BF22EA080242EA0802CEF8002054
:10480000DEF80420B30354BF22EA080242EA080299
:10481000CEF80420F302DEF8082054BF22EA080292
:1048200042EA0802B302CEF80820DCF800204FF07C
:10483000010354BF22EA080242EA0802CCF8002031
:104840000E680AF1010A36FA0AF204F1040400F0D3
:104850009D8003FA0AFB16EA0B08F1D04E684FF66A
:10486000FF72C1F21002964212DC122E56D8DFE817
:1048700006F0350B4D49555555555555555555551A
:1048800055555545510000BFD1F80C9046E000BF8A
:104890004FF6FF72C1F2210296420FDC0022C1F2F4
:1048A000110296421AD00022C1F21202964215D08D
:1048B0000022C1F22102964210D02FE00022C1F264
:1048C000220296420AD00022C1F23102964205D05D
:1048D0000022C1F23202964220D100BF8A684AB15A
:1048E000012A14BFC0F814B0C0F810B04FF0080986
:1048F00014E000BF4FF0040910E000BFCA6802F1E5
:1049000004090BE04FF0000908E000BFCA6802F19B
:10491000080903E0CA6802F10C0900BF02462646F6
:10492000B8F5807F24BF0432203E17680F25B540BC
:1049300027EA050509FA06F635431560CA79D20655
:104940007FF57EAF41F21803C4F202031A68AEF598
:104950007E7642F001021A601A6802F001020192AA
:10496000019A2AF0030256F802B040F60002C4F29F
:104970000102904208D040F60042C4F20102904287
:104980007FF41EAF012723E7002721E702B0BDE82F
:10499000F08F00008068084018BF012070470000B9
:1049A000002A08BF090401617047000041F2B810F5
:1049B000C2F200000068704740F2A80041F2B8114E
:1049C000C2F20000C2F2000100780A6810440860D8
:1049D0007047000080B542F20000C4F20200016896
:1049E00041F010010160032000F08CF8002000F07D
:1049F00005F800F027F8002080BD000070B540F2F7
:104A0000A806C2F2000640F2CC013278C2F20001E0
:104A10004FF47A730968B3FBF2F20446B1FBF2F18A
:104A2000084601F0D3FA0F2C4FF0010508D838B929
:104A30004FF0FF3021460022002500F037F8746067
:104A4000284670BD82B041F21800C4F2020001682D
:104A5000022241F001010160016801F001010191B0
:104A60000199416841F080514160406800F08050F8
:104A7000009000980420C4F20100016862F31A61FA
:104A8000016002B070470000002848BF704700F086
:104A90001F01012202FA01F11C2202EAD0004EF2AB
:104AA0000012CEF2000281507047000010B54EF6A1
:104AB0000C5CCEF2000CDCF80030C3F3022E8EF05A
:104AC0000704042C28BF0424BEF103034FF0FF3E6B
:104AD0000EFA04F438BF0023A14399400EFA03F301
:104AE0009A43114300F00F0200F160430901043AB8
:104AF00003F564436244002848BF02F10C031970B7
:104B000010BD00004EF60C51CEF200010A684FF6BF
:104B1000FF031A4060F30A2242F0806040F0FD700B
:104B20000860704701F0070C00EB4C1C0CF1280CDE
:104B300000EB4110090658BF00F5947C52B1ACF867
:104B400008301B0C01210A202CF8003000208CF8C2
:104B50000C107047002106202CF8003000208CF843
:104B60000C10704770470000D0F8683200EB41101D
:104B7000C26B184605F088B8D0F8683200EB4110D7
:104B8000D0F83C21184605F0E5B8000010B54FFA02
:104B900081FC4FF49472BCF1000F48BF282201F051
:104BA000070302444FEAD11C02EB431181F801C014
:104BB00090F828C24FEA431EBCF1010F02F80E30F4
:104BC00004BF022010BD0268012380F82832044689
:104BD000104605F0FDFD002084F8280210BD0000FD
:104BE000B0B5426801F00F03934284BF0120B0BD0D
:104BF0004AB24FF49474002A48BF282401F00703F6
:104C0000021990F828424FEAD11C02EB431181F8B7
:104C100001C04FEA431C012C4FF000048C7002F8D5
:104C20000C3004BF0220B0BD0268012380F8283296
:104C30000546104605F060FE204685F82842B0BDC6
:104C400001F0070100EB4110D0F84401704700006B
:104C500010B54FFA81FCBCF1000F01F0070C0DD428
:104C600000EB4C1E00240EF594718EF829418EF84D
:104C700028C1CEF838218EF82B3109E000EB4C1119
:104C800001F828CF01244C700A61CB70A1F80EC046
:104C9000022B04BF00220A7190F82822012A04BFC7
:104CA000022010BD0268012380F828320446104615
:104CB00005F048FC002084F8280210BD10B501F072
:104CC000070C00EB4C1E00680EF594710024CEF822
:104CD0003C21CEF84031CEF844418EF829418EF87F
:104CE00028C105F05DFE002010BD0000B0B542688F
:104CF00001F0070494424FF0010229D84BB24FF45F
:104D00009475002B48BF28254FEAD11348BF214690
:104D100005444FEA411C05EB41114B7090F82832D5
:104D20008A70012B05F80C4004BF0220B0BD026858
:104D30000123054680F82832104605F017FE24B9F5
:104D4000286805F50C7105F0D5FD002285F82822AC
:104D50001046B0BD80B501F0070C00EB4C1101F816
:104D600028CF01F1140E00684FF0000C8EE80C10F3
:104D700001224A7005F014FE002080BD2DE9F04F9D
:104D800083B00446006805F069FF01462068090405
:104D900005D5B0F94410B1F1FF3F40F3A98005F00B
:104DA0005DFF400519D52068B0F8441021F48061FA
:104DB000A0F84410204600F0FBFA94F828020128DD
:104DC0000BD00120002584F8280284F824502068A4
:104DD000002105F0A3FF84F82852206805F03EFF6B
:104DE00001462068490405D5B0F8441021F48041FB
:104DF000A0F8441005F032FF01462068890405D56B
:104E0000B0F8441021F40051A0F8441005F026FF3A
:104E100001462068C90411D405F020FF000527D4FD
:104E2000206805F01BFF800548D4206805F016FFB8
:104E3000C00552D403B0BDE8F08F00BFB0F84010F9
:104E400021F00401A0F84010B0F8401021F0080152
:104E5000A0F84010204600F0BDFA2068B0F84410D9
:104E600021F48051A0F8441005F0F8FE0005D7D5D4
:104E70002068B0F8401041F00801A0F84010B0F8E8
:104E8000441021F40061A0F84410B0F8401041F043
:104E90000401A0F8401005F0E1FEC00406D520682A
:104EA000B0F8441021F48051A0F84410204600F0DE
:104EB000CFFA206805F0D2FE8005B6D52068B0F89C
:104EC000441021F40071A0F84410204600F086FA46
:104ED000206805F0C3FEC005ACD52068B0F84410CA
:104EE00021F48071A0F8441003B0BDE8F08F00BF3A
:104EF00004F59471029104F1280504F50C7140F653
:104F00000F7A019114E000BF01F0070705EB47118C
:104F1000C1E9053200227E01CA6101224A70AF5503
:104F200005F03EFD2068B0F9441000297FF537AF49
:104F3000B0F8442012F00F080CD030F928B04FEA36
:104F40004809BBF1FF3F35DD1FFA8BF00006E9D5BC
:104F50001CE100BF0188D20656D401EA0A0101F51E
:104F600000410180B0F8501094F8282000EB410077
:104F700000EB0210B0F80404E16B6FF39F20606453
:104F80000844E06320460021FFF7EEFD94F824007A
:104F90000028C7D0206C0028C4D194F824002168D0
:104FA00040F08000C0B2A1F84C00002084F824003A
:104FB000B8E700BF30F8191040F60F7701EA0A0190
:104FC000803120F81910029901EB481A9AF80C1058
:104FD000002977D09AF8001030F82120B0F850302E
:104FE00000EB0111520401EB430100F18180B1F8A3
:104FF0000C646FF39F26002E00F08880DAF81410FE
:10500000BAF80A207DE000BF0A053DD409B2B1F12B
:10501000FF3F3FF787AF018801EA0A018031018035
:10502000B0F8501094F82821130100F20C4202EB62
:105030004101CB5A6FF39F23C4F84431A3B1D4F894
:105040003C1189B1B4F82E2105F00CFED4F83C01D6
:10505000D4F844110844C4F83C0120460021FFF76D
:105060008BFD206800F20C42B0F85010D4F83831B3
:10507000002B00F0B1803E2B00F2BA8003F0010655
:1050800006EB53039B02C0E0B0F8501094F82821BF
:1050900000EB410101EB0211B1F80C34B4F82E2100
:1050A00001996FF39F23C4F8443105F0DBFD2068BC
:1050B000018801EA0A0180310180204600F0A8F948
:1050C00030E700BFB0F850109AF8002000EB410123
:1050D00001EB0211B1F80C646FF39F26002E79D01A
:1050E000DAF81410BAF80620334605F0BBFD19E0D3
:1050F000B1F804646FF39F2646B1DAF81410BAF8D9
:105100000820334605F0AEFD01E000BF0026206810
:105110009AF8001048F2C00330F821203A401A43B0
:1051200020F82120DAF81C20DAE905103244CAF808
:105130001C208A19CAF81420E0B1DAF810309AF865
:105140000010B34218D8029E01F0070306EB43118A
:10515000C1E905200020C861487020685F01F3554F
:1051600005F01EFC40F60F7A1FFA8BF000067FF563
:10517000D9AE0BE09AF800102046FFF7FDFC40F690
:105180000F7A1FFA8BF000067FF5CCAE20684FEA4D
:10519000481230F8191005EB481701EA0A0101F529
:1051A000004120F81910B0F85030A95C00EB430220
:1051B00002EB0112B2F80434D7E905626FF39F23C2
:1051C000FB613344002A7B617FF49EAE2046FFF7EB
:1051D000CBFCA7E60026A5E7535A48F2000723F4C4
:1051E000F8435352535ACFF6FF773B430DE000BFCD
:1051F0005E09DF064FF0FF3708BF07EB531648F292
:105200000003CFF6FF7343EA86235352018843F627
:105210000F72114048F2C00202F53F525140018026
:1052200080E60000002804BF01207047F0B585B07B
:10523000064690F8290228B9002086F82802304650
:1052400000F094F8032086F82902306805F048FB46
:1052500006F1140E96E82F009EE81050376ACDE94B
:105260000054CDE902CE049705F0B0FA00286AD1C7
:1052700030680021002505F04FFD7168002952D0EB
:1052800006F128004FF0010C0022002300EB42172A
:1052900052018354DAB20133FA81DAB2914287F8CB
:1052A00001C0FD70C7E90455BD61EFD806F59470E3
:1052B00000220025002300BF00EB45176D01435578
:1052C00043F00105ECB2A1427A70FA70C7E90422FA
:1052D000BA6128D900EB44176401055543F0020573
:1052E000ECB2A1427A70FA70C7E90422BA611AD905
:1052F00000EB44176401055543F00305ECB2A142ED
:105300007A70FA70C7E90422BA610CD900EB44172D
:10531000640104330555DDB2A9427A70FA70C7E919
:105320000422BA61C8D806F10807D6E905543068E6
:105330008CCFD6E907CECDE9007502AD85E81050D7
:1053400005F0BAFA30B1022086F82902012005B032
:10535000F0BD00BF002086F82400012086F8290255
:10536000306805F0A7FA002005B0F0BD006845F6EA
:105370000041C4F20001884218BF704780B582B076
:1053800041F21C00C4F202000168002241F4000155
:1053900001600068002100F40000019001981420D1
:1053A000FFF784FB142002B0BDE88040FFF76CBB20
:1053B00010B504468068022818BFFEF739F9D4F802
:1053C0006802012104F0C6FDD4F86802BDE810406F
:1053D00004F07EBDD0F8680204F0A4BDD0F86802E5
:1053E00004F0AABD90F82822012A04BF02207047C9
:1053F00010B5012280F8282280F8241002680446A3
:10540000104605F08BFC002084F8280210BD000037
:10541000D0F8682200F50C71104604F0B1BD000010
:1054200090F82812012904BF0220704710B501210D
:1054300080F828120446FFF795FB206805F038FA3B
:10544000206805F0FBFB002084F8280210BD000056
:1054500010B50446D0F8680204F0E4FDA069002805
:1054600008BF10BD4EF61050CEF20000016841F0AA
:105470000601016010BD0000012821D002280DD0D6
:10548000102808D141F20401C4F202010A6851F85F
:10549000040CC00134D40020704700BF80B500F078
:1054A000C7F941F20401C4F2020109680222C1F302
:1054B000813102EB4101B0FBF1F0BDE88040704763
:1054C00041F20400C4F20200C16940F202320A4013
:1054D000B2F5817F04BF4FF40040704701F4407182
:1054E000B1F5407F18D0B1F5007F1CBF0020704798
:1054F000006A49F64041800701EAE070704700BF4A
:10550000C2F3834015A3185CD2030DD440F60012F9
:10551000C0F23D02504313E050F8040C4FF2244116
:10552000800301EAE07070470A6810A3C2F34042AA
:105530009A5C41F20023C0F27A03B3FBF2F25043CB
:105540000968490248BF70474AF6AB214000CAF6D5
:10555000AA21A0FB01014808704700BF020304050F
:10556000060708090A0B0C0D0E0F101001020000AF
:105570002DE9F04182B00446007841F21C06C007D4
:10558000C4F202064AD030685FEAC00808D4306826
:1055900040F080503060306800F0805001900198F9
:1055A00047F20007C4F200073868C00512D4386813
:1055B00040F480703860FFF7F9F905463868C00597
:1055C00008D4FFF7F3F9401B6428F7D9032002B091
:1055D000BDE8F081706810F4407012D0616801F489
:1055E000407188420DD0706840F24042C4F24222BD
:1055F000012320F4407113600023C0071360716021
:1056000026D17068616820F440700843B8F1000F3B
:10561000706003D4306820F08050306020688107CB
:1056200007D556F8181CA26821F44041114346F8EA
:10563000181CC00607D556F8180CE16820F4800045
:10564000084346F8180C002002B0BDE8F08100BF06
:10565000FFF7ACF9054641F2883700BF7068800754
:10566000CFD4FFF7A3F9401BB8424FF00300F5D9A0
:10567000EAE70000002804BF012070472DE9F0434D
:1056800081B042F20008C4F202080446D8F80000D3
:105690000D4600F0070081420CD9D8F8000020F038
:1056A00007002843C8F80000D8F8000000F0070001
:1056B000A8426CD1206841F204098107C4F20209B2
:1056C00017D5410705D5D9F8001041F4E061C9F8B4
:1056D0000010010705D5D9F8001041F46051C9F850
:1056E0000010D9F80010A26821F0F0011143C9F8A8
:1056F0000010C00742D1D8F8000000F00700854232
:105700000CD2D8F8000020F007002843C8F80000A9
:10571000D8F8000000F00700A84238D120684107FF
:1057200007D5D9F80010E26821F4E0611143C9F807
:105730000010000708D5D9F80000216920F4605056
:1057400040EAC100C9F80000D9F8002002F00C00BE
:10575000082841F20020C0F27A004DD14EF6CA432B
:10576000C2F38341C0F60003595CD20338D440F63B
:105770000010C0F23D0048433EE000BF606859F8A9
:10578000041C022808D0012826D1890306D4012050
:1057900001B0BDE8F08300BF8901F8D5D9F8001049
:1057A00021F003010843C9F80000FFF7FFF806469F
:1057B00041F28837D9F80000616800F00C00B0EBC6
:1057C000810F98D0FFF7F2F8801BB842F2D903207E
:1057D00001B0BDE8F08300BF8907D8D5DEE700BF80
:1057E000D9F800204EF6B423C2F34042C0F60003BD
:1057F0009A5C4843B0FBF2F0D9F800104EF6B6229E
:10580000C1F30311C0F60002515C40F2CC0220FA51
:1058100001F140F2AC00C2F200000068C2F20002E6
:105820001160FFF7EBF8002001B0BDE8F083000045
:1058300040F2CC0041F20401C2F20000C4F20201C5
:10584000006809684EF6C622C1F3C221C0F6000204
:10585000515CC84070470000002804BF0120704719
:105860002DE9F04182B00446007841F20006C007FD
:10587000C4F202060CD0706800F00C00042840F05E
:1058800081803068800303D56068002800F046817D
:10589000207880071BD5706810F00C0F09D0706855
:1058A00000F00C00082840F087807068C00300F109
:1058B00083803068800703D52069012840F02E815D
:1058C0003068616920F0F80040EAC100306020785B
:1058D000000713D4207840072CD4E569002D00F090
:1058E0001881706800F00C00082840F0A780012D96
:1058F00040F00481012002B0BDE8F081A0690028D9
:1059000000F084800020C4F242200121C0F88014FD
:10591000FFF74CF8054600BF706A800700F1B280BF
:10592000FFF744F8401B0228F6D9032002B0BDE877
:10593000F08100BFF0695FEAC00808D4F06940F068
:105940008050F061F06900F080500090009847F2BC
:105950000007C4F200073868C00549D4386840F42D
:1059600080703860FFF722F8054600BF3868C00530
:105970003ED4FFF71BF8401B6428F7D9032002B080
:10598000BDE8F081706800F00C00082803D1706851
:10599000C0033FF576AF61683068002900F00C81E4
:1059A000B1F5A02F00F00081B1F5803F40F01A81E1
:1059B00040F480301CE100BF2069002840F2000064
:1059C000C4F2422000F0888001210160FEF7EEFF62
:1059D000054600BF306880073FF572AFFEF7E6FF6F
:1059E000401B0228F6D9032002B0BDE8F08100BFB9
:1059F000E168306A002900F09D80052900F092805E
:105A0000012940F0AF8040F00100B1E00020C4F275
:105A100042200021C0F88014FEF7C8FF054600BFF1
:105A2000706A80077FF556AFFEF7C0FF401B022863
:105A3000F6D9032002B0BDE8F08100BF0027C4F210
:105A4000422700203866FEF7B1FF022D05460DD132
:105A50003068800140F1DE80FEF7A8FF401B02287D
:105A60004FF00300F4D902B0BDE8F0813068800146
:105A70004FD5FEF79BFF401B02284FF00300F5D9DE
:105A8000F1E700BF40F2CC00C2F20000006844F62B
:105A9000D351C1F26201A0FB0101480A019000BF8D
:105AA00000BF0198411E002801913FF413AF00BFD1
:105AB0000198411E002801913FF40CAF00BF0198EE
:105AC000411E002801913FF405AF00BF0198411E1F
:105AD00000280191E4D1FDE600210160FEF766FF98
