:020000040800F2
:1000000058180020250200088F5000080F500008E3
:100010008D50000859230008757E0008000000007C
:10002000000000000000000000000000615C00080B
:10003000E32300080000000097550008B96200089B
:100040003F0200083F0200083F0200083F0200088C
:100050003F0200083F0200083F0200083F0200087C
:100060003F0200083F0200083F020008A5230008E5
:100070003F020008B12300083F0200083F020008C9
:100080003F0200083F0200085D1100083F0200081F
:100090000D7E00083F0200083F0200083F020008F2
:1000A0003F020008896300083F0200083F02000881
:1000B0003F0200083F0200083F0200083F0200081C
:1000C0003F0200083F0200083F0200083F0200080C
:1000D0003F0200083F0200083F0200083F020008FC
:1000E0003F0200083F0200083F02000800F002F84B
:1000F00000F089F814A696E8000CB244B344DA453F
:1001000001D100F080F8BAE80F000FA696E83000A1
:10011000A5EB040504EB0607AAEB0704A7F101070A
:100120004FEA15154FEA3414A4F10104AC4201D38F
:1001300000F069F813F0010F18BFFB1A43F0010338
:1001400000F001F8DBE7184774B8000094B800002D
:100150000A444FF0000C10F8013B13F0070408BFED
:1001600010F8014B1D1108BF10F8015B641E05D08B
:1001700010F8016B641E01F8016BF9D113F0080F40
:100180001EBF10F8014BAD1C0C1B09D16D1E58BFD2
:1001900001F801CBFAD505E014F8016B01F8016B09
:1001A0006D1EF9D59142D6D370470000704700000C
:1001B0000023002400250026103A28BF78C1FBD870
:1001C000520728BF30C148BF0B60704766290BF04B
:1001D0008A8165290BF0878167290BF08481612969
:1001E0000BF08381752900F09980002070471FB5BE
:1001F00000F03AFE0400002000210AF087FDE060D4
:100200001FBD10B510BD00F033FF1146FFF7EFFF23
:1002100009F09EFA00F051FF03B4FFF7F2FF03BCB0
:1002200000F094FF0948804709480047FEE7FEE7D1
:10023000FEE7FEE7FEE7FEE7FEE7FEE7FEE7FEE796
:1002400004480549054A064B704700003D63000815
:10025000ED00000858120020581800205814002003
:1002600058140020B2F120030AD5C2F1200320FA6D
:1002700002F001FA03F340EA030021FA02F17047A9
:1002800021FA03F04FF00001704700000FB41CB5D5
:100290000C0007AA009007D04142A14202D320449B
:1002A000401E01E04FF0FF30074B7B446946019050
:1002B000069800F09CFD0020002C01D000990870E9
:1002C0001CBC5DF814FB0000670B000070B5044611
:1002D00085690068C10601D5302600E02026C007E8
:1002E00007D070BDD4E9012130469047206A401CF8
:1002F00020626D1EF6D570BD70B504468569007824
:10030000C00707D170BDD4E9012120209047206AA1
:10031000401C20626D1EF6D570BD00002DE9F04135
:100320000646002410687529314616A510D0AFF393
:100330000080002802DA404213A507E031688A07EE
:1003400001D512A502E0490704D511A5012401E059
:10035000AFF3008000210A2206F1240709E0B0FB78
:10036000F2FCB0FBF2F302FB1C003030785418466C
:10037000491C0028F3D123462A463046BDE8F04107
:1003800000F04BB9000000002D0000002B00000021
:10039000200000002DE9F05F894604464FF0000A76
:1003A000DFF874B1FB44C0F820A02046E16888471C
:1003B000002874D0252806D0D4E901219047206A6E
:1003C000401C2062F1E700265F462046E16888472E
:1003D0002028054607DB312D05D2781910F8200CAE
:1003E00008B10643F1E7B00701D526F00406C4F8CA
:1003F0001CA00027C4F818A02A2D09D028460AF00E
:10040000B5FB38B304EB8708303DC8F8185019E045
:1004100059F8041B204604EB87029161E168884784
:10042000012F054618D1E069002820DA26F02006C1
:100430001DE0D8F8180000EB800005EB40003038D4
:10044000C8F818002046E168884705460AF08EFB88
:100450000028EED1012F0AD02E2D08D12046E168C8
:1004600088477F1C0546022F46F02006C4DBA069A2
:10047000002803DA404246F00106A061F00701D0EF
:1004800026F010066C2D0BD0682D09D04C2D39D0DC
:100490006A2D35D0742D35D07A2D33D016E038E062
:1004A000E1682F4620468847B842054609D16C2F9F
:1004B00026D04FF48060E168064320468847054611
:1004C00004E06C2F1AD04FF4807006430DB3A5F1F1
:1004D0004100192802D8203546F400664A462946CC
:1004E000204626604E46FFF771FE80B101280BD0F2
:1004F000F61D26F0070000F1080956E74020E4E762
:100500008020D8E70020D6E706F104094DE7284609
:1005100052E7206ABDE8F09F26B2000010B5431CE8
:1005200002E010F8011B71B18107FAD14FF00132DE
:1005300002C88C1A8C4314EAC211F9D0C01A0A06F8
:1005400003D0C01E10BDC01A10BD0A0401D0801E09
:1005500010BD0902FCD0401E10BD4FF0000200B5D6
:10056000134694469646203922BFA0E80C50A0E8D6
:100570000C50B1F12001BFF4F7AF090728BFA0E884
:100580000C5048BF0CC05DF804EB890028BF40F850
:10059000042B08BF704748BF20F8022B11F0804F92
:1005A00018BF00F8012B704710B5044610F0030F78
:1005B00008BF11F0030F40F015804FF0013E121FED
:1005C000C0F20E8051F8043BA3EB0E0C2CEA030C96
:1005D0001CEACE1C08BF40F8043BF0D0A1F1040196
:1005E00002F10402521E08DB11F8013B00F8013B46
:1005F000002BF7D1114600F015FC204610BD7047C6
:100600007047704710B500F033FC006810BD10B59E
:10061000044600F02DFC046010BD2DE9F0470D46A6
:1006200099469246044600F124080168880604D5DC
:10063000E06921F01001216000E00120A84201DD05
:10064000471B00E00027A1697A1902EB0900081A8C
:10065000A0612078C00602D42046FFF737FE0026AE
:1006600008E0D4E901211AF806009047206A401CEE
:10067000761C20624E45F4DB2078C0060AD5204661
:10068000FFF724FE06E0D4E9012130209047206ADC
:10069000401C2062381EA7F10107F4DC07E0D4E912
:1006A000012118F805009047206A401C2062281E8E
:1006B000A5F10105F3DC2046FFF71EFE20780006B9
:1006C00002D50220BDE8F0870120FBE72DE9FF4FAE
:1006D0000C461E464FF0FF378BB0D2E90001DDF823
:1006E00060800A908A46C1F30A5505B93D4600214B
:1006F00008464FF00000BAF1000F00F4400005DAA0
:1007000000EB80004FF4400101EA50004FEA90599D
:10071000B9F1010F00DDB9460A9850EA4A000ED03F
:1007200044F61050A5F2FF3545432F14B8F1000FE1
:100730001ED07542291E1EDDC9F100021CE0B8F171
:10074000010F4FF0000001D0302103E0F24305E03B
:100750002154401CB042FBDB3046002200212154D2
:100760000B99C1F80880C1E900200FB0BDE8F08FF7
:10077000BD1B6D1CDEE74A4600DA694206A800F0A0
:1007800001FC06AB93E8070003AB83E80700504683
:100790000A9909F003FE8DE80700A0F500501F3804
:1007A00000900398002D0ADD42F21F014A460844DA
:1007B000002303A9039068460AF06CF809E0A0F54D
:1007C00000504A461F38002303A9039068460AF0E8
:1007D00076F88DE807000004000C03D04FF0FF30DE
:1007E000410800E01046B8F1000F03D0002200924B
:1007F00015461EE0751E05D400F03EFB30326255F2
:100800006D1EF9D5B3460122084302D000227F1C99
:1008100004E02078302801D100227F1E002A0997A9
:1008200084D01DE0112D07DA00F026FB303262552E
:100830006D1C50EA0102F5D1084302D00098C8B1FE
:100840000EE00021681E05E0235C625C63542254C4
:10085000401E491C8142F7DBAB46A81B401E099095
:10086000002004F80B000B98099AC0F80880C0E932
:10087000002B7AE711264FF0000857E72DE9F04FDB
:1008800088460446D21D22F0070191B0D1E900014B
:10089000CDE90A010AF04AF902460B98C00F01D0CF
:1008A0002D2007E02068810701D52B2002E02021C0
:1008B00001EAC000032A099001D0072A05DB03469C
:1008C0004146204600F01EFB0BE12078800601D552
:1008D000E06900E00620B8F1650F814606D0B8F166
:1008E000660F18D0B8F1670F70D131E00020B9F170
:1008F000110F009001DB112301E009F101030AAAA5
:1009000001A90CA8FFF7E2FEDDE90C70002609F151
:100910000105834647E001204B4600904FF0004719
:100920000AAA01A90CA8FFF7D1FEDDE90DB00C99C8
:100930005D46002610B909F101000D18B9EB05005C
:1009400003D4C0F1FF3609F10105A5EB09002BE046
:10095000B9F1010F01DA4FF001090020B9F1110FCF
:100960000090484601DD112300E003460AAA01A9D0
:100970000CA8FFF7ABFEDDE90C704D460026834660
:10098000207800070AD4AB4500DA5D4601A8012DA6
:1009900004DD411911F8011C302907D04F4502DA56
:1009A00017F1040F04DA012082460FE06D1EEEE716
:1009B000002F02DCED1B3E4403E0781CA84200DD62
:1009C0007D1CB81B00F1010A4FF00047207800079A
:1009D00003D4AA4501DB4FF0FF3A0021B7F1004FE5
:1009E0000DF143088DF8431024D002202B23002F53
:1009F00001DA7F422D230A21021EA0F1010000DC52
:100A00005FB197FBF1FC97FBF1F201FB1C7C1746F1
:100A10000CF1300C08F801CDEEE7A8F101000370ED
:100A20002188090501D5452100E06521A0F10108D3
:100A300000F8011C09980FA9A1EB0807FF1D00B1E0
:100A40000120411901EBEA70A1693844081A401EDF
:100A5000A0612078C00602D42046FFF737FC099831
:100A600028B1D4E901219047206A401C20622078F7
:100A7000C00622D52046FFF729FC1EE0002E04DB2D
:100A8000B34502DD01A8805D00E03020D4E90121FA
:100A90009047206A401C2062761CAAF101005FEAA0
:100AA000000A0AD100F0E0F9C0680168405CD4E9AE
:100AB00001219047206A401C2062281EA5F10105F3
:100AC000DCDC07E0D4E9012118F8010B9047206A2B
:100AD000401C2062381EA7F10107F3DC2046FFF717
:100AE0000BFC032011B041E62DE9F04F04460D4602
:100AF000D21D22F0070089B0D0E900974846394658
:100B00000AF014F80246F80F01D02D2307E0206800
:100B1000810701D52B2302E0202101EAC0038DF8D3
:100B200020300BB1012000E00020032A824601D0D2
:100B3000072A04DB2946204600F0E4F93FE120784B
:100B4000800601D40D2500E0E569C7F30A560D2D96
:100B500049DA00214FEA175B08464FF00000002FEA
:100B600000F4400007DA00EB80004FF4400100EB96
:100B7000D07001EA60008115012901DD4FF0FF31DD
:100B800000224FEA850CBCF1180F06D31346ACF1D6
:100B900018004FF08052C24003E04FF4801323FA54
:100BA0000CF30CF10C0CBCF1200F04D3ACF1200CB5
:100BB00009FA0CF001E007FA0CF000294FF00048A8
:100BC00001DD18B90FE00ED140450CD319EB020935
:100BD0005F4121B9404502D19F4329EA0209BBEB9D
:100BE000175F00D0761C2088000502D57B4878442A
:100BF00002E07A487844193808AA302302F80A300B
:100C0000037C0AF10101002E0AF1020A53546A46DC
:100C100002DC4FF0300101E04FF031014FF00108EC
:100C20008DF8001002D0A6F2FF3603E059EA470122
:100C300000D06B4E002D02DC2178090704D54FF05F
:100C400002082E218DF80110C44600210BE0C7F3E5
:100C500003433F01C35C491C6D1E02F8083005299F
:100C600008F1010801DA002DF1DC00210CE000EBB5
:100C70001973491C1B786D1E082902F808304FEAC9
:100C8000091908F1010801DA002DF0DC21688B0652
:100C900002D516E0A8F10108E04505DD02EB0803E6
:100CA00013F8013C302BF5D0B8F1000F09DD02EB51
:100CB000080313F8013C2E2B03D1090701D4A8F136
:100CC0000108002D05DD3E2102F808106D1E08F117
:100CD0000108407C002E02F8080008F1010804DA3F
:100CE0002D20764202F8080002E02B2002F80800CE
:100CF0000A214FF47A70864208F101080BDB96FB5B
:100D0000F0F3303302F8083096FBF0F308F10108F5
:100D100000FB136601E0642E0CDB642096FBF0F30D
:100D2000303302F8083096FBF0F308F1010800FBBD
:100D3000136601E00A2E06DB96FBF1F0303002F874
:100D4000080008F1010896FBF1F001FB106030305B
:100D500002F80800A16908F1010808EB050202EB9E
:100D60000A00081AA0612078C00602D42046FFF7C6
:100D7000ADFA216A08AE01EB0A00206204E0D4E972
:100D8000012116F8010B9047BAF1010AF7D2207839
:100D9000C00602D52046FFF799FA6E4609E016F81C
:100DA000010B3E280FD0D4E901219047206A401C56
:100DB0002062B8F10108F2D22046FFF79DFA09B08F
:100DC0000320BDE8F08F206A2844206203E0D4E9C4
:100DD0000121302090476D1EEBD3F8E741AA0000B7
:100DE00002FCFFFF01694A1C02610878704700B5E8
:100DF0008FB0CDE901310021059105497944CDE954
:100E0000031011466846FFF7C5FA0FB000BD000099
:100E1000E5FFFFFFD1E900239A4202D2531C0B6089
:100E2000107070474FF000020429C0F0128010F0DB
:100E3000030C3FF494ABCCF1040CBCF1020F18BFCF
:100E400000F8012BA8BF20F8022BA1EB0C01FFF743
:100E500086BB5FEAC17C24BF00F8012B00F8012BA0
:100E600048BF00F8012B7047004870477802002007
:100E7000004870475802002030B5B0F10A0271F105
:100E800000034FEA900E4EEA817EB0EB0E0061EB5C
:100E900091014FEA101E4EEA017E10EB0E0041EB6D
:100EA00011114FEA102E4EEA016E10EB0E0041EBCD
:100EB00011214FEA104E4EEA014E10EB0E0041EBAD
:100EC0001141401841F100014FEAD00040EA417061
:100ED0004FEAD1014FEA810444EA907410EB800597
:100EE00044EB01046D1944EB0404521BA3414FF081
:100EF000000348BF0A3200D530BD401C41F100015B
:100F000030BD00002DE9F0411F460446032601686C
:100F1000072A01F4006004DB08B116A505E016A558
:100F200003E008B115A500E015A521F01000206030
:100F3000A069C01EA0610FB1401EA0612046FFF74E
:100F4000C5F94FB1D4E9012138469047206A401CC9
:100F50002062C01C206206E0206AFAE7D4E9012181
:100F600015F8010B9047761EF8D22046FFF7C4F91A
:100F7000BDE8F0814E414E006E616E00494E460064
:100F8000696E66002DE9F047814616468AB03548FD
:100F900078440DC88DE80D0032487844801C03ACBD
:100FA0000DC884E80D0041F69B300844372190FBC2
:100FB000F1F290FBF1F5A5F1800501FB12041B3C59
:100FC00002D56442012000E00020DFF898A08046AE
:100FD0000027FA44AAF1BE0A0EE0E0070AD0324622
:100FE000684607EB470101230AEB810109F067FC22
:100FF0008DE8070064107F1C002CEED1194F7F4450
:10100000AE3F19E0E80715D007EB04100DF1180A00
:1010100090E80E008AE80E00C068F04201D19819ED
:1010200008903246012306A903A809F048FC03AB47
:1010300083E807006D10641C002DE3D14FF001031D
:1010400032466946B8F1000F03A802D009F022FC2D
:1010500001E009F034FCC9E90001C9F808200AB030
:10106000BDE8F08730A70000004870475802002014
:101070007546FFF7F9FFAE4605006946534620F076
:101080000700854618B020B5FFF7DAF8BDE8204024
:101090004FF000064FF000074FF000084FF0000B34
:1010A000AC46ACE8C009ACE8C009ACE8C009ACE8A3
:1010B000C00921F007018D46704710B50446AFF313
:1010C00000802046BDE81040FFF7A6B84FF0013C75
:1010D00050F8042B51F8043B9A4221D1A2EB0C03A7
:1010E000934313EACC1317D150F8042B51F8043B67
:1010F0009A4215D1A2EB0C03934313EACC130BD104
:1011000050F8042B51F8043B9A4209D1A2EB0C038E
:10111000934313EACC13DBD04FF00000704700BFBD
:10112000D01A01BAB1FA81F101F0180122FA01F0E6
:10113000CB40DBB2C0B2C01AC1F120012CFA01F3DE
:10114000D11A914311EAC311E6D170470149182021
:10115000ABBEFEE7260002007047000080B50448E1
:1011600001F0ABFA0348BDE8804001F0A6BA00BF29
:101170005004002080040020B0B504460068816857
:10118000C90701D10020B0BD816821F00101816053
:1011900001F0F8FF054620688068C007F2D001F032
:1011A000F1FF401B0328F6D3A06A40F01000A062B4
:1011B00004F0B0F90120B0BD0146406A826A12F025
:1011C000500F03D0006A026B084610470168826A1C
:1011D00042F400728262896801F46021B1F5602FE7
:1011E00001D1017B09B101F033BA816A21F4807128
:1011F0008162816AC904F6D4816A41F00101816289
:1012000001F026BA406A816A41F040018162C16AF8
:1012100041F00401C16201F04CBA406A01F048BAE1
:10122000BCB504460020019021688A68D20725D108
:10123000886840F001008860114812490068B0FBDE
:10124000F1F00190019810B101980138F9E701F02F
:1012500099FF054620688068C0071CBF0020BCBD00
:1012600001F090FF401B0328F4D3A06A40F0100067
:10127000A06204F094F804F04DF90120BCBD00BF59
:10128000F800002040420F0080B509F06FFF0349CD
:1012900009F0E8FF024909F01FFE80BD33335340D7
:1012A00000F07F452DE9FE4FDFF8C0B39246884637
:1012B00000280BF12C0307C300F09980EC4D064683
:1012C000EC49286888422BD16868EB49884227D1CD
:1012D000EC6B284608F090FD844221D1D5E90270DC
:1012E000A94609F043FFE54C214609F0F5FD054606
:1012F000384609F03BFF214609F0EEFD4FF07E51E4
:10130000074609F0D6FD58B9DD49384609F0BCFD5D
:1013100030B9DC49284609F0CCFD002800F0F28005
:10132000002201214FF07C544FF0000900270025D6
:1013300000208BF800009BF8000038B1B46286F8FA
:10134000262086F8251086F8249003E096F824904D
:10135000D6E90475CC49284609F096FDC94C002809
:101360001CBF0025C4F2401503F0E8FFC449002863
:10137000384608BF2546756109F086FD00281CBF68
:101380000027C4F2482738464FF07E514FF07E5474
:1013900009F07AFD00285FFA89F008BF2746376117
:1013A000C249022824BF002086F8240096F82500B0
:1013B000032824BF012086F8250096F8260002287D
:1013C00024BF002086F82600B46A0020308320461F
:1013D00009F05AFDB64D00281CBF45F2EC14C3F6C7
:1013E000787403F0EEFE002808BF2C46B462B8F112
:1013F000000F09D040463C2103F016F9DBE90C0A46
:101400000068406AABF82400BAF1000F09D05046DA
:101410003C2103F009F9DBF834000068406AABF8BE
:1014200026009A4CA34EB4F84010E06BB047A24D92
:1014300084F8430084F84200A8476064A06CB4F8C4
:101440004C10B04784F84F0084F84E00A847206540
:10145000606DB4F85810B04784F85B0084F85A0007
:10146000A847E06504F05EFA0120012704F062FB62
:1014700006F0C0FD05F004F9904C4FF400612046E1
:10148000B047A84704F04BF8400905F083F9002065
:10149000002608F09DFC204604F073F803F03CFFA2
:1014A0000DD04168CBF838108168CBF83C1001684A
:1014B0008BF80370CBF84010C068CBF84400A84705
:1014C000CBF84800A847CBF84C00A847CBF8500011
:1014D0007B48ABF80460242106707A481830FFF787
:1014E0003CF8A847CBF85400ABF80660A847CBE916
:1014F0001606CBF860608BF808600020BDE8FE4F50
:1015000007F042BD6049284609F0BEFC00220121D7
:101510004FF07C5400287FF407AFD9E904015B4BFE
:101520000091D9F818100191D9F81C100291D9F83E
:101530002010002918BF01211970D9F824100229A0
:1015400028BF11468BF80210D9F82810022928BFAD
:1015500011468BF80E1009F009FE484909F0BCFC51
:101560004B4903F061FF4B4900281CBF40F20009C2
:10157000C4F27029484609F087FC0028454808BF96
:1015800081464248C0F81090009809F0EFFD3B49B1
:1015900009F0A2FC404903F047FF00281CBF40F2BD
:1015A0000009C4F2601948464FF07C5109F06CFC08
:1015B0000028364808BFA146C0F81490019809F0E9
:1015C000D5FD364909F088FC354903F02DFF334934
:1015D00000281CBF40F20009C4F21649484609F031
:1015E00053FC00282D4808BF81462848C0F81890B1
:1015F000029809F0BBFD294909F06EFC294903F066
:1016000013FF294900281CBF40F20009C4F2963993
:10161000484609F039FC0028234808BF81461B488A
:10162000C0F81C901248C16A0291D0E90C91806BFD
:101630000191009009F09AFD104909F04DFC0099C4
:1016400003395F2938BF0446019A01210020022A8C
:1016500028BF0246B9F1030F38BF4946029B022B4F
:1016600038BF18468146012063E600BFF004002021
:1016700000FC000850425542010002000000C84230
:1016800000004842CDCCCC3D000040410400002089
:10169000000070420000A0400000604100002041B6
:1016A000000016440000964300001643EC51783FBA
:1016B0008FC2F53C7131000885310008000C0140F3
:1016C000B9020020E00500202DE9FE4F01F05AFD8F
:1016D000DFF8E0BB804603F01FFE00F0188401F045
:1016E00051FDDBF82C701FB3DBF8481097F825206C
:1016F0005023411A022A08BF9623002A08BF282334
:1017000099425FD3CBF848009BF8030000284AD0E9
:1017100097F82500CE4D022804BF49F69A15C3F666
:101720001965002804BF4CF6CD45C3F60C750BE0D7
:10173000DBF84810411A5029C0F0E983CBF8480083
:101740009BF8030078B3C24DDBE90E647868DBE9EF
:1017500010A9314609F052FE03F025FD314609F08B
:101760001DFBCBF838002146B86809F047FE03F0AE
:101770001AFD214609F012FBCBF83C0051463868AF
:1017800009F03CFE03F00FFD514609F007FBCBF8D2
:1017900040004946F86809F031FE03F004FD49466F
:1017A00009F0FCFA0CE07868CBF83800B868CBF8A0
:1017B0003C003868CBF8400001208BF80300F86843
:1017C000CBF84400DBF83010002956D00968BBF88C
:1017D0002400496A8AB2ABF8241082424DD0081A1C
:1017E00001B203F024FE0CD9022835D0032844D1DD
:1017F0000BF1680008F020FA00283ED004F0D8FE73
:101800003BE097F82600012807D19248924B07F158
:10181000280201909148009014E0DFF89C0A904A59
:101820004FF07E53C078CDE900328E4B07F11002A5
:10183000022804BF4DF20A73C3F62343002808BFF1
:101840004FF07E530BF1680006F058FBA8B106F08C
:1018500043FB08F0DFFA10E00BF1680008F0ECF948
:1018600058B19BF81510401848BF0A200A28C8BF75
:1018700000208BF8150006F09BFEDBF834100029E1
:1018800000F00A810968BBF82600496A8AB2ABF801
:101890002610824200F00081081A01B203F0C7FD51
:1018A0001DD9022840F0F8800BF16C0008F0C4F953
:1018B000002800F0F1809BF815100A2900F2EA8058
:1018C000DFE801F0067D50572D84A362E249BE0097
:1018D0009BF8160003F0A3FC8BF81600DAE0DFF8A3
:1018E000D809614BDBF82C20007901935D4B02286D
:1018F000009304BF4DF20A73C3F62343002808BFC8
:101900004FF07E530BF16C00143206F0F7FA00280A
:1019100000F0C28006F0D0FA08F07CFABCE009F0D2
:101920000DFC4FF07C5109F09DFCDFF88C69316AA9
:1019300009F034FA4D49044609F0A6FA4C4D002846
:101940001CBF0024C4F2702403F03BFC002808BF35
:101950002C4634629EE09BF8190003F060FC8BF883
:10196000190097E09BF8180003F059FC8BF8180059
:1019700090E0DFF844194A79801848BF0220022815
:10198000C8BF0020487185E009F0D8FB384909F04C
:1019900069FCDFF82469F16A09F000FA3549044668
:1019A00009F072FA344D00281CBF0024C4F29634AA
:1019B00003F007FC002808BF2C46F4626AE09BF89D
:1019C000170003F02CFC8BF8170063E009F0B6FB5E
:1019D000244909F047FCDFF8E058696A09F0DEF9AC
:1019E0002649044609F050FA00281CBF0024C4F21E
:1019F000601420464FF07C514FF07C5609F044FAB9
:101A0000002808BF34466C6244E009F097FB1C4C88
:101A1000214609F027FCDFF8A068B16A09F0BEF999
:101A20001849054609F030FA00281CBF0025C4F209
:101A3000164503F083FC002808BF2546B56229E05F
:101A40009BF81A0003F0EBFB8BF81A0022E000BFB2
:101A50009A99993EEC51783F0AD7233C8FC2F53CC6
:101A600000004842CDCCCC3D000040410000704217
:101A70000000A040000096430000164300006041B3
:101A80000000204100001644DFF82C08817981F025
:101A90000101817106F08CFD03F03EFC00F03782FD
:101AA000DFF81468DFF81C4806F13C00A04706F197
:101AB0004800A047054606F15400A04701F062FB2C
:101AC00096F843209BF81C1072B1002961D09BF856
:101AD0001D0000285AD103F0AAFC4AD9032855D189
:101AE000002004F001FE51E019B19BF81D1031B146
:101AF0004FE00121ABF81C10DFF8CC1708609BF811
:101B00000910012945D8DFF8C0170968401AB0F557
:101B10007A7F3ED301209BF80D1006F1100706F1E5
:101B2000200C9BF80E208BF81D009BF802008BF810
:101B300016109ACF8BF819208BF81A00DBF82C00BE
:101B4000ACE89A003178B17150B190F8241090F857
:101B5000252090F826008BF817008BF8181072716A
:101B600002208BF8090000208BF8150006F020FDFC
:101B70000FE0DBF82C0090F8260038B9F07803F07D
:101B800049FC08BF0121F17006F0A6F90020ABF86E
:101B90001C0001F0F7FA9BF809109BF81E2096F83C
:101BA0005B3004293BD1002B48D0002A00F078811B
:101BB000DBF82C000024ABF81E40002800F07081F8
:101BC00006F076FABB4803F0DCFCCBE9174401F0E1
:101BD000D9FADBF82C10ABF80740CBF8580040F2EC
:101BE00001104A68CBF838208A68CBF83C200A6894
:101BF0008BF80640CBF84020088301208BF80300C7
:101C0000C868CBF8440008F02BF8DFF8C00680F86D
:101C10003840002007F0B8F98BF80C4040E1BBB128
:101C2000002A00F03D819BF81F00002840F035811C
:101C300003294DD1022004F057FD2EE1002A40F087
:101C40002F810121ABF81E10DFF87C16486027E1D8
:101C500042B19BF81F20002A40F02281DFF868265D
:101C6000526806E00122ABF81E20DFF85C265060C7
:101C70000246801AB0F57A7FC0F0128101208BF8FD
:101C80001F00DBF82C00032954D1002800F0088144
:101C900004F0E4FC306BDBF82C100861706B4861D9
:101CA0009BF82000B26B08768A6200289BF82120FE
:101CB00081F8262018BF012048764FF40041002209
:101CC0007C4801F05AFA9BF8220007F05DF9E7E042
:101CD000012940F28680022940F0DF8006F12003CE
:101CE00006F110040FCB0FC4B0799BF819209BF8B4
:101CF0001A309BF8181030708BF80E20DBF82C206F
:101D00009BF817008BF8023082F82600707982F871
:101D1000241082F82500581E03F081FA04F03AFDE1
:101D200003F0F4FA03F0DDFA00F0928000208BF863
:101D30001B008FE0002800F0B38004F08FFC9BF8BC
:101D40000D0000248BF82200DBF82C000169027ED4
:101D5000316341698BF8202090F8262071638BF85D
:101D600021200483806AB0634FF4967001F068F814
:101D7000504F4FF400410122384601F0FEF99BF824
:101D80000E10DBF82C004C4A8BF8044001294B491B
:101D900080F8264004BF0022C4F2A00204BF002144
:101DA000C4F24011C0E9041207F05AFFDBF82C001E
:101DB00040F20111018301F0E5F9044601F0E2F976
:101DC000001BC0087C281DD807F054FF06F01AF944
:101DD00003F01BFB0ED0007E60B1012001F030F853
:101DE000ECE79BF8040010B903F00FFB29D106F0D3
:101DF0005FF952E038464FF400410022002401F020
:101E0000BCF909E703F001FB17D0007EA8B103F08D
:101E100086FB400904F0BEFC04F0FCFB03208BF8B9
:101E2000090004F05DFCF16904F074FC0020CBE9CA
:101E30001A00012004F0BEFC32E0384603F0A1FB9A
:101E40002EE0017E59B10021018307F0E3FF1CE081
:101E500007F0E0FF9BF8160007F096F81DE04169D7
:101E6000006907F0DFFF03F03CFA02D000208BF896
:101E70001B0000208BF8040007F0F2FEDBF82C00BA
:101E80000121427E017602B9417600208BF80C00D8
:101E9000307810B1012006F099F80020ABF81E0050
:101EA000B5B103F0C4FA0BD9032811D1012004F015
:101EB0001BFC0DE0000C01400000C0400000A041F0
:101EC000307903F0A7FA08BF0121317105F0F4FF62
:101ED00003F022FA1BD09BF81B10012917D19BF8A5
:101EE0000910012913D8017E89B9407E78B901F023
:101EF00049F9DBF87410401AB0F5FA7F07D303F004
:101F000005FA03F0EEF902D000208BF81B0007F071
:101F1000B1FE06F077F803F0FFF915D001F032F9C1
:101F2000DBF82C109BF807300A7E002A114618BFF8
:101F3000012183BB7AB30022CBE91602CBF86020E3
:101F40008BF808208BF8071004F092FB80B1DBF8C7
:101F50002C1029B1497E03290AD09BF8041039B905
:101F6000D549097821B1400702D0012006F02EF8AA
:101F70009BF80900032804D104F0B2FB03F04FF9E9
:101F80002DE003F0C9F929D0017E39B3407E033832
:101F900018BF012023E0002B00F02481002A00F06C
:101FA0002181DBF85820DBF86030CBF85800801A2C
:101FB0001844B0F57A7FC0F02E8100228BF80820FB
:101FC0004FF47A72B0FBF2F303FB1200CBF860001F
:101FD000DBF85C001844CBF85C00B3E7002007F0A6
:101FE000F7FE03F024FA2CD801F0CCF8DBF87020CF
:101FF000DBF87810091A121A002A0ADC002908DC1A
:10200000AD48C179D9B900218BF80A100121C171FD
:1020100012E0DBF85030C31ADC2B10D3CBF85000A1
:10202000A548012AC37983F00103C371A4BF00202E
:102030008BF80A00012902DB00208BF80B009BF8CB
:102040000900032800F0C98001283BD0002840F097
:102050002E81DBF84C00DBF82C206421A8EB00007B
:102060003AB192F82520022A08BFC821002A08BFE9
:102070003221884206D3CBF84C8006F037FC012091
:102080008BF80C009BF80A0028B90120012406F007
:10209000C5FC8BF80A409BF80B0028B9002006F01D
:1020A000BDFC01208BF80B009BF80C0010B901203F
:1020B0008BF80C009BF80800002840F0F88006F030
:1020C00023FDF1E001F05EF8DBF82C20FA2142B1AB
:1020D00092F82520022A08BF4FF4C871002A08BFD1
:1020E0006421DBF86420821A8A42C0F0C180BBF808
:1020F0002870CBF86400DBE90E4507F1140A50465E
:1021000007F0E8F96D4E2046314608F0BDFE002884
:102110001CBF0024C4F248242046002108F0B4FE6D
:102120003146002818BF204608F0D6FE6849884688
:1021300009F098F808F0C6FF614C064603F0FEF877
:1021400000281CBF0025C4F240152846002108F0D5
:102150009BFE2146002818BF284608F0BDFE4146D8
:1021600009F080F808F0AEFFC0F1AC08C6F1AC068B
:10217000B7F5937F03D807F1150007F0ABF99BF88B
:1021800002009BF8121040F2FF724B4F4FF6E074C2
:10219000012808BF1F22012940D1B7F908001428DF
:1021A0003CDB82453ADDB7F90A10009252463346CD
:1021B00006F06CF99BF80200B7F90850B7F90C90DB
:1021C000012802D102F069FF0446284649465246DA
:1021D0004346009406F05AF932E00020BDE8FE4F75
:1021E00004F0E8BAA3B19AB900220BF158048BF8B5
:1021F00008201CCC821A22444FF47A74B2FBF4F506
:1022000005FB14222B44CBE91603CBF8602099E69A
:10221000CBF8580096E6CBF8600093E61FFA8AF5F3
:10222000B1B2284603F00EFB02F0B9FF02D102F072
:1022300034FF04461FFA88F12846224603F002FBC9
:102240000120A7F80C807E81A7F808A08BF8120067
:10225000BBF828000130ABF8280080B2B0F5947FBD
:1022600022BF00208BF81200ABF8280006F08AF895
:102270009BF80A0028B90120012406F0F5F88BF834
:102280000A409BF80B0028B9002006F0EDF8012069
:102290008BF80B009BF80C0008B906F073F89BF85C
:1022A000080020B906F01AFC01208BF80800BDE8F0
:1022B000FE8F00BFF0040020040000200000484210
:1022C00000004041717F00086C050020E0050020FF
:1022D0000000104370B5F44E06F13C04204600F0B7
:1022E000E5F8174D284600F0E1F806F10801204610
:1022F000042200F01BFC642000F0A2FD1148124AE9
:1023000005F130010430FEF7CDFF104803F096F9D7
:102310000F4C00210025204602F0E2FA2046002161
:1023200002F023F80B488561016821F0500101603B
:1023300003F0CCF92046BDE8704002F05DB800BF64
:10234000800400208C000020441100208FC2F53C46
:1023500004110020202C0140FEE7002070470020DF
:102360007047000010B50E4C05490022204604F0CD
:102370008DFD0449204604F083FD002010BD00BF00
:10238000B00A0020700A002010B5054C0146204616
:1023900004F076FD204604F059FD002010BD00BF7A
:1023A000F40A0020014800F04FBC00BFB80D002027
:1023B000014800F049BC00BFFC0D0020F0B5066CE0
:1023C000D0E900450127C06B07FA06F6102D4660DC
:1023D0000846636008BF1046A06008BF0A46E26076
:1023E000F0BD7047EFF3108072B6FEE71949002286
:1023F000CA6105490A6842F002020A60486008683A
:1024000040F04000086070471020024026480168F4
:10241000C90601D4002105E00E49CA6942F0020252
:10242000CA6110210268520706D50A4A41F0040128
:10243000D36943F00103D3610269D20708D0054A8A
:10244000D36943F00403D361026922F001020261FF
:102450000160704708120020F8B5134E044600F0E2
:1024600091FE0546671C3068C00709D0002FFAD0DE
:1024700024B100F087FE401BA042F4D90320F8BD30
:102480003068800644BF202030603068C00607D422
:102490003069C00704D1306840075CBF0020F8BD38
:1024A000FFF7B4FF0120F8BD0C2002407CB50446C4
:1024B0000020019094F82400012801D102254EE06B
:1024C00002F065FEFEF758FE0546002844D1A06ADA
:1024D00041F2021188430230A0625B480668022084
:1024E00001F09EFAB6FBF0F040000190019810B1A7
:1024F00001980138F9E72046FEF792FE20688168CE
:1025000041F00801816000F03DFE064620688168C8
:10251000090705D500F036FE801B0A28F6D90FE022
:10252000816841F00401816000F02CFE06462068BD
:102530008068400709D500F025FE801B0B28F6D3E4
:10254000012510206FF0120102E001206FF003015D
:10255000A26A11400843A062002084F824002846A3
:102560007CBD00BF7047000078B50022009290F853
:102570002420012A01D102214BE04C68012280F87D
:10258000242004EB8403062C05D802686FF00405B0
:1025900002F134040AE002680C2C87BF02F12C041B
:1025A0006FF0400502F130046FF022051D441F2337
:1025B0002668AB409E430B6803FA05F5354325605A
:1025C00003EB4304092B17D989681E3C0725A1405A
:1025D00005FA04F4D56825EA04042143D16023F008
:1025E0000101102911D1DA498A4214D0816A41F0DF
:1025F00020018162012109E0072315698968A34050
:1026000025EA0303A140194311610021002280F84B
:102610002420084678BD89680902F6D49168102BF9
:1026200041F400019160F0D10749084A0968B1FB03
:10263000F2F101EB81014900009100990029E4D0F9
:1026400000990139F8E700BFF800002040420F0070
:102650000068BF49884200D07047B0B51348124B9C
:1026600000F14005198934CD11445A89DB8922448F
:102670002B4400F140040EC4038A013303829BB251
:102680001E2BBDE8B040E7D30023C0E910338364BC
:1026900003820123836103701E23B2FBF3F2B1FBBB
:1026A000F3F182824182704714040020B8020020B6
:1026B000704770470068C06C704710B504460068EA
:1026C0004168890621D5016889071ED5A16AC90616
:1026D00003D4A16A41F40071A162816801F4602110
:1026E000B1F5602F0AD1217B41B9416821F0200169
:1026F000416002F020FF01D402F031FF2046FFF7D5
:10270000A7FF20686FF0120101604168090630D50B
:10271000016849072DD5A16AC90603D4A16A41F40D
:102720000051A162816801F4E041B1F5E04F0DD1A3
:10273000416821F080014160A06A20F48050A062CD
:10274000A06AC0050ED402F00AFF0BE041684905FB
:1027500008D4816801F46021B1F5602F02D1217B9A
:102760000029E5D02046FFF7FDFE20686FF00C0140
:102770000160416849060DD50068C0070AD0A06A0B
:1027800040F48030A062204600F080F820686FF0AE
:102790000101016010BD0000A0B3B0B50446806A1D
:1027A00028B902F0FCFDE062204600F071F82046F6
:1027B000FEF7E2FCA26AA16AD20625D420BB41F250
:1027C000021021EA00000230A062D4E90101E269AE
:1027D0004B1E1043227BB3FA83F35D090B4640EA9C
:1027E0004200B1F5807F18BF2B02257D012D14D149
:1027F00072B1A26A42F02002A262E26A42F00102D1
:10280000E2620AE00120704741F01000A06234E06B
:10281000A26903EB4232A2F5C0532268556825F441
:1028200069452B43164D536093682B400343B1F524
:10283000807F936001D0012904D12169114B03EB02
:10284000015100E00021D36A23F470031943D162DF
:1028500091680D4A1140814207D100200122E062B7
:10286000A16A62F30101A162B0BDA06A40F010004C
:1028700020F00200A06202F04DFE0120B0BD00BFBA
:10288000FDF7E1FF0000F0FFFE0E1FFF70470000A4
:10289000F0B585B004460020DB49CDE90300CDE961
:1028A00001002068884232D0D84988424DD1294859
:1028B000016841F400710160016801F40071009148
:1028C000009902F0FBFB0090032002901B20019076
:1028D000009801A9204800F075FB204D204F0020F2
:1028E000202180264FF480624FF48073C5E9007088
:1028F000C5E90206C5E906102846C5E9043200F01C
:1029000039FA08B1FFF76EFD6C62256215E01148D7
:10291000016841F480610160016801F48061009107
:10292000009902F0CBFB009003200290442001901C
:10293000009801A9084800F045FB12200021002260
:1029400000F08CFC122000F07DFC05B0F0BD00BF53
:10295000002401401810024000080140B80D00207A
:10296000080002402DE9FC4100260D460446019670
:1029700000F008FC804620688168C90528D44168B9
:10298000C90503D4C16A11F4700F2AD0394806680A
:10299000022001F045F82168B6FBF0F0374E364BC7
:1029A0000A69324203D1CA68354E324228D00A69D8
:1029B0001A4203D1CA68334B1A422BD00E69324BEC
:1029C000FC221E4227D1C968194208BF542222E0C6
:1029D00084F82460A06A40F02000A0620120BDE8D5
:1029E000FC816F1C016889072CD4002FFAD025B315
:1029F00000F0C8FBA0EB0800A8421ED82068F1E751
:102A00000E6929221E4206D1C9681E4B194208BF11
:102A1000142200E0542202FB00F76E1C0198B84219
:102A20000FD236B14DB100F0ADFBA0EB0800A842CB
:102A300003D8019801300190F0E702F02BFCBDE8CB
:102A4000FC8120686FF012010160A16A41F40071FD
:102A5000A162806800F46020B0F5602F06D1207B71
:102A600020B902F068FD01D402F079FD0020BDE834
:102A7000FC8100BFF80000209224491224499224CE
:102A8000244992009224490049922400B0B502F0F2
:102A900079FB04BF0220B0BD02F02BFB18B102F09D
:102AA0007EFC0120B0BD2068A16A40F20132914352
:102AB00001F58071A162564901F57F72904205D0FF
:102AC000A36A23F48013A362436808E00B6813F43D
:102AD000702FF5D0A36A43F48013A3620B685B05E3
:102AE00004D5A36A012565F30D33A362A36A00250B
:102AF000DB0444BFE56A25F00605E5626FF00205D8
:102B00000023056002F0DBFC09D1904203D081680C
:102B100041F4A00106E0096811F4702FF7D0816834
:102B200041F4801181600020B0BD00BFF8B50E46B1
:102B30000446006834491546884202D03349884229
:102B400004D13348006810F4702F0AD194F824009F
:102B5000012804BF0220F8BD02F0CBFA18B102F040
:102B60001EFC0120F8BD2168A06A40F60172904366
:102B700000F58070A062264800F57F72914205D072
:102B8000A06A20F48010A062486808E0026812F48D
:102B9000702FF5D0A26A42F48012A262006840054C
:102BA00004D5A06A012262F30D30A062A06A00225F
:102BB000194B1A4FC00444BFE26A22F00602E262D7
:102BC0006FF0020200200A6084F82400114A206A93
:102BD000C0E90A7302632B468A6842F480728A60F5
:102BE0004C31324600F0F8F820688268816802F4BF
:102BF0006022B2F5602F0CBF41F4A00141F48011B6
:102C000081600020F8BD00BF002801400024014081
:102C100004240140051200081B120008B911000825
:102C200010B502F0AFFA04BF022010BD02F01EFC86
:102C300028B9A16A41F2011291430131A162002138
:102C400084F8241010BD000070B5D0E90F2301688E
:102C5000146824FA03F56C070C6801D5660715D4CF
:102C6000AE0701D5A6072BD42D0776D5240774D53A
:102C70000C6824F00E040C60012101FA03F3536088
:102C80004FF4807202848163016B62E00A689206ED
:102C900003D40A6822F004020A60314B2F4A994299
:102CA0003CD0304B994228D02F4B99422AD02F4B01
:102CB000994224D02E4B994227D14FF480232EE005
:102CC0000A68920606D4012280F821200A6822F0C0
:102CD0000A020A60224B214A994234D0214B994280
:102CE00020D0214B994222D0204B99421CD0204B1E
:102CF00099421FD14FF4003326E040230FE04FF4F8
:102D000080430CE04FF4806309E002F168044FF067
:102D10008063A14208BF4FF4800300E004231360E6
:102D2000C16A16E020230FE04FF400530CE04FF48B
:102D3000007309E002F168044FF00073A14208BF7C
:102D40004FF4001300E00223002180F820101360EC
:102D5000816A11B1BDE87040084770BD04000240AF
:102D6000080002401C0002403000024044000240C3
:102D70005800024048B32DE9F041D0E9001E00F1AF
:102D8000100CD0E9028443F6F0739CE8E0100A6866
:102D90009A434FF4807342EA0E0242EA0802224349
:102DA0002A4332433A4342EA0C020A600384094B45
:102DB000074A19441423B1FBF3F18900C0E90F213C
:102DC00000218163BDE8F04100E001210846704721
:102DD00000000240F8FFFDBFB0B5044690F82000A7
:102DE00001281DD0012084F8200094F8210001283A
:102DF00013D10020A063022084F821002068056818
:102E000025F0010505602046FFF7D8FA2068E26A40
:102E100001683AB141F00E010AE0002084F8200078
:102E20000220B0BD21F004010160016841F00A01F7
:102E30000160016841F0010101600020B0BD0000A7
:102E4000B0B5044600F09EF90546EC48611C0078D8
:102E500018BF044400F096F9401BA042FAD3B0BD5D
:102E60002DE9F041DFF82C81054698F8180001287B
:102E700001D1022021E001202E680C4688F81800BC
:102E800002F033F9022E13D198B90020424CC8F851
:102E90001C00206840F004002060206840F04000E2
:102EA000206002F022F9216821F00401216001E094
:102EB00030B10120002188F81810C0B2BDE8F081BF
:102EC0004FF0FF30344F20600120A9680E46EA68B9
:102ED00001EB82218E42EDD23046FFF787FA02F0F5
:102EE00004F9396821F00201396020B9A96806F5B2
:102EF00080660020EBE72660DCE700BF264801681B
:102F000041F0800101600020704700BF2DE9F84FBB
:102F1000DFF88080074698F81800012804BF0220D7
:102F2000BDE8F88F01209A4693460E4688F81800AF
:102F30004CF25030FFF790FA38BB3846022F18BFDA
:102F40000420012F08BF3846134FC4B200255FFA92
:102F500085F900204C4518D9C8F81C004FEA091221
:102F60005146386840F0010038605846FDF77AF95C
:102F700026F819004CF25030FFF76EFA3968013527
:102F8000002821F001013960E1D0002188F81810F3
:102F9000BDE8F88F08120020102002400648C168E2
:102FA00009065CBF002070470449016004490160C4
:102FB000C068C0B2C00970470420024023016745C1
:102FC000AB89EFCD2DE9FC4F5D4A04234FF0000A99
:102FD0004FF001084FF00F0E4FF00009904208BF6C
:102FE0000323009300250A6832FA05F408BFBDE800
:102FF000FC8F08FA05F712EA070C00F09D804C6878
:10300000032C16D9112C24D0122C30D04F4A9442C4
:1030100013D04F4A944210D04E4A94420DD04E4A9B
:1030200094420AD04D4A944207D04D4A944204D06B
:1030300020E0DFE804F0021912168C6834B1012C8C
:1030400014BF476107614FF0080913E04FF004090E
:1030500010E0CC6804F104090CE0CC6804F1080924
:1030600008E04FF0000905E0D1F80C9002E0CC68D0
:1030700004F10C0954460746BCF5807F28BF203C6C
:1030800028BF04373B680EFA04F609FA04F4B34388
:1030900023433B60CB79DB064ED5684A136843F087
:1030A000010313601368274A03F00103A2F57E743D
:1030B0002C4A0193019B904225F0030354F803B07E
:1030C0000AD0294A904205D0284A009E904208BF63
:1030D000022602E0012600E000260AF00C03AA08FE
:1030E0000EFA03F706FA03F32BEA07073B4344F80B
:1030F0002230144B4F68FA031A6854BF22EA0C04BA
:1031000042EA0C041C60BA035A6854BF22EA0C0459
:1031100042EA0C045C60FA029A6854BF22EA0C048A
:1031200042EA0C049C60084BBA021A6854BF22EAB7
:103130000C0242EA0C021A600AF1040A013552E755
:1031400000140140000401400C0401400000111073
:1031500000001210000021100000221000003110A9
:103160000000321000080140000C01400010014036
:103170008068084018BF01207047002A08BF090472
:103180000161704705480068704700BF1B4803494C
:1031900000780A6810440860704700BF541200208D
:1031A00080B50748016841F010010160032000F07C
:1031B0007BF8002000F006F800F024F8002080BD25
:1031C0000020024070B50D4E04464FF47A713078FD
:1031D000B1FBF0F00A490968B1FBF0F001F06AF8C0
:1031E00001250F2C08D838B94FF0FF3021460022B6
:1031F000002500F033F87460284670BDD40000202C
:10320000F800002082B00D480222016841F001015F
:103210000160016801F0010101910199416841F0EB
:1032200080514160406800F0805000900098044850
:10323000016862F31A61016002B070471810024021
:1032400004000140002805D4734601F092FF9E4619
:10325000014A8850704700BF00E100E0F0B5184B0C
:103260004FF0FF361C68C4F30224E51E84F0070407
:1032700038BF002506FA05F7BA43042C28BF0424FA
:1032800006FA04F4A14300F00F04A940043C1143E2
:10329000044A234409010244002848BF03F10C02F8
:1032A0001170F0BD00E400E005494FF6FF030A6825
:1032B0001A4060F30A22034810430860704700BFB9
:1032C0000CED00E00000FA05B0B501F0070500EBD9
:1032D000411400EB45102830090658BF04F59470DE
:1032E00022B103811B0C01210A2201E000210622E8
:1032F000835201730020B0BD704700EB4112D0F83B
:103300006802D26B03F031BF00EB4112D0F86802C3
:10331000D2F83C2103F088BF10B5044648B20A46F3
:103320004FF49471002848BF2821601802F007016B
:103330004B01C15400EB4111D009487094F82802A8
:10334000012804BF022010BD02F01EF804F0D6FBD5
:1033500001F0BCBEB0B50446406801F00F028242E5
:1033600001D901251FE048B24FF49472002848BFEC
:103370002822A01801F0070200255301C25400EBD7
:103380004212C809507094F828029570012801D1A2
:10339000022508E00120114684F82802206804F084
:1033A00023FC84F828522846B0BD01F0070100EB49
:1033B0004110D0F844017047F8B504464EB24FF4BE
:1033C00094700D46002E48BF2820211805F00700F4
:1033D0004701C85501EB40110A61EA09CB70B6F10B
:1033E000FF3F4A70D8BFC881022B04BF002008717C
:1033F00094F82802012804BF0220F8BD01F0C4FFA0
:1034000004F05AFA002084F82802F8BDB0B501F0A3
:103410000701002500EB4114006804F59E7784F84D
:10342000281104F5947184F829512CC704F022FC6A
:103430000020B0BD70B54268044601F007050120C8
:10344000954223D84AB24FF49476002A4FEAD1121B
:1034500048BF294648BF28264B01264406EB4111A8
:10346000F554887094F828024A70012804BF02209D
:1034700070BD01F089FF04F0E9FB25B9206804F56F
:103480000C7104F0AFFB002084F8280270BD10B569
:1034900001F0070400EB4411006801F8284F0024F4
:1034A00001F1140CACE81C0001224A7004F0E2FBAC
:1034B000002010BD2DE9FE4F0446006804F0ACFC6E
:1034C000000400F18080206804F0A6FC40050DD5C2
:1034D0002068B0F8441021F48061A0F84410204620
:1034E00000F04EFA2046002100F064FA206804F053
:1034F00093FC01462068490405D5B0F8441021F436
:103500008041A0F8441004F087FC0146206889043B
:1035100005D5B0F8441021F40051A0F8441004F08F
:103520007BFC01462068C90410D5B0F8401021F09A
:103530000401A0F84010B0F8401021F00801A0F8F4
:103540004010204600F02EFA01F081FF04F064FCE8
:1035500000051BD52068B0F8401041F00801A0F824
:103560004010B0F8441021F40061A0F84410B0F805
:10357000401041F00401A0F8401004F04DFCC004DC
:1035800001D501F064FF204600F03AFA206804F00B
:1035900043FC800509D52068B0F8441021F400717F
:1035A000A0F84410204600F001FA206804F034FC32
:1035B000C00506D52068B0F8441021F48071A0F849
:1035C0004410BDE8FE8F04F50C7004F1280740F6A6
:1035D0000F75019004F5947002902068B0F94410C2
:1035E000B1F1FF3F3FF770AFB0F8442012F00F0B7E
:1035F0002CD030F92B804FEA4B09B8F1FF3F00F394
:10360000F08030F819102940803120F81910029903
:1036100001EB4B1A9AF80C10002900F09F809AF8E1
:10362000001000EB011230F821104904B0F85010DE
:1036300002EB410100F1A580B1F80C646FF39F2605
:10364000002E00F0A880BAF80A20A1E00188D20676
:103650002AD4294001F500410180B0F8501000EB58
:10366000410094F8281000EB0110E16BB0F804045D
:103670006FF39F20606408440021E0632046FFF759
:103680003CFE94F824000028A7D0206C0028A4D188
:10369000206894F8241041F08001C9B2A0F84C10C1
:1036A000002084F8240098E70A053BD409B2B1F160
:1036B000FF3F92DC018800F20C42294080310180FA
:1036C000B0F8501094F8283102EB41011B01CB5A9D
:1036D0006FF39F23C4F84431A3B1D4F83C1189B1EE
:1036E000B4F82E2104F09BFBD4F83C01D4F844112B
:1036F00008440021C4F83C012046FFF705FE20687D
:1037000000F20C42D4F83831B0F85010002B00F021
:1037100093803E2B00F2988003F0010606EB5303E2
:103720009B029EE0B0F8501094F8282100EB410174
:1037300001EB0211B4F82E21B1F80C3401996FF3AA
:103740009F23C4F8443104F06AFB206801882940B3
:1037500080310180204600F03BF93EE7B0F8501080
:103760009AF8002000EB410101EB0211B1F80C6462
:103770006FF39F26002E5DD0BAF8062001F09AFE66
:1037800015E0B1F804646FF39F2626B1BAF808205B
:1037900001F090FE00E000269AF80000216848F24F
:1037A000C00331F820202A401A4321F82020DAE90A
:1037B0000503DAF81C1082193144CAF81C10CAF843
:1037C00014204BB1DAF810009AF80010B04205D876
:1037D0002046FFF71BFE04E09AF800102046FFF792
:1037E00093FD1FFA88F000067FF5F7AE206807EB1F
:1037F0004B1630F81910294001F5004120F8191036
:103800004FEA4B11795CB0F8502000EB4200D6E94A
:10381000052300EB0110B0F804046FF39F2002446D
:10382000F0612046726113B1FFF731FED5E6FFF774
:1038300064FDD2E60026BAE7535A104E23F4F8434B
:103840005352535A33430CE0DE064FF0FF354FEA34
:10385000531608BF05EB5316084B40F60F7543EAA5
:103860008623535243F60F720188114048F2C0027A
:1038700002F53F5251400180AFE600BF0080FFFFDC
:10388000F0B585B000284ED0044690F8290228B93A
:10389000002084F82802204600F054F8032084F821
:1038A0002902206804F097F994E8EF508DE8E05081
:1038B00004F022F9A0BB20680021002504F0C4FA1E
:1038C000616804F1280001220023DEB2B1420BD965
:1038D0007701C35500EB46170133FE817A70C7E9C3
:1038E0000455BD61FD70F0E704F5947000220023DB
:1038F000DDB2A9420AD96E0100EB45158355C5E931
:103900000422AA61EA706A700133F1E704F1080E3B
:1039100020689EE8EC508DE8E05004F04CF930B19E
:10392000022084F829020125284605B0F0BD0025B3
:10393000012084F8245084F82902206804F039F921
:10394000F2E7000000680C49884218BF7047E0B5F4
:103950000A480022016841F400010160002100686A
:1039600000F40000019001981420FFF777FC142068
:10397000BDE88C40FFF766BC005C00401C100240B4
:1039800010B504468068022818BFFEF72BFDD4F856
:103990006802012103F032FDD4F86802BDE810404E
:1039A00003F0ECBCD0F8680203F010BDD0F8680258
:1039B00003F016BD10B501F0C7FB04BF022010BD17
:1039C00084F8241001F0E0FC04F040FA01F07EBB22
:1039D000D0F8682200F50C71104603F01BBD10B53D
:1039E00001F0B2FB04BF022010BD01F046FC2068CC
:1039F00004F0DDF8206804F003FA01F067BB000072
:103A000010B50446D0F8680203F041FDA06920B16A
:103A10000248016841F00601016010BD10ED00E0B0
:103A200010B501281CD002280ED010283ED12849FC
:103A30004A680868C00139D5C2F3834025A3D20380
:103A4000185C35D4CF4A3BE000F066F920490222E9
:103A50004968C1F3813102EB4101B0FBF1F010BDC7
:103A60001B490B6AC3F3012003F44072DFE800F046
:103A700002030E17F3E7980744BF4FF4004010BD50
:103A8000B2F5407F0BD0B2F5007F0FD1486A8007B6
:103A900044BF49F6404010BDB2F5407F06D10868EA
:103AA0004FF22441800301EAE07010BD002010BDF8
:103AB0004A680CA3C2F340429A5CAC4BB3FBF2F2EF
:103AC000496850434902CAD440000321C5E700BFFA
:103AD0000010024002030405060708090A0B0C0D3A
:103AE0000E0F1010010200002DE9FC410446007881
:103AF0009D4EC00743D0B0695FEAC00808D4B069E2
:103B000040F08050B061B06900F0805001900198A1
:103B10002C4F3868C00511D4386840F48070386084
:103B2000FFF730FB05463868C00507D4FFF72AFBCE
:103B3000401B6428F7D90320BDE8FC81F06910F42C
:103B400040700FD0616801F4407188420AD01E496C
:103B5000F06901220A6000220A6020F44071C00767
:103B6000F16120D16068F16921F440710843B8F136
:103B7000000FF06103D4B06920F08050B06120687C
:103B8000810705D5A168326822F4404211433160B3
:103B9000C00605D5E068316821F480010843306033
:103BA0000020BDE8FC81FFF7EDFA054641F28837B9
:103BB000F0698007D6D4FFF7E5FA411B0320B9422C
:103BC000F6D9EEE7007000404004424200286ED073
:103BD0002DE9F8430D464D490446086800F00700FA
:103BE000854209D9086820F0070028430860086862
:103BF00000F00700A84265D12068894681075A492C
:103C0000884617D5410705D5D8F8001041F4E06182
:103C1000C8F80010010705D5D8F8001041F460512C
:103C2000C8F80010A168D8F8002022F0F002114373
:103C3000C8F80010C0073CD1D9F8000000F0070018
:103C400085420CD2D9F8000020F007002843C9F8BB
:103C50000000D9F8000000F00700A84232D1206827
:103C6000410707D5E168D8F8002022F4E06211434B
:103C7000C8F80010000708D52069D8F8001021F412
:103C8000605141EAC000C8F8000000F053F8D8F8CD
:103C900000101F4AC1F30311515CC840234908605A
:103CA0001C480068FFF78EFA0020BDE8F883012069
:103CB000704758F8041C6068022806D0012822D1F9
:103CC000890304D40120BDE8F8838901FAD5D8F826
:103CD000001021F003010843C8F80000FFF752FA72
:103CE000064641F288376068D8F8001001F00C01F0
:103CF000B1EB800FA0D0FFF745FA801BB842F2D994
:103D00000320BDE8F8838907DCD5E0E70020024006
:103D1000DCB60008D8000020DE481349044A0068D9
:103D20000968C1F3C221515CC8407047F800002007
:103D3000ECB6000810B50C490C480A6802F00C03F8
:103D4000082B07D1C2F3834309A4D203E35C02D456
:103D50000C48584310BD096809A25843C1F34041BB
:103D6000515CB0FBF1F010BD0410024000127A006B
:103D700002030405060708090A0B0C0D0E0F1010AC
:103D80000102000000093D00002843D02DE9FC415C
:103D900004460078BD4EC0070BD0706800F00C00E0
:103DA000042839D13068800303D56068002800F00A
:103DB000B6802078800717D5706810F00C0F05D0FA
:103DC00001F0D2F942D17068C0033FD43068800757
:103DD00003D52069012840F0A2806069316821F094
:103DE000F80141EAC0003060207800075ED5A06984
:103DF00000283ED0A6480121C0F88014FFF7C2F980
:103E00000546706A800744D4FFF7BCF9401B0228BE
:103E1000F7D902E10120704701F0A6F902D17068DC
:103E2000C003BFD462683068002A20F4803100F0FB
:103E3000F780B2F5A02F00F0DD80B2F5803F00F0F2
:103E4000DD803160306820F48020D9E0216990481D
:103E5000002900F08F8001210160FFF793F90546EA
:103E600030688007B9D4FFF78DF9401B0228F7D9D5
:103E7000D3E087480021C0F88014FFF783F9054696
:103E8000706A800712D5FFF77DF9401B0228F7D929
:103E9000C3E080484FF4FA510068B0FBF1F00190A4
:103EA00000BF0198411E00280191F9D120784007F8
:103EB00014D4E7697FB101F057F93ED1012F2ED01C
:103EC000216A706800F480328A4228D1616A00F465
:103ED0007010884223D10020BDE8FC81F0695FEAC0
:103EE000C00808D4F06940F08050F061F06900F03B
:103EF000805000900098684F3868C00512D4386828
:103F000040F480703860FFF73DF905463868C00519
:103F100008D4FFF737F9401B6428F7D97DE001206A
:103F2000BDE8FC81E168306A002948D0052931D01C
:103F3000012933D001F0D2F832E0554900208846FB
:103F40000866FFF71FF90546022F09D13068800186
:103F500079D5FFF717F9411B03200229F6D9BBE7F2
:103F600030688001B7D5FFF70DF9411B0320022906
:103F7000F6D9B1E700210160FFF704F90546306882
:103F800080077FF531AFFFF7FDF8411B03200229C1
:103F9000F5D9A1E740F004003062306A40F001003A
:103FA0003062FFF7EFF8054641F28837306A800744
:103FB00017D4FFF7E7F8401BB842F7D92DE001F01E
:103FC0008DF83062FFF7DEF8054641F28837306A37
:103FD000800706D5FFF7D6F8411B0320B942F6D972
:103FE0007AE7B8F1000F3FF564AFF06920F0805038
:103FF000F0615EE740F480203060306840F480304B
:104000003060FFF7BFF80546306880033FF5D1AE5A
:10401000FFF7B8F8401B6428F6D90320BDE8FC81FF
:104020003160306820F480203060FFF7ABF805463F
:10403000306880037FF5BDAEFFF7A4F8411B032075
:104040006429F5D948E7206AB0F5803F05D1A16819
:10405000726822F4003211437160616A726822F45E
:1040600074121143084370600120C8F86000FFF724
:1040700089F80446306880013FF52DAFFFF782F8DC
:10408000011B03200229F5D926E700BF00100240DA
:1040900000004242F80000200070004070B588B374
:1040A00000240546846290F8510020B9284685F81E
:1040B000504000F02BF8022085F8510095E80F00E1
:1040C00011430668194326F0400606602A69114329
:1040D0006A691143AA6902F400731943EB69194331
:1040E0002B6A1943AB6A19430160042101EA1241AA
:1040F0004160C16921F40061C16101206C6585F8EE
:10410000510000E00124204670BD0000F0B585B0EC
:104110000446204800262268CDE90366CDE9016601
:1041200000F520518A4233D1B2490A6842F48052E4
:104130000A600A6802F480520092009A0A6842F00B
:1041400004020A60096801F004010091032104914E
:1041500002210291A0210191009901A9FEF732FFED
:104160000D4D4FF480604FF480710C4F802210236E
:10417000C5E904102846C5E90073C5E90262C5E92E
:104180000666FEF7F7FD08B1FEF72CF96C62A56430
:1041900005B0F0BD00080140FC0D002030000240D9
:1041A0002DE9F84301F036F804BF0220BDE8F8839A
:1041B0004FF001091D4616460F4684F85090FEF751
:1041C000E1FF804694F85100012840D1002F40D0F3
:1041D000002E3ED0032084F8510000206065E68662
:1041E000A6862763A087A063C4E91000E087A168C2
:1041F0002068B1F5004F03D1016841F480410160AE
:104200000168490601D400F0D2FFE2686168B2F5A6
:10421000006F20D109B1012E01D101F05AF86E1CB6
:10422000E08E90B301F082F808D4FEF7ABFF002EC9
:10423000F6D0A0EB0800A842F2D337E0216B31F8AA
:10424000022BC2602163E08E0138E086E8E702209D
:104250002DE001202BE009B1012E02D1397801F0C7
:1042600083F96E1CE08E80B101F060F808D4FEF78F
:1042700089FF002EF6D0A0EB0800A842F2D315E08B
:10428000216B097801F070F9ECE720462946424697
:1042900001F05EFA08B120206065A06808B901F05D
:1042A00002F8606D002818BF012000E0032000F034
:1042B000A1BF0000411E0020B0EB116F1CBF012008
:1042C0007047044AF023516003490B700721906046
:1042D0001160704710E000E023ED00E07047704788
:1042E000024690F83C00012804BF02207047F0B558
:1042F00001F10807D1E900C44B690020C969E0CF8A
:1043000082F83C00126826F47C5624F4F04425F42C
:10431000705535432C432CF4E0452C4327F4C0451D
:104320002C43234323F4804319435164F0BD90F898
:104330003C300222012B16D010B580F83D200368D6
:1043400006C95C6824F0700421439C68596024F01D
:104350008001114300229960012180F83C2080F8FF
:104360003D10BDE810401046704710B500F049FF01
:1043700000F0C5FE01D001F0B4F8002010BD58B126
:1043800010B501F033F818B900F0BBFF00F006F8E3
:1043900000F092FF01F0A0B801207047E0B500687E
:1043A0001249884216D0124988421DD19B480022EA
:1043B000016841F4006101600021006800F40060C0
:1043C000019001981920FEF749FF1920BDE88C40A3
:1043D000FEF738BF9148416841F0020141604068F2
:1043E00000F00200009000988CBD00BF0004004067
:1043F000002C0140181002400068C16841F0010122
:10440000C160724600F01DFF964603D0724600F070
:10441000D3FE96460020704710B500F0F0FF1DD087
:1044200084F83D0001204FF6777384F83C00206843
:1044300082689A4382600A682AB1102A03D0202A2F
:1044400018BF302A0BD1816821F07001114341F06F
:10445000070181600020012101F048F810BD402AC9
:104460001AD0502A2DD0602A1FD0B2F5005F0AD092
:10447000702AEFD1D1E90123C96800F0AEFE81684E
:1044800041F07701E5E7D1E90123C96800F0A5FE15
:10449000816841F48041DCE700F0F5FF2068816825
:1044A00041F0470121F03001D3E74B68CA68194653
:1044B00002F06DF82068816841F0670121F0100179
:1044C000C7E700F0E0FF2068816841F0570121F064
:1044D0002001BEE700283FD0F8B500F087FF0D4669
:1044E00018B900F00EFF00F039F8022044F207027C
:1044F00084F83D002068816891438160211D01F0AE
:1045000049FF2668D5E9000CD5E90223B76838438E
:10451000B769316AB060A86942EA00204FF6FC42F0
:1045200090434FF6FF7227EA02021A431043EA69EA
:1045300040EA02202A6940EA02102A6A40EA023070
:10454000B06121F02200696940EA0C0040EA0110E4
:10455000306201F011F8F8BD0120704770B586B0E7
:1045600000682D4A0021CDE90411CDE902119042E5
:1045700035D0B0F1804F4DD1A5480026A54C4168FB
:1045800041F001014160416801F00101019101998F
:10459000016841F004010160016801F0040101912A
:1045A000019900F0C8FD0198CDE903664FF4004081
:1045B000029002ADA4F580602946FEF703FD0820B5
:1045C0002946CDE9036602902046FEF7FBFC92489F
:1045D000134A01681140134A114301601AE08C48E4
:1045E000426842F004024260426802F00402019212
:1045F000019A026842F008020260006800F00800B8
:104600000190C020CDE903110290019802A98148D0
:10461000FEF7D8FC06B070BD00080040181002403C
:10462000FFFCFFF80001000710B500F064FF06D0A2
:1046300009B9002104E0002100F097FE2068042160
:1046400000F093FE206800F0B7FD002010BD704719
:1046500010B5044600680169890712D5C168890749
:104660000FD56FF002010161012121778069800778
:1046700002D000F005FF01E000F0A9FE0020207745
:1046800020680169490713D5C168490710D56FF043
:104690000401016102212177806910F4407F02D07A
:1046A00000F0EEFE01E000F092FE0020207720688E
:1046B0000169090712D5C16809070FD56FF0080114
:1046C000016104212177C069800702D000F0D8FE83
:1046D00001E000F07CFE0020207720680169C90617
:1046E00013D5C168C90610D56FF01001016108210A
:1046F0002177C06910F4407F02D000F0C1FE01E0D4
:1047000000F065FE0020207720680169C90709D004
:10471000C168C90706D06FF001010161204600F0B1
:10472000F3F820680169090609D5C168090606D5AC
:104730006FF0800101612046FFF7D0FD206801691C
:10474000490609D5C168490606D56FF040010161E7
:10475000204600F05BFC20680169890602D5C1682B
:10476000890600D410BD6FF0200101612046BDE82C
:104770001040FFF7B4BD000070B586B0002100689E
:10478000CDE90411CDE902112049884227D05D49C5
:10479000884238D11E4802261E4C016841F00801AB
:1047A0000160016801F008010191019900F086FCA7
:1047B00001904FF4C040059603960290019802AD17
:1047C00020462946FEF7FEFB4FF440702946059629
:1047D00003960290A4F58060FEF7F4FB13E00C480A
:1047E00000F0A9FC0220059003902020029001987F
:1047F00002A90848FEF7E6FB0748084A016811408D
:10480000074A1143016006B070BD00BF00040040BC
:1048100018100240000C014004000140FFF3FFF8B3
:10482000000800077047000070B500F093FD44D009
:1048300084F83D0001264FEAB200032884F83C606A
:1048400036D8DFE800F002220A1A2068294601F073
:10485000F7FD206850F8181F06E02068294601F08F
:104860003DFE206850F81C1F41F0080101600168FE
:1048700021F004010160296917E02068294601F050
:1048800053FE206850F81C1F06E02068294601F0FE
:10489000FDFD206850F8181F41F4006101600168B7
:1048A00021F48061016029690902026811430160F5
:1048B000002084F83C0084F83D6070BD58B110B50C
:1048C00000F094FD18B900F01CFD00F006F800F0AF
:1048D000F3FC00F001BE01207047704770470000F4
:1048E00010B50446006800F040FD2068F049884299
:1048F00001D100F0FCFC00F0A4FC01D000F05CFC55
:10490000002010BD002C01402DE9FE4F0068E84951
:10491000884201D0BDE8FE8FDFF8F0BDDFF8949C3F
:10492000DFF8147DDBF834000130CBF83400B9F83F
:104930000E0097F82960FCF7A7FCDE4906F092FC10
:1049400004469BF805009BF8065009EB80020130F5
:10495000D169D461C2B2072A88BF00208BF8050054
:10496000DBF85C0006F04AFD0146204606F016FA28
:104970000446CBF85C00D048022E04BF4CF6CD4074
:10498000C3F64C60002E04BF46F26660C3F6267084
:104990000290072D9CBF01358BF80650E8B206F057
:1049A000E5FB0146204606F097FA80467860B9F8A4
:1049B0000A0000F0ADFE9BF8084006469BF8070091
:1049C00009EB8401022801F110090ED8DBF8601010
:1049D000451C30468BF8075006F0E0F90746E8B270
:1049E00006F0C4FB014638460BE0DBF86000D9F85E
:1049F000001006F003FD0146304606F0CFF9AF493E
:104A0000074606F069FA611CCBF86070C9F80060CF
:104A1000CBF85400CAB2022A88BF00218BF80810D4
:104A20009BF8041061B1DBF85860314606F0E6FCF3
:104A30000146029806F016FC314606F0AFF902E096
:104A400001218BF80410CBF858009BF80200DFF826
:104A5000E87B01305FFA80FA8BF80200BAF1050FAB
:104A60004AD300208BF802009BF8000038B3BBF853
:104A70001200FCF709FC924906F0F4FB0746BBF86C
:104A8000140000F045FE8146DFF8AC0BD0E9024689
:104A90003846DFF8A47B00F05FFD029D014600F080
:104AA000D3FC00F06EFCB8604846314606F0A6FC28
:104AB000014600F0C9FC314606F070F9F860387F15
:104AC000D0B940464FF0804106F0ECF9A0B9DBF8D0
:104AD00064404FF08041204606F0EBF90546404621
:104AE00000F03AFD774906F0BDFB00F04AFC002DCE
:104AF00018BF4046CBF86400FEF744FB397F0446FC
:104B00009BF80900B1B1D8BB0020CBF868408BF806
:104B1000010000F041FD0120B969ABF80B00786895
:104B2000CBE91B0197F82A00012814D1F86A00F09C
:104B30006BFD13E018B99BF80A00012801D100F0C1
:104B4000C5FD797F00208BF80900032918BF78770D
:104B500000F022FD53E05C4800F070FD5449002055
:104B60008863086A20F05000086240F20110ABF838
:104B70000900DFF8940B0068416C41F40041416486
:104B80003D69524E2846314606F08CF978B902202C
:104B90003A1D8BF8010007CACBF81C00CBF8201097
:104BA000CBF82420CBF82850CBF82C501BE0DBF8B6
:104BB0006800201AC82828D3DBF85440444E204609
:104BC000314606F06FF900BB03208BF80100D7E9EE
:104BD0000101CBF81C00CBF82010CBF82440CBF817
:104BE0002850CBF82C40CBF8306000F0D5FC4FF4C7
:104BF0004070B88300F06AFD00208BF8090097F838
:104C00002A008BF80300BDE8FE8F9BF8030097F89D
:104C10002A10884205D000F0BFFC97F82A008BF8D4
:104C20000300012818D1FC6A01202A497877204620
:104C300006F02AF9E14D00281CBF45F2EC14C3F63A
:104C4000787400F034FA002808BF2C46FC62204635
:104C5000BDE8FE4F00F0D8BCBAF1040F02D897F8B7
:104C6000299013E1DBF83C00D34E0130CBF83C0037
:104C700097F82990B9F1000F06D0B9F1020F07D1CA
:104C8000D1480190D14806E0CD480190CD4802E0DE
:104C9000CF480190CF480290387F30B197F8280074
:104CA000012819D1D7F8148027E04FF0000824E03C
:104CB000002C014093183241CDCCCC3E0000404046
:104CC0000000B841CDCC4C3D8FC2F53C0000A04265
:104CD00000007841EC51783F35687C6928462146D0
:104CE00006F0D9F840B9BC49284606F057F82146E5
:104CF000804606F0D7F800B9A0469BF80B0039466D
:104D00007F68C6F80080012802D1DBF86C4006E01D
:104D100001203C46ABF80B008869CBF870003846A0
:104D200000F01AFCAD4906F09DFA00F02AFBDBF812
:104D300064500446CBF86C004FF08041284606F0E2
:104D4000AAF810B93D46CBF864709BF80C604EB1E0
:104D5000A64900F079FB0146204606F0AAF858B1B2
:104D6000A04D10E09E4900F06FFB0146204606F082
:104D70008BF818B19C4D06E09B4D00E0994D86F0F4
:104D800001008BF80C00DFF8B0A8DBF87060DAF8EF
:104D90001840304600F0CCFB002818BF26462846B5
:104DA000314605F0FBFF2146054606F06DF88B49BC
:104DB0000028284608BF2C4606F07BF800287E48CD
:104DC0001CBF4CF6CD44C3F64C644146CBF8704052
:104DD0004460384600F0F0FBDAF80810044640461C
:104DE00006F00CFB06460198314606F03BFA804976
:104DF00006F038FADBF8748000F059FB7D4907466D
:104E000006F042F87C4D00281CBF49F69A17C3F6FD
:104E100099673846294606F037F8002808BF2F461C
:104E20000298314606F01EFA00F0ABFA3946044605
:104E300005F0B4FF7149054606F034F820B9304654
:104E4000002106F021F860B95C49284606F023F8F5
:104E500020B93046002106F02CF810B9B846CBF83E
:104E60007470204600F023FB6449044606F00CF8F9
:104E7000524D00281CBF45F2EC14C3F6787400F0C4
:104E800016F94C4F002808BF2C463C60DBF8380070
:104E9000494C0130B9F1000FCBF8380008D0B9F116
:104EA000020F19BF4FF07F564A48564E474801E05F
:104EB000534E444881462168786800F07DFB0746E0
:104EC0006068DBF85810DBF8788006F097FA054642
:104ED0003046294606F0C6F94B4906F0C3F900F002
:104EE000E6FA4449064605F0CFFF434C00281CBFB4
:104EF00049F69A16C3F69966304600F019FB002869
:104F00004846294608BF264606F0ACF9394605F062
:104F100045FF3146074605F041FF3849044605F094
:104F2000C1FF20B92846002105F0AEFF60B9234932
:104F3000204605F0B0FF20B92846002105F0B9FF52
:104F400010B9B046CBF87860384600F0B0FA2B497B
:104F50000446884605F098FF184D00281CBF45F20E
:104F6000EC14C3F6787400F0A2F8124E002808BFC3
:104F70002C4620463768394605F09BFF0121002862
:104F800018BF0221717708BF3C462046414605F014
:104F90007BFF00281CBF45F2EC14C3F6787400F0C8
:104FA00086F8002808BF2C462046BDE8FE4F00F0DA
:104FB00045BB00BF8C000020140400208FC2F53CCC
:104FC0008FC205407E6A3C3C85EB913F8FC2F53B2A
:104FD0003333F33F0AD7233C0BD7A33CCDCC4C3E15
:104FE0006666663FCDCCCCBD0BD7A33B7B146E3F32
:104FF0006F12833A9A99993E9A9999BEEC51783FEB
:105000003433D33F6766663F17B751397047FEE7C1
:1050100070B501310023372472B1060F01F8023B4D
:1050200004EB1075B0F1204F38BF06F1300501F8E0
:10503000035C013A0001EFE770BD000080B50F4846
:105040000F49002202F06AF808B1FDF7CBF90B48CE
:105050000C4902F039FA08B1FDF7C4F907480A49CA
:1050600001F007FF08B1FDF7BDF9044802F040FA6E
:1050700018B1BDE88040FDF7B5B980BDF40A002045
:10508000DC000020FC00002020020020FEE7FEE7FC
:1050900001224FF47A73FFF783B8AF207321002207
:1050A00000F0B0BB4B204B214B2200F0ABBB2046A5
:1050B000294605F0E9BE214602F002B8016841F038
:1050C00004010160006800F004007047002084F8CB
:1050D000280210BDA0F840100020704720F0010009
:1050E0003062306A20F0040070474CF25030FDF717
:1050F000B3B9012084F824002046FCF791B8206859
:10510000416C41F400414164816801F007010629C6
:105110007047D4F8B40229468268204610470546F5
:1051200020460E4605F00EBE002105F0ADBE4FF044
:105130007C5105F033BE016841F008010160006850
:1051400000F0080001907047044690F828020128FA
:10515000704730F8223040F60F7423400B4403F5BB
:10516000804320F822307047706800F00C00082857
:1051700070471C21012201EAD00100F01F0002FA51
:1051800000F07047044690F8240001287047012081
:1051900084F8240020467047204601F01EBF9BF88B
:1051A0000200012870470146284606F05BB80168F6
:1051B00041F0400101607047016841F00101016068
:1051C00070472046294605F05FBED221022380B2F7
:1051D000CDE90080A42000F059BC1A4342EA012125
:1051E000826822F47F421143816070472D20322172
:1051F0003A227047002184F8501084F85190BDE89D
:10520000F88304460068042201F00BB9CD20CD21BB
:10521000CD227047044690F8500001287047B0FA3C
:1052200080F0400970474FF494720223CDF800805B
:1052300000F0F8BA89B2CDE90001DA20AA2100F025
:1052400025BC816801F0070106297047CDE90031CE
:105250000420D221022300F019BC9BF8021001396E
:10526000B1FA81F170479D21022300F00FBC314655
:10527000CDE910780F90484620470120012184F89D
:1052800028022046FEF738B8FD064FF0FF334FEAFC
:1052900057157047002084F82400A06A40F00400ED
:1052A000A06203207047002000902068C168009130
:1052B00080680090009870470220211D84F83D000E
:1052C000206801F067B8204601F057BE294605F076
:1052D000C9BF37F8021BC1602763E08E0138E08642
:1052E00070478BF801009BF80100002870474A6C5A
:1052F00042F400424A647047CDE90056CDE902010C
:105300007047002084F83C0020467047DBF82C00F2
:105310004169006904F086BDDBF82C000028704765
:1053200001EB8000E52180B200F07CBA2068816842
:105330008907704701284FF0000070472846214632
:1053400005F0A2BD9BF802000024002140F2FF738B
:10535000012870470D4690F83C10044602200129B0
:10536000704789B2CDE900017047012201F04AB8C7
:1053700022460123CDE9008638474FF07C5105F0E5
:105380000DBD214605F00ABD012084F828022068E1
:10539000704707F0010303EB57039B02704700209F
:1053A00084F82400704794F89C0201380228704762
:1053B0001C210122912300F035BA4FF4A072012381
:1053C00000F030BADA20B421022203F0F1BC4DF82B
:1053D00008ED2046FFF726FA20465DF808EBFFF7B8
:1053E0007DBA4021CDE90067FAF750BF044690F836
:1053F0003D007047064628460F4605F0A3BC90F8CE
:105400003C2004460220012A7047DBF82C00417E34
:1054100003297047411EB1FA81F14909490000286A
:105420007047204640212847814605F02DBD9BF856
:105430000900012870474B204B214B2200F0E2B9B4
:1054400028461821FAF722BF284605F00BBF20682E
:10545000B0F8441021F48051A0F84410704730F89F
:1054600022402140594020F822107047012084F842
:1054700024002046FBF780BE94F89C020328704766
:105480002046FFF7E4B84B68CA68194601F06EB8C9
:10549000B04202620A688B68046A45687047D9E9BD
:1054A0000C0405F04FBC2A2030213C2270474146B5
:1054B00005F074BCDAF81410334602F0B0BC84F87E
:1054C0002430836803F46023B3F5602F7047606D68
:1054D00040F0200060657047012084F83D00002006
:1054E00010BD016841F001010160704784F83C0083
:1054F00084F83D10704704460068042970474FF057
:105500007C5105F04BBCCD20CD21CD2270473046DB
:10551000FDF72AB8E06A40F00100E06270479BF8AE
:1055200002000138B0FA80F07047304605F0ACBC9C
:10553000214605F0A9BCA06A20F48070A062A06A90
:10554000C00470474FF49472012300F06BB9FF2040
:105550000021FF2200F056B9214605F04FBFA06A96
:1055600040F00100A06270470173206B013020639E
:10557000E08E0138E0867047012084F83D0000206D
:1055800070474FF400410022FDF7F7BD034628465F
:105590001821FAF77BBE704710B55C48264B0021F6
:1055A000474C044AC0E91D11017198691C60C2E9A9
:1055B000001010BD1404002070B50E464FF07C5151
:1055C000054605F076FC08B13D4C1AE030464FF038
:1055D0007C5105F06EFC3A4C98B93046294605F0EE
:1055E0007BFC3649054605F04FFC00281CBF45F200
:1055F000EC15C3F678752846FFF79AFF002818BF08
:105600002C46204670BD00BFB0B52C49044605F0BD
:105610003BFC2B4D00281CBF45F2EC14C3F67874FC
:10562000FFF745FD0028044808BF2C46C462204609
:10563000BDE8B04000F002B88C0000202DE9F04138
:105640001E4D0746294605F01FFC1D4C00281CBFB7
:1056500045F2EC17C3F678773846FFF769FF19492A
:10566000002808BF27460868884605F07FFD0646E3
:105670003846314605F0F6FDFFF759FD05F03EFDD1
:1056800007463046294605F0EDFDFFF750FD05F0D1
:1056900035FD054687423046214638BF3D4605F078
:1056A000E1FDFFF744FD05F029FD874238BF0546BF
:1056B00005480580C8F80850BDE8F081EC51783FF6
:1056C0008FC2F53C2C2C0140F00A00200D4900202F
:1056D00041F21113486188610A6822F050020A60A1
:1056E000094909680A6A1A4208D10A6A40F2444321
:1056F0001A4203D14A6C22F400424A640349887278
:10570000704700BF202C014004110020B802002087
:1057100010B505F02BFD0A4905F0A4FD094905F077
:10572000DBFB094905F0D8FB084905F0D5FB002152
:10573000044605F0BEFB002818BF0024204610BD1B
:105740003333534000F07F450000C8426F12033BE3
:1057500010B513460A468021044600F007F818B138
:10576000FFF7B5FE032010BD002010BD2DE9F0416C
:10577000984616460F460446551C206880683840F7
:10578000B84230D1002DF8D0FDF7FCFCA0EB0800AA
:10579000B042F2D3D4E900014268B1F5827F22F031
:1057A000E00242600AD1A168B1F5004F02D0B1F524
:1057B000806F03D1016821F040010160A16AB1F559
:1057C000005F07D1016821F400510160016841F4D4
:1057D00000510160002084F85000012084F851003D
:1057E0000320BDE8F0810020BDE8F081D0484FF4EF
:1057F00080610122FDF7C1BCCD484FF480610022D9
:10580000FDF7BBBC01F0FC0100F0F800C90041EA63
:10581000002040EAD2007047F54801210122FDF73F
:10582000ACBC00BF62B15BB11CB502440B44049C2C
:10583000013A013B92B29BB2009400F019F81CBDF2
:10584000704700001CB5C94B1C88A0420ED25B8873
:1058500099420BD252BA0B46ADF80620024600F030
:105860008DF90DF10600022100F0C4F91CBD00BF46
:105870002DE9F041C0B00C46BC4905460888854278
:105880003FD249888C423CD28B4228BF4B1E824279
:1058900028BF421E96B2AE4233D31FFA83F8A0450A
:1058A0002FD3469800226B46010A802A06D003EBCC
:1058B000420703F8121001327870F6E728462146B5
:1058C0003246434600F05AF9701BA8EB0401013040
:1058D000013101FB00F6FFF78FFFFFF79DFFDF4C63
:1058E0006D4666B1802E3746204629464FF47A73BE
:1058F00028BF80277A00FEF753FCF61BF1E7FFF77D
:1059000075FF40B0BDE8F081E0B5984900904B8844
:105910000988481E002182B2581E83B20020FFF77A
:10592000A7FF8CBD70B5FFF761FFB14802210122CE
:10593000FDF723FC00F0E4F8A34C3A20A047254EE5
:105940005520B047B220A0472348244D0521A84741
:10595000012000F0EFF8B720A0473520B047BB206A
:10596000A0471920B047C020A0472C20B047C22034
:10597000A0470120B047C320A0471220B047C42051
:10598000A0472020B047C620A0470F20B047D02016
:10599000A047A420B047A120B047E020A04710486E
:1059A0000E21A847E120A0470E480E21A84721203C
:1059B000A0471120A0477820FDF742FA1320A04706
:1059C0002920A0476420FDF73BFA0020BDE8704085
:1059D000FFF79ABF3D5C0008DDB80008F55B0008E2
:1059E000E2B80008CFB800082DE9F04F85B01C469A
:1059F000012B03900D4698BF0124202A01D37F2A52
:105A000000D33F22A2F120001F49DDE90E690022E8
:105A1000C0B200EB800008440290052A24D003980D
:105A200002994FF0000B4FF0000A049202FB0400B1
:105A300011F8028087B2BAF1070F12D028FA0AF0E3
:105A400022462346C007304608BF4846009005EB73
:105A50000B0081B23846FFF7E5FEA3440AF1010AC4
:105A6000E9E7049A0132D8E7039904EB8400C4EB18
:105A7000C4032246CDF800900844294680B2FFF7BF
:105A8000D1FE05B0BDE8F08FF4B60008BAB32DE939
:105A9000FE4F012B98BF0123814603EB43001546BF
:105AA0000F464FEAC30A02934FEA4008CB462A78D2
:105AB00007EB0A010A2A1CD0FAB12C4C1FFA8BF012
:105AC00040442388984288BF0F46B9B2648801EBEE
:105AD0000A06A64211D8DDE90C649842CDE90064BB
