:020000040800F2
:10000000881C002025020008257B0008A97A00082A
:10001000217B0008BD390008B1B4000800000000D1
:10002000000000000000000000000000258900081A
:10003000293A000800000000297B0008098E00080A
:100040003F0200083F0200083F0200083F0200088C
:100050003F0200083F0200083F0200083F0200087C
:100060003F0200083F0200083F020008113A000862
:100070003F0200081D3A00083F0200083F02000846
:100080003F0200083F020008251300083F02000855
:10009000D5B300083F0200083F0200083F020008F5
:1000A0003F0200085D8E00083F0200083F02000882
:1000B0003F0200083F0200083F0200083F0200081C
:1000C0003F0200083F0200083F0200083F0200080C
:1000D0003F0200083F0200083F0200083F020008FC
:1000E0003F0200083F0200083F02000800F002F84B
:1000F00000F089F814A696E8000CB244B344DA453F
:1001000001D100F080F8BAE80F000FA696E83000A1
:10011000A5EB040504EB0607AAEB0704A7F101070A
:100120004FEA15154FEA3414A4F10104AC4201D38F
:1001300000F069F813F0010F18BFFB1A43F0010338
:1001400000F001F8DBE71847F8F4000018F50000AC
:100150000A444FF0000C10F8013B13F0070408BFED
:1001600010F8014B1D1108BF10F8015B641E05D08B
:1001700010F8016B641E01F8016BF9D113F0080F40
:100180001EBF10F8014BAD1C0C1B09D16D1E58BFD2
:1001900001F801CBFAD505E014F8016B01F8016B09
:1001A0006D1EF9D59142D6D370470000704700000C
:1001B0000023002400250026103A28BF78C1FBD870
:1001C000520728BF30C148BF0B60704766290EF048
:1001D000F88765290EF0F58767290EF0F287612907
:1001E0000EF0F187752900F08580002070471FB55B
:1001F00000F0C4FE0400002000210EF0F5FBE060DA
:100200001FBD10B510BD01F017F81146FFF7EFFF45
:100210000DF002F801F035F803B4FFF7F2FF03BC6C
:1002200001F078F80948804709480047FEE7FEE7F3
:10023000FEE7FEE7FEE7FEE7FEE7FEE7FEE7FEE796
:1002400004480549054A064B704700000D8E00081A
:10025000ED00000888160020881C00208818002067
:10026000881800200FB41CB50C0007AA009007D016
:100270004142A14202D32044401E01E04FF0FF3032
:10028000074B7B4469460190069800F0B8FD0020BA
:10029000002C01D0009908701CBC5DF814FB000014
:1002A0009F0B000070B5044685690068C10601D542
:1002B000302600E02026C00707D070BDD4E9012118
:1002C00030469047206A401C20626D1EF6D570BDF6
:1002D00070B5044685690078C00707D170BDD4E9C0
:1002E000012120209047206A401C20626D1EF6D517
:1002F00070BD00002DE9F041064600241068752904
:10030000314616A510D0AFF30080002802DA404233
:1003100013A507E031688A0701D512A502E0490755
:1003200004D511A5012401E0AFF3008000210A22C9
:1003300006F1240709E0B0FBF2FCB0FBF2F302FB8C
:100340001C00303078541846491C0028F3D123464D
:100350002A463046BDE8F04100F066B900000000D2
:100360002D0000002B000000200000002DE9F05FB0
:10037000894604464FF0000ADFF874B1FB44C0F828
:1003800020A02046E1688847002874D0252806D0A0
:10039000D4E901219047206A401C2062F1E7002641
:1003A0005F462046E16888472028054607DB312D57
:1003B00005D2781910F8200C08B10643F1E7B00710
:1003C00001D526F00406C4F81CA00027C4F818A024
:1003D0002A2D09D028460EF037FA38B304EB8708E7
:1003E000303DC8F8185019E059F8041B204604EBBA
:1003F00087029161E1688847012F054618D1E069BD
:10040000002820DA26F020061DE0D8F8180000EBBE
:10041000800005EB40003038C8F818002046E1683D
:10042000884705460EF010FA0028EED1012F0AD0B9
:100430002E2D08D12046E16888477F1C0546022FF3
:1004400046F02006C4DBA069002803DA404246F0EB
:100450000106A061F00701D026F010066C2D0BD02C
:10046000682D09D04C2D39D06A2D35D0742D35D05A
:100470007A2D33D016E038E0E1682F4620468847D1
:10048000B842054609D16C2F26D04FF48060E16850
:10049000064320468847054604E06C2F1AD04FF4E7
:1004A000807006430DB3A5F14100192802D820350C
:1004B00046F400664A462946204626604E46FFF727
:1004C00085FE80B101280BD0F61D26F0070000F153
:1004D000080956E74020E4E78020D8E70020D6E767
:1004E00006F104094DE7284652E7206ABDE8F09F6F
:1004F0002AEF000010B5431C02E010F8011B71B197
:100500008107FAD14FF0013202C88C1A8C4314EAE9
:10051000C211F9D0C01A0A0603D0C01E10BDC01AFD
:1005200010BD0A0401D0801E10BD0902FCD0401E7F
:1005300010BD431A28BF9A4240F27C8410441144F3
:10054000032A40F2268010F0030F1EBF11F8013D70
:10055000521E00F8013D10F0030F7FF4F6AF11F0CA
:10056000030300F0BF84083AC0F00B8051F8043D4B
:10057000083A51F804CD40F8043D40F804CDFFF7A7
:10058000F3BF121D5CBF51F8043D40F8043DAFF3CA
:100590000080D20724BF11F8013D11F801CD48BFFA
:1005A00011F8012C24BF00F8013D00F801CD48BF2F
:1005B00000F8012C704710B5044610F0030F08BF77
:1005C00011F0030F40F015804FF0013E121FC0F2F2
:1005D0000E8051F8043BA3EB0E0C2CEA030C1CEA32
:1005E000CE1C08BF40F8043BF0D0A1F1040102F199
:1005F0000402521E08DB11F8013B00F8013B002BFE
:10060000F7D1114600F098FC204610BD70477047A6
:10061000704710B500F0B6FC006810BD10B5044678
:1006200000F0B0FC046010BD2DE9F0470D4699467E
:100630009246044600F124080168880604D5E06962
:1006400021F01001216000E00120A84201DD471BDC
:1006500000E00027A1697A1902EB0900081AA061DD
:100660002078C00602D42046FFF71CFE002608E0D2
:10067000D4E901211AF806009047206A401C761C34
:1006800020624E45F4DB2078C0060AD52046FFF7ED
:1006900009FE06E0D4E9012130209047206A401C81
:1006A0002062381EA7F10107F4DC07E0D4E901213C
:1006B00018F805009047206A401C2062281EA5F10A
:1006C0000105F3DC2046FFF703FE2078000602D583
:1006D0000220BDE8F0870120FBE72DE9FF4F0C4623
:1006E0001E464FF0FF378BB0D2E90001DDF8608085
:1006F0000A908A46C1F30A5505B93D4600210846CD
:100700004FF00000BAF1000F00F4400005DA00EBF2
:1007100080004FF4400101EA50004FEA9059B9F1CE
:10072000010F00DDB9460A9850EA4A000ED044F69F
:100730001050A5F2FF3545432F14B8F1000F1ED01D
:100740007542291E1EDDC9F100021CE0B8F1010F3F
:100750004FF0000001D0302103E0F24305E02154C6
:10076000401CB042FBDB30460022002121540B9993
:10077000C1F80880C1E900200FB0BDE8F08FBD1BB3
:100780006D1CDEE74A4600DA694206A800F084FCE8
:1007900006AB93E8070003AB83E8070050460A99CD
:1007A0000DF06AFC8DE80700A0F500501F3800909E
:1007B0000398002D0ADD42F21F014A460844002337
:1007C00003A9039068460DF0D3FE09E0A0F50050A0
:1007D0004A461F38002303A9039068460DF0DDFE4A
:1007E0008DE807000004000C03D04FF0FF304108F3
:1007F00000E01046B8F1000F03D000220092154629
:100800001EE0751E05D400F0C1FB303262556D1E2E
:10081000F9D5B3460122084302D000227F1C04E030
:100820002078302801D100227F1E002A099784D029
:100830001DE0112D07DA00F0A9FB303262556D1C66
:1008400050EA0102F5D1084302D00098C8B10EE089
:100850000021681E05E0235C625C63542254401E44
:10086000491C8142F7DBAB46A81B401E09900020C3
:1008700004F80B000B98099AC0F80880C0E9002B17
:100880007AE711264FF0000857E72DE9F04F884628
:100890000446D21D22F0070191B0D1E90001CDE953
:1008A0000A010DF0B1FF02460B98C00F01D02D20B8
:1008B00007E02068810701D52B2002E0202101EA12
:1008C000C000032A099001D0072A05DB03464146F0
:1008D000204600F0A1FB0BE12078800601D5E069FD
:1008E00000E00620B8F1650F814606D0B8F1660F2A
:1008F00018D0B8F1670F70D131E00020B9F1110FB5
:10090000009001DB112301E009F101030AAA01A90A
:100910000CA8FFF7E2FEDDE90C70002609F10105E5
:10092000834647E001204B4600904FF000470AAA5B
:1009300001A90CA8FFF7D1FEDDE90DB00C995D46C9
:10094000002610B909F101000D18B9EB050003D418
:10095000C0F1FF3609F10105A5EB09002BE0B9F163
:10096000010F01DA4FF001090020B9F1110F0090D9
:10097000484601DD112300E003460AAA01A90CA89C
:10098000FFF7ABFEDDE90C704D460026834620786C
:1009900000070AD4AB4500DA5D4601A8012D04DD4D
:1009A000411911F8011C302907D04F4502DA17F11F
:1009B000040F04DA012082460FE06D1EEEE7002FDF
:1009C00002DCED1B3E4403E0781CA84200DD7D1CE8
:1009D000B81B00F1010A4FF000472078000703D44C
:1009E000AA4501DB4FF0FF3A0021B7F1004F0DF1AE
:1009F00043088DF8431024D002202B23002F01DA66
:100A00007F422D230A21021EA0F1010000DC5FB10C
:100A100097FBF1FC97FBF1F201FB1C7C17460CF1F4
:100A2000300C08F801CDEEE7A8F101000370218831
:100A3000090501D5452100E06521A0F1010800F874
:100A4000011C09980FA9A1EB0807FF1D00B10120A7
:100A5000411901EBEA70A1693844081A401EA061EF
:100A60002078C00602D42046FFF71CFC099828B164
:100A7000D4E901219047206A401C20622078C006FA
:100A800022D52046FFF70EFC1EE0002E04DBB34506
:100A900002DD01A8805D00E03020D4E9012190470B
:100AA000206A401C2062761CAAF101005FEA000A5D
:100AB0000AD100F063FAC0680168405CD4E9012102
:100AC0009047206A401C2062281EA5F10105DCDC4D
:100AD00007E0D4E9012118F8010B9047206A401C77
:100AE0002062381EA7F10107F3DC2046FFF7F0FB78
:100AF000032011B041E600002DE9F04F04460D46F9
:100B0000D21D22F0070089B0D0E900974846394647
:100B10000DF07AFE0246F80F01D02D2307E0206881
:100B2000810701D52B2302E0202101EAC0038DF8C3
:100B300020300BB1012000E00020032A824601D0C2
:100B4000072A04DB2946204600F066FA3FE12078B8
:100B5000800601D40D2500E0E569C7F30A560D2D86
:100B600049DA00214FEA175B08464FF00000002FDA
:100B700000F4400007DA00EB80004FF4400100EB86
:100B8000D07001EA60008115012901DD4FF0FF31CD
:100B900000224FEA850CBCF1180F06D31346ACF1C6
:100BA00018004FF08052C24003E04FF4801323FA44
:100BB0000CF30CF10C0CBCF1200F04D3ACF1200CA5
:100BC00009FA0CF001E007FA0CF000294FF0004898
:100BD00001DD18B90FE00ED140450CD319EB020925
:100BE0005F4121B9404502D19F4329EA0209BBEB8D
:100BF000175F00D0761C2088000502D57B4878441A
:100C000002E07A487844193808AA302302F80A30FA
:100C1000037C0AF10101002E0AF1020A53546A46CC
:100C200002DC4FF0300101E04FF031014FF00108DC
:100C30008DF8001002D0A6F2FF3603E059EA470112
:100C400000D06B4E002D02DC2178090704D54FF04F
:100C500002082E218DF80110C44600210BE0C7F3D5
:100C600003433F01C35C491C6D1E02F8083005298F
:100C700008F1010801DA002DF1DC00210CE000EBA5
:100C80001973491C1B786D1E082902F808304FEAB9
:100C9000091908F1010801DA002DF0DC21688B0642
:100CA00002D516E0A8F10108E04505DD02EB0803D6
:100CB00013F8013C302BF5D0B8F1000F09DD02EB41
:100CC000080313F8013C2E2B03D1090701D4A8F126
:100CD0000108002D05DD3E2102F808106D1E08F107
:100CE0000108407C002E02F8080008F1010804DA2F
:100CF0002D20764202F8080002E02B2002F80800BE
:100D00000A214FF47A70864208F101080BDB96FB4A
:100D1000F0F3303302F8083096FBF0F308F10108E5
:100D200000FB136601E0642E0CDB642096FBF0F3FD
:100D3000303302F8083096FBF0F308F1010800FBAD
:100D4000136601E00A2E06DB96FBF1F0303002F864
:100D5000080008F1010896FBF1F001FB106030304B
:100D600002F80800A16908F1010808EB050202EB8E
:100D70000A00081AA0612078C00602D42046FFF7B6
:100D800091FA216A08AE01EB0A00206204E0D4E97E
:100D9000012116F8010B9047BAF1010AF7D2207829
:100DA000C00602D52046FFF77DFA6E4609E016F828
:100DB000010B3E280FD0D4E901219047206A401C46
:100DC0002062B8F10108F2D22046FFF781FA09B09B
:100DD0000320BDE8F08F206A2844206203E0D4E9B4
:100DE0000121302090476D1EEBD3F8E70DE700009E
:100DF00002FCFFFF01694A1C02610878704700B5D8
:100E00008FB0CDE901310021059105497944CDE943
:100E1000031011466846FFF7A9FA0FB000BD0000A5
:100E2000E5FFFFFFD1E900239A4202D2531C0B6079
:100E300010707047032A40F2308010F0030C00F06D
:100E4000158011F8013BBCF1020F624498BF11F804
:100E500001CB00F8013B38BF11F8013BA2F10402BD
:100E600098BF00F801CB38BF00F8013B11F0030335
:100E700000F08481083AC0F0088051F8043B083A39
:100E800051F804CBA0E80810F5E7121D5CBF51F83B
:100E9000043B40F8043BAFF30080D20724BF11F8B5
:100EA000013B11F801CB48BF11F8012B24BF00F81A
:100EB000013B00F801CB48BF00F8012B7047431AF3
:100EC00028BF9A4240F25A811044114410F0030F97
:100ED0001EBF11F8013D521E00F8013D10F0030F36
:100EE0007FF4F6AF103AC0F00A8010B531E918501F
:100EF00020E91850103ABFF4F9AFBDE8104053078D
:100F000024BF31E9081020E9081044BF51F8043D1E
:100F100040F8043D12F0030F08BF7047D20728BF06
:100F200031F8023D48BF11F8012C28BF20F8023DDE
:100F300048BF00F8012C70474FF000020429C0F0B0
:100F4000128010F0030C00F04D81CCF1040CBCF1C8
:100F5000020F18BF00F8012BA8BF20F8022BA1EB4D
:100F60000C0100F03FB95FEAC17C24BF00F8012BFF
:100F700000F8012B48BF00F8012B7047004870476C
:100F800048020020004870472802002030B5B0F128
:100F90000A0271F100034FEA900E4EEA817EB0EB37
:100FA0000E0061EB91014FEA101E4EEA017E10EB3C
:100FB0000E0041EB11114FEA102E4EEA016E10EBBC
:100FC0000E0041EB11214FEA104E4EEA014E10EB9C
:100FD0000E0041EB1141401841F100014FEAD000F1
:100FE00040EA41704FEAD1014FEA810444EA90742B
:100FF00010EB800544EB01046D1944EB0404521B13
:10100000A3414FF0000348BF0A3200D530BD401C59
:1010100041F1000130BD00002DE9F0411F460446BA
:1010200003260168072A01F4006004DB08B116A555
:1010300005E016A503E008B115A500E015A521F00F
:1010400010002060A069C01EA0610FB1401EA06109
:101050002046FFF727F94FB1D4E9012138469047E0
:10106000206A401C2062C01C206206E0206AFAE769
:10107000D4E9012115F8010B9047761EF8D22046DD
:10108000FFF726F9BDE8F0814E414E006E616E001B
:10109000494E4600696E66002DE9F04781461646C6
:1010A0008AB0354878440DC88DE80D003248784440
:1010B000801C03AC0DC884E80D0041F69B30084449
:1010C000372190FBF1F290FBF1F5A5F1800501FBD2
:1010D00012041B3C02D56442012000E00020DFF82E
:1010E00098A080460027FA44AAF1BE0A0EE0E00765
:1010F0000AD03246684607EB470101230AEB81011B
:101100000DF04BFA8DE8070064107F1C002CEED127
:10111000194F7F44AE3F19E0E80715D007EB0410E4
:101120000DF1180A90E80E008AE80E00C068F0423F
:1011300001D1981908903246012306A903A80DF0A1
:101140002CFA03AB83E807006D10641C002DE3D17B
:101150004FF0010332466946B8F1000F03A802D0F0
:101160000DF006FA01E00DF018FAC9E90001C9F81E
:1011700008200AB0BDE8F087F8E2000010B5203A78
:10118000C0F00B80B1E81850A0E81850B1E8185032
:10119000A0E81850203ABFF4F5AF5FEA027C24BF04
:1011A000B1E81850A0E8185044BF18C918C0BDE8ED
:1011B00010405FEA827C24BF51F8043B40F8043BB6
:1011C00008BF7047D20728BF31F8023B48BF11F86B
:1011D000012B28BF20F8023B48BF00F8012B7047C5
:1011E0004FF0000200B5134694469646203922BFC0
:1011F000A0E80C50A0E80C50B1F12001BFF4F7AF0B
:10120000090728BFA0E80C5048BF0CC05DF804EBEC
:10121000890028BF40F8042B08BF704748BF20F85A
:10122000022B11F0804F18BF00F8012B704700000F
:1012300000487047280200207546FFF7F9FFAE46C8
:1012400005006946534620F00700854618B020B5D2
:10125000FEF7F6FFBDE820404FF000064FF0000714
:101260004FF000084FF0000BAC46ACE8C009ACE80A
:10127000C009ACE8C009ACE8C00921F007018D46FF
:10128000704710B50446AFF300802046BDE810401B
:10129000FEF7C2BF4FF0013C50F8042B51F8043B5D
:1012A0009A4221D1A2EB0C03934313EACC1317D13A
:1012B00050F8042B51F8043B9A4215D1A2EB0C03D1
:1012C000934313EACC130BD150F8042B51F8043B91
:1012D0009A4209D1A2EB0C03934313EACC13DBD05F
:1012E0004FF00000704700BFD01A01BAB1FA81F187
:1012F00001F0180122FA01F0CB40DBB2C0B2C01AF3
:10130000C1F120012CFA01F3D11A914311EAC31162
:10131000E6D1704701491820ABBEFEE72600020067
:101320007047000080B540F21840C2F2000002F0A1
:1013300049FD40F24840C2F20000BDE8804002F0A2
:1013400041BD0000B0B5044600688168C90701D1FD
:101350000020B0BD816821F00101816003F024FD0F
:10136000054600BF20688068C007F1D003F01CFD6F
:10137000401B0328F6D3A06A40F01000A062E06A88
:1013800040F00100E0620120B0BD00000146406A6B
:10139000826A12F0500F03D0006A026B08461047B1
:1013A0000168826A42F400728262896801F46021F5
:1013B000B1F5602F01D1017B11B102F0BFBC00BFBC
:1013C000816A21F480718162816AC90448BF02F098
:1013D000B5BC816A41F00101816202F0AFBC00003E
:1013E000406A816A41F040018162C16A41F00401B2
:1013F000C16202F0E1BC0000406A02F0DBBC000008
:10140000B0B582B004460020019021688A68D207F6
:101410003FD1886840F00100886040F2D000C2F2FD
:10142000000000684DF68361C4F21B31A0FB01018E
:10143000880C01900198A0B10198013801900198A1
:1014400078B1019801380190019850B101980138A4
:101450000190019828B10198013801900198002865
:10146000EAD103F0A1FC054620688068C00713D1CB
:1014700003F09AFC401B0328F6D3A06A40F010004A
:10148000A062E06A40F00100E062002084F82400DD
:10149000012002B0B0BD00BF002002B0B0BD00000E
:1014A0002DE9F04F8FB040F2B84940F2040A0646E9
:1014B000C2F200090028C2F2000AC9E90A010E922C
:1014C000C9F8302000F002850D914FF60841C0F6B2
:1014D000000151F8080C44F24222C4F25522904215
:1014E00040F0978451F8040CA0F10110052800F297
:1014F0009084DFE810F00700E702410111024D007F
:10150000890300BF8A68D1E9000780EA02014EF230
:10151000E172C1F60E0279400532914240F07984C1
:101520000DF092FC0025C4F2C82529460DF042FBBF
:10153000044638460DF088FC29460DF03BFB0C9024
:1015400020464FF07E510B940DF021FB002840F017
:10155000608400210B98C4F2F0110DF003FB002809
:1015600040F057844CF6CD410C98C3F6CC510DF0A9
:101570000EFB002840F04D8400210C98C4F220118D
:101580000DF0F0FA002800F0388300F042BC00BFF4
:10159000886AD1E900380A90C86AD1E908540C90E9
:1015A0000B93D1E9020ED1E904BCD1E906720C9982
:1015B000CDF83080594081EA0801414081EA0E01AE
:1015C00081EA0B0181EA0C0179400390CDF810E02B
:1015D000CDF814B0079706925140089509946940D8
:1015E0000A984EF2E1726140C1F60E0241400132AA
:1015F000914240F00E840B9864460DF025FC0027C4
:10160000C4F2C82739460DF0D5FA0B900C980DF0AE
:101610001BFC39460DF0CEFA0C9003980DF014FC2B
:1016200039460DF0C7FA054604980DF00DFC394611
:101630000DF0C0FA049005980DF006FC0027C4F2E6
:10164000201739460DF0B6FA834620460DF0FCFB14
:1016500039462F460DF0AEFA0A99022900F2D983D5
:101660000546DDE90610084308990843099908432F
:10167000012800F2CE830B984FF07E510DF087FACF
:10168000002840F0C68300210B98C4F2F0110DF041
:1016900069FA002840F0BD834CF6CD410C98C3F6A2
:1016A000CC510DF074FA002840F0B38300210C985F
:1016B000C4F220110DF056FA002840F0AA83002150
:1016C000C4F2A00138460DF062FA002840F0A18370
:1016D0000021C4F20C2138460DF044FA002840F0F5
:1016E000988304984FF07C510DF051FA002840F097
:1016F000908300210498C4F240110DF033FA0028C1
:1017000040F087830021C4F2201158460DF03FFAC3
:10171000002840F07E830021C4F2963158460DF037
:1017200021FA002840F075830021C4F216312846C2
:101730000DF02DFA002840F06C830021C4F29631A0
:1017400028460DF00FFA002840F063830498DDE985
:101750000932CAE9070B0798CAF818708AF80F000F
:101760000698CAF8245089F800000898002789F8DC
:101770000C004FF07C5041E391E80148D1E9074269
:10178000D1E90378D1E9055380EA020181EA0B012E
:1017900081EA0E01794081EA080169404EF2E17266
:1017A0005940C1F60E026140033291420A930994F6
:1017B00040F02F83079574460DF046FB0025C4F2D8
:1017C000C82529460DF0F6F90B9058460DF03CFB64
:1017D00029460DF0EFF90C9020460DF035FB294617
:1017E0000DF0E8F9089038460DF02EFB29460DF073
:1017F000E1F9834640460DF027FB0027C4F220178D
:1018000039460DF0D7F9054607980DF01DFB39460E
:101810000DF0D0F9DDE909211143012900F2F98227
:1018200007460B984FF07E510DF0B1F9002840F0BB
:10183000F08200210B98C4F2F0110DF093F900280A
:1018400040F0E7824CF6CD410C98C3F6CC510DF038
:101850009EF9002840F0DD8200210C98C4F220118E
:101860000DF080F9002840F0D48200210898C4F2DD
:10187000A0010DF08CF9002840F0CB8200210898DF
:10188000C4F20C210DF06EF9002840F0C2825846D7
:101890004FF07C510DF07BF9002840F0BA82002116
:1018A000C4F2401158460DF05DF9002840F0B182B5
:1018B0000021C4F2201128460DF069F9002840F0FB
:1018C000A8820021C4F2963128460DF04BF9002879
:1018D00040F09F820021C4F2163138460DF057F9CE
:1018E000002840F096820021C4F2963138460DF06F
:1018F00039F9002840F08D820898CAE90857CAE9EA
:10190000060B0A9800278AF80F00099889F80C70CE
:1019100089F80000012272E14A6A91E80149D1E99F
:1019200004C701F1180580EA020181EA080181EA91
:101930000B0181EA0E0138CD81EA0C017940594052
:101940004EF2E1726140C1F60E02694002329142EC
:10195000CDF81CB00A930994089540F05A82BB4612
:10196000654677460DF070FA0024C4F2C82421467B
:101970000DF020F90B9040460DF066FA21460DF06F
:1019800019F90C9007980DF05FFA21460DF012F945
:10199000079038460DF058FA21460DF00BF9044631
:1019A00028460DF051FA0027C4F2201739460DF0F1
:1019B00001F9054658460DF047FA39460DF0FAF898
:1019C000DDE909211143089A1143012900F221821E
:1019D00007460B984FF07E510DF0D9F8002840F0E3
:1019E000188200210B98C4F2F0110DF0BBF800280A
:1019F00040F00F824CF6CD410C98C3F6CC510DF05F
:101A0000C6F8002840F0058200210C98C4F220118D
:101A10000DF0A8F8002840F0FC8100210798C4F2DE
:101A2000A0010DF0B4F8002840F0F38100210798E0
:101A3000C4F20C210DF096F8002840F0EA8120460F
:101A40004FF07C510DF0A3F8002840F0E281002116
:101A5000C4F2401120460DF085F8002840F0D981ED
:101A60000021C4F2201128460DF091F8002840F022
:101A7000D0810021C4F2963128460DF073F8002879
:101A800040F0C7810021C4F2163138460DF07FF8CE
:101A9000002840F0BE810021C4F2963138460DF096
:101AA00061F8002840F0B58107980AF11801B1C12A
:101AB0000A988AF80F00099889F80000089889F8B0
:101AC0000C009AE091E881084A69D1E9035380EA61
:101AD0000201794081EA0B014EF2E1726940C1F6E0
:101AE0000E0259400432914240F093810B930DF065
:101AF000ABF90024C4F2C82421460DF05BF88046FF
:101B000038460DF0A1F921460DF054F80C905846D6
:101B10000DF09AF921460DF04DF8074628460DF0D4
:101B200093F921460DF046F805460B980DF08CF917
:101B30000021C4F220110DF03DF8834640464FF0DD
:101B40007E51CDF82C800DF022F8002840F0618104
:101B500000210B98C4F2F0110DF004F8002840F0B9
:101B600058814CF6CD410C98C3F6CC510DF00FF8CE
:101B7000002840F04E8100210C98C4F220110CF096
:101B8000F1FF002840F045810021C4F2A001384651
:101B90000CF0FDFF002840F03C810021C4F20C2134
:101BA00038460CF0DFFF002840F0338128464FF024
:101BB0007C510CF0ECFF002840F02B810021C4F296
:101BC000401128460CF0CEFF002840F02281002171
:101BD000C4F2201158460CF0DAFF002840F01981B9
:101BE0000021C4F2963158460CF0BCFF002840F0AA
:101BF0001081CAE90675CAF820B0012200274FF00B
:101C00007C500023FAE000BF086AD1E900EC08909C
:101C1000D1E90940D1E90B750A90486BD1E9023A44
:101C20000C90CDF82CE0D1E90408D1E9062B0C99F1
:101C3000CDF830C081EA0E0181EA0C01594081EAF9
:101C40000A0141400093CDF804A00290CDF80C8029
:101C500081EA08010592CDF810B05140089881EA58
:101C60000B01099441400A986140414079404EF28D
:101C7000E17240F2040A6940C1F60E02C2F2000AA3
:101C800091420697079540F0C4800B980DF0DCF860
:101C90000025C4F2C82529460CF08CFF0B900C9847
:101CA0000DF0D2F829460CF085FF0C9000980DF04D
:101CB000CBF829460CF07EFF044601980DF0C4F8DD
:101CC00029460CF077FF074602980DF0BDF8002575
:101CD000C4F2201529460CF06DFF029003980DF018
:101CE000B3F829460CF066FF0799632900F291804A
:101CF00083460698012800F28C800A98022800F298
:101D00008880DDE9041008430899084309990843CD
:101D100001287ED80B984FF07E510CF038FF002838
:101D200077D100210B98C4F2F0110CF01BFF0028B2
:101D30006FD14CF6CD410C98C3F6CC510CF027FF77
:101D4000002866D100210C98C4F220110CF00AFF83
:101D500000285ED10021C4F2A00120460CF017FF3C
:101D6000002856D10021C4F20C2120460CF0FAFEC6
:101D700000284ED138464FF07C510CF008FF002867
:101D800047D10021C4F2401138460CF0EBFE002888
:101D90003FD100210298C4F220110CF0F8FEC0BB24
:101DA00000210298C4F296310CF0DCFE88BB0021C1
:101DB000C4F2163158460CF0EAFE50BB0021C4F2C2
:101DC000963158460CF0CEFE18BB0298CAE9064779
:101DD000CAE9080B05988AF80F00049889F80000F2
:101DE000089889F80C0007980DF02EF80021C4F22D
:101DF000C8210CF0DFFEDDE90932069FDDE90B5159
:101E000086F82430C6E9045186F8252086F8267025
:101E1000B062D6E904570021C4F2F01128460CF054
:101E2000A1FE00281CBF0025C4F2F01528464FF083
:101E30007E514FF07E540CF095FE00210028C4F234
:101E40002011384608BF254635610CF08BFE4CF654
:101E5000CD45C3F6CC5500281CBF0027C4F220177F
:101E6000384629460CF07EFE002896F8240008BF6C
:101E70002F460228776124BF002086F8240096F8B8
:101E8000250047F2A401032824BF012086F825007D
:101E900096F82600C3F67D71022824BF002086F83C
:101EA0002600B56A28460CF05DFE00281CBF47F2EC
:101EB000A405C3F67D752846002100240CF052FECF
:101EC000002808BF05460D99B562348351B1084614
:101ED0003C2104F085FDD9E90B0100680E91406AB0
:101EE000A9F820000E9848B10E983C2104F078FD26
:101EF000D9F830000068406AA9F8220040F6004492
:101F0000C4F2010420464FF4807102F041FF8AF8C8
:101F100000008AF8040002F047FFC9F834002046A8
:101F2000102102F035FF8AF806008AF8080002F056
:101F30003BFFC9F8380020464FF4007102F028FF3B
:101F40008AF80A008AF80C0002F02EFFC9F83C005B
:101F500005F0ECFE0120012706F0DEFB04F58065AC
:101F6000002628464FF480410022A9F80D6089F828
:101F70000F6002F013FF07F063F820464FF4006192
:101F800002F006FF8AF80D008AF80E0002F00CFF3E
:101F900099F80010C9F84000481EB0FA80F04009D6
:101FA00007F046F928464FF40051002202F0F6FEF1
:101FB00020464FF40041002202F0F0FED9F828003C
:101FC00068B14168C9F844108168C9F848100168CF
:101FD00089F80170C9F84C10C068C9F8500002F0C7
:101FE000E3FEC9F8540002F0DFFEC9F8580002F021
:101FF000DBFEC9F85C0040F27530C2F20000A9F8BF
:102000000260067002F0D0FEC9F86000A9F8046012
:1020100002F0CAFEC9E91906C9F86C60002089F807
:1020200006600FB0BDE8F04F0AF0FABB2DE9F04FA3
:1020300091B002F0B9FE40F2B848C2F20008D8F8F8
:1020400028108246002900F0828002F0ADFED8F808
:10205000286050213EB196F82520022A08BF96211B
:10206000002A08BF2821D8F85420821A8A426ED349
:1020700098F80110C8F85400002959D049F69A146C
:10208000C3F699646EB196F82500022804BF49F69C
:102090009A14C3F61964002804BF4CF6CD44C3F665
:1020A0000C74D8E9115740F2B8417068C2F20001CF
:1020B000D1E9138929460DF00FF8014620460CF0AE
:1020C0003FFF29460CF0D8FC40F2B841C2F20001B3
:1020D0004864B06839460CF0FFFF014620460CF01A
:1020E0002FFF39460CF0C8FC40F2B841C2F20001A3
:1020F0008864306841460CF0EFFF014620460CF042
:102100001FFF414640F2B848C2F200080CF0B4FC90
:10211000C8F84C00F06849460CF0DEFF0146204646
:102120000CF00EFF49460CF0A7FCC8F850000EE07A
:102130007068C8F84400B068C8F848003068C8F84B
:102140004C00F068C8F85000012088F8010040F603
:102150000045C4F2010528464FF4006102F018FE64
:10216000044602F021FE40F2040BC2F2000B9BF881
:102170000D108C4206D1D8F84010401A962809D28A
:102180001AE000BF01468BF80D40C8F84000401A25
:10219000962811D398F807008BF80E4003280BD12E
:1021A000B4FA84F0440906F097FFA04204D0DBF8AB
:1021B0002410204606F0B4FFD8F82860002E00F066
:1021C000F886D8F82C0040B10068406AB8F82010B2
:1021D00082B28A42A8F8200024D1D8F83000002822
:1021E00000F0A8830068406AB8F8221082B28A42E0
:1021F000A8F8220000F09E8398F80720401A012AD0
:1022000028D9022A40F09683D8F8781000B2014409
:102210000329C8F8781040F3D98001206FF0030239
:10222000DAE000BF98F80720401A012A42D9022AB2
:1022300000F0BE80032AD0D1D8F8741000B2084450
:102240000328C8F8740040F3478101216FF00302AE
:1022500048E100BF4CF6CD459BF81320C3F6CC55A2
:10226000CDF82CA0D8F828A0D8F878102E46022A4D
:1022700004BF4DF20A76C3F6234600B2002A08BF17
:102280004FF07E56DAF814900C18042C36DB251F1C
:10229000012000EB950010F0030700F01B81304691
:1022A00049460CF0E9FB012F40F03C812C46A84642
:1022B0005EE100BF96F82610D146012900B24BD14D
:1022C000D8F87410D6F828A00C18042CC0F2A280FC
:1022D000A4F10408012000EB980010F0030500F0C1
:1022E00029814DF20A71C3F6234150460CF0C4FB1C
:1022F000012D40F02381444647469FE114F1040F2D
:102300004846C8F8784000F35881484631460CF0FA
:10231000E3FE14F1080F04F1040800F2478131468E
:102320000CF0DAFE18F1080F04F1080800F23E8103
:1023300031460CF0D1FE18F1080F00F273813146DE
:102340000CF0CAFE04F1100804F10C0111F1070FA2
:102350004446DBD32AE100BF9BF812104CF6CD4770
:10236000C3F6CC57022904BF4DF20A77C3F62347C0
:10237000002908BF4FF07E57D8F87410D6F810A087
:102380000D18042DC0F27880A5F10408012000EB9F
:10239000980010F0030400F0CF80384651460CF04E
:1023A0006BFB012C40F0D48045464446A2E100BFBF
:1023B000D8F8741000B208440328C8F8740040F339
:1023C000998001216FF003029BE000BF11F1040F1F
:1023D00000F3B082FF20042298F8123011440A2B37
:1023E000C8F8781000F2A482DFE813F00C00420273
:1023F00008021002DC014A0270021C029C02000268
:10240000940200BF98F81300B0FA80F0400988F8F1
:1024100013008DE214F1040F5046C8F8744000F325
:102420002F814DF20A75CBF62345504629460CF014
:1024300023FB14F1080F04F1040700F21F81294661
:102440000CF01AFB17F1080F04F1080700F21681CF
:1024500029460CF011FB17F1080F00F26D85294693
:102460000CF00AFB04F1100704F10C0111F1070F45
:102470003C46DBD302E100BF15F1040F5046C8F81B
:10248000745000F35981504639460CF025FE15F181
:10249000080F05F1040400F24D8139460CF01CFED2
:1024A00014F1080F05F1080400F2448139460CF0DC
:1024B00013FE14F1080F00F2438539460CF00CFEB0
:1024C00005F1100405F10C0111F1070F2546DBD3CE
:1024D00030E100BF48464BE010F1040F3FF77DAEFE
:1024E000FF2104221044C8F8740048B206F0BCFC76
:1024F00073E600BF10F1040F3FF76FAE4FF0FF31EE
:102500000422104498F81220C8F87400881848BFB4
:102510000A200A28C8BF002088F8120009F078F8BD
:102520005BE600BF014630460CF0A6FA022F19D137
:10253000083C1CE0504681E05046DBE04DF20A7159
:10254000C3F623410CF098FA022D6FD1083C74E0D9
:10255000014638460CF090FA022C40F0C580083D48
:10256000C7E000BF014630460CF086FA0C3CA0469E
:102570000C2D4CF6CD45C3F6CC5517D3014630464D
:102580000CF07AFA014630460CF076FA01463046F5
:102590000CF072FA014630460CF06EFAA4F1100805
:1025A000A4F1140111F1080F4446E7D340F2B841F9
:1025B000C2F20001C1F8788088460021C4F22011DF
:1025C00006460CF0CFFA00281CBF0026C4F22016E5
:1025D000304629460CF0C6FA002808BF2E46304681
:1025E0004946CAF814600CF0AFFADDF82CA040F6AA
:1025F00000450028C4F2010540F09C8102F0D4FBA4
:1026000040F2345100F5FA60C2F200014860012046
:102610008BF8160002F0C8FBC8F85C00002088F8B0
:10262000090087E104F10C08C0E700BF4DF20A7110
:10263000C3F623410CF020FA0C3C2746B8F10C0FEE
:1026400040F2B848C2F2000818D34DF20A75C3F63A
:10265000234500BF29460CF00FFA29460CF00CFA6E
:1026600029460CF009FA29460CF006FAA4F11007E5
:10267000A4F1140111F1080F3C46EBD3C8F87470B3
:1026800047F2A401C3F67D7104460CF06BFA0028F2
:102690001CBF47F2A404C3F67D7420460021002726
:1026A0000CF060FA5146002818BF2046B0620CF0CA
:1026B0004BFA40F600450028CA46C4F201057FF4F3
:1026C0008CAD02F071FB40F2345100F5FA60C2F2B9
:1026D0000001086001208BF8160002F065FBC8F8C5
:1026E0005C0088F8087078E5014638460CF0C4F9BB
:1026F0000C3D2C46B8F10C0F40F2B848C2F200086D
:1027000018D300BF014638460CF0B6F901463846EA
:102710000CF0B2F9014638460CF0AEF901463846E5
:102720000CF0AAF9A5F11004A5F1140111F1080F9C
:102730002546E7D3C8F874400021C4F2F0110446DE
:102740000CF010FA00281CBF0024C4F2F01420463C
:102750004FF07E514FF07E550CF004FA002808BF70
:102760002C462046514634610CF0EEF940F6004507
:102770000028CA46C4F201057FF42FAD02F014FB15
:1027800040F2345100F5FA60C2F200010860012005
:102790008BF8160002F008FBC8F85C00002088F8EF
:1027A00008001AE540B20CF037FBDBF828404FF088
:1027B0007C510CF0C5FB21460CF05EF90021C4F2FF
:1027C0000C2104460CF0CEF90026C4F2A006002825
:1027D0001CBF0024C4F20C24204631460CF0C2F980
:1027E000002808BF3446CBF82840A1E098F816002E
:1027F000B0FA80F0400988F8160099E098F81500C2
:10280000B0FA80F0400988F8150091E09BF81410A8
:1028100040B2401848BF02200228C8BF00208BF8F1
:10282000140085E040B20CF0F7FA0021DBF83440E8
:10283000C4F2A0010CF084FB21460CF01DF900212C
:10284000C4F2963104460CF08DF90026C4F2163617
:1028500000281CBF0024C4F29634204631460CF0F8
:1028600081F9002808BF3446CBF8344060E000BF4F
:1028700098F81400B0FA80F0400988F8140057E086
:1028800040B20CF0C9FA4CF6CD41DBF82C40C3F64F
:10289000CC510CF055FB21460CF0EEF80021C4F2AF
:1028A000401104460CF05EF900281CBF0024C4F25D
:1028B000401420464FF07C514FF07C560CF052F9FA
:1028C000002808BF3446CBF82C4031E040B20CF071
:1028D000A3FA0024C4F22014DBF8306021460CF087
:1028E0002FFB31460CF0C8F80021C4F296310646A1
:1028F0000CF038F900281CBF0026C4F2963630468A
:1029000021460CF02FF9002808BF2646CBF830608E
:102910000EE000BF98F81700B0FA80F0400988F880
:10292000170005E09BF8150080F001008BF81500FA
:1029300008F06EFED8F82800002800F03A8302F074
:1029400033FA044628464FF4807102F021FA9BF8CE
:102950000010884206D1D8F83410611A232909D210
:102960000EE000BF21468BF80000C8F83440611A21
:10297000232905D39BF80410884218BF8BF8040064
:1029800002F012FA04462846102102F001FA9BF8E0
:102990000610884206D1D8F83810611A232909D2C6
:1029A00011E000BF21468BF80600C8F83840611AD4
:1029B000232908D39BF80810884204D000288BF8FC
:1029C000080000F09380012702F0EEF90446284643
:1029D0004FF4007102F0DCF99BF80A10884205D12F
:1029E000D8F83C10611A232908D20DE021468BF853
:1029F0000A00C8F83C40611A232905D39BF80C1043
:102A0000884218BF8BF80C0002F0CEF99BF8042026
:102A100098F8181092B1002900F0918098F81900E8
:102A2000002840F0898098F80700012860D9032821
:102A300040F08280002006F055FB7DE071B198F8EF
:102A4000191000297BD198F80710012977D840F296
:102A50003451C2F2000189680DE000BF0121A8F8DD
:102A6000181040F2345198F80720C2F20001886033
:102A7000012A014663D8401AB0F57A7F5FD301205E
:102A800088F8190098F80B000BF1180688F8130065
:102A900049CE0BF1280C8CE849009BF80F0098F800
:102AA00000108BF81500D8F8280098F80C20DBF8F7
:102AB0002440CBF8344088F8171088F8162058B115
:102AC00090F8241090F8262090F8250088F814201B
:102AD00088F815108BF81400002088F812000220E6
:102AE00088F8070008F094FD29E000BF00276BE795
:102AF000D8F8280090F82600F0B99BF81200411E83
:102B0000B1FA81F149094900002808BF01218BF879
:102B1000121002F049F940F2345100F5FA60C2F2A5
:102B20000001086001208BF8160002F03DF9C8F89A
:102B30005C00002088F808000020A8F8180002F0C7
:102B400033F99BF80C2098F81A107AB1002900F09C
:102B5000058298F81B00002840F0FD8198F80700D6
:102B600003284DD1022006F0BDFAF4E151B198F8E6
:102B70001B10002940F0F28140F23451C2F20001F2
:102B8000C96808E00121A8F81A1040F23451C2F2D5
:102B90000001C8600146401AB0F57A7FC0F0DE81BE
:102BA00098F80720D8F828000121032A88F81B107C
:102BB00060D1002800F0D28106F002FADBF838007C
:102BC000D8F828100861DBF83C00486198F81C0030
:102BD000087698F81D20002881F82620DBF8402090
:102BE0008A6218BF0120487628464FF4004100222F
:102BF00002F0D4F898F81E0009F012FEAEE100BF12
:102C0000012840F22181022840F0A5810BF1280320
:102C10000FCB0BF1180C8CE807009BF8150098F807
:102C200016208BF80F0098F8140088F80C20D8F8BC
:102C30002820CBF8243098F8173082F826009BF82B
:102C4000140098F8151082F82500581EB0FA80F08C
:102C5000400988F8003082F8241006F0E9FAD8F824
:102C60002800416900690AF0B5FE98F8130009F0E0
:102C7000D7FD70E1002800F0718106F0A1F998F805
:102C80000B00D8F8281088F81E0008694FF00009DA
:102C9000CBF838004869CBF83C00087E8A6A88F88F
:102CA0001C0091F82600CBF8402088F81D004FF456
:102CB0009670A1F8189001F027FE28464FF40041C5
:102CC000012202F06BF898F80C10D8F828000022C6
:102CD000012940F20001C4F29012C4F2C00180F850
:102CE000269004BF0022C4F2401204BF0021C4F2A7
:102CF000A001C0E9042188F8029002F055F8C8F854
:102D0000600040F23455D8F82800C2F2000540F2C5
:102D1000011188F80390C5F81090018302F044F87F
:102D2000044602F041F8001BC0087C2851D840F648
:102D30000040C4F2010000F580680AF057FD40F23F
:102D4000B846C2F20006707B012830D102F02CF8A0
:102D5000B17B6A690129A0EB020119D140F2B846A2
:102D60009629C2F2000622D36861F07B4FF48041BD
:102D70000130F0734046002286F80E9002F00EF803
:102D8000F07B9BF81710884228BF86F80D900EE064
:102D900040F2B8469629C2F2000608D368610120C5
:102DA000B07340464FF48041012201F0F7FFB06A52
:102DB000417E032900F08C80007E002800F088808E
:102DC000012001F0A1FD01F0EFFF001BB0F57A7FBB
:102DD000B3D340F2B848C2F20008D8F82800417EC8
:102DE000032947D0007E002844D098F8000001381D
:102DF000B0FA80F0400906F01BFA06F075F840F6CC
:102E000000450320C4F2010588F8070028464FF466
:102E1000006101F0BDFF8BF80D008BF80E0001F092
:102E2000C3FF9BF80E10C8F84000B1FA81F0DBF840
:102E30002410400906F074F90020C8E91D000120A3
:102E400006F020FA8AE000BF98F80210D8F82800AF
:102E5000E1B140F275320021C2F20002A8F802107E
:102E6000117040F23452C2F200020028116118BF02
:102E700001831CE040F60045C4F2010528464FF4EA
:102E80000041002201F08AFF68E000BF417E032973
:102E900030D140F275320021C2F20002A8F80210CF
:102EA000117040F23452C2F2000211610183002419
:102EB00005F580604FF48041002288F80440A8F8AE
:102EC0000D4088F80F4001F069FF88F80A4042E0A1
:102ED00040F60045C4F2010528464FF400410022A7
:102EE000002401F05BFF40F2B848C2F2000888F805
:102EF0000A4033E0027E82F001010176B2B900247B
:102F000088F8024001F050FFC8F8600040F23450E9
:102F1000C2F20000D8F828100461D1E9040188F851
:102F200003400AF057FDD8F82800017E61B1417EC8
:102F300061B9012109E000BF04F10C07FFF79EBB56
:102F400005F10C04FFF7F6BB00214176002088F85C
:102F50000A0008F0AFFA0020A8F81A004FBB98F852
:102F60000700012806D9032823D1012006F0BAF86A
:102F70001FE000BF9BF81300411EB1FA81F149091F
:102F80004900002808BF01218BF8131001F00CFF45
:102F900040F2345100F5FA60C2F2000148600120AD
:102FA0008BF8160001F000FFC8F85C00002088F8DC
:102FB00009000AF01BFC98F80D00012835D101F03A
:102FC000F3FE40F23451C2F2000198F80E204B6932
:102FD000012AA0EB03021BD1962A26D3486198F858
:102FE0000F000024013088F80F0005F580604FF4D1
:102FF0008041002288F80E4001F0D0FE98F80F00C2
:103000009BF81710884228BF88F80D400DE000BFDC
:10301000962A0AD34861012088F80E0005F58060E1
:103020004FF48041012201F0B9FED8F828000028B1
:103030005CD001F0B9FED8F8281098F805300A7E67
:10304000002A114618BF012143B93AB10022C8E94C
:103050001902C8F86C2088F8062045E0002B18BF3C
:10306000002A1BD1D3B3CABBD8F86420D8F86C307F
:10307000821A1A4444F6D353C1F26203A2FB033707
:10308000D8F86830BE0903EB97134FF47A7706FB44
:103090001722C8E91903C8F86C201BE0D8F864208F
:1030A000D8F86C30821A1A44B2F57A7FC8F86400F6
:1030B00018D344F6D350C1F26200A2FB0003980972
:1030C000D8F868704FF47A7600FB162007EB93125D
:1030D000C8E91A20002088F8060005E0C8F8640056
:1030E00002E000BFC8F86C2088F8051005F0A0FFCA
:1030F00078B1D8F8281029B1497E032909D098F869
:10310000021031B99BF80F10002918BF5FEA407018
:103110000AD198F80700032822D105F0DDFFB0FAA4
:1031200080F0420927E000BF40F20110A8F80D002E
:10313000002088F80F0001208BF8170001F034FE02
:1031400040F23451C2F20001486105F580604FF44D
:103150008041012201F022FE98F807000328DCD00C
:10316000D8F8280030B1017E21B1407EC21E18BFC0
:10317000012200E0002205F580604FF4005101F0CB
:103180000DFE98F80700012830D801F00DFE40F23E
:103190003451C2F200010AC90A1A002AA3EB000145
:1031A000D8BF002914DDD8F85C30C31ADC2B1BD340
:1031B0009BF81630C8F85C0083F00100012A8BF8F8
:1031C0001600A4BF002088F80800012909DA0BE0E6
:1031D0009BF8160040B901208BF81600002088F8F3
:1031E0000800002088F8090098F80700032800F07C
:1031F000DF80012866D0002840F0D780D8F858003A
:10320000D8F82820AAEB00004FF064013AB192F8F8
:103210002520022A08BFC821002A08BF322188427F
:1032200080F0568198F80800002800F05D8198F839
:10323000090030B90020D72108F05CFE012088F891
:10324000090098F80A00002804BF012088F80A0045
:1032500098F80600002840F0A880D8F868004BF2E3
:10326000C531C9F2A211A0FB011248F68901C8F6C6
:103270008801A0FB011748F689037909C0F6880385
:10328000A1FB0336D30A72081201A2EB5602A1EB8E
:1032900082020901A1EB5711A0EB8100CDE90020CA
:1032A0004FF210620CACC0F6000220461421142527
:1032B000FCF7D8FF40F2345198F80000C2F2000148
:1032C000223160E001F070FDD8F82820FA2142B1E7
:1032D00092F82520022A08BF4FF4C871002A08BFBF
:1032E0006421D8F87020821A8A4267D298F80800C0
:1032F000002800F0D78298F8090030B90020D721C3
:1033000008F0F8FD012088F8090098F80A00002864
:1033100008BF08F0F9F898F80600002845D1D8F859
:1033200068004BF2C531C9F2A211A0FB011248F6A8
:103330008901C8F68801A0FB011748F689037909BD
:10334000C0F68803A1FB0336D30A72081201A2EB70
:103350005602A1EB82020901A1EB5711A0EB8100FB
:10336000CDE900204FF210620CACC0F600022046FE
:1033700014211425FCF776FF40F2345198F8000030
:10338000C2F200013631CDE90041431E4FF0DA00B0
:103390004FF0B4014FF0020218BF4FF6FF730295D1
:1033A00009F038F9012088F8060011B0BDE8F08F67
:1033B000002011B0BDE8F04F05F064BFD8E911540A
:1033C0000026C4F2F016C8F87000284631460BF00B
:1033D000C9FB00281CBF0025C4F2F01528460021B7
:1033E00000270BF0BFFB3146002818BF28460BF022
:1033F000E1FB0025C4F20E3529460BF0A1FD0BF0D0
:10340000CFFC0026C4F22016C0F1AB09204631469D
:103410000BF0A8FB00281CBF0024C4F22014204697
:1034200000210BF09FFB3146002818BF20460BF00F
:10343000C1FB29460BF084FD0BF0B2FCB8F8241058
:10344000C0F1AB06002900F02681012962D140F6C7
:103450002860C2F20000018898F8000000220128CC
:103460004FF49D704FF0000408BF4FF6FF7204F058
:103470007DFB40F6982198F80000C2F2000109880F
:10348000012808BF4FF6FF744FF49D70224604F0E8
:103490006DFBB8F82470932FC0F0FD8040F62865CE
:1034A000C2F20005A91C28464FF49272FDF741F8BC
:1034B00040F69824C2F20004A11C20464FF49272F8
:1034C000FDF737F8A5F82491A4F82461F2E000BFD5
:1034D000C8F858A008F058FC012088F80A0098F8AD
:1034E000080000287FF4A3AED8F82800372120B1C7
:1034F00090F82600012808BF46210120012408F089
:10350000F9FC88F8084098F8090000283FF492AECA
:1035100097E600BF4FF49E70A0EB41000122CDE979
:10352000046906900BE000BF40F2B848C2F2000800
:10353000089AB8F824700132BA4280F0A780069841
:10354000531E00EB430900EB420040F628610B904C
:10355000C2F2000198F8000031F9135031F912104D
:1035600001284FF000000793089208BF4FF0FF308A
:10357000B1EB050A4FF0FF340990C8BF01240A914E
:10358000C8BFA5EB010A0AF1020BC84610E000BF54
:10359000BAEB4B0F5846D8BF08F10108BBF1010F39
:1035A000DCBF25440230BAEB4B0FD8BF50448346F2
:1035B0004FEA9810042898BFEF2D07D90B98804543
:1035C000E6D10A988542E3D112E000BF09981FFABC
:1035D00088F687B2A9B230463A4604F0C7FAEE2D13
:1035E000ECD8681C81B230463A4604F0BFFAE5E7F1
:1035F00040F698210798C2F2000131F9105040F2CC
:10360000B840C2F20000089A007831F912A00128EF
:103610004FF0000008BF4FF0FF30BAEB05044FF049
:10362000FF3B0A90C4BF4FF0010BA5EB0A04A61C98
:103630004FEA9910042898BFEF2D15D90B988145B2
:1036400008BF55453FF470AFB4EB460F3046D8BFC6
:1036500009F10109012EDCBF5D440230B4EB460FD5
:10366000D8BF20440646E3E70A981FFA89F887B2D4
:10367000A9B240463A4604F079FAEE2DDED8681C2D
:1036800081B240463A4604F071FAD7E7DDE90469B1
:10369000932FBFF403AF40F62860C2F2000020F879
:1036A000179040F69820C2F2000020F81760781CAE
:1036B000A8F8240009F066FCB8F82400002800F0FF
:1036C000EA8001284FF6E07500F0C0804FF49E714B
:1036D000A1EB4000012207900BE000BF40F2B84888
:1036E000C2F20008099AB8F824000132824280F040
:1036F000A9800798531E40F6286100EB430A00EBAF
:10370000420BC2F2000198F8000031F9134031F980
:103710001210012840F2FF700893099208BF1F2081
:103720000D1B4FF0FF380B90C8BF4FF001080A91F6
:10373000C8BF651AAF1CD1460FE000BFB5EB470FFD
:103740003846D8BF09F10109012FDCBF44440230DB
:10375000B5EB470FD8BF284407464FEA9910042815
:1037600098BFEF2C06D9D945E8D10A988442E5D113
:1037700010E000BF1FFA89F60B9AA1B2304604F0A0
:10378000F5F9EE2CEFD8601C0B9A81B2304604F0AC
:10379000EDF9E8E740F698210898C2F2000131F906
:1037A000108040F2B840C2F20000099A007831F966
:1037B000121001284FF6E0770B9105D1AF2073214D
:1037C000002204F0B3F907460B984FF0FF35B0EB39
:1037D0000804C4BF0125A8EB000404F102090FE0AE
:1037E000B4EB490F4846D8BF0AF1010AB9F1010FFD
:1037F000DCBFA8440230B4EB490FD8BF2044814657
:103800004FEA9A10042898BFB8F1EF0F06D9DA45AD
:10381000E6D10B988045E3D160E700BF1FFA8AF636
:103820001FFA88F130463A4604F0A0F9B8F1EE0FDD
:10383000EDD808F1010081B230463A4604F096F91D
:10384000E5E700BF01284FF6E07524D140F6286077
:10385000C2F20000018898F8000040F2FF720128CF
:103860004FF49D7008BF1F2204F080F940F69821A4
:1038700098F80000C2F200010C88012805D1AF20A1
:103880007321002204F052F905464FF49D70214641
:103890002A4604F06BF907F037FE98F80800002874
:1038A0007FF429ADD8F82800372120B190F8260000
:1038B000012808BF46210120012408F01BFB88F8DD
:1038C000084098F8090000283FF418AD1DE50000F5
:1038D000F0B581B040F2EC30C2F2000000F12C04EF
:1038E00042F634462046C4F2010600F009F940F2DF
:1038F0004845C2F20005284600F002F940F274374C
:10390000C2F2000707F170012046042200F098FD82
:10391000642000F0F9FF40F26400C2F2000041F2BE
:10392000A052043005F13001C2F20002FDF7B8FDEB
:1039300056F8084C20460BF087FA4CF6CD41C3F6FA
:103940004C510BF0FDFA0BF047FA3882211A80B285
:1039500041F260547982306088B2C2F20004706033
:1039600020460021002503F0EDFA2046002102F058
:103970008DFD2046042103F0E5FA2046042102F0E3
:1039800085FD206841F21112016A114208D1016AD5
:1039900040F24442114203D1416C21F400414164A0
:1039A00040F257203560706041F26050C2F2000072
:1039B000BD7201B0BDE8F04002F020BEFEE700009D
:1039C000002070470020704710B540F65074C2F2D6
:1039D000000440F65821C2F200012046002206F001
:1039E00093FA40F61821C2F20001204606F086FA4A
:1039F000002010BD10B540F65074C2F2000401461C
:103A0000204606F07BFA204606F05AFA002010BD48
:103A100041F21420C2F2000000F01EBE41F2582014
:103A2000C2F2000000F018BE70470000EFF31080F3
:103A300072B600BFFEE7000070B542F20C06044605
:103A4000C4F2020601F0B0F93168C9071CD1306830
:103A5000800644BF202030603068C00607D430693B
:103A6000C00704D1306840075CBF002070BD3068DB
:103A7000C00641F26060C2F2000021D40021326829
:103A8000520725D42AE000BFC4B10546601C10D1FE
:103A90003068C007DBD03068C0071CBF30685FEA01
:103AA000C070D4D03068C007F2D1D0E73068C0070A
:103AB000CDD001F079F9401BA042F7D9032070BDA9
:103AC000C16941F00201C16110213268520705D578
:103AD000C26941F0040142F00102C2613269D207B9
:103AE00002D10120316070BDC26942F00402C2619E
:103AF000306920F0010030610120316070BD0000AC
:103B000070B582B004460020019094F8240001288A
:103B100002D1022002B070BD012084F824002046AA
:103B2000FDF710FC20B1002184F8241002B070BD14
:103B30000646A06A41F2021188430230A06240F2B8
:103B4000D000C2F200000568022001F093FEB5FB30
:103B5000F0F0400001900198A8B100BF0198013831
:103B60000190019878B1019801380190019850B105
:103B7000019801380190019828B10198013801900D
:103B800001980028EAD12046FDF73AFC20688168B8
:103B900041F00801816001F007F90546206881685D
:103BA000090705D501F000F9401B0A28F6D910E0F5
:103BB000816841F00401816001F0F6F8054600BF1C
:103BC00020688068400709D501F0EEF8401B0B28FB
:103BD000F6D3012010216FF0120203E001216FF0F3
:103BE00003023046A36A1A401143A162002184F8FF
:103BF000241002B070BD00007047000070B581B0A5
:103C00000022009290F82420012A03D102210846C4
:103C100001B070BD4A680123062A02EB820E80F8CB
:103C2000243007D8D0F800C06FF004030CF134063C
:103C30000CE000BFD0F800C00C2A87BF0CF12C06A6
:103C40006FF040030CF130066FF022030EEB03021D
:103C50001F23346803FA02F50B6824EA050503FA0A
:103C600002F22A433260092B03EB43021AD9DCF833
:103C70000C601E3A072589689540AE43914023F0B9
:103C800001023143102ACCF80C1015D142F2004148
:103C9000C4F201018C4517D0816A41F02001816294
:103CA00001210AE0DCF81030072689689640B3430A
:103CB00091401943CCF810100021002280F82420F4
:103CC000084601B070BD00BF89680902F4D4DCF871
:103CD0000810102B41F40001CCF80810ECD140F290
:103CE000D001C2F2000109684DF68362C4F21B32B2
:103CF000A1FB0212910C01EB810149000091009996
:103D00000029D9D000990139009100990029D3D018
:103D100000990139009100990029CDD0009901390D
:103D2000009100990029C7D00099013900910099AC
:103D300000294FF00001E5D1BFE70000006842F222
:103D40000041C4F20101884218BF704780B540F2BB
:103D50007430C2F2000000F12C0CB0F870109CE836
:103D60000C1002EB010EB0F87220B0F876101A4475
:103D7000838A61444163591C8BB21E2BC0E90BE25C
:103D8000818213D348F6890CC8F6880CAEFB0C313F
:103D9000A2FB0C230909C182190901830021C0E992
:103DA0000B114163818201210170C161BDE8804036
:103DB0007047000070470000704700000068C06C4A
:103DC0007047000010B5044600684168890644BF8A
:103DD00001685FEA81710BD44168090644BF01683C
:103DE0005FEA41712AD4416849065BD410BD00BF27
:103DF000A16AC90603D4A16A41F40071A162816875
:103E000001F46021B1F5602F10D1217B71B94168B7
:103E100021F020014160A06A20F48070A062A06AB5
:103E2000C00403D4A06A40F00100A0622046FFF75E
:103E300085FF20686FF012010160CDE7A16AC90615
:103E400003D4A16A41F40051A162816801F4E04108
:103E5000B1F5E04F10D1416821F080014160A06AC6
:103E600020F48050A062A06AC00511D4A06A40F07E
:103E70000100A0620CE000BF4168490508D48168D8
:103E800001F46021B1F5602F02D1217B0029E2D03D
:103E90002046FFF7B1FE20686FF00C010160416819
:103EA0004906A3D50068C00708BF10BDA06A40F44A
:103EB0008030A062204600F0A9F820686FF0010170
:103EC000016010BD002804BF01207047B0B5044652
:103ED000806A28B120688168C9070CD032E000BF31
:103EE0000020E06284F82400204600F091F8206869
:103EF0008168C90726D1A16AC9063DD4A16A41F2E9
:103F0000021291430231A162E169D4E9013241EA2E
:103F1000030C531EB3FA83F35D091346B2F5807F99
:103F200018BF2B02217D257B01294CEA45012ED1AA
:103F300045B3A56A45F02005A562E56A45F001058F
:103F4000E56224E0816821F00101816000F02CFF2E
:103F5000054600BF20688168C907CCD000F024FF67
:103F6000401B0328F6D3A06A40F01000A062E06A6C
:103F700040F00100E062A06AA06A40F01000A06278
:103F80000120B0BDA56903EB4533A3F5C0534568D7
:103F9000B2F5807F25F4694543EA050343608368F1
:103FA0004FF2FD75CFF6E17503EA050343EA01031D
:103FB000836001D0012A07D122690023CFF6F07374
:103FC00003EB025201E000BF0022C36A23F4700336
:103FD0001A43C262806840F6FE62CFF61F7210403C
:103FE000884207D10020E062A16A012262F3010148
:103FF000A162B0BDA06A40F0100020F00200A062F3
:10400000E06A40F00100E0620120B0BD70470000AE
:10401000F0B585B0016842F60002C4F20102914297
:104020004FF00002CDE90322CDE9012246D042F251
:104030000042C4F20102914269D1074641F21800E0
:10404000C4F20200016841F400710160016801F4EA
:10405000007100910099016841F00401016000685D
:1040600001A900F00400009000981B20019003209B
:10407000029040F60000C4F2010000F07FFD41F222
:1040800014240820C2F20004C4F202000021C4E992
:10409000000104F1080080224FF480734FF4806522
:1040A00020266EC02046E16100F0A4FB002818BF66
:1040B000FFF7BCFC3C62676221E000BF41F21800E0
:1040C000C4F20200016841F480610160016801F4FA
:1040D000806100910099016841F00401016000686D
:1040E00001A900F0040000900098442001900320F2
:1040F000029040F60000C4F2010000F03FFD1220E3
:104100000021002200F0D0FE122000F0BBFE05B01E
:10411000F0BD00002DE9F04182B000270D460446B5
:10412000019700F041FE21688A68D20544D4064612
:104130004868C00503D4C86A10F4700F46D040F236
:10414000D000C2F20000076842F292480220C1F299
:10415000492801F08FFB216844F624130A69B7FB54
:10416000F0F0C2F292431A4206D1CA6844F6241310
:10417000C0F292031A4249D00A6912EA080F07D125
:10418000CA6842F29243C0F249031A4200F08480A6
:104190000A6949F24923C0F224031A424FF0FC0293
:1041A00042D1CF681F4208BF5422019B02FB00F797
:1041B000BB423ED379E000BFA06A40F02000A0627D
:1041C00084F82470012002B0BDE8F08108688007FF
:1041D0006BD4002D55D0681C12D10868800764D4B8
:1041E000086880075CBF08685FEA80705DD4086873
:1041F0008007F2D559E000BF21680868800754D4D1
:1042000000F0D2FD801BA842F6D93AE00A6912EA12
:10421000080F4FF0290207D1CB6842F29247C0F253
:1042200049073B4208BF1422019B02FB00F7BB4237
:104230003BD235B3681C1FD1019801300190019821
:10424000B84232D20198013001900198B8422CD284
:104250000198013001900198B84226D201980130AE
:1042600001900198B842E7D31FE000BF01980130E8
:1042700001900198B84217D200F096FD801BA84229
:10428000F4D9A06A40F00400A062002084F8240061
:10429000032002B0BDE8F0815422019B02FB00F72D
:1042A000BB42C6D301E000BF21686FF01200086076
:1042B000A06A40F40070A062886800F46020B0F545
:1042C000602F01D1207B18B1002002B0BDE8F08141
:1042D000A06A20F48070A062A06AC004F4D4A06A2E
:1042E00040F00100A062002002B0BDE8F0810000B3
:1042F000B0B582B0044690F82400012802D1022013
:1043000002B0B0BD012084F8240000200190206894
:104310008168C90742D1816841F00101816040F2A2
:10432000D000C2F2000000684DF68361C4F21B3178
:10433000A0FB0101880C01900198A0B101980138FF
:104340000190019878B1019801380190019850B11D
:10435000019801380190019828B101980138019025
:1043600001980028EAD100F01FFD05462068816809
:10437000C90713D100F018FD401B0228F6D9A06A26
:1043800040F01000A062E06A40F00100E06200200E
:1043900084F82400012002B0B0BD00BFA26A42F23E
:1043A000044140F20133C4F201019A4302F58073E3
:1043B00001F57F729042A3622AD0A36A23F480138E
:1043C000A36243685B0504D5A36A012565F30D3339
:1043D000A362A56A0023ED044FF0000544BFE56A1F
:1043E00025F00605E56284F824306FF002030360CF
:1043F000836803F46023B3F5602F19D1904213D082
:10440000816841F4A0018160002002B0B0BD00BF0E
:104410000B6813F4702FD0D0A36A43F48013A36207
:104420000B685B05D0D4D4E7096811F4702FE7D08E
:10443000816841F480118160002002B0B0BD0000AD
:10444000F0B581B00446036842F60000C4F20100F2
:10445000834205D042F20040C4F2010083420BD1F6
:1044600042F20440C4F20100006810F4702F03D03F
:10447000012001B0F0BD00BF94F82400012803D151
:10448000022001B0F0BD00BF012084F8240000200C
:10449000009098680E461546C00743D198684DF6BF
:1044A000836140F00100986040F2D000C2F2000049
:1044B0000068C4F21B31A0FB0101880C0090009839
:1044C000A8B100BF009801380090009878B100981A
:1044D00001380090009850B1009801380090009881
:1044E00028B100980138009000980028EAD100F027
:1044F0005BFC074623689868C00713D100F054FCA2
:10450000C01B0228F6D9A06A40F01000A062E06A41
:1045100040F00100E062002084F82400012001B096
:10452000F0BD00BF42F20440A16AC4F2010040F6AF
:104530000172914300F57F7201F580719342A1628F
:1045400046D0A06A20F48010A0625868400504D5C7
:10455000A06A012161F30D30A062A16A0020C904A4
:104560004FF0000144BFE16A21F00601E16284F8E6
:104570002400206A41F28D31C0F6000141F2F93287
:1045800041F2E13700F1280CC0F60002C0F6000746
:104590008CE886006FF0020119609968324641F498
:1045A0008071996003F14C012B4600F05DF92068A1
:1045B000816801F460228168B2F5602F0CBF41F47C
:1045C000A00141F480118160002001B0F0BD00BF66
:1045D000016811F4702FB4D0A16A41F48011A16276
:1045E00000684005B4D4B8E7B0B5044690F824009C
:1045F000012804BF0220B0BD0121206884F82410E6
:104600008168C90708D1214651F8280F41F20112EB
:1046100020EA0202002018E0816821F00101816097
:1046200000F0C2FB054600BF20688068C007EAD0E2
:1046300000F0BAFB401B0328F6D3A06A214640F0E5
:104640001000A06251F82C2F012042F001020A60F4
:10465000002184F82410B0BD10B5D0E90FCE016858
:10466000DCF800300A6823FA0EF35C072AD512F052
:10467000040427D00A68920603D40A6822F00402D0
:104680000A602F22C4F20202914240F20402C4F2F4
:10469000020259DD3023C4F20203994270D0442350
:1046A000C4F20203994271D05823C4F20203994222
:1046B00078D14FF480231360C16A002940F09780BD
:1046C0006EE000BF9C0727D512F0020424D00A68D0
:1046D000920606D40A6822F00A020A60012280F8D3
:1046E00021202F22C4F20202914240F20402C4F2BD
:1046F000020239DD3023C4F2020399425ED0442322
:10470000C4F2020399425DD05823C4F202039942D5
:104710005ED14FF4003363E01B0741D512F008026D
:1047200008BF10BD0A6822F00E020A60012101FADA
:104730000EF2CCF804208163016B4FF480720029E3
:10474000028454D12CE000BF0823C4F20203994232
:1047500022D01C23C4F20203994223D140231360C8
:10476000C16A002943D11BE00823C4F20203994225
:104770002CD01C23C4F20203994229D120232FE01C
:104780004FF480631360C16A89BB09E04FF4804332
:104790001360C16A59BB03E004231360C16A31BBD3
:1047A00010BD00BF02F168044FF08063A14208BF52
:1047B0004FF480031360C16AC9B9F1E74FF4007385
:1047C0000EE000BF4FF400530AE000BF022307E0F1
:1047D00002F168044FF00073A14208BF4FF40013C8
:1047E0001360816A0022002980F82020D8D0BDE81B
:1047F00010400847002804BF012070472DE9F04110
:1048000001684FF6F872CBF6FD724CF6CD430A44C0
:10481000CCF6CC43A2FB03236FF0030202EA93021F
:104820000023C4F2020300F1040E00F11007C0E9F6
:104830000F329EE80051F0CF0A6843F6F0739A43B6
:1048400042EA080242EA0C0242EA0E0222432A43EA
:1048500032433A430A6000214FF48072816302843C
:10486000BDE8F0410846704790F820C0BCF1010F48
:1048700004BF02207047F0B590F821C04FF0010E40
:10488000BCF1010F80F820E026D14FF0020C80F837
:1048900021C04FF0000CC0F838C0D0E900C4C56A90
:1048A000C66BDCF80070102C27F00107CCF8007004
:1048B000006C0EFA00F070600846CCF8043004BFBB
:1048C00010460A46CCF80800CCF80C20DCF80000B2
:1048D00045B140F00E000DE0002180F820100220CC
:1048E000F0BD00BF20F00400CCF80000DCF80000B0
:1048F00040F00A00CCF80000DCF8000040F00100B5
:10490000CCF800000020F0BDB0B5044600F04CFA31
:10491000054640F2AC00C2F200000078611C18BFEE
:10492000044400BF00F040FA401BA042FAD3B0BDDF
:104930002DE9F04381B041F26065C2F200052A7EA4
:10494000012A03D1022001B0BDE8F0830446012012
:10495000266828764CF250308846FFF76DF8022E14
:104960001CD100284ED1002042F21004E861C4F2AC
:104970000204206840F004002060206840F04000FD
:1049800020604CF25030FFF757F8216821F0040105
:1049900021600021297601B0BDE8F08390BB4FF083
:1049A000FF30C8F80000D4E9027007EB802087428E
:1049B00028D242F21006C4F202064FF0000900BFEE
:1049C000C5F81C90306840F00200306077603068B5
:1049D00040F0400030604CF25030FFF72DF8316865
:1049E00021F00201316098B9D4E9020107F580672E
:1049F00000EB81208742E3D300200021297601B01B
:104A0000BDE8F08301200021297601B0BDE8F083E4
:104A1000C8F800700021297601B0BDE8F0830000DD
:104A200042F21001C4F20201086840F08002002046
:104A30000A6070472DE9F04381B041F26067C2F22D
:104A4000000716463A7E012A04D1022001B0BDE8D3
:104A5000F08300BF0546012038764CF250300C46FA
:104A60009946FEF7E9FF28B10021397601B0BDE88B
:104A7000F08300BF42F210080020C4F20208F8617F
:104A8000D8F8000040F00100C8F800004CF25030A7
:104A90002680FEF7D1FFD8F80010002821F0010190
:104AA000C8F8001018BF0046DED1012DDCD0002070
:104AB000F861D8F80000310C40F00100C8F800009F
:104AC0004CF250306180FEF7B7FFD8F80010002894
:104AD00021F00101C8F80010C6D1E81E10F1030F43
:104AE0004FF00000C0D8F861D8F8000040F0010095
:104AF000C8F800004CF25030A4F80490FEF79CFF78
:104B0000D8F80010002821F00101C8F80010ABD13E
:104B10000020F861D8F800004FEA194140F0010088
:104B2000C8F800004CF25030E180FEF785FFD8F85D
:104B30000010002821F00101C8F8001018BF00463D
:104B40000021397601B0BDE8F083000042F2040094
:104B5000C4F20200C16809065CBF0020704740F241
:104B60002311C4F26751016048F6AB11CCF6EF5146
:104B70000160C068C0B2C009704700002DE9F04F65
:104B800082B00E68002E00F0FF8040F20C4C40F224
:104B9000004E41F20042C4F2010CC4F2010EC4F214
:104BA00001020427002401234FF0000A4FF00009FE
:104BB000904208BF0327009749E000BF41F200027E
:104BC000C4F20102009F904208BF022704F00C03C8
:104BD0000F229A402BEA020207FA03F34FEA9A05E2
:104BE0001A4346F825204E68F203DEF8002054BF31
:104BF00022EA080242EA0802CEF80020DEF8042089
:104C0000B30354BF22EA080242EA0802CEF80420A5
:104C1000F302DEF8082054BF22EA080242EA080242
:104C2000B302CEF80820DCF800204FF0010354BF97
:104C300022EA080242EA0802CCF800200E680AF1D3
:104C4000010A36FA0AF204F1040400F09D8003FA26
:104C50000AFB16EA0B08F1D04E684FF6FF72C1F25C
:104C60001002964212DC122E56D8DFE806F0350B01
:104C70004D49555555555555555555555555554508
:104C8000510000BFD1F80C9046E000BF4FF6FF7214
:104C9000C1F2210296420FDC0022C1F211029642BB
:104CA0001AD00022C1F21202964215D00022C1F29F
:104CB0002102964210D02FE00022C1F22202964239
:104CC0000AD00022C1F23102964205D00022C1F280
:104CD0003202964220D100BF8A684AB1012A14BF2D
:104CE000C0F814B0C0F810B04FF0080914E000BFCD
:104CF0004FF0040910E000BFCA6802F104090BE09C
:104D00004FF0000908E000BFCA6802F1080903E09B
:104D1000CA6802F10C0900BF02462646B8F5807F3A
:104D200024BF0432203E17680F25B54027EA050549
:104D300009FA06F635431560CA79D2067FF57EAFCB
:104D400041F21803C4F202031A68AEF57E7642F00F
:104D500001021A601A6802F001020192019A2AF017
:104D6000030256F802B040F60002C4F2010290427B
:104D700008D040F60042C4F2010290427FF41EAF18
:104D8000012723E7002721E702B0BDE8F08F0000EC
:104D90008068084018BF012070470000002A08BF43
:104DA000090401617047000041F28060C2F2000016
:104DB0000068704740F2AC0041F28061C2F200002E
:104DC000C2F2000100780A681044086070470000D1
:104DD00080B542F20000C4F20200016841F0100107
:104DE0000160032000F08CF8002000F005F800F0CE
:104DF00027F8002080BD000070B540F2AC06C2F27A
:104E0000000640F2D0013278C2F200014FF47A730A
:104E10000968B3FBF2F20446B1FBF2F1084601F077
:104E2000D3FA0F2C4FF0010508D838B94FF0FF30F6
:104E300021460022002500F037F87460284670BD36
:104E400082B041F21800C4F202000168022241F06F
:104E500001010160016801F00101019101994168BE
:104E600041F080514160406800F08050009000980F
:104E70000420C4F20100016862F31A61016002B00B
:104E800070470000002848BF704700F01F01012252
:104E900002FA01F11C2202EAD0004EF20012CEF218
:104EA000000281507047000010B54EF60C5CCEF247
:104EB000000CDCF80030C3F3022E8EF00704042C43
:104EC00028BF0424BEF103034FF0FF3E0EFA04F4A2
:104ED00038BF0023A14399400EFA03F39A431143CC
:104EE00000F00F0200F160430901043A03F5644346
:104EF0006244002848BF02F10C03197010BD000085
:104F00004EF60C51CEF200010A684FF6FF031A402C
:104F100060F30A2242F0806040F0FD700860704744
:104F200001F0070C00EB4C1C0CF1280C00EB4110BD
:104F3000090658BF00F5947C52B1ACF808301B0C40
:104F400001210A202CF8003000208CF80C1070474A
:104F5000002106202CF8003000208CF80C1070473F
:104F600070470000D0F8683200EB4110C26B184661
:104F700005F04CBAD0F8683200EB4110D0F83C2173
:104F8000184605F0A9BA000010B54FFA81FC4FF49D
:104F90009472BCF1000F48BF282201F007030244BD
:104FA0004FEAD11C02EB431181F801C090F828C2EE
:104FB0004FEA431EBCF1010F02F80E3004BF02207D
:104FC00010BD0268012380F828320446104605F01F
:104FD000C1FF002084F8280210BD0000B0B542686F
:104FE00001F00F03934284BF0120B0BD4AB24FF4D9
:104FF0009474002A48BF282401F00703021990F88E
:1050000028424FEAD11C02EB431181F801C04FEA5C
:10501000431C012C4FF000048C7002F80C3004BFCC
:105020000220B0BD0268012380F8283205461046F0
:1050300006F024F8204685F82842B0BD01F00701AB
:1050400000EB4110D0F844017047000010B54FFA52
:1050500081FCBCF1000F01F0070C0DD400EB4C1EDD
:1050600000240EF594718EF829418EF828C1CEF8EF
:1050700038218EF82B3109E000EB4C1101F828CFD4
:1050800001244C700A61CB70A1F80EC0022B04BF42
:1050900000220A7190F82822012A04BF022010BDC4
:1050A0000268012380F828320446104605F00CFE01
:1050B000002084F8280210BD10B501F0070C00EBA9
:1050C0004C1E00680EF594710024CEF83C21CEF8F9
:1050D0004031CEF844418EF829418EF828C106F0BF
:1050E00021F8002010BD0000B0B5426801F00704AF
:1050F00094424FF0010229D84BB24FF49475002B23
:1051000048BF28254FEAD11348BF214605444FEA3E
:10511000411C05EB41114B7090F828328A70012B2D
:1051200005F80C4004BF0220B0BD0268012305460B
:1051300080F82832104605F0DBFF24B9286805F511
:105140000C7105F099FF002285F828221046B0BDA9
:1051500080B501F0070C00EB4C1101F828CF01F1EC
:10516000140E00684FF0000C8EE80C1001224A70FB
:1051700005F0D8FF002080BD2DE9F04F83B0044634
:10518000006806F02DF901462068090405D5B0F93C
:105190004410B1F1FF3F40F3A98006F021F940052A
:1051A00019D52068B0F8441021F48061A0F84410AB
:1051B000204600F0FBFA94F8280201280BD00120C9
:1051C000002584F8280284F824502068002106F085
:1051D00067F984F82852206806F002F90146206831
:1051E000490405D5B0F8441021F48041A0F84410DA
:1051F00006F0F6F801462068890405D5B0F8441099
:1052000021F40051A0F8441006F0EAF801462068A5
:10521000C90411D406F0E4F8000527D4206806F08C
:10522000DFF8800548D4206806F0DAF8C00552D4CB
:1052300003B0BDE8F08F00BFB0F8401021F00401CA
:10524000A0F84010B0F8401021F00801A0F840107C
:10525000204600F0BDFA2068B0F8441021F48051D7
:10526000A0F8441006F0BCF80005D7D52068B0F8C7
:10527000401041F00801A0F84010B0F8441021F4AB
:105280000061A0F84410B0F8401041F00401A0F80B
:10529000401006F0A5F8C00406D52068B0F8441008
:1052A00021F48051A0F84410204600F0CFFA206885
:1052B00006F096F88005B6D52068B0F8441021F4C1
:1052C0000071A0F84410204600F086FA206806F02D
:1052D00087F8C005ACD52068B0F8441021F480717F
:1052E000A0F8441003B0BDE8F08F00BF04F594713E
:1052F000029104F1280504F50C7140F60F7A019132
:1053000014E000BF01F0070705EB4711C1E90532C2
:1053100000227E01CA6101224A70AF5505F002FFEA
:105320002068B0F9441000297FF537AFB0F8442069
:1053300012F00F080CD030F928B04FEA4809BBF141
:10534000FF3F35DD1FFA8BF00006E9D51CE100BFF9
:105350000188D20656D401EA0A0101F50041018014
:10536000B0F8501094F8282000EB410000EB021038
:10537000B0F80404E16B6FF39F2060640844E063BD
:1053800020460021FFF7EEFD94F824000028C7D046
:10539000206C0028C4D194F82400216840F08000DB
:1053A000C0B2A1F84C00002084F82400B8E700BF88
:1053B00030F8191040F60F7701EA0A01803120F821
:1053C0001910029901EB481A9AF80C10002977D0AD
:1053D0009AF8001030F82120B0F8503000EB01119D
:1053E000520401EB430100F18180B1F80C646FF3CA
:1053F0009F26002E00F08880DAF81410BAF80A20F0
:105400007DE000BF0A053DD409B2B1F1FF3F3FF78F
:1054100087AF018801EA0A0180310180B0F850109D
:1054200094F82821130100F20C4202EB4101CB5AFF
:105430006FF39F23C4F84431A3B1D4F83C1189B170
:10544000B4F82E2105F0D0FFD4F83C01D4F8441173
:105450000844C4F83C0120460021FFF78BFD20687A
:1054600000F20C42B0F85010D4F83831002B00F0A4
:10547000B1803E2B00F2BA8003F0010606EB530325
:105480009B02C0E0B0F8501094F8282100EB4101D5
:1054900001EB0211B1F80C34B4F82E2101996FF32D
:1054A0009F23C4F8443105F09FFF2068018801EA7A
:1054B0000A0180310180204600F0A8F930E700BFE2
:1054C000B0F850109AF8002000EB410101EB0211F6
:1054D000B1F80C646FF39F26002E79D0DAF814101F
:1054E000BAF80620334605F07FFF19E0B1F80464EE
:1054F0006FF39F2646B1DAF81410BAF80820334645
:1055000005F072FF01E000BF002620689AF8001045
:1055100048F2C00330F821203A401A4320F82120F5
:10552000DAF81C20DAE905103244CAF81C208A197E
:10553000CAF81420E0B1DAF810309AF80010B3423B
:1055400018D8029E01F0070306EB4311C1E90520BC
:105550000020C861487020685F01F35505F0E2FD46
:1055600040F60F7A1FFA8BF000067FF5D9AE0BE0FC
:105570009AF800102046FFF7FDFC40F60F7A1FFA5C
:105580008BF000067FF5CCAE20684FEA481230F869
:10559000191005EB481701EA0A0101F5004120F84E
:1055A0001910B0F85030A95C00EB430202EB011275
:1055B000B2F80434D7E905626FF39F23FB613344EB
:1055C000002A7B617FF49EAE2046FFF7CBFCA7E666
:1055D0000026A5E7535A48F2000723F4F843535234
:1055E000535ACFF6FF773B430DE000BF5E09DF065D
:1055F0004FF0FF3708BF07EB531648F20003CFF612
:10560000FF7343EA86235352018843F60F72114019
:1056100048F2C00202F53F525140018080E600008E
:10562000002804BF01207047F0B585B0064690F809
:10563000290228B9002086F82802304600F094F8A4
:10564000032086F82902306805F00CFD06F1140EDF
:1056500096E82F009EE81050376ACDE90054CDE956
:1056600002CE049705F074FC00286AD1306800214E
:10567000002505F013FF7168002952D006F12800BB
:105680004FF0010C0022002300EB4217520183541B
:10569000DAB20133FA81DAB2914287F801C0FD70C3
:1056A000C7E90455BD61EFD806F5947000220025C6
:1056B000002300BF00EB45176D01435543F0010582
:1056C000ECB2A1427A70FA70C7E90422BA6128D913
:1056D00000EB44176401055543F00205ECB2A1420A
:1056E0007A70FA70C7E90422BA611AD900EB44173C
:1056F0006401055543F00305ECB2A1427A70FA70DB
:10570000C7E90422BA610CD900EB441764010433E1
:105710000555DDB2A9427A70FA70C7E90422BA6170
:10572000C8D806F10807D6E9055430688CCFD6E909
:1057300007CECDE9007502AD85E8105005F07EFC7E
:1057400030B1022086F82902012005B0F0BD00BF6B
:10575000002086F82400012086F82902306805F030
:105760006BFC002005B0F0BD006845F60041C4F2B6
:105770000001884218BF704780B582B041F21C001A
:10578000C4F202000168002241F4000101600068D7
:10579000002100F40000019001981420FFF784FB21
:1057A000142002B0BDE88040FFF76CBB10B5044682
:1057B0008068022818BFFEF739F9D4F86802012181
:1057C00004F08AFFD4F86802BDE8104004F042BF3C
:1057D000D0F8680204F068BFD0F8680204F06EBF29
:1057E00090F82822012A04BF0220704710B5012238
:1057F00080F8282280F8241002680446104605F03C
:105800004FFE002084F8280210BD0000D0F8682266
:1058100000F50C71104604F075BF000090F82812D6
:10582000012904BF0220704710B5012180F8281219
:105830000446FFF795FB206805F0FCFB206805F0A7
:10584000BFFD002084F8280210BD000010B50446FA
:10585000D0F8680204F0A8FFA069002808BF10BDB6
:105860004EF61050CEF20000016841F006010160D2
:1058700010BD0000012821D002280DD0102808D129
:1058800041F20401C4F202010A6851F8040CC0019B
:1058900034D40020704700BF80B500F0C7F941F252
:1058A0000401C4F2020109680222C1F3813102EB52
:1058B0004101B0FBF1F0BDE88040704741F20400C7
:1058C000C4F20200C16940F202320A40B2F5817F9F
:1058D00004BF4FF40040704701F44071B1F5407FC0
:1058E00018D0B1F5007F1CBF00207047006A49F650
:1058F0004041800701EAE070704700BFC2F3834077
:1059000015A3185CD2030DD440F60012C0F23D027C
:10591000504313E050F8040C4FF22441800301EA95
:10592000E07070470A6810A3C2F340429A5C41F2EB
:105930000023C0F27A03B3FBF2F250430968490234
:1059400048BF70474AF6AB214000CAF6AA21A0FB27
:1059500001014808704700BF020304050607080953
:105960000A0B0C0D0E0F1010010200002DE9F04182
:1059700082B00446007841F21C06C007C4F2020659
:105980004AD030685FEAC00808D4306840F08050E0
:105990003060306800F080500190019847F20007B5
:1059A000C4F200073868C00512D4386840F480702B
:1059B0003860FFF7F9F905463868C00508D4FFF7E5
:1059C000F3F9401B6428F7D9032002B0BDE8F08149
:1059D000706810F4407012D0616801F44071884220
:1059E0000DD0706840F24042C4F24222012320F4FC
:1059F000407113600023C0071360716026D1706886
:105A0000616820F440700843B8F1000F706003D45F
:105A1000306820F0805030602068810707D556F844
:105A2000181CA26821F44041114346F8181CC00616
:105A300007D556F8180CE16820F48000084346F8B2
:105A4000180C002002B0BDE8F08100BFFFF7ACF9F0
:105A5000054641F2883700BF70688007CFD4FFF752
:105A6000A3F9401BB8424FF00300F5D9EAE7000064
:105A7000002804BF012070472DE9F04381B042F2B5
:105A80000008C4F202080446D8F800000D4600F0F1
:105A9000070081420CD9D8F8000020F00700284305
:105AA000C8F80000D8F8000000F00700A8426CD148
:105AB000206841F204098107C4F2020917D54107A1
:105AC00005D5D9F8001041F4E061C9F800100107CC
:105AD00005D5D9F8001041F46051C9F80010D9F883
