:020000040800F2
:1000000090080020CD010008FD3C0008D938000808
:10001000F93C0008A50D0008413D00080000000063
:10002000000000000000000000000000053D000886
:100030008D11000800000000013D0008093D000886
:10004000E7010008E7010008E7010008E7010008F0
:10005000E7010008E7010008E7010008E7010008E0
:10006000E7010008E7010008E70100088111000826
:10007000E7010008E7010008E7010008E7010008C0
:10008000E7010008E7010008DD0A0008E7010008B1
:10009000E7010008E7010008E7010008E7010008A0
:1000A000113D0008353D0008293D00081D3D0008B0
:1000B000E7010008E7010008E7010008E701000880
:1000C000E7010008E7010008E7010008E701000870
:1000D000E7010008E7010008E7010008E701000860
:1000E000E7010008E7010008E701000800F002F856
:1000F00000F05DF814A696E8000CB244B344DA456B
:1001000001D100F054F8BAE80F000FA696E83000CD
:10011000A5EB040504EB0607AAEB0704A7F101070A
:100120004FEA15154FEA3414A4F10104AC4201D38F
:1001300000F03DF813F0010F18BFFB1A43F0010364
:1001400000F001F8DBE71847E45500000456000012
:10015000103A24BF78C878C1FAD8520724BF30C8F3
:1001600030C144BF04680C60704700007047000055
:100170000023002400250026103A28BF78C1FBD8B0
:10018000520728BF30C148BF0B607047662905F091
:100190006A82002070471FB500F02AFB040000208F
:1001A000002104F0FDFCE0601FBD10B510BD00F0A3
:1001B0001FFC1146FFF7EFFF03F0C4FD00F03DFC0C
:1001C00003B4FFF7F2FF03BC00F080FC094880474E
:1001D00009480047FEE7FEE7FEE7FEE7FEE7FEE729
:1001E000FEE7FEE7FEE7FEE704480549054A064B41
:1001F000704700000D3D0008ED000008900200204F
:100200009008002090040020900400200FB41CB53A
:10021000074B06AA7B4469460090059800F0CFFA88
:100220000020694600F0DEFA1CBC5DF814FB0000FB
:10023000CD05000070B5044685690068C10601D58A
:10024000302600E02026C00707D070BDD4E9012188
:1002500030469047206A401C20626D1EF6D570BD66
:1002600070B5044685690078C00707D170BDD4E930
:10027000012120209047206A401C20626D1EF6D587
:1002800070BD2DE9F0474FF0000A89460446C0F8DA
:1002900020A02046E1688847002876D0252806D08F
:1002A000D4E901219047206A401C2062F1E7E1680F
:1002B000204600258847C4F81CA006460027C4F83D
:1002C00018A02A2E09D0304604F062FC38B304EBA3
:1002D0008708303EC8F8186019E059F8041B20461A
:1002E00004EB87029161E1688847012F064618D127
:1002F000E069002820DA25F020051DE0D8F8180074
:1003000000EB800006EB40003038C8F818002046AB
:10031000E1688847064604F03BFC0028EED1012F37
:100320000AD02E2E08D12046E16888477F1C064659
:10033000022F45F02005C4DBA069002803DA404203
:1003400045F00105A061E80701D025F01005B6B120
:10035000A6F14100192802D8203645F400654A4626
:100360003146204625604D46FFF710FF58B1012861
:1003700006D0ED1D25F0070000F1080989E704E02B
:1003800005F1040985E730468AE7206ABDE8F08771
:100390007047704770472DE9FF4F0C461E464FF0DF
:1003A000FF378BB0D2E90001DDF860800A908A4601
:1003B000C1F30A5505B93D46002108464FF000003B
:1003C000BAF1000F00F4400005DA00EB80004FF4B2
:1003D000400101EA50004FEA9059B9F1010F00DDE8
:1003E000B9460A9850EA4A000ED044F61050A5F2D9
:1003F000FF3545432F14B8F1000F1ED07542291E5A
:100400001EDDC9F100021CE0B8F1010F4FF0000041
:1004100001D0302103E0F24305E02154401CB042FA
:10042000FBDB30460022002121540B99C1F80880E3
:10043000C1E900200FB0BDE8F08FBD1B6D1CDEE7E9
:100440004A4600DA694206A800F05CFA06AB93E877
:10045000070003AB83E8070050460A9903F0BCFF8E
:100460008DE80700A0F500501F3800900398002D7C
:100470000ADD42F21F014A460844002303A9039003
:10048000684604F025FA09E0A0F500504A461F38F6
:10049000002303A90390684604F02FFA8DE80700B3
:1004A0000004000C03D04FF0FF30410800E010467C
:1004B000B8F1000F03D00022009215461EE0751E11
:1004C00005D400F099F9303262556D1EF9D5B34666
:1004D0000122084302D000227F1C04E0207830284B
:1004E00001D100227F1E002A099784D01DE0112D22
:1004F00007DA00F081F9303262556D1C50EA0102D2
:10050000F5D1084302D00098C8B10EE00021681E62
:1005100005E0235C625C63542254401E491C814206
:10052000F7DBAB46A81B401E0990002004F80B0027
:100530000B98099AC0F80880C0E9002B7AE71126C9
:100540004FF0000857E72DE9F04F88460446D21DCA
:1005500022F0070191B0D1E90001CDE90A0104F0D0
:1005600003FB02460B98C00F01D02D2007E0206846
:10057000810701D52B2002E0202101EAC000032AD7
:10058000099001D0072A05DB03464146204600F0CA
:1005900079F90BE12078800601D5E06900E00620BA
:1005A000B8F1650F814606D0B8F1660F18D0B8F1E2
:1005B000670F70D131E00020B9F1110F009001DB1D
:1005C000112301E009F101030AAA01A90CA8FFF710
:1005D000E2FEDDE90C70002609F10105834647E0E3
:1005E00001204B4600904FF000470AAA01A90CA831
:1005F000FFF7D1FEDDE90DB00C995D46002610B97C
:1006000009F101000D18B9EB050003D4C0F1FF3664
:1006100009F10105A5EB09002BE0B9F1010F01DAA1
:100620004FF001090020B9F1110F0090484601DD9B
:10063000112300E003460AAA01A90CA8FFF7ABFEAC
:10064000DDE90C704D4600268346207800070AD469
:10065000AB4500DA5D4601A8012D04DD411911F812
:10066000011C302907D04F4502DA17F1040F04DAD4
:10067000012082460FE06D1EEEE7002F02DCED1B2D
:100680003E4403E0781CA84200DD7D1CB81B00F14D
:10069000010A4FF000472078000703D4AA4501DB88
:1006A0004FF0FF3A0021B7F1004F0DF143088DF8EC
:1006B000431024D002202B23002F01DA7F422D2368
:1006C0000A21021EA0F1010000DC5FB197FBF1FCE2
:1006D00097FBF1F201FB1C7C17460CF1300C08F87B
:1006E00001CDEEE7A8F1010003702188090501D5CD
:1006F000452100E06521A0F1010800F8011C0998DE
:100700000FA9A1EB0807FF1D00B10120411901EB62
:10071000EA70A1693844081A401EA0612078C0061A
:1007200002D42046FFF786FD099828B1D4E90121BB
:100730009047206A401C20622078C00622D52046BF
:10074000FFF778FD1EE0002E04DBB34502DD01A8B3
:10075000805D00E03020D4E901219047206A401CF0
:100760002062761CAAF101005FEA000A0AD100F0BB
:100770003FF8C0680168405CD4E901219047206AD5
:10078000401C2062281EA5F10105DCDC07E0D4E94D
:10079000012118F8010B9047206A401C2062381E86
:1007A000A7F10107F3DC2046FFF75AFD032011B043
:1007B00041E6000001694A1C02610878704700B5F3
:1007C0008FB0CDE901310021059105497944CDE98A
:1007D000031011466846FFF754FD0FB000BD00003E
:1007E000E5FFFFFF0A6802F8010B0A60704700008E
:1007F000004870473000002030B5B0F10A0271F1B6
:1008000000034FEA900E4EEA817EB0EB0E0061EBE2
:1008100091014FEA101E4EEA017E10EB0E0041EBF3
:1008200011114FEA102E4EEA016E10EB0E0041EB53
:1008300011214FEA104E4EEA014E10EB0E0041EB33
:100840001141401841F100014FEAD00040EA4170E7
:100850004FEAD1014FEA810444EA907410EB80051D
:1008600044EB01046D1944EB0404521BA3414FF007
:10087000000348BF0A3200D530BD401C41F10001E1
:1008800030BD00002DE9F0411F46044603260168F3
:10089000072A01F4006004DB08B116A505E016A5DF
:1008A00003E008B115A500E015A521F010002060B7
:1008B000A069C01EA0610FB1401EA0612046FFF7D5
:1008C000B9FC4FB1D4E9012138469047206A401C59
:1008D0002062C01C206206E0206AFAE7D4E9012108
:1008E00015F8010B9047761EF8D22046FFF7B8FCAA
:1008F000BDE8F0814E414E006E616E00494E4600EB
:10090000696E66002DE9F047814616468AB0354883
:1009100078440DC88DE80D0032487844801C03AC43
:100920000DC884E80D0041F69B300844372190FB48
:10093000F1F290FBF1F5A5F1800501FB12041B3CDF
:1009400002D56442012000E00020DFF898A0804634
:100950000027FA44AAF1BE0A0EE0E0070AD03246A8
:10096000684607EB470101230AEB810103F0C5FF4D
:100970008DE8070064107F1C002CEED1194F7F44D6
:10098000AE3F19E0E80715D007EB04100DF1180A87
:1009900090E80E008AE80E00C068F04201D1981974
:1009A00008903246012306A903A803F0A6FF03AB73
:1009B00083E807006D10641C002DE3D14FF00103A4
:1009C00032466946B8F1000F03A802D003F080FF59
:1009D00001E003F092FFC9E90001C9F808200AB05C
:1009E000BDE8F087D44D000000487047100000209B
:1009F0007546FFF7F9FFAE4605006946534620F0FD
:100A00000700854618B020B5FFF7EEFBBDE8204093
:100A10004FF000064FF000074FF000084FF0000BBA
:100A2000AC46ACE8C009ACE8C009ACE8C009ACE829
:100A3000C00921F007018D46704710B50446AFF399
:100A400000802046BDE81040FFF7BABB4FF0013CE4
:100A500050F8042B51F8043B9A4221D1A2EB0C032D
:100A6000934313EACC1317D150F8042B51F8043BED
:100A70009A4215D1A2EB0C03934313EACC130BD18A
:100A800050F8042B51F8043B9A4209D1A2EB0C0315
:100A9000934313EACC13DBD04FF00000704700BF44
:100AA000D01A01BAB1FA81F101F0180122FA01F06D
:100AB000CB40DBB2C0B2C01AC1F120012CFA01F365
:100AC000D11A914311EAC311E6D1704701491820A8
:100AD000ABBEFEE7260002007047000080B540F282
:100AE000E800C2F2000000F015FC40F2B800C2F2CB
:100AF0000000BDE8804000F00DBC00000146406AE7
:100B0000826A12F0500F03D0006A026B0846104749
:100B10000168826A42F400728262896801F460218D
:100B2000B1F5602F01D1017B11B100F0D9BB00BF3D
:100B3000816A21F480718162816AC90448BF00F032
:100B4000CFBB816A41F00101816200F0C9BB0000A6
:100B5000406A816A41F040018162C16A41F004014A
:100B6000C16200F0D1BB0000406A00F0CBBB0000C6
:100B7000B0B582B004460020019021688A68D2078F
:100B80004BD1886840F00100886040F20800C2F252
:100B9000000000684DF68361C4F21B31A0FB010127
:100BA000880C01900198A0B101980138019001983A
:100BB00078B1019801380190019850B1019801383D
:100BC0000190019828B101980138019001980028FE
:100BD000EAD101F06FFA21688968C9071CD105467E
:100BE00003E000BF8068C00716D101F063FA411B23
:100BF00020680329F6D38168C907F3D1A06A40F0C1
:100C00001000A062E06A40F00100E062002084F879
:100C10002400012002B0B0BD002002B0B0BD000031
:100C20002DE9F04F85B040F27008C2F200080020B4
:100C300008F1480402900125072602A920460395E1
:100C4000049600F0ADFA204600F048FE20460A2146
:100C500000F00CFD204600F059FBA8F8020002A9A4
:100C60002046CDE90255049600F09AFA204600F09D
:100C700035FE20460A2100F0F9FC204600F046FB34
:100C8000A8F80400032002A961C102A9204600F0CF
:100C900087FA204600F022FE20460A2100F0E6FCFA
:100CA000204600F033FB01460190B8F80200A8F896
:100CB000061004F083FB43F23339C4F2530949466A
:100CC00004F090FB4FF2000AC4F27F5A514604F040
:100CD00097FA0024C4F25014214604F083FB04F078
:100CE00001FA40F2000BC4F22A0B00225B4604F02A
:100CF000FBF849F69A1549F69916C9F69915C4F202
:100D000032062A46334603F093FF03F05FFF07469F
:100D1000B8F80400C8F80C7004F050FB494604F021
:100D200061FB514604F06CFA214604F05BFB04F0D1
:100D3000D9F900225B4604F0D7F82A46334603F07F
:100D400077FF03F043FF43F23339C3F633790446A8
:100D5000C8F810003846494604F044FB49F69A1595
:100D60000646D8E90807C3F69965294604F03AFB18
:100D7000314604F0E3F9C8F820002046494604F063
:100D800031FB04463846294604F02CFB214604F08A
:100D9000D5F9C8F824000198A8F8000005B0BDE80E
:100DA000F08F0000FEE700002DE9F04182B004461C
:100DB00008982160A07140F60640C2F61400C4F8FD
:100DC00007000820E07232202271637101F050F8B0
:100DD000E07A3825002808BF30252E1D012038274D
:100DE0008DF8046001F044F801208DF805508DF86D
:100DF000066001F03DF8206821794FF47A7801AA65
:100E000004238DF80750CDF8008001F00BFAE07A4A
:100E10003826002808BF3026351D01208DF80450E3
:100E200001F026F801208DF805608DF8065001F0DC
:100E30001FF82068217901AA04238DF80760CDF8F6
:100E4000008001F0EFF9052001F012F8E07A282582
:100E5000002808BF302707F1040008BF20258DF8BF
:100E600004000120282601F003F8281D8DF8060053
:100E700001208DF8057000F0FBFF2068217901AAA0
:100E800004238DF80750CDF8008001F0CBF9052040
:100E900000F0EEFFE07A2825002818BF012008BFE7
:100EA0002025C700281D8DF80400012000F0E0FF78
:100EB000381D8DF8060001208DF8055000F0D8FF90
:100EC0002068217901AA04238DF80770CDF80080ED
:100ED00001F0A8F9052000F0CBFFE079E27A0101EA
:100EE00020F00F0501F10807002A14BF083507019B
:100EF000281D8DF80400012000F0BAFF381D8DF880
:100F0000060001208DF8055000F0B2FF206821791D
:100F100001AA04238DF80770CDF8008001F082F952
:100F2000207AE27A010120F00F0501F10807002A7A
:100F300014BF08350701281D8DF80400012000F0BA
:100F400097FF381D8DF8060001208DF8055000F040
:100F50008FFF2068217901AA04238DF80770CDF84E
:100F6000008001F05FF9607AE27A010120F00F055C
:100F700001F10807002A14BF08350701281D8DF864
:100F80000400012000F074FF381D8DF806000120D8
:100F90008DF8055000F06CFF2068217901AA042328
:100FA0008DF80770CDF8008001F03CF9A07AE27A64
:100FB000010120F00F0501F10807002A14BF0835D0
:100FC0000701281D8DF80400012000F051FF381D95
:100FD0008DF8060001208DF8055000F049FF2068CB
:100FE000217901AA04238DF80770CDF8008001F063
:100FF00019F9E07A1827002818BF01204FEAC00528
:1010000005F1040008BF10278DF80400012000F04E
:101010002FFF381D8DF8060001208DF8055000F0D7
:1010200027FF2068217901AA04238DF80770CDF8E5
:10103000008001F0F7F8E07A00280CBF202601209C
:10104000C500281D8DF80400012000F011FF301D9F
:101050008DF8060001208DF8055000F009FF20688A
:10106000217901AA04238DF80760CDF8008001F0F2
:10107000D9F802B0BDE8F08170B582B0044640797D
:10108000A379814228BF411E9A4228BF5A1ED0B27E
:10109000032809D8DFE800F009020406403104E023
:1010A000143102E0543100E000210A01E37A01F03A
:1010B000700002F108056FF07702002B08BF6FF097
:1010C0007F0202EB000606F1040008BF0D018DF857
:1010D0000400012000F0CCFE281D8DF80600012040
:1010E0008DF8056000F0C4FE206821794FF47A760F
:1010F00001AA04238DF80750009601F093F802B07E
:1011000070BD00000A78002A08BF70472DE9F0473B
:1011100082B082464E1E4FF47A780DF1040900BF6A
:1011200011019AF80B3022F00F0001F10807002B93
:1011300014BF08301701451C05308DF8040001204C
:101140007C1C00F095FE781D8DF8060001208DF8BE
:10115000055000F08DFEDAF800009AF804104A46B7
:1011600004238DF80740CDF8008001F05BF8B278D9
:101170000136002AD4D102B0BDE8F0477047000024
:1011800040F26010C2F2000000F010BD7047000095
:10119000EFF3108072B600BFFEE70000704700005A
:1011A00070B581B00022009290F82420012A03D16A
:1011B0000221084601B070BD4A680123062A02EBED
:1011C000820E80F8243007D8D0F800C06FF00403F6
:1011D0000CF134060CE000BFD0F800C00C2A87BF29
:1011E0000CF12C066FF040030CF130066FF0220377
:1011F0000EEB03021F23346803FA02F50B6824EA9E
:10120000050503FA02F22A433260092B03EB43027D
:101210001AD9DCF80C601E3A072589689540AE4360
:10122000914023F001023143102ACCF80C1015D163
:1012300042F20041C4F201018C4517D0816A41F0AD
:101240002001816201210AE0DCF81030072689685C
:101250009640B34391401943CCF81010002100226E
:1012600080F82420084601B070BD00BF89680902DB
:10127000F4D4DCF80810102B41F40001CCF808106D
:10128000ECD140F20801C2F2000109684DF6836218
:10129000C4F21B32A1FB0212910C01EB8101490047
:1012A000009100990029D9D0009901390091009945
:1012B0000029D3D000990139009100990029CDD09F
:1012C00000990139009100990029C7D0009901398E
:1012D0000091009900294FF00001E5D1BFE700001F
:1012E000006842F20041C4F20101884218BF704711
:1012F00041F20C00C4F20100016881F40051016068
:101300007047000070470000704700000068C06C24
:101310007047000070B50446006805684668B1066D
:1013200027D515F0020124D0A16AC90603D4A16A09
:1013300041F40071A162816801F46021B1F5602F70
:1013400010D1217B71B9416821F020014160A06A70
:1013500020F48070A062A06AC00403D4A06A40F0A8
:101360000100A0622046FFF7BBFF20686FF012016A
:101370000160310633D515F0040130D0A16AC906E9
:1013800003D4A16A41F40051A162816801F4E041F3
:10139000B1F5E04F10D1416821F080014160A06AB1
:1013A00020F48050A062A06AC00511D4A06A40F069
:1013B0000100A0620CE000BF4168490508D48168C3
:1013C00001F46021B1F5602F02D1217B0029E2D028
:1013D0002046FFF7E3FE20686FF00C010160700605
:1013E0000ED515F0010008BF70BDA06A40F4803032
:1013F000A062204600F0B2F820686FF001010160A1
:1014000070BD0000002804BF01207047B0B504463D
:10141000806A28B121688868C0070CD115E000BF38
:101420000020E06284F82400204600F099F821684A
:101430008868C00709D0886820F00100886000F043
:1014400039FE21688A68D20726D1A06AC0063AD43C
:10145000A06A41F2021290430230A062E069D4E92E
:10146000013240EA030C531EB3FA83F35D091346BD
:10147000B2F5807F18BF2B02207D257B01284CEA26
:1014800045002CD135B3A56A45F02005A562E56A73
:1014900045F00105E56222E0054602E08868C007E4
:1014A000D3D000F007FE401B21680328F6D38868DC
:1014B000C007F3D0A06A40F01000A062E06A40F0DC
:1014C0000100E062A06AA06A40F01000A062012062
:1014D000B0BD00BFA56903EB4533A3F5C0534D680C
:1014E000B2F5807F25F4694543EA05034B608B68BC
:1014F0004FF2FD75CFF6E17503EA050343EA0003F9
:101500008B6001D0012A07D122690023CFF6F07346
:1015100003EB025201E000BF0022CB6A23F4700308
:101520001A43CA62896840F6FE62CFF61F72114004
:10153000814207D10020E062A16A012262F3010129
:10154000A162B0BDA06A40F0100020F00200A062CD
:10155000E06A40F00100E0620120B0BD7047000089
:101560002DE9F04186B0016842F60002C4F20102A2
:1015700091424FF00002CDE90422CDE9022249D088
:1015800042F20042C4F2010291426CD1804641F223
:101590001800C4F20200016841F4007101600168A2
:1015A00001F4007101910199016841F004010160A9
:1015B000006802A900F00400019001980420029044
:1015C0000320039040F60000C4F2010000F064FC28
:1015D00040F260140820C2F20004C4F202000021AC
:1015E000C4E9000104F1080080224FF480734FF435
:1015F000806520264FF40057EEC0204600F0A6FB81
:10160000002818BFFFF7C4FDC8F82040C4F82480A4
:1016100021E000BF41F21800C4F20200016841F469
:1016200080610160016801F48061019101990168A4
:1016300041F004010160006802A900F0040001907B
:1016400001980B2002900320039040F60000C4F2A2
:10165000010000F021FC12200021002200F080FF98
:10166000122000F06BFF06B0BDE8F0812DE9F041DB
:1016700082B000270D460446019700F01BFD21684B
:101680008A68D20544D406464868C00503D4C86AAF
:1016900010F4700F46D040F20800C2F20000076854
:1016A00042F292480220C1F2492800F095FF2168D9
:1016B00044F624130A69B7FBF0F0C2F292431A42CF
:1016C00006D1CA6844F62413C0F292031A425BD0D2
:1016D0000A6912EA080F07D1CA6842F29243C0F2BF
:1016E00049031A4200F0C0800A6949F24923C0F256
:1016F00024031A424FF0FC0254D1CF681F4208BFA6
:101700005422019B02FB00F7BB4250D3C3E000BF51
:10171000A06A40F02000A06284F82470012002B08A
:10172000BDE8F0810868800700F1B580681C00F012
:10173000A880FDB90868800770D50868800700F1A7
:10174000AA800868800769D50868800700F1A3802F
:101750000868800762D50868800700F19C800868E7
:1017600080075BD508688007E4D594E008688007A7
:1017700000F1918000F09EFC801B2168A842F5D901
:1017800008688007F2D449E00A6912EA080F4FF0AE
:10179000290207D1CB6842F29247C0F249073B4287
:1017A00008BF1422019B02FB00F7BB4273D2681CE6
:1017B00052D05DBB0198B84230D3019801300190FE
:1017C0000198B84267D20198B84227D301980130F6
:1017D00001900198B8425ED20198B8421ED3019898
:1017E000013001900198B84255D20198B84215D302
:1017F0000198013001900198B842DBD34BE000BF63
:101800000198013001900198B84235D200F052FCA5
:10181000801BA842F4D90198B842F1D2A06A40F0E6
:101820000400A062002084F82400032002B0BDE878
:10183000F08100BF0198013001900198B8422AD28E
:101840000198013001900198B84224D201980130EA
:1018500001900198B8421ED2019801300190019880
:10186000B842E7D317E000BF5422019B02FB00F708
:10187000BB429CD30FE000BF21680CE008688007E2
:1018800009D40868800706D4086880075CBF086828
:101890005FEA8070F2D56FF012000860A06A40F431
:1018A0000070A062886800F46020B0F5602F01D15C
:1018B000207B18B1002002B0BDE8F081A06A20F4BE
:1018C0008070A062A06AC004F4D4A06A40F0010055
:1018D000A062002002B0BDE8F081000010B504460F
:1018E00090F82400012804BF022010BD012084F8D4
:1018F00024002046FFF73CF920B1002084F82400A2
:10190000012010BD42F2044C2068A16AC4F2010C0F
:1019100040F2013291430CF57F7201F580719042E3
:10192000A16229D0A16A21F48011A1624168490510
:1019300004D5A16A012363F30D31A162A16A0023DA
:10194000C9044FF0000144BFE16A21F00601E162E1
:101950006FF0020184F824300160816801F4602195
:10196000B1F5602F1BD1904214D0816841F4A001E1
:101970008160002010BD00BFDCF8001011F4702F52
:10198000D0D0A16A41F48011A162DCF800104905B1
:10199000CFD4D3E7DCF8001011F4702FE5D08168C4
:1019A00041F480118160002010BD0000F0B581B0CD
:1019B000036842F60006C4F20106B34205D042F2C3
:1019C0000046C4F20106B3420AD142F20443C4F213
:1019D00001031B6813F4702F02D0012001B0F0BD89
:1019E00090F82430012B03D1022001B0F0BD00BFDC
:1019F0000D460121174680F824100646FFF7B8F877
:101A000030B1002086F82400012001B0F0BD00BFF5
:101A100042F204403168B36AC4F20100324640F633
:101A20000176B34300F57F7603F58073B14293628C
:101A300044D0906A20F4801090624868400504D534
:101A4000906A012363F30D309062936A0020DB04F7
:101A50004FF0000344BFD36A23F00603D36282F839
:101A60002400106A40F6FD2340F66936C0F60003F4
:101A7000C0F6000640F65134C0F60004C0E90A364C
:101A80006FF0020304630B608B68144643F48073A9
:101A90008B604C312A463B4600F09AF920688168F9
:101AA00001F460228168B2F5602F0CBF41F4A001FF
:101AB00041F480118160002001B0F0BD036813F48F
:101AC000702FB6D0936A43F4801393620068400588
:101AD000B6D4BAE710B5044690F82400012804BF34
:101AE000022010BD012084F824002046FFF740F8B2
:101AF00020B1002084F82400012010BD42F2044CE3
:101B00002068A16AC4F2010C40F6017291430CF501
:101B10007F7201F580719042A1622DD0A16A21F4FB
:101B20008011A1624168490504D5A16A012363F3CC
:101B30000D31A162A16A0023C9044FF0000144BF26
:101B4000E16A21F00601E1626FF0020184F82430BD
:101B50000160416841F020014160816801F4602129
:101B6000B1F5602F1BD1904214D0816841F4A001DF
:101B70008160002010BD00BFDCF8001011F4702F50
:101B8000CCD0A16A41F48011A162DCF800104905B3
:101B9000CBD4CFE7DCF8001011F4702FE5D08168CA
:101BA00041F480118160002010BD000010B5D0E923
:101BB0000FCE0168DCF800300A6823FA0EF35C07E8
:101BC0002AD512F0040427D00A68920603D40A68C2
:101BD00022F004020A602F22C4F20202914240F273
:101BE0000402C4F202025BDD3023C4F20203994214
:101BF00072D04423C4F20203994273D05823C4F232
:101C00000203994240F07A804FF480231360C16A46
:101C1000002940F098806FE09C0727D512F002045D
:101C200024D00A68920606D40A6822F00A020A60E2
:101C3000012280F821202F22C4F20202914240F2B8
:101C40000402C4F202023BDD3023C4F202039942D3
:101C500060D04423C4F2020399425FD05823C4F2F7
:101C60000203994260D14FF4003365E01B0743D56E
:101C700012F0080208BF10BD0A6822F00E020A60C6
:101C8000012101FA0EF2CCF80420816380F82110C2
:101C9000016B0022002980F8202054D12CE000BFE5
:101CA0000823C4F20203994222D01C23C4F2020387
:101CB000994223D140231360C16A002943D11BE01C
:101CC0000823C4F2020399422CD01C23C4F202035D
:101CD000994229D120232FE04FF480631360C16A19
:101CE00089BB09E04FF480431360C16A59BB03E02C
:101CF00004231360C16A31BB10BD00BF02F1680448
:101D00004FF08063A14208BF4FF480031360C16AA3
:101D1000C9B9F1E74FF400730EE000BF4FF4005370
:101D20000AE000BF022307E002F168044FF00073ED
:101D3000A14208BF4FF400131360816A00220029FA
:101D400080F82020D8D0BDE8104008470146002880
:101D50004FF0010008BF70472DE9F043D1F800C0F3
:101D60004FF6F873CBF6FD734CF6CD426344CCF6D8
:101D7000CC42A3FB02236FF0030202EA930200238A
:101D8000C4F2020301F10C08C1E90F320222D1E9C9
:101D9000019E98E8F00181F82120DCF8002043F64C
:101DA000F0739A4342EA090242EA0E0222432A43AE
:101DB00032433A4342EA0802CCF8002000228A6308
:101DC00081F8210081F820200020BDE8F043704711
:101DD00090F820C0BCF1010F04BF02207047F0B59D
:101DE0004FF0010E80F820E090F821C0BCF1010F07
:101DF00026D14FF0020C80F821C04FF0000CC0F843
:101E000038C0D0E900C4C56AC66BDCF80070102C7D
:101E100027F00107CCF80070006C0EFA00F070603B
:101E20000846CCF8043004BF10460A46CCF8080037
:101E3000CCF80C20DCF8000045B140F00E000DE0BD
:101E4000002180F820100220F0BD00BF20F0040027
:101E5000CCF80000DCF8000040F00A00CCF80000EC
:101E6000DCF8000040F00100CCF800000020F0BDDC
:101E7000B0B5044600F01EF9054640F20000C2F27B
:101E800000000078611C18BF044400BF00F012F984
:101E9000401BA042FAD3B0BD2DE9F04F82B00E68CE
:101EA000002E00F0FD8041F20042C4F20102042342
:101EB00040F2004E904208BF03234FF6FF7CC4F26D
:101EC000010E009300240123C1F2100C4FF0000A10
:101ED0004FF000094BE000BF41F20002C4F20102E2
:101EE000009F904208BF022704F00C030F229A4083
:101EF0002BEA020207FA03F34FEA9A051A4346F85F
:101F000025204E6840F20C45F202DEF8082054BF4E
:101F100022EA080242EA0802C4F20105CEF80820CB
:101F20002A68B30254BF22EA080242EA08022A6081
:101F3000B303DEF8042054BF22EA080242EA080292
:101F4000F303CEF80420DEF800204FF0010354BF65
:101F500022EA080242EA0802CEF800200E680AF1DE
:101F6000010A36FA0AF204F1040400F0998003FA37
:101F70000AFB16EA0B08F1D04E68664512DC122EF9
:101F800056D8DFE806F0350B4D4955555555555592
:101F90005555555555555545510000BFD1F80C9034
:101FA00046E000BF4FF6FF72C1F2210296420FDCFD
:101FB0000022C1F2110296421AD00022C1F212028E
:101FC000964215D00022C1F22102964210D02FE095
:101FD0000022C1F2220296420AD00022C1F231024E
:101FE000964205D00022C1F23202964220D100BFB3
:101FF0008A684AB1012A14BFC0F814B0C0F810B002
:102000004FF0080914E000BF4FF0040910E000BFD2
:10201000CA6802F104090BE04FF0000908E000BFB4
:10202000CA6802F1080903E0CA6802F10C0900BF9E
:1020300002462646B8F5807F24BF0432203E17684A
:102040000F25B54027EA050509FA06F63543156060
:10205000CA79D2067FF582AF41F21803C4F20203B7
:102060001A68AEF57E7642F001021A601A6802F034
:1020700001020192019A2AF0030256F802B040F6DA
:102080000002C4F20102904208D040F60042C4F2BD
:10209000010290427FF420AF012725E7002723E7C4
:1020A00002B0BDE8F08F0000002A08BF09040161FA
:1020B0007047000040F28820C2F2000000687047BC
:1020C000002804BF01207047F0B581B0044690F8A5
:1020D0003D0028B9002084F83C00204600F090F92B
:1020E000242084F83D002068016821F0010101608E
:1020F000016841F400410160016821F40041016080
:1021000000F046FC636848F2A16CC0F2010C40F696
:102110000011C0F23D0163453CBF48F28041C0F26E
:102120001E01884202D2012001B0F0BD4DF683614C
:10213000C4F21B31A0FB01122168970CD1F804E016
:102140004FF496762EF03F0545EA92454D60774371
:1021500048F638160D6AC0F24106A7FB067625F050
:102160003F07634538BF960C721C3A430A62CA693E
:1021700048F2A0664CF6FF77C0F20106B34222EAAD
:1021800007020BD801385B00B0FBF3F001306FF3AE
:102190001F30042898BF04201BE000BFA768013847
:1021A00057B119277B43B0FBF3F001306FF31F30B9
:1021B00070B100F5804007E003EB4303B0FBF3F0A0
:1021C00001306FF31F3018B100F5004001E000BF8F
:1021D00001201043C8610868D4E9072320F0C0003B
:1021E000104318430860886848F2FF3204F10C0776
:1021F00090438CCF18431043A6698860C86820F0CC
:10220000FF0038433043C860086840F001000860B0
:1022100000202021206484F83D10206384F83E00D3
:1022200001B0F0BD2DE9F04383B01E461746894644
:102230000446FFF73FFF94F83D10202924D10546BE
:10224000206800BF816989071AD5FFF733FF411B5A
:1022500020681A29F6D381698907F3D50020202147
:10226000206384F83D1084F83E00216C41F0200189
:10227000216484F83C00022003B0BDE8F08300BF75
:1022800094F83C10012903D1022003B0BDE8F0838B
:10229000012184F83C100168C90703D1016841F0AD
:1022A00001010160016840F2020821F4006101604F
:1022B000212184F83D10102184F83E100021216472
:1022C00067626685618DC0F201082185A8F102115F
:1022D000E162E16A0A9E11F5803F18BF01291DD114
:1022E000016841F48071016020464FF00111002225
:1022F0003346009501F050FB50B120680068C005DE
:1023000044BF4FF400702064012003B0BDE8F083A7
:102310002069B0F5804F07D1FE2015E00829DFD0F5
:10232000216B1229DCD0DFE7062000EAD9102168F2
:10233000F030086108F10601204632462B4601F0D4
:1023400011FC0028E0D1FF20216800EA09000861A3
:102350002046414632462B4601F004FC0028D3D1EA
:1023600000200290206841690291806902900298E1
:1023700006E000BF204631462A4601F0AFFA18BBFE
:10238000208D68B3204631462A4601F057FCD8B963
:10239000606A2168024612F8013B0B616262628D3D
:1023A000013A6285228D531E23854F697F07E1D54F
:1023B0001B04DFD0437802300B616062608D01380E
:1023C0006085901E2085D5E7206C04289CD120686C
:1023D000016841F400710160012003B0BDE8F083A1
:1023E0002068016841F400710160202084F83D00FC
:1023F000002084F83E0084F83C0003B0BDE8F08380
:1024000010B586B0016845F20040C4F20000814278
:102410004FF00001CDE90411CDE9021102D006B060
:1024200010BD00BF41F21804C4F20204216800F597
:10243000384041F008012160216801F00801019154
:102440000199C0210291122103910321059102A952
:10245000FFF722FD606840F400106060606800F4DF
:1024600000100190019806B010BD000040F200007D
:1024700040F28821C2F20000C2F2000100780A682E
:10248000104408607047000080B542F20000C4F2BA
:102490000200016841F010010160032000F08CF897
:1024A0000F2000F005F800F027F8002080BD0000A4
:1024B00070B540F20006C2F2000640F20801327820
:1024C000C2F200014FF47A730968B3FBF2F20446DA
:1024D000B1FBF2F1084600F083FC0F2C4FF0010530
:1024E00008D838B94FF0FF3021460022002500F00F
:1024F00037F87460284670BD82B041F21800C4F20B
:1025000002000168022241F001010160016801F04E
:10251000010101910199416841F080514160406899
:1025200000F08050009000980420C4F2010001687F
:1025300062F31A61016002B070470000002848BFD2
:10254000704700F01F01012202FA01F11C2202EA89
:10255000D0004EF20012CEF200028150704700000F
:1025600010B54EF60C5CCEF2000CDCF80030C3F374
:10257000022E8EF00704042C28BF0424BEF10303AE
:102580004FF0FF3E0EFA04F438BF0023A1439940F8
:102590000EFA03F39A43114300F00F0200F1604377
:1025A0000901043A03F564436244002848BF02F17C
:1025B0000C03197010BD00004EF60C51CEF2000154
:1025C0000A684FF6FF031A4060F30A2242F0806067
:1025D00040F0FD7008607047012821D002280DD01E
:1025E000102808D141F20401C4F202010A6851F82E
:1025F000040CC00134D40020704700BF80B500F047
:10260000DBF941F20401C4F2020109680222C1F3BC
:10261000813102EB4101B0FBF1F0BDE88040704731
:1026200041F20400C4F20200C16940F202320A40E1
:10263000B2F5817F04BF4FF40040704701F4407150
:10264000B1F5407F18D0B1F5007F1CBF0020704766
:10265000006A49F64041800701EAE070704700BF18
:10266000C2F3834015A3185CD2030DD440F60012C8
:10267000C0F23D02504313E050F8040C4FF22441E5
:10268000800301EAE07070470A6810A3C2F3404279
:102690009A5C41F20023C0F27A03B3FBF2F250439A
:1026A0000968490248BF70474AF6AB214000CAF6A4
:1026B000AA21A0FB01014808704700BF02030405DE
:1026C000060708090A0B0C0D0E0F1010010200007E
:1026D0002DE9F04182B00446007841F21C06C007A3
:1026E000C4F202064AD030685FEAC00808D43068F5
:1026F00040F080503060306800F0805001900198C8
:1027000047F20007C4F200073868C00512D43868E1
:1027100040F480703860FFF7CDFC05463868C0058E
:1027200008D4FFF7C7FC401B6428F7D9032002B088
:10273000BDE8F081706810F4407012D0616801F457
:10274000407188420DD0706840F24042C4F242228B
:10275000012320F4407113600023C00713607160EF
:1027600026D17068616820F440700843B8F1000F0A
:10277000706003D4306820F080503060206881079A
:1027800007D556F8181CA26821F44041114346F8B9
:10279000181CC00607D556F8180CE16820F4800014
:1027A000084346F8180C002002B0BDE8F08100BFD5
:1027B000FFF780FC054641F2883700BF706880074C
:1027C000CFD4FFF777FC401BB8424FF00300F5D998
:1027D000EAE70000002804BF012070472DE9F0431C
:1027E00081B042F20008C4F202080446D8F80000A2
:1027F0000D4600F0070081420CD9D8F8000020F007
:1028000007002843C8F80000D8F8000000F00700CF
:10281000A8426CD1206841F204098107C4F2020980
:1028200017D5410705D5D9F8001041F4E061C9F882
:102830000010010705D5D9F8001041F46051C9F81E
:102840000010D9F80010A26821F0F0011143C9F876
:102850000010C00742D1D8F8000000F00700854200
:102860000CD2D8F8000020F007002843C8F8000078
:10287000D8F8000000F00700A84238D120684107CE
:1028800007D5D9F80010E26821F4E0611143C9F8D6
:102890000010000708D5D9F80000216920F4605025
:1028A00040EAC100C9F80000D9F8002002F00C008D
:1028B000082841F20020C0F27A004DD145F21A7387
:1028C000C2F38341C0F60003595CD20338D440F60A
:1028D0000010C0F23D0048433EE000BF606859F878
:1028E000041C022808D0012826D1890306D401201F
:1028F00001B0BDE8F08300BF8901F8D5D9F8001018
:1029000021F003010843C9F80000FFF7D3FB064696
:1029100041F28837D9F80000616800F00C00B0EB94
:10292000810F98D0FFF7C6FB801BB842F2D9032075
:1029300001B0BDE8F08300BF8907D8D5DEE700BF4E
:10294000D9F8002045F21873C2F34042C0F60003E4
:102950009A5C4843B0FBF2F0D9F8001045F20072DF
:10296000C1F30311C0F60002515C40F2080220FAE4
:1029700001F140F20400C2F200000068C2F200025D
:102980001160FFF795FD002001B0BDE8F083000065
:1029900040F2080041F20401C2F20000C4F2020158
:1029A0000068096845F21072C1F30221C0F6000206
:1029B000515CC8407047000040F2080041F2040139
:1029C000C2F20000C4F202010068096845F2107208
:1029D000C1F3C221C0F60002515CC840704700003C
:1029E000002804BF012070472DE9F04182B0044661
:1029F000007841F20006C007C4F202060CD07068ED
:102A000000F00C00042840F081803068800303D57A
:102A10006068002800F04681207880071BD5706828
:102A200010F00C0F09D0706800F00C00082840F07E
:102A300087807068C00300F183803068800703D509
:102A40002069012840F02E813068616920F0F8008B
:102A500040EAC10030602078000713D42078400796
:102A60002CD4E569002D00F01881706800F00C008E
:102A7000082840F0A780012D40F00481012002B019
:102A8000BDE8F081A069002800F084800020C4F235
:102A900042200121C0F88014FFF70CFB054600BF5F
:102AA000706A800700F1B280FFF704FB401B022828
:102AB000F6D9032002B0BDE8F08100BFF0695FEAFB
:102AC000C00808D4F06940F08050F061F06900F06F
:102AD00080500090009847F20007C4F20007386861
:102AE000C00549D4386840F480703860FFF7E2FAD6
:102AF000054600BF3868C0053ED4FFF7DBFA401B2F
:102B00006428F7D9032002B0BDE8F081706800F0B6
:102B10000C00082803D17068C0033FF576AF6168E8
:102B20003068002900F00C81B1F5A02F00F0008181
:102B3000B1F5803F40F01A8140F480301CE100BFC5
:102B40002069002840F20000C4F2422000F0888092
:102B500001210160FFF7AEFA054600BF306880072B
:102B60003FF572AFFFF7A6FA401B0228F6D9032003
:102B700002B0BDE8F08100BFE168306A002900F0D2
:102B80009D80052900F09280012940F0AF8040F03F
:102B90000100B1E00020C4F242200021C0F88014FE
:102BA000FFF788FA054600BF706A80077FF556AFC9
:102BB000FFF780FA401B0228F6D9032002B0BDE8D7
:102BC000F08100BF0027C4F2422700203866FFF7DB
:102BD00071FA022D05460DD13068800140F1DE808A
:102BE000FFF768FA401B02284FF00300F4D902B047
:102BF000BDE8F081306880014FD5FFF75BFA401BDC
:102C000002284FF00300F5D9F1E700BF40F20800B9
:102C1000C2F20000006844F6D351C1F26201A0FB89
:102C20000101480A019000BF00BF0198411E002821
:102C300001913FF413AF00BF0198411E002801919C
:102C40003FF40CAF00BF0198411E002801913FF4F2
:102C500005AF00BF0198411E00280191E4D1FDE6B7
:102C600000210160FFF726FA054600BF30688007A3
:102C70007FF5F1AEFFF71EFA401B02284FF003006C
:102C8000F4D9B4E77068216A00F480328A4209D12D
:102C9000616A00F47010884204D1002002B0BDE8DF
:102CA000F08100BF012002B0BDE8F08140F00400D7
:102CB0003062306A40F001001EE000BF20F00100E9
:102CC0003062306A20F004003062FFF7F3F9054605
:102CD00041F28837306A800720D5FFF7EBF9401BB7
:102CE000B8424FF00300F5D981E700BF20F00100A2
:102CF0003062306A20F004003062FFF7DBF90546ED
:102D000041F28837306A800708D4FFF7D3F9401BB7
:102D1000B842F7D9032002B0BDE8F081B8F1000F46
:102D20003FF59FAEF06920F08050F06199E600BF5A
:102D300040F480203060306840F480301CE000BFF8
:102D400020F480303060306820F480203060FFF75D
:102D5000B1F90546306880037FF55EAEFFF7AAF94A
:102D6000401B64284FF00300F4D940E720F4803082
:102D70003060306820F480203060FFF79BF9054612
:102D8000306880033FF548AEFFF794F9401B642894
:102D9000F6D9032002B0BDE8F08100BF206AB0F58B
:102DA000803F05D17168A26821F400311143716040
:102DB0007168626A21F47411114308437060012044
:102DC0003866FFF777F90446306880013FF565AF54
:102DD000FFF770F9001B02284FF00300F4D906E753
:102DE000411E0020B0EB116F1CBF012070474EF256
:102DF0001002CEF2000251604EF62351CEF20001D5
:102E0000F0230B700721906011607047704700003D
:102E10007047000090F83C20012A04BF0220704750
:102E2000B0B501F108053CCDD1E900CE23F47C53C7
:102E300022F470521A432EF4F0431A432CF4E04368
:102E40001A4324F4C0431A432A43C96922F4804236
:102E5000036811435964002180F83C100020B0BD84
:102E600090F83C20012A4FF0020236D010B580F8CD
:102E70003D200268D2F804E0D2F808C00C682EF0B9
:102E80007003234340F2FF74C4F20004A242536073
:102E90000ADCB2F1804F13D040F20043C4F20003C9
:102EA0009A420DD011E000BF42F60043C4F2010384
:102EB0009A4205D040F60003C4F200039A4204D1BE
:102EC00049682CF08003194391600121002280F8A9
:102ED0003D1080F83C20BDE81040104670470000CF
:102EE000C1B1042908D0082914BF45224422825CBC
:102EF000012A05D016E000BF4322825C012A11D1CD
:102F00000222082910D0042914BF80F8452080F837
:102F100043200BE090F84220012A03D1022280F8DE
:102F2000422003E00120704780F84420006801F04F
:102F30000F010422036A02FA01F123EA010202628C
:102F4000026A11430162416C40F2FF72C4F2000256
:102F500041F40041904241640ADCB0F1804F13D04B
:102F600040F20041C4F2000188420DD013E000BFDE
:102F700042F60041C4F20101884205D040F600014A
:102F8000C4F20001884206D1816801F007010629D8
:102F900004BF00207047016841F00101016000207A
:102FA00070470000002804BF0120704710B590F85A
:102FB0003D1031B9002180F83C10044600F070F853
:102FC0002046022180F83D10016840F2FF740B6832
:102FD000C4F2000442F6004CA142C4F2010C15DC1C
:102FE000B1F1804F1AD040F20042C4F20002914287
:102FF00014D0A14218DCB1F1804F1DD040F2004244
:10300000C4F20002914217D01AE000BF614505D01A
:1030100040F60002C4F200029142EAD1826823F035
:1030200070031343A142E6DD614505D040F600027E
:10303000C4F20002914203D1026923F440731343A6
:10304000846923F08002D0F804E0C368224361451C
:103050000A60CB62C1F828E002D14269CCF8302086
:1030600001224A610B69DB0703D00B6923F00103DE
:103070000B6180F8462080F83E2080F83F2080F8E1
:10308000402080F8412080F8422080F8432080F8DA
:10309000442080F8452080F83D20002010BD00002D
:1030A00080B584B0006840F20041C4F2000188425B
:1030B0004ED040F60001C4F20001884238D042F6FA
:1030C0000041C4F2010188423FD141F21C00C4F228
:1030D000020050F8041C002241F4006140F8041C76
:1030E00050F8040C002100F40060039003981820AD
:1030F000FFF736FA1820FFF721FA192000210022E5
:10310000FFF72EFA1920FFF719FA1A2000210022E2
:10311000FFF726FA1A20FFF711FA1B2000210022E0
:10312000FFF71EFA1B2004B0BDE88040FFF706BA87
:1031300041F21C00C4F20200016841F00401016088
:10314000006800F004000190019804B080BD00BF49
:1031500041F21C00C4F20200016841F0020101606A
:10316000006800F002000290029804B080BD0000E8
:1031700090F83C20012A4FF002026CD080B580F814
:103180003D20D0F800C04FF67772DCF8083023EA13
:103190000202CCF808200B684F2B29DC1F2B45DDE1
:1031A000202B46D0302B44D0402B40F0AF80D1F8BC
:1031B00004E0C968DCF82030DCF8202022F00102AD
:1031C000CCF82020DCF8182022F0F00242EA0111AD
:1031D00023F00A0242EA0E02CCF81810CCF82020A4
:1031E000DCF8081041F0470121F0300128E000BF71
:1031F0006F2B33DDB3F5005F74D0B3F5805F21D062
:10320000702B40F08380D1E901E3C968DCF8082025
:1032100043EA0E0322F47F4243EA01211143CCF832
:103220000810DCF8081041F0770109E00BB1102B11
:103230006CD1DCF8081021F07001194341F007014E
:10324000CCF808100022012180F83D10002180F800
:103250003C10BDE880401046704700BF502B21D085
:10326000602B53D1D1F804E0C968DCF82030DCF8D9
:10327000202022F01002CCF82020DCF8182022F4C4
:10328000704242EA013123F0A00242EA0E12CCF869
:103290001810CCF82020DCF8081041F0670121F06C
:1032A0001001CDE7D1F804E0C968DCF82030DCF883
:1032B000202022F00102CCF82020DCF8182022F097
:1032C000F00242EA011123F00A0242EA0E02CCF8AF
:1032D0001810CCF82020DCF8081041F0570121F03C
:1032E0002001ADE7D1E901E3C968DCF8082043EA31
:1032F0000E0322F47F4243EA01211143CCF8081067
:10330000DCF8081041F480419AE700BF01229AE7F7
:103310007047000070B504460068C5680669B107CB
:1033200016D515F0020113D06FF0020101610121E1
:1033300021778069800703D02046FFF7E9FF05E089
:10334000204600F0D1F8204600F052FA0020207705
:10335000700719D515F0040016D020686FF004012D
:10336000016102212177806910F4407F04D020465A
:10337000FFF7CEFF06E000BF204600F0B5F820467C
:1033800000F036FA00202077300717D515F0080036
:1033900014D020686FF00801016104212177C06911
:1033A000800703D02046FFF7B3FF05E0204600F07A
:1033B0009BF8204600F01CFA00202077F00619D573
:1033C00015F0100016D020686FF01001016108217F
:1033D0002177C06910F4407F04D02046FFF798FFA2
:1033E00006E000BF204600F07FF8204600F000FA1B
:1033F00000202077F00718BF15F0010002D1300639
:1034000009D412E020686FF001010161204600F04C
:103410005FFA300609D515F0800006D020686FF0FD
:10342000800101612046FFF7F1FC700609D515F017
:10343000400006D020686FF040010161204600F096
:1034400049FAB00658BF70BD15F0200008D02168B9
:103450006FF0200220460A61BDE87040FFF7D8BC3B
:1034600070BD000070B586B040F60004C4F20104DF
:10347000006804F5105188424FF00000CDE90400C7
:10348000CDE9020002D006B070BD00BF41F21800C5
:10349000C4F20200016802AD41F008010160016858
:1034A000022601F0080101910199016841F004012F
:1034B00001600068294600F00400019001984FF473
:1034C0000050029004F5806003960596FEF7E4FC38
:1034D0004FF48070CDE90206204629460596FEF796
:1034E000DBFC06B070BD00007047000090F83C3077
:1034F000012B04BF022070474FEAB202032A00F2F8
:10350000F1802DE9F043DFE802F003A53B7500BF31
:10351000036842F600461D6A1A6AC4F2010622F0E8
:1035200001021A621A465C6852F818CFB3428E68DC
:10353000D1F800E025F0020545EA06050CD1CE6879
:10354000D1E9057824F4407425F00C0526F0040632
:103550003C43354344EA08042CF0730747EA0E075E
:103560005C609F614F6809695F631D629F6947F0F6
:1035700008079F619F6927F004079F61A6E000BFCD
:10358000036842F600461D6A1A6AC4F2010622F474
:1035900080721A621A46D3F804C052F81CEFB34284
:1035A0008E680C6825F4007545EA06250FD1CE68B3
:1035B000D1E90598360240F2FF4725F44065BE4345
:1035C00035432CF4405748EA090647EA061C2EF01A
:1035D00073072743C3F804C0DF614F680969DF63DD
:1035E0001D62DF6947F00807DF61DF6927F0040724
:1035F000DF616BE0036842F60047D3F820C01A6A27
:10360000C4F2010722F480521A621A465C6852F82A
:103610001C5FD1F800E08E68BB4204D14F6924F4EE
:10362000804444EA87142CF4005747EA063725F40F
:10363000E64646EA0E265C60DE614E6809691E6455
:103640001F62DF6947F40067DF61DF6927F4806785
:10365000DF613AE0036842F600461D6A1A6AC4F266
:10366000010622F010021A621A46D3F804C052F87A
:10367000184FB3428E68D1F800E025F0200545EAE6
:1036800006150FD1CE68D1E905986FF0400725F0F7
:10369000C00507EA061635432CF4406748EA0906D8
:1036A00047EA860C24F4E64444EA0E27C3F804C033
:1036B0009F614F6809699F631D629F6947F40067B6
:1036C0009F619F6927F480679F610902136819430E
:1036D00011600021BDE8F043002280F83C2008463C
:1036E000704700BF0121002280F83C200846704747
:1036F000002804BF0120704710B590F83D1031B983
:10370000002180F83C10044600F070F820460221A9
:1037100080F83D10016840F2FF740B68C4F20004A9
:1037200042F6004CA142C4F2010C15DCB1F1804F0D
:103730001AD040F20042C4F20002914214D0A142D9
:1037400018DCB1F1804F1DD040F20042C4F20002FB
:10375000914217D01AE000BF614505D040F6000243
:10376000C4F200029142EAD1826823F0700313434D
:10377000A142E6DD614505D040F60002C4F2000238
:10378000914203D1026923F440731343846923F007
:103790008002D0F804E0C368224361450A60CB622E
:1037A000C1F828E002D14269CCF8302001224A61F8
:1037B0000B69DB0703D00B6923F001030B6180F871
:1037C000462080F83E2080F83F2080F8402080F896
:1037D000412080F8422080F8432080F8442080F87F
:1037E000452080F83D20002010BD000070470000FB
:1037F00070470000C1B1042908D0082914BF412234
:103800004022825C012A05D016E000BF3F22825C84
:10381000012A11D10222082910D0042914BF80F8EE
:10382000412080F83F200BE090F83E20012A03D190
:10383000022280F83E2003E00120704780F84020FB
:10384000006801F01F010122036A8A4023EA020195
:103850000162036A42F64441C4F201011A43A1F134
:103860004403984202620FD040F2FF71C4F200019B
:10387000884213DCB0F1804F1CD040F20041C4F20A
:103880000001884216D01CE00A6842F400420A6037
:1038900040F2FF71C4F200018842EBDD42F60041C4
:1038A000C4F20101884205D040F60001C4F20001D3
:1038B000884206D1816801F00701062904BF002073
:1038C0007047016841F0010101600020704700006D
:1038D0007047000070470000FEE7000070B5036805
:1038E000044653F8140F400711D40E46481C29D043
:1038F00086BB00BF1868400527D4FEF7DBFB2368B2
:1039000053F8140F400737D518684007F2D5002048
:1039100070BD00BF18684007F9D41868400514D47A
:1039200018684007F3D4186840050ED4186840079B
:10393000EDD41868400508D4186840074FF000001F
:1039400048BF70BD18684005E4D56FF4806018600A
:10395000042012E0154603E053F8140F4007D6D4B4
:1039600018684005F1D4FEF7A5FB401B2368B04260
:10397000F2D958694007EFD420200021202221638A
:1039800084F83D2084F83E10226C1043206401200E
:1039900084F83C1070BD00002DE9F0410546006838
:1039A0001E46144601F47F0201338FB242D0DDF887
:1039B0001880B2F5803F40F0878040693840C01BD6
:1039C000B0FA80F04009844240F0C8804EB924E04B
:1039D00040693840C01BB0FA80F04009844240F092
:1039E000BD80FEF767FBA0EB08012868B142EFD964
:1039F00041693940C91BB1FA81F149098C42E7D1CB
:103A00009BE000BF40693840C01BB0FA80F040091D
:103A100084424FF0000040F0A280FEF74BFB286884
:103A200041693940C91BB1FA81F149098C42E9D198
:103A300083E000BFB2F5803F24D100BF4169394027
:103A4000C91BB1FA81F149098C4240F08780416974
:103A50003940C91BB1FA81F149098C4240F07E809E
:103A600041693940C91BB1FA81F149098C4275D1CC
:103A700041693940C91BB1FA81F149098C42DDD055
:103A80006CE000BF81693940C91BB1FA81F1490975
:103A90008C4263D181693940C91BB1FA81F149096E
:103AA0008C425BD181693940C91BB1FA81F1490966
:103AB0008C4253D181693940C91BB1FA81F149095E
:103AC0008C42DFD04AE000BF80693840C01BB0FAAA
:103AD00080F04009844241D146B923E080693840F2
:103AE000C01BB0FA80F04009844237D1FEF7E2FAF9
:103AF000A0EB08012868B142F0D981693940C91B9F
:103B0000B1FA81F149098C42E8D116E08069384068
:103B1000C01BB0FA80F0400984424FF0000018BF8B
:103B2000BDE8F081FEF7C6FA286881693940C91BF3
:103B3000B1FA81F149098C42E8D1002020212863A3
:103B400085F83D1085F83E00296C41F0200129647C
:103B500085F83C000120BDE8F08100BF0020BDE8F1
:103B6000F0810000F0B581B0044600681D4643694D
:103B70008FB203EA0701B94202D1002001B0F0BDC3
:103B80004169164601323CD0490512D47EB300BFCC
:103B9000FEF790FA411B2068B14203D941693940D0
:103BA000B9422BD141693940B942E6D04169490552
:103BB000EED5016841F4007101606FF480614161EC
:103BC000042000212022216384F83D2084F83E1047
:103BD000226C1043206484F83C10012001B0F0BD39
:103BE00041693940B942C8D041694905E1D4FEF77D
:103BF00061FA206841693940B942F1D02020E0E7FC
:103C000041694905D5D441693940B942B5D04169C6
:103C10004905CED441693940B942AED04169490520
:103C2000C7D441693940B942A7D041694905C0D4D8
:103C300041693940B942E3D19FE7000070B503689C
:103C4000044653F8140F000611D40E46481C29D020
:103C500086BB00BF1868400527D4FEF72BFA2368FF
:103C600053F8140F000637D518680006F2D5002067
:103C700070BD00BF18680006F9D41868400514D458
:103C800018680006F3D4186840050ED418680006BA
:103C9000EDD41868400508D4186800064FF00000FD
:103CA00048BF70BD18684005E4D56FF480601860A7
:103CB000042012E0154603E053F8140F0006D6D492
:103CC00018684005F1D4FEF7F5F9401B2368B042AF
:103CD000F2D958690006EFD4202000212022216368
:103CE00084F83D2084F83E10226C104320640120AB
:103CF00084F83C1070BD0000FEE70000FEE7000005
:103D00007047000070470000FEF7B0BB704700002E
:103D100040F21810C2F20000FFF7FCBA40F218108F
:103D2000C2F20000FFF7F6BA40F21810C2F200002B
:103D3000FFF7F0BA40F21810C2F20000FFF7EABA3B
:103D4000FEE700009AB0FEF79FFB00240120CDE9BA
:103D50000744CDE90544029006904FF4E0104FF47B
:103D6000803102250B9002A81994CDE91744CDE9C2
:103D70000314CDE90951FEF733FE28B1EFF31080AB
:103D800072B600BFFEE700BF0F20CDE90C054FF46F
:103D90008060CDE90F040CA802210E94FEF71AFDF5
:103DA00020B1EFF3108072B6FEE700BF4FF4004081
:103DB0004FF00209189016A8CDF85890FEF788FC2D
:103DC00020B1EFF3108072B6FEE700BF002741F28A
:103DD0001805CDE90477CDE90277C4F20205286819
:103DE00040F6000840F0100028602868C4F201087E
:103DF00000F010000C900C98286808F5006440F062
:103E00002000286028684FF4005100F020000C903A
:103E10000C982868002240F00400286028684FF4BD
:103E2000005600F004000C900C98286840F0080040
:103E30002860286800F008000C900C982046FEF7D7
:103E400033F94046602100224FF0600BFEF72CF959
:103E5000029602AE4FF0010A20463146CDE903A793
:103E6000CDF81490FEF718F840463146CDE902BA75
:103E7000CDE90479FEF710F855F8040C002140F064
:103E8000010045F8040C55F8040C002200F0010074
:103E9000029002980B20FEF763FB0B20FEF74EFB0F
:103EA00040F2E80008F5E051C2F200004FF40032A1
:103EB00007730775C261C0E900178760C0F810A0DA
:103EC000FDF7A0FA20B1EFF3108072B6FEE700BF55
:103ED000022040F2E804CDE9020A0720C2F2000401
:103EE000049002A92046FDF75BF928B1EFF310809A
:103EF00072B600BFFEE700BF5020149008F51052C4
:103F00002046002140F8302F04224FF47A73199193
:103F1000CDE917111591CDE90811CDE90611CDE9CB
:103F20000411CDE90211C0E90121C0E90331C0E962
:103F30000511FFF737F828B1EFF3108072B600BF14
:103F4000FEE700BF4FF4805004F13006169016A92A
:103F50003046FFF70DF928B1EFF3108072B600BFBD
:103F6000FEE700BF3046FFF7C3FB28B1EFF3108038
:103F700072B600BFFEE700BF14A93046FEF770FF1F
:103F800020B1EFF3108072B6FEE700BF60200C9006
:103F90000020CDE90D00CDE90F00CDE911000CA9FD
:103FA00030460022FFF7A2FA20B1EFF3108072B67C
:103FB000FEE700BF70200C904FF4FA700D900CA932
:103FC00030460422FFF792FA20B1EFF3108072B668
:103FD000FEE700BF00252420CDE905054FF4005081
:103FE000079002A93046CDE9025504950995FEF7E0
:103FF00011FF18B1EFF3108072B6FEE73046FFF7FD
:1040000031FA40F2A410A8F53441C2F2000048F29F
:10401000A0624FF48043C0F2010280E82600C0E9AC
:104020000353C0E90555C0E90755FEF749F818B133
:10403000EFF3108072B6FEE720200C9040F2F810EB
:104040000021C2F200004FF47A770591CDE9031107
:104050000D91A8F582320523C0E902170161802184
:10406000C0E900238161FEF79DFF18B1EFF31080D6
:1040700072B6FEE74FF48050029040F2F810C2F2A0
:10408000000002A9FFF774F820B1EFF3108072B6B8
:10409000FEE700BF40F2F810C2F200000CA9FEF7E4
:1040A000DFFE18B1EFF3108072B6FEE770201690B5
:1040B00040F240200021A8F58032C2F20000052322
:1040C0004FF47A770F91CDE90D111791CDE90711D2
:1040D000CDE90511C0E90023C0E902170161816142
:1040E000FEF760FF20B1EFF3108072B6FEE700BF6D
:1040F0004FF480500C9040F24020C2F200000CA916
:10410000FFF736F820B1EFF3108072B6FEE700BF7C
:1041100040F24020C2F20000FFF7EAFA20B1EFF3CC
:10412000108072B6FEE700BF40F24020C2F20000ED
:1041300016A9FEF795FE18B1EFF3108072B6FEE7F0
:10414000702002904FF4FA70039040F24020002556
:10415000C2F2000002A90C2204950695FFF7C6F9E9
:1041600020B1EFF3108072B6FEE700BF08F50051F2
:1041700040F27008C2F20008404640F8481F05733C
:1041800005754FF46021C0E901550125C161056144
:10419000FDF738F920B1EFF3108072B6FEE700BFEB
:1041A0000020CDE90205072008F14805049002A986
:1041B0002846FCF7F5FF18B1EFF3108072B6FEE762
:1041C000012002900220039002A92846FCF7E8FF94
:1041D00020B1EFF3108072B6FEE700BF0320CDE9F7
:1041E000020002A92846FCF7DBFF18B1EFF31080AC
:1041F00072B6FEE742F6344930460021C4F20109A6
:10420000FFF7F8FA30460021FEF76AFE3046042137
:10421000FFF7F0FA08F1080120460122FDF7C6FB7E
:104220002846FDF757FCC82008F1280440F2A411E5
:10423000C9F800000227C2F2000120464E221023D6
:104240000097FCF7B1FD2046002101220194FCF704
:1042500013FF4FF200074CF2000452A6C4F27F573E
:10426000C4F2794401983146FCF74CFFB8F80800D5
:1042700001F0A4F843F23331C4F2530101F0B2F873
:104280000021C4F2A01101F0ADF8394600F0B8FFEA
:104290004DF20B71C3F6A36100F0B2FF43F233316C
:1042A000D8F814A0C3F6337101F09CF849F69A11BE
:1042B00083465046C3F6996101F094F8594600F0E0
:1042C0003DFFC8F81400FCF7ABFCB8F80000D8F8C4
:1042D0001C5001F073F84CF6CD41C3F6CC5101F0FF
:1042E00081F846F2666106462846C3F6667101F01B
:1042F00079F8314600F022FF2146C8F81C0001F091
:1043000071F8394600F07CFF01F03CF8C9F8000074
:104310000A20C9F80400FDF7CDFED8F81810401A9D
:1043200040F2DD518842A1D3FDF7C4FE019DC8F8DB
:104330001800284600210022FCF79EFED8F8240031
:1043400000F0D0FE08F1340602460B46304619A1B3
:10435000FBF75CFF28463146FCF7D4FE28460821CF
:104360000022FCF789FED8F8200000F0BBFE0246D0
:104370000B46304611A1FBF749FF28463146FCF7B2
:10438000C1FE284600210122FCF776FED8F8140071
:1043900000F0A8FE02460B4630460BA1FBF736FFA5
:1043A00060E700BF68656C6C6F20616E6820656DAA
:1043B00020000000696E3D252E3166006F75743D4A
:1043C000252E316600000000496F75743D25352E9D
:1043D00032662041000000005FEA400C08BF91F007
:1043E000000F4FEA8C234FEAC12243EA51514FEAB2
:1043F0001C5018BF00F5F0404FEA300018BF41F0E4
:1044000000415FEA6C5C00F02980BCF1FF3F08BF0F
:1044100040F080407047130C06BF12044FF0100CA0
:104420004FF0000C130E04BF12020CF1080C130F16
:1044300004BF12010CF1040C930F04BF92000CF1A5
:10444000020CD30F04BF52000CF1010C11464FF0C7
:104450000002A0F11F00A0EB0C00704711F0004F0C
:1044600008BF704731F000413FF4D5AF0B0C06BFD9
:1044700009044FF0100C4FF0000C0B0E04BF0902A2
:104480000CF1080C0B0F04BF09010CF1040C8B0F8D
:1044900004BF89000CF1020CCB0F04BF49000CF1E2
:1044A000010CCCF1200322FA03F341EA030102FAE2
:1044B0000CF2A0EB0C0000F10100704723F07F47E5
:1044C00020F07F4C80EA030000F00040ACEB0703D3
:1044D00003F57C5303F1FF032DE9804909B44FEA4A
:1044E000144324EA03484FEA154B25EA0B4E0FF21A
:1044F000042606EB13273E7803FB0667C7F5000783
:1045000007FB06F64FEAD64606F102064FEA543795
:1045100007FB066CCCF1005C4FEA1C472CEA074C09
:104520000CFB06F507FB06F404EB15464FEA96165E
:1045300049085FEA320234BF00204FF000404FEAE2
:10454000D13706FB07FC4FEA1C4C0CFB0BF7D21BC8
:1045500003FB0CF761EB07010CFB0EF7B0EB074018
:1045600072EB17420CFB08F734BFA2EB0742B2EB29
:10457000074261EB17414FEA0C444FEA910706FBF3
:1045800007FC4FEA1C4C0CFB0BF7B0EBC74072EB7F
:10459000573203FB0CF734BFA2EBC742B2EBC74262
:1045A00061EB57310CFB0EF7B0EBC70072EB5772A3
:1045B0000CFB08F734BFA2EBC702B2EBC70261EBFA
:1045C00057714FEA816141EA92114FEA826242EAF1
:1045D00090124FEA806004EBCC04039F4FEAD1377E
:1045E00006FB07FC4FEA1C4C0CFB0BF7D21B03FB32
:1045F0000CF761EB07010CFB0EF7B0EB074072EB19
:1046000017420CFB08F734BFA2EB0742B2EB07429C
:1046100061EB17414FEA8C5504EB9C244FEA91075C
:1046200006FB07FC4FEA1C4C0CFB0BF7B0EBC7403A
:1046300072EB573203FB0CF734BFA2EBC742B2EB6D
:10464000C74261EB57310CFB0EF7B0EBC70072EBC2
:1046500057720CFB08F734BFA2EBC702B2EBC702DC
:1046600061EB57714FEA816141EA92114FEA826230
:1046700042EA90124FEA806015EB4C2544F10004A9
:104680004FEAD13706FB07FC4FEA1C4C0CFB0BF73B
:10469000D21B03FB0CF761EB07010CFB0EF7B0EB31
:1046A000074072EB17420CFB08F734BFA2EB07423E
:1046B000B2EB074261EB17414FEA813141EA924187
:1046C0004FEA823242EA90424FEA80304FEA0C765B
:1046D00015EB1C1544F1000448EA03434EEA0B486D
:1046E0004FF0000EB2EB080C71EB030724BF6246DB
:1046F00039464EEB0E0E4FF0000B00185241494167
:104700004BEB0B0BB2EB080C71EB03077BF1000BCF
:1047100024BF624639464EEB0E0E4FF0000B0018D8
:10472000524149414BEB0B0BB2EB080C71EB030709
:104730007BF1000B24BF624639464EEB0E0E51EA68
:10474000020718BF46F0010616EB0E7655F100027F
:1047500054F1000103D5BDE88901BDE80088BDE83A
:104760008901BDE80048B619524141EB0101A3F1AE
:104770000103704780807F7E7D7C7B7A79787776B5
:1047800076757473727171706F6E6E6D6C6C6B6A2E
:104790006A696868676666656464636362616160CC
:1047A000605F5F5E5E5D5D5C5C5B5B5A5A59595849
:1047B00058575756565555555454535352525251B3
:1047C000515050504F4F4F4E4E4D4D4D4C4C4C4B09
:1047D0004B4B4A4A4A494949484848474747474650
:1047E000464645454544444444434343434242428C
:1047F000424141419C46002B30D477002BD04FEAF8
:1048000037071CB503B44FF010004FF01001BAF198
:10481000000F06D0BCF1000FDCBF40F0080040F0F4
:1048200008014FF000000FBCBDE810400BF1010B78
:10483000BBF1010F08BF5FEA170722BF12F10102A7
:1048400011F101014FF0004143F1000300F000407D
:1048500043EA00007047F9D35708D0E746EA064616
:104860004FEA164613F1400F1FDD13F1200FDFBF93
:1048700016430A46002120335B42BED0C3F1200715
:1048800046EA06464FEA164602FA07F746EA0706E0
:1048900022FA03F2C3F1200701FA07F742EA0702FE
:1048A00021FA03F14FF00003A7E746EA020646EAC1
:1048B00006464FEA164646EA0106BCBF46EA0646E9
:1048C000360C4FF000034FF000024FF0000194E768
:1048D0002DE9804C70B49A46934691E8380007C899
:1048E00031EA400C48BF34EA430C03D5FFF7E6FD3C
:1048F000FFF780FFF0BCBDE8008C2DE9804C70B460
:104900009A46934691E8380007C810F0804F08BFD8
:1049100013F0804F03D100F005F8FFF76BFFF0BCF8
:10492000BDE8008C20F07F4723F07F4C80EA030035
:1049300000F0004007EB0C03A3F57C53A3F1FE034A
:1049400092F0000F00F0B38095F0000F00F0778038
:104950002DE901494FEA114021EA00484FEA144687
:1049600024EA064700FB06FC08FB06F607FB08F8EE
:1049700018EB06484CEB164C00FB07F718EB074802
:104980004CEB17404FEA124B22EA0B4E4FEA15460A
:1049900025EA06470BFB06FC0EFB06F607FB0EFEA0
:1049A0001EEB064E4CEB164C0BFB07F71EEB074EAF
:1049B0004CEB174B18EB0B0840F1000018EB0E0BFB
:1049C00058EB000840F100008F1A4FF000014FF043
:1049D00000063CBFC943661B14BFB5EB040C0021A5
:1049E0003CBFC943F61B4FEA174427EA04454FEA88
:1049F0001C472CEA074C04FB076205FB07F70CFB7E
:104A000005F616EB074642EB174204FB0CFC16EBCF
:104A10000C4642EB1C421BEB060658EB02024141DE
:104A20004EEA8E0E46EA9E0601D5BDE80189B6190A
:104A3000524141EB0101A3F10103BDE801894FEAB5
:104A4000144524EA05464FEA114721EA074C05FBC5
:104A500007F406FB07F70CFB06F111EB074144EBEB
:104A6000174405FB0CFC11EB0C4144EB1C444FEAD2
:104A7000124722EA074C05FB07F206FB07F70CFB7F
:104A800006F616EB074642EB174205FB0CFC16EB4D
:104A90000C4642EB1C456A1854F1000148BF7047B0
:104AA000B619524141EB0101A3F10103704795F0A2
:104AB000000F37D04FEA114221EA02464FEA14476D
:104AC00024EA074C02FB07F106FB07F70CFB06F490
:104AD00014EB074441EB174102FB0CFC14EB0C44B4
:104AE00041EB1C414FEA154725EA074C02FB07F54D
:104AF00006FB07F70CFB06F616EB074645EB1745DA
:104B000002FB0CFC16EB0C4645EB1C42121951F152
:104B1000000148BF7047B619524141EB0101A3F1B2
:104B2000010370474FEA144524EA05464FEA11474E
:104B300021EA074C05FB07F106FB07F70CFB06F221
:104B400012EB074241EB174105FB0CFC12EB0C4248
:104B500051EB1C414FF0000648BF7047921841EBE3
:104B60000101A3F101037047490050EAC12018BFB9
:104B700004204A0D18BF40F0010040F2FF72B2EB72
:104B8000515F08BF40F00200012808BF05207047B0
:104B900030380A2801D201207047002070470000F9
:104BA00010B500290AD00878002807D005487844B5
:104BB000FBF74CFF002801D0002010BD02487844CC
:104BC00010BD00009E0B0000960B000021F000427B
:104BD00001F00043A2F16052B2F5801F28BFD2F16C
:104BE0007F6C0BD95FEA001C43EAC20242EB5070B3
:104BF00018BF704728BF20F001007047B2F5801F32
:104C0000BCBF184670474FEA410C1CF5001F02D28A
:104C1000084600F0AEBC70B500F010FA0000008944
:104C2000FFF7F6BF4FF00040A0F58000704700008E
:104C30002DE9C04130B4DFF8A8C23CEA111418BF16
:104C40003CEA131400F0F0801CEA111481EA030519
:104C500044EAD57418BF1CEA131500F0CB80A4EB0E
:104C6000050404F17F7404F500344FF0004545EA73
:104C7000C12145EAC32341EA505143EA52534FEA66
:104C8000C0204FEAC222994208BF904200F0A080A3
:104C90004FEA13650FF24816765D4FEA134506FB9F
:104CA00005F7C7F1807706FB07F74FEAD737A7FB71
:104CB00003687642A7FB06CEC8F5803838BFA8F156
:104CC000010807FB08E6A6FB028C4FF0000EE6FB8E
:104CD00003CED8F100086FEA0C0C5CF1000C6FEA0F
:104CE0000E0E4EF1004EA6FB0C584FF00007E6FBEF
:104CF0000E87A1FB08C6A0FB07CE16EB0E064FF0F1
:104D0000000545F10005E1FB076515F1E04E7EBFAA
:104D1000A4F580345FEA46066D4116F1800745F13F
:104D200000054FEA172747EA05674FEA15254FEABE
:104D30000666A6F1DE46B6F1805F20D9384605EB5F
:104D4000C47124F0010C01EB0C11BCF1FE6F02D810
:104D5000F0BCBDE8008124425CBF01F5801E9EEAE4
:104D6000C47F02D4F0BCBDE80081244200F1398048
:104D7000A1F1C041F0BCBDE8004100F0ADB94FEA7F
:104D8000D02040EA41504FEAD1214FEAD22242EAF4
:104D900043524FEAD323A7FB028607FB036605FBBA
:104DA00002661EEA0E0F58BFA6EB0056B6EB005681
:104DB0004FEA520E4EEAC37E18EB0E0E56EB530E20
:104DC000BCD518EB02085E417F1C55F10005B5E724
:104DD0004FF480154FF000074FF000064FF0000829
:104DE000ACE701F1C04101F000414FF00000F0BC20
:104DF000BDE800810CEA131511EA0C1F00D00CE08D
:104E000013EA0C1F00F025804FF0000081EA030137
:104E100001F00041F0BCBDE80081F0BCBDE80041FC
:104E200081EA030100F058B9F0BCBDE8004170B55B
:104E300000F004F9097EFC3E00F007B84FF00000D6
:104E400081EA030101F00041704781EA030100F0AB
:104E500043B9F0BCBDE8004122494FF00000704763
:104E6000FFFDFBF9F7F5F4F2F0EEEDEBE9E8E6E42F
:104E7000E3E1E0DEDDDBDAD8D7D5D4D3D1D0CFCDB6
:104E8000CCCBCAC8C7C6C5C4C2C1C0BFBEBDBCBBEF
:104E9000BAB9B8B7B6B5B4B3B2B1B0AFAEADACABEA
:104EA000AAA9A8A8A7A6A5A4A3A3A2A1A09F9F9EC4
:104EB0009D9C9C9B9A999998979796959594939376
:104EC000929191908F8F8E8E8D8C8C8B8B8A89890D
:104ED0008888878786858584848383828281818090
:104EE0000000FF070000F87F70B5DFF848C11CEA3A
:104EF000111E1EBF1CEA13159EEA0C0F95EA0C0F3B
:104F000000F06F8081EA03044EEAD47EAE4421EAC9
:104F10004C1123EA4C1341F4801143F48013AEF199
:104F20007F7EA1FB024CA0FB0365361955EB0C05F7
:104F3000A1FB034C4CF10003A0FB021C16EB0C067A
:104F4000654153F10003094218BF46F0010613F40E
:104F5000007F0BD14FEA03314FEA053041EA15518A
:104F600040EA165034036FF003020AE04FEAC3210F
:104F70004FEAC52041EA555140EA5650F4026FF01D
:104F8000020202EB2E4201EB025585EACE710AD0F5
:104F90005FEA440C18BF24F0004450F1000041F1D6
:104FA000000120EAD47040F2FE7C624500D270BD60
:104FB000A84214BF4FF080444FF04044002E08BF79
:104FC0000024BEF1806FA8BFA1F1C041BDE87040D0
:104FD00080F2828001F1C04101F000414FF00000F9
:104FE00070470CEA13159EEA0C0F18BF95EA0C0FD8
:104FF00006D081EA030E4FF000000EF0004170BDB4
:1050000000F01CF88900013E00F007B800F009B874
:105010004FEA430C5FEA5C5C08D081EA030100F0D0
:105020005BB84FEA410C5FEA5C5CF6D102494FF095
:10503000000070470000FF070000F87F0EF1020E2D
:105040002EF0030E5EF8046B364205D4012A43EBC2
:10505000030515F5001F12D8012841EB010C1CF5C2
:10506000001F0CD80ED14FEAD17C0CEB4C0C0CF18C
:10507000020C15F5001F08BF4CEBD37C04E04FF089
:10508000080C01E04FEAD37C0CEB4C0526FA05F640
:1050900006F00706B6F1040C06D20EEB860CBDE84E
:1050A00070404CF0010C6047DFE80CF0090B020285
:1050B0004FF00041A1F500214FF0000070BD1946EE
:1050C0001046012851EB010418BFD4F5001484BF29
:1050D000002001F0004170BD0808A0F500114FEA62
:1050E0003101704743004FEAD30C4FEA3C0C434078
:1050F0001FBF40070CF1605113F0FE4F70471CF0CA
:10510000006F03D10CF00041002070470CF0004309
:1051100043EA507040EACC0010B500F0E4F900BF5B
:10512000000000924FEA0001FFF7D6BF4FF00041A8
:10513000A1F500214FF000007047000090EA010F38
:1051400048BF81F0004100F12082421A3CBF801A22
:1051500089184FEAD052A2EBD1534FF07F4C1CEA92
:10516000410F18BF9CEA026F00F03B804FF0004CEB
:105170004CEA00204CEA012121FA03FC10EB0C0C54
:105180001ED202F1FF325FEA1C2040EBC25038BF52
:1051900070471CF07F0F4FEA400C18BFBCF17F4FE7
:1051A00038BF7047C3F12003994008BF20F00100C9
:1051B000BCF17F4F38BF7047A0F1C04000F0D9B9B3
:1051C0004FEA3C00000A40EBC25028BF1CF0FF0F22
:1051D0004FEA400CE6D018BFBCF17F4F38BF704794
:1051E000EAE79CEA026F05D010EA5C0F08BF00F006
:1051F0000040704710B500F076F900BF64FBBE3E7A
:105200004FF47F0C1CEAD0121EBF1CEAD11392EAA5
:105210000C0F93EA0C0F00F0858090EA010F48BF55
:1052200042F4807240F4000C41F400002CF07F4105
:1052300020F07F4000B5A2EB030281420FF2081C70
:10524000ACEB504E9EF800E0C0F100004FEA4E0E6D
:1052500000FB0EFC38BF49004FEA2C1C0CFB0EF380
:105260004FEACE1E0EEB635E4FEA112C0EFB0CFCD8
:105270004FEAC1214FEA1C5300FB031102F5FA0269
:105280004FEA112C0EFB0CFC4FEA01314FEADC4CCB
:1052900000FB0C1142EB2242C14228BF09184CEB23
:1052A00003335DF804EB10EB410143EBC250B2F560
:1052B0007C0F38BF704729D512F0F00F1CBF00F1EA
:1052C000C04000F00040704700818283848586875B
:1052D00088898B8C8D8E8F919293959697999A9CB5
:1052E0009D9FA0A2A3A5A7A8AAACAEB0B2B3B5B724
:1052F000B9BCBEC0C2C5C7C9CCCED1D4D7D9DCDFFA
:10530000E2E6E9ECF0F3F7FAFE0000004FEA400CA9
:105310000CF1807CBCF17E4F28BF7047B0F1C040DB
:1053200000F027B90CEAD11390EA010F48BF42F40C
:105330008072624538BF634507D213F47F0F16D0E1
:1053400080EA010000F00040704710B500F0CBF893
:10535000097EFC3E00F005B880EA010000F0004044
:10536000704780EA010000F0004000F002B912F43A
:105370007F0F04BF0248704780EA010000F0F9B8CF
:105380000000C07F41000B0ED3F19E0208D950F4FB
:1053900000034FEA032323FA02F048BF404270475C
:1053A00010B500F0A0F800BF49922480002070479B
:1053B0006FF0004282EA200070470000B0FA80F3EC
:1053C00010FA03F2C3F19D030AD0D90501EB1220B4
:1053D000530638BF704700F1010008BF20F00100FC
:1053E000704700004FF47F0C1CEAD0121EBF1CEA6D
:1053F000D11392EA0C0F93EA0C0F00F0478090EA69
:10540000010F48BF42F480724FF0004C4CEA00207C
:105410004CEA012102EB0302A0FB0113A2F50002FA
:10542000002918BF43F001035B0028BF4FEA330394
:1054300042EB22425FEA132C4CEBC2502EBFBCEB76
:10544000436FB2F57C0F70474FEA036CBCF1004F1D
:1054500008BF20F00100B2F57C0F38BF70470BD5B4
:1054600082F0FF0212F5803FC8BF704700F1C040D4
:10547000D8BF00F00040704700F5000C5FEA4C0C0C
:1054800048BF7047B0F1C04000F073B80CEAD113C8
:1054900090EA010F48BF42F48072624538BF63450D
:1054A00004D280EA010000F00040704710B500F01F
:1054B0001AF800BF8900013E00F007B800F009B8F3
:1054C0005FEA410C5FEA1C6C08D080EA010000F042
:1054D00050B85FEA400C5FEA1C6CF6D14FF0004018
:1054E000A0F5800070470EF1020E2EF0030E5EF85C
:1054F000044B244204D44FEA4102B2F17F4F11D849
:105500004FEA4003B3F17F4F0CD80ED14FEAD07C65
:105510000CEB4C0C0CF1020CB2F17F4F08BF4CEBC2
:10552000D17C04E04FF0080C01E04FEAD17C0CEB99
:105530004C0324FA03F404F00704B4F1040C06D27B
:105540000EEB840CBDE810404CF0010C6047DFE826
:105550000CF0070802024FF00040A0F5800010BDDB
:105560000846420018BFD2F1807288BF00F00040A8
:1055700010BDFF2141EAD050C005704790EA010FED
:1055800048BF81F000413FF5E0AD421A04D882F0F7
:105590000042A0EB020011444FEAD052A2EBD153DB
:1055A0004FF07F4C1CEA410F18BF9CEA026F4AD0B3
:1055B0004FF0004C4CEA00204CEA012121FA03FC98
:1055C000B0EB0C0C0FD412F0FE0F36D05FEA4C009B
:1055D0001DD5001240EBC25038BF70471CF03F0F82
:1055E00018BF70470BE05FEA1C20A2F1010240EBFC
:1055F000C25038BF70471CF07F0F18BF7047C3F10F
:105600002003994014BF401E20F0010070474FEA6C
:105610001223800808BF7047B0FA80FCA2EB0C028E
:10562000CCF1280C60FA0CF093EA122F04BF00EBC7
:10563000C25070474FEAC3707047130A5FEADC102C
:1056400008BF7047F6E79CEA026F04D010EA5C0FCF
:1056500008BF0020704710B5FFF745FF40DFF63E5A
:1056600081F000407047FAF76EBF00000240000072
:10567000000000A00000000005400000000000C87D
:10568000000000000C4000000000409C00000000F2
:10569000194000000020BCBE0000000034400000A3
:1056A000BFC91B8E00000004B5400000504BCFD096
:1056B0006607E2CF010000006C4100003E8251AA63
:1056C000DFEEA73401000000D9420000DCB5A0E203
:1056D0003A301F97FFFFFFFFB4450000FD25A0C82B
:1056E000E9A3C14FFFFFFFFFFF3F00000000008064
:1056F00000000000FF3F00000000008000000000EC
:105700000000000000000000010203040607080971
:105710000000000001020304010202030405060761
:1057200008090A0B0C0D0E0F101000006857000836
:105730000000002010000000500100087857000809
:105740001000002080080000700100081C0000000C
:1057500043000000F8FFFFFF0C0000000E000000F7
:105760000F0000002E0000000100000010000000EB
:0857700000127A0000000000A5
:04000005080000ED02
:00000001FF
