:020000040800F2
:100000007006002001010008F13600086D33000879
:10001000ED360008ED070008DD3B00080000000099
:10002000000000000000000000000000793B000814
:100030000908000800000000F53600087D3B0008B4
:100040001B0100081B0100081B0100081B01000820
:100050001B0100081B0100081B0100081B01000810
:100060001B0100081B0100080D080008F10700082B
:100070001B010008FD0700081B0100081B01000808
:100080001B0100081B0100081B0100081B010008E0
:100090001B0100081B0100081B0100081B010008D0
:1000A0001B0100081B0100081B0100081B010008C0
:1000B0001B010008D13B00081B0100081B010008C0
:1000C0001B0100081B0100081B0100081B010008A0
:1000D0001B0100081B0100081B0100081B01000890
:1000E0001B0100081B0100081B010008DFF80CD0F1
:1000F00000F0C8F900480047D93D0008700600200C
:100100000648804706480047FEE7FEE7FEE7FEE7B1
:10011000FEE7FEE7FEE7FEE7FEE7FEE7813B0008BD
:10012000ED000008F0B480EA0102D40F4200B2EB07
:10013000410F02D20246084611464A0042D0C30D82
:10014000DDB2C1F3C752AD1A202D35DAC1F3160165
:1001500041F4000204B15242C5F1200602FA06F150
:100160002A411044B3EBD05F23D0C4B1012DA0EBE2
:10017000C35009DCF0BC4FF0004202EAC352DBB2CC
:1001800000F5000000F043B9400000F1807000EB82
:10019000C350A0F1807040EAD170490009E04908DD
:1001A00041EAC071A0EBC35000F50000400800EB2D
:1001B000C350F0BC00F022B96142012202EB4101C0
:1001C000001BF6E7F0BC704781F00041AAE780F021
:1001D0000040A7E780EA010210B502F000434000AA
:1001E00022D04A001FD0010E01EB1261C0F356006D
:1001F000C2F3560240F4000042F40002A0FB0220C9
:1002000000047F39140400D0401C50EA124001D48D
:100210004000491EC2B20C0604EBD010401C40083E
:10022000802A02D003E0002010BD20F00100002948
:1002300000DA0020184310BD30B480EA010202F059
:10024000004530F0004221F0004013D090B1C30DC2
:10025000D40DC2F31601C0F31600E41A41F40001F4
:1002600040F400027D34914201D3641C00E0490057
:10027000002C02DA30BC002070474FF4000000234D
:10028000914201D3891A034340084FEA4101F7D153
:1002900051B1914202D14FF0004105E002D24FF03E
:1002A000010101E06FF0010103EBC450284430BCB0
:1002B00000F0A4B8002801DBC0F10040002901DBF8
:1002C000C1F10041814201D80120704700207047F0
:1002D000002801DBC0F10040002901DBC1F1004131
:1002E000814201D20120704700207047002801DBC5
:1002F000C0F10040002901DBC1F10041814201D37E
:100300000120704700207047002801DBC0F1004049
:10031000002901DBC1F10041814201D90120704770
:1003200000207047C10F80EAE0700844CA07962396
:10033000002100F06CB896230022114600F067B847
:1003400000F0004220F00040C10DC0F3160040F460
:1003500000007F2901DA00207047962903DCC1F1F3
:100360009601C84001E096398840002AF4D0404206
:10037000704720F00040C10DC0F3160040F40000AB
:100380007F2901DA00207047962903DCC1F196012C
:10039000C84070479639884070472DE9F05F0546A0
:1003A000002092469B4688460646814640241BE034
:1003B000284641464746224600F08BF853465A46A7
:1003C000C01A914110D311461846224600F072F827
:1003D0002D1A67EB01084F4622460120002100F04C
:1003E00069F817EB00094E41201EA4F10104DFDC7F
:1003F000484631462A464346BDE8F09F0029A8BF3B
:100400007047401C490008BF20F00100704710B43D
:10041000B0FA80FC00FA0CF050EA010404BF10BCF2
:10042000704749B1CCF1200421FA04F411FA0CF11F
:1004300018BF012121430843A3EB0C01CB1D4FEA58
:1004400000614FEA102042BF002010BC704700EB53
:10045000C35010440029A4BF10BC7047401C490081
:1004600008BF20F0010010BC7047420005D0C0F367
:10047000C7525242914201DC0020704700EBC1504C
:10048000704700001CB509480090094801900546D6
:10049000009C06E0E06840F0010394E807009847FC
:1004A0001034AC42F6D3FFF725FE0000705200086E
:1004B00090520008202A04DB203A00FA02F10020C2
:1004C00070479140C2F1200320FA03F31943904092
:1004D0007047202A04DB203A21FA02F000217047FD
:1004E00021FA02F3D040C2F120029140084319469C
:1004F00070470000B0B5044600688168C90701D1A3
:100500000020B0BD816821F00101816001F00EF989
:10051000054600BF20688068C007F1D001F006F9E9
:10052000401B0328F6D3A06A40F01000A062E06AE6
:1005300040F00100E0620120B0BD00000146406AC9
:10054000826A12F0500F03D0006A026B084610470F
:100550000168826A42F400728262896801F4602153
:10056000B1F5602F01D1017B11B100F071BA00BF6C
:10057000816A21F480718162816AC90448BF00F0F8
:1005800067BA816A41F00101816200F061BA00003E
:10059000406A816A41F040018162C16A41F0040110
:1005A000C16200F067BA0000406A00F061BA000062
:1005B000B0B582B004460020019021688A68D20755
:1005C0003FD1886840F00100886040F23000C2F2FC
:1005D000000000684DF68361C4F21B31A0FB0101ED
:1005E000880C01900198A0B1019801380190019800
:1005F00078B1019801380190019850B10198013803
:100600000190019828B101980138019001980028C3
:10061000EAD101F08BF8054620688068C00713D145
:1006200001F084F8401B0328F6D3A06A40F01000C4
:10063000A062E06A40F00100E062002084F824003B
:10064000012002B0B0BD00BF002002B0B0BD00006C
:10065000F0B583B040F23806C2F2000606F12C0471
:10066000204600F0D9F840F29405C2F20005284671
:1006700000F0D2F805F130003C2102F0CDF9286BF2
:10068000406A7178308101291ED142F63440C4F2AB
:10069000010000270760382040F2E815C4F200008E
:1006A000C2F2000507602846002102F065FC2846DA
:1006B000002101F01FFF2846042102F05DFC2846BE
:1006C000042101F017FF777006F124012046032270
:1006D00000F08AFC03F0C4F80020002403F0B2F814
:1006E000002003F0AFF840F22805C2F20005D5E97A
:1006F00000304FF6E071CDE900012DA20420022167
:10070000029403F049F900200F21A0221F2303F0D7
:1007100067FAD5E900304FF6FF77CDE9000727A249
:1007200004201621029403F037F9D5E9003025A200
:10073000CDE9000704202821029403F02DF9D5E922
:10074000003022A2CDE9000704203A21029403F0F0
:1007500023F9D5E900301FA2CDE9000704204C2180
:10076000029403F019F9D5E900301CA2CDE9000785
:1007700004205E21029403F00FF9D5E9003019A29C
:10078000CDE9000704207021029403F005F902F07E
:10079000EFFD40F22820C2F2000001F073FF4FF499
:1007A000FA7000F085FE308D708003B0F0BD00BFA0
:1007B0004255434B204D4F444500000056696E2082
:1007C0003A000000566F75743A000000496F757466
:1007D0003A00000054656D703A00000053657420C3
:1007E0003A0000004F5554203A000000FEE7000098
:1007F00040F20810C2F2000000F002BD40F24C10BE
:10080000C2F2000000F0FCBC70470000102000F0B5
:1008100071BE00007047000070B582B00446002031
:10082000019094F82400012802D1022002B070BD8A
:10083000012084F824002046FFF75CFE20B100214F
:1008400084F8241002B070BD0646A06A41F202117D
:1008500088430230A06240F23000C2F20000056816
:10086000022001F01FF8B5FBF0F040000190019864
:10087000A8B100BF019801380190019878B10198A2
:1008800001380190019850B1019801380190019808
:1008900028B101980138019001980028EAD120463A
:1008A000FFF786FE2068816841F00801816000F052
:1008B0003DFF054620688168090705D500F036FF31
:1008C000401B0A28F6D910E0816841F004018160DC
:1008D00000F02CFF054600BF20688068400709D55E
:1008E00000F024FF401B0B28F6D3012010216FF0ED
:1008F000120203E001216FF003023046A36A1A409E
:100900001143A162002184F8241002B070BD0000E0
:1009100070B581B00022009290F82420012A03D102
:100920000221084601B070BD4A680123062A02EB85
:10093000820E80F8243007D8D0F800C06FF004038E
:100940000CF134060CE000BFD0F800C00C2A87BFC1
:100950000CF12C066FF040030CF130066FF022030F
:100960000EEB03021F23346803FA02F50B6824EA36
:10097000050503FA02F22A433260092B03EB430216
:100980001AD9DCF80C601E3A072589689540AE43F9
:10099000914023F001023143102ACCF80C1015D1FC
:1009A00042F20041C4F201018C4517D0816A41F046
:1009B0002001816201210AE0DCF8103007268968F5
:1009C0009640B34391401943CCF810100021002207
:1009D00080F82420084601B070BD00BF8968090274
:1009E000F4D4DCF80810102B41F40001CCF8081006
:1009F000ECD140F23001C2F2000109684DF6836289
:100A0000C4F21B32A1FB0212910C01EB81014900DF
:100A1000009100990029D9D00099013900910099DD
:100A20000029D3D000990139009100990029CDD037
:100A300000990139009100990029C7D00099013926
:100A40000091009900294FF00001E5D1BFE70000B7
:100A5000006842F20041C4F20101884218BF7047A9
:100A600040F20410C2F20000012101707047000042
:100A700070470000704700000068C06C70470000BD
:100A8000002804BF01207047B0B50446806A28B131
:100A900020688168C9070CD032E000BF0020E06206
:100AA00084F82400204600F08FF820688168C90788
:100AB00026D1A16AC9063DD4A16A41F2021291432E
:100AC0000231A162E169D4E9013241EA030C531E0B
:100AD000B3FA83F35D091346B2F5807F18BF2B028A
:100AE000217D257B01294CEA45012ED145B3A56A1C
:100AF00045F02005A562E56A45F00105E56224E0C0
:100B0000816821F00101816000F010FE054600BF00
:100B100020688168C907CCD000F008FE401B03287C
:100B2000F6D3A06A40F01000A062E06A40F0010035
:100B3000E062A06AA06A40F01000A0620120B0BD8F
:100B4000A56903EB4533A3F5C0534568B2F5807F33
:100B500025F4694543EA0503436083684FF2FD7558
:100B6000CFF6E17503EA050343EA0103836001D090
:100B7000012A07D122690023CFF6F07303EB02525A
:100B800001E000BF0022C36A23F470031A43C2626B
:100B9000806840F6FE62CFF61F721040884207D18F
:100BA0000020E062A16A012262F30101A162B0BDEE
:100BB000A06A40F0100020F00200A062E06A40F05D
:100BC0000100E0620120B0BDF0B585B0016842F6D9
:100BD0000002C4F2010291424FF00002CDE903226B
:100BE000CDE9012246D042F20042C4F20102914214
:100BF00061D1074641F21800C4F20200016841F4D5
:100C000000710160016801F40071009100990168B0
:100C100041F004010160006801A900F004000090A7
:100C20000098072001900320029040F60000C4F2D3
:100C3000010000F06BFC40F208140820C2F200042E
:100C4000C4F202000021C4E9000104F1080080227E
:100C50004FF480734FF4806520266EC02046E1611A
:100C600000F09CFB002818BFFFF7D4FD3C626762D0
:100C700005B0F0BD41F21800C4F20200016841F471
:100C800080610160016801F4806100910099016850
:100C900041F004010160006801A900F00400009027
:100CA0000098082001900320029040F60000C4F252
:100CB000010000F02BFC05B0F0BD00002DE9F04173
:100CC00082B000270D460446019700F02FFD2168F1
:100CD0008A68D20544D406464868C00503D4C86A69
:100CE00010F4700F46D040F23000C2F200000768E6
:100CF00042F292480220C1F2492800F0D3FD216857
:100D000044F624130A69B7FBF0F0C2F292431A4288
:100D100006D1CA6844F62413C0F292031A4249D09D
:100D20000A6912EA080F07D1CA6842F29243C0F278
:100D300049031A4200F084800A6949F24923C0F24B
:100D400024031A424FF0FC0242D1CF681F4208BF71
:100D50005422019B02FB00F7BB423ED379E000BF67
:100D6000A06A40F02000A06284F82470012002B044
:100D7000BDE8F081086880076BD4002D55D0681C51
:100D800012D10868800764D4086880075CBF0868CF
:100D90005FEA80705DD408688007F2D559E000BF33
:100DA00021680868800754D400F0C0FC801BA8426A
:100DB000F6D93AE00A6912EA080F4FF0290207D182
:100DC000CB6842F29247C0F249073B4208BF142267
:100DD000019B02FB00F7BB423BD235B3681C1FD11D
:100DE0000198013001900198B84232D20198013047
:100DF00001900198B8422CD20198013001900198DD
:100E0000B84226D20198013001900198B842E7D348
:100E10001FE000BF0198013001900198B84217D23D
:100E200000F084FC801BA842F4D9A06A40F00400C2
:100E3000A062002084F82400032002B0BDE8F08105
:100E40005422019B02FB00F7BB42C6D301E000BF66
:100E500021686FF012000860A06A40F40070A06280
:100E6000886800F46020B0F5602F01D1207B18B1B4
:100E7000002002B0BDE8F081A06A20F48070A0627A
:100E8000A06AC004F4D4A06A40F00100A06200206F
:100E900002B0BDE8F0810000B0B582B0044690F821
:100EA0002400012802D1022002B0B0BD012084F844
:100EB00024000020019020688168C90742D1816820
:100EC00041F00101816040F23000C2F20000006890
:100ED0004DF68361C4F21B31A0FB0101880C019027
:100EE0000198A0B1019801380190019878B101985A
:100EF00001380190019850B1019801380190019892
:100F000028B101980138019001980028EAD100F039
:100F10000DFC054620688168C90713D100F006FC66
:100F2000401B0228F6D9A06A40F01000A062E06AD7
:100F300040F00100E062002084F82400012002B0AB
:100F4000B0BD00BFA26A42F2044140F20133C4F2D4
:100F500001019A4302F5807301F57F729042A3620A
:100F60002AD0A36A23F48013A36243685B0504D5E7
:100F7000A36A012565F30D33A362A56A0023ED047E
:100F80004FF0000544BFE56A25F00605E56284F8E8
:100F900024306FF002030360836803F46023B3F529
:100FA000602F19D1904213D0816841F4A001816073
:100FB000002002B0B0BD00BF0B6813F4702FD0D07A
:100FC000A36A43F48013A3620B685B05D0D4D4E713
:100FD000096811F4702FE7D0816841F480118160B5
:100FE000002002B0B0BD0000F0B581B00446036837
:100FF00042F60000C4F20100834205D042F20040F4
:10100000C4F2010083420BD142F20440C4F2010059
:10101000006810F4702F03D0012001B0F0BD00BFB4
:1010200094F82400012803D1022001B0F0BD00BFD4
:10103000012084F824000020009098680E46154690
:10104000C00743D198684DF6836140F00100986075
:1010500040F23000C2F200000068C4F21B31A0FB75
:101060000101880C00900098A8B100BF00980138D9
:101070000090009878B1009801380090009850B125
:10108000009801380090009828B10098013800902D
:1010900000980028EAD100F049FB074623689868C9
:1010A000C00713D100F042FBC01B0228F6D9A06A8A
:1010B00040F01000A062E06A40F00100E062002011
:1010C00084F82400012001B0F0BD00BF42F20440CA
:1010D000A16AC4F2010040F60172914300F57F72EB
:1010E00001F580719342A16246D0A06A20F480107D
:1010F000A0625868400504D5A06A012161F30D3053
:10110000A062A16A0020C9044FF0000144BFE16A57
:1011100021F00601E16284F82400206A40F23D518A
:10112000C0F6000140F2A95240F2915700F1280C9C
:10113000C0F60002C0F600078CE886006FF00201DE
:1011400019609968324641F48071996003F14C014D
:101150002B4600F05DF92068816801F46022816807
:10116000B2F5602F0CBF41F4A00141F48011816001
:10117000002001B0F0BD00BF016811F4702FB4D0A1
:10118000A16A41F48011A16200684005B4D4B8E7B7
:10119000B0B5044690F82400012804BF0220B0BD79
:1011A0000121206884F824108168C90708D12146EC
:1011B00051F8280F41F2011220EA0202002018E043
:1011C000816821F00101816000F0B0FA054600BF9E
:1011D00020688068C007EAD000F0A8FA401B032806
:1011E000F6D3A06A214640F01000A06251F82C2FDF
:1011F000012042F001020A60002184F82410B0BDF1
:1012000010B5D0E90FCE0168DCF800300A6823FA87
:101210000EF35C072AD512F0040427D00A68920660
:1012200003D40A6822F004020A602F22C4F20202E8
:10123000914240F20402C4F2020259DD3023C4F2AA
:101240000203994270D04423C4F20203994271D040
:101250005823C4F20203994278D14FF480231360DB
:10126000C16A002940F097806EE000BF9C0727D537
:1012700012F0020424D00A68920606D40A6822F00A
:101280000A020A60012280F821202F22C4F2020201
:10129000914240F20402C4F2020239DD3023C4F26A
:1012A000020399425ED04423C4F2020399425DD006
:1012B0005823C4F2020399425ED14FF4003363E035
:1012C0001B0741D512F0080208BF10BD0A6822F0C2
:1012D0000E020A60012101FA0EF2CCF804208163AB
:1012E000016B4FF480720029028454D12CE000BFBE
:1012F0000823C4F20203994222D01C23C4F2020341
:10130000994223D140231360C16A002943D11BE0D5
:101310000823C4F2020399422CD01C23C4F2020316
:10132000994229D120232FE04FF480631360C16AD2
:1013300089BB09E04FF480431360C16A59BB03E0E5
:1013400004231360C16A31BB10BD00BF02F1680401
:101350004FF08063A14208BF4FF480031360C16A5D
:10136000C9B9F1E74FF400730EE000BF4FF400532A
:101370000AE000BF022307E002F168044FF00073A7
:10138000A14208BF4FF400131360816A00220029B4
:1013900080F82020D8D0BDE810400847002804BFBE
:1013A000012070472DE9F04101684FF6F872CBF645
:1013B000FD724CF6CD430A44CCF6CC43A2FB03238A
:1013C0006FF0030202EA93020023C4F2020300F169
:1013D000040E00F11007C0E90F329EE80051F0CF73
:1013E0000A6843F6F0739A4342EA080242EA0C02A2
:1013F00042EA0E0222432A4332433A430A60002162
:101400004FF4807281630284BDE8F0410846704762
:1014100090F820C0BCF1010F04BF02207047F0B566
:1014200090F821C04FF0010EBCF1010F80F820E0D0
:1014300026D14FF0020C80F821C04FF0000CC0F80C
:1014400038C0D0E900C4C56AC66BDCF80070102C47
:1014500027F00107CCF80070006C0EFA00F0706005
:101460000846CCF8043004BF10460A46CCF8080001
:10147000CCF80C20DCF8000045B140F00E000DE087
:10148000002180F820100220F0BD00BF20F00400F1
:10149000CCF80000DCF8000040F00A00CCF80000B6
:1014A000DCF8000040F00100CCF800000020F0BDA6
:1014B000B0B5044600F03AF9054640F22000C2F209
:1014C00000000078611C18BF044400BF00F02EF932
:1014D000401BA042FAD3B0BD102818BF704740F29D
:1014E0003800C2F200000178B1FA81F149090170B7
:1014F0007047000040F21441C4F201010A68024240
:1015000014BF08607047FFF7E7BF00002DE9F04FF8
:1015100082B00E68002E00F0FF8040F20C4C40F2CA
:10152000004E41F20042C4F2010CC4F2010EC4F2BA
:1015300001020427002401234FF0000A4FF00009A4
:10154000904208BF0327009749E000BF41F2000224
:10155000C4F20102009F904208BF022704F00C036E
:101560000F229A402BEA020207FA03F34FEA9A0588
:101570001A4346F825204E68F203DEF8002054BFD7
:1015800022EA080242EA0802CEF80020DEF804202F
:10159000B30354BF22EA080242EA0802CEF804204C
:1015A000F302DEF8082054BF22EA080242EA0802E9
:1015B000B302CEF80820DCF800204FF0010354BF3E
:1015C00022EA080242EA0802CCF800200E680AF17A
:1015D000010A36FA0AF204F1040400F09D8003FACD
:1015E0000AFB16EA0B08F1D04E684FF6FF72C1F203
:1015F0001002964212DC122E56D8DFE806F0350BA8
:101600004D495555555555555555555555555545AE
:10161000510000BFD1F80C9046E000BF4FF6FF72BA
:10162000C1F2210296420FDC0022C1F21102964261
:101630001AD00022C1F21202964215D00022C1F245
:101640002102964210D02FE00022C1F222029642DF
:101650000AD00022C1F23102964205D00022C1F226
:101660003202964220D100BF8A684AB1012A14BFD3
:10167000C0F814B0C0F810B04FF0080914E000BF73
:101680004FF0040910E000BFCA6802F104090BE042
:101690004FF0000908E000BFCA6802F1080903E042
:1016A000CA6802F10C0900BF02462646B8F5807FE1
:1016B00024BF0432203E17680F25B54027EA0505F0
:1016C00009FA06F635431560CA79D2067FF57EAF72
:1016D00041F21803C4F202031A68AEF57E7642F0B6
:1016E00001021A601A6802F001020192019A2AF0BE
:1016F000030256F802B040F60002C4F20102904222
:1017000008D040F60042C4F2010290427FF41EAFBE
:10171000012723E7002721E702B0BDE8F08F000092
:10172000002A08BF090401617047000040F26820E8
:10173000C2F200000068704740F2200040F26821C9
:10174000C2F20000C2F2000100780A68104408608A
:101750007047000080B542F20000C4F20200016848
:1017600041F010010160032000F08CF8002000F02F
:1017700005F800F027F8002080BD000070B540F2A9
:101780002006C2F2000640F230013278C2F20001B7
:101790004FF47A730968B3FBF2F20446B1FBF2F13D
:1017A000084600F029FE0F2C4FF0010508D838B983
:1017B0004FF0FF3021460022002500F037F874601A
:1017C000284670BD82B041F21800C4F202000168E0
:1017D000022241F001010160016801F00101019163
:1017E0000199416841F080514160406800F08050AB
:1017F000009000980420C4F20100016862F31A61AD
:10180000016002B070470000002848BF704700F038
:101810001F01012202FA01F11C2202EAD0004EF25D
:101820000012CEF2000281507047000010B54EF653
:101830000C5CCEF2000CDCF80030C3F3022E8EF00C
:101840000704042C28BF0424BEF103034FF0FF3E1D
:101850000EFA04F438BF0023A14399400EFA03F3B3
:101860009A43114300F00F0200F160430901043A6A
:1018700003F564436244002848BF02F10C03197069
:1018800010BD00004EF60C51CEF200010A684FF672
:10189000FF031A4060F30A2242F0806040F0FD70BE
:1018A00008607047012821D002280DD0102808D1E7
:1018B00041F20401C4F202010A6851F8040CC001AB
:1018C00034D40020704700BF80B500F0C7F941F262
:1018D0000401C4F2020109680222C1F3813102EB62
:1018E0004101B0FBF1F0BDE88040704741F20400D7
:1018F000C4F20200C16940F202320A40B2F5817FAF
:1019000004BF4FF40040704701F44071B1F5407FCF
:1019100018D0B1F5007F1CBF00207047006A49F65F
:101920004041800701EAE070704700BFC2F3834086
:1019300015A3185CD2030DD440F60012C0F23D028C
:10194000504313E050F8040C4FF22441800301EAA5
:10195000E07070470A6810A3C2F340429A5C41F2FB
:101960000023C0F27A03B3FBF2F250430968490244
:1019700048BF70474AF6AB214000CAF6AA21A0FB37
:1019800001014808704700BF020304050607080963
:101990000A0B0C0D0E0F1010010200002DE9F04192
:1019A00082B00446007841F21C06C007C4F2020669
:1019B0004AD030685FEAC00808D4306840F08050F0
:1019C0003060306800F080500190019847F20007C5
:1019D000C4F200073868C00512D4386840F480703B
:1019E0003860FFF7A3FE05463868C00508D4FFF746
:1019F0009DFE401B6428F7D9032002B0BDE8F081AA
:101A0000706810F4407012D0616801F4407188422F
:101A10000DD0706840F24042C4F24222012320F40B
:101A2000407113600023C0071360716026D1706895
:101A3000616820F440700843B8F1000F706003D46F
:101A4000306820F0805030602068810707D556F854
:101A5000181CA26821F44041114346F8181CC00626
:101A600007D556F8180CE16820F48000084346F8C2
:101A7000180C002002B0BDE8F08100BFFFF756FE51
:101A8000054641F2883700BF70688007CFD4FFF762
:101A90004DFE401BB8424FF00300F5D9EAE70000C5
:101AA000002804BF012070472DE9F04381B042F2C5
:101AB0000008C4F202080446D8F800000D4600F001
:101AC000070081420CD9D8F8000020F00700284315
:101AD000C8F80000D8F8000000F00700A8426CD158
:101AE000206841F204098107C4F2020917D54107B1
:101AF00005D5D9F8001041F4E061C9F800100107DC
:101B000005D5D9F8001041F46051C9F80010D9F892
:101B10000010A26821F0F0011143C9F80010C007BD
:101B200042D1D8F8000000F0070085420CD2D8F866
:101B3000000020F007002843C8F80000D8F8000093
:101B400000F00700A84238D12068410707D5D9F82E
:101B50000010E26821F4E0611143C9F800100007A9
:101B600008D5D9F80000216920F4605040EAC1008E
:101B7000C9F80000D9F8002002F00C00082841F252
:101B80000020C0F27A004DD145F2CE13C2F383415A
:101B9000C0F60003595CD20338D440F60010C0F2FE
:101BA0003D0048433EE000BF606859F8041C02282D
:101BB00008D0012826D1890306D4012001B0BDE850
:101BC000F08300BF8901F8D5D9F8001021F0030196
:101BD0000843C9F80000FFF7A9FD064641F288371F
:101BE000D9F80000616800F00C00B0EB810F98D0CC
:101BF000FFF79CFD801BB842F2D9032001B0BDE87D
:101C0000F08300BF8907D8D5DEE700BFD9F80020F0
:101C100044F64823C2F34042C0F600039A5C4843AE
:101C2000B0FBF2F0D9F8001044F64A22C1F30311D8
:101C3000C0F60002515C40F2300220FA01F140F29D
:101C40002400C2F200000068C2F200021160FFF737
:101C500095FD002001B0BDE8F083000040F23000A7
:101C600041F20401C2F20000C4F2020100680968F6
:101C700044F65A22C1F3C221C0F60002515CC840AA
:101C800070470000002804BF012070472DE9F04193
:101C900082B00446007841F20006C007C4F2020692
:101CA0000CD0706800F00C00042840F0818030688F
:101CB000800303D56068002800F046812078800703
:101CC0001BD5706810F00C0F09D0706800F00C0084
:101CD000082840F087807068C00300F18380306876
:101CE000800703D52069012840F02E8130686169A2
:101CF00020F0F80040EAC10030602078000713D4DB
:101D0000207840072CD4E569002D00F01881706818
:101D100000F00C00082840F0A780012D40F004815D
:101D2000012002B0BDE8F081A069002800F08480A5
:101D30000020C4F242200121C0F88014FFF7F6FC15
:101D4000054600BF706A800700F1B280FFF7EEFC25
:101D5000401B0228F6D9032002B0BDE8F08100BF85
:101D6000F0695FEAC00808D4F06940F08050F06183
:101D7000F06900F080500090009847F20007C4F22C
:101D800000073868C00549D4386840F4807038606E
:101D9000FFF7CCFC054600BF3868C0053ED4FFF70E
:101DA000C5FC401B6428F7D9032002B0BDE8F081D0
:101DB000706800F00C00082803D17068C0033FF57C
:101DC00076AF61683068002900F00C81B1F5A02F72
:101DD00000F00081B1F5803F40F01A8140F480307E
:101DE0001CE100BF2069002840F20000C4F242203C
:101DF00000F0888001210160FFF798FC054600BFD4
:101E0000306880073FF572AFFFF790FC401B022857
:101E1000F6D9032002B0BDE8F08100BFE168306A66
:101E2000002900F09D80052900F09280012940F0F2
:101E3000AF8040F00100B1E00020C4F24220002158
:101E4000C0F88014FFF772FC054600BF706A800777
:101E50007FF556AFFFF76AFC401B0228F6D9032036
:101E600002B0BDE8F08100BF0027C4F24227002085
:101E70003866FFF75BFC022D05460DD13068800106
:101E800040F1DE80FFF752FC401B02284FF00300B8
:101E9000F4D902B0BDE8F081306880014FD5FFF77A
:101EA00045FC401B02284FF00300F5D9F1E700BFC5
:101EB00040F23000C2F20000006844F6D351C1F293
:101EC0006201A0FB0101480A019000BF00BF019818
:101ED000411E002801913FF413AF00BF0198411E3D
:101EE000002801913FF40CAF00BF0198411E00286B
:101EF00001913FF405AF00BF0198411E00280191F8
:101F0000E4D1FDE600210160FFF710FC054600BFAB
:101F1000306880077FF5F1AEFFF708FC401B022810
:101F20004FF00300F4D9B4E77068216A00F48032FE
:101F30008A4209D1616A00F47010884204D10020FD
:101F400002B0BDE8F08100BF012002B0BDE8F08121
:101F500040F004003062306A40F001001EE000BF33
:101F600020F001003062306A20F004003062FFF798
:101F7000DDFB054641F28837306A800720D5FFF740
:101F8000D5FB401BB8424FF00300F5D981E700BFF5
:101F900020F001003062306A20F004003062FFF768
:101FA000C5FB054641F28837306A800708D4FFF741
:101FB000BDFB401BB842F7D9032002B0BDE8F08159
:101FC000B8F1000F3FF59FAEF06920F08050F0614E
:101FD00099E600BF40F480203060306840F48030E3
:101FE0001CE000BF20F480303060306820F4802096
:101FF0003060FFF79BFB0546306880037FF55EAEDF
:10200000FFF794FB401B64284FF00300F4D940E72E
:1020100020F480303060306820F480203060FFF79A
:1020200085FB0546306880033FF548AEFFF77EFB31
:10203000401B6428F6D9032002B0BDE8F08100BF40
:10204000206AB0F5803F05D17168A26821F40031A3
:10205000114371607168626A21F47411114308437D
:10206000706001203866FFF761FB0446306880012C
:102070003FF565AFFFF75AFB001B02284FF0030046
:10208000F4D906E7002804BF01207047B0B5044624
:102090000020A06294F8511029B984F8500020461D
:1020A00000F032F80020022184F85110D4E9001E1B
:1020B000D4E9023C0A6822F040020A6043EA0E02B8
:1020C000236942EA0C0242EA030CD4E90532E569CD
:1020D0004CEA030C02F4007E4CEA0E0343EA050CC2
:1020E000256AA36A45EA0C052B430B60042303EA27
:1020F00012424A60CA6922F40062CA610121606525
:1021000084F85110B0BD000070B586B0044640F6AA
:102110000000C4F20100216800F52052002691421F
:102120000596CDE90366029602D006B070BD00BFE9
:1021300041F21801C4F202010A6842F480520A60B6
:102140000A6802F480520192019A0A6842F004027D
:102150000A60096801F0040101910199A02102912E
:10216000022103910321059102A9FFF7CFF940F263
:102170004C153020C2F20005C4F20200102180226A
:1021800085E8430005F10C004FF480734FF4806C38
:1021900080E80C102846C5E90666FFF7FFF800281E
:1021A00018BFFEF737FBA5646C6206B070BD000077
:1021B0002DE9F04381B0044690F85000012803D186
:1021C000022001B0BDE8F0834FF001081D460F4624
:1021D000164684F85080FFF7A9FA94F851100129A7
:1021E00042D18146002F4FF0010018BF002E00F0B1
:1021F000FB800320002284F8510062652763A686D5
:10220000E686A263A287E287A0683146B0F5004F58
:1022100020682264626403D1026842F48042026052
:102220000268520603D4026842F04002026062680B
:102230000139E368B2FA82F2B1FA81F1520949092F
:10224000B3F5006F41EA02013CD131B137F8021B0E
:10225000C1602763E08E0138E086E08E00286BD0F5
:10226000681C0ED11DE000BF0220BDE0216B31F8DB
:10227000022BC2602163E08E0138E086E08E0028E8
:102280005AD0206881688907F0D4FFF74FFAA0EB95
:102290000900A842F2D338E0FFF748FAE08E0028A0
:1022A0004AD0206881688907F6D5216B31F8022B66
:1022B000C2602163E08E0138E086E08E0028F0D114
:1022C0003AE000BF39B139780173206B01302063E7
:1022D000E08E0138E086E08E70B3681C0BD11BE005
:1022E000216B09780173206B01302063E08E013887
:1022F000E086E08E00B3206881688907F0D4FFF79C
:1023000015FAA0EB0900A842F3D303206CE000BF4C
:10231000FFF70CFAE08E78B1206881688907F7D55D
:10232000216B09780173206B01302063E08E013846
:10233000E086E08E0028EFD120688168090646D546
:10234000691C0ED0FFF7F2F9A0EB09012068A94241
:1023500012D281680906F5D439E000BF8168090608
:1023600035D58168090632D58168090644BF816880
:102370005FEA01612BD5F1E7416821F0E00141609E
:102380006168B1F5827F0AD1A168B1F5004F02D032
:10239000B1F5806F03D1016821F040010160A16AAD
:1023A000B1F5005F07D1016821F4005101600168B7
:1023B00041F400510160012184F85110002184F89A
:1023C0005010616D41F02001616520216165A168B7
:1023D00031B900210091C168009180680090009897
:1023E000606D002818BF0120002184F8518084F816
:1023F000501001B0BDE8F083411E0020B0EB116F1A
:102400001CBF012070474EF21002CEF20002516054
:102410004EF62351CEF20001F0230B70072190609D
:1024200011607047704700007047000090F83C2032
:10243000012A04BF02207047B0B501F108053CCD68
:10244000D1E900CE23F47C5322F470521A432EF4C7
:10245000F0431A432CF4E0431A4324F4C0431A43D4
:102460002A43C96922F48042036811435964002158
:1024700080F83C100020B0BD90F83C20012A4FF0BD
:10248000020219D080B580F83D2002685368D2F866
:1024900008C091E8024023F0700319432CF0800338
:1024A00043EA0E03516093600121002280F83D1041
:1024B00080F83C20BDE8804010467047006801F07D
:1024C0001F010422036A02FA01F123EA01020262F7
:1024D000026A11430162416C41F400414164816828
:1024E00001F00701062903D0016841F001010160F4
:1024F00000207047006801F01F010422036A02FAFD
:1025000001F123EA01010162016A0162026A41F2FA
:1025100011110A4204D1026A40F244431A4205D022
:10252000026A0A4209D00020704700BF426C22F4C0
:1025300000424264026A0A42F5D1016A40F2444212
:102540001142F0D1016821F00101016000207047C3
:10255000002804BF0120704710B590F83D1031B934
:10256000002180F83C10044600F056F82046022175
:1025700080F83D10016840F2FF740B68C4F200045B
:1025800042F6004CA142C4F2010C15DCB1F1804FBF
:102590001AD040F20042C4F20002914214D0A1428B
:1025A00018DCB1F1804F1DD040F20042C4F20002AD
:1025B000914217D01AE000BF614505D040F60002F5
:1025C000C4F200029142EAD1826823F070031343FF
:1025D000A142E6DD614505D040F60002C4F20002EA
:1025E000914203D1026923F440731343846923F0B9
:1025F0008002D0F804E0C368224361450A60CB62E0
:10260000C1F828E002D14269CCF8302001224A61A9
:1026100080F83D20002010BD80B582B0006840F2F7
:102620000041C4F20001884214D042F60041C4F2D5
:10263000010188420CD141F21800C4F20200016885
:1026400041F400610160006800F4006001900198AD
:1026500002B080BD41F21800C4F2020041680022BD
:1026600041F0020141604068002100F0020000904A
:1026700000981D20FFF7DAF81D2002B0BDE8804069
:10268000FFF7C2B80068C16841F00101C16081680C
:1026900001F00701062903D0016841F00101016042
:1026A0000020704790F83C20012A4FF0020248D0E9
:1026B00080B580F83D20D0F800C04FF67772DCF886
:1026C000083023EA0202CCF808200B683F2B1DDDFE
:1026D0005F2B39DD602B5BD0B3F5005F00F0988095
:1026E000702B26D1D1E901E3C968DCF8082043EA60
:1026F0000E0322F47F4243EA01211143CCF8081073
:10270000DCF8081041F0770111E000BF1F2B03DC5B
:1027100033B1102B04D00CE0202B01D0302B08D18A
:10272000DCF8081021F07001194341F00701CCF8E2
:1027300008100121002280F83D1080F83C20BDE8FF
:1027400080401046704700BF402B41D0502BF0D145
:10275000D1F804E0C968DCF82030DCF8202022F051
:102760000102CCF82020DCF8182022F0F00242EA26
:10277000011123F00A0242EA0E02CCF81810CCF83C
:102780002020DCF8081041F0570121F02001CEE7AD
:10279000D1F804E0C968DCF8203023F01003CCF84D
:1027A0002030DCF81830DCF8202023F4704322F0CD
:1027B000A00243EA013142EA0E12CCF81810CCF81C
:1027C0002020DCF8081041F0670121F01001AEE78D
:1027D000D1F804E0C968DCF82030DCF8202022F0D1
:1027E0000102CCF82020DCF8182022F0F00242EAA6
:1027F000011123F00A0242EA0E02CCF81810CCF8BC
:102800002020DCF8081041F0470121F030018EE76C
:10281000D1E901E3C968DCF8082043EA0E0322F499
:102820007F4243EA01211143CCF80810DCF808107C
:1028300041F480417BE70000002804BF012070477D
:102840002DE9F04F81B090F83D2042B9002280F888
:102850003C2004460D4600F08BF829462046022213
:1028600080F83D20026844F20705936842F6004C68
:10287000AB43936040F2FF731468C4F200039A42C2
:10288000C4F2010C14DCB2F1804F19D040F20045C3
:10289000C4F20005AA4213D09A4217DCB2F1804F6D
:1028A0001CD040F20043C4F200039A4216D01AE052
:1028B000624505D040F60005C4F20005AA42EBD1FE
:1028C000856824F070042C439A42E7DD624505D008
:1028D00040F60003C4F200039A4204D1036924F4D1
:1028E000407543EA050424F080038469D0F804E0CD
:1028F000C568234362451360D562C2F828E002D15F
:102900004369CCF830304FF0010CC2F814C0956820
:102910009469D2F820E0D1E90038D1E9027B43EA9A
:10292000050A8D694FF6FF7924EA090447EA05256F
:102930004FF6FC47BD43D1E9077644EA0B040B6927
:102940002C4344EA07242EF02207496944EA031382
:1029500047EA080743EA063347EA0111C2F808A02C
:102960009361116280F83DC0002001B0BDE8F08F96
:1029700070B586B000680026B0F1804FCDE90466DE
:102980000396029602D006B070BD00BF41F2180057
:10299000C4F20200416840F6000441F001014160C8
:1029A0004168C4F2010401F001010191019901683B
:1029B00002AD41F004010160016801F004010191E0
:1029C0000199016841F0080101600068294600F0A2
:1029D0000800019001984FF40040CDE9020620461E
:1029E0000496FEF793FD0820CDE9020604F5806009
:1029F00029460496FEF78AFD0420C4F2010001680E
:102A00004FF6FF42CFF6FF02114041F0E06141F482
:102A10008071016006B070BD02680429106A0BD095
:102A200020F0010011B9012109E000BF1062106A15
:102A300040F001001062106A20F0100010211062B6
:102A4000106A08431062106840F001010020116014
:102A5000704700007047000010B50168044608691F
:102A6000800744BFC8685FEA807039D408694007AE
:102A700044BFC8685FEA40703ED40869000744BF9D
:102A8000C8685FEA007045D40869C00644BFC868DA
:102A90005FEAC0604AD40869C0071CBFC8685FEA23
:102AA000C07051D10869000644BFC8685FEA006081
:102AB00052D40869400644BFC8685FEA406053D4F6
:102AC0000869800646BFC8685FEA806010BD6FF085
:102AD000200220460A61BDE81040FFF7A5BC00BFF8
:102AE0006FF002000861012020778869800743D0D9
:102AF0002046FFF7AFFF45E06FF0040008610220B9
:102B00002077886910F4407F40D02046FFF7A2FF6D
:102B100042E000BF6FF00800086104202077C86918
:102B200080073DD02046FFF795FF3FE06FF0100093
:102B3000086108202077C86910F4407F3AD0204609
:102B4000FFF788FF3CE000BF6FF0010008612046FE
:102B500000F04AFA2168A5E76FF08000086120467E
:102B6000FFF760FC2168A4E76FF040000861204691
:102B700000F0FAFB2168A3E7204600F067F8204642
:102B800000F0CCF92168002020776FE7204600F0A4
:102B90005DF8204600F0C2F92168002020776CE73C
:102BA000204600F053F8204600F0B8F921680020D4
:102BB000207769E7204600F049F8204600F0AEF99A
:102BC00021680020207766E770B586B040F60004E3
:102BD000C4F20104006804F5105188424FF000006F
:102BE000CDE90400CDE9020002D006B070BD00BFFF
:102BF00041F21800C4F20200016802AD41F0080180
:102C000001600168022601F0080101910199016843
:102C100041F0040101600068294600F004000190C1
:102C200001984FF4C040029004F580600396059629
:102C3000FEF76CFC4FF44070CDE9020620462946B1
:102C40000596FEF763FC06B070BD000070470000FB
:102C500090F83C30012B4FF0020300F0F6804FEA71
:102C6000B202032A80F83D3000F2E9802DE9F043FA
:102C7000DFE802F002A43A74036842F600461A6ADA
:102C8000C4F2010622F001021A621D6A1A465C684B
:102C900052F818CFB3428E68D1F800E025F0020553
:102CA00045EA06050CD1CE68D1E9057824F44074D4
:102CB00025F00C0526F004063C43354344EA08049D
:102CC0002CF0730747EA0E075C609F614F68096943
:102CD0005F631D629F6947F008079F619F6927F046
:102CE00004079F61A6E000BF036842F600461A6A27
:102CF000C4F2010622F480721A621D6A1A46D3F8E1
:102D000004C052F81CEFB3428E680C6825F40075BD
:102D100045EA06250FD1CE68D1E90598360240F282
:102D2000FF4725F44065BE4335432CF4405748EA3D
:102D3000090647EA061C2EF073072743C3F804C0B0
:102D4000DF614F680969DF631D62DF6947F00807CB
:102D5000DF61DF6927F00407DF616BE0036842F69B
:102D600000471A6AC4F2010722F480521A621A4616
:102D7000D3F820C05D6852F81C4FD1F800E08E688F
:102D8000BB4204D14F6925F4804545EA87152CF4F0
:102D9000005747EA063724F4E64646EA0E265D6009
:102DA000DE614E6809691E641F62DF6947F40067CF
:102DB000DF61DF6927F48067DF613AE0036842F68C
:102DC00000461A6AC4F2010622F010021A621D6A55
:102DD0001A46D3F804C052F8184FB3428E68D1F89F
:102DE00000E025F0200545EA06150FD1CE68D1E9AF
:102DF00005986FF0400725F0C00507EA0616354331
:102E00002CF4406748EA090647EA860C24F4E644B5
:102E100044EA0E27C3F804C09F614F6809699F63A5
:102E20001D629F6947F400679F619F6927F480676F
:102E30009F610902136819431160BDE8F043012145
:102E4000002380F83D1080F83C30184670470000A1
:102E5000002804BF0120704710B590F83D1031B92B
:102E6000002180F83C10044600F056F8204602216C
:102E700080F83D10016840F2FF740B68C4F2000452
:102E800042F6004CA142C4F2010C15DCB1F1804FB6
:102E90001AD040F20042C4F20002914214D0A14282
:102EA00018DCB1F1804F1DD040F20042C4F20002A4
:102EB000914217D01AE000BF614505D040F60002EC
:102EC000C4F200029142EAD1826823F070031343F6
:102ED000A142E6DD614505D040F60002C4F20002E1
:102EE000914203D1026923F440731343846923F0B0
:102EF0008002D0F804E0C368224361450A60CB62D7
:102F0000C1F828E002D14269CCF8302001224A61A0
:102F100080F83D20002010BD704700007047000081
:102F2000006801F01F010122036A8A4023EA0201BE
:102F30000162036A42F64441C4F201011A43A1F15D
:102F400044039842026207D0816801F00701062914
:102F50000BD10020704700BF0A6842F400420A60AB
:102F6000816801F007010629F3D0016841F00101F1
:102F700001600020704700000246006801F01F0158
:102F800001238B40016A42F6004C99430162C4F26E
:102F9000010C016A604501620ED1DCF8201041F29B
:102FA0001113194208D1016A40F24443194203D176
:102FB000416C21F400414164016A41F2111319424C
:102FC00004D00121002082F83D107047016A40F2D0
:102FD00044431942F5D1016821F00101016001214A
:102FE000002082F83D1070472DE9F04F81B040F28B
:102FF000380BC2F2000BBBF82600FDF79CF943F238
:103000003336C4F253063146FDF7E4F84FF20007B9
:10301000C4F27F573946FDF70FF90025C4F2301589
:103020002946FDF7D7F8BBF8241081460846FDF77E
:1030300082F93146FDF7CEF83946FDF7FDF829460D
:10304000FDF7C8F8BBF82810BBF802208046881AA4
:10305000FDF768F93146FDF7BDF83946FDF7ECF8A4
:103060000021C4F24011FDF7E7F84CF63A41C3F6EF
:103070009741FDF7E1F800210646FDF729F94CF6E6
:10308000CD4AC3F64C6A002818BF0026DBF80C4076
:1030900048465146FDF79EF84CF6CD49C3F64C79AB
:1030A000074620464946FDF795F83946FDF73AF8B8
:1030B0000446DBF81070CBF80C0040465146FDF793
:1030C00089F8054638464946FDF784F82946FDF754
:1030D00029F88046DBF81450CBF8100030465146F2
:1030E000FDF778F8064628464946FDF773F831465D
:1030F000FDF718F89BF80010CBF8140091B30546C3
:1031000020464FF08041FDF7F1F8002866D19BF88A
:10311000010001281FD142F63440C4F2010000250D
:103120000560382040F2E814C4F20000C2F2000446
:10313000056020460021FFF71FFF20460021FFF712
:10314000D9F920460421FFF717FF20460421FFF795
:10315000D1F98BF8015000208BF8000001B0BDE8D8
:10316000F08F00BF40F20401C2F200010022CA60E9
:103170004FF07C528A6140F2F41142F63440C0F2C2
:10318000F411C4F20100CBF804104FF4FA7101609D
:1031900041609BF80110012940F0E28000250560A4
:1031A000382040F2E814C4F20000C2F200040560C6
:1031B00020460021FFF7E0FE20460021FFF79AF9A4
:1031C00020460421FFF7D8FE20460421FFF792F99C
:1031D0008BF8015001B0BDE8F08F00BF0021C4F2B0
:1031E000A0012846FDF790F89BF80140002863D124
:1031F000DBF818000021C4F22021FDF75BF800285D
:103200005AD0C4B940F2E814C2F2000420460021AA
:10321000FFF786FE20460021FFF750F920460421E3
:10322000FFF77EFE20460421FFF748F9DBF8108007
:1032300001208BF8010040F2040AC2F2000A9AE869
:103240001102DAF80C604146FCF7BEFF054648461D
:103250002946FCF7BFFF41F26F21C3F68321FCF73B
:10326000B9FF3146FCF75EFF0646CAF80C0020465F
:103270002946FCF7AFFF3146FCF754FFDAF814702B
:1032800004463946FDF716F8D0B928460021FDF767
:1032900011F8B0B948462946FCF79CFF41F26F216E
:1032A000CBF68321FCF796FF01463046FCF73AFF48
:1032B0000646CAF80C0004E0002C7FF42CAF4AE765
:1032C0002746DAF8104038462146FDF70FF8A8B92E
:1032D00028460021FDF70AF878B948462946FCF748
:1032E00079FF41F26F21CBF68321FCF773FF014692
:1032F0003046FCF717FFCAF80C00274649F69A112A
:10330000C3F619613846CAF81870FCF7E1FF49F6B0
:103310009A1100281CBF49F69A17C3F61967C3F61D
:1033200059713846FCF7F0FF002100281CBF49F610
:103330009A17C3F65977C4F27A413846FCF74AFF28
:10334000FDF717F842F63442ABF80400C0F57A7185
:1033500080B2C4F20102ABF80610106088B250606F
:1033600001B0BDE8F08F000070470000FEE70000EC
:103370002DE9F04F89B040F23800C2F20000C46875
:10338000002120464FF0000BFCF7B0FF0021002881
:103390004FF03F46C4F2C82120464FF03F4918BFC6
:1033A0004FF07C56FCF716FF3146FCF7BBFEFCF7EE
:1033B000C7FF48F21F580346C5F2EB1845F26226D4
:1033C000002848BF4342A3FB081245F26127C0F61C
:1033D0000006C0F60007314652094FF0640A002883
:1033E00002FB1A3348BF394645F2512703ACC0F6F9
:1033F00000072046009700F0D3FF372016215A22FD
:103400000C23CDF800B000F0BFF940F22800C2F262
:103410000000D0E9003040F2FF71CDE90001372013
:1034200016212246CDF808B000F0B6FA40F2380076
:10343000C2F20000076900213846FCF757FF00215F
:1034400000284FF03F453846C4F2C82118BF4FF05E
:103450007C55FCF7BFFE2946FCF764FEFCF770FFC5
:103460000346002848BF4342A3FB081200284FEA46
:10347000521245F26120314602FB1A33C0F60000B9
:1034800045F2512748BF01462046C0F60007009785
:1034900000F086FF372028215A220C23CDF800B0F7
:1034A00000F072F940F22800C2F20000D0E90030CA
:1034B0004FF4FC61CDE90001372028212246CDF8E8
:1034C00008B000F069FA40F23800C2F20000456925
:1034D00000212846FCF70AFF002100284FF03F4753
:1034E0002846C4F2C82118BF4FF07C57FCF772FE83
:1034F0003946FCF717FEFCF723FF0146002848BFBA
:103500004142A1FB082300284FEA531245F26120F3
:1035100002FB1A13C0F6000048BF06466FA72046FC
:103520003146009700F03CFF37203A215A220C2305
:10353000CDF800B000F028F940F22800C2F20000F7
:10354000D0E900304FF6E071CDE9000137203A2193
:103550002246CDF808B000F01FFA40F23800C2F25F
:103560000000856900212846FCF7C0FE40F20008F3
:10357000C4F2201800284FF03F462846414618BFA5
:103580004FF07C56FCF726FE3146FCF7CBFDFCF7EE
:10359000D7FE4CF6CD4A0346CCF6CC4A002848BFAD
:1035A0004342A3FB0A1245F25526D208C0F6000694
:1035B000002802EB820045F254273146A3EB40037A
:1035C00047A52046C0F6000748BF3946009500F0E1
:1035D000E7FE37204C215A220C23CDF800B000F032
:1035E000D3F840F22800C2F20000D0E900304FF6D4
:1035F0001F01CDE9000137204C212246CDF808B04B
:1036000000F0CAF940F20400C2F20000056800218F
:103610002846FCF76BFE00282846414618BF4FF0AD
:103620007C59FCF7D7FD4946FCF77CFDFCF788FE8A
:103630000146002848BF4142A1FB0A23DA080028BE
:1036400048BF3E4602EB820045F25127A1EB400302
:1036500020463146C0F60007009700F0A1FE372053
:103660005E215A220C23CDF800B000F08DF840F214
:103670002805C2F20005D5E900304FF6FF71CDE90B
:10368000000137205E212246CDF808B000F084F911
:10369000372070215A220C23CDF800B000F074F8C6
:1036A00040F23800C2F200000178D5E9003000276E
:1036B00031B14FF4FC61CDE900010AA205E000BF81
:1036C0004FF4784108A2CDE900013720702102971C
:1036D00000F062F909B0BDE8F08F00BF20410000A2
:1036E000204300004F4E00004F464600FEE700001A
:1036F00070470000704700002DE9F04782B0047861
:10370000002C3DD040F6004940F2901AC4F2010965
:10371000451CC2F2000A0DF1070802E0013C200638
:103720002ED015F8020B01218DF807004846002223
:10373000FDF7F6FF5046414601224FF0FF33FEF7FA
:1037400037FD15F8016C16F07F070CD048460121B3
:103750000122FDF7E5FF504629463A464FF0FF3378
:10376000FEF726FD3D4470B2B0F1FF3FD6DC15F800
:10377000010BFF2808BF4FF4FA70FDF799FECDE763
:1037800002B0BDE8F08700009F2898BF7F2901D9CB
:10379000704700BF2DE9F04381B0904640F60046E7
:1037A00002449946C4F20106A02A03EB0102089DD7
:1037B00088BFC0F1A008802A88BFC1F180090446F3
:1037C00030460F464FF480610022FDF7A9FF08EB59
:1037D000040009EB070101380139C2B2CBB2E0B2F3
:1037E000F9B200F06FF868BA5FEA0941ADF802007B
:1037F00018BF5FEA08401BD040F29017C2F20007E2
:103800000DF10205444600BF304601210122FDF7BB
:1038100087FF3846294602224FF0FF33FEF7C8FCE7
:10382000013C2004F0D1A9F101095FEA0940E9D186
:1038300030464FF480610122FDF772FF01B0BDE810
:10384000F043704780B582B0844600200021A0225A
:103850008023CDF800C0FFF797FF02B080BD0000C5
:1038600010B540F60044C4F2010420464FF48061D4
:103870000022FDF755FF204602210022FDF750FFF0
:103880000520FDF715FE204602210122FDF748FF25
:1038900045F2DE10C0F60000FFF72EFF45F21920BA
:1038A000C0F60000FFF728FF45F22620C0F6000012
:1038B000FFF722FF20464FF480610122BDE810404F
:1038C000FDF72EBF2DE9F04782B040F6004A0746CB
:1038D0002A20C4F2010A164689468DF80500504692
:1038E0000121002298460024FDF71AFF40F29015AE
:1038F000C2F200050DF10501284601224FF0FF3309
:10390000FEF756FC5046012101228DF801408DF84A
:1039100002708DF803408DF80460FDF701FF0DF192
:1039200001062846314604224FF0FF33FEF740FCE3
:103930002B208DF80600504601210022FDF7F0FEF5
:103940000DF10601284601224FF0FF33FEF730FC4F
:103950005046012101228DF802908DF80480FDF778
:10396000DFFE2846314604224FF0FF33FEF720FCED
:103970002C208DF80700504601210022FDF7D0FED3
:103980000DF10701284601224FF0FF33FEF710FC2E
:1039900002B0BDE8F08700002DE9F04F89B007467E
:1039A00040F6004015468A46C4F201004FF480619B
:1039B00000221C46FDF7B4FE2B78002B00F0D080CF
:1039C000C4F307202A4600285FFA84F9079000F024
:1039D0008580B9F1000F4FEA1420029000F09E801C
:1039E000DDE9131040F290154FEA11284FEA102B31
:1039F000C2F200050DF1220601940AE0049FDDF8F1
:103A000014A0019C039A4F4412F8013F002B00F0D0
:103A1000A780B8B248449F280CD907998A441FFA56
:103A20008AF001447F2900F29B80202B4FF0000791
:103A3000EAD001E01FFA8AF00392029AE1191044D9
:103A400001390138CAB21C46C3B2F8B25FFA8AF132
:103A50000497CDF814A0FFF735FF0799A4F12000D3
:103A600048431299002701EB4000069004E000BF94
:103A7000079801378742C1D006984FF0000A30F806
:103A8000174017E0149801218DF8210040F60040FE
:103A9000C4F2010001228DF820B0FDF741FE284656
:103AA00008A902224FF0FF33FEF782FB0AF1010A58
:103AB000D145DDD004FA0AF00004E3D513980121C2
:103AC0008DF8230040F60040C4F2010001228DF879
:103AD0002280FDF725FE28463146E2E7AAF10100E3
:103AE000561CC5B20DE000BFE0190138C2B2F8B2F1
:103AF0005FFA8AF12B46FFF7E5FE4F4416F8013BCB
:103B000073B3B8B24844A028EED3BAF17F0F27D8D8
:103B1000202B4FF00007E7D1F0E700BF551C0FE066
:103B20001FFA8AF002997A1E08440138C3B2F8B22B
:103B30005FFA8AF1D2B2FFF7C5FE15F8013B7BB1FF
:103B4000B8B29F28ECD907998A441FFA8AF0014439
:103B50007F2905D8202B4FF00007E3D1EDE700BF08
:103B600040F60040C4F201004FF480610122FDF7ED
:103B7000D7FD09B0BDE8F08F70470000FDF7DCBD50
:103B800041F20000C4F202000168002241F001018C
:103B900001604168CFF6FF021140416001684FF6B5
:103BA000FF72CFF6F66211400160016821F48021B6
:103BB0000160416821F4FE0141604FF41F01816002
:103BC0004EF60850CEF200004FF0006101607047E1
:103BD00040F22820C2F20000FEF73EBFFEE70000E0
:103BE0002DE9F04F81B0054610440138A84201DDAF
:103BF0007F2903D901B0BDE8F08F00BF481C40F613
:103C0000004698464FEA132BC4F20106A2F10109BF
:103C1000CFB2C4B20DF1020A05E000BFB9F101094B
:103C200005F10105E6D0A8B29F28F7D830464FF439
:103C300080610022FDF774FD691CE8B2CAB2394602
:103C40002346FFF73FFE3046012101228DF802B0E6
:103C50008DF80380FDF764FD40F29010C2F2000081
:103C6000514602224FF0FF33FEF7A2FA30464FF4DE
:103C700080610122FDF754FDD0E700002DE9F041FD
:103C800084B0032040F2940501900720C2F20005A1
:103C90004FF00108039001A92846CDF80880FCF7F1
:103CA00037FE2846FDF7F8F828460A21FDF706F802
:103CB0002846FCF7E1FE06462846FDF769FAB0B251
:103CC000FCF739FB43F23335C4F253052946FCF7C0
:103CD00081FA4FF20001C4F27F51FCF7ADFA4DF2C8
:103CE0000A71C3F623410646FCF7F2FA48F65C7106
:103CF00000281CBF4DF20A76C3F62346C4F25201D7
:103D00003046FCF701FB44F20007C4F21C670028B0
:103D10001CBF48F65C76C4F2520630463946FCF7C2
:103D200059FA044628463146FCF74EFA0146204629
:103D3000FCF782FA3946FCF77FFA00F09DFD4EF25F
:103D40000001C4F27651FCF777FA4CF60F71C3F616
:103D50005B31FCF7E7F901464FF07E50FCF76CFA57
:103D600049F23331CCF28831FCF7DCF949F69A118B
:103D7000C4F20121FCF7D6F940F23806C2F200067F
:103D8000B4694FF07C51FCF725FA054620464FF008
:103D90007C51FCF71FFA2946FCF7C4F90021C4F254
:103DA00070210546B061FCF7A1FA40B90021C4F2C8
:103DB00048212846FCF79AFA50B94FF0000841F222
:103DC0000000C4F201004FF400414246FDF7A8FC98
:103DD00004B0BDE8F081000098B0FDF7BBFC0027FF
:103DE0004FF480300121CDE9010708904FF4E01035
:103DF000CDE90577CDE9037700910491022109907F
:103E000068461797CDE9157707910224FDF73AFF29
:103E10000F200AA991C14FF48060CDE90D070AA8CF
:103E20000221FDF73DFE4FF40040169014A81494B3
:103E30004FF00208FDF7B2FD41F21805CDE9027717
:103E4000CDE90077C4F20205286840F6004B40F047
:103E5000100028602868C4F2010B00F010000A90DE
:103E60000A9828680BF5806440F0200028602868D4
:103E70004FF4604100F020000A900A982868002260
:103E800040F00400286028684FF4604900F0040006
:103E90000A900A98286840F008002860286800F016
:103EA00008000A900A982046FDF73AFC584640F26E
:103EB0000341002240F2034AFDF732FC6E46CDF882
:103EC00000904FF0010920463146CDE90197CDF829
:103ED0000C80FDF71BFB58463146CDE900A9CDE922
:103EE0000278FDF713FB102000900020C1F21100B2
:103EF000CDE9010758463146FDF708FB0A200021AD
:103F000000220A24FDF792FC0A20FDF77DFC55F8FB
:103F1000040C002140F0010045F8040C55F8040C95
:103F2000002200F00100009000980B20FDF77EFCBD
:103F30000B20FDF769FC0D2000210022FDF776FC27
:103F40000D20FDF761FC40F290100BF51051C2F20C
:103F500000004FF4007308264FF4827280E8860058
:103F6000C0E90377C0E90573C0E90767C0E90977CD
:103F7000C462FEF787F840F238040BF5C050C2F275
:103F8000000444F82C0F4FF48070C4E90170032042
:103F900001264FF460292061204626732775C4F856
:103FA0001C904FF0030BFCF76BFDCDE900766E46DD
:103FB0004FF0060A204631464FF00108CDF808A020
:103FC000FCF7A6FC022520463146CDF8008001957D
:103FD000FCF79EFC20463146CDE9005B4FF003081C
:103FE000FCF796FC40F6004BC4F2010B40F294053E
:103FF0000BF5E050C2F20005C5E900070124284690
:104000002F732F75C5F81C90AF602C61FCF738FD3D
:1040100069462846CDE900844FF00109CDF808A093
:10402000FCF776FC40F2E8160BF50050C2F20006F1
:1040300060244FF47A71C6E9000730461797CDE93E
:104040001577139712940697DA46C6E90271C6E906
:104050000477B761FEF77CFA4FF4805814A9304614
:10406000CDF85080FEF71EFB3046FEF7F1FE12A998
:104070003046FEF701FACDE90A470AAC3046214640
:104080000022CDE90C77CDE90E771097FEF7E0FD21
:10409000304621460422FEF7DBFD70200A900A20FC
:1040A0000B90304621460822FEF7D2FD1920CDE9BB
:1040B00003074FF40050059069463046CDE900777C
:1040C00002970797FEF7B2F93046FEF77DFD4FF0F5
:1040D000804045F8300F4FF6FF70C5E90307032015
:1040E0008DE8810240F2380B69462846CDE90A770F
:1040F000C5E90177AF61CDE90377CDE90579C2F272
:10410000000BCDE90777FEF797FB0AA92846FEF7D3
:10411000B3F940F22825AAF58430C2F20005472100
:1041200085E883004FF47A70C5E9030728460397B2
:10413000CDE90177CDE90A77AF61FEF709FA694663
:104140002846CDF80080FEF7ADFA0AA92846FEF70A
:1041500093F9FCF77DFA4CF6CD4500264CF6CD4A96
:10416000C3F6CC55C4F2F016CBF6CC5A40F294000C
:10417000C2F20000006B406ABBF80810ABF8080000
:10418000411ADBF8200009B200EB010840F20400FC
:10419000C2F200000468B8F1040FCBF8208021DBE4
:1041A000A8F1040B012101EB9B0111F003076BD077
:1041B00020462946FBF7B6FF31460446FCF7A4F833
:1041C00000281CBF0024C4F2F014012F64D1D8468B
:1041D000D946BBF10C0F40F2380BC2F2000B80F055
:1041E0008580C5E018F1040F00F3C98020465146D0
:1041F00008F10409FBF796FF4FF07E510446FCF7E7
:1042000067F8002818BF4FF07E5418F1080F00F22D
:10421000AF802046514608F10807FBF783FF4FF0B7
:104220007E510446FCF754F8002818BF4FF07E5426
:1042300019F1080F00F2988020465146FBF772FFF3
:104240004FF07E510446FCF743F8002818BF4FF0AA
:104250007E5417F1080F00F289802046514608F17C
:104260001009FBF75FFF4FF07E510446FCF730F872
:10427000002808F10C0118BF4FF07E5411F1070F10
:10428000C846B3D374E000BFBBF10C0F40F2380B4B
:10429000C2F2000B2AD26BE020462946FBF742FF10
:1042A00031460446FCF730F800281CBF0024C4F255
:1042B000F014022F02D1A8F108080EE0204629468A
:1042C000A8F10C08FBF72EFF31460446FCF71CF85A
:1042D00000281CBF0024C4F2F014C146BBF10C0F2F
:1042E00040F2380BC2F2000B42D300BF20462946F1
:1042F000FBF718FF31460446FCF706F800281CBF00
:104300000024C4F2F01420462946FBF70BFF314687
:104310000446FBF7F9FF00281CBF0024C4F2F01488
:1043200020462946FBF7FEFE31460446FBF7ECFF2C
:1043300000281CBF0024C4F2F01420462946A8F12E
:104340001009FBF7EFFE31460446FBF7DDFF0028BE
:10435000A8F114011CBF0024C4F2F01411F1080FDD
:10436000C846C3D304E000BFB94601E008F10C0918
:1043700040F20401C2F20001CBF820900C60FDF77E
:10438000D5F9DBF81C10401AC828FFF4EFAEFDF792
:10439000CDF9CBF81C00FFF771FCFEF7E9FFE5E66D
:1043A0000FB4084B10B504A902AA039800F02EF828
:1043B000044602A9002000F05AFA204610BC5DF81D
:1043C00014FB00006F48000800214FF07E50FBF7FF
:1043D00033BF0121FCF749B800210846FBF72CBF89
:1043E00002E008C8121F08C1002AFAD170477047BE
:1043F000002001E001C1121F002AFBD1704700001C
:104400000149086070470000000000202DE9FF4FBF
:104410008DB00F460546002606E025280BD0DDE9C5
:104420000F1290476D1C761C28780028F5D111B02A
:104430003046BDE8F08F0024A246A1460122EC4997
:1044400000E0044315F8013F203B02FA03F0084264
:10445000F7D128782A2810D06FF02F022878A0F101
:104460003001092914D80AEB8A0102EB410144F01A
:10447000020400EB010A6D1CF0E701CF5FEA000ABD
:1044800003D544F40054CAF1000A44F002046D1C40
:1044900028782E2817D115F8010F44F004042A2893
:1044A0000ED06FF02F022878A0F1300109290AD828
:1044B00009EB890102EB410100EB01096D1CF2E7F8
:1044C00057F8049B6D1C28786C280FD006DC4C280C
:1044D00017D068280DD06A2814D104E0742810D0B1
:1044E0007A280FD10DE044F400140AE044F480145B
:1044F00001E044F440146978814202D104F580144B
:104500006D1C6D1C2A786E2A1FD00CDC632A31D0FA
:1045100004DC002A8BD0582A11D1A3E0642A68D089
:10452000692A0CD165E0732A2ED004DC6F2A73D07F
:10453000702A04D19BE0752A6FD0782A6ED010467D
:10454000DDE90F129047761C50E1C4F302500228B7
:1045500006D0032809D0042801CF09D0066045E120
:1045600001CFF117C0E9006140E101CF06803DE1D4
:1045700006703BE117F8040B8DF8000000208DF861
:104580000100EB46012003E057F804BB4FF0FF3079
:1045900061074FF0000102D40DE008F101018846E7
:1045A00049450FDA8045F8DB1BF808100029F4D1E3
:1045B00008E008F1010188468142FADB1BF8081087
:1045C0000029F6D1DDE90F23AAEB08008146214638
:1045D00000F036F9304400EB080604E0DDE90F1284
:1045E0001BF8010B9047B8F10108F7D22146484665
:1045F000F7E00A21C4F302534FF0000B0891022B9D
:1046000004D001CFC117032B09D00AE0FF1D27F00A
:104610000707F7E8020108E032E01FE020E000B2FF
:10462000C117042B01D140B2C117031E71F1000361
:1046300007DA4FF0000CD0EB0C006CEB01012D23DE
:1046400002E0230504D52B238DF82430012303E059
:10465000E30701D02023F7E7984658E00A2110E04D
:1046600010210EE010204FF0000B08900CE01021FC
:104670004FF0000B44F004044FF00809089103E0E8
:1046800008214FF0000B0891C4F30253022B04D011
:1046900001CF0021032B06D006E0FF1D27F00707FE
:1046A000F7E8020103E080B2042B00D1C0B24FF062
:1046B000000823072BD5702A07D0DDF820C08CF026
:1046C000100C5CEA0B0C05D00EE040238DF8243072
:1046D000012308E050EA010306D030238DF824308E
:1046E0008DF8252002239846DDF820C08CF0080CB8
:1046F0005CEA0B0C0BD150EA010301D1630706D52C
:1047000030238DF824304FF00108A9F10109582A0F
:1047100004D038A20B9208AA0A920BE03AA2F9E759
:104720005B46089AFBF739FE0B9B9B5C0A9A521E6C
:104730000A92137050EA0102F2D10A98ADEB000020
:1047400000F1200B600702D524F4803401E04FF023
:104750000109D94502DDA9EB0B0000E0002000EBC8
:104760000B0141440890AAEB010AE00306D4DDE9FD
:104770000F232146504600F063F806444FF000092D
:1047800008E009A911F80900DDE90F12904709F1C5
:104790000109761CC145F4DBE0030CD5DDE90F23EC
:1047A0002146504600F04CF8064404E0DDE90F12C3
:1047B00030209047761C0899481E08900029F5DCA7
:1047C00008E00A980A990078491C0A91DDE90F125D
:1047D0009047761CBBF10001ABF1010BF1DC2146E7
:1047E0005046DDE90F2300F019F806446D1C1BE666
:1047F00009280100303132333435363738396162B7
:10480000636465660000000030313233343536377A
:104810003839414243444546000000002DE9F0414B
:10482000044600251E461746880404D405E0394690
:104830002020B0476D1C641EF9D52846BDE8F081E4
:104840002DE9F041044600251E469046C80301D5D7
:10485000302700E02027880404D505E0414638468B
:10486000B0476D1C641EF9D52846BDE8F0810A6882
:10487000531C0B60107070472DE9F0410026A0F525
:104880000001B1F1FE4F7DD200F500226FF07E01F4
:1048900001EBE251C2F3025477184FF07E52A0EBC5
:1048A000C15602EB045557EA040047D0294630466A
:1048B000FBF738FC804629463046FBF785FC41462D
:1048C000FBF7BAFC05460146FBF784FC80464549E8
:1048D000FBF780FC4449FBF725FC06464146284689
:1048E000FBF778FC3146FBF775FC06463846FBF7CC
:1048F00019FD07463D49FBF76DFC3D49794451F8E8
:104900002410FBF70FFC3146FBF70CFC0646012197
:104910002846FBF7AAFD3146FBF704FC054638465E
:104920003449FBF757FC3449794451F82410FBF71C
:10493000F9FB2946BDE8F041FBF7F4BB4FF07E518F
:104940003046FBF741FC05462C49FBF743FC2C495C
:10495000FBF7E8FB2946FBF73DFC2A49FBF7E2FBA6
:104960002946FBF737FC6FF08241FBF7DBFB04467F
:1049700029460846FBF72EFC2146FBF72BFC014697
:10498000284600E003E0BDE8F041FBF7CBBB4FF069
:104990007F42B2EB400F03D2BDE8F041FFF719BDF3
:1049A000B0F1FF4F08BFBDE8F081B0F1004F06D96C
:1049B0000120FFF725FDBDE8F041FFF70DBD30F008
:1049C000004105D06FF016061721FBF74EFD5BE79F
:1049D0000220FFF715FDFFF7F7FC80F00040BDE86F
:1049E000F081000066F1CC3EAAAA2A3FF4FD05380A
:1049F000280100000070313FDC00000021ED423E44
:104A00000A1180BEC1ABAA3E000000000030F13D9B
:104A10000070643E0000A33E0090CF3E0090F83E40
:104A200000400F3F00E0203F0000000015B7833733
:104A3000CDE37B380EE1C53860F69138AF5F0F38B3
:104A4000E1BC3E3823F447390102000000000000B9
:104A5000000001020304060708090000000001022B
:104A6000030400000000000000000000000000003F
:104A700000000000000000100010001000100010E6
:104A8000001000000010000000000028002800288E
:104A900000000000000000000000000000000024F2
:104AA0000024007C00240048007C004800480000EE
:104AB0000000003800540050003800140054005426
:104AC000003800100000002000540058003000287A
:104AD0000054001400080000000000100028002806
:104AE00000100034004800480034000000000010AE
:104AF0000010001000000000000000000000000096
:104B000000000008001000200020002000200020ED
:104B10000020001000080020001000080008000815
:104B200000080008000800100020001000380010E5
:104B3000002800000000000000000000000000004D
:104B4000000000100010007C0010001000000000A9
:104B50000000000000000000000000000000000055
:104B60000010001000100000000000000000000015
:104B700000380000000000000000000000000000FD
:104B8000000000000000000000100000000000080D
:104B9000000800100010001000100020002000008D
:104BA0000000003800440044005400440044004425
:104BB000003800000000001000300050001000100D
:104BC00000100010001000000000003800440044F5
:104BD0000004000800100020007C000000000038E5
:104BE00000440004001800040004004400380000E1
:104BF000000000080018002800280048007C000879
:104C0000000800000000007C004000400078000424
:104C10000004004400380000000000380044004058
:104C20000078004400440044003800000000007C8C
:104C300000040008001000100020002000200000E8
:104C400000000038004400440038004400440044A0
:104C50000038000000000038004400440044003CDC
:104C600000040044003800000000000000000010B4
:104C70000000000000000000001000000000000024
:104C800000000000001000000000000000100010F4
:104C9000001000000000000C003000400030000C4C
:104CA000000000000000000000000000007C000088
:104CB000007C000000000000000000000000006018
:104CC0000018000400180060000000000000003818
:104CD0000044000400080010001000000010000054
:104CE000000000380044004C0054005C00400040CC
:104CF00000380000000000100028002800280028CC
:104D0000007C00440044000000000078004400449F
:104D1000007800440044004400780000000000389F
:104D200000440040004000400040004400380000C3
:104D30000000007000480044004400440044004863
:104D4000007000000000007C00400040007C00403B
:104D500000400040007C00000000007C004000405B
:104D60000078004000400040004000000000003893
:104D7000004400400040005C004400440038000053
:104D80000000004400440044007C0044004400440F
:104D90000044000000000038001000100010001057
:104DA000001000100038000000000004000400049F
:104DB0000004000400040044003800000000004427
:104DC00000480050006000500048004800440000C7
:104DD0000000004000400040004000400040004013
:104DE000007C000000000044006C006C0054004493
:104DF00000440044004400000000004400640064DB
:104E000000540054004C004C0044000000000038E6
:104E100000440044004400440044004400380000C2
:104E20000000007800440044004400780040004046
:104E300000400000000000380044004400440044EA
:104E4000004400540038000400000078004400448E
:104E5000004400780048004800440000000000388A
:104E60000044004000300008000400440038000006
:104E70000000007C00100010001000100010001056
:104E800000100000000000440044004400440044BE
:104E90000044004400380000000000440044004486
:104EA0000028002800280010001000000000004426
:104EB0000044005400540054006C002800280000F6
:104EC00000000044002800280010001000280028DE
:104ED00000440000000000440044002800280010A6
:104EE00000100010001000000000007C000400080A
:104EF0000010001000200040007C0000000000189E
:104F00000010001000100010001000100010001021
:104F100000180020002000100010001000100008F1
:104F20000008000000000030001000100010001009
:104F300000100010001000100030001000280028A1
:104F4000004400000000000000000000000000001D
:104F50000000000000000000000000000000000051
:104F600000FE002000100000000000000000000013
:104F70000000000000000000000000380044003C79
:104F80000044004C00340000000000400040005885
:104F90000064004400440064005800000000000069
:104FA0000000003800440040004000440038000089
:104FB0000000000400040034004C00440044004C95
:104FC0000034000000000000000000380044007CB5
:104FD00000400044003800000000000C0010007C7D
:104FE0000010001000100010001000000000000071
:104FF00000000034004C00440044004C0034000425
:105000000078004000400058006400440044004420
:1050100000440000000000100000007000100010AC
:1050200000100010001000000000001000000070D0
:1050300000100010001000100010001000E00040F0
:10504000004000480050006000500048004400004C
:105050000000007000100010001000100010001080
:105060000010000000000000000000780054005410
:1050700000540054005400000000000000000058DC
:1050800000640044004400440044000000000000AC
:105090000000003800440044004400440038000090
:1050A0000000000000000058006400440044006458
:1050B000005800400040000000000034004C004454
:1050C0000044004C003400040004000000000058BC
:1050D000006400400040004000400000000000006C
:1050E0000000003800440030000800440038000090
:1050F0000000002000200078002000200020002078
:1051000000180000000000000000004400440044BB
:105110000044004C00340000000000000000004487
:1051200000440028002800280010000000000000B3
:105130000000005400540054006C002800280000B7
:1051400000000000000000440028001000100028AB
:10515000004400000000000000000044004400285B
:105160000028001000100010006000000000007C0B
:105170000008001000200040007C00000000001823
:10518000001000100010002000200010001000107F
:105190000018001000100010001000100010001087
:1051A0000010001000100030001000100010000867
:1051B0000008001000100010003000000000000087
:1051C0000074004C0000000000000000000002031A
:1051D0000405060708090A0B0C0D0E0F10100F012D
:1051E00080961180FFB103012C2DB203012C2DB349
:1051F00006012C2D012C2DB40107C003A20284C18D
:1052000001C5C2020A00C3028A2AC4028AEEC5018D
:105210000E20003601A03A0105022A040000007F9A
:105220002B040000007F04E010021C071237322913
:105230002D29252B3900010310E110031D07062E2F
:105240002C292D2E2E373F0000021013800A2980B2
:10525000642056002D256C642E2530316C64257336
:10526000002D256C642E2530326C642573000000FF
:10527000905200080000002038000000E0430008C1
:10528000C85200083800002038060000F04300082B
:10529000000000000000A0408FC2F53C000000406C
:1052A000000000009A99193E9A99593F0000003F6A
:1052B0000100000010000000070A0000624A000818
:0852C0000024F40000000000CE
:04000005080000ED02
:00000001FF
