:020000040800F2
:100000009015002001010008995300081D530008B5
:100010009553000861130008BD950008000000001A
:10002000000000000000000000000000895E0008E1
:10003000CD130008000000009D5300082D62000849
:100040001B0100081B0100081B0100081B01000820
:100050001B0100081B0100081B0100081B01000810
:100060001B0100081B0100081B010008B513000854
:100070001B010008C11300081B0100081B01000838
:100080001B0100081B0100089D0500081B0100085A
:10009000D97F00081B0100081B0100081B01000894
:1000A0001B0100081B0100081B0100081B010008C0
:1000B0001B010008816200081B0100081B010008E9
:1000C0001B0100081B0100081B0100081B010008A0
:1000D0001B0100081B0100081B0100081B01000890
:1000E0001B0100081B0100081B010008DFF80CD0F1
:1000F00000F0F2F900480047199A00089015002016
:100100000648804706480047FEE7FEE7FEE7FEE7B1
:10011000FEE7FEE7FEE7FEE7FEE7FEE731620008E6
:10012000ED00000810B5044604E00B7800F8013B30
:1001300003B1491C521EF8D2204610BD421C10F8D3
:10014000011B0029FBD1801A704710B5002200E086
:10015000521C835C8C5CA34201D1002BF8D1D8B235
:10016000E1B2401A10BD034611F8012B00F8012B33
:10017000002AF9D118467047F0B480EA0102D40F82
:100180004200B2EB410F02D20246084611464A0035
:1001900042D0C30DDDB2C1F3C752AD1A202D35DAFE
:1001A000C1F3160141F4000204B15242C5F1200628
:1001B00002FA06F12A411044B3EBD05F23D0C4B158
:1001C000012DA0EBC35009DCF0BC4FF0004202EA65
:1001D000C352DBB200F5000000F043B9400000F16B
:1001E000807000EBC350A0F1807040EAD1704900EC
:1001F00009E0490841EAC071A0EBC35000F50000D6
:10020000400800EBC350F0BC00F022B9614201226B
:1002100002EB4101001BF6E7F0BC704781F00041A2
:10022000AAE780F00040A7E780EA010210B502F0DB
:100230000043400022D04A001FD0010E01EB1261A2
:10024000C0F35600C2F3560240F4000042F400022C
:10025000A0FB022000047F39140400D0401C50EAA7
:10026000124001D44000491EC2B20C0604EBD0106B
:10027000401C4008802A02D003E0002010BD20F07E
:100280000100002900DA0020184310BD30B480EAD4
:10029000010202F0004530F0004221F0004013D08E
:1002A00090B1C30DD40DC2F31601C0F31600E41AC9
:1002B00041F4000140F400027D34914201D3641CFA
:1002C00000E04900002C02DA30BC002070474FF4F7
:1002D00000000023914201D3891A034340084FEAEA
:1002E0004101F7D151B1914202D14FF0004105E0F7
:1002F00002D24FF0010101E06FF0010103EBC450A5
:10030000284430BC00F0A4B8002801DBC0F1004054
:10031000002901DBC1F10041814201D80120704771
:1003200000207047002801DBC0F10040002901DBFC
:10033000C1F10041814201D2012070470020704785
:10034000002801DBC0F10040002901DBC1F10041C0
:10035000814201D30120704700207047002801DB53
:10036000C0F10040002901DBC1F10041814201D907
:100370000120704700207047C10F80EAE0700844F8
:10038000CA079623002100F06CB89623002211467C
:1003900000F067B800F0004220F00040C10DC0F34B
:1003A000160040F400007F2901DA002070479629EA
:1003B00003DCC1F19601C84001E096398840002A6B
:1003C000F4D04042704720F00040C10DC0F3160049
:1003D00040F400007F2901DA00207047962903DCF1
:1003E000C1F19601C84070479639884070472DE9A1
:1003F000F05F0546002092469B46884606468146A9
:1004000040241BE0284641464746224600F08BF830
:1004100053465A46C01A914110D3114618462246F7
:1004200000F072F82D1A67EB01084F4622460120B2
:10043000002100F069F817EB00094E41201EA4F1DD
:100440000104DFDC484631462A464346BDE8F09FBA
:100450000029A8BF7047401C490008BF20F00100D8
:10046000704710B4B0FA80FC00FA0CF050EA0104B6
:1004700004BF10BC704749B1CCF1200421FA04F448
:1004800011FA0CF118BF012121430843A3EB0C0121
:10049000CB1D4FEA00614FEA102042BF002010BC84
:1004A000704700EBC35010440029A4BF10BC704734
:1004B000401C490008BF20F0010010BC70474200FA
:1004C00005D0C0F3C7525242914201DC0020704770
:1004D00000EBC150704700001CB509480090094866
:1004E00001900546009C06E0E06840F0010394E8B6
:1004F000070098471034AC42F6D3FFF7FBFD00002D
:1005000044CE000864CE0008202A04DB203A00FA1A
:1005100002F1002070479140C2F1200320FA03F35A
:10052000194390407047202A04DB203A21FA02F058
:100530000021704721FA02F3D040C2F1200291401D
:1005400008431946704770B58C1810F8015B15F018
:10055000070301D110F8013B2A1106D110F8012B35
:1005600003E010F8016B01F8016B5B1EF9D12B075A
:1005700005D40023521E0DD401F8013BFAE710F810
:10058000013BCB1A921C03E013F8015B01F8015BFD
:10059000521EF9D5A142D8D3002070BD80B540F2DB
:1005A0004030C2F2000001F0BFFC40F27030C2F2F5
:1005B0000000BDE8804001F0B7BC0000B0B50446C3
:1005C00000688168C90701D10020B0BD816821F0B1
:1005D0000101816002F09AFC054600BF2068806836
:1005E000C007F1D002F092FC401B0328F6D3A06AAA
:1005F00040F01000A062E06A40F00100E0620120DB
:10060000B0BD00000146406A826A12F0500F03D06C
:10061000006A026B084610470168826A42F4007261
:100620008262896801F46021B1F5602F01D1017BFC
:1006300011B101F0FBBB00BF816A21F480718162BE
:10064000816AC90448BF01F0F1BB816A41F0010130
:10065000816201F0EBBB0000406A816A41F0400119
:100660008162C16A41F00401C16201F057BC00001F
:10067000406A01F051BC0000B0B582B004460020D1
:10068000019021688A68D2073FD1886840F0010054
:10069000886040F2AC00C2F2000000684DF6836151
:1006A000C4F21B31A0FB0101880C01900198A0B19C
:1006B000019801380190019878B1019801380190B2
:1006C000019850B1019801380190019828B1019822
:1006D0000138019001980028EAD102F017FC054684
:1006E00020688068C00713D102F010FC401B03286B
:1006F000F6D3A06A40F01000A062E06A40F001006A
:10070000E062002084F82400012002B0B0BD00BFE8
:10071000002002B0B0BD00002DE9F04381B040F2EE
:10072000A0380C46C2F200080028C8F81000C8F82B
:10073000181043D00769054638460021FFF7E4FD4D
:1007400028B96E6900213046FFF708FE20B900275E
:10075000C4F240174FF080460021C4F2F011384631
:10076000FFF7FCFD00281CBF0027C4F2F017384635
:100770004FF07E514FF07E59FFF7F0FD0021002829
:10078000C4F22011304608BF4F462F61FFF7E6FD47
:100790004CF6CD47C3F6CC5700281CBF0026C4F248
:1007A000201630463946FFF7D9FD002808BF3E46DF
:1007B0006E6100262E8300F029F82E834CB120466E
:1007C0003C2104F0EBF9D8F818000068406AA8F85A
:1007D0000C0005F0CDF940F600400024C4F2010001
:1007E0004FF400410122A8F8014002F089FB88F88B
:1007F000034088F8004000F0B9FE05F0BDFD01207F
:1008000001B0BDE8F04307F055BC00002DE9F04F02
:1008100081B040F2A038C2F20008D8F81070002F62
:1008200000F03C814FF60840C0F6000050F8081C6C
:1008300042F22602CBF6BA22914240F02F8150F8C4
:10084000041C022900F08480032940F02781D0E9AC
:1008500000654BF66761C0F6FF6145F6B82231448A
:10086000CFF6C64251408A0102EB910247F6B91316
:100870002A44C9F637631A445140D0E902498A0133
:1008800002EB910222441A4451408A0102EB910288
:100890004A441A445140D0F810A08A0102EB910258
:1008A00052441A4440695140814240F0F78000218F
:1008B000C4F2F0113046FFF751FD00281CBF00269E
:1008C000C4F2F01630464FF07E514FF07E5BFFF7DA
:1008D00045FD00210028C4F22011284608BF5E46CD
:1008E0003E61FFF73BFD4CF6CD46C3F6CC560028E3
:1008F0001CBF0025C4F2201528463146FFF72EFD07
:1009000000210028C4F2FA31204608BF35467D6137
:10091000FFF724FD0025C4F2A01500281CBF002409
:10092000C4F2FA3420462946FFF718FD0028A9F141
:100930000100B0FA80F04FEA501008BF2C463C622C
:1009400087F82400BAF1000F18BF4FF0010A75E0D4
:10095000D0E900654BF66761C0F6FF6145F6B82245
:100960003144CFF6C6424031013251408A0102EB98
:10097000910247F6B9132A44C9F637631A44514025
:10098000D0E902498A0102EB910222441A44514003
:100990008A0102EB91024A441A44006951408142A3
:1009A0007CD10021C4F2F0113046FFF7D7FC0028BB
:1009B0001CBF0026C4F2F01630464FF07E514FF0B7
:1009C0007E5AFFF7CBFC00210028C4F220112846F4
:1009D00008BF56463E61FFF7C1FC4CF6CD46C3F654
:1009E000CC5600281CBF0025C4F2201528463146ED
:1009F000FFF7B4FC00210028C4F2FA31204608BFFA
:100A000035467D61FFF7AAFC0025C4F2A015002839
:100A10001CBF0024C4F2FA3420462946FFF79EFC8E
:100A20000028A9F10100B0FA80F04FEA50104FF011
:100A3000010A08BF2C463C6287F8240040F20400FB
:100A4000C2F2000040F2144180F800A00020C2F27F
:100A500000013883087081F8200081F8400040F2DE
:100A60007441C2F20001087081F8200081F8400052
:100A700040F2D441C2F20001087081F8200081F8F0
:100A8000400040F23451C2F20001087081F82000A9
:100A900088F8540081F8400088F8000001B0BDE8F3
:100AA000F08F00002DE9F04F85B040F2A039C2F27E
:100AB0000009D9F81000002800F0C180D0E90487AF
:100AC000046A90F8246040F20400C2F2000090F83A
:100AD00000A04BF66760C0F6FF6045F6B8214044C1
:100AE000CFF6C6414840810101EB900147F6B912AB
:100AF0003944C9F6376211444840810101EB900145
:100B0000214411444840810101EB900131441144DA
:100B10004840810101EB90015144114481EA000BEE
:100B200002F0C6F80020CDE900004FF60045012094
:100B3000C0F60005049001A86946039501F0AAFFDC
:100B40000120294642F22602002302F025F8A91CC2
:100B500001204BF6BA22002302F01EF8291D0120C5
:100B60000322002302F018F8A91D0120002200230F
:100B700002F012F81FFA88F205F1080101200023A3
:100B800002F00AF84FEA184205F10A010120002399
:100B900002F002F8BAB205F10C010120002301F0C5
:100BA000FBFF3A0C05F10E010120002301F0F4FFD8
:100BB000A2B205F110010120002301F0EDFF220C8B
:100BC00005F112010120002301F0E6FF05F11401F7
:100BD00001203246002301F0DFFF05F1160101205C
:100BE0000022002301F0D8FF05F118010120524630
:100BF000002301F0D1FF05F11A010120002200239A
:100C000001F0CAFF1FFA8BF205F11C01012000233D
:100C100001F0C2FF4FEA1B4205F11E010120002333
:100C200001F0BAFF01F0AEFF02F070F900F5487074
:100C3000C9F81400002089F8540089F8000005B0B4
:100C4000BDE8F08F2DE9F04383B040F60049C4F2CF
:100C5000010902F05BF980464846102102F04AF98A
:100C6000064602F053F940F2A037C2F20007B97904
:100C700086B1B1B3F87990BB787802282CD1B87AD4
:100C8000B0FA80F04009B8720020F8700020387087
:100C900025E000BFD1B1F97919BBF96B401AB0F565
:100CA0007A7F1ED3787801210228F9714ED1FFF79F
:100CB000F9FE387A0128787008BF05F029FB00207A
:100CC000F8703870386980B9ADE100BF0121F98052
:100CD000F863386948B9A6E105F098FB40B30020F5
:100CE000F8803869002800F09E8148464FF4007172
:100CF00002F000F906460546002818BF012602F05A
:100D000005F940F20404C2F200042179B14262D034
:100D1000396C411A23295ED3002D386426715AD1CB
:100D200005F074FB50B3002005F076FB53E000BFE4
:100D3000B97840F204000129C2F2000000F0BA8044
:100D40000229A3D102300221B6E000BF05F05EFB0C
:100D5000002818BF0120387205F058FB002818BF82
:100D600005F002FB0020A7F80900F8704FF40070AE
:100D7000388038690028B8D155E100BFB878002123
:100D8000013818BF0120B87040F21440C2F20000D0
:100D9000017080F8201080F8401040F27440C2F2D8
:100DA0000000017080F8201080F8401040F2D4401C
:100DB000C2F20000017080F8201080F8401040F26C
:100DC0003450C2F20000017080F8201087F85410EF
:100DD00080F84010397048464FF4807102F08AF86C
:100DE00005460646002818BF012502F08FF8A179B4
:100DF000A9423BD0796C411A232937D37864A57175
:100E0000A6BB05F003FB18B1012005F005FB2DE0A2
:100E1000B8780021023818BF01204000B87040F2B5
:100E20001440C2F20000017080F8201080F84010D9
:100E300040F27440C2F20000017080F8201080F887
:100E4000401040F2D440C2F20000017080F820103F
:100E500080F8401040F23450C2F20000017080F877
:100E6000201087F8541080F84010397048468021CF
:100E700002F040F805460646002818BF012502F09A
:100E800045F8217AA94258D0B96C411A232954D384
:100E9000002EB864257250D105F0B8FA20B10220B6
:100EA00005F0BAFA49E000BF3869017E61B100215E
:100EB000017618E00130032102780132D3B28B426F
:100EC00088BF00220270E1E648464FF4004101224B
:100ED00002F016F83869017EB1FA81F25209002950
:100EE000027600F0CB810021417640F21440C2F23C
:100EF00000000021017080F8201080F8401040F2BE
:100F00007440C2F20000017080F8201080F8401098
:100F100040F2D440C2F20000017080F8201080F846
:100F2000401040F23450C2F20000017080F82010EE
:100F300087F8541080F8401039704846402101F07D
:100F4000D9FF05460646002818BF012501F0DEFF3F
:100F5000A17AA94267D0F96C411A232963D3002EE4
:100F6000F864A5725FD1787802285CD0012815D189
:100F700005F0FAF960693969FA7A0861A0690A76B8
:100F80004861002A18BF01224A7648464FF40041C2
:100F9000012201F0B5FF00201BE000BF38690169A4
:100FA000027E61614169FA72A16100210022C4F2EE
:100FB000C011C4F2E002C0E9041240F20111018341
:100FC00048464FF40041002201F09AFF05F0A0F9D5
:100FD0000120787040F21440C2F20000002101703C
:100FE00080F8201080F8401040F27440C2F20000F7
:100FF000017080F8201080F8401040F2D440C2F216
:101000000000017080F8201080F8401040F2345049
:10101000C2F20000017080F8201087F8541080F8A8
:101020004010F9703970B86900B30068406AB98936
:10103000B881411A386D09B208440428386507DBC5
:1010400004383865012000F0B5FB386D0328F7DC63
:1010500010F1040F0ADC00BF043038654FF0FF3098
:1010600000F0A8FB386D10F1030FF5DB386938B1DB
:10107000017E19B1417E19B9012100E000214176BC
:101080007878012816D002281ED1F87820B3387855
:10109000012805D1F869A8EB00003C28C0F0A28027
:1010A0000120C7F81C80387003B0BDE8F04308F099
:1010B00025B800BF05F0AAF9002800F08580F8786F
:1010C00080F0010085E000BF05F0A0F9002800F0E5
:1010D0008D8005F049F99DE00120F870387040F2EC
:1010E0001440C2F200000024047080F8204080F810
:1010F000404040F27440C2F20000047080F820408A
:1011000080F8404040F2D440C2F20000047080F801
:10111000204080F8404040F23450C2F20000047099
:1011200080F8204080F840400020C7F81C8087F8F5
:10113000544004F00FFD40F25400C2F20000D0E928
:10114000003040F2FF718DE813004FA21F200421F0
:101150001F2504F0A9FD002019217F221F2308F07C
:10116000F7FA40F26406C2F20006D6E900304FF604
:10117000FF77CDE9000747A20C201F21029404F05D
:1011800093FDD6E9003047A2CDE900070C204821A5
:10119000029404F089FDD6E9003045A2CDE90007AC
:1011A0000C206C21029404F07FFDD6E9003044A2AB
:1011B000CDE9000500209521029404F075FD03B0EF
:1011C000BDE8F04307F09ABF05F0A2F80020F870E0
:1011D000012000F0010005F03FF9F878002804BF75
:1011E0000120F87003B0BDE8F08300BFF87888B143
:1011F0003878012804D1F869A8EB00003C28F1D325
:1012000001210020C7F81C80397003B0BDE8F0430D
:1012100006F050BF0120F870387040F21440C2F25E
:1012200000000021017080F8201080F8401040F28A
:101230007440C2F20000017080F8201080F8401065
:1012400040F2D440C2F20000017080F8201080F813
:10125000401040F23450C2F20000C7F81C80017008
:1012600080F8201087F8541080F8401000F07EF9C4
:10127000012003B0BDE8F04306F01CBF417E002909
:101280007FF433AE01212FE653455454494E475362
:10129000000000004D415820494E50555420504FF9
:1012A000574552005354415254204D4F444500007D
:1012B0004D41494E20444953504C415900000000D3
:1012C000484F4C443A4558495420505553483A5396
:1012D00045540000B0B540F24034C2F2000420464C
:1012E00000F086FC42F6344041F24805C4F20100A9
:1012F0000021C2F2000501604160284603F02CFF86
:101300002846002103F090F92846042103F024FF29
:101310002846042103F088F940F20825C2F20005AE
:1013200005F148012046042201F03CF94FF42F70EA
:1013300001F09CFB40F26C0041F28801C2F2000017
:10134000C2F20001FFF7E8F941F2C800C2F2000062
:1013500003F032FA6869002818BFB0BDFEE700004C
:10136000FEE70000002070470020704710B540F6EF
:101370003824C2F2000440F6F811C2F200012046FF
:10138000002205F0C3FB40F6B811C2F2000120466E
:1013900005F0B6FB002010BD10B540F63824C2F2AF
:1013A00000040146204605F0ABFB204605F08AFB11
:1013B000002010BD40F6FC40C2F2000001F0FEB972
:1013C00040F64050C2F2000001F0F8B9704700004A
:1013D0002DE9F04F83B040F2A038C2F20008D8F8EF
:1013E0001020002A00F0BF8098F80500002800F0C7
:1013F000A78001F08BFDD8F83810401A9628C0F06D
:10140000B28001F083FDD8F81090D8F82C10D8E9FC
:1014100009750291D9F80410C8F8380001910846FE
:101420003946FEF7FBFE4CF6CD4BC3F64C5B04464B
:1014300020F000405946FEF775FF43F2333106466F
:10144000C3F633712046FEF7EFFE3946FEF794FEF1
:10145000002E18BF3846C8F82400D9F808A029463D
:101460005046FEF7DBFE044620F000405946FEF7EA
:1014700059FF43F23337C3F63377064620463946E1
:10148000FEF7D2FE2946FEF777FE002E18BF28464B
:10149000C8F82800D8F83050D9F800002946FEF7DF
:1014A000BDFE4DF20A71044620F00040C3F6A35180
:1014B000FEF738FF064620463946FEF7B5FE2946B8
:1014C000FEF75AFE002E18BF2846C8F83000D8F89C
:1014D0003460D9F80C003146FEF7A0FE49F69A1B9D
:1014E000C3F6996B044620F000405946FEF71AFFF8
:1014F000054620463946FEF797FE3146FEF73CFE8C
:10150000002D18BF3046C8F8340001985146FEF748
:101510008BFE029E3146FEF781FE044620F000401D
:101520005946FEF7FFFE054620463946FEF77CFE8B
:101530003146FEF721FE002D18BF304611E000BFF6
:10154000012088F805005068C8F824009168C8F8A0
:1015500028101368C8F83030D268C8F83420FEF775
:1015600063FEC8F82C0003B0BDE8F08F2DE9F0430E
:1015700083B040F20404C2F20004277800204FF642
:10158000FF79002504F0E6FA40F26406C2F2000694
:10159000D6E9003040F2A038002FC2F200084FF424
:1015A000FC613FD0CDE9000176A200200221029526
:1015B00004F07AFBD6E90030A9F11F0189B2CDE928
:1015C000000171A242200221029504F06DFB1F2749
:1015D00001200F217E225923009708F007F90220ED
:1015E00025217C2241F2E40308F0B2F802203B21DD
:1015F0007C2241F2E40308F0ABF8022051217C2266
:1016000041F2E40308F0A4F8A8F80E50C8F82050FE
:10161000A4F80C90A4F80E90A4F8109088F8045048
:1016200086E000BFCDE9000158A26E200D21029591
:1016300004F03AFBD6E90030A9F11F0189B24CF65B
:10164000FF52CDE90001C0F600026E202B21029569
:1016500004F02AFBD6E900304FF61F044CF6016275
:10166000CDE90004C0F600026E204921029504F085
:101670001BFBD6E9003046A2CDE9000400203C2146
:10168000029504F011FBD6E9003040F2FF74CDE979
:10169000000440A200206221029504F005FBD6E977
:1016A00000304CF60462CDE90004C0F6000255207B
:1016B0006221029504F0F8FAD6E9003037A2CDE9AC
:1016C000000400207621029504F0EEFAD6E90030FD
:1016D00034A2CDE900045C207621029504F0E4FAFE
:1016E000D6E900304FF47844CDE900042EA2002062
:1016F0008A21029504F0D8FAD6E900302CA2CDE96F
:10170000000455208A21029504F0CEFA19201921EF
:101710004E221F2308F01CF8192037214E221F23C8
:1017200008F016F8192055214E221F2308F010F852
:1017300040F21440C2F200000021017080F8201035
:1017400080F8401040F27440C2F20000017080F84E
:10175000201080F8401040F2D440C2F20000017026
:1017600080F8201080F8401040F23450C2F200009F
:10177000017080F8201088F8541080F8401003B0F1
:10178000BDE8F083553A0000493A000055000000DA
:101790005345540056696E3A00000000496C696D6B
:1017A0003A0000004100000054656D703A000000EE
:1017B0002A430000F0B581B0002800F0FE8040F21E
:1017C000A036C2F200063769002F00F0F68071786B
:1017D00002292BD1B27A717A92B3022978D00129E9
:1017E0006ED0002940F0E780FEF7C6FD00213C6A7C
:1017F000C4F2A001FEF718FD2146FEF7BDFC002152
:10180000C4F2FA310446FEF7A9FD0025C4F2A01582
:1018100000281CBF0024C4F2FA3420462946FEF7F3
:101820009DFD002808BF2C463C62C4E0044604F03D
:10183000EDFD68B1204601B0BDE8F04004F026BDE2
:10184000401848BF02200228C8BF00207072B2E0D2
:10185000B1782046022945D0012940F0838040F22A
:101860000401C2F20001497858A252F82140FEF763
:1018700083FD376921463D69FEF7D6FC2946FEF710
:101880007BFC0021C4F2F0110446FEF767FD00283E
:101890001CBF0024C4F2F01420464FF07E514FF0DC
:1018A0007E55FEF75BFD002840F21440C2F20000B6
:1018B0004FF0000108BF2C463C6180F8401048E022
:1018C00097F82400B0FA80F0400987F8240072E00D
:1018D00040F20400C2F200000178013918BF012172
:1018E000017068E040F20401C2F20001897834A27C
:1018F00052F82140FEF740FD376921467D69FEF729
:1019000093FC2946FEF738FC0021C4F2201104465E
:10191000FEF724FD4CF6CD45C3F6CC5500281CBF80
:101920000024C4F2201420462946FEF717FD0028A3
:1019300040F21440C2F200004FF0000108BF2C46F4
:101940007C6180F8401040F27440C2F2000080F8E0
:10195000201040F2D440C2F2000080F82010317014
:1019600001B0F0BD7178012927D1FEF705FD40F2E5
:101970000405C2F200050021EC69C4F2A001FEF7E3
:1019800053FC2146FEF7F8FB0021C4F21631044651
:10199000FEF7C8FC002100281CBF0024C4F2163446
:1019A000C4F2E1312046FEF7D9FC00281CBF002418
:1019B000C4F2E134EC610020307001B0F0BD00BF32
:1019C0000AD7233CCDCCCC3D0000803F0AD7233C36
:1019D000CDCCCC3D0000803F00002041704700008E
:1019E00070B542F20C060446C4F2020601F08EFA0B
:1019F0003168C9071CD13068800644BF20203060A0
:101A00003068C00607D43069C00704D13068400789
:101A10005CBF002070BD3068C00641F24810C2F2C1
:101A2000000021D400213268520725D42AE000BFEB
:101A3000C4B10546601C10D13068C007DBD03068E7
:101A4000C0071CBF30685FEAC070D4D03068C007E0
:101A5000F2D1D0E73068C007CDD001F057FA401B73
:101A6000A042F7D9032070BDC16941F00201C161F4
:101A700010213268520705D5C26941F0040142F0D5
:101A80000102C2613269D20702D10120316070BD0A
:101A9000C26942F00402C261306920F00100306185
:101AA0000120316070BD00002DE9F0479246894663
:101AB00080463AB1BAF1040F0AF0030004D20A21B9
:101AC000A8B921E001251FE00AF0FC010022012550
:101AD00042F210730432D7B22E468F4203FB05F553
:101AE000F8D148F2A061C0F20101714360B1012850
:101AF00002D10D4608E000BF642301FB03F501EBB2
:101B00008102022808BF55002846FEF73EFC044625
:101B100048460021FEF714FC4FF03F470028484696
:101B2000214618BF4FF07C57FEF77EFB3946FEF783
:101B300023FBFEF72FFC00280CD4BAF1010F17D0BD
:101B4000BAF1000F22D126A102464046BDE8F04777
:101B500008F09EB9BAF1010FC0F1000224D0BAF129
:101B6000000F2FD120A14046BDE8F04708F090B902
:101B7000B0FBF5F24CF6156102FB1503C0F600014F
:101B80004046BDE8F04708F083B900BFB0FBF5F26E
:101B90004CF62C6102FB1503C0F600014046BDE87F
:101BA000F04708F075B900BFB2FBF5F74CF60A61D3
:101BB00007FB1523C0F6000140463A46BDE8F04752
:101BC00008F066B9B2FBF5F74CF6216107FB152367
:101BD000C0F6000140463A46BDE8F04708F058B963
:101BE0002530326C640000002D256C64000000007C
:101BF00070B582B004460020019094F824000128BA
:101C000002D1022002B070BD012084F824002046D9
:101C1000FEF7D4FC20B1002184F8241002B070BD7E
:101C20000646A06A41F2021188430230A06240F2E7
:101C3000AC00C2F200000568022001F0CDFEB5FB49
:101C4000F0F0400001900198A8B100BF0198013860
:101C50000190019878B1019801380190019850B134
:101C6000019801380190019828B10198013801903C
:101C700001980028EAD12046FEF7FEFC2068816822
:101C800041F00801816001F041F905462068816852
:101C9000090705D501F03AF9401B0A28F6D910E0EA
:101CA000816841F00401816001F030F9054600BF10
:101CB00020688068400709D501F028F9401B0B28EF
:101CC000F6D3012010216FF0120203E001216FF022
:101CD00003023046A36A1A401143A162002184F82E
:101CE000241002B070BD00007047000070B581B0D4
:101CF0000022009290F82420012A03D102210846F4
:101D000001B070BD4A680123062A02EB820E80F8FA
:101D1000243007D8D0F800C06FF004030CF134066B
:101D20000CE000BFD0F800C00C2A87BF0CF12C06D5
:101D30006FF040030CF130066FF022030EEB03024C
:101D40001F23346803FA02F50B6824EA050503FA39
:101D500002F22A433260092B03EB43021AD9DCF862
:101D60000C601E3A072589689540AE43914023F0E8
:101D700001023143102ACCF80C1015D142F2004177
:101D8000C4F201018C4517D0816A41F020018162C3
:101D900001210AE0DCF81030072689689640B34339
:101DA00091401943CCF810100021002280F8242023
:101DB000084601B070BD00BF89680902F4D4DCF8A0
:101DC0000810102B41F40001CCF80810ECD140F2BF
:101DD000AC01C2F2000109684DF68362C4F21B3205
:101DE000A1FB0212910C01EB8101490000910099C5
:101DF0000029D9D000990139009100990029D3D048
:101E000000990139009100990029CDD0009901393C
:101E1000009100990029C7D00099013900910099DB
:101E200000294FF00001E5D1BFE700002DE9F041A6
:101E3000006842F60001C4F20101884230D042F24B
:101E40000041C4F20101884228D140F20820C2F2C8
:101E5000000000F13007B0F848108CCFB0F84E60A9
:101E60001144B0F84A201344BA19478AC0E90C1348
:101E70000137BEB2042E8263478238BFBDE8F081CD
:101E800089084181990881819108C1810021C0E9B7
:101E90000C1181634182012101704161BDE8F08133
:101EA00040F60048C4F2010840464FF400610122A8
:101EB00001F026F840F24030C2F2000000F1300597
:101EC000284600F02DF80646284600F029F8074677
:101ED000284600F025F80446284600F021F8B1B263
:101EE000BAB21144A2B2114480B20844FEF74DFACE
:101EF0004FF07A51FEF798F9FEF74CFA40F20827B6
:101F00000346C2F2000740464FF4006100223B82C4
:101F1000BDE8F04100F0F4BF7047000070470000DA
:101F20000068C06C7047000010B504460068416846
:101F3000890644BF01685FEA81710BD441680906D4
:101F400044BF01685FEA41712AD4416849065BD405
:101F500010BD00BFA16AC90603D4A16A41F4007193
:101F6000A162816801F46021B1F5602F10D1217B5D
:101F700071B9416821F020014160A06A20F48070AD
:101F8000A062A06AC00403D4A06A40F00100A0626D
:101F90002046FFF74BFF20686FF012010160CDE78C
:101FA000A16AC90603D4A16A41F40051A162816803
:101FB00001F4E041B1F5E04F10D1416821F080011A
:101FC0004160A06A20F48050A062A06AC00511D4CC
:101FD000A06A40F00100A0620CE000BF4168490522
:101FE00008D4816801F46021B1F5602F02D1217B12
:101FF0000029E2D02046FFF777FE20686FF00C0141
:10200000016041684906A3D50068C00708BF10BD3C
:10201000A06A40F48030A062204600F0A9F8206851
:102020006FF00101016010BD002804BF012070475E
:10203000B0B50446806A28B120688168C9070CD011
:1020400032E000BF0020E06284F82400204600F067
:1020500091F820688168C90726D1A16AC9063DD4D4
:10206000A16A41F2021291430231A162E169D4E90D
:10207000013241EA030C531EB3FA83F35D091346A0
:10208000B2F5807F18BF2B02217D257B01294CEA08
:1020900045012ED145B3A56A45F02005A562E56A44
:1020A00045F00105E56224E0816821F001018160CD
:1020B00000F02CFF054600BF20688168C907CCD01E
:1020C00000F024FF401B0328F6D3A06A40F0100064
:1020D000A062E06A40F00100E062A06AA06A40F0FD
:1020E0001000A0620120B0BDA56903EB4533A3F544
:1020F000C0534568B2F5807F25F4694543EA05037E
:10210000436083684FF2FD75CFF6E17503EA05037E
:1021100043EA0103836001D0012A07D12269002329
:10212000CFF6F07303EB025201E000BF0022C36A56
:1021300023F470031A43C262806840F6FE62CFF651
:102140001F721040884207D10020E062A16A01227C
:1021500062F30101A162B0BDA06A40F0100020F05E
:102160000200A062E06A40F00100E0620120B0BD20
:1021700070470000F0B585B0016842F60002C4F275
:10218000010291424FF00002CDE90322CDE9012284
:1021900046D042F20042C4F20102914269D10746A0
:1021A00041F21800C4F20200016841F400710160BC
:1021B000016801F4007100910099016841F0040187
:1021C0000160006801A900F00400009000981B2045
:1021D00001900320029040F60000C4F2010000F0DC
:1021E0007FFD40F6FC440820C2F20004C4F2020065
:1021F0000021C4E9000104F1080080224FF480733B
:102200004FF4806520266EC02046E16100F0A4FBFB
:10221000002818BFFFF7E2FB3C62676221E000BFC5
:1022200041F21800C4F20200016841F480610160CB
:10223000016801F4806100910099016841F0040196
:102240000160006801A900F004000090009844209B
:1022500001900320029040F60000C4F2010000F05B
:102260003FFD12200021002200F0D0FE122000F0DD
:10227000BBFE05B0F0BD00002DE9F04182B00027A3
:102280000D460446019700F041FE21688A68D20598
:1022900044D406464868C00503D4C86A10F4700FD9
:1022A00046D040F2AC00C2F20000076842F2924809
:1022B0000220C1F2492801F08FFB216844F6241363
:1022C0000A69B7FBF0F0C2F292431A4206D1CA681B
:1022D00044F62413C0F292031A4249D00A6912EA62
:1022E000080F07D1CA6842F29243C0F249031A426A
:1022F00000F084800A6949F24923C0F224031A429B
:102300004FF0FC0242D1CF681F4208BF5422019B0C
:1023100002FB00F7BB423ED379E000BFA06A40F069
:102320002000A06284F82470012002B0BDE8F08192
:10233000086880076BD4002D55D0681C12D108683E
:10234000800764D4086880075CBF08685FEA807013
:102350005DD408688007F2D559E000BF216808689D
:10236000800754D400F0D2FD801BA842F6D93AE091
:102370000A6912EA080F4FF0290207D1CB6842F22E
:102380009247C0F249073B4208BF1422019B02FB5F
:1023900000F7BB423BD235B3681C1FD10198013016
:1023A00001900198B84232D2019801300190019811
:1023B000B8422CD20198013001900198B84226D23F
:1023C0000198013001900198B842E7D31FE000BFA7
:1023D0000198013001900198B84217D200F096FDA3
:1023E000801BA842F4D9A06A40F00400A06200203B
:1023F00084F82400032002B0BDE8F0815422019B40
:1024000002FB00F7BB42C6D301E000BF21686FF0BA
:1024100012000860A06A40F40070A062886800F4AE
:102420006020B0F5602F01D1207B18B1002002B0F0
:10243000BDE8F081A06A20F48070A062A06AC004A8
:10244000F4D4A06A40F00100A062002002B0BDE810
:10245000F0810000B0B582B0044690F82400012855
:1024600002D1022002B0B0BD012084F82400002077
:10247000019020688168C90742D1816841F001015B
:10248000816040F2AC00C2F2000000684DF683614A
:10249000C4F21B31A0FB0101880C01900198A0B18E
:1024A000019801380190019878B1019801380190A4
:1024B000019850B1019801380190019828B1019814
:1024C0000138019001980028EAD100F01FFD05466F
:1024D00020688168C90713D100F018FD401B02284D
:1024E000F6D9A06A40F01000A062E06A40F0010056
:1024F000E062002084F82400012002B0B0BD00BFDB
:10250000A26A42F2044140F20133C4F201019A434B
:1025100002F5807301F57F729042A3622AD0A36A0C
:1025200023F48013A36243685B0504D5A36A0125E5
:1025300065F30D33A362A56A0023ED044FF0000597
:1025400044BFE56A25F00605E56284F824306FF0A3
:1025500002030360836803F46023B3F5602F19D18D
:10256000904213D0816841F4A0018160002002B044
:10257000B0BD00BF0B6813F4702FD0D0A36A43F432
:102580008013A3620B685B05D0D4D4E7096811F40B
:10259000702FE7D0816841F480118160002002B083
:1025A000B0BD0000F0B581B00446036842F60000FB
:1025B000C4F20100834205D042F20040C4F201009F
:1025C00083420BD142F20440C4F20100006810F4CF
:1025D000702F03D0012001B0F0BD00BF94F824009B
:1025E000012803D1022001B0F0BD00BF012084F812
:1025F00024000020009098680E461546C00743D17D
:1026000098684DF6836140F00100986040F2AC009C
:10261000C2F200000068C4F21B31A0FB0101880C6B
:1026200000900098A8B100BF009801380090009871
:1026300078B1009801380090009850B100980138A6
:102640000090009828B10098013800900098002868
:10265000EAD100F05BFC074623689868C00713D1F5
:1026600000F054FCC01B0228F6D9A06A40F010000C
:10267000A062E06A40F00100E062002084F82400DB
:10268000012001B0F0BD00BF42F20440A16AC4F2D3
:10269000010040F60172914300F57F7201F58071EF
:1026A0009342A16246D0A06A20F48010A0625868CC
:1026B000400504D5A06A012161F30D30A062A16A32
:1026C0000020C9044FF0000144BFE16A21F0060177
:1026D000E16284F82400206A40F20561C0F600013E
:1026E00040F2716240F2596700F1280CC0F6000216
:1026F000C0F600078CE886006FF002011960996847
:10270000324641F48071996003F14C012B4600F090
:102710005DF92068816801F460228168B2F5602F5C
:102720000CBF41F4A00141F480118160002001B090
:10273000F0BD00BF016811F4702FB4D0A16A41F45C
:102740008011A16200684005B4D4B8E7B0B5044672
:1027500090F82400012804BF0220B0BD01212068A8
:1027600084F824108168C90708D1214651F8280F40
:1027700041F2011220EA0202002018E0816821F0F3
:102780000101816000F0C2FB054600BF206880683F
:10279000C007EAD000F0BAFB401B0328F6D3A06ABA
:1027A000214640F01000A06251F82C2F012042F089
:1027B00001020A60002184F82410B0BD10B5D0E9F0
:1027C0000FCE0168DCF800300A6823FA0EF35C07CC
:1027D0002AD512F0040427D00A68920603D40A68A6
:1027E00022F004020A602F22C4F20202914240F257
:1027F0000402C4F2020259DD3023C4F202039942FA
:1028000070D04423C4F20203994271D05823C4F219
:102810000203994278D14FF480231360C16A0029E2
:1028200040F097806EE000BF9C0727D512F00204AD
:1028300024D00A68920606D40A6822F00A020A60C6
:10284000012280F821202F22C4F20202914240F29C
:102850000402C4F2020239DD3023C4F202039942B9
:102860005ED04423C4F2020399425DD05823C4F2DF
:10287000020399425ED14FF4003363E01B0741D558
:1028800012F0080208BF10BD0A6822F00E020A60AA
:10289000012101FA0EF2CCF804208163016B4FF4A0
:1028A00080720029028454D12CE000BF0823C4F2B6
:1028B0000203994222D01C23C4F20203994223D17D
:1028C00040231360C16A002943D11BE00823C4F2EE
:1028D000020399422CD01C23C4F20203994229D14D
:1028E00020232FE04FF480631360C16A89BB09E0A5
:1028F0004FF480431360C16A59BB03E004231360A3
:10290000C16A31BB10BD00BF02F168044FF08063A3
:10291000A14208BF4FF480031360C16AC9B9F1E74F
:102920004FF400730EE000BF4FF400530AE000BF05
:10293000022307E002F168044FF00073A14208BFD0
:102940004FF400131360816A0022002980F82020D0
:10295000D8D0BDE810400847002804BF01207047C8
:102960002DE9F04101684FF6F872CBF6FD724CF696
:10297000CD430A44CCF6CC43A2FB03236FF0030201
:1029800002EA93020023C4F2020300F1040E00F1F4
:102990001007C0E90F329EE80051F0CF0A6843F6F5
:1029A000F0739A4342EA080242EA0C0242EA0E023B
:1029B00022432A4332433A430A6000214FF4807293
:1029C00081630284BDE8F0410846704790F820C05A
:1029D000BCF1010F04BF02207047F0B590F821C090
:1029E0004FF0010EBCF1010F80F820E026D14FF02E
:1029F000020C80F821C04FF0000CC0F838C0D0E9BC
:102A000000C4C56AC66BDCF80070102C27F0010703
:102A1000CCF80070006C0EFA00F070600846CCF83C
:102A2000043004BF10460A46CCF80800CCF80C204D
:102A3000DCF8000045B140F00E000DE0002180F808
:102A400020100220F0BD00BF20F00400CCF80000F0
:102A5000DCF8000040F00A00CCF80000DCF80000D0
:102A600040F00100CCF800000020F0BDB0B50446F5
:102A700000F04CFA054640F23000C2F20000007847
:102A8000611C18BF044400BF00F040FA401BA04284
:102A9000FAD3B0BD2DE9F04381B041F24815C2F23E
:102AA00000052A7E012A03D1022001B0BDE8F0838F
:102AB00004460120266828764CF250308846FEF7FE
:102AC0008FFF022E1CD100284ED1002042F21004AC
:102AD000E861C4F20204206840F00400206020682D
:102AE00040F0400020604CF25030FEF779FF216842
:102AF00021F0040121600021297601B0BDE8F083B6
:102B000090BB4FF0FF30C8F80000D4E9027007EB2B
:102B10008020874228D242F21006C4F202064FF00B
:102B2000000900BFC5F81C90306840F0020030601A
:102B30007760306840F0400030604CF25030FEF773
:102B40004FFF316821F00201316098B9D4E90201E8
:102B500007F5806700EB81208742E3D30020002146
:102B6000297601B0BDE8F08301200021297601B06B
:102B7000BDE8F083C8F800700021297601B0BDE8F7
:102B8000F083000042F21001C4F20201086840F034
:102B9000800200200A6070472DE9F04381B041F2C5
:102BA0004817C2F2000716463A7E012A04D10220D5
:102BB00001B0BDE8F08300BF0546012038764CF235
:102BC00050300C469946FEF70BFF28B100213976AC
:102BD00001B0BDE8F08300BF42F210080020C4F24B
:102BE0000208F861D8F8000040F00100C8F80000C1
:102BF0004CF250302680FEF7F3FED8F80010002883
:102C000021F00101C8F8001018BF0046DED1012DE7
:102C1000DCD00020F861D8F80000310C40F0010051
:102C2000C8F800004CF250306180FEF7D9FED8F8A9
:102C30000010002821F00101C8F80010C6D1E81EDC
:102C400010F1030F4FF00000C0D8F861D8F8000071
:102C500040F00100C8F800004CF25030A4F8049095
:102C6000FEF7BEFED8F80010002821F00101C8F8D8
:102C70000010ABD10020F861D8F800004FEA1941EC
:102C800040F00100C8F800004CF25030E180FEF73F
:102C9000A7FED8F80010002821F00101C8F80010A4
:102CA00018BF00460021397601B0BDE8F08300006E
:102CB00042F20400C4F20200C16809065CBF0020B1
:102CC000704740F22311C4F26751016048F6AB111E
:102CD000CCF6EF510160C068C0B2C0097047000077
:102CE0002DE9F04F82B00E68002E00F0FF8040F218
:102CF0000C4C40F2004E41F20042C4F2010CC4F20E
:102D0000010EC4F201020427002401234FF0000A3F
:102D10004FF00009904208BF0327009749E000BF29
:102D200041F20002C4F20102009F904208BF022754
:102D300004F00C030F229A402BEA020207FA03F375
:102D40004FEA9A051A4346F825204E68F203DEF84A
:102D5000002054BF22EA080242EA0802CEF800200E
:102D6000DEF80420B30354BF22EA080242EA080254
:102D7000CEF80420F302DEF8082054BF22EA08024D
:102D800042EA0802B302CEF80820DCF800204FF037
:102D9000010354BF22EA080242EA0802CCF80020EC
:102DA0000E680AF1010A36FA0AF204F1040400F08E
:102DB0009D8003FA0AFB16EA0B08F1D04E684FF625
:102DC000FF72C1F21002964212DC122E56D8DFE8D2
:102DD00006F0350B4D4955555555555555555555D5
:102DE00055555545510000BFD1F80C9046E000BF45
:102DF0004FF6FF72C1F2210296420FDC0022C1F2AF
:102E0000110296421AD00022C1F21202964215D047
:102E10000022C1F22102964210D02FE00022C1F21E
:102E2000220296420AD00022C1F23102964205D017
:102E30000022C1F23202964220D100BF8A684AB114
:102E4000012A14BFC0F814B0C0F810B04FF0080940
:102E500014E000BF4FF0040910E000BFCA6802F19F
:102E600004090BE04FF0000908E000BFCA6802F156
:102E7000080903E0CA6802F10C0900BF02462646B1
:102E8000B8F5807F24BF0432203E17680F25B54077
:102E900027EA050509FA06F635431560CA79D20610
:102EA0007FF57EAF41F21803C4F202031A68AEF553
:102EB0007E7642F001021A601A6802F00102019265
:102EC000019A2AF0030256F802B040F60002C4F25A
:102ED0000102904208D040F60042C4F20102904242
:102EE0007FF41EAF012723E7002721E702B0BDE8EA
:102EF000F08F00008068084018BF01207047000074
:102F0000002A08BF090401617047000041F28C10DB
:102F1000C2F200000068704740F2300041F28C11AC
:102F2000C2F20000C2F2000100780A681044086092
:102F30007047000080B542F20000C4F20200016850
:102F400041F010010160032000F08CF8002000F037
:102F500005F800F027F8002080BD000070B540F2B1
:102F60003006C2F2000640F2AC013278C2F2000133
:102F70004FF47A730968B3FBF2F20446B1FBF2F145
:102F8000084601F0D3FA0F2C4FF0010508D838B9E4
:102F90004FF0FF3021460022002500F037F8746022
:102FA000284670BD82B041F21800C4F202000168E8
:102FB000022241F001010160016801F0010101916B
:102FC0000199416841F080514160406800F08050B3
:102FD000009000980420C4F20100016862F31A61B5
:102FE000016002B070470000002848BF704700F041
:102FF0001F01012202FA01F11C2202EAD0004EF266
:103000000012CEF2000281507047000010B54EF65B
:103010000C5CCEF2000CDCF80030C3F3022E8EF014
:103020000704042C28BF0424BEF103034FF0FF3E25
:103030000EFA04F438BF0023A14399400EFA03F3BB
:103040009A43114300F00F0200F160430901043A72
:1030500003F564436244002848BF02F10C03197071
:1030600010BD00004EF60C51CEF200010A684FF67A
:10307000FF031A4060F30A2242F0806040F0FD70C6
:103080000860704701F0070C00EB4C1C0CF1280C99
:1030900000EB4110090658BF00F5947C52B1ACF822
:1030A00008301B0C01210A202CF8003000208CF87D
:1030B0000C107047002106202CF8003000208CF8FE
:1030C0000C10704770470000D0F8683200EB4110D8
:1030D000C26B184603F09CBFD0F8683200EB411079
:1030E000D0F83C21184603F0F9BF000010B54FFAA4
:1030F00081FC4FF49472BCF1000F48BF282201F00C
:10310000070302444FEAD11C02EB431181F801C0CE
:1031100090F828C24FEA431EBCF1010F02F80E30AE
:1031200004BF022010BD0268012380F82832044643
:10313000104604F011FD002084F8280210BD0000A4
:10314000B0B5426801F00F03934284BF0120B0BDC7
:103150004AB24FF49474002A48BF282401F00703B0
:10316000021990F828424FEAD11C02EB431181F872
:1031700001C04FEA431C012C4FF000048C7002F890
:103180000C3004BF0220B0BD0268012380F8283251
:103190000546104604F074FD204685F82842B0BD6F
:1031A00001F0070100EB4110D0F844017047000026
:1031B00010B54FFA81FCBCF1000F01F0070C0DD4E3
:1031C00000EB4C1E00240EF594718EF829418EF808
:1031D00028C1CEF838218EF82B3109E000EB4C11D4
:1031E00001F828CF01244C700A61CB70A1F80EC001
:1031F000022B04BF00220A7190F82822012A04BF82
:10320000022010BD0268012380F8283204461046CF
:1032100004F05CFB002084F8280210BD10B501F01A
:10322000070C00EB4C1E00680EF594710024CEF8DC
:103230003C21CEF84031CEF844418EF829418EF839
:1032400028C104F071FD002010BD0000B0B5426837
:1032500001F0070494424FF0010229D84BB24FF419
:103260009475002B48BF28254FEAD11348BF21464B
:1032700005444FEA411C05EB41114B7090F8283290
:103280008A70012B05F80C4004BF0220B0BD026813
:103290000123054680F82832104604F02BFD24B99E
:1032A000286805F50C7104F0E9FC002285F8282255
:1032B0001046B0BD80B501F0070C00EB4C1101F8D1
:1032C00028CF01F1140E00684FF0000C8EE80C10AE
:1032D00001224A7004F028FD002080BD2DE9F04F46
:1032E00083B00446006804F07DFE014620680904AE
:1032F00005D5B0F94410B1F1FF3F40F3A98004F0C7
:1033000071FE400519D52068B0F8441021F48061A1
:10331000A0F84410204600F0FBFA94F82802012897
:103320000BD00120002584F8280284F8245020685E
:10333000002104F0B7FE84F82852206804F052FE01
:1033400001462068490405D5B0F8441021F48041B5
:10335000A0F8441004F046FE01462068890405D513
:10336000B0F8441021F40051A0F8441004F03AFEE3
:1033700001462068C90411D404F034FE000527D4A6
:10338000206804F02FFE800548D4206804F02AFE4F
:10339000C00552D403B0BDE8F08F00BFB0F84010B4
:1033A00021F00401A0F84010B0F8401021F008010D
:1033B000A0F84010204600F0BDFA2068B0F8441094
:1033C00021F48051A0F8441004F00CFE0005D7D57C
:1033D0002068B0F8401041F00801A0F84010B0F8A3
:1033E000441021F40061A0F84410B0F8401041F0FE
:1033F0000401A0F8401004F0F5FDC00406D52068D3
:10340000B0F8441021F48051A0F84410204600F098
:10341000CFFA206804F0E6FD8005B6D52068B0F844
:10342000441021F40071A0F84410204600F086FA00
:10343000206804F0D7FDC005ACD52068B0F8441072
:1034400021F48071A0F8441003B0BDE8F08F00BFF4
:1034500004F59471029104F1280504F50C7140F60D
:103460000F7A019114E000BF01F0070705EB471147
:10347000C1E9053200227E01CA6101224A70AF55BE
:1034800004F052FC2068B0F9441000297FF537AFF2
:10349000B0F8442012F00F080CD030F928B04FEAF1
:1034A0004809BBF1FF3F35DD1FFA8BF00006E9D577
:1034B0001CE100BF0188D20656D401EA0A0101F5D9
:1034C00000410180B0F8501094F8282000EB410032
:1034D00000EB0210B0F80404E16B6FF39F2060640E
:1034E0000844E06320460021FFF7EEFD94F8240035
:1034F0000028C7D0206C0028C4D194F8240021688B
:1035000040F08000C0B2A1F84C00002084F82400F4
:10351000B8E700BF30F8191040F60F7701EA0A014A
:10352000803120F81910029901EB481A9AF80C1012
:10353000002977D09AF8001030F82120B0F85030E8
:1035400000EB0111520401EB430100F18180B1F85D
:103550000C646FF39F26002E00F08880DAF81410B8
:10356000BAF80A207DE000BF0A053DD409B2B1F1E6
:10357000FF3F3FF787AF018801EA0A0180310180F0
:10358000B0F8501094F82821130100F20C4202EB1D
:103590004101CB5A6FF39F23C4F84431A3B1D4F84F
:1035A0003C1189B1B4F82E2104F020FDD4F83C017F
:1035B000D4F844110844C4F83C0120460021FFF728
:1035C0008BFD206800F20C42B0F85010D4F838316E
:1035D000002B00F0B1803E2B00F2BA8003F0010610
:1035E00006EB53039B02C0E0B0F8501094F828217A
:1035F00000EB410101EB0211B1F80C34B4F82E21BB
:1036000001996FF39F23C4F8443104F0EFFC206864
:10361000018801EA0A0180310180204600F0A8F902
:1036200030E700BFB0F850109AF8002000EB4101DD
:1036300001EB0211B1F80C646FF39F26002E79D0D4
:10364000DAF81410BAF80620334604F0CFFC19E07B
:10365000B1F804646FF39F2646B1DAF81410BAF893
:103660000820334604F0C2FC01E000BF00262068B9
:103670009AF8001048F2C00330F821203A401A436B
:1036800020F82120DAF81C20DAE905103244CAF8C3
:103690001C208A19CAF81420E0B1DAF810309AF820
:1036A0000010B34218D8029E01F0070306EB431145
:1036B000C1E905200020C861487020685F01F3550A
:1036C00004F032FB40F60F7A1FFA8BF000067FF50C
:1036D000D9AE0BE09AF800102046FFF7FDFC40F64B
:1036E0000F7A1FFA8BF000067FF5CCAE20684FEA08
:1036F000481230F8191005EB481701EA0A0101F5E4
:10370000004120F81910B0F85030A95C00EB4302DA
:1037100002EB0112B2F80434D7E905626FF39F237C
:10372000FB613344002A7B617FF49EAE2046FFF7A5
:10373000CBFCA7E60026A5E7535A48F2000723F47E
:10374000F8435352535ACFF6FF773B430DE000BF87
:103750005E09DF064FF0FF3708BF07EB531648F24C
:103760000003CFF6FF7343EA86235352018843F6E2
:103770000F72114048F2C00202F53F5251400180E1
:1037800080E60000002804BF01207047F0B585B036
:10379000064690F8290228B9002086F8280230460B
:1037A00000F094F8032086F82902306804F05CFAEF
:1037B00006F1140E96E82F009EE81050376ACDE906
:1037C0000054CDE902CE049704F0C4F900286AD170
:1037D00030680021002504F063FC7168002952D094
:1037E00006F128004FF0010C0022002300EB4217E5
:1037F00052018354DAB20133FA81DAB2914287F886
:1038000001C0FD70C7E90455BD61EFD806F594709D
:1038100000220025002300BF00EB45176D01435532
:1038200043F00105ECB2A1427A70FA70C7E90422B4
:10383000BA6128D900EB44176401055543F002052D
:10384000ECB2A1427A70FA70C7E90422BA611AD9BF
:1038500000EB44176401055543F00305ECB2A142A7
:103860007A70FA70C7E90422BA610CD900EB4417E8
:10387000640104330555DDB2A9427A70FA70C7E9D4
:103880000422BA61C8D806F10807D6E905543068A1
:103890008CCFD6E907CECDE9007502AD85E8105092
:1038A00004F0CEF930B1022086F82902012005B0DB
:1038B000F0BD00BF002086F82400012086F8290210
:1038C000306804F0BBF9002005B0F0BD006845F693
:1038D0000041C4F20001884218BF704780B582B031
:1038E00041F21C00C4F202000168002241F4000110
:1038F00001600068002100F400000190019814208C
:10390000FFF784FB142002B0BDE88040FFF76CBBDA
:1039100010B504468068022818BFFEF75FF8D4F897
:103920006802012103F0DAFCD4F86802BDE8104017
:1039300003F092BCD0F8680203F0B8BCD0F868027B
:1039400003F0BEBC90F82822012A04BF0220704771
:1039500010B5012280F8282280F82410026804465D
:10396000104604F09FFB002084F8280210BD0000E0
:10397000D0F8682200F50C71104603F0C5BC0000B9
:1039800090F82812012904BF0220704710B50121C8
:1039900080F828120446FFF795FB206804F04CF9E4
:1039A000206804F00FFB002084F8280210BD0000FE
:1039B00010B50446D0F8680203F0F8FCA0690028AE
:1039C00008BF10BD4EF61050CEF20000016841F065
:1039D0000601016010BD0000012821D002280DD091
:1039E000102808D141F20401C4F202010A6851F81A
:1039F000040CC00134D40020704700BF80B500F033
:103A0000C7F941F20401C4F2020109680222C1F3BC
:103A1000813102EB4101B0FBF1F0BDE8804070471D
:103A200041F20400C4F20200C16940F202320A40CD
:103A3000B2F5817F04BF4FF40040704701F440713C
:103A4000B1F5407F18D0B1F5007F1CBF0020704752
:103A5000006A49F64041800701EAE070704700BF04
:103A6000C2F3834015A3185CD2030DD440F60012B4
:103A7000C0F23D02504313E050F8040C4FF22441D1
:103A8000800301EAE07070470A6810A3C2F3404265
:103A90009A5C41F20023C0F27A03B3FBF2F2504386
:103AA0000968490248BF70474AF6AB214000CAF690
:103AB000AA21A0FB01014808704700BF02030405CA
:103AC000060708090A0B0C0D0E0F1010010200006A
:103AD0002DE9F04182B00446007841F21C06C0078F
:103AE000C4F202064AD030685FEAC00808D43068E1
:103AF00040F080503060306800F0805001900198B4
:103B000047F20007C4F200073868C00512D43868CD
:103B100040F480703860FFF7F9F905463868C00551
:103B200008D4FFF7F3F9401B6428F7D9032002B04B
:103B3000BDE8F081706810F4407012D0616801F443
:103B4000407188420DD0706840F24042C4F2422277
:103B5000012320F4407113600023C00713607160DB
:103B600026D17068616820F440700843B8F1000FF6
:103B7000706003D4306820F0805030602068810786
:103B800007D556F8181CA26821F44041114346F8A5
:103B9000181CC00607D556F8180CE16820F4800000
:103BA000084346F8180C002002B0BDE8F08100BFC1
:103BB000FFF7ACF9054641F2883700BF706880070F
:103BC000CFD4FFF7A3F9401BB8424FF00300F5D95B
:103BD000EAE70000002804BF012070472DE9F04308
:103BE00081B042F20008C4F202080446D8F800008E
:103BF0000D4600F0070081420CD9D8F8000020F0F3
:103C000007002843C8F80000D8F8000000F00700BB
:103C1000A8426CD1206841F204098107C4F202096C
:103C200017D5410705D5D9F8001041F4E061C9F86E
:103C30000010010705D5D9F8001041F46051C9F80A
:103C40000010D9F80010A26821F0F0011143C9F862
:103C50000010C00742D1D8F8000000F007008542EC
:103C60000CD2D8F8000020F007002843C8F8000064
:103C7000D8F8000000F00700A84238D120684107BA
:103C800007D5D9F80010E26821F4E0611143C9F8C2
:103C90000010000708D5D9F80000216920F4605011
:103CA00040EAC100C9F80000D9F8002002F00C0079
:103CB000082841F20020C0F27A004DD14CF666533C
:103CC000C2F38341C0F60003595CD20338D440F6F6
:103CD0000010C0F23D0048433EE000BF606859F864
:103CE000041C022808D0012826D1890306D401200B
:103CF00001B0BDE8F08300BF8901F8D5D9F8001004
:103D000021F003010843C9F80000FFF7FFF8064659
:103D100041F28837D9F80000616800F00C00B0EB80
:103D2000810F98D0FFF7F2F8801BB842F2D9032038
:103D300001B0BDE8F08300BF8907D8D5DEE700BF3A
:103D4000D9F800204AF23853C2F34042C0F60003CB
:103D50009A5C4843B0FBF2F0D9F800104AF23A52AC
:103D6000C1F30311C0F60002515C40F2AC0220FA2C
:103D700001F140F23400C2F200000068C2F2000219
:103D80001160FFF7EBF8002001B0BDE8F083000000
:103D900040F2AC0041F20401C2F20000C4F20201A0
:103DA000006809684AF24A52C1F3C221C0F6000213
:103DB000515CC84070470000002804BF01207047D4
:103DC0002DE9F04182B00446007841F20006C007B8
:103DD000C4F202060CD0706800F00C00042840F019
:103DE00081803068800303D56068002800F0468138
:103DF000207880071BD5706810F00C0F09D0706810
:103E000000F00C00082840F087807068C00300F1C3
:103E100083803068800703D52069012840F02E8117
:103E20003068616920F0F80040EAC1003060207815
:103E3000000713D4207840072CD4E569002D00F04A
:103E40001881706800F00C00082840F0A780012D50
:103E500040F00481012002B0BDE8F081A069002893
:103E600000F084800020C4F242200121C0F88014B8
:103E7000FFF74CF8054600BF706A800700F1B2807A
:103E8000FFF744F8401B0228F6D9032002B0BDE832
:103E9000F08100BFF0695FEAC00808D4F06940F023
:103EA0008050F061F06900F080500090009847F277
:103EB0000007C4F200073868C00549D4386840F4E8
:103EC00080703860FFF722F8054600BF3868C005EB
:103ED0003ED4FFF71BF8401B6428F7D9032002B03B
:103EE000BDE8F081706800F00C00082803D170680C
:103EF000C0033FF576AF61683068002900F00C819F
:103F0000B1F5A02F00F00081B1F5803F40F01A819B
:103F100040F480301CE100BF2069002840F200001E
:103F2000C4F2422000F0888001210160FEF7EEFF1C
:103F3000054600BF306880073FF572AFFEF7E6FF29
:103F4000401B0228F6D9032002B0BDE8F08100BF73
:103F5000E168306A002900F09D80052900F0928018
:103F6000012940F0AF8040F00100B1E00020C4F230
:103F700042200021C0F88014FEF7C8FF054600BFAC
:103F8000706A80077FF556AFFEF7C0FF401B02281E
:103F9000F6D9032002B0BDE8F08100BF0027C4F2CB
:103FA000422700203866FEF7B1FF022D05460DD1ED
:103FB0003068800140F1DE80FEF7A8FF401B022838
:103FC0004FF00300F4D902B0BDE8F0813068800101
:103FD0004FD5FEF79BFF401B02284FF00300F5D999
:103FE000F1E700BF40F2AC00C2F20000006844F606
:103FF000D351C1F26201A0FB0101480A019000BF48
:1040000000BF0198411E002801913FF413AF00BF8B
:104010000198411E002801913FF40CAF00BF0198A8
:10402000411E002801913FF405AF00BF0198411ED9
:1040300000280191E4D1FDE600210160FEF766FF52
:10404000054600BF306880077FF5F1AEFEF75EFFE2
:10405000401B02284FF00300F4D9B4E77068216ACE
:1040600000F480328A4209D1616A00F470108842FB
:1040700004D1002002B0BDE8F08100BF012002B0F1
:10408000BDE8F08140F004003062306A40F0010089
:104090001EE000BF20F001003062306A20F0040012
:1040A0003062FEF733FF054641F28837306A8007F9
:1040B00020D5FEF72BFF401BB8424FF00300F5D987
:1040C00081E700BF20F001003062306A20F0040078
:1040D0003062FEF71BFF054641F28837306A8007E1
:1040E00008D4FEF713FF401BB842F7D9032002B0F3
:1040F000BDE8F081B8F1000F3FF59FAEF06920F008
:104100008050F06199E600BF40F480203060306854
:1041100040F480301CE000BF20F480303060306814
:1041200020F480203060FEF7F1FE05463068800301
:104130007FF55EAEFEF7EAFE401B64284FF00300F9
:10414000F4D940E720F480303060306820F48020DB
:104150003060FEF7DBFE0546306880033FF548AE71
:10416000FEF7D4FE401B6428F6D9032002B0BDE858
:10417000F08100BF206AB0F5803F05D17168A26868
:1041800021F40031114371607168626A21F4741185
:1041900011430843706001203866FEF7B7FE0446FD
:1041A000306880013FF565AFFEF7B0FE001B0228C6
:1041B0004FF00300F4D906E7002804BF0120704740
:1041C000B0B504460020A06294F8511029B984F8D3
:1041D0005000204600F032F80020022184F85110EF
:1041E000D4E9001ED4E9023C0A6822F040020A60C9
:1041F00043EA0E02236942EA0C0242EA030CD4E9C4
:104200000532E5694CEA030C02F4007E4CEA0E0329
:1042100043EA050C256AA36A45EA0C052B430B60AB
:10422000042303EA12424A60CA6922F40062CA61A6
:104230000121606584F85110B0BD000070B586B0F2
:10424000044640F60000C4F20100216800F5205247
:10425000002691420596CDE90366029602D006B08B
:1042600070BD00BF41F21801C4F202010A6842F4B5
:1042700080520A600A6802F480520192019A0A6828
:1042800042F004020A60096801F0040101910199F9
:10429000A0210291022103910321059102A9FEF7B9
:1042A0001FFD40F640553020C2F20005C4F2020066
:1042B0001021802285E8430005F10C004FF4807343
:1042C0004FF4806C80E80C102846C5E90666FEF7BE
:1042D00043FB002818BFFDF781FBA5646C6206B0A4
:1042E00070BD00002DE9F04381B0044690F8500005
:1042F000012803D1022001B0BDE8F0834FF001088E
:104300001D460F46164684F85080FEF7FFFD94F8D0
:104310005110012942D18146002F4FF0010018BFF2
:10432000002E00F0FB800320002284F8510062651B
:104330002763A686E686A263A287E287A068314645
:10434000B0F5004F20682264626403D1026842F431
:10435000804202600268520603D4026842F04002C2
:10436000026062680139E368B2FA82F2B1FA81F15F
:1043700052094909B3F5006F41EA02013CD131B15C
:1043800037F8021BC1602763E08E0138E086E08EBB
:1043900000286BD0681C0ED11DE000BF0220BDE0DC
:1043A000216B31F8022BC2602163E08E0138E08678
:1043B000E08E00285AD0206881688907F0D4FEF783
:1043C000A5FDA0EB0900A842F2D338E0FEF79EFD60
:1043D000E08E00284AD0206881688907F6D5216BD5
:1043E00031F8022BC2602163E08E0138E086E08E56
:1043F0000028F0D13AE000BF39B139780173206B61
:1044000001302063E08E0138E086E08E70B3681CD6
:104410000BD11BE0216B09780173206B0130206305
:10442000E08E0138E086E08E00B32068816889075D
:10443000F0D4FEF76BFDA0EB0900A842F3D30320F4
:104440006CE000BFFEF762FDE08E78B12068816805
:104450008907F7D5216B09780173206B0130206340
:10446000E08E0138E086E08E0028EFD12068816878
:10447000090646D5691C0ED0FEF748FDA0EB0901E0
:104480002068A94212D281680906F5D439E000BF3C
:104490008168090635D58168090632D58168090623
:1044A00044BF81685FEA01612BD5F1E7416821F0E3
:1044B000E00141606168B1F5827F0AD1A168B1F580
:1044C000004F02D0B1F5806F03D1016821F04001A7
:1044D0000160A16AB1F5005F07D1016821F40051C4
:1044E0000160016841F400510160012184F851101C
:1044F000002184F85010616D41F020016165202198
:104500006165A16831B900210091C168009180689E
:1045100000900098606D002818BF0120002184F8E9
:10452000518084F8501001B0BDE8F083411E002096
:10453000B0EB116F1CBF012070474EF21002CEF29B
:10454000000251604EF62351CEF20001F0230B70B1
:1045500007219060116070477047000070470000AD
:1045600090F83C20012A04BF02207047B0B501F149
:1045700008053CCDD1E900CE23F47C5322F47052DF
:104580001A432EF4F0431A432CF4E0431A4324F464
:10459000C0431A432A43C96922F480420368114385
:1045A0005964002180F83C100020B0BD90F83C20F8
:1045B000012A4FF0020219D080B580F83D20026830
:1045C0005368D2F808C091E8024023F07003194301
:1045D0002CF0800343EA0E03516093600121002216
:1045E00080F83D1080F83C20BDE8804010467047C0
:1045F000006801F01F010422036A02FA01F123EAB4
:1046000001020262026A11430162416C41F40041FD
:104610004164816801F00701062903D0016841F077
:104620000101016000207047006801F01F010422B1
:10463000036A02FA01F123EA01010162016A0162DF
:10464000026A41F211110A4204D1026A40F2444363
:104650001A4205D0026A0A4209D00020704700BF02
:10466000426C22F400424264026A0A42F5D1016AB5
:1046700040F244421142F0D1016821F00101016091
:1046800000207047002804BF0120704710B590F843
:104690003D1031B9002180F83C10044600F056F876
:1046A0002046022180F83D10016840F2FF740B683B
:1046B000C4F2000442F6004CA142C4F2010C15DC25
:1046C000B1F1804F1AD040F20042C4F20002914290
:1046D00014D0A14218DCB1F1804F1DD040F200424D
:1046E000C4F20002914217D01AE000BF614505D024
:1046F00040F60002C4F200029142EAD1826823F03F
:1047000070031343A142E6DD614505D040F6000287
:10471000C4F20002914203D1026923F440731343AF
:10472000846923F08002D0F804E0C3682243614525
:104730000A60CB62C1F828E002D14269CCF830208F
:1047400001224A6180F83D20002010BD80B582B072
:10475000006840F20041C4F20001884214D042F6E1
:104760000041C4F2010188420CD141F21800C4F2A8
:104770000200016841F400610160006800F400601B
:104780000190019802B080BD41F21800C4F202000D
:104790004168002241F0020141604068002100F0C0
:1047A0000200009000981D20FEF730FC1D2002B092
:1047B000BDE88040FEF718BC0068C16841F0010107
:1047C000C160816801F00701062903D0016841F04A
:1047D000010101600020704790F83C20012A4FF051
:1047E000020248D080B580F83D20D0F800C04FF6D6
:1047F0007772DCF8083023EA0202CCF808200B6854
:104800003F2B1DDD5F2B39DD602B5BD0B3F5005FE7
:1048100000F09880702B26D1D1E901E3C968DCF85B
:10482000082043EA0E0322F47F4243EA01211143A8
:10483000CCF80810DCF8081041F0770111E000BF57
:104840001F2B03DC33B1102B04D00CE0202B01D044
:10485000302B08D1DCF8081021F07001194341F029
:104860000701CCF808100121002280F83D1080F8E3
:104870003C20BDE880401046704700BF402B41D02F
:10488000502BF0D1D1F804E0C968DCF82030DCF816
:10489000202022F00102CCF82020DCF8182022F0A1
:1048A000F00242EA011123F00A0242EA0E02CCF8B9
:1048B0001810CCF82020DCF8081041F0570121F046
:1048C0002001CEE7D1F804E0C968DCF8203023F0FD
:1048D0001003CCF82030DCF81830DCF8202023F46A
:1048E000704322F0A00243EA013142EA0E12CCF8F2
:1048F0001810CCF82020DCF8081041F0670121F0F6
:104900001001AEE7D1F804E0C968DCF82030DCF82B
:10491000202022F00102CCF82020DCF8182022F020
:10492000F00242EA011123F00A0242EA0E02CCF838
:104930001810CCF82020DCF8081041F0470121F0D5
:1049400030018EE7D1E901E3C968DCF8082043EAC9
:104950000E0322F47F4243EA01211143CCF80810F0
:10496000DCF8081041F480417BE70000002804BF18
:10497000012070472DE9F04F81B090F83D2042B9F9
:10498000002280F83C2004460D4600F08BF82946B2
:104990002046022280F83D20026844F20705936811
:1049A00042F6004CAB43936040F2FF731468C4F2CC
:1049B00000039A42C4F2010C14DCB2F1804F19D00A
:1049C00040F20045C4F20005AA4213D09A4217DC17
:1049D000B2F1804F1CD040F20043C4F200039A426F
:1049E00016D01AE0624505D040F60005C4F2000575
:1049F000AA42EBD1856824F070042C439A42E7DD8B
:104A0000624505D040F60003C4F200039A4204D187
:104A1000036924F4407543EA050424F080038469A3
:104A2000D0F804E0C568234362451360D562C2F83C
:104A300028E002D14369CCF830304FF0010CC2F8C5
:104A400014C095689469D2F820E0D1E90038D1E922
:104A5000027B43EA050A8D694FF6FF7924EA0904CF
:104A600047EA05254FF6FC47BD43D1E9077644EAFE
:104A70000B040B692C4344EA07242EF022074969F2
:104A800044EA031347EA080743EA063347EA0111F9
:104A9000C2F808A09361116280F83DC0002001B007
:104AA000BDE8F08F70B586B0006840F60002C4F231
:104AB0000002002190420591CDE90311029149D0F5
:104AC000B0F1804F67D141F21800C4F20200416892
:104AD00040F6004441F0010141604168C4F2010424
:104AE00001F0010101910199016802AD41F0040159
:104AF00001600168002601F004010191019901683B
:104B000041F0080101600068294600F008000190AA
:104B100001984FF400400290A4F58060CDE903664F
:104B2000FEF7DEF80820CDE9020620462946049665
:104B3000FEF7D6F80420C4F2010001684FF6FF42E8
:104B4000CFF6FF02114041F0E06141F48071016055
:104B500006B070BD41F21800C4F20200426842F093
:104B600004024260426802F004020192019A026863
:104B700042F008020260006800F00800019001980D
:104B8000C020CDE9020140F600400491C4F20100CA
:104B900002A9FEF7A5F806B070BD0000026804295E
:104BA000106A0BD020F0010011B9012109E000BF0B
:104BB0001062106A40F001001062106A20F01000CC
:104BC00010211062106A08431062106840F0010161
:104BD00000201160704700007047000010B50168A8
:104BE00004460869800744BFC8685FEA807039D40A
:104BF0000869400744BFC8685FEA40703ED408694E
:104C0000000744BFC8685FEA007045D40869C00661
:104C100044BFC8685FEAC0604AD40869C0071CBFC7
:104C2000C8685FEAC07051D10869000644BFC8680F
:104C30005FEA006052D40869400644BFC8685FEA72
:104C4000406053D40869800646BFC8685FEA806048
:104C500010BD6FF0200220460A61BDE81040FFF74A
:104C60007DBC00BF6FF002000861012020778869D9
:104C7000800743D02046FFF7AFFF45E06FF0040008
:104C8000086102202077886910F4407F40D02046D8
:104C9000FFF7A2FF42E000BF6FF0080008610420A8
:104CA0002077C86980073DD02046FFF795FF3FE099
:104CB0006FF01000086108202077C86910F4407F69
:104CC0003AD02046FFF788FF3CE000BF6FF00100BC
:104CD0000861204600F078FA2168A5E76FF08000AF
:104CE00008612046FFF738FC2168A4E76FF0400018
:104CF0000861204600F010FB2168A3E7204600F081
:104D000095F8204600F0FAF92168002020776FE737
:104D1000204600F08BF8204600F0F0F921680020D2
:104D200020776CE7204600F081F8204600F0E6F995
:104D300021680020207769E7204600F077F82046B8
:104D400000F0DCF921680020207766E770B586B0B6
:104D5000006840F20041C4F2000188424FF00001B7
:104D6000CDE90411CDE9021136D042F60041C4F27A
:104D70000101884257D141F21800C4F202000168D3
:104D800040F6004441F0080101600168C4F20104EA
:104D900001F0080101910199016802AD41F004019F
:104DA00001600068022600F00400019001984FF4B1
:104DB000C04002902046294603960596FDF790FFD5
:104DC0004FF44070CDE90206A4F5806029460596AF
:104DD000FDF786FF06B070BD41F21800C4F2020074
:104DE000016841F008010160006802A900F00800B4
:104DF000019001982020029002200390059040F637
:104E00000040C4F20100FDF76BFF0420C4F2010072
:104E100001684FF2FF32CFF6FF02114041F0E0612E
:104E200041F40061016006B070BD000070470000F1
:104E300090F83C30012B4FF0020300F0F6804FEA6F
:104E4000B202032A80F83D3000F2E9802DE9F043F8
:104E5000DFE802F002A43A74036842F600461A6AD8
:104E6000C4F2010622F001021A621D6A1A465C6849
:104E700052F818CFB3428E68D1F800E025F0020551
:104E800045EA06050CD1CE68D1E9057824F44074D2
:104E900025F00C0526F004063C43354344EA08049B
:104EA0002CF0730747EA0E075C609F614F68096941
:104EB0005F631D629F6947F008079F619F6927F044
:104EC00004079F61A6E000BF036842F600461A6A25
:104ED000C4F2010622F480721A621D6A1A46D3F8DF
:104EE00004C052F81CEFB3428E680C6825F40075BC
:104EF00045EA06250FD1CE68D1E90598360240F281
:104F0000FF4725F44065BE4335432CF4405748EA3B
:104F1000090647EA061C2EF073072743C3F804C0AE
:104F2000DF614F680969DF631D62DF6947F00807C9
:104F3000DF61DF6927F00407DF616BE0036842F699
:104F400000471A6AC4F2010722F480521A621A4614
:104F5000D3F820C05D6852F81C4FD1F800E08E688D
:104F6000BB4204D14F6925F4804545EA87152CF4EE
:104F7000005747EA063724F4E64646EA0E265D6007
:104F8000DE614E6809691E641F62DF6947F40067CD
:104F9000DF61DF6927F48067DF613AE0036842F68A
:104FA00000461A6AC4F2010622F010021A621D6A53
:104FB0001A46D3F804C052F8184FB3428E68D1F89D
:104FC00000E025F0200545EA06150FD1CE68D1E9AD
:104FD00005986FF0400725F0C00507EA061635432F
:104FE0002CF4406748EA090647EA860C24F4E644B4
:104FF00044EA0E27C3F804C09F614F6809699F63A4
:105000001D629F6947F400679F619F6927F480676D
:105010009F610902136819431160BDE8F043012143
:10502000002380F83D1080F83C301846704700009F
:10503000002804BF0120704710B590F83D1031B929
:10504000002180F83C10044600F056F8204602216A
:1050500080F83D10016840F2FF740B68C4F2000450
:1050600042F6004CA142C4F2010C15DCB1F1804FB4
:105070001AD040F20042C4F20002914214D0A14280
:1050800018DCB1F1804F1DD040F20042C4F20002A2
:10509000914217D01AE000BF614505D040F60002EA
:1050A000C4F200029142EAD1826823F070031343F4
:1050B000A142E6DD614505D040F60002C4F20002DF
:1050C000914203D1026923F440731343846923F0AE
:1050D0008002D0F804E0C368224361450A60CB62D5
:1050E000C1F828E002D14269CCF8302001224A619F
:1050F00080F83D20002010BD704700007047000080
:10510000006801F01F010122036A8A4023EA0201BC
:105110000162036A42F64441C4F201011A43A1F15B
:1051200044039842026207D0816801F00701062912
:105130000BD10020704700BF0A6842F400420A60A9
:10514000816801F007010629F3D0016841F00101EF
:1051500001600020704700000246006801F01F0156
:1051600001238B40016A42F6004C99430162C4F26C
:10517000010C016A604501620ED1DCF8201041F299
:105180001113194208D1016A40F24443194203D174
:10519000416C21F400414164016A41F2111319424A
:1051A00004D00121002082F83D107047016A40F2CE
:1051B00044431942F5D1016821F001010160012148
:1051C000002082F83D107047006840F20041C4F2B0
:1051D0000001884218BF70472DE9F04F81B040F2BE
:1051E000082AC2F2000ABAF80E00FBF7CEF843F222
:1051F0003336C4F253063146FBF716F84FF2000778
:10520000C4F27F573946FBF741F80025C4F2301548
:105210002946FBF709F8BAF80A1081460846FBF759
:10522000B4F83146FBF700F83946FBF72FF829466A
:10523000FAF7FAFFBAF80C1080460846FBF7A5F813
:105240003146FAF7F1FF3946FBF720F80021C4F2A6
:105250004831FBF71BF841F26F21C3F60331FBF72E
:1052600015F800210646FBF75DF840F26C07C2F224
:105270000007002818BF002697E830084846214656
:10528000FAF7CCFF4CF6CD49C3F64C794946FAF70C
:10529000CBFF2146FAF770FF0446386040462946A6
:1052A000FAF7BCFF4946FAF7BFFF2946FAF764FF51
:1052B000786030465946FAF7B1FF4946FAF7B4FF2D
:1052C0005946FAF759FF397EB860F9B920464FF0D0
:1052D0008041FBF719F8C8B9DAF828504FF080413F
:1052E0002846FBF71FF8064620462946FAF796FFA0
:1052F0004CF6CD41C3F64C51FAF796FF2946FAF722
:105300003BFF002E18BF2046CAF8280001B0BDE8B8
:10531000F04F00F045B8000070470000FEE70000C5
:1053200080B540F6382040F23801C2F20000C2F2E7
:105330000001002201F030FE002818BFFCF74EFBF0
:1053400040F6382040F2B001C2F20000C2F2000183
:1053500002F054F8002818BFFCF740FB40F6382054
:1053600040F2D411C2F20000C2F2000101F0C0FB11
:10537000002818BFFCF732FB40F63820C2F20000CC
:1053800002F052F8002808BF80BDBDE88040FCF75D
:1053900025BB0000FEE700007047000070470000DA
:1053A0002DE9F04F87B0FDF7B1FD40F26C0AC2F273
:1053B000000A9AF8184040F2082B8146C2F2000B0E
:1053C00044B39BF8010028BB0020CBE90700CBF8D1
:1053D0002400DAF80000DAF8141041F24805CBE9AD
:1053E00010010120C2F20005ABF80200284600219E
:1053F000CBF81890FFF784FE28460021FFF7F8F855
:1054000028460421FFF77CFE28460421FFF7F0F828
:105410009AF81840BBF84E0042F63448C4F201082E
:105420008BF80140FAF7B1FF43F23331C4F2530174
:10543000FAF7FAFE4FF20001C4F27F51FAF726FFA5
:105440000021C4F23011FAF7EFFEDBF828600546C0
:1054500030464FF08041FAF757FF44F2AE710746ED
:10546000C3F661713046FAF7DFFE27B901462846D8
:10547000FAF774FFF8B1002C44D0DAF800004FF0CE
:105480008041FAF75DFFB0B1DAF80C000021C4F2F8
:10549000A021FAF739FF70B1DBF81800A9EB000082
:1054A000C82851D3DAF808000021C4F20811FAF72D
:1054B0002BFF002848D141F248044FF44070C2F25B
:1054C00000040025AAF8180020460021CBE9075562
:1054D000CBF82450C8F80050C8F80450FFF73CFE41
:1054E00020460021FFF7A0F820460421FFF734FEF4
:1054F00020460421FFF798F88BF8015007B0BDE86B
:10550000F08F00BF41F248040020C2F20004CBE952
:105510000700CBF824008AF81900C8F80000C8F882
:10552000040020460021FFF717FE20460021FFF768
:105530007BF820460421FFF70FFE2046042107B028
:10554000BDE8F04FFFF770B841F24804C2F2000422
:10555000204600214FF00009FFF7D2FD2046002130
:10556000FFF746F820460421FFF7CAFD2046042134
:10557000FFF73EF89AF81800F8B19AF824000128CD
:1055800002D1DAF8109018E0DBF82450DAF8104075
:1055900028462146FAF7D4FE70B949F6A631C3F67B
:1055A000C4312846FAF7E8FD21468146FAF7ACFEF9
:1055B000002808BFA14600E0A1469BF80200DAF8E7
:1055C00000500128CBF8249002D1DBF8404007E0DE
:1055D000DAF814002C46CBF844000120ABF80200A6
:1055E00028462146FAF71AFE4CF6CD41C3F64C6127
:1055F000FAF71AFE2146FAF7BFFDDBF828700446D9
:10560000CBF8400038464FF08041FAF799FE002869
:1056100004BFCBF828502F469BF8036086B141F2B7
:105620007B41C3F66E713846FAF7FEFD014620460F
:10563000FAF778FEB0B14CF6CD47CBF6CC571FE069
:1056400046F26661C3F666713846FAF7EDFD01462B
:105650002046FAF783FE58B14DF20B77C3F6A33715
:105660000EE000BF4DF20B77C3F6A33704E000BF96
:105670004CF6CD47CBF6CC5786F001008BF80300F3
:10568000DBF84460DAF8144030462146FAF766FE4B
:10569000002818BF264638463146FAF76DFD4CF60D
:1056A000CD41C3F64C610746FAF73CFE00281CBF0B
:1056B0004CF6CD47C3F64C6738462146FAF74EFE06
:1056C000002828464FF07C5118BF2746CBF844707D
:1056D0004FF07C54FAF726FE28BB48464FF07C5129
:1056E000FAF720FE4CF6CD44C3F6CC54D8B9484660
:1056F0002946FAF741FD01464846FAF7C7FD46F24A
:105700006661C3F666710546FAF728FE00281CBFDD
:1057100046F26665C3F6667528462146FAF71EFE10
:10572000002818BF2C46DAE9011648460294FAF719
:1057300075FD0446019038463146FAF76FFD4CF688
:10574000CD41DBE9075807460690C3F64C71204669
:10575000FAF76AFD41F26F24C3F683242146FAF773
:1057600063FD29460495FAF707FD49F69A110646A6
:10577000C3F699713846FAF757FD2146FAF754FDFA
:105780004146CDF81480FAF7F7FC49F69A14C3F6AF
:105790009964074630462146FAF7E0FD49F69A1526
:1057A000CBF6996500281CBF49F69A16C3F6996690
:1057B00030462946FAF7D2FD00283846214608BF70
:1057C0002E46FAF7CBFD00281CBF49F69A17C3F600
:1057D000996738462946FAF7C1FD002808BF2F46C9
:1057E000019D4CF28F21C3F675412846FAF71CFD46
:1057F000029C2146FAF7C0FC31460390FAF7BCFC44
:1058000081464CF6CD410698C3F6CC41FAF70CFD23
:105810002146FAF7B1FC39460290FAF7ADFC46F2A0
:1058200066610446C3F666714846FAF76DFD58B9DD
:1058300028460021FAF792FD30B1DDF8109042F6CB
:105840003448C4F2010815E04CF6CD41C3F6CC5102
:105850004846FAF775FDDDF8109042F63448C4F278
:10586000010820B928460021FAF75CFD10B9B146BD
:10587000CBF81C6046F266614CF6CD45C3F6667106
:105880002046C3F6CC55FAF73FFD069E30B93046A8
:105890000021FAF763FD08B1059C10E04CF6CD41FC
:1058A000C3F6CC512046FAF74BFD059C20B9304693
:1058B0000021FAF737FD10B93C46CBF82070039869
:1058C0004946FAF759FC074602982146FAF754FC74
:1058D00046F26666C3F66676044638463146FAF7FF
:1058E0003DFD00281CBF46F26667C3F66677384662
:1058F0002946FAF733FD00282046314608BF2F46D7
:10590000FAF72CFD00281CBF46F26664C3F66674E5
:1059100020462946FAF722FD002808BF2C462046DB
:105920003946FAF7FFFC00284FF0010008BF3C465B
:1059300018BF02208AF8190020462946FAF7F2FC1F
:1059400000281CBF4CF6CD44C3F6CC54204631464B
:10595000FAF704FD4CF2000100281CBF46F2666411
:10596000C3F66674C4F279412046FAF75DFCFAF793
:105970002AFD40F2E731ABF80600091A80B2ABF815
:105980000810C8F8000088B2C8F8040007B0BDE8E5
:10599000F08F00007F2888BF7047F0B581B00F46B8
:1059A0009F292CD840F60044C4F20104154606464F
:1059B00020464FF480610022FDF7A2FA721C7B1C86
:1059C000F0B2F9B2D2B2DBB200F004F968BAADF8C5
:1059D0000200204601210122FDF792FA40F6F07004
:1059E000C2F200000DF1020102224FF0FF33FEF778
:1059F00079FC20464FF480610122FDF781FA01B065
:105A0000BDE8F040704700002DE9F04782B004780F
:105A1000002C3DD040F6004940F6F07AC4F201096E
:105A2000451CC2F2000A0DF1070802E0013C200605
:105A30002ED015F8020B01218DF8070048460022F0
:105A4000FDF75EFA5046414601224FF0FF33FEF764
:105A500049FC15F8016C16F07F070CD0484601216F
:105A60000122FDF74DFA504629463A464FF0FF33E2
:105A7000FEF738FC3D4470B2B0F1FF3FD6DC15F8BC
:105A8000010BFF2808BF4FF4FA70FCF7EFFFCDE7DA
:105A900002B0BDE8F08700007F2898BF9F2901D998
:105AA000704700BF2DE9F04381B0904640F60046B4
:105AB00002449946C4F20106802A03EB0102089DC4
:105AC00088BFC0F18008A02A88BFC1F1A0090446A0
:105AD00030460F464FF480610022FDF711FA08EBC3
