:020000040800F2
:10000000C012002001010008753E0008F93D0008FB
:10001000713E0008A10A0008A55F0008000000006A
:10002000000000000000000000000000A1470008E0
:100030000D0B000800000000793E0008A5470008ED
:100040001B0100081B0100081B0100081B01000820
:100050001B0100081B0100081B0100081B01000810
:100060001B0100081B0100081B010008F50A00081D
:100070001B010008010B00081B0100081B01000800
:100080001B0100081B0100081B0100081B010008E0
:10009000C95E00081B0100081B0100081B010008C5
:1000A0001B0100081B0100081B0100081B010008C0
:1000B0001B010008F94700081B0100081B0100088C
:1000C0001B0100081B0100081B0100081B010008A0
:1000D0001B0100081B0100081B0100081B01000890
:1000E0001B0100081B0100081B010008DFF80CD0F1
:1000F00000F0D4F90048004729700008C012002021
:100100000648804706480047FEE7FEE7FEE7FEE7B1
:10011000FEE7FEE7FEE7FEE7FEE7FEE7A947000889
:10012000ED00000810B5044604E00B7800F8013B30
:1001300003B1491C521EF8D2204610BDF0B480EA2B
:100140000102D40F4200B2EB410F02D20246084630
:1001500011464A0042D0C30DDDB2C1F3C752AD1AF9
:10016000202D35DAC1F3160141F4000204B15242E8
:10017000C5F1200602FA06F12A411044B3EBD05F24
:1001800023D0C4B1012DA0EBC35009DCF0BC4FF06B
:10019000004202EAC352DBB200F5000000F03AB9B7
:1001A000400000F1807000EBC350A0F1807040EA85
:1001B000D170490009E0490841EAC071A0EBC35081
:1001C00000F50000400800EBC350F0BC00F019B986
:1001D0006142012202EB4101001BF6E7F0BC7047CF
:1001E00081F00041AAE780F00040A7E780EA010221
:1001F00010B502F00043400022D04A001FD0010E8B
:1002000001EB1261C0F35600C2F3560240F4000045
:1002100042F40002A0FB022000047F39140400D045
:10022000401C50EA124001D44000491EC2B20C06E4
:1002300004EBD010401C4008802A02D003E00020CC
:1002400010BD20F00100002900DA0020184310BD85
:1002500030B480EA010202F0004530F0004221F0A3
:10026000004013D090B1C30DD40DC2F31601C0F3FA
:100270001600E41A41F4000140F400027D3491427A
:1002800001D3641C00E04900002C02DA30BC0020DD
:1002900070474FF400000023914201D3891A0343B1
:1002A00040084FEA4101F7D151B1914202D14FF0DC
:1002B000004105E002D24FF0010101E06FF00101C1
:1002C00003EBC450284430BC00F09BB8002801DB8D
:1002D000C0F10040002901DBC1F10041814201D899
:1002E0000120704700207047002801DBC0F100406A
:1002F000002901DBC1F10041814201D20120704798
:1003000000207047002801DBC0F10040002901DB1C
:10031000C1F10041814201D30120704700207047A4
:10032000002801DBC0F10040002901DBC1F10041E0
:10033000814201D901207047002070479623002296
:10034000114600F067B800F0004220F00040C10DF7
:10035000C0F3160040F400007F2901DA0020704746
:10036000962903DCC1F19601C84001E09639884026
:10037000002AF4D04042704720F00040C10DC0F385
:10038000160040F400007F2901DA0020704796290A
:1003900003DCC1F19601C840704796398840704728
:1003A0002DE9F05F0546002092469B4688460646AA
:1003B000814640241BE0284641464746224600F03D
:1003C00094F853465A46C01A914110D31146184624
:1003D000224600F07BF82D1A67EB01084F462246B3
:1003E0000120002100F072F817EB00094E41201E99
:1003F000A4F10104DFDC484631462A464346BDE805
:10040000F09F0029A8BF7047401C490008BF20F09A
:100410000100704710B4B0FA80FC00FA0CF050EA0A
:10042000010404BF10BC704749B1CCF1200421FA8B
:1004300004F411FA0CF118BF012121430843A3EB86
:100440000C01CB1D4FEA00614FEA102042BF002093
:1004500010BC704700EBC35010440029A4BF10BC6F
:100460007047401C490008BF20F0010010BC7047D5
:10047000420005D0C0F3C7525242914201DC002035
:10048000704700EBC1507047C10F80EAE07008442C
:10049000CA0796230021FFF7BDBF00001CB509481D
:1004A0000090094801900546009C06E0E06840F095
:1004B000010394E8070098471034AC42F6D3FFF7E5
:1004C00019FE0000D0A30008F0A30008202A04DBD6
:1004D000203A00FA02F1002070479140C2F1200357
:1004E00020FA03F3194390407047202A04DB203A96
:1004F00021FA02F00021704721FA02F3D040C2F144
:100500002002914008431946704770B58C1810F8C6
:10051000015B15F0070301D110F8013B2A1106D148
:1005200010F8012B03E010F8016B01F8016B5B1E62
:10053000F9D12B0705D40023521E0DD401F8013B3D
:10054000FAE710F8013BCB1A921C03E013F8015BA9
:1005500001F8015B521EF9D5A142D8D3002070BD2D
:10056000B0B5044600688168C90701D10020B0BD5C
:10057000816821F00101816001F078FA054600BF31
:1005800020688068C007F1D001F070FA401B032892
:10059000F6D3A06A40F01000A062E06A40F00100CB
:1005A000E0620120B0BD00000146406A826A12F09C
:1005B000500F03D0006A026B084610470168826A38
:1005C00042F400728262896801F46021B1F5602F03
:1005D00001D1017B11B100F0B9BB00BF816A21F4E8
:1005E00080718162816AC90448BF00F0AFBB816A33
:1005F00041F00101816200F0A9BB0000406A816AFC
:1006000041F040018162C16A41F00401C16200F021
:10061000E5BB0000406A00F0DFBB0000B0B582B06F
:1006200004460020019021688A68D2073FD188687B
:1006300040F00100886040F27800C2F200000068DB
:100640004DF68361C4F21B31A0FB0101880C0190BF
:100650000198A0B1019801380190019878B10198F2
:1006600001380190019850B101980138019001982A
:1006700028B101980138019001980028EAD101F0D1
:10068000F5F9054620688068C00713D101F0EEF93E
:10069000401B0328F6D3A06A40F01000A062E06A75
:1006A00040F00100E062002084F82400012002B044
:1006B000B0BD00BF002002B0B0BD00002DE9F04386
:1006C00083B040F2D0190C46C2F200090028C9F8E4
:1006D0000800C9F8101047D0054600690021FFF74F
:1006E0001FFE40F200080028C4F2401808BFC5F8F9
:1006F0001080686900210027FFF712FE002804BF60
:100700004FF080406861A87E2F83073810F1070FF3
:100710009CBF0320A876E87E0021032824BF002088
:10072000E876286A0027FFF7FBFDD8B94FF0804034
:10073000C5E90480032068830020C4F2A00046F2CB
:1007400066612F77C4F28611002200230027C5E9D5
:10075000088005F12800C4F24002C4F2A013C4F2DC
:1007600020078EC000F0C4F84CB120463C2102F0B6
:100770009DFFD9F810000068406AA9F8040003F052
:100780007DFE00240020A9F8004089F8034003F012
:1007900067FE40F23805C2F20005D5E900304FF49B
:1007A000FC61CDE9000147A26E200D21029403F007
:1007B00007FFD5E900304FF6E077CDE9000742A208
:1007C0006E202B21029403F0FBFED5E900304FF69A
:1007D0001F06CDE900063DA26E204921029403F0D8
:1007E000EFFED5E900303AA2CDE9000600203C2119
:1007F000029403F0E5FED5E900304AF29C32009005
:10080000C0F60002002046210297019403F0D8FEB2
:10081000D5E9003040F2FF77CDE900072DA2002096
:100820006221029403F0CCFED5E900302BA2CDE981
:10083000000755206221029403F0C2FED5E9003082
:1008400027A2CDE9000700207621029403F0B8FE2C
:10085000D5E9003024A2CDE900075C20762102947E
:1008600003F0AEFED5E900304FF47841CDE9000148
:100870001EA26E206921029403F0A2FE1920192104
:100880004E221F2305F090FB192037214E221F23F3
:1008900005F08AFB192055214E221F2305F084FB09
:1008A00040F22830C2F2000089F8184089F8384038
:1008B00089F85840047080F8204080F8404003B028
:1008C000BDE8F08355000000490000005000000022
:1008D0005345540056696E3A00000000560000006F
:1008E000496C696D3A000000410000002A43000095
:1008F00040F2D010C2F200008068002808BF7047A4
:10090000F0B54FF61441C0F6000151F8142C42F234
:100910002603CBF6BA239A426ED151F8102C012A45
:100920006AD151E903CE4BF6E873C0F6FF6345F692
:10093000BE246344CFF6C6445C400EEB841303EB45
:10094000940547F6B913C9F6376351F8042C1D44D2
:100950006C4002EB841505EB94051D440E686C4059
:1009600006EB841505EB94051D444E686C4006EBC0
:10097000841505EB94051D448E686C4006EB8415C8
:1009800005EB94051D44CE686C4006EB841505EB21
:1009900094051D440E696C4006EB841505EB940527
:1009A0001D44D1E905676C4006EB841505EB940501
:1009B0002B446340BB421FD1D3B2827611F8032C83
:1009C00011F8027C073B13F1070FC0E904CEC27691
:1009D00007779CBF03238376032A24BF0022C276B5
:1009E000D1E90032C0E90832D1E90232C0E90A3265
:1009F0004A690969C0E90C12BDE8F040704700007F
:100A0000F0B581B040F24827C2F2000707F1400577
:100A1000284600F07FF840F2B824C2F200042046D5
:100A200000F078F842F63440C4F201000021016081
:100A3000382040F63C66C4F20000C2F200060160B5
:100A4000304603F0E3F83046002102F09DFB3046CB
:100A5000042103F0DBF83046042102F095FB07F196
:100A600038012846042200F073FC4FF42F7000F088
:100A7000D3FE40F2400004F13001C2F20000FFF763
:100A80001DFE40F67C60C2F2000002F045FC786971
:100A900020B1B889B88001B0F0BD00BFFEE700000A
:100AA000FEE70000002070470020704710B540F6B8
:100AB0002C04C2F2000440F2EC71C2F200012046A4
:100AC000002203F09BFF40F2AC71C2F2000120460D
:100AD00003F08EFF002010BD10B540F62C04C2F2CA
:100AE00000040146204603F083FF204603F062FF26
:100AF000002010BD40F6F020C2F2000000F034BD2E
:100B000040F63430C2F2000000F02EBD7047000005
:100B10007047000070B582B004460020019094F840
:100B20002400012802D1022002B070BD012084F807
:100B300024002046FFF714FD20B1002184F8241082
:100B400002B070BD0646A06A41F20211884302302D
:100B5000A06240F27800C2F200000568022001F0B5
:100B6000EBFCB5FBF0F0400001900198A8B100BF8C
:100B7000019801380190019878B1019801380190ED
:100B8000019850B1019801380190019828B101985D
:100B90000138019001980028EAD12046FFF73EFD78
:100BA0002068816841F00801816000F05FFF054620
:100BB00020688168090705D500F058FF401B0A2806
:100BC000F6D910E0816841F00401816000F04EFF29
:100BD000054600BF20688068400709D500F046FF41
:100BE000401B0B28F6D3012010216FF0120203E006
:100BF00001216FF003023046A36A1A401143A1623B
:100C0000002184F8241002B070BD000070B581B0DE
:100C10000022009290F82420012A03D102210846E4
:100C200001B070BD4A680123062A02EB820E80F8EB
:100C3000243007D8D0F800C06FF004030CF134065C
:100C40000CE000BFD0F800C00C2A87BF0CF12C06C6
:100C50006FF040030CF130066FF022030EEB03023D
:100C60001F23346803FA02F50B6824EA050503FA2A
:100C700002F22A433260092B03EB43021AD9DCF853
:100C80000C601E3A072589689540AE43914023F0D9
:100C900001023143102ACCF80C1015D142F2004168
:100CA000C4F201018C4517D0816A41F020018162B4
:100CB00001210AE0DCF81030072689689640B3432A
:100CC00091401943CCF810100021002280F8242014
:100CD000084601B070BD00BF89680902F4D4DCF891
:100CE0000810102B41F40001CCF80810ECD140F2B0
:100CF0007801C2F2000109684DF68362C4F21B322A
:100D0000A1FB0212910C01EB8101490000910099B5
:100D10000029D9D000990139009100990029D3D038
:100D200000990139009100990029CDD0009901392D
:100D3000009100990029C7D00099013900910099CC
:100D400000294FF00001E5D1BFE70000006842F242
:100D50000041C4F20101884218BF7047B0B540F2AB
:100D60004820C2F2000000F1180E448F9EE80C509B
:100D70001D19838FC48F63440EEB040CC488018F4C
:100D800001341144A2B2242AC0E906150362C0F856
:100D900024C0C4801CD348F63962C3F6E302A1FB29
:100DA0000214A5FB0215A3FB0213ACFB0212E1081F
:100DB000D20801810021ED08DB08C28101224581B2
:100DC0008381C1800270C0E90521C0E90711416239
:100DD000BDE8B04070470000704700007047000059
:100DE0000068C06C70470000002804BF01207047F5
:100DF000B0B50446806A28B120688168C9070CD064
:100E000032E000BF0020E06284F82400204600F0B9
:100E10008FF820688168C90726D1A16AC9063DD428
:100E2000A16A41F2021291430231A162E169D4E95F
:100E3000013241EA030C531EB3FA83F35D091346F2
:100E4000B2F5807F18BF2B02217D257B01294CEA5A
:100E500045012ED145B3A56A45F02005A562E56A96
:100E600045F00105E56224E0816821F0010181601F
:100E700000F0FCFD054600BF20688168C907CCD0A2
:100E800000F0F4FD401B0328F6D3A06A40F01000E8
:100E9000A062E06A40F00100E062A06AA06A40F04F
:100EA0001000A0620120B0BDA56903EB4533A3F596
:100EB000C0534568B2F5807F25F4694543EA0503D0
:100EC000436083684FF2FD75CFF6E17503EA0503D1
:100ED00043EA0103836001D0012A07D1226900237C
:100EE000CFF6F07303EB025201E000BF0022C36AA9
:100EF00023F470031A43C262806840F6FE62CFF6A4
:100F00001F721040884207D10020E062A16A0122CE
:100F100062F30101A162B0BDA06A40F0100020F0B0
:100F20000200A062E06A40F00100E0620120B0BD72
:100F3000F0B585B0016842F60002C4F201029142A8
:100F40004FF00002CDE90322CDE9012246D042F262
:100F50000042C4F20102914261D1074641F21800F9
:100F6000C4F20200016841F400710160016801F4FB
:100F7000007100910099016841F00401016000686E
:100F800001A900F00400009000981B2001900320AC
:100F9000029040F60000C4F2010000F051FC40F65F
:100FA000F0240820C2F20004C4F202000021C4E9C7
:100FB000000104F1080080224FF480734FF4806533
:100FC00020266EC02046E16100F09CFB002818BF7F
:100FD000FFF79EFD3C62676205B0F0BD41F218006C
:100FE000C4F20200016841F480610160016801F40B
:100FF000806100910099016841F00401016000687E
:1010000001A900F004000090009804200190032042
:10101000029040F60000C4F2010000F011FC05B09F
:10102000F0BD00002DE9F04182B000270D460446D6
:10103000019700F01BFD21688A68D20544D406465A
:101040004868C00503D4C86A10F4700F46D040F257
:101050007800C2F20000076842F292480220C1F212
:10106000492801F069FA216844F624130A69B7FB9C
:10107000F0F0C2F292431A4206D1CA6844F6241331
:10108000C0F292031A4249D00A6912EA080F07D146
:10109000CA6842F29243C0F249031A4200F08480C7
:1010A0000A6949F24923C0F224031A424FF0FC02B4
:1010B00042D1CF681F4208BF5422019B02FB00F7B8
:1010C000BB423ED379E000BFA06A40F02000A0629E
:1010D00084F82470012002B0BDE8F0810868800720
:1010E0006BD4002D55D0681C12D10868800764D4D9
:1010F000086880075CBF08685FEA80705DD4086894
:101100008007F2D559E000BF21680868800754D4F1
:1011100000F0ACFC801BA842F6D93AE00A6912EA5A
:10112000080F4FF0290207D1CB6842F29247C0F274
:1011300049073B4208BF1422019B02FB00F7BB4258
:101140003BD235B3681C1FD1019801300190019842
:10115000B84232D20198013001900198B8422CD2A5
:101160000198013001900198B84226D201980130CF
:1011700001900198B842E7D31FE000BF0198013009
:1011800001900198B84217D200F070FC801BA84271
:10119000F4D9A06A40F00400A062002084F8240082
:1011A000032002B0BDE8F0815422019B02FB00F74E
:1011B000BB42C6D301E000BF21686FF01200086097
:1011C000A06A40F40070A062886800F46020B0F566
:1011D000602F01D1207B18B1002002B0BDE8F08162
:1011E000A06A20F48070A062A06AC004F4D4A06A4F
:1011F00040F00100A062002002B0BDE8F0810000D4
:10120000B0B582B0044690F82400012802D1022033
:1012100002B0B0BD012084F82400002001902068B5
:101220008168C90742D1816841F00101816040F2C3
:101230007800C2F2000000684DF68361C4F21B31F1
:10124000A0FB0101880C01900198A0B10198013820
:101250000190019878B1019801380190019850B13E
:10126000019801380190019828B101980138019046
:1012700001980028EAD100F0F9FB05462068816852
:10128000C90713D100F0F2FB401B0228F6D9A06A6F
:1012900040F01000A062E06A40F00100E06200202F
:1012A00084F82400012002B0B0BD00BFA26A42F25F
:1012B000044140F20133C4F201019A4302F5807304
:1012C00001F57F729042A3622AD0A36A23F48013AF
:1012D000A36243685B0504D5A36A012565F30D335A
:1012E000A362A56A0023ED044FF0000544BFE56A40
:1012F00025F00605E56284F824306FF002030360F0
:10130000836803F46023B3F5602F19D1904213D0A2
:10131000816841F4A0018160002002B0B0BD00BF2F
:101320000B6813F4702FD0D0A36A43F48013A36228
:101330000B685B05D0D4D4E7096811F4702FE7D0AF
:10134000816841F480118160002002B0B0BD0000CE
:10135000F0B581B00446036842F60000C4F2010013
:10136000834205D042F20040C4F2010083420BD117
:1013700042F20440C4F20100006810F4702F03D060
:10138000012001B0F0BD00BF94F82400012803D172
:10139000022001B0F0BD00BF012084F8240000202D
:1013A000009098680E461546C00743D198684DF6E0
:1013B000836140F00100986040F27800C2F20000C2
:1013C0000068C4F21B31A0FB0101880C009000985A
:1013D000A8B100BF009801380090009878B100983B
:1013E00001380090009850B10098013800900098A2
:1013F00028B100980138009000980028EAD100F048
:1014000035FB074623689868C00713D100F02EFB10
:10141000C01B0228F6D9A06A40F01000A062E06A62
:1014200040F00100E062002084F82400012001B0B7
:10143000F0BD00BF42F20440A16AC4F2010040F6D0
:101440000172914300F57F7201F580719342A162B0
:1014500046D0A06A20F48010A0625868400504D5E8
:10146000A06A012161F30D30A062A16A0020C904C5
:101470004FF0000144BFE16A21F00601E16284F807
:101480002400206A40F2A951C0F6000140F2156222
:1014900040F2FD5700F1280CC0F60002C0F600072C
:1014A0008CE886006FF0020119609968324641F4B9
:1014B0008071996003F14C012B4600F05DF92068C2
:1014C000816801F460228168B2F5602F0CBF41F49D
:1014D000A00141F480118160002001B0F0BD00BF87
:1014E000016811F4702FB4D0A16A41F48011A16297
:1014F00000684005B4D4B8E7B0B5044690F82400BD
:10150000012804BF0220B0BD0121206884F8241006
:101510008168C90708D1214651F8280F41F201120C
:1015200020EA0202002018E0816821F001018160B8
:1015300000F09CFA054600BF20688068C007EAD02A
:1015400000F094FA401B0328F6D3A06A214640F02D
:101550001000A06251F82C2F012042F001020A6015
:10156000002184F82410B0BD10B5D0E90FCE016879
:10157000DCF800300A6823FA0EF35C072AD512F073
:10158000040427D00A68920603D40A6822F00402F1
:101590000A602F22C4F20202914240F20402C4F215
:1015A000020259DD3023C4F20203994270D0442371
:1015B000C4F20203994271D05823C4F20203994243
:1015C00078D14FF480231360C16A002940F09780DE
:1015D0006EE000BF9C0727D512F0020424D00A68F1
:1015E000920606D40A6822F00A020A60012280F8F4
:1015F00021202F22C4F20202914240F20402C4F2DE
:10160000020239DD3023C4F2020399425ED0442342
:10161000C4F2020399425DD05823C4F202039942F6
:101620005ED14FF4003363E01B0741D512F008028E
:1016300008BF10BD0A6822F00E020A60012101FAFB
:101640000EF2CCF804208163016B4FF48072002904
:10165000028454D12CE000BF0823C4F20203994253
:1016600022D01C23C4F20203994223D140231360E9
:10167000C16A002943D11BE00823C4F20203994246
:101680002CD01C23C4F20203994229D120232FE03D
:101690004FF480631360C16A89BB09E04FF4804353
:1016A0001360C16A59BB03E004231360C16A31BBF4
:1016B00010BD00BF02F168044FF08063A14208BF73
:1016C0004FF480031360C16AC9B9F1E74FF40073A6
:1016D0000EE000BF4FF400530AE000BF022307E012
:1016E00002F168044FF00073A14208BF4FF40013E9
:1016F0001360816A0022002980F82020D8D0BDE83C
:1017000010400847002804BF012070472DE9F04130
:1017100001684FF6F872CBF6FD724CF6CD430A44E1
:10172000CCF6CC43A2FB03236FF0030202EA930240
:101730000023C4F2020300F1040E00F11007C0E917
:101740000F329EE80051F0CF0A6843F6F0739A43D7
:1017500042EA080242EA0C0242EA0E0222432A430B
:1017600032433A430A6000214FF48072816302845D
:10177000BDE8F0410846704790F820C0BCF1010F69
:1017800004BF02207047F0B590F821C04FF0010E61
:10179000BCF1010F80F820E026D14FF0020C80F858
:1017A00021C04FF0000CC0F838C0D0E900C4C56AB1
:1017B000C66BDCF80070102C27F00107CCF8007025
:1017C000006C0EFA00F070600846CCF8043004BFDC
:1017D00010460A46CCF80800CCF80C20DCF80000D3
:1017E00045B140F00E000DE0002180F820100220ED
:1017F000F0BD00BF20F00400CCF80000DCF80000D1
:1018000040F00A00CCF80000DCF8000040F00100D5
:10181000CCF800000020F0BDB0B5044600F026F979
:10182000054640F20400C2F200000078611C18BFB7
:10183000044400BF00F01AF9401BA042FAD3B0BD27
:101840002DE9F04F82B00E68002E00F0FF8040F2CC
:101850000C4C40F2004E41F20042C4F2010CC4F2C2
:10186000010EC4F201020427002401234FF0000AF4
:101870004FF00009904208BF0327009749E000BFDE
:1018800041F20002C4F20102009F904208BF022709
:1018900004F00C030F229A402BEA020207FA03F32A
:1018A0004FEA9A051A4346F825204E68F203DEF8FF
:1018B000002054BF22EA080242EA0802CEF80020C3
:1018C000DEF80420B30354BF22EA080242EA080209
:1018D000CEF80420F302DEF8082054BF22EA080202
:1018E00042EA0802B302CEF80820DCF800204FF0EC
:1018F000010354BF22EA080242EA0802CCF80020A1
:101900000E680AF1010A36FA0AF204F1040400F042
:101910009D8003FA0AFB16EA0B08F1D04E684FF6D9
:10192000FF72C1F21002964212DC122E56D8DFE886
:1019300006F0350B4D495555555555555555555589
:1019400055555545510000BFD1F80C9046E000BFF9
:101950004FF6FF72C1F2210296420FDC0022C1F263
:10196000110296421AD00022C1F21202964215D0FC
:101970000022C1F22102964210D02FE00022C1F2D3
:10198000220296420AD00022C1F23102964205D0CC
:101990000022C1F23202964220D100BF8A684AB1C9
:1019A000012A14BFC0F814B0C0F810B04FF00809F5
:1019B00014E000BF4FF0040910E000BFCA6802F154
:1019C00004090BE04FF0000908E000BFCA6802F10B
:1019D000080903E0CA6802F10C0900BF0246264666
:1019E000B8F5807F24BF0432203E17680F25B5402C
:1019F00027EA050509FA06F635431560CA79D206C5
:101A00007FF57EAF41F21803C4F202031A68AEF507
:101A10007E7642F001021A601A6802F00102019219
:101A2000019A2AF0030256F802B040F60002C4F20E
:101A30000102904208D040F60042C4F201029042F6
:101A40007FF41EAF012723E7002721E702B0BDE89E
:101A5000F08F00008068084018BF01207047000028
:101A6000002A08BF090401617047000040F6BC600D
:101A7000C2F200000068704740F2040040F6BC610A
:101A8000C2F20000C2F2000100780A681044086047
:101A90007047000080B542F20000C4F20200016805
:101AA00041F010010160032000F08CF8002000F0EC
:101AB00005F800F027F8002080BD000070B540F266
:101AC0000406C2F2000640F278013278C2F2000148
:101AD0004FF47A730968B3FBF2F20446B1FBF2F1FA
:101AE000084601F0D3FA0F2C4FF0010508D838B999
:101AF0004FF0FF3021460022002500F037F87460D7
:101B0000284670BD82B041F21800C4F2020001689C
:101B1000022241F001010160016801F0010101911F
:101B20000199416841F080514160406800F0805067
:101B3000009000980420C4F20100016862F31A6169
:101B4000016002B070470000002848BF704700F0F5
:101B50001F01012202FA01F11C2202EAD0004EF21A
:101B60000012CEF2000281507047000010B54EF610
:101B70000C5CCEF2000CDCF80030C3F3022E8EF0C9
:101B80000704042C28BF0424BEF103034FF0FF3EDA
:101B90000EFA04F438BF0023A14399400EFA03F370
:101BA0009A43114300F00F0200F160430901043A27
:101BB00003F564436244002848BF02F10C03197026
:101BC00010BD00004EF60C51CEF200010A684FF62F
:101BD000FF031A4060F30A2242F0806040F0FD707B
:101BE0000860704701F0070C00EB4C1C0CF1280C4E
:101BF00000EB4110090658BF00F5947C52B1ACF8D7
:101C000008301B0C01210A202CF8003000208CF831
:101C10000C107047002106202CF8003000208CF8B2
:101C20000C10704770470000D0F8683200EB41108C
:101C3000C26B184603F064B9D0F8683200EB41106B
:101C4000D0F83C21184603F0C1B9000010B54FFA96
:101C500081FC4FF49472BCF1000F48BF282201F0C0
:101C6000070302444FEAD11C02EB431181F801C083
:101C700090F828C24FEA431EBCF1010F02F80E3063
:101C800004BF022010BD0268012380F828320446F8
:101C9000104603F0D9FE002084F8280210BD000091
:101CA000B0B5426801F00F03934284BF0120B0BD7C
:101CB0004AB24FF49474002A48BF282401F0070365
:101CC000021990F828424FEAD11C02EB431181F827
:101CD00001C04FEA431C012C4FF000048C7002F845
:101CE0000C3004BF0220B0BD0268012380F8283206
:101CF0000546104603F03CFF204685F82842B0BD5B
:101D000001F0070100EB4110D0F8440170470000DA
:101D100010B54FFA81FCBCF1000F01F0070C0DD497
:101D200000EB4C1E00240EF594718EF829418EF8BC
:101D300028C1CEF838218EF82B3109E000EB4C1188
:101D400001F828CF01244C700A61CB70A1F80EC0B5
:101D5000022B04BF00220A7190F82822012A04BF36
:101D6000022010BD0268012380F828320446104684
:101D700003F024FD002084F8280210BD10B501F006
:101D8000070C00EB4C1E00680EF594710024CEF891
:101D90003C21CEF84031CEF844418EF829418EF8EE
:101DA00028C103F039FF002010BD0000B0B5426823
:101DB00001F0070494424FF0010229D84BB24FF4CE
:101DC0009475002B48BF28254FEAD11348BF214600
:101DD00005444FEA411C05EB41114B7090F8283245
:101DE0008A70012B05F80C4004BF0220B0BD0268C8
:101DF0000123054680F82832104603F0F3FE24B98B
:101E0000286805F50C7103F0B1FE002285F8282240
:101E10001046B0BD80B501F0070C00EB4C1101F885
:101E200028CF01F1140E00684FF0000C8EE80C1062
:101E300001224A7003F0F0FE002080BD2DE9F04F32
:101E400083B00446006804F045F8014620680904A0
:101E500005D5B0F94410B1F1FF3F40F3A98004F07B
:101E600039F8400519D52068B0F8441021F4806194
:101E7000A0F84410204600F0FBFA94F8280201284C
:101E80000BD00120002584F8280284F82450206813
:101E9000002104F07FF884F82852206804F01AF832
:101EA00001462068490405D5B0F8441021F480416A
:101EB000A0F8441004F00EF801462068890405D506
:101EC000B0F8441021F40051A0F8441004F002F8D6
:101ED00001462068C90411D403F0FCFF000527D493
:101EE000206803F0F7FF800548D4206803F0F2FF74
:101EF000C00552D403B0BDE8F08F00BFB0F8401069
:101F000021F00401A0F84010B0F8401021F00801C1
:101F1000A0F84010204600F0BDFA2068B0F8441048
:101F200021F48051A0F8441003F0D4FF0005D7D568
:101F30002068B0F8401041F00801A0F84010B0F857
:101F4000441021F40061A0F84410B0F8401041F0B2
:101F50000401A0F8401003F0BDFFC00406D52068BE
:101F6000B0F8441021F48051A0F84410204600F04D
:101F7000CFFA206803F0AEFF8005B6D52068B0F830
:101F8000441021F40071A0F84410204600F086FAB5
:101F9000206803F09FFFC005ACD52068B0F844105E
:101FA00021F48071A0F8441003B0BDE8F08F00BFA9
:101FB00004F59471029104F1280504F50C7140F6C2
:101FC0000F7A019114E000BF01F0070705EB4711FC
:101FD000C1E9053200227E01CA6101224A70AF5573
:101FE00003F01AFE2068B0F9441000297FF537AFDE
:101FF000B0F8442012F00F080CD030F928B04FEAA6
:102000004809BBF1FF3F35DD1FFA8BF00006E9D52B
:102010001CE100BF0188D20656D401EA0A0101F58D
:1020200000410180B0F8501094F8282000EB4100E6
:1020300000EB0210B0F80404E16B6FF39F206064C2
:102040000844E06320460021FFF7EEFD94F82400E9
:102050000028C7D0206C0028C4D194F8240021683F
:1020600040F08000C0B2A1F84C00002084F82400A9
:10207000B8E700BF30F8191040F60F7701EA0A01FF
:10208000803120F81910029901EB481A9AF80C10C7
:10209000002977D09AF8001030F82120B0F850309D
:1020A00000EB0111520401EB430100F18180B1F812
:1020B0000C646FF39F26002E00F08880DAF814106D
:1020C000BAF80A207DE000BF0A053DD409B2B1F19B
:1020D000FF3F3FF787AF018801EA0A0180310180A5
:1020E000B0F8501094F82821130100F20C4202EBD2
:1020F0004101CB5A6FF39F23C4F84431A3B1D4F804
:102100003C1189B1B4F82E2103F0E8FED4F83C016B
:10211000D4F844110844C4F83C0120460021FFF7DC
:102120008BFD206800F20C42B0F85010D4F8383122
:10213000002B00F0B1803E2B00F2BA8003F00106C4
:1021400006EB53039B02C0E0B0F8501094F828212E
:1021500000EB410101EB0211B1F80C34B4F82E216F
:1021600001996FF39F23C4F8443103F0B7FE206850
:10217000018801EA0A0180310180204600F0A8F9B7
:1021800030E700BFB0F850109AF8002000EB410192
:1021900001EB0211B1F80C646FF39F26002E79D089
:1021A000DAF81410BAF80620334603F097FE19E067
:1021B000B1F804646FF39F2646B1DAF81410BAF848
:1021C0000820334603F08AFE01E000BF00262068A5
:1021D0009AF8001048F2C00330F821203A401A4320
:1021E00020F82120DAF81C20DAE905103244CAF878
:1021F0001C208A19CAF81420E0B1DAF810309AF8D5
:102200000010B34218D8029E01F0070306EB4311F9
:10221000C1E905200020C861487020685F01F355BE
:1022200003F0FAFC40F60F7A1FFA8BF000067FF5F8
:10223000D9AE0BE09AF800102046FFF7FDFC40F6FF
:102240000F7A1FFA8BF000067FF5CCAE20684FEABC
:10225000481230F8191005EB481701EA0A0101F598
:10226000004120F81910B0F85030A95C00EB43028F
:1022700002EB0112B2F80434D7E905626FF39F2331
:10228000FB613344002A7B617FF49EAE2046FFF75A
:10229000CBFCA7E60026A5E7535A48F2000723F433
:1022A000F8435352535ACFF6FF773B430DE000BF3C
:1022B0005E09DF064FF0FF3708BF07EB531648F201
:1022C0000003CFF6FF7343EA86235352018843F697
:1022D0000F72114048F2C00202F53F525140018096
:1022E00080E60000002804BF01207047F0B585B0EB
:1022F000064690F8290228B9002086F828023046C0
:1023000000F094F8032086F82902306803F024FCDA
:1023100006F1140E96E82F009EE81050376ACDE9BA
:102320000054CDE902CE049703F08CFB00286AD15B
:1023300030680021002503F02BFE7168002952D07F
:1023400006F128004FF0010C0022002300EB421799
:1023500052018354DAB20133FA81DAB2914287F83A
:1023600001C0FD70C7E90455BD61EFD806F5947052
:1023700000220025002300BF00EB45176D014355E7
:1023800043F00105ECB2A1427A70FA70C7E9042269
:10239000BA6128D900EB44176401055543F00205E2
:1023A000ECB2A1427A70FA70C7E90422BA611AD974
:1023B00000EB44176401055543F00305ECB2A1425C
:1023C0007A70FA70C7E90422BA610CD900EB44179D
:1023D000640104330555DDB2A9427A70FA70C7E989
:1023E0000422BA61C8D806F10807D6E90554306856
:1023F0008CCFD6E907CECDE9007502AD85E8105047
:1024000003F096FB30B1022086F82902012005B0C6
:10241000F0BD00BF002086F82400012086F82902C4
:10242000306803F083FB002005B0F0BD006845F67E
:102430000041C4F20001884218BF704780B582B0E5
:1024400041F21C00C4F202000168002241F40001C4
:1024500001600068002100F4000001900198142040
:10246000FFF784FB142002B0BDE88040FFF76CBB8F
:1024700010B504468068022818BFFEF749FBD4F85F
:102480006802012102F0A2FED4F86802BDE8104003
:1024900002F05ABED0F8680202F080BED0F868029E
:1024A00002F086BE90F82822012A04BF022070475D
:1024B00010B5012280F8282280F824100268044612
:1024C000104603F067FD002084F8280210BD0000CC
:1024D000D0F8682200F50C71104602F08DBE0000A5
:1024E00090F82812012904BF0220704710B501217D
:1024F00080F828120446FFF795FB206803F014FBD0
:10250000206803F0D7FC002084F8280210BD0000EA
:1025100010B50446D0F8680202F0C0FEA069002899
:1025200008BF10BD4EF61050CEF20000016841F019
:102530000601016010BD0000012821D002280DD045
:10254000102808D141F20401C4F202010A6851F8CE
:10255000040CC00134D40020704700BF80B500F0E7
:10256000C7F941F20401C4F2020109680222C1F371
:10257000813102EB4101B0FBF1F0BDE880407047D2
:1025800041F20400C4F20200C16940F202320A4082
:10259000B2F5817F04BF4FF40040704701F44071F1
:1025A000B1F5407F18D0B1F5007F1CBF0020704707
:1025B000006A49F64041800701EAE070704700BFB9
:1025C000C2F3834015A3185CD2030DD440F6001269
:1025D000C0F23D02504313E050F8040C4FF2244186
:1025E000800301EAE07070470A6810A3C2F340421A
:1025F0009A5C41F20023C0F27A03B3FBF2F250433B
:102600000968490248BF70474AF6AB214000CAF644
:10261000AA21A0FB01014808704700BF020304057E
:10262000060708090A0B0C0D0E0F1010010200001E
:102630002DE9F04182B00446007841F21C06C00743
:10264000C4F202064AD030685FEAC00808D4306895
:1026500040F080503060306800F080500190019868
:1026600047F20007C4F200073868C00512D4386882
:1026700040F480703860FFF7F9F905463868C00506
:1026800008D4FFF7F3F9401B6428F7D9032002B000
:10269000BDE8F081706810F4407012D0616801F4F8
:1026A000407188420DD0706840F24042C4F242222C
:1026B000012320F4407113600023C0071360716090
:1026C00026D17068616820F440700843B8F1000FAB
:1026D000706003D4306820F080503060206881073B
:1026E00007D556F8181CA26821F44041114346F85A
:1026F000181CC00607D556F8180CE16820F48000B5
:10270000084346F8180C002002B0BDE8F08100BF75
:10271000FFF7ACF9054641F2883700BF70688007C3
:10272000CFD4FFF7A3F9401BB8424FF00300F5D90F
:10273000EAE70000002804BF012070472DE9F043BC
:1027400081B042F20008C4F202080446D8F8000042
:102750000D4600F0070081420CD9D8F8000020F0A7
:1027600007002843C8F80000D8F8000000F0070070
:10277000A8426CD1206841F204098107C4F2020921
:1027800017D5410705D5D9F8001041F4E061C9F823
:102790000010010705D5D9F8001041F46051C9F8BF
:1027A0000010D9F80010A26821F0F0011143C9F817
:1027B0000010C00742D1D8F8000000F007008542A1
:1027C0000CD2D8F8000020F007002843C8F8000019
:1027D000D8F8000000F00700A84238D1206841076F
:1027E00007D5D9F80010E26821F4E0611143C9F877
:1027F0000010000708D5D9F80000216920F46050C6
:1028000040EAC100C9F80000D9F8002002F00C002D
:10281000082841F20020C0F27A004DD14AF2163366
:10282000C2F38341C0F60003595CD20338D440F6AA
:102830000010C0F23D0048433EE000BF606859F818
:10284000041C022808D0012826D1890306D40120BF
:1028500001B0BDE8F08300BF8901F8D5D9F80010B8
:1028600021F003010843C9F80000FFF7FFF806460E
:1028700041F28837D9F80000616800F00C00B0EB35
:10288000810F98D0FFF7F2F8801BB842F2D90320ED
:1028900001B0BDE8F08300BF8907D8D5DEE700BFEF
:1028A000D9F8002047F6E823C2F34042C0F60003FF
:1028B0009A5C4843B0FBF2F0D9F8001047F6EA22E0
:1028C000C1F30311C0F60002515C40F2780220FA15
:1028D00001F140F20800C2F200000068C2F20002FA
:1028E0001160FFF7EBF8002001B0BDE8F0830000B5
:1028F00040F2780041F20401C2F20000C4F2020189
:102900000068096847F6FA22C1F3C221C0F6000246
:10291000515CC84070470000002804BF0120704788
:102920002DE9F04182B00446007841F20006C0076C
:10293000C4F202060CD0706800F00C00042840F0CD
:1029400081803068800303D56068002800F04681EC
:10295000207880071BD5706810F00C0F09D07068C4
:1029600000F00C00082840F087807068C00300F178
:1029700083803068800703D52069012840F02E81CC
:102980003068616920F0F80040EAC10030602078CA
:10299000000713D4207840072CD4E569002D00F0FF
:1029A0001881706800F00C00082840F0A780012D05
:1029B00040F00481012002B0BDE8F081A069002848
:1029C00000F084800020C4F242200121C0F880146D
:1029D000FFF74CF8054600BF706A800700F1B2802F
:1029E000FFF744F8401B0228F6D9032002B0BDE8E7
:1029F000F08100BFF0695FEAC00808D4F06940F0D8
:102A00008050F061F06900F080500090009847F22B
:102A10000007C4F200073868C00549D4386840F49C
:102A200080703860FFF722F8054600BF3868C0059F
:102A30003ED4FFF71BF8401B6428F7D9032002B0EF
:102A4000BDE8F081706800F00C00082803D17068C0
:102A5000C0033FF576AF61683068002900F00C8153
:102A6000B1F5A02F00F00081B1F5803F40F01A8150
:102A700040F480301CE100BF2069002840F20000D3
:102A8000C4F2422000F0888001210160FEF7EEFFD1
:102A9000054600BF306880073FF572AFFEF7E6FFDE
:102AA000401B0228F6D9032002B0BDE8F08100BF28
:102AB000E168306A002900F09D80052900F09280CD
:102AC000012940F0AF8040F00100B1E00020C4F2E5
:102AD00042200021C0F88014FEF7C8FF054600BF61
:102AE000706A80077FF556AFFEF7C0FF401B0228D3
:102AF000F6D9032002B0BDE8F08100BF0027C4F280
:102B0000422700203866FEF7B1FF022D05460DD1A1
:102B10003068800140F1DE80FEF7A8FF401B0228EC
:102B20004FF00300F4D902B0BDE8F08130688001B5
:102B30004FD5FEF79BFF401B02284FF00300F5D94D
:102B4000F1E700BF40F27800C2F20000006844F6EE
:102B5000D351C1F26201A0FB0101480A019000BFFC
:102B600000BF0198411E002801913FF413AF00BF40
:102B70000198411E002801913FF40CAF00BF01985D
:102B8000411E002801913FF405AF00BF0198411E8E
:102B900000280191E4D1FDE600210160FEF766FF07
:102BA000054600BF306880077FF5F1AEFEF75EFF97
:102BB000401B02284FF00300F4D9B4E77068216A83
:102BC00000F480328A4209D1616A00F470108842B0
:102BD00004D1002002B0BDE8F08100BF012002B0A6
:102BE000BDE8F08140F004003062306A40F001003E
:102BF0001EE000BF20F001003062306A20F00400C7
:102C00003062FEF733FF054641F28837306A8007AD
:102C100020D5FEF72BFF401BB8424FF00300F5D93B
:102C200081E700BF20F001003062306A20F004002C
:102C30003062FEF71BFF054641F28837306A800795
:102C400008D4FEF713FF401BB842F7D9032002B0A7
:102C5000BDE8F081B8F1000F3FF59FAEF06920F0BC
:102C60008050F06199E600BF40F480203060306809
:102C700040F480301CE000BF20F4803030603068C9
:102C800020F480203060FEF7F1FE054630688003B6
:102C90007FF55EAEFEF7EAFE401B64284FF00300AE
:102CA000F4D940E720F480303060306820F4802090
:102CB0003060FEF7DBFE0546306880033FF548AE26
:102CC000FEF7D4FE401B6428F6D9032002B0BDE80D
:102CD000F08100BF206AB0F5803F05D17168A2681D
:102CE00021F40031114371607168626A21F474113A
:102CF00011430843706001203866FEF7B7FE0446B2
:102D0000306880013FF565AFFEF7B0FE001B02287A
:102D10004FF00300F4D906E7002804BF01207047F4
:102D2000B0B504460020A06294F8511029B984F887
:102D30005000204600F032F80020022184F85110A3
:102D4000D4E9001ED4E9023C0A6822F040020A607D
:102D500043EA0E02236942EA0C0242EA030CD4E978
:102D60000532E5694CEA030C02F4007E4CEA0E03DE
:102D700043EA050C256AA36A45EA0C052B430B6060
:102D8000042303EA12424A60CA6922F40062CA615B
:102D90000121606584F85110B0BD000070B586B0A7
:102DA000044640F60000C4F20100216800F52052FC
:102DB000002691420596CDE90366029602D006B040
:102DC00070BD00BF41F21801C4F202010A6842F46A
:102DD00080520A600A6802F480520192019A0A68DD
:102DE00042F004020A60096801F0040101910199AE
:102DF000A0210291022103910321059102A9FEF76E
:102E00001FFD40F634353020C2F20005C4F2020046
:102E10001021802285E8430005F10C004FF48073F7
:102E20004FF4806C80E80C102846C5E90666FEF772
:102E300069FC002818BFFDF76BFEA5646C6206B044
:102E400070BD00002DE9F04381B0044690F85000B9
:102E5000012803D1022001B0BDE8F0834FF0010842
:102E60001D460F46164684F85080FEF7FFFD94F885
:102E70005110012942D18146002F4FF0010018BFA7
:102E8000002E00F0FB800320002284F851006265D0
:102E90002763A686E686A263A287E287A0683146FA
:102EA000B0F5004F20682264626403D1026842F4E6
:102EB000804202600268520603D4026842F0400277
:102EC000026062680139E368B2FA82F2B1FA81F114
:102ED00052094909B3F5006F41EA02013CD131B111
:102EE00037F8021BC1602763E08E0138E086E08E70
:102EF00000286BD0681C0ED11DE000BF0220BDE091
:102F0000216B31F8022BC2602163E08E0138E0862C
:102F1000E08E00285AD0206881688907F0D4FEF737
:102F2000A5FDA0EB0900A842F2D338E0FEF79EFD14
:102F3000E08E00284AD0206881688907F6D5216B89
:102F400031F8022BC2602163E08E0138E086E08E0A
:102F50000028F0D13AE000BF39B139780173206B15
:102F600001302063E08E0138E086E08E70B3681C8B
:102F70000BD11BE0216B09780173206B01302063BA
:102F8000E08E0138E086E08E00B320688168890712
:102F9000F0D4FEF76BFDA0EB0900A842F3D30320A9
:102FA0006CE000BFFEF762FDE08E78B120688168BA
:102FB0008907F7D5216B09780173206B01302063F5
:102FC000E08E0138E086E08E0028EFD1206881682D
:102FD000090646D5691C0ED0FEF748FDA0EB090195
:102FE0002068A94212D281680906F5D439E000BFF1
:102FF0008168090635D58168090632D581680906D8
:1030000044BF81685FEA01612BD5F1E7416821F097
:10301000E00141606168B1F5827F0AD1A168B1F534
:10302000004F02D0B1F5806F03D1016821F040015B
:103030000160A16AB1F5005F07D1016821F4005178
:103040000160016841F400510160012184F85110D0
:10305000002184F85010616D41F02001616520214C
:103060006165A16831B900210091C1680091806853
:1030700000900098606D002818BF0120002184F89E
:10308000518084F8501001B0BDE8F083411E00204B
:10309000B0EB116F1CBF012070474EF21002CEF250
:1030A000000251604EF62351CEF20001F0230B7066
:1030B0000721906011607047704700007047000062
:1030C00090F83C20012A04BF02207047B0B501F1FE
:1030D00008053CCDD1E900CE23F47C5322F4705294
:1030E0001A432EF4F0431A432CF4E0431A4324F419
:1030F000C0431A432A43C96922F48042036811433A
:103100005964002180F83C100020B0BD90F83C20AC
:10311000012A4FF0020219D080B580F83D200268E4
:103120005368D2F808C091E8024023F070031943B5
:103130002CF0800343EA0E035160936001210022CA
:1031400080F83D1080F83C20BDE880401046704774
:10315000006801F01F010422036A02FA01F123EA68
:1031600001020262026A11430162416C41F40041B2
:103170004164816801F00701062903D0016841F02C
:103180000101016000207047006801F01F01042266
:10319000036A02FA01F123EA01010162016A016294
:1031A000026A41F211110A4204D1026A40F2444318
:1031B0001A4205D0026A0A4209D00020704700BFB7
:1031C000426C22F400424264026A0A42F5D1016A6A
:1031D00040F244421142F0D1016821F00101016046
:1031E00000207047002804BF0120704710B590F8F8
:1031F0003D1031B9002180F83C10044600F056F82B
:103200002046022180F83D10016840F2FF740B68EF
:10321000C4F2000442F6004CA142C4F2010C15DCD9
:10322000B1F1804F1AD040F20042C4F20002914244
:1032300014D0A14218DCB1F1804F1DD040F2004201
:10324000C4F20002914217D01AE000BF614505D0D8
:1032500040F60002C4F200029142EAD1826823F0F3
:1032600070031343A142E6DD614505D040F600023C
:10327000C4F20002914203D1026923F44073134364
:10328000846923F08002D0F804E0C36822436145DA
:103290000A60CB62C1F828E002D14269CCF8302044
:1032A00001224A6180F83D20002010BD80B582B027
:1032B000006840F20041C4F20001884214D042F696
:1032C0000041C4F2010188420CD141F21800C4F25D
:1032D0000200016841F400610160006800F40060D0
:1032E0000190019802B080BD41F21800C4F20200C2
:1032F0004168002241F0020141604068002100F075
:103300000200009000981D20FEF730FC1D2002B046
:10331000BDE88040FEF718BC0068C16841F00101BB
:10332000C160816801F00701062903D0016841F0FE
:10333000010101600020704790F83C20012A4FF005
:10334000020248D080B580F83D20D0F800C04FF68A
:103350007772DCF8083023EA0202CCF808200B6808
:103360003F2B1DDD5F2B39DD602B5BD0B3F5005F9C
:1033700000F09880702B26D1D1E901E3C968DCF810
:10338000082043EA0E0322F47F4243EA012111435D
:10339000CCF80810DCF8081041F0770111E000BF0C
:1033A0001F2B03DC33B1102B04D00CE0202B01D0F9
:1033B000302B08D1DCF8081021F07001194341F0DE
:1033C0000701CCF808100121002280F83D1080F898
:1033D0003C20BDE880401046704700BF402B41D0E4
:1033E000502BF0D1D1F804E0C968DCF82030DCF8CB
:1033F000202022F00102CCF82020DCF8182022F056
:10340000F00242EA011123F00A0242EA0E02CCF86D
:103410001810CCF82020DCF8081041F0570121F0FA
:103420002001CEE7D1F804E0C968DCF8203023F0B1
:103430001003CCF82030DCF81830DCF8202023F41E
:10344000704322F0A00243EA013142EA0E12CCF8A6
:103450001810CCF82020DCF8081041F0670121F0AA
:103460001001AEE7D1F804E0C968DCF82030DCF8E0
:10347000202022F00102CCF82020DCF8182022F0D5
:10348000F00242EA011123F00A0242EA0E02CCF8ED
:103490001810CCF82020DCF8081041F0470121F08A
:1034A00030018EE7D1E901E3C968DCF8082043EA7E
:1034B0000E0322F47F4243EA01211143CCF80810A5
:1034C000DCF8081041F480417BE70000002804BFCD
:1034D000012070472DE9F04F81B090F83D2042B9AE
:1034E000002280F83C2004460D4600F08BF8294667
:1034F0002046022280F83D20026844F207059368C6
:1035000042F6004CAB43936040F2FF731468C4F280
:1035100000039A42C4F2010C14DCB2F1804F19D0BE
:1035200040F20045C4F20005AA4213D09A4217DCCB
:10353000B2F1804F1CD040F20043C4F200039A4223
:1035400016D01AE0624505D040F60005C4F2000529
:10355000AA42EBD1856824F070042C439A42E7DD3F
:10356000624505D040F60003C4F200039A4204D13C
:10357000036924F4407543EA050424F08003846958
:10358000D0F804E0C568234362451360D562C2F8F1
:1035900028E002D14369CCF830304FF0010CC2F87A
:1035A00014C095689469D2F820E0D1E90038D1E9D7
:1035B000027B43EA050A8D694FF6FF7924EA090484
:1035C00047EA05254FF6FC47BD43D1E9077644EAB3
:1035D0000B040B692C4344EA07242EF022074969A7
:1035E00044EA031347EA080743EA063347EA0111AE
:1035F000C2F808A09361116280F83DC0002001B0BC
:10360000BDE8F08F70B586B000680026B0F1804F3D
:10361000CDE904660396029602D006B070BD00BFE5
:1036200041F21800C4F20200416840F6000441F083
:10363000010141604168C4F2010401F001010191FE
:103640000199016802AD41F004010160016801F0D7
:10365000040101910199016841F0080101600068CD
:10366000294600F00800019001984FF40040CDE990
:10367000020620460496FEF7E3F80820CDE902068C
:1036800004F5806029460496FEF7DAF80420C4F2B7
:10369000010001684FF6FF42CFF6FF02114041F0F2
:1036A000E06141F48071016006B070BD02680429D8
:1036B000106A0BD020F0010011B9012109E000BF10
:1036C0001062106A40F001001062106A20F01000D1
:1036D00010211062106A08431062106840F0010166
:1036E00000201160704700007047000010B50168AD
:1036F00004460869800744BFC8685FEA807039D40F
:103700000869400744BFC8685FEA40703ED4086952
:10371000000744BFC8685FEA007045D40869C00666
:1037200044BFC8685FEAC0604AD40869C0071CBFCC
:10373000C8685FEAC07051D10869000644BFC86814
:103740005FEA006052D40869400644BFC8685FEA77
:10375000406053D40869800646BFC8685FEA80604D
:1037600010BD6FF0200220460A61BDE81040FFF74F
:10377000A5BC00BF6FF002000861012020778869B6
:10378000800743D02046FFF7AFFF45E06FF004000D
:10379000086102202077886910F4407F40D02046DD
:1037A000FFF7A2FF42E000BF6FF0080008610420AD
:1037B0002077C86980073DD02046FFF795FF3FE09E
:1037C0006FF01000086108202077C86910F4407F6E
:1037D0003AD02046FFF788FF3CE000BF6FF00100C1
:1037E0000861204600F04AFA2168A5E76FF08000E2
:1037F00008612046FFF760FC2168A4E76FF04000F5
:103800000861204600F0F6FA2168A3E7204600F0A0
:1038100067F8204600F0CCF92168002020776FE798
:10382000204600F05DF8204600F0C2F92168002033
:1038300020776CE7204600F053F8204600F0B8F9F6
:1038400021680020207769E7204600F049F82046EB
:1038500000F0AEF921680020207766E770B586B0E9
:1038600040F60004C4F20104006804F510518842D7
:103870004FF00000CDE90400CDE9020002D006B00F
:1038800070BD00BF41F21800C4F20200016802AD31
:1038900041F0080101600168022601F00801019170
:1038A0000199016841F0040101600068294600F0B7
:1038B0000400019001984FF46040029004F580608C
:1038C00003960596FDF7BCFF4FF44070CDE9020664
:1038D000204629460596FDF7B3FF06B070BD0000EF
:1038E0007047000090F83C30012B4FF0020300F0CD
:1038F000F6804FEAB202032A80F83D3000F2E980F8
:103900002DE9F043DFE802F002A43A74036842F6BE
:1039100000461A6AC4F2010622F001021A621D6A08
:103920001A465C6852F818CFB3428E68D1F800E0AE
:1039300025F0020545EA06050CD1CE68D1E90578E7
:1039400024F4407425F00C0526F004063C4335436E
:1039500044EA08042CF0730747EA0E075C609F6195
:103960004F6809695F631D629F6947F008079F619F
:103970009F6927F004079F61A6E000BF036842F635
:1039800000461A6AC4F2010622F480721A621D6AA5
:103990001A46D3F804C052F81CEFB3428E680C6884
:1039A00025F4007545EA06250FD1CE68D1E90598C2
:1039B000360240F2FF4725F44065BE4335432CF400
:1039C000405748EA090647EA061C2EF073072743CA
:1039D000C3F804C0DF614F680969DF631D62DF69F6
:1039E00047F00807DF61DF6927F00407DF616BE05C
:1039F000036842F600471A6AC4F2010722F48052B3
:103A00001A621A46D3F820C05D6852F81C4FD1F8EC
:103A100000E08E68BB4204D14F6925F4804545EA39
:103A200087152CF4005747EA063724F4E64646EAA1
:103A30000E265D60DE614E6809691E641F62DF69E3
:103A400047F40067DF61DF6927F48067DF613AE0F0
:103A5000036842F600461A6AC4F2010622F0100218
:103A60001A621D6A1A46D3F804C052F8184FB342BE
:103A70008E68D1F800E025F0200545EA06150FD143
:103A8000CE68D1E905986FF0400725F0C00507EA38
:103A9000061635432CF4406748EA090647EA860CC7
:103AA00024F4E64444EA0E27C3F804C09F614F683B
:103AB00009699F631D629F6947F400679F619F6961
:103AC00027F480679F610902136819431160BDE8FC
:103AD000F0430121002380F83D1080F83C30184667
:103AE00070470000002804BF0120704710B590F80F
:103AF0003D1031B9002180F83C10044600F056F822
:103B00002046022180F83D10016840F2FF740B68E6
:103B1000C4F2000442F6004CA142C4F2010C15DCD0
:103B2000B1F1804F1AD040F20042C4F2000291423B
:103B300014D0A14218DCB1F1804F1DD040F20042F8
:103B4000C4F20002914217D01AE000BF614505D0CF
:103B500040F60002C4F200029142EAD1826823F0EA
:103B600070031343A142E6DD614505D040F6000233
:103B7000C4F20002914203D1026923F4407313435B
:103B8000846923F08002D0F804E0C36822436145D1
:103B90000A60CB62C1F828E002D14269CCF830203B
:103BA00001224A6180F83D20002010BD70470000CE
:103BB00070470000006801F01F010122036A8A407B
:103BC00023EA02010162036A42F64441C4F20101A0
:103BD0001A43A1F144039842026207D0816801F0C0
:103BE000070106290BD10020704700BF0A6842F484
:103BF00000420A60816801F007010629F3D00168DC
:103C000041F0010101600020704700000246006899
:103C100001F01F0101238B40016A42F6004C9943D9
:103C20000162C4F2010C016A604501620ED1DCF848
:103C3000201041F21113194208D1016A40F24443A5
:103C4000194203D1416C21F400414164016A41F2FF
:103C50001113194204D00121002082F83D10704751
:103C6000016A40F244431942F5D1016821F0010193
:103C700001600121002082F83D1070472DE9F04FCE
:103C800081B040F24824C2F20004E089FCF756FB00
:103C900043F23336C4F253063146FCF7A7FA4FF22B
:103CA0000007C4F27F573946FCF7D2FA0025C4F268
:103CB00030152946FCF79AFA218982460846FCF716
:103CC0003DFB3146FCF792FA3946FCF7C1FA29462A
:103CD000FCF78CFA618980460846FCF72FFB3146D9
:103CE000FCF784FA3946FCF7B3FA0021C4F24831F4
:103CF000FCF7AEFA41F26F21C3F60331FCF7A8FAE4
:103D000000210646FCF7F0FA4CF6CD49C3F6CC5933
:103D1000002840F240055046494618BF0026C2F22E
:103D20000005FCF763FA46F2666B074695E8110456
:103D3000C3F6667B5946FCF759FA3946FCF7FEF99B
:103D4000286040464946FCF751FA07462046594646
:103D5000FCF74CFA3946FCF7F1F968603046494601
:103D6000FCF744FA044650465946FCF73FFA214610
:103D7000FCF7E4F9297EA860D1B100F07FF868690A
:103D80004CF6CD41AC68CBF64C51FCF7D7F9014667
:103D90002046FCF7A9FA0028287E4FF0020118BF40
:103DA0000121002869761CBF01B0BDE8F08F01E059
:103DB0000020687642F63440C4F201000021016020
:103DC000382040F63C64C4F20000C2F200040160F6
:103DD0002046FFF71BFF20460021FFF7D5F92046BC
:103DE0000421FFF713FF2046042101B0BDE8F04F86
:103DF000FFF7CAB970470000FEE7000080B540F643
:103E00002C0040F20C01C2F20000C2F200010022BC
:103E100001F03AF8002818BFFCF77AFE40F62C00B3
:103E200040F27C01C2F20000C2F2000101F05EFA31
:103E3000002818BFFCF76CFE40F62C0040F2A011E1
:103E4000C2F20000C2F2000100F0CAFD002818BF53
:103E5000FCF75EFE40F62C00C2F2000001F05CFAB6
:103E6000002808BF80BDBDE88040FCF751BE0000BF
:103E7000FEE7000070470000704700002DE9F04F9A
:103E800087B040F24008C2F2000898F8180042F6E5
:103E90003447C4F2010798B340F63C64C2F2000410
:103EA000204600210025FFF785FE20460021FFF770
:103EB0004FF920460421FFF77DFE20460421FFF73D
:103EC00047F9D8F800604FF080413046FCF71AFA05
:103ED00010BB40F24820C2F20000C0E90A55056359
:103EE0004FF44070A8F81800382040F63C64C4F243
:103EF0000000C2F200043D6005602046002137E06A
:103F000040F24820C2F200000021C0E90A1101631A
:103F100088F8191022E000BFD8F80C000021C4F284
:103F2000A021FCF7D3F968B1D8F81450D8F808905C
:103F300028464FF07E51FCF701F901464846FCF750
:103F4000C5F938BB40F24820C2F200000021C0E9A8
:103F50000A1101634FF44070A8F81800382040F6A9
:103F60003C64C4F20000C2F20004396001602046E3
:103F7000FFF74CFE20460021FFF706F920460421FA
:103F8000FFF744FE2046042107B0BDE8F04FFFF7DD
:103F9000FBB800BF98F8180040F2482AC2F2000AA5
:103FA000C0B1DAF82840D8F8107020463946FCF73E
:103FB000A9F918BB41F26F21C3F603412046FCF773
:103FC000BDF839460446FCF781F9002808BF3C4695
:103FD00015E000BF002430464FF07C514FF07C527A
:103FE000CAF828400692FCF77FF900283FD14CF62A
:103FF000CD40C3F6CC500024069038E03C46304615
:104000004FF07C514FF07C52CAF828400692FCF7E2
:104010006BF960BB20464FF07C51FCF765F9002836
:104020004CF6CD40C3F6CC50069020D13046214608
:10403000FCF784F801462046FCF70AF946F266616F
:10404000C3F666710646FCF76BF94CF6CD47C3F62E
:10405000CC5700281CBF46F26666C3F6667630462B
:104060003946FCF75DF9002818BF37460697D8F89F
:1040700004102046FCF7B4F8834628464946FCF76E
:10408000AFF84CF6CD41DAE90B468146C3F64C71E8
:104090005846CDF808B0FCF7A9F841F26F25C3F6F1
:1040A00083252946FCF7A2F821460594FCF746F83B
:1040B00049F69A118246C3F699714846FCF796F87C
:1040C0002946FCF793F831460196FCF737F849F694
:1040D0009A17C3F69967044650463946FCF720F90B
:1040E00049F69A16CBF6996600281CBF49F69A1A2B
:1040F000C3F6996A50463146FCF712F9002820466B
:10410000394608BFB246FCF70BF900281CBF49F638
:104110009A14C3F6996420463146FCF701F94CF233
:104120008F210028C3F67541584608BF3446FCF776
:104130005DF8069D2946FCF701F851460390FBF710
:10414000FDFF4CF6CD418346C3F6CC414846CDF841
:104150001090FCF74BF82946FBF7F0FF2146009042
:104160000694FBF7EBFF4CF6CD410746C3F6CC5166
:104170005846FCF7B9F846F2666181460028C3F656
:104180006671584618BF4FF00109FCF7C9F806469A
:10419000002818BF0126029C00212046FCF7C0F829
:1041A0000546002820464FF0000118BF0125FCF706
:1041B0009BF8002818BF01202E420AD140F2482B5C
:1041C00010EA0900C2F2000B04BFCBF82CA0CDF816
:1041D00014A046F26661C3F666713846FCF7A0F893
:1041E0004CF6CD49C3F6CC59064600283846494618
:1041F00018BF0126FCF778F80446002818BF0124F0
:10420000DDF810B000215846FCF78AF80546002872
:1042100058464FF0000118BF0125FCF765F800284B
:1042200018BF01202E4208BF10EA04000AD0DDE9C1
:104230000001FBF783FF40F248240746C2F2000466
:1042400006E000BF40F248240698C2F20004206352
:1042500003980599FBF772FF46F26665C3F666752B
:1042600029460646FCF75CF800281CBF46F2666645
:10427000C3F6667630464946FCF752F800283846C1
:10428000294608BF4E46FCF74BF800281CBF46F2F3
:104290006667C3F6667738464946FCF741F800285A
:1042A00008BF4F4638463146FCF71EF800284FF04D
:1042B000010008BF374618BF022088F819003846A9
:1042C0004946FCF711F800281CBF4CF6CD47C3F651
:1042D000CC5738462946FCF723F84CF20001002859
:1042E0001CBF46F26667C3F66677C4F2794138466A
:1042F000FBF77CFFFCF740F840F2E73142F634422E
:104300002082091A80B2C4F201026182106088B270
:10431000506007B0BDE8F08F2DE9F04782B0047817
:10432000002C3DD040F6004940F6E45AC4F20109A1
:10433000451CC2F2000A0DF1070802E0013C20060C
:104340002ED015F8020B01218DF8070048460022F7
:10435000FDF786FB5046414601224FF0FF33FEF742
:1043600071FD15F8016C16F07F070CD0484601214D
:104370000122FDF775FB504629463A464FF0FF33C0
:10438000FEF760FD3D4470B2B0F1FF3FD6DC15F89A
:10439000010BFF2808BF4FF4FA70FDF73DFACDE797
:1043A00002B0BDE8F08700002DE9F04381B09946E6
:1043B00041EA00037F2B4FD8904640F60046024466
:1043C000C4F20106802A09EB0102089D88BFC0F1F2
:1043D0008008802A88BFC1F18009044630460F4614
:1043E0004FF480610022FDF73BFB08EB040009EB72
:1043F000070101380139C2B2CBB2E0B2F9B200F024
:104400006FF868BA5FEA0941ADF8020018BF5FEAC9
:1044100008401BD040F6E457C2F200070DF1020538
:10442000444600BF304601210122FDF719FB384602
:10443000294602224FF0FF33FEF704FD013C200421
:10444000F0D1A9F101095FEA0940E9D130464FF402
:1044500080610122FDF704FB01B0BDE8F08300009C
:1044600080B582B084460020002180228023CDF8D0
:1044700000C0FFF799FF02B080BD000010B540F604
:104480000044C4F2010420464FF480610022FDF78D
:10449000E7FA204602210022FDF7E2FA0520FDF7A7
:1044A000BBF9204602210122FDF7DAFA4AF2263052
:1044B000C0F60000FFF730FF4AF26130C0F600009E
:1044C000FFF72AFF4AF26E30C0F60000FFF724FF24
:1044D00020464FF480610122BDE81040FDF7C0BACC
:1044E0002DE9F04782B040F6004A07462A20C4F280
:1044F000010A164689468DF8050050460121002222
:1045000098460024FDF7ACFA40F6E455C2F20005E7
:104510000DF10501284601224FF0FF33FEF792FC12
:10452000F81C8DF80200F01C8DF8040050460121A3
:1045300001228DF801408DF80340FDF791FA0DF14D
:1045400001062846314604224FF0FF33FEF77AFC7D
:104550002B208DF80600504601210022FDF780FA3D
:104560000DF10601284601224FF0FF33FEF76AFCE9
:1045700009F102008DF8020008F102008DF8040034
:10458000504601210122FDF76BFA284631460422EC
:104590004FF0FF33FEF756FC2C208DF807005046F5
:1045A00001210022FDF75CFA0DF1070128460122E6
:1045B0004FF0FF33FEF746FC02B0BDE8F087000085
:1045C0002DE9F04F89B0074640F6004015468A466F
:1045D000C4F201004FF4806100221C46FDF740FA4E
:1045E0002B78002B00F0D080C4F307202A46002847
:1045F0005FFA84F9079000F08580B9F1000F4FEA67
:104600001420029000F09E80DDE9131040F6E4557E
:104610004FEA11284FEA102BC2F200050DF12206D5
:1046200001940AE0049FDDF814A0019C039A4F4412
:1046300012F8013F002B00F0A780B8B248447F2851
:104640000CD907998A441FFA8AF001447F2900F2A5
:104650009B80202B4FF00007EAD001E01FFA8AF080
:104660000392029AE119104401390138CAB21C467A
:10467000C3B2F8B25FFA8AF10497CDF814A0FFF73D
:104680002FFF0799A4F1200048431299002701EB5E
:104690004000069004E000BF079801378742C1D070
:1046A00006984FF0000A30F8174017E014980121DF
:1046B0008DF8210040F60040C4F2010001228DF87F
:1046C00020B0FDF7CDF9284608A902224FF0FF33AC
:1046D000FEF7B8FB0AF1010AD145DDD004FA0AF071
:1046E0000004E3D5139801218DF8230040F6004023
:1046F000C4F2010001228DF82280FDF7B1F92846AD
:104700003146E2E7AAF10100561CC5B20DE000BF38
:10471000E0190138C2B2F8B25FFA8AF12B46FFF70E
:10472000DFFE4F4416F8013B73B3B8B2484480280B
:10473000EED3BAF17F0F27D8202B4FF00007E7D137
:10474000F0E700BF551C0FE01FFA8AF002997A1EAD
:1047500008440138C3B2F8B25FFA8AF1D2B2FFF767
:10476000BFFE15F8013B7BB1B8B27F28ECD90799A1
:104770008A441FFA8AF001447F2905D8202B4FF084
:104780000007E3D1EDE700BF40F60040C4F20100AE
:104790004FF480610122FDF763F909B0BDE8F08FA5
:1047A00070470000FDF768B941F20000C4F2020052
:1047B0000168002241F0010101604168CFF6FF026B
:1047C0001140416001684FF6FF72CFF6F66211406A
:1047D0000160016821F480210160416821F4FE013B
:1047E00041604FF41F0181604EF60850CEF2000088
:1047F0004FF000610160704740F67C60C2F200003B
:10480000FEF774BF10B5D0F8B8E2BEF1000F15D0B6
:1048100001EB810300EB830C5CF81C3F4BB1D0F83B
:10482000C02202EB4112926BB3FBF2F404FB123292
:1048300032B10020CEF8140210BD00BF022010BD1E
:1048400000220023CCF8002000F032FD002010BD33
:10485000B0B5D0F8B852044600F0F6FBD4F8B81260
:10486000C5F80C0251B1D4F8BC0205F50371C26859
:10487000D5F8040290470020B0BD00BF0220B0BDB3
:10488000B0B58121044600F029FB00252046012116
:10489000E56200F023FB20468221C4F86C5100F051
:1048A0001DFBD4F8B802256448B1D4F8BC024068B6
:1048B0008047D4F8B80200F079FFC4F8B85200205D
:1048C000B0BD0000D0F8BC1281B110B5D0F8B8422C
:1048D00094F80002FF2807D08B6894F80122214643
:1048E0009847FF2084F80002BDE810400020704780
:1048F000014640F23C100A22C2F200000A807047D2
:10490000014640F2B4004322C2F200000A80704720
:10491000014640F2F8004322C2F200000A807047CC
:10492000014640F248104322C2F200000A8070475C
:10493000F0B581B00546007C4027002808BF4FF441
:1049400000772846812102223B46402400F0D6FB16
:1049500001262846012102223B46EE6200F0CEFBF2
:104960002846822103220823C5F86C6100F0C6FBAB
:104970004FF407702E6400F01BFFC5F8B802A8B111
:104980000746D5F8BC02006880470026C7F81462C5
:10499000C7F81862287CD7F80422002808BF4FF413
:1049A000007428460121234600F0BCFB304601B0CC
:1049B000F0BD0000D0F8B812002904BF02207047F3
:1049C00080B590F810C0D1F8042240230121BCF139
:1049D000000F08BF4FF4007300F0A4FB002080BD5F
:1049E00000290EBF0220C0F8BC1200207047000052
:1049F000D0F8B8220020C2F804127047D0F8B832BC
:104A00000020C3F80812C3F810227047F0B581B037
:104A100091F90030D0F8B842002513F060028DF80B
:104A20000350ADF8005011D0202A3BD1CA88FAB10A
:104A3000B3F1FF3F3CDD497884F8012284F800128D
:104A4000214600F06BF8002001B0F0BD4A780B2A37
:104A500024D00A2A16D02ABB90F89C22032A21D1FE
:104A60006946022200F074F8002001B0F0BD00BFDA
:104A7000D0F8BC020022836848789847002001B033
:104A8000F0BD00BF90F89C22032A0BD10DF1030169
:104A9000012200F05DF8002001B0F0BD90F89C22EA
:104AA000032AD0D000F02EF8022001B0F0BD00BFE4
:104AB000D0F8BC3206469D684B780F461846214612
:104AC000A847FA883046214600F042F8002001B09D
:104AD000F0BD000080B5D0F8B422526890470020A5
:104AE00080BD000080B513460A46002100F01AFB85
:104AF000002080BD80B513460A46002100F0D8FB97
:104B0000002080BD10B58021044600F0A3FB2046A4
:104B10000021BDE8104000F09DBB000080B51346A9
:104B20000A460321C0F894120021C0E9573300F06F
:104B3000F9FA002080BD000080B50521C0F894126C
:104B400000210022002300F0EDFA002080BD0000CB
:104B500080B513460A460221C0F894120021C0E92C
:104B6000073300F0A5FB002080BD000080B50421C4
:104B7000C0F8941200210022002300F099FB0020CD
:104B800080BD000010B540F28C34C2F200040A4629
:104B900002A0214600F00EF9204610BD43444320F8
:104BA000436F6E666967000040F28C101222C2F2F9
:104BB00000000A807047000010B540F28C34C2F249
:104BC00000040A4602A0214600F0F4F8204610BD79
:104BD00043444320496E746572666163650000005A
:104BE00040F2B0100422C2F200000A8070470000B8
:104BF00010B540F28C34C2F200040A4602A02146ED
:104C000000F0D8F8204610BD44756E675F446576A5
:104C10006963650010B540F28C34C2F200040A46A4
:104C200002A0214600F0C6F8204610BD53544D3373
:104C300032205669727475616C20436F6D506F72CB
:104C4000740000004FF2E870C1F6FF7002688368DC
:104C50004FF01A0C9B18A1F800C000F0A680B0B568
:104C60004FF0370C1A0F0CEB13714068B3F1204F63
:104C700038BF02F1300140F2B412C2F2000291706A
:104C800019014FF0000E0CEB117582F803E0C3F32D
:104C90000364B1F1204F38BF04F1300519021571DA
:104CA0000CEB117582F805E0C3F30354B1F1204F0A
:104CB00038BF04F13005190395710CEB117582F8BA
:104CC00007E0C3F30344B1F1204F38BF04F13005CE
:104CD000190415720CEB117582F809E0C3F3033463
:104CE000B1F1204F38BF04F13005190595720CEB76
:104CF000117582F80BE0C3F30324B1F1204F38BFE4
:104D000004F1300519061573C3F303140CEB117588
:104D1000B1F1204F4FEA037103F00F0382F80DE069
:104D200038BF04F1300503F13704957382F80FE0C2
:104D3000B1F1204F38BF03F13004010F0CEB1073B9
:104D4000147482F811E0B0F1204F38BF01F1300344
:104D500001010CEB1174937482F813E0C0F3036348
:104D6000B1F1204F38BF03F1300401021475C0F3D4
:104D700003530CEB1174B1F1204F4FEA003182F86C
:104D800015E038BF03F130040CEB1173947582F811
:104D900017E0C0F30340B1F1204F38BF00F13003FA
:104DA000137682F819E0BDE8B04040F2B410C2F2C8
:104DB00000007047002808BF704710B50378ABB1FA
:104DC00000F1020E4FF0000C1EF8013C93B19EF86A
:104DD00000309BB19EF80130A3B19EF802300CF177
:104DE000040C002B0EF1040EEED10DE04FF0000C80
:104DF0000AE000BF4CF0010C06E000BF4CF0020CD2
:104E000002E000BF4CF0030C5FFA8CFC022303EBC2
:104E10004C03138003220B704A7090F800E0BEF13F
:104E2000000F2DD0023002224FF0000CD3B2CC186C
:104E300001F803E084F801C010F8013C03B3941CAE
:104E4000E4B201EB040E0B558EF801C00378BBB140
:104E5000141DE4B201EB040E0B558EF801C043782B
:104E600073B1941DE4B201EB040E0B558EF801C032
:104E700090F802E00832BEF1000F00F10400D5D135
:104E8000BDE8104070470000002804BF02207047B2
:104E9000D0F8B432002B1CBF0023C0F8B432002974
:104EA00018BFC0F8B01280B5012180F89C120270C2
:104EB00000F0CEF8002080BD80B5D0F8C002FCF72D
:104EC000EFFE40F200220223C100C0F201220428BA
:104ED00038BF22FA01F3D8B280BD000080B5D0F807
:104EE000C002FCF7B3FE40F200220223C100C0F270
:104EF0000122042838BF22FA01F3D8B280BD000095
:104F0000B0B569B1D0F8B42252693AB190F89C3288
:104F1000032B03D1904700210846B0BD0220B0BD4D
:104F2000D0F89412002918BF04290FD1802104461B
:104F300000F090F9204690F8A01201294FF00001EE
:104F4000EAD180F8A0120846B0BD00BF0229F2D114
:104F5000D0E908318B420FD9591A8BB20162114640
:104F60001A460446FFF7C6FD204600210022002312
:104F700000F0D8F8DEE700BFC2698A4212D3B2FB64
:104F8000F1F303FB112169B9D0F898128A4209D2D2
:104F90000021002204460025FFF7ACFDC4F898521A
:104FA000E2E700BFD0F8B412C96831B190F89C2292
:104FB000032A02D10446884720468021044600F097
:104FC00049F92046FFF7B8FDB4E7000010B559B124
:104FD000D0F8B42292692AB190F89C32032B01D107
:104FE00090472EE0022010BDD0F89412002405292D
:104FF00012D0032926D1D0E958318B4214D95B1A3B
:10500000C0F860318B4238BF19468BB211461A4640
:10501000FFF768FD15E000BF0021C0F8944200F0E2
:1050200019F9204610BD00BFD0F8B412096931B19A
:1050300090F89C22032A02D1044688472046FFF7B5
:1050400095FD0024204610BDD0F8C002FCF758BEE4
:1050500010B5044640F6783045F60041C2F2000033
:10506000C4F200010822022380E80E000021C0F8EB
:105070006842C4F8C002C0E906110162FDF732F9C6
:10508000002818BFFBF744FDD4F8C002002100221D
:105090001823FCF7A7FDD4F8C00280210022582372
:1050A000FCF7A0FDD4F8C00281210022C023FCF748
:1050B00099FDD4F8C002012100224FF48873FCF757
:1050C00091FDD4F8C002822100224FF48073FCF7D6
:1050D00089FD002010BD0000D0F8C00201F07F0360
:1050E00000EB431300EB41104AB200F59570002A23
:1050F00048BF03F12A0000787047000080B594464D
:10510000D0F8C0021A466346FCF702FE40F20022C5
:105110000223C100C0F20122042838BF22FA01F3A1
:10512000D8B280BD80B5D0F8C002FCF727FE40F2AF
:1051300000220223C100C0F20122042838BF22FA53
:1051400001F3D8B280BD0000F0B581B0002100228B
:105150004023044600254026FFF7D0FF01272046C4
:10516000802100224023C4F85871C4F86461FFF71D
:10517000C5FFD4F8B812A761666284F89C72C4F8BF
:1051800094526560C4F8A45229B1D4F8B4122046F0
:105190004A6800219047002001B0F0BD90F89C12B1
:1051A000042904BF90F89D1280F89C1200207047DB
:1051B00090F89C12032907D1D0F8B412C96919B12B
:1051C00080B58847BDE88040002070470246002037
:1051D0001174704780B5D0F8C002FDF763F940F252
:1051E00000220223C100C0F20122042838BF22FAA3
:1051F00001F3D8B280BD0000B0B500F52A740546B1
:10520000204600F067F895F8A8122846B5F8AE5287
:1052100001F01F020123022AC0E9A5350ED0012AA0
:1052200006D08AB9214600F07DF80020B0BD00BF4D
:10523000214600F091FA0020B0BD00BF214600F0E9
:10524000E7F90020B0BD00BF01F0800100F002F8D6
:105250000020B0BD80B5D0F8C002FCF7A7FD40F239
:1052600000220223C100C0F20122042838BF22FA22
:1052700001F3D8B280BD000080B5D0F8C002FDF7C0
:105280002FF940F200220223C100C0F201220428BB
:1052900038BF22FA01F3D8B280BD0000014690F871
:1052A0009C02042281F89D02002081F89C22704714
:1052B00080B5D0F8C002FCF7ADFD40F20022022319
:1052C000C100C0F20122042838BF22FA01F3D8B28B
:1052D00080BD00000A7802704A7842704A88428095
:1052E0008A888280C988C1807047000000290EBF6B
:1052F0000220C0F8B412002070470000D0F8B42299
:10530000002A04BF0220704780B512689047002829
:1053100018BF0120400080BD80B5FFF7ADFF002021
:1053200080BD000070B582B00A78C2F34112531EEE
:10533000022B07D2D0F8B42292689047002002B026
:1053400070BD00BF002A40F057814A78092A00F258
:105350005381DFE812F00B00350051015B00510171
:1053600067008B0051012500410000BF90F89C228E
:10537000013A022A00F24081C988022940F03C81AA
:10538000D0F8A4120322002908BF0122014641F8E7
:105390000C2F0222FFF7DCFB002002B070BD00BF23
:1053A000C988012940F0288190F89C124A1E022ADF
:1053B00080F074800022014641F8082F72E000BF9F
:1053C00090F89C22013A022A00F2168149880129AC
:1053D000B4D100211FE000BF4A8840F28836D1B224
:1053E000C2F200060229327080F0068190F89C22F9
:1053F000032A5DD0022A40F08380002900F0C58096
:1054000003220446416080F89C22B7E049880129C4
:105410007FF494AF0121C0F8A412FFF7A7FB00208E
:1054200002B070BD8A88002A40F0E680CA88002A4F
:1054300040F0E2804D887F2D00F2DE8090F89C12D3
:10544000032900F0D980E9B280F89E520446FFF7A4
:10545000C1FE20462646FFF789FB002D0CBF012028
:10546000022086F89C02002002B070BD4A884FF0EE
:10547000FF3303EB12230026062BADF8066000F283
:10548000BB80DFE803F0052D1FB9B94D590000BFFF
:105490000D46D0F8B0120A6891E000BF032940F031
:1054A000AB80011D0122FFF753FB002002B070BD4D
:1054B000002951D04168012958D1FFF757FB00203E
:1054C00002B070BDD2B2052A00F29680DFE802F089
:1054D000046E666A627200BFD0F8B02252686CE057
:1054E0000D46017C0446D0F8B40200290CBF816A45
:1054F000C16A0DF1060088470146022029E000BF7D
:1055000080210446FFF7A6FE20460021FFF7A2FEF9
:1055100031782046FFF7DEFA002002B070BD00BFF0
:10552000027C002A68D10446D0F8B4020D46416BD3
:105530000DF10600884747E0027C002A5CD1044652
:10554000D0F8B4020D46016B0DF106008847014604
:105550000720487039E000BF022280F89C22002218
:1055600042600446FFF7B6FA0EE000BFC9B2054636
:10557000FFF7B0FA31782C4669602846FFF7BEFE87
:10558000022801D1204638E02046FFF7EFFA00203C
:1055900002B070BDD0F8B02252690EE0D0F8B0224F
:1055A000D2680AE0D0F8B022126906E0D0F8B02242
:1055B000926802E0D0F8B0229269EAB10D46044642
:1055C000007C0DF1060190470146BDF8060048B188
:1055D000EA883AB1904238BF02462046ADF806202C
:1055E000FFF7B6FAE88800287FF4A8AE2046FFF758
:1055F000BDFA002002B070BD04468021FFF72AFEEC
:1056000020460021FFF726FE002002B070BD0000FA
:10561000B0B50B784FF0FF3503F0600205EB521583
:10562000022D05D2D0F8B422926890470020B0BD78
:10563000C3F34113DBBB202A06D1D0F8B422926811
:10564000BDE8B040104700BF4B780A4609792BB33C
:10565000012B11D0032B2AD190F89C32032B0FD1B0
:105660005388C3BB11F07F0335D0D2889ABB044660
:10567000FFF7F0FD2EE000BF90F89C32032B21D005
:10568000022B14D14A0612D00446FFF7E3FD204650
:105690008021FFF7DFFD0020B0BD00BF90F89C2205
:1056A000032A1DD0022A08BF5FEA416240D0802150
:1056B0000446FFF7CFFD20460021FFF7CBFD002079
:1056C000B0BD00BF5288002A44D14A0603D0044628
:1056D000FFF7F2FB2046FFF749FA0020B0BD00BFFC
:1056E00001F00F0202EB8202802900EB82022CBF44
:1056F0009269D2F85821002AD9D001F07F0202EB3A
:10570000820200EB820202F1140401EB810200EB41
:105710008202802938BF02F5AA744A0614D00546D1
:10572000FFF7DAFC01462846002918BF01210CE0EA
:1057300009064FF014024FF0000358BF4FF4AA724D
:105740008118835003E000BF00212160214602221E
:10575000FFF7FEF90020B0BDB0B50A7802F0600294
:10576000602A08D090F89C22013A022A03D88A883D
:1057700012F0FE0F0AD080210446FFF76BFD204691
:105780000021FFF767FD0020B0BD00BFD0F8B422B4
:10579000044692680D469047E988002908BF002812
:1057A000F1D12046FFF7E2F90020B0BD70470000BC
:1057B00040F28C50C2F2000070470000F0B50B7848
:1057C000024691F803E030F8230047F27066BEF11C
:1057D000030F20EA060C11D80020DFE80EF00307C3
:1057E000100B00BF4CF4007C09E000BF4CF4806C4F
:1057F00005E000BF4CF4C06C01E000BF012048F29E
:105800008004CFF6FF744CEA040622F8236032F8D5
:10581000236040F60F752E401E43264322F8236076
:105820000E7B48F2800C002E58D032F8234040F610
:105830000F652C40644404F5807422F82340B2F8CC
:1058400050400E8902EB03152C4426F00106A4F803
:105850000064B2F850404E892C4426F00105A4F8AB
:1058600008544C7832F82310002C61D0490409D533
:1058700032F8231040F60F742140614401F5804155
:1058800022F8231032F82310490608D532F82310E5
:1058900040F60F7421406144403122F8231032F861
:1058A000231040F60F742140614401F5804122F835
:1058B000231032F8231040F63F7421400CF12004ED
:1058C0004C40BEF1010F08BF41EA0C0422F823400E
:1058D00032F8231043F60F775AE000BF4E78B2F843
:1058E0005040CF881D01002E27F0010656D05119D7
:1058F0002144A1F8006432F82310490608D532F893
:10590000231040F60F7421406144403122F82310E7
:1059100032F8231040F63F74BEF1010F01EA040192
:1059200037D00CF12007794022F82310F0BD00BFDA
:10593000490409D532F8231040F60F773940614405
:1059400001F5804122F8231032F82310490608D5CA
:1059500032F8231040F60F7739406144403122F885
:10596000231032F8231040F60F773940614440315C
:1059700022F8231032F8231043F60F7739400CF544
:105980004057794022F8231032F8231040F63F7731
:10599000394041EA0C0122F82310F0BD15442F19BB
:1059A000A7F80864B2F850E00C6905F20C416CB13C
:1059B0003E2C33D804F0010505EB5404A40221F871
:1059C0000E4032F82310490413D41CE03EF8014085
:1059D00048F2000524F4F8442EF801403EF8014056
:1059E000CFF6FF752C4321F80E4032F823104904FE
:1059F00009D532F8231040F60F773940614401F59C
:105A0000804122F8231032F8231043F60F773940F3
:105A10000CF54057794022F82310F0BD65094FF08E
:105A2000FF36E70608BF06EB541548F20004CFF630
:105A3000FF7444EA852421F80E4032F8231049040B
:105A4000D7D4E0E700207047B0B50B7802460C7B56
:105A5000487832F823104CF2800C002C4CF2800471
:105A60003AD0002842D0480408D532F8230040F646
:105A70000F71084040EA0C0022F8230032F823009E
:105A800043F60F7E400640F63F7009D532F82310EA
:105A900040F60F7529406144A1F57F5122F823108B
:105AA00032F8231040F60F7529402143ACF58044AD
:105AB00022F8231032F823100840204322F8230054
:105AC00032F8230000EA0E006044A0F58041002077
:105AD00022F82310B0BD00BFF0B1480640F63F7E6B
