:020000040800F2
:100000006813002001010008494F0008CD4E000888
:10001000454F000865160008D97900080000000067
:1000200000000000000000000000000075580008FB
:10003000D1160008000000004D4F00087958000854
:100040001B0100081B0100081B0100081B01000820
:100050001B0100081B0100081B0100081B01000810
:100060001B0100081B010008D5160008B91600087E
:100070001B010008C51600081B0100081B01000831
:100080001B0100081B0100081B0100081B010008E0
:100090009D6F00081B0100081B0100081B010008E0
:1000A0001B0100081B0100081B0100081B010008C0
:1000B0001B010008CD5800081B0100081B010008A7
:1000C0001B0100081B0100081B0100081B010008A0
:1000D0001B0100081B0100081B0100081B01000890
:1000E0001B0100081B0100081B010008DFF80CD0F1
:1000F00000F0EAF900480047F57B0008681300208B
:100100000648804706480047FEE7FEE7FEE7FEE7B1
:10011000FEE7FEE7FEE7FEE7FEE7FEE77D580008A4
:10012000ED00000810B5044604E00B7800F8013B30
:1001300003B1491C521EF8D2204610BD10B5002252
:1001400000E0521C835C8C5CA34201D1002BF8D1EF
:10015000D8B2E1B2401A10BD034611F8012B00F8E5
:10016000012B002AF9D118467047F0B480EA010249
:10017000D40F4200B2EB410F02D2024608461146AC
:100180004A0042D0C30DDDB2C1F3C752AD1A202DD3
:1001900035DAC1F3160141F4000204B15242C5F14F
:1001A000200602FA06F12A411044B3EBD05F23D0B7
:1001B000C4B1012DA0EBC35009DCF0BC4FF00042EC
:1001C00002EAC352DBB200F5000000F043B9400080
:1001D00000F1807000EBC350A0F1807040EAD17054
:1001E000490009E0490841EAC071A0EBC35000F59D
:1001F0000000400800EBC350F0BC00F022B961429F
:10020000012202EB4101001BF6E7F0BC704781F0D0
:100210000041AAE780F00040A7E780EA010210B59C
:1002200002F00043400022D04A001FD0010E01EB33
:100230001261C0F35600C2F3560240F4000042F4CB
:100240000002A0FB022000047F39140400D0401CEF
:1002500050EA124001D44000491EC2B20C0604EB21
:10026000D010401C4008802A02D003E0002010BDBE
:1002700020F00100002900DA0020184310BD30B43E
:1002800080EA010202F0004530F0004221F0004017
:1002900013D090B1C30DD40DC2F31601C0F31600F4
:1002A000E41A41F4000140F400027D34914201D38C
:1002B000641C00E04900002C02DA30BC00207047CA
:1002C0004FF400000023914201D3891A03434008F0
:1002D0004FEA4101F7D151B1914202D14FF00041B3
:1002E00005E002D24FF0010101E06FF0010103EBE4
:1002F000C450284430BC00F0A4B8002801DBC0F191
:100300000040002901DBC1F10041814201D80120F8
:10031000704700207047002801DBC0F10040002931
:1003200001DBC1F10041814201D201207047002070
:100330007047002801DBC0F10040002901DBC1F15A
:100340000041814201D301207047002070470028FE
:1003500001DBC0F10040002901DBC1F10041814215
:1003600001D90120704700207047C10F80EAE0707A
:100370000844CA079623002100F06CB89623002297
:10038000114600F067B800F0004220F00040C10DB7
:10039000C0F3160040F400007F2901DA0020704706
:1003A000962903DCC1F19601C84001E096398840E6
:1003B000002AF4D04042704720F00040C10DC0F345
:1003C000160040F400007F2901DA002070479629CA
:1003D00003DCC1F19601C8407047963988407047E8
:1003E0002DE9F05F0546002092469B46884606466A
:1003F000814640241BE0284641464746224600F0FD
:100400008AF853465A46C01A914110D311461846ED
:10041000224600F071F82D1A67EB01084F4622467C
:100420000120002100F068F817EB00094E41201E62
:10043000A4F10104DFDC484631462A464346BDE8C4
:10044000F09F0029A8BF7047401C490008BF20F05A
:100450000100704710B4B0FA80FC00FA0CF050EACA
:10046000010404BF10BC704749B1CCF1200421FA4B
:1004700004F411FA0CF118BF012121430843A3EB46
:100480000C01CB1D4FEA00614FEA102042BF002053
:1004900010BC704700EBC35010440029A4BF10BC2F
:1004A0007047401C490008BF20F0010010BC704795
:1004B000420005D0C0F3C7525242914201DC0020F5
:1004C000704700EBC15070471CB5094800900948BF
:1004D00001900546009C06E0E06840F0010394E8C6
:1004E000070098471034AC42F6D3FFF703FE000034
:1004F000789C0008989C0008202A04DB203A00FA27
:1005000002F1002070479140C2F1200320FA03F36A
:10051000194390407047202A04DB203A21FA02F068
:100520000021704721FA02F3D040C2F1200291402D
:1005300008431946704770B58C1810F8015B15F028
:10054000070301D110F8013B2A1106D110F8012B45
:1005500003E010F8016B01F8016B5B1EF9D12B076A
:1005600005D40023521E0DD401F8013BFAE710F820
:10057000013BCB1A921C03E013F8015B01F8015B0D
:10058000521EF9D5A142D8D3002070BDB0B50446A3
:1005900000688168C90701D10020B0BD816821F0E1
:1005A0000101816002F0CCFA054600BF2068806836
:1005B000C007F1D002F0C4FA401B0328F6D3A06AAA
:1005C00040F01000A062E06A40F00100E06201200B
:1005D000B0BD00000146406A826A12F0500F03D09D
:1005E000006A026B084610470168826A42F4007292
:1005F0008262896801F46021B1F5602F01D1017B2D
:1006000011B101F0D9BA00BF816A21F48071816211
:10061000816AC90448BF01F0CFBA816A41F0010183
:10062000816201F0C9BA0000406A816A41F040016C
:100630008162C16A41F00401C16201F005BB0000A2
:10064000406A01F0FFBA0000B0B582B00446002055
:10065000019021688A68D2073FD1886840F0010084
:10066000886040F27000C2F2000000684DF68361BD
:10067000C4F21B31A0FB0101880C01900198A0B1CC
:10068000019801380190019878B1019801380190E2
:10069000019850B1019801380190019828B1019852
:1006A0000138019001980028EAD102F049FA054684
:1006B00020688068C00713D102F042FA401B03286B
:1006C000F6D3A06A40F01000A062E06A40F001009A
:1006D000E062002084F82400012002B0B0BD00BF19
:1006E000002002B0B0BD00002DE9F04140F2C81674
:1006F0000C460546C2F200060028C6E9035446D05F
:1007000028690021FFF723FE40F200080028C4F208
:10071000401808BFC5F81080686900210027FFF75E
:1007200016FE002804BF4FF080406861A87E2F832A
:10073000073810F1070F9CBF0320A876E87E002140
:10074000032824BF0020E876286A0027FFF7FFFD72
:10075000D8B94FF08040C5E90480032068830020A9
:10076000C4F2A00046F266612F77C4F2861100221F
:1007700000230027C5E9088005F12800C4F24002E3
:10078000C4F2A013C4F220078EC000F011F83CB1EF
:1007900020463C2103F0F4FF30690068406A308154
:1007A00004F0D6FE002030603071BDE8F08100001A
:1007B00040F2C810C2F20000C068002808BF7047AD
:1007C000F0B54FF61441C0F6000151F8142C42F276
:1007D0002603CBF6BA239A426ED151F8102C012A87
:1007E0006AD151E903CE4BF6E873C0F6FF6345F6D4
:1007F000BE246344CFF6C6445C400EEB841303EB87
:10080000940547F6B913C9F6376351F8042C1D4413
:100810006C4002EB841505EB94051D440E686C409A
:1008200006EB841505EB94051D444E686C4006EB01
:10083000841505EB94051D448E686C4006EB841509
:1008400005EB94051D44CE686C4006EB841505EB62
:1008500094051D440E696C4006EB841505EB940568
:100860001D44D1E905676C4006EB841505EB940542
:100870002B446340BB421FD1D3B2827611F8032CC4
:1008800011F8027C073B13F1070FC0E904CEC276D2
:1008900007779CBF03238376032A24BF0022C276F6
:1008A000D1E90032C0E90832D1E90232C0E90A32A6
:1008B0004A690969C0E90C12BDE8F04070470000C0
:1008C00040F2C810C2F20000C068002808BF70479C
:1008D0002DE9F04F8BB0428B017FD0E904BAD0E90B
:1008E0000889856AD0E90B67446B4BF6E870009283
:1008F000019142EA0141C0F6FF6045F6BE2258442C
:10090000CFF6C64242400AEB821000EB920347F654
:10091000B910C9F6376003445A4001EB821101EB6C
:1009200092010144514008EB811202EB9102024412
:10093000514009EB811202EB91020244514005EB58
:10094000811202EB91020244514006EB811202EB4C
:1009500091020244514007EB811202EB91020244E2
:10096000514004EB811202EB910210444840029581
:1009700003970494059001F0A7FF0020CDE906003D
:100980004FF600440120C0F600040A9007A806A90B
:10099000099401F08BFE0120214642F22602002339
:1009A00001F006FFA11C01204BF6BA22002301F042
:1009B000FFFE211D01200122002301F0F9FEA11DEF
:1009C00001200022002301F0F3FE1FFA8BF204F154
:1009D00008010120002301F0EBFE4FEA1B4204F165
:1009E0000A010120002301F0E3FE1FFA8AF204F15C
:1009F0000C010120002301F0DBFE4FEA1A4204F152
:100A00000E010120002301F0D3FE009A04F1100131
:100A10000120002301F0CCFE019A04F11201012013
:100A2000002301F0C5FE1FFA88F204F11401012031
:100A3000002301F0BDFE4FEA184204F11601012027
:100A400000234FEA194501F0B3FE1FFA89F204F1C1
:100A500018010120002301F0ABFE04F11A0101206E
:100A60002A46002301F0A4FE029F04F11C01BAB241
:100A70000120002301F09CFE3A0C04F11E0101202C
:100A80000023350C01F094FEB2B204F120010120E4
:100A9000002301F08DFE04F1220101202A460023EB
:100AA00001F086FE039F04F12401BAB20120002365
:100AB00001F07EFE049E3A0C04F126010120002381
:100AC000350C01F075FEB2B204F1280101200023BB
:100AD00001F06EFE04F12A0101202A46002301F0F4
:100AE00067FE059D04F12C01AAB20120002301F04C
:100AF0005FFE2A0C04F12E010120002301F058FEB4
:100B000001F04CFE0BB0BDE8F04F70472DE9F04707
:100B100084B040F60040C4F20100102102F004F855
:100B200006460446002818BF012602F009F840F2E4
:100B3000C611C2F200010A7840F2C815B242C2F2F0
:100B4000000505D1A969411A282908D2FEE000BF95
:100B50000E700146A861411A2829C0F0F780697912
:100B6000002C3BD0002900F0F180A879002100285A
:100B7000697140F0EB80EC68002C00F0E780287889
:100B8000042800F29F80DFE800F00391515F4500E8
:100B900068780130C1B2032988BF002040F20C31CF
:100BA00068700020C2F20001087081F8200081F80E
:100BB000400040F26C31C2F20001087081F8200060
:100BC00081F8400040F2CC31C2F2000185F82400E7
:100BD00085F84400087081F82000B5E0A1B1A9793A
:100BE000002940F0B380E969401AB0F52F7FC0F0CA
:100BF000AD8029780120A871B1FA81F040092870F0
:100C000000206880A1E000BF0121A5F80510E8617F
:100C10009CE000BFA878002840F06080207FB0FAF8
:100C200080F040092077FFF74BFE8DE0A87803287D
:100C300000F28A8024212022DFE800F0580256507A
:100C40002C21282252E000BFA878052846D8013080
:100C5000A076C0B2FFF792FB46F26661C4F286014D
:100C6000FFF7DBFA40F20C3120610020C2F20001F4
:100C7000087081F8200081F8400040F26C31C2F227
:100C80000001087081F8200081F8400040F2CC316A
:100C9000C2F2000185F8240085F84400087081F84C
:100CA00020002871FFF70CFE4EE000BFA878042852
:100CB0004CD8DFE810F00500110409040D04050408
:100CC00002200CE0A878032840D8DFE800F0033BBE
:100CD000170700BFFFF7F4FD36E000BF01202870C2
:100CE0000020688030E000BF34213022D4E904378E
:100CF000E076A3506750FFF7E3FD25E00020C4F243
:100D000040104FF08041C4E90401032161830021B8
:100D100000262177002146F2666200230027C4F2F4
:100D2000200604F1200CC4F2A001C4F28612C4F221
:100D30004003C4F2A0178CE88F006663FFF7C0FD84
:100D400002E000BFFFF734FD00202871286908B3D6
:100D50000068406A29892881411A286A09B2084432
:100D60000428286208DB00BF04382862012000F054
:100D7000B5FC286A0328F7DC10F1040F0ADC00BF79
:100D8000043028624FF0FF3000F0A8FC286A10F110
:100D9000030FF5DBE87838B32879012805D101F095
:100DA000CFFE6969401A78281AD301F0C9FE68613C
:100DB000012128782971DFE810F055035B03070053
:100DC00045023901070000BFAD780024022014213C
:100DD0000C226023009404F051FB032D40F2548355
:100DE00004B0BDE8F08700BF40F201112878A5F8F3
:100DF0000310DFE810F007002D022101A501C70054
:100E0000B70200BF0020002404F094FB40F230063B
:100E1000C2F20006D6E900304FF6E07949F64F42BB
:100E2000CDE90009C0F6000204200221029404F07A
:100E300031FC00200F21A0221F234FF01F0806F0D5
:100E4000CDFD40F22807C2F20007D7E9003040F29A
:100E5000FF7ACDE9000A0FF23472002014210294C7
:100E600004F018FCD7E900300FF22472CDE9000A33
:100E700000203221029404F00DFCD7E900300FF27B
:100E80001472CDE9000900205021029404F002FC04
:100E9000D6E900300FF20072CDE900084920142194
:100EA000029404F0F7FBD6E900304FF61F09CDE9B4
:100EB00000090FF2E86249202221029404F0EAFBC3
:100EC000D6E900300FF2D862CDE9000A492030217E
:100ED000029404F0DFFBD6E900300FF2C862CDE9DE
:100EE000000A49203E21029404F0D4FBD6E90030E8
:100EF0000FF2B462CDE9000949204C21029404F0BC
:100F0000C9FBD6E900304FF6FF71CDE900010FF2C1
:100F10009C6249205A21029404F0BCFB00207321FA
:100F2000A0221F2306F05AFDD6E900300FF280629E
:100F3000CDE9000804207621029404F0ABFB40F2D6
:100F40000C30C2F20000047080F8204080F840406D
:100F500040F26C3040F2CC31C2F20000C2F200012B
:100F600085F8244085F84440047080F8204080F8DB
:100F700040400C70012081F8204004B0BDE8F047EB
:100F800006F0C2B80020002404F0D4FA40F2300683
:100F9000C2F20006D6E900304FF6E07149F65A4237
:100FA000CDE90001C0F6000204200221029404F001
:100FB00071FB00200F21A0221F2306F00FFD40F23D
:100FC0000C30C2F20000047080F8204080F84040ED
:100FD00040F26C30C2F20000047080F8204080F8CB
:100FE000404040F2CC30D6E9003185F8244085F805
:100FF0004440C2F200004FF6FF75047080F82040B4
:10100000CDE900150FF2F84212202221029404F0DB
:1010100041FBD6E9003049F63042CDE90005C0F683
:10102000000212203421029404F034FB04B0BDE825
:10103000F04706F081BC00BF00204FF6FF78002487
:1010400004F078FA40F23007C2F20007D7E9003026
:101050004FF6E07149F63F42CDE90001C0F60002CB
:1010600004200221029404F015FB00200F21A0228D
:101070001F231F2606F0B2FC40F20C30C2F2000023
:10108000047080F8204080F8404040F26C30C2F29A
:101090000000047080F8204080F8404040F2CC30DE
:1010A000C2F20000047080F82040D7E900304FF40D
:1010B000FC6185F8244085F84440CDE900010FF239
:1010C000A04212201C21029404F0E4FAD7E9003077
:1010D0000FF29442CDE9000612202E21029404F072
:1010E000D9FAD7E900304FF61F01CDE900010FF220
:1010F000804212204021029404F0CCFAD7E900305B
:1011000049F63042CDE90008C0F6000212205C2109
:10111000029404F0BFFAAD78022014210C2260235F
:10112000009404F0ABF9032D3FF65AAEC5EBC500B1
:10113000162101EB4000D7E90031A8F11F028CE134
:101140000020002404F0F6F940F23006C2F2000656
:10115000D6E900304FF6E071CDE90001EAA20420A3
:101160000221029404F096FA00200F21A0221F23EE
:1011700006F034FC40F20C30C2F20000047080F83B
:10118000204080F8404040F26C30C2F20000047011
:1011900080F8204080F8404040F2CC30D6E9003161
:1011A00085F8244085F84440C2F200004FF6FF75F0
:1011B000047080F82040CDE90015D7A21220142138
:1011C000029404F067FAD6E90030D6A2CDE9000512
:1011D00012202221029404F05DFAD6E90030D4A254
:1011E000CDE9000512203021029404F053FAD6E92B
:1011F0000030D2A2CDE9000512203E21029404F075
:1012000049FAD6E90030D0A2CDE9000512204C21E0
:10121000029404F03FFAD6E90030CEA2CDE90005F1
:1012200012205A21029404F035FAD6E9003049F62A
:101230003042CDE90005C0F6000212206C21029474
:1012400004F028FA04B0BDE8F04705F015BF00BF70
:1012500000204FF6FF76002404F06CF940F23007CE
:10126000C2F20007D7E900304FF6E071CDE9000186
:10127000C1A204200221029404F00CFA00200F21E4
:10128000A0221F2306F0AAFB40F20C30C2F200009D
:10129000047080F8204080F8404040F26C30C2F288
:1012A0000000047080F8204080F8404040F2CC30CC
:1012B000C2F20000047080F82040D7E9003049F6FF
:1012C0003F4285F8244085F84440CDE90006C0F649
:1012D00000021220162102944FF0160804F0DAF9E9
:1012E000D7E90030A7A2CDE90006122024210294FC
:1012F00004F0D0F9D7E9003049F65A42CDE90006AA
:10130000C0F6000212203221029404F0C3F9D7E99A
:10131000003049F63542CDE90006C0F60002122041
:101320004021029404F0B6F9D7E9003049F6304282
:10133000CDE90006C0F6000212204E21029404F00E
:10134000A9F9AD78022014210C226023009404F046
:1013500095F8042D3FF644ADC5EBC50008EB400001
:1013600077E000BF00204FF6FF76002404F0E2F89B
:1013700040F23007C2F20007D7E900304FF6E071C3
:1013800049F63542CDE90001C0F6000204200221F1
:10139000029404F07FF900200F21A0221F2306F001
:1013A0001DFB40F20C30C2F20000047080F82040B7
:1013B00080F8404040F26C30C2F20000047080F8C7
:1013C000204080F8404040F2CC30C2F2000004706F
:1013D00080F82040D7E9003085F8244085F8444063
:1013E000CDE900063EA212201821029404F052F921
:1013F000D7E900303DA2CDE9000612202A2102944F
:1014000004F048F9D7E900303BA2CDE900061220EC
:101410003C21029404F03EF9D7E9003049F630420D
:10142000CDE90006C0F6000212205821029404F013
:1014300031F9AD78022014210C226023009404F0CD
:101440001DF8032D3FF6CCACC5EBC500162101EB12
:101450004000D7E90031A6F11F0292B2CDE9001297
:1014600021E000BF002004B0BDE8F04705F04CBE0D
:10147000AD780024022014210C226023009403F094
:10148000FDFF042D3FF6ACAC40F23002C2F2000288
:10149000C5EBC5001621D2E9003201EB40004FF642
:1014A000E071CDE9002149F62742C1B2C0F6000241
:1014B0000420029404F0EEF804B0BDE8F08700BF09
:1014C00000202870FFF70DBC0420FFF708BC00BF08
:1014D0000520FFF704BC00BF0320FFF700BC00BFDE
:1014E0005341564520464C41534800004C4F41441F
:1014F00020464C415348000044454641554C540059
:10150000454E41424C4500004241545445525920F9
:10151000434841524745000031532020342E323099
:101520005600000032532020382E34305600000080
:1015300033532031322E36305600000034532031E0
:10154000362E38305600000035532032312E3030E0
:101550005600000036532032352E3230560000003F
:1015600053415645204D310053415645204D3200E0
:1015700053415645204D33004D41494E204D454E77
:101580005500000042415454455259005500000096
:101590004900000050000000494E0000544D50002A
:1015A000534554004C494D004D454D004F55540096
:1015B00042544E3A53454C20484F4C443A4D454EC8
:1015C00055000000F0B581B040F22C27C2F20007B0
:1015D00007F14005284600F0D3F940F29C24C2F2FE
:1015E0000004204600F0CCF942F63440C4F2010079
:1015F00000210160382040F6C066C4F20000C2F24B
:1016000000060160304603F06BFB3046002102F01B
:1016100025FE3046042103F063FB3046042102F02E
:101620001DFE07F138012846042200F0C7FD4FF4E3
:101630002F7001F027F840F2380004F13001C2F2B7
:101640000000FFF751F840F60070C2F2000002F00F
:10165000CDFE786920B1B889B88001B0F0BD00BF77
:10166000FEE70000FEE70000002070470020704702
:1016700010B540F6B004C2F2000440F67001C2F2A8
:1016800000012046002204F023FA40F63001C2F2A5
:101690000001204604F016FA002010BD10B540F6F7
:1016A000B004C2F200040146204604F00BFA2046C2
:1016B00004F0EAF9002010BD40F67430C2F20000D8
:1016C00000F088BE40F6B830C2F2000000F082BEE2
:1016D00070470000102001F011B90000002808BF79
:1016E0007047F0B581B040F2C816C2F20006F76844
:1016F0001FB33278052A20D80521DFE802F0230A3B
:10170000030913030421B278012805DA0EE000BFB3
:101710000721B278012809DB501CC2B28A4228BFD7
:10172000002007E00221B2780128F5DA002A14BF70
:10173000501E481EB0700020307101B0BDE8F0406E
:10174000704700BF71780329F5D8DFE801F0036521
:10175000275B00BFFEF709FE4CF6CD413C69C3F69E
:10176000CC51FEF75AFD2146FEF7FFFC0021C4F2E2
:10177000F0110446FEF7EBFD00281CBF0024C4F264
:10178000F01420464FF07E514FF07E55FEF7DFFDFE
:10179000002808BF2C463C616BE000BFF97E0128A1
:1017A0005CDB481C45F256514143090C01EB4101F9
:1017B000401AC1B207EBC1014A6A096AF876C7E963
:1017C000041240F20C310020C2F20001087081F8CE
:1017D000200081F8400040F26C31C2F20001087034
:1017E00081F8200081F8400040F2CC31C2F20001C3
:1017F00086F8240086F84400087081F820003071D3
:1018000099E700BF012831DB797E01200029387675
:1018100008BF78762DE000BFFEF7A7FD4CF6CD445B
:10182000C3F6CC547D692146FEF7F7FC2946FEF746
:101830009CFC0021C4F220110546FEF788FD00281B
:101840001CBF0025C4F2201528462146FEF77FFD67
:10185000002808BF25467D610BE000BF41B3481E4C
:10186000C1B202293FF667AFA3E700BF0020387678
:10187000787640F20C310020C2F20001087081F845
:10188000200081F8400040F26C31C2F20001087083
:1018900081F8200081F8400040F2CC31C2F2000112
:1018A00086F8240086F84400087081F8200042E79A
:1018B00002207EE77047000070B542F20C06044635
:1018C000C4F2020601F03CF93168C9071CD1306846
:1018D000800644BF202030603068C00607D43069DD
:1018E000C00704D1306840075CBF002070BD30687D
:1018F000C00640F64070C2F2000021D400213268D8
:10190000520725D42AE000BFC4B10546601C10D19F
:101910003068C007DBD03068C0071CBF30685FEAA2
:10192000C070D4D03068C007F2D1D0E73068C007AB
:10193000CDD001F005F9401BA042F7D9032070BDBE
:10194000C16941F00201C16110213268520705D519
:10195000C26941F0040142F00102C2613269D2075A
:1019600002D10120316070BDC26942F00402C2613F
:10197000306920F0010030610120316070BD00004D
:1019800070B582B004460020019094F8240001282C
:1019900002D1022002B070BD012084F8240020464C
:1019A000FEF7F4FD20B1002184F8241002B070BDD0
:1019B0000646A06A41F2021188430230A06240F25A
:1019C0007000C2F200000568022001F01FFEB5FBA6
:1019D000F0F0400001900198A8B100BF01980138D3
:1019E0000190019878B1019801380190019850B1A7
:1019F000019801380190019828B1019801380190AF
:101A000001980028EAD12046FEF71EFE2068816872
:101A100041F00801816001F093F805462068816873
:101A2000090705D501F08CF8401B0A28F6D910E00B
:101A3000816841F00401816001F082F8054600BF31
:101A400020688068400709D501F07AF8401B0B2810
:101A5000F6D3012010216FF0120203E001216FF094
:101A600003023046A36A1A401143A162002184F8A0
:101A7000241002B070BD000070B581B00022009249
:101A800090F82420012A03D10221084601B070BD3C
:101A90004A680123062A02EB820E80F8243007D818
:101AA000D0F800C06FF004030CF134060CE000BF66
:101AB000D0F800C00C2A87BF0CF12C066FF0400351
:101AC0000CF130066FF022030EEB03021F23346883
:101AD00003FA02F50B6824EA050503FA02F22A4329
:101AE0003260092B03EB43021AD9DCF80C601E3A72
:101AF000072589689540AE43914023F001023143A8
:101B0000102ACCF80C1015D142F20041C4F20101A8
:101B10008C4517D0816A41F02001816201210AE0E1
:101B2000DCF81030072689689640B343914019438A
:101B3000CCF810100021002280F82420084601B0C3
:101B400070BD00BF89680902F4D4DCF80810102BBE
:101B500041F40001CCF80810ECD140F27001C2F25F
:101B6000000109684DF68362C4F21B32A1FB021228
:101B7000910C01EB81014900009100990029D9D015
:101B800000990139009100990029D3D000990139B9
:101B9000009100990029CDD0009901390091009958
:101BA0000029C7D0009901390091009900294FF010
:101BB0000001E5D1BFE70000006842F20041C4F235
:101BC0000101884218BF7047B0B540F22C20C2F224
:101BD000000000F1180E448F9EE80C501D19838FF1
:101BE000C48F63440EEB040CC488018F013411448C
:101BF000A2B2242AC0E906150362C0F824C0C4803A
:101C00001CD348F63962C3F6E302A1FB0214A5FB1C
:101C10000215A3FB0213ACFB0212E108D2080181FA
:101C20000021ED08DB08C281012245818381C1804A
:101C30000270C0E90521C0E907114162BDE8B0406A
:101C40007047000070470000704700000068C06CDB
:101C500070470000002804BF01207047B0B504465B
:101C6000806A28B120688168C9070CD032E000BFC3
:101C70000020E06284F82400204600F08FF82068FD
:101C80008168C90726D1A16AC9063DD4A16A41F27B
:101C9000021291430231A162E169D4E9013241EAC1
:101CA000030C531EB3FA83F35D091346B2F5807F2C
:101CB00018BF2B02217D257B01294CEA45012ED13D
:101CC00045B3A56A45F02005A562E56A45F0010522
:101CD000E56224E0816821F00101816000F030FFBD
:101CE000054600BF20688168C907CCD000F028FFF6
:101CF000401B0328F6D3A06A40F01000A062E06AFF
:101D000040F00100E062A06AA06A40F01000A0620A
:101D10000120B0BDA56903EB4533A3F5C053456869
:101D2000B2F5807F25F4694543EA05034360836883
:101D30004FF2FD75CFF6E17503EA050343EA0103AF
:101D4000836001D0012A07D122690023CFF6F07306
:101D500003EB025201E000BF0022C36A23F47003C8
:101D60001A43C262806840F6FE62CFF61F721040CE
:101D7000884207D10020E062A16A012262F30101DA
:101D8000A162B0BDA06A40F0100020F00200A06285
:101D9000E06A40F00100E0620120B0BDF0B585B01E
:101DA000016842F60002C4F2010291424FF00002C3
:101DB000CDE90322CDE9012246D042F20042C4F22D
:101DC0000102914261D1074641F21800C4F20200BB
:101DD000016841F400710160016801F40071009133
:101DE0000099016841F004010160006801A900F058
:101DF0000400009000981B2001900320029040F600
:101E00000000C4F2010000F085FD40F674340820A3
:101E1000C2F20004C4F202000021C4E9000104F18E
:101E2000080080224FF480734FF4806520266EC036
:101E30002046E16100F09CFB002818BFFFF73AFD47
:101E40003C62676205B0F0BD41F21800C4F20200C6
:101E5000016841F480610160016801F480610091D2
:101E60000099016841F004010160006801A900F0D7
:101E7000040000900098042001900320029040F696
:101E80000000C4F2010000F045FD05B0F0BD000007
:101E90002DE9F04182B000270D460446019700F07D
:101EA0004FFE21688A68D20544D406464868C005BA
:101EB00003D4C86A10F4700F46D040F27000C2F22A
:101EC0000000076842F292480220C1F2492801F05E
:101ED0009DFB216844F624130A69B7FBF0F0C2F2B7
:101EE00092431A4206D1CA6844F62413C0F2920300
:101EF0001A4249D00A6912EA080F07D1CA6842F2A9
:101F00009243C0F249031A4200F084800A6949F200
:101F10004923C0F224031A424FF0FC0242D1CF6899
:101F20001F4208BF5422019B02FB00F7BB423ED375
:101F300079E000BFA06A40F02000A06284F824701D
:101F4000012002B0BDE8F081086880076BD4002D45
:101F500055D0681C12D10868800764D408688007CF
:101F60005CBF08685FEA80705DD408688007F2D5BE
:101F700059E000BF21680868800754D400F0E0FDF4
:101F8000801BA842F6D93AE00A6912EA080F4FF01E
:101F9000290207D1CB6842F29247C0F249073B427F
:101FA00008BF1422019B02FB00F7BB423BD235B3B2
:101FB000681C1FD10198013001900198B84232D2BB
:101FC0000198013001900198B8422CD2019801305B
:101FD00001900198B84226D20198013001900198F1
:101FE000B842E7D31FE000BF01980130019001988B
:101FF000B84217D200F0A4FD801BA842F4D9A06A11
:1020000040F00400A062002084F82400032002B005
:10201000BDE8F0815422019B02FB00F7BB42C6D30E
:1020200001E000BF21686FF012000860A06A40F470
:102030000070A062886800F46020B0F5602F01D1C4
:10204000207B18B1002002B0BDE8F081A06A20F426
:102050008070A062A06AC004F4D4A06A40F00100BD
:10206000A062002002B0BDE8F0810000B0B582B0EF
:10207000044690F82400012802D1022002B0B0BD2D
:10208000012084F824000020019020688168C9079D
:1020900042D1816841F00101816040F27000C2F2DA
:1020A000000000684DF68361C4F21B31A0FB010102
:1020B000880C01900198A0B1019801380190019815
:1020C00078B1019801380190019850B10198013818
:1020D0000190019828B101980138019001980028D9
:1020E000EAD100F02DFD054620688168C90713D1AB
:1020F00000F026FD401B0228F6D9A06A40F010002F
:10210000A062E06A40F00100E062002084F8240050
:10211000012002B0B0BD00BFA26A42F2044140F209
:102120000133C4F201019A4302F5807301F57F7215
:102130009042A3622AD0A36A23F48013A362436867
:102140005B0504D5A36A012565F30D33A362A56A77
:102150000023ED044FF0000544BFE56A25F00605B5
:10216000E56284F824306FF002030360836803F4AF
:102170006023B3F5602F19D1904213D0816841F4E8
:10218000A0018160002002B0B0BD00BF0B6813F455
:10219000702FD0D0A36A43F48013A3620B685B0551
:1021A000D0D4D4E7096811F4702FE7D0816841F4E6
:1021B00080118160002002B0B0BD0000F0B581B098
:1021C0000446036842F60000C4F20100834205D0D1
:1021D00042F20040C4F2010083420BD142F20440BB
:1021E000C4F20100006810F4702F03D0012001B088
:1021F000F0BD00BF94F82400012803D1022001B0F3
:10220000F0BD00BF012084F82400002000909868F1
:102210000E461546C00743D198684DF6836140F0DD
:102220000100986040F27000C2F200000068C4F241
:102230001B31A0FB0101880C00900098A8B100BFE1
:10224000009801380090009878B10098013800900B
:10225000009850B1009801380090009828B100987B
:102260000138009000980028EAD100F069FC074688
:1022700023689868C00713D100F062FCC01B0228D5
:10228000F6D9A06A40F01000A062E06A40F00100B8
:10229000E062002084F82400012001B0F0BD00BFFE
:1022A00042F20440A16AC4F2010040F60172914377
:1022B00000F57F7201F580719342A16246D0A06A59
:1022C00020F48010A0625868400504D5A06A01215E
:1022D00061F30D30A062A16A0020C9044FF0000133
:1022E00044BFE16A21F00601E16284F82400206A1B
:1022F00040F2D551C0F6000140F2416240F2296738
:1023000000F1280CC0F60002C0F600078CE8860039
:102310006FF0020119609968324641F4807199604A
:1023200003F14C012B4600F05DF92068816801F44F
:1023300060228168B2F5602F0CBF41F4A00141F426
:1023400080118160002001B0F0BD00BF016811F470
:10235000702FB4D0A16A41F48011A16200684005D9
:10236000B4D4B8E7B0B5044690F82400012804BFFF
:102370000220B0BD0121206884F824108168C907BB
:1023800008D1214651F8280F41F2011220EA020239
:10239000002018E0816821F00101816000F0D0FB8D
:1023A000054600BF20688068C007EAD000F0C8FB7F
:1023B000401B0328F6D3A06A214640F01000A0621B
:1023C00051F82C2F012042F001020A60002184F80C
:1023D0002410B0BD10B5D0E90FCE0168DCF8003094
:1023E0000A6823FA0EF35C072AD512F0040427D0FA
:1023F0000A68920603D40A6822F004020A602F22B7
:10240000C4F20202914240F20402C4F2020259DD17
:102410003023C4F20203994270D04423C4F2020371
:10242000994271D05823C4F20203994278D14FF4F3
:1024300080231360C16A002940F097806EE000BFDE
:102440009C0727D512F0020424D00A68920606D40D
:102450000A6822F00A020A60012280F821202F2255
:10246000C4F20202914240F20402C4F2020239DDD7
:102470003023C4F2020399425ED04423C4F2020323
:1024800099425DD05823C4F2020399425ED14FF4C1
:10249000003363E01B0741D512F0080208BF10BDEE
:1024A0000A6822F00E020A60012101FA0EF2CCF84D
:1024B00004208163016B4FF480720029028454D19F
:1024C0002CE000BF0823C4F20203994222D01C234F
:1024D000C4F20203994223D140231360C16A002948
:1024E00043D11BE00823C4F2020399422CD01C23E1
:1024F000C4F20203994229D120232FE04FF48063D4
:102500001360C16A89BB09E04FF480431360C16A5C
:1025100059BB03E004231360C16A31BB10BD00BF87
:1025200002F168044FF08063A14208BF4FF48003BA
:102530001360C16AC9B9F1E74FF400730EE000BF40
:102540004FF400530AE000BF022307E002F16804E1
:102550004FF00073A14208BF4FF400131360816A6B
:102560000022002980F82020D8D0BDE8104008477C
:10257000002804BF012070472DE9F04101684FF6A3
:10258000F872CBF6FD724CF6CD430A44CCF6CC4340
:10259000A2FB03236FF0030202EA93020023C4F2BA
:1025A000020300F1040E00F11007C0E90F329EE8AB
:1025B0000051F0CF0A6843F6F0739A4342EA0802EA
:1025C00042EA0C0242EA0E0222432A4332433A43D1
:1025D0000A6000214FF4807281630284BDE8F041FB
:1025E0000846704790F820C0BCF1010F04BF0220DC
:1025F0007047F0B590F821C04FF0010EBCF1010F0B
:1026000080F820E026D14FF0020C80F821C04FF076
:10261000000CC0F838C0D0E900C4C56AC66BDCF84D
:102620000070102C27F00107CCF80070006C0EFA37
:1026300000F070600846CCF8043004BF10460A462B
:10264000CCF80800CCF80C20DCF8000045B140F0D4
:102650000E000DE0002180F820100220F0BD00BF28
:1026600020F00400CCF80000DCF8000040F00A0084
:10267000CCF80000DCF8000040F00100CCF80000CD
:102680000020F0BDB0B5044600F05AFA054640F20D
:102690000400C2F200000078611C18BF044400BFAF
:1026A00000F04EFA401BA042FAD3B0BD2DE9F04332
:1026B00081B040F64075C2F200052A7E012A03D19E
:1026C000022001B0BDE8F083044601202668287688
:1026D0004CF250308846FFF7EFF8022E1CD100284C
:1026E0004ED1002042F21004E861C4F202042068D6
:1026F00040F004002060206840F0400020604CF270
:102700005030FFF7D9F8216821F004012160002141
:10271000297601B0BDE8F08390BB4FF0FF30C8F8D8
:102720000000D4E9027007EB8020874228D242F2F1
:102730001006C4F202064FF0000900BFC5F81C9055
:10274000306840F0020030607760306840F0400050
:1027500030604CF25030FFF7AFF8316821F00201E1
:10276000316098B9D4E9020107F5806700EB812058
:102770008742E3D300200021297601B0BDE8F08331
:1027800001200021297601B0BDE8F083C8F800706F
:102790000021297601B0BDE8F083000042F210016B
:1027A000C4F20201086840F0800200200A6070470D
:1027B0002DE9F04381B040F64077C2F2000716469B
:1027C0003A7E012A04D1022001B0BDE8F08300BFA7
:1027D0000546012038764CF250300C469946FFF7FA
:1027E0006BF828B10021397601B0BDE8F08300BF55
:1027F00042F210080020C4F20208F861D8F8000084
:1028000040F00100C8F800004CF250302680FFF77D
:1028100053F8D8F80010002821F00101C8F8001082
:1028200018BF0046DED1012DDCD00020F861D8F8B9
:102830000000310C40F00100C8F800004CF25030AC
:102840006180FFF739F8D8F80010002821F0010165
:10285000C8F80010C6D1E81E10F1030F4FF00000B9
:10286000C0D8F861D8F8000040F00100C8F80000B6
:102870004CF25030A4F80490FFF71EF8D8F800107E
:10288000002821F00101C8F80010ABD10020F86148
:10289000D8F800004FEA194140F00100C8F80000E4
:1028A0004CF25030E180FFF707F8D8F8001000280C
:1028B00021F00101C8F8001018BF00460021397648
:1028C00001B0BDE8F083000042F20400C4F202004F
:1028D000C16809065CBF0020704740F22311C4F2B2
:1028E0006751016048F6AB11CCF6EF510160C0684A
:1028F000C0B2C009704700007047000040F21441A8
:10290000C4F201010A68024214BF08607047FFF771
:10291000F3BF00002DE9F04F82B00E68002E00F0EA
:10292000FF8040F20C4C40F2004E41F20042C4F2F3
:10293000010CC4F2010EC4F2010204270024012399
:102940004FF0000A4FF00009904208BF032700979C
:1029500049E000BF41F20002C4F20102009F904230
:1029600008BF022704F00C030F229A402BEA020250
:1029700007FA03F34FEA9A051A4346F825204E68F2
:10298000F203DEF8002054BF22EA080242EA0802FD
:10299000CEF80020DEF80420B30354BF22EA080278
:1029A00042EA0802CEF80420F302DEF8082054BF01
:1029B00022EA080242EA0802B302CEF80820DCF854
:1029C00000204FF0010354BF22EA080242EA080245
:1029D000CCF800200E680AF1010A36FA0AF204F176
:1029E000040400F09D8003FA0AFB16EA0B08F1D0FC
:1029F0004E684FF6FF72C1F21002964212DC122EA0
:102A000056D8DFE806F0350B4D4955555555555507
:102A10005555555555555545510000BFD1F80C90A9
:102A200046E000BF4FF6FF72C1F2210296420FDC72
:102A30000022C1F2110296421AD00022C1F2120203
:102A4000964215D00022C1F22102964210D02FE00A
:102A50000022C1F2220296420AD00022C1F23102C3
:102A6000964205D00022C1F23202964220D100BF28
:102A70008A684AB1012A14BFC0F814B0C0F810B077
:102A80004FF0080914E000BF4FF0040910E000BF48
:102A9000CA6802F104090BE04FF0000908E000BF2A
:102AA000CA6802F1080903E0CA6802F10C0900BF14
:102AB00002462646B8F5807F24BF0432203E1768C0
:102AC0000F25B54027EA050509FA06F635431560D6
:102AD000CA79D2067FF57EAF41F21803C4F2020331
:102AE0001A68AEF57E7642F001021A601A6802F0AA
:102AF00001020192019A2AF0030256F802B040F650
:102B00000002C4F20102904208D040F60042C4F232
:102B1000010290427FF41EAF012723E7002721E73F
:102B200002B0BDE8F08F00008068084018BF0120A7
:102B300070470000002A08BF0904016170470000C7
:102B400040F66070C2F200000068704740F2040076
:102B500040F66071C2F20000C2F2000100780A681B
:102B6000104408607047000080B542F20000C4F2D3
:102B70000200016841F010010160032000F08CF8B0
:102B8000002000F005F800F027F8002080BD0000CC
:102B900070B540F20406C2F2000640F270013278CD
:102BA000C2F200014FF47A730968B3FBF2F20446F3
:102BB000B1FBF2F1084601F0D3FA0F2C4FF00105FA
:102BC00008D838B94FF0FF3021460022002500F028
:102BD00037F87460284670BD82B041F21800C4F224
:102BE00002000168022241F001010160016801F068
:102BF000010101910199416841F0805141604068B3
:102C000000F08050009000980420C4F20100016898
:102C100062F31A61016002B070470000002848BFEB
:102C2000704700F01F01012202FA01F11C2202EAA2
:102C3000D0004EF20012CEF2000281507047000028
:102C400010B54EF60C5CCEF2000CDCF80030C3F38D
:102C5000022E8EF00704042C28BF0424BEF10303C7
:102C60004FF0FF3E0EFA04F438BF0023A143994011
:102C70000EFA03F39A43114300F00F0200F1604390
:102C80000901043A03F564436244002848BF02F195
:102C90000C03197010BD00004EF60C51CEF200016D
:102CA0000A684FF6FF031A4060F30A2242F0806080
:102CB00040F0FD700860704701F0070C00EB4C1C01
:102CC0000CF1280C00EB4110090658BF00F5947C6C
:102CD00052B1ACF808301B0C01210A202CF800304E
:102CE00000208CF80C107047002106202CF80030D2
:102CF00000208CF80C10704770470000D0F8683244
:102D000000EB4110C26B184603F064B9D0F868328A
:102D100000EB4110D0F83C21184603F0C1B9000087
:102D200010B54FFA81FC4FF49472BCF1000F48BF0C
:102D3000282201F0070302444FEAD11C02EB4311A1
:102D400081F801C090F828C24FEA431EBCF1010F80
:102D500002F80E3004BF022010BD0268012380F883
:102D600028320446104603F0D9FE002084F82802D9
:102D700010BD0000B0B5426801F00F03934284BF5C
:102D80000120B0BD4AB24FF49474002A48BF2824F1
:102D900001F00703021990F828424FEAD11C02EB18
:102DA000431181F801C04FEA431C012C4FF000048D
:102DB0008C7002F80C3004BF0220B0BD0268012301
:102DC00080F828320546104603F03CFF204685F87F
:102DD0002842B0BD01F0070100EB4110D0F84401DA
:102DE0007047000010B54FFA81FCBCF1000F01F0F4
:102DF000070C0DD400EB4C1E00240EF594718EF8D8
:102E000029418EF828C1CEF838218EF82B3109E0FF
:102E100000EB4C1101F828CF01244C700A61CB70F3
:102E2000A1F80EC0022B04BF00220A7190F82822DC
:102E3000012A04BF022010BD0268012380F8283255
:102E40000446104603F024FD002084F8280210BD3B
:102E500010B501F0070C00EB4C1E00680EF59471E4
:102E60000024CEF83C21CEF84031CEF844418EF813
:102E700029418EF828C103F039FF002010BD000061
:102E8000B0B5426801F0070494424FF0010229D81E
:102E90004BB24FF49475002B48BF28254FEAD1134D
:102EA00048BF214605444FEA411C05EB41114B70D8
:102EB00090F828328A70012B05F80C4004BF0220DC
:102EC000B0BD02680123054680F82832104603F0A1
:102ED000F3FE24B9286805F50C7103F0B1FE002259
:102EE00085F828221046B0BD80B501F0070C00EB34
:102EF0004C1101F828CF01F1140E00684FF0000CBE
:102F00008EE80C1001224A7003F0F0FE002080BD14
:102F10002DE9F04F83B00446006804F045F80146FF
:102F20002068090405D5B0F94410B1F1FF3F40F322
:102F3000A98004F039F8400519D52068B0F844108C
:102F400021F48061A0F84410204600F0FBFA94F8C8
:102F5000280201280BD00120002584F8280284F8DB
:102F600024502068002104F07FF884F8285220685B
:102F700004F01AF801462068490405D5B0F8441059
:102F800021F48041A0F8441004F00EF801462068B6
:102F9000890405D5B0F8441021F40051A0F844107C
:102FA00004F002F801462068C90411D403F0FCFFC4
:102FB000000527D4206803F0F7FF800548D4206877
:102FC00003F0F2FFC00552D403B0BDE8F08F00BF9C
:102FD000B0F8401021F00401A0F84010B0F8401003
:102FE00021F00801A0F84010204600F0BDFA20684A
:102FF000B0F8441021F48051A0F8441003F0D4FF3D
:103000000005D7D52068B0F8401041F00801A0F8BD
:103010004010B0F8441021F40061A0F84410B0F85A
:10302000401041F00401A0F8401003F0BDFFC004BF
:1030300006D52068B0F8441021F48051A0F844105F
:10304000204600F0CFFA206803F0AEFF8005B6D529
:103050002068B0F8441021F40071A0F84410204614
:1030600000F086FA206803F09FFFC005ACD5206809
:10307000B0F8441021F48071A0F8441003B0BDE80A
:10308000F08F00BF04F59471029104F1280504F556
:103090000C7140F60F7A019114E000BF01F00707B0
:1030A00005EB4711C1E9053200227E01CA61012208
:1030B0004A70AF5503F01AFE2068B0F94410002999
:1030C0007FF537AFB0F8442012F00F080CD030F97C
:1030D00028B04FEA4809BBF1FF3F35DD1FFA8BF0FE
:1030E0000006E9D51CE100BF0188D20656D401EAEA
:1030F0000A0101F500410180B0F8501094F8282031
:1031000000EB410000EB0210B0F80404E16B6FF338
:103110009F2060640844E06320460021FFF7EEFD35
:1031200094F824000028C7D0206C0028C4D194F85B
:103130002400216840F08000C0B2A1F84C000020BB
:1031400084F82400B8E700BF30F8191040F60F7774
:1031500001EA0A01803120F81910029901EB481A9E
:103160009AF80C10002977D09AF8001030F8212036
:10317000B0F8503000EB0111520401EB430100F1B3
:103180008180B1F80C646FF39F26002E00F08880D8
:10319000DAF81410BAF80A207DE000BF0A053DD421
:1031A00009B2B1F1FF3F3FF787AF018801EA0A0199
:1031B00080310180B0F8501094F82821130100F2FA
:1031C0000C4202EB4101CB5A6FF39F23C4F8443108
:1031D000A3B1D4F83C1189B1B4F82E2103F0E8FE74
:1031E000D4F83C01D4F844110844C4F83C0120460A
:1031F0000021FFF78BFD206800F20C42B0F8501060
:10320000D4F83831002B00F0B1803E2B00F2BA80A8
:1032100003F0010606EB53039B02C0E0B0F8501028
:1032200094F8282100EB410101EB0211B1F80C34B4
:10323000B4F82E2101996FF39F23C4F8443103F0B1
:10324000B7FE2068018801EA0A018031018020462A
:1032500000F0A8F930E700BFB0F850109AF800204D
:1032600000EB410101EB0211B1F80C646FF39F26F2
:10327000002E79D0DAF81410BAF80620334603F09D
:1032800097FE19E0B1F804646FF39F2646B1DAF8AF
:103290001410BAF80820334603F08AFE01E000BF9C
:1032A000002620689AF8001048F2C00330F8212068
:1032B0003A401A4320F82120DAF81C20DAE90510F8
:1032C0003244CAF81C208A19CAF81420E0B1DAF88E
:1032D00010309AF80010B34218D8029E01F007038C
:1032E00006EB4311C1E905200020C8614870206841
:1032F0005F01F35503F0FAFC40F60F7A1FFA8BF0EA
:1033000000067FF5D9AE0BE09AF800102046FFF7D3
:10331000FDFC40F60F7A1FFA8BF000067FF5CCAE6D
:1033200020684FEA481230F8191005EB481701EAF7
:103330000A0101F5004120F81910B0F85030A95CDD
:1033400000EB430202EB0112B2F80434D7E9056244
:103350006FF39F23FB613344002A7B617FF49EAEB1
:103360002046FFF7CBFCA7E60026A5E7535A48F214
:10337000000723F4F8435352535ACFF6FF773B43E9
:103380000DE000BF5E09DF064FF0FF3708BF07EB17
:10339000531648F20003CFF6FF7343EA86235352D5
:1033A000018843F60F72114048F2C00202F53F5205
:1033B0005140018080E60000002804BF01207047D2
:1033C000F0B585B0064690F8290228B9002086F8A5
:1033D0002802304600F094F8032086F8290230686D
:1033E00003F024FC06F1140E96E82F009EE810501E
:1033F000376ACDE90054CDE902CE049703F08CFB87
:1034000000286AD130680021002503F02BFE716886
:10341000002952D006F128004FF0010C00220023B1
:1034200000EB421752018354DAB20133FA81DAB267
:10343000914287F801C0FD70C7E90455BD61EFD81E
:1034400006F5947000220025002300BF00EB45170D
:103450006D01435543F00105ECB2A1427A70FA7058
:10346000C7E90422BA6128D900EB44176401055565
:1034700043F00205ECB2A1427A70FA70C7E9042267
:10348000BA611AD900EB44176401055543F00305EE
:10349000ECB2A1427A70FA70C7E90422BA610CD981
:1034A00000EB4417640104330555DDB2A9427A707C
:1034B000FA70C7E90422BA61C8D806F10807D6E94C
:1034C000055430688CCFD6E907CECDE9007502AD42
:1034D00085E8105003F096FB30B1022086F82902EF
:1034E000012005B0F0BD00BF002086F824000120B7
:1034F00086F82902306803F083FB002005B0F0BD98
:10350000006845F60041C4F20001884218BF7047C8
:1035100080B582B041F21C00C4F2020001680022B2
:1035200041F4000101600068002100F400000190F6
:1035300001981420FFF784FB142002B0BDE88040FE
:10354000FFF76CBB10B504468068022818BFFEF771
:10355000B1F9D4F86802012102F0A2FED4F86802A1
:10356000BDE8104002F05ABED0F8680202F080BEFA
:10357000D0F8680202F086BE90F82822012A04BF23
:103580000220704710B5012280F8282280F824100C
:1035900002680446104603F067FD002084F8280204
:1035A00010BD0000D0F8682200F50C71104602F042
:1035B0008DBE000090F82812012904BF0220704738
:1035C00010B5012180F828120446FFF795FB20680A
:1035D00003F014FB206803F0D7FC002084F82802D5
:1035E00010BD000010B50446D0F8680202F0C0FE1D
:1035F000A069002808BF10BD4EF61050CEF20000A2
:10360000016841F00601016010BD0000012821D0D1
:1036100002280DD0102808D141F20401C4F20201A1
:103620000A6851F8040CC00134D40020704700BF70
:1036300080B500F0C7F941F20401C4F20201096843
:103640000222C1F3813102EB4101B0FBF1F0BDE890
:103650008040704741F20400C4F20200C16940F2A8
:1036600002320A40B2F5817F04BF4FF40040704738
:1036700001F44071B1F5407F18D0B1F5007F1CBF57
:1036800000207047006A49F64041800701EAE07077
:10369000704700BFC2F3834015A3185CD2030DD45A
:1036A00040F60012C0F23D02504313E050F8040C03
:1036B0004FF22441800301EAE07070470A6810A3CA
:1036C000C2F340429A5C41F20023C0F27A03B3FB9A
:1036D000F2F250430968490248BF70474AF6AB21ED
:1036E0004000CAF6AA21A0FB01014808704700BFAC
:1036F00002030405060708090A0B0C0D0E0F101033
:10370000010200002DE9F04182B00446007841F248
:103710001C06C007C4F202064AD030685FEAC0083F
:1037200008D4306840F080503060306800F080503D
:103730000190019847F20007C4F200073868C005FD
:1037400012D4386840F480703860FFF7F9F9054604
:103750003868C00508D4FFF7F3F9401B6428F7D98F
:10376000032002B0BDE8F081706810F4407012D000
:10377000616801F4407188420DD0706840F24042A7
:10378000C4F24222012320F4407113600023C007D9
:103790001360716026D17068616820F4407008433E
:1037A000B8F1000F706003D4306820F080503060B2
:1037B0002068810707D556F8181CA26821F44041FB
:1037C000114346F8181CC00607D556F8180CE168D6
:1037D00020F48000084346F8180C002002B0BDE831
:1037E000F08100BFFFF7ACF9054641F2883700BF12
:1037F00070688007CFD4FFF7A3F9401BB8424FF0A1
:103800000300F5D9EAE70000002804BF0120704753
:103810002DE9F04381B042F20008C4F202080446E8
:10382000D8F800000D4600F0070081420CD9D8F806
:10383000000020F007002843C8F80000D8F8000076
:1038400000F00700A8426CD1206841F2040981070A
:10385000C4F2020917D5410705D5D9F8001041F483
:10386000E061C9F80010010705D5D9F8001041F44E
:103870006051C9F80010D9F80010A26821F0F001D9
:103880001143C9F80010C00742D1D8F8000000F079
:10389000070085420CD2D8F8000020F0070028432A
:1038A000C8F80000D8F8000000F00700A84238D19E
:1038B0002068410707D5D9F80010E26821F4E061DB
:1038C0001143C9F80010000708D5D9F80000216994
:1038D00020F4605040EAC100C9F80000D9F8002087
:1038E00002F00C00082841F20020C0F27A004DD10D
:1038F00049F6A433C2F38341C0F60003595CD203F6
:1039000038D440F60010C0F23D0048433EE000BF0E
:10391000606859F8041C022808D0012826D18903C0
:1039200006D4012001B0BDE8F08300BF8901F8D5BD
:10393000D9F8001021F003010843C9F80000FFF78F
:10394000FFF8064641F28837D9F80000616800F0B8
:103950000C00B0EB810F98D0FFF7F2F8801BB84253
:10396000F2D9032001B0BDE8F08300BF8907D8D5A4
:10397000DEE700BFD9F8002048F2BC63C2F3404242
:10398000C0F600039A5C4843B0FBF2F0D9F800108F
:1039900048F2C462C1F30311C0F60002515C40F268
:1039A000700220FA01F140F20800C2F20000006843
:1039B000C2F200021160FFF7EBF8002001B0BDE891
:1039C000F083000040F2700041F20401C2F20000F6
:1039D000C4F202010068096848F2D462C1F3C2214E
:1039E000C0F60002515CC84070470000002804BFC8
:1039F000012070472DE9F04182B00446007841F281
:103A00000006C007C4F202060CD0706800F00C007B
:103A1000042840F081803068800303D56068002866
:103A200000F04681207880071BD5706810F00C0FDD
:103A300009D0706800F00C00082840F0878070689A
:103A4000C00300F183803068800703D52069012816
:103A500040F02E813068616920F0F80040EAC10032
:103A600030602078000713D4207840072CD4E56913
:103A7000002D00F01881706800F00C00082840F05C
:103A8000A780012D40F00481012002B0BDE8F08143
:103A9000A069002800F084800020C4F242200121A7
:103AA000C0F88014FFF74CF8054600BF706A800725
:103AB00000F1B280FFF744F8401B0228F6D903203A
:103AC00002B0BDE8F08100BFF0695FEAC00808D429
:103AD000F06940F08050F061F06900F08050009093
:103AE000009847F20007C4F200073868C00549D4BF
:103AF000386840F480703860FFF722F8054600BF50
:103B00003868C0053ED4FFF71BF8401B6428F7D97E
:103B1000032002B0BDE8F081706800F00C000828B6
:103B200003D17068C0033FF576AF61683068002943
:103B300000F00C81B1F5A02F00F00081B1F5803FBD
:103B400040F01A8140F480301CE100BF2069002859
:103B500040F20000C4F2422000F0888001210160A0
:103B6000FEF7EEFF054600BF306880073FF572AFF5
:103B7000FEF7E6FF401B0228F6D9032002B0BDE89D
:103B8000F08100BFE168306A002900F09D800529BE
:103B900000F09280012940F0AF8040F00100B1E0D8
:103BA0000020C4F242200021C0F88014FEF7C8FFB4
:103BB000054600BF706A80077FF556AFFEF7C0FF6D
:103BC000401B0228F6D9032002B0BDE8F08100BFF7
:103BD0000027C4F2422700203866FEF7B1FF022D0D
:103BE00005460DD13068800140F1DE80FEF7A8FF68
:103BF000401B02284FF00300F4D902B0BDE8F08169
:103C0000306880014FD5FEF79BFF401B02284FF024
:103C10000300F5D9F1E700BF40F27000C2F20000E6
:103C2000006844F6D351C1F26201A0FB0101480AC9
:103C3000019000BF00BF0198411E002801913FF490
:103C400013AF00BF0198411E002801913FF40CAF53
:103C500000BF0198411E002801913FF405AF00BF4D
:103C60000198411E00280191E4D1FDE60021016088
:103C7000FEF766FF054600BF306880077FF5F1AEAE
:103C8000FEF75EFF401B02284FF00300F4D9B4E7B3
:103C90007068216A00F480328A4209D1616A00F4B6
:103CA0007010884204D1002002B0BDE8F08100BF4E
:103CB000012002B0BDE8F08140F004003062306ABB
:103CC00040F001001EE000BF20F001003062306AC9
:103CD00020F004003062FEF733FF054641F28837DA
:103CE000306A800720D5FEF72BFF401BB8424FF00B
:103CF0000300F5D981E700BF20F001003062306A8F
:103D000020F004003062FEF71BFF054641F28837C1
:103D1000306A800708D4FEF713FF401BB842F7D97A
:103D2000032002B0BDE8F081B8F1000F3FF59FAE6F
:103D3000F06920F08050F06199E600BF40F48020E7
:103D40003060306840F480301CE000BF20F48030E8
:103D50003060306820F480203060FEF7F1FE0546C8
:103D6000306880037FF55EAEFEF7EAFE401B6428F4
:103D70004FF00300F4D940E720F480303060306821
:103D800020F480203060FEF7DBFE054630688003BB
:103D90003FF548AEFEF7D4FE401B6428F6D9032059
:103DA00002B0BDE8F08100BF206AB0F5803F05D1C8
:103DB0007168A26821F40031114371607168626A10
:103DC00021F4741111430843706001203866FEF736
:103DD000B7FE0446306880013FF565AFFEF7B0FEE0
:103DE000001B02284FF00300F4D906E7002804BFA7
:103DF00001207047B0B504460020A06294F851102D
:103E000029B984F85000204600F032F80020022141
:103E100084F85110D4E9001ED4E9023C0A6822F06B
:103E200040020A6043EA0E02236942EA0C0242EAB7
:103E3000030CD4E90532E5694CEA030C02F4007E78
:103E40004CEA0E0343EA050C256AA36A45EA0C0511
:103E50002B430B60042303EA12424A60CA6922F42E
:103E60000062CA610121606584F85110B0BD000094
:103E700070B586B0044640F60000C4F20100216827
:103E800000F52052002691420596CDE90366029680
:103E900002D006B070BD00BF41F21801C4F20201A9
:103EA0000A6842F480520A600A6802F48052019261
:103EB000019A0A6842F004020A60096801F00401EC
:103EC00001910199A0210291022103910321059101
:103ED00002A9FEF71FFD40F6B8353020C2F20005FA
:103EE000C4F202001021802285E8430005F10C0095
:103EF0004FF480734FF4806C80E80C102846C5E9BD
:103F00000666FEF735FB002818BFFDF7D3FCA56455
:103F10006C6206B070BD00002DE9F04381B004462C
:103F200090F85000012803D1022001B0BDE8F083D1
:103F30004FF001081D460F46164684F85080FEF7E4
:103F4000FFFD94F85110012942D18146002F4FF016
:103F5000010018BF002E00F0FB800320002284F82F
:103F6000510062652763A686E686A263A287E28780
:103F7000A0683146B0F5004F20682264626403D126
:103F8000026842F4804202600268520603D402686A
:103F900042F04002026062680139E368B2FA82F2DC
:103FA000B1FA81F152094909B3F5006F41EA020102
:103FB0003CD131B137F8021BC1602763E08E013874
:103FC000E086E08E00286BD0681C0ED11DE000BF9B
:103FD0000220BDE0216B31F8022BC2602163E08E2C
:103FE0000138E086E08E00285AD020688168890771
:103FF000F0D4FEF7A5FDA0EB0900A842F2D338E00B
:10400000FEF79EFDE08E00284AD02068816889076F
:10401000F6D5216B31F8022BC2602163E08E0138A6
:10402000E086E08E0028F0D13AE000BF39B139785F
:104030000173206B01302063E08E0138E086E08E52
:1040400070B3681C0BD11BE0216B09780173206BE6
:1040500001302063E08E0138E086E08E00B32068F6
:1040600081688907F0D4FEF76BFDA0EB0900A84238
:10407000F3D303206CE000BFFEF762FDE08E78B161
:10408000206881688907F7D5216B09780173206B57
:1040900001302063E08E0138E086E08E0028EFD109
:1040A00020688168090646D5691C0ED0FEF748FDD8
:1040B000A0EB09012068A94212D281680906F5D453
:1040C00039E000BF8168090635D58168090632D517
:1040D0008168090644BF81685FEA01612BD5F1E779
:1040E000416821F0E00141606168B1F5827F0AD149
:1040F000A168B1F5004F02D0B1F5806F03D101681E
:1041000021F040010160A16AB1F5005F07D10168AB
:1041100021F400510160016841F400510160012166
:1041200084F85110002184F85010616D41F0200195
:10413000616520216165A16831B900210091C168E4
:104140000091806800900098606D002818BF0120E1
:10415000002184F8518084F8501001B0BDE8F0834C
:10416000411E0020B0EB116F1CBF012070474EF2C2
:104170001002CEF2000251604EF62351CEF2000141
:10418000F0230B70072190601160704770470000AA
:104190007047000090F83C20012A04BF02207047BD
:1041A000B0B501F108053CCDD1E900CE23F47C5334
:1041B00022F470521A432EF4F0431A432CF4E043D5
:1041C0001A4324F4C0431A432A43C96922F48042A3
:1041D000036811435964002180F83C100020B0BDF1
:1041E00090F83C20012A4FF0020219D080B580F8E7
:1041F0003D2002685368D2F808C091E8024023F0DD
:10420000700319432CF0800343EA0E03516093605E
:104210000121002280F83D1080F83C20BDE880405C
:1042200010467047006801F01F010422036A02FA79
:1042300001F123EA01020262026A11430162416C48
:1042400041F400414164816801F00701062903D06F
:10425000016841F00101016000207047006801F031
:104260001F010422036A02FA01F123EA010101623B
:10427000016A0162026A41F211110A4204D1026A22
:1042800040F244431A4205D0026A0A4209D0002093
:10429000704700BF426C22F400424264026A0A4244
:1042A000F5D1016A40F244421142F0D1016821F097
:1042B0000101016000207047002804BF0120704701
:1042C00010B590F83D1031B9002180F83C1004463B
:1042D00000F056F82046022180F83D10016840F2B7
:1042E000FF740B68C4F2000442F6004CA142C4F211
:1042F000010C15DCB1F1804F1AD040F20042C4F23B
:104300000002914214D0A14218DCB1F1804F1DD0BF
:1043100040F20042C4F20002914217D01AE000BFFE
:10432000614505D040F60002C4F200029142EAD194
:10433000826823F070031343A142E6DD614505D096
:1043400040F60002C4F20002914203D1026923F454
:1043500040731343846923F08002D0F804E0C368FB
:10436000224361450A60CB62C1F828E002D142696C
:10437000CCF8302001224A6180F83D20002010BD99
:1043800080B582B0006840F20041C4F2000188426A
:1043900014D042F60041C4F2010188420CD141F22E
:1043A0001800C4F20200016841F400610160006875
:1043B00000F400600190019802B080BD41F2180045
:1043C000C4F202004168002241F0020141604068ED
:1043D000002100F00200009000981D20FEF730FC44
:1043E0001D2002B0BDE88040FEF718BC0068C1681F
:1043F00041F00101C160816801F00701062903D085
:10440000016841F0010101600020704790F83C20F4
:10441000012A4FF0020248D080B580F83D20D0F844
:1044200000C04FF67772DCF8083023EA0202CCF8BD
:1044300008200B683F2B1DDD5F2B39DD602B5BD027
:10444000B3F5005F00F09880702B26D1D1E901E32D
:10445000C968DCF8082043EA0E0322F47F4243EAED
:1044600001211143CCF80810DCF8081041F0770165
:1044700011E000BF1F2B03DC33B1102B04D00CE084
:10448000202B01D0302B08D1DCF8081021F070016E
:10449000194341F00701CCF808100121002280F8EF
:1044A0003D1080F83C20BDE880401046704700BFBA
:1044B000402B41D0502BF0D1D1F804E0C968DCF892
:1044C0002030DCF8202022F00102CCF82020DCF89B
:1044D000182022F0F00242EA011123F00A0242EA17
:1044E0000E02CCF81810CCF82020DCF8081041F0AF
:1044F000570121F02001CEE7D1F804E0C968DCF8CB
:10450000203023F01003CCF82030DCF81830DCF831
:10451000202023F4704322F0A00243EA013142EA52
:104520000E12CCF81810CCF82020DCF8081041F05E
:10453000670121F01001AEE7D1F804E0C968DCF8AA
:104540002030DCF8202022F00102CCF82020DCF81A
:10455000182022F0F00242EA011123F00A0242EA96
:104560000E02CCF81810CCF82020DCF8081041F02E
:10457000470121F030018EE7D1E901E3C968DCF899
:10458000082043EA0E0322F47F4243EA012111434B
:10459000CCF80810DCF8081041F480417BE70000FB
:1045A000002804BF012070472DE9F04F81B090F83A
:1045B0003D2042B9002280F83C2004460D4600F020
:1045C0008BF829462046022280F83D20026844F2FA
:1045D0000705936842F6004CAB43936040F2FF73CB
:1045E0001468C4F200039A42C4F2010C14DCB2F164
:1045F000804F19D040F20045C4F20005AA4213D002
:104600009A4217DCB2F1804F1CD040F20043C4F252
:1046100000039A4216D01AE0624505D040F6000524
:10462000C4F20005AA42EBD1856824F070042C4343
:104630009A42E7DD624505D040F60003C4F200036C
:104640009A4204D1036924F4407543EA050424F036
:1046500080038469D0F804E0C56823436245136091
:10466000D562C2F828E002D14369CCF830304FF06F
:10467000010CC2F814C095689469D2F820E0D1E921
:104680000038D1E9027B43EA050A8D694FF6FF79CC
:1046900024EA090447EA05254FF6FC47BD43D1E962
:1046A000077644EA0B040B692C4344EA07242EF0F6
:1046B0002207496944EA031347EA080743EA063335
:1046C00047EA0111C2F808A09361116280F83DC069
:1046D000002001B0BDE8F08F70B586B000680026FC
:1046E000B0F1804FCDE904660396029602D006B081
:1046F00070BD00BF41F21800C4F20200416840F6EC
:10470000000441F0010141604168C4F2010401F07C
:10471000010101910199016802AD41F004010160BC
:10472000016801F0040101910199016841F008015B
:1047300001600068294600F00800019001984FF4DC
:104740000040CDE9020620460496FEF7E3F8082073
:10475000CDE9020604F5806029460496FEF7DAF8F2
:104760000420C4F2010001684FF6FF42CFF6FF02B9
:10477000114041F0E06141F48071016006B070BD0C
:1047800002680429106A0BD020F0010011B9012140
:1047900009E000BF1062106A40F001001062106A68
:1047A00020F0100010211062106A08431062106897
:1047B00040F00101002011607047000070470000C8
:1047C00010B5016804460869800744BFC8685FEAFD
:1047D000807039D40869400744BFC8685FEA4070F8
:1047E0003ED40869000744BFC8685FEA007045D43A
:1047F0000869C00644BFC8685FEAC0604AD4086957
:10480000C0071CBFC8685FEAC07051D108690006C4
:1048100044BFC8685FEA006052D40869400644BFDC
:10482000C8685FEA406053D40869800646BFC8681C
:104830005FEA806010BD6FF0200220460A61BDE88B
:104840001040FFF7A5BC00BF6FF002000861012017
:1048500020778869800743D02046FFF7AFFF45E007
:104860006FF00400086102202077886910F4407F0F
:1048700040D02046FFF7A2FF42E000BF6FF00800E3
:10488000086104202077C86980073DD02046FFF7E3
:1048900095FF3FE06FF01000086108202077C8699D
:1048A00010F4407F3AD02046FFF788FF3CE000BF7D
:1048B0006FF001000861204600F04AFA2168A5E780
:1048C0006FF0800008612046FFF760FC2168A4E7D4
:1048D0006FF040000861204600F0F6FA2168A3E777
:1048E000204600F067F8204600F0CCF9216800204F
:1048F00020776FE7204600F05DF8204600F0C2F90F
:104900002168002020776CE7204600F053F820460D
:1049100000F0B8F921680020207769E7204600F010
:1049200049F8204600F0AEF921680020207766E7BC
:1049300070B586B040F60004C4F20104006804F5C6
:10494000105188424FF00000CDE90400CDE902008B
:1049500002D006B070BD00BF41F21800C4F20200E0
:10496000016802AD41F0080101600168022601F012
:10497000080101910199016841F00401016000689A
:10498000294600F00400019001984FF46040029025
:1049900004F5806003960596FDF7BCFF4FF4407068
:1049A000CDE90206204629460596FDF7B3FF06B07D
:1049B00070BD00007047000090F83C30012B4FF0B4
:1049C000020300F0F6804FEAB202032A80F83D307D
:1049D00000F2E9802DE9F043DFE802F002A43A7426
:1049E000036842F600461A6AC4F2010622F0010288
:1049F0001A621D6A1A465C6852F818CFB3428E6874
:104A0000D1F800E025F0020545EA06050CD1CE6894
:104A1000D1E9057824F4407425F00C0526F004064D
:104A20003C43354344EA08042CF0730747EA0E0779
:104A30005C609F614F6809695F631D629F6947F011
:104A400008079F619F6927F004079F61A6E000BFE8
:104A5000036842F600461A6AC4F2010622F4807224
:104A60001A621D6A1A46D3F804C052F81CEFB3420A
:104A70008E680C6825F4007545EA06250FD1CE68CE
:104A8000D1E90598360240F2FF4725F44065BE4360
:104A900035432CF4405748EA090647EA061C2EF035
:104AA00073072743C3F804C0DF614F680969DF63F8
:104AB0001D62DF6947F00807DF61DF6927F004073F
:104AC000DF616BE0036842F600471A6AC4F201072F
:104AD00022F480521A621A46D3F820C05D6852F858
:104AE0001C4FD1F800E08E68BB4204D14F6925F419
:104AF000804545EA87152CF4005747EA063724F429
:104B0000E64646EA0E265D60DE614E6809691E646F
:104B10001F62DF6947F40067DF61DF6927F48067A0
:104B2000DF613AE0036842F600461A6AC4F2010601
:104B300022F010021A621D6A1A46D3F804C052F815
:104B4000184FB3428E68D1F800E025F0200545EA01
:104B500006150FD1CE68D1E905986FF0400725F012
:104B6000C00507EA061635432CF4406748EA0906F3
:104B700047EA860C24F4E64444EA0E27C3F804C04E
:104B80009F614F6809699F631D629F6947F40067D1
:104B90009F619F6927F480679F6109021368194329
:104BA0001160BDE8F0430121002380F83D1080F83A
:104BB0003C30184670470000002804BF01207047B1
:104BC00010B590F83D1031B9002180F83C10044632
:104BD00000F056F82046022180F83D10016840F2AE
:104BE000FF740B68C4F2000442F6004CA142C4F208
:104BF000010C15DCB1F1804F1AD040F20042C4F232
:104C00000002914214D0A14218DCB1F1804F1DD0B6
:104C100040F20042C4F20002914217D01AE000BFF5
:104C2000614505D040F60002C4F200029142EAD18B
:104C3000826823F070031343A142E6DD614505D08D
:104C400040F60002C4F20002914203D1026923F44B
:104C500040731343846923F08002D0F804E0C368F2
:104C6000224361450A60CB62C1F828E002D1426963
:104C7000CCF8302001224A6180F83D20002010BD90
:104C80007047000070470000006801F01F0101221A
:104C9000036A8A4023EA02010162036A42F6444140
:104CA000C4F201011A43A1F144039842026207D001
:104CB000816801F0070106290BD10020704700BF71
:104CC0000A6842F400420A60816801F0070106297F
:104CD000F3D0016841F0010101600020704700003D
:104CE0000246006801F01F0101238B40016A42F671
:104CF000004C99430162C4F2010C016A60450162F3
:104D00000ED1DCF8201041F21113194208D1016ACA
:104D100040F24443194203D1416C21F40041416403
:104D2000016A41F21113194204D00121002082F8D6
:104D30003D107047016A40F244431942F5D10168C1
:104D400021F0010101600121002082F83D1070472F
:104D50002DE9F04F81B040F22C24C2F20004E0892A
:104D6000FBF70CFB43F23336C4F253063146FBF734
:104D700054FA4FF20007C4F27F573946FBF77FFA27
:104D80000025C4F230152946FBF747FA21898246EF
:104D90000846FBF7F3FA3146FBF73FFA3946FBF7D3
:104DA0006EFA2946FBF739FA618980460846FBF717
:104DB000E5FA3146FBF731FA3946FBF760FA002194
:104DC000C4F24831FBF75BFA41F26F21C3F60331BD
:104DD000FBF755FA00210646FBF79DFA4CF6CD4944
:104DE000C3F6CC59002840F238055046494618BF52
:104DF0000026C2F20005FBF710FA46F2666B074682
:104E000095E81104C3F6667B5946FBF706FA394666
:104E1000FBF7ABF9286040464946FBF7FEF9074629
:104E200020465946FBF7F9F93946FBF79EF96860C9
:104E300030464946FBF7F1F9044650465946FBF720
:104E4000ECF92146FBF791F9297EA860D1B100F079
:104E50007FF868694CF6CD41AC68CBF64C51FBF756
:104E600084F901462046FBF756FA0028287E4FF0C9
:104E7000020118BF0121002869761CBF01B0BDE8FE
:104E8000F08F01E00020687642F63440C4F2010061
:104E900000210160382040F6C064C4F20000C2F274
:104EA000000401602046FFF71BFF20460021FFF7AA
:104EB000D5F920460421FFF713FF2046042101B055
:104EC000BDE8F04FFFF7CAB970470000FEE70000E9
:104ED00080B540F6B00040F20C01C2F20000C2F210
:104EE0000001002201F03AF8002818BFFCF7E2FCAC
:104EF00040F6B00040F27401C2F20000C2F20001BC
:104F000001F05EFA002818BFFCF7D4FC40F6B000B0
:104F100040F29811C2F20000C2F2000100F0CAFD96
:104F2000002818BFFCF7C6FC40F6B000C2F2000033
:104F300001F05CFA002808BF80BDBDE88040FCF7A6
:104F4000B9BC0000FEE70000704700007047000099
:104F50002DE9F04F87B040F23808C2F2000898F807
:104F6000180042F63447C4F2010798B340F6C06413
:104F7000C2F20004204600210025FFF785FE2046EE
:104F80000021FFF74FF920460421FFF77DFE204660
:104F90000421FFF747F9D8F800604FF08041304610
:104FA000FBF7C7F910BB40F22C20C2F20000C0E9A9
:104FB0000A5505634FF44070A8F81800382040F6F1
:104FC000C064C4F20000C2F200043D6005602046E7
:104FD000002137E040F22C20C2F200000021C0E99D
:104FE0000A11016388F8191022E000BFD8F80C00FC
:104FF0000021C4F2A021FBF780F968B1D8F8145061
:10500000D8F8089028464FF07E51FBF7AEF80146DD
:105010004846FBF772F938BB40F22C20C2F2000080
:105020000021C0E90A1101634FF44070A8F818008C
:10503000382040F6C064C4F20000C2F200043960B7
:1050400001602046FFF74CFE20460021FFF706F9DD
:1050500020460421FFF744FE2046042107B0BDE8A6
:10506000F04FFFF7FBB800BF98F8180040F22C2A69
:10507000C2F2000AC0B1DAF82840D8F81070204611
:105080003946FBF756F918BB41F26F21C3F60341CD
:105090002046FBF76AF839460446FBF72EF900284C
:1050A00008BF3C4615E000BF002430464FF07C515D
:1050B0004FF07C52CAF828400692FBF72CF90028E2
:1050C0003FD14CF6CD40C3F6CC500024069038E0DA
:1050D0003C4630464FF07C514FF07C52CAF8284095
:1050E0000692FBF718F960BB20464FF07C51FBF7A6
:1050F00012F900284CF6CD40C3F6CC50069020D1D2
:1051000030462146FBF731F801462046FBF7B7F859
:1051100046F26661C3F666710646FBF718F94CF66F
:10512000CD47C3F6CC5700281CBF46F26666C3F6CF
:10513000667630463946FBF70AF9002818BF37462D
:105140000697D8F804102046FBF761F883462846F6
:105150004946FBF75CF84CF6CD41DAE90B4681464F
:10516000C3F64C715846CDF808B0FBF756F841F23B
:105170006F25C3F683252946FBF74FF82146059492
:10518000FAF7F3FF49F69A118246C3F69971484639
:10519000FBF743F82946FBF740F831460196FAF74A
:1051A000E4FF49F69A17C3F6996704465046394614
:1051B000FBF7CDF849F69A16CBF6996600281CBF86
:1051C00049F69A1AC3F6996A50463146FBF7BFF87A
:1051D00000282046394608BFB246FBF7B8F8002839
:1051E0001CBF49F69A14C3F6996420463146FBF772
:1051F000AEF84CF28F210028C3F67541584608BF1F
:105200003446FBF70AF8069D2946FAF7AEFF5146E9
:105210000390FAF7AAFF4CF6CD418346C3F6CC4182
:105220004846CDF81090FAF7F8FF2946FAF79DFFA7
:10523000214600900694FAF798FF4CF6CD410746B8
:10524000C3F6CC515846FBF766F846F266618146D4
:105250000028C3F66671584618BF4FF00109FBF7E6
:1052600076F80646002818BF0126029C0021204639
:10527000FBF76DF80546002820464FF0000118BFE7
:105280000125FBF748F8002818BF01202E420AD15B
:1052900040F22C2B10EA0900C2F2000B04BFCBF83D
:1052A0002CA0CDF814A046F26661C3F666713846AC
:1052B000FBF74DF84CF6CD49C3F6CC59064600280D
:1052C0003846494618BF0126FBF725F80446002852
:1052D00018BF0124DDF810B000215846FBF737F85D
:1052E0000546002858464FF0000118BF0125FBF77E
:1052F00012F8002818BF01202E4208BF10EA04004F
:105300000AD0DDE90001FAF730FF40F22C2407460D
:10531000C2F2000406E000BF40F22C240698C2F25C
:105320000004206303980599FAF71FFF46F26665AB
:10533000C3F6667529460646FBF709F800281CBF28
:1053400046F26666C3F6667630464946FAF7FFFFD0
:1053500000283846294608BF4E46FAF7F8FF0028CD
:105360001CBF46F26667C3F6667738464946FAF7C9
:10537000EEFF002808BF4F4638463146FAF7CBFF0C
:1053800000284FF0010008BF374618BF022088F8F8
:10539000190038464946FAF7BEFF00281CBF4CF6F4
:1053A000CD47C3F6CC5738462946FAF7D0FF4CF222
:1053B000000100281CBF46F26667C3F66677C4F298
:1053C00079413846FAF729FFFAF7F6FF40F2E7315C
:1053D00042F634422082091A80B2C4F2010261828C
:1053E000106088B2506007B0BDE8F08F2DE9F0473B
:1053F00082B00478002C3DD040F6004940F6686A3F
:10540000C4F20109451CC2F2000A0DF1070802E0CE
:10541000013C20062ED015F8020B01218DF8070063
:1054200048460022FDF786FB5046414601224FF0D8
:10543000FF33FEF771FD15F8016C16F07F070CD0F5
:10544000484601210122FDF775FB504629463A46A0
:105450004FF0FF33FEF760FD3D4470B2B0F1FF3F07
:10546000D6DC15F8010BFF2808BF4FF4FA70FDF7E2
:1054700009F9CDE702B0BDE8F08700002DE9F0435F
:1054800081B0994641EA00037F2B4FD8904640F601
:1054900000460244C4F20106802A09EB0102089D7D
:1054A00088BFC0F18008802A88BFC1F18009044606
:1054B00030460F464FF480610022FDF73BFB08EBBE
:1054C000040009EB070101380139C2B2CBB2E0B2E6
:1054D000F9B200F06FF868BA5FEA0941ADF802006E
:1054E00018BF5FEA08401BD040F66867C2F20007A9
:1054F0000DF10205444600BF304601210122FDF7AF
:1055000019FB3846294602224FF0FF33FEF704FD0F
:10551000013C2004F0D1A9F101095FEA0940E9D179
:1055200030464FF480610122FDF704FB01B0BDE875
:10553000F083000080B582B08446002000218022E4
:105540008023CDF800C0FFF799FF02B080BD0000B6
:1055500010B540F60044C4F2010420464FF48061C7
:105560000022FDF7E7FA204602210022FDF7E2FAC9
:105570000520FDF787F8204602210122FDF7DAFA1F
:1055800049F6B430C0F60000FFF730FF49F6EF30BF
:10559000C0F60000FFF72AFF49F6FC30C0F6000015
:1055A000FFF724FF20464FF480610122BDE8104040
:1055B000FDF7C0BA2DE9F04782B040F6004A074631
:1055C0002A20C4F2010A164689468DF80500504685
:1055D0000121002298460024FDF7ACFA40F66865E8
:1055E000C2F200050DF10501284601224FF0FF33FC
:1055F000FEF792FCF81C8DF80200F01C8DF80400F8
:105600005046012101228DF801408DF80340FDF73D
:1056100091FA0DF101062846314604224FF0FF337E
:10562000FEF77AFC2B208DF806005046012100225F
:10563000FDF780FA0DF10601284601224FF0FF33F5
:10564000FEF76AFC09F102008DF8020008F1020081
:105650008DF80400504601210122FDF76BFA28461F
:10566000314604224FF0FF33FEF756FC2C208DF814
:105670000700504601210022FDF75CFA0DF10701F9
:10568000284601224FF0FF33FEF746FC02B0BDE88A
:10569000F08700002DE9F04F89B0074640F6004042
:1056A00015468A46C4F201004FF4806100221C4670
:1056B000FDF740FA2B78002B00F0D080C4F30720D0
:1056C0002A4600285FFA84F9079000F08580B9F136
:1056D000000F4FEA1420029000F09E80DDE91310C5
:1056E00040F668654FEA11284FEA102BC2F2000518
:1056F0000DF1220601940AE0049FDDF814A0019C3C
:10570000039A4F4412F8013F002B00F0A780B8B273
:1057100048447F280CD907998A441FFA8AF001442B
:105720007F2900F29B80202B4FF00007EAD001E098
:105730001FFA8AF00392029AE119104401390138E4
:10574000CAB21C46C3B2F8B25FFA8AF10497CDF828
:1057500014A0FFF72FFF0799A4F1200048431299E6
:10576000002701EB4000069004E000BF07980137D6
:105770008742C1D006984FF0000A30F8174017E072
:10578000149801218DF8210040F60040C4F2010078
:1057900001228DF820B0FDF7CDF9284608A9022294
:1057A0004FF0FF33FEF7B8FB0AF1010AD145DDD017
:1057B00004FA0AF00004E3D5139801218DF82300C0
:1057C00040F60040C4F2010001228DF82280FDF76E
:1057D000B1F928463146E2E7AAF10100561CC5B2EC
:1057E0000DE000BFE0190138C2B2F8B25FFA8AF1E9
:1057F0002B46FFF7DFFE4F4416F8013B73B3B8B2F8
:1058000048448028EED3BAF17F0F27D8202B4FF0E1
:105810000007E7D1F0E700BF551C0FE01FFA8AF040
:1058200002997A1E08440138C3B2F8B25FFA8AF1CD
:10583000D2B2FFF7BFFE15F8013B7BB1B8B27F28AB
:10584000ECD907998A441FFA8AF001447F2905D8C8
:10585000202B4FF00007E3D1EDE700BF40F60040FA
:10586000C4F201004FF480610122FDF763F909B031
:10587000BDE8F08F70470000FDF768B941F2000005
:10588000C4F202000168002241F001010160416898
:10589000CFF6FF021140416001684FF6FF72CFF66C
:1058A000F66211400160016821F4802101604168C5
:1058B00021F4FE0141604FF41F0181604EF6085053
:1058C000CEF200004FF000610160704740F60070BA
:1058D000C2F20000FEF774BF10B5D0F8B8E2BEF116
:1058E000000F15D001EB810300EB830C5CF81C3F2B
:1058F0004BB1D0F8C02202EB4112926BB3FBF2F431
:1059000004FB123232B10020CEF8140210BD00BFE9
:10591000022010BD00220023CCF8002000F032FD50
:10592000002010BDB0B5D0F8B852044600F0F6FB28
:10593000D4F8B812C5F80C0251B1D4F8BC0205F580
:105940000371C268D5F8040290470020B0BD00BFC3
:105950000220B0BDB0B58121044600F029FB00252E
:1059600020460121E56200F023FB20468221C4F895
:105970006C5100F01DFBD4F8B802256448B1D4F88E
:10598000BC0240688047D4F8B80200F079FFC4F840
:10599000B8520020B0BD0000D0F8BC1281B110B5E3
:1059A000D0F8B84294F80002FF2807D08B6894F82A
:1059B000012221469847FF2084F80002BDE81040EC
:1059C00000207047014640F234100A22C2F2000063
:1059D0000A807047014640F2AC004322C2F2000048
:1059E0000A807047014640F2F0004322C2F20000F4
:1059F0000A807047014640F240104322C2F2000084
:105A00000A807047F0B581B00546007C4027002829
:105A100008BF4FF400772846812102223B464024EC
:105A200000F0D6FB01262846012102223B46EE6209
:105A300000F0CEFB2846822103220823C5F86C61C2
:105A400000F0C6FB4FF407702E6400F01BFFC5F892
:105A5000B802A8B10746D5F8BC0200688047002606
:105A6000C7F81462C7F81862287CD7F80422002807
:105A700008BF4FF4007428460121234600F0BCFB08
:105A8000304601B0F0BD0000D0F8B812002904BFC4
:105A90000220704780B590F810C0D1F8042240234E
:105AA0000121BCF1000F08BF4FF4007300F0A4FB0C
:105AB000002080BD00290EBF0220C0F8BC120020CB
:105AC00070470000D0F8B8220020C2F804127047D6
:105AD000D0F8B8320020C3F80812C3F8102270477B
