:020000040800F2
:100000001815002001010008354E0008B94D000800
:10001000314E0008A5110008C58800080000000046
:10002000000000000000000000000000B9580008B7
:100030001112000800000000394E00085D5C000845
:100040001B0100081B0100081B0100081B01000820
:100050001B0100081B0100081B0100081B01000810
:100060001B0100081B0100081B010008F911000812
:100070001B010008051200081B0100081B010008F5
:100080001B0100081B010008890500081B0100086E
:10009000157A00081B0100081B0100081B0100085D
:1000A0001B0100081B0100081B0100081B010008C0
:1000B0001B010008B15C0008BD5C00081B010008C2
:1000C0001B0100081B0100081B0100081B010008A0
:1000D0001B0100081B0100081B0100081B01000890
:1000E0001B0100081B0100081B010008DFF80CD0F1
:1000F00000F0E8F900480047218D0008181500209D
:100100000648804706480047FEE7FEE7FEE7FEE7B1
:10011000FEE7FEE7FEE7FEE7FEE7FEE7615C0008BC
:10012000ED00000810B5044604E00B7800F8013B30
:1001300003B1491C521EF8D2204610BD421C10F8D3
:10014000011B0029FBD1801A704710B5002200E086
:10015000521C835C8C5CA34201D1002BF8D1D8B235
:10016000E1B2401A10BDF0B480EA0102D40F42009F
:10017000B2EB410F02D20246084611464A0042D075
:10018000C30DDDB2C1F3C752AD1A202D35DAC1F36C
:10019000160141F4000204B15242C5F1200602FAF0
:1001A00006F12A411044B3EBD05F23D0C4B1012D36
:1001B000A0EBC35009DCF0BC4FF0004202EAC3528E
:1001C000DBB200F5000000F043B9400000F18070A0
:1001D00000EBC350A0F1807040EAD170490009E003
:1001E000490841EAC071A0EBC35000F50000400887
:1001F00000EBC350F0BC00F022B96142012202EBD7
:100200004101001BF6E7F0BC704781F00041AAE70E
:1002100080F00040A7E780EA010210B502F0004339
:10022000400022D04A001FD0010E01EB1261C0F342
:100230005600C2F3560240F4000042F40002A0FB54
:10024000022000047F39140400D0401C50EA124000
:1002500001D44000491EC2B20C0604EBD010401C71
:100260004008802A02D003E0002010BD20F00100E9
:10027000002900DA0020184310BD30B480EA0102E2
:1002800002F0004530F0004221F0004013D090B160
:10029000C30DD40DC2F31601C0F31600E41A41F4E5
:1002A000000140F400027D34914201D3641C00E05F
:1002B0004900002C02DA30BC002070474FF40000E7
:1002C0000023914201D3891A034340084FEA4101B8
:1002D000F7D151B1914202D14FF0004105E002D275
:1002E0004FF0010101E06FF0010103EBC45028441D
:1002F00030BC00F0A4B8002801DBC0F100400029A8
:1003000001DBC1F10041814201D80120704700208A
:100310007047002801DBC0F10040002901DBC1F17A
:100320000041814201D2012070470020704700281F
:1003300001DBC0F10040002901DBC1F10041814235
:1003400001D30120704700207047002801DBC0F175
:100350000040002901DBC1F10041814201D90120A7
:10036000704700207047C10F80EAE0700844CA0758
:100370009623002100F06CB896230022114600F06D
:1003800067B800F0004220F00040C10DC0F3160035
:1003900040F400007F2901DA00207047962903DC31
:1003A000C1F19601C84001E096398840002AF4D096
:1003B0004042704720F00040C10DC0F3160040F4E9
:1003C00000007F2901DA00207047962903DCC1F183
:1003D0009601C84070479639884070472DE9F05F14
:1003E0000546002092469B468846064681464024A4
:1003F0001BE0284641464746224600F08AF853460D
:100400005A46C01A914110D311461846224600F0B0
:1004100071F82D1A67EB01084F4622460120002192
:1004200000F068F817EB00094E41201EA4F101040A
:10043000DFDC484631462A464346BDE8F09F0029A6
:10044000A8BF7047401C490008BF20F0010070475A
:1004500010B4B0FA80FC00FA0CF050EA010404BFBA
:1004600010BC704749B1CCF1200421FA04F411FA10
:100470000CF118BF012121430843A3EB0C01CB1D54
:100480004FEA00614FEA102042BF002010BC7047C5
:1004900000EBC35010440029A4BF10BC7047401C9F
:1004A000490008BF20F0010010BC7047420005D091
:1004B000C0F3C7525242914201DC0020704700EB6A
:1004C000C15070471CB50948009009480190054685
:1004D000009C06E0E06840F0010394E807009847BC
:1004E0001034AC42F6D3FFF705FE000078C10008D7
:1004F00098C10008202A04DB203A00FA02F100200B
:1005000070479140C2F1200320FA03F31943904051
:100510007047202A04DB203A21FA02F000217047BC
:1005200021FA02F3D040C2F120029140084319465B
:10053000704770B58C1810F8015B15F0070301D1F6
:1005400010F8013B2A1106D110F8012B03E010F836
:10055000016B01F8016B5B1EF9D12B0705D4002359
:10056000521E0DD401F8013BFAE710F8013BCB1AFB
:10057000921C03E013F8015B01F8015B521EF9D5F0
:10058000A142D8D3002070BD80B540F23830C2F20D
:10059000000001F021FA40F26830C2F20000BDE82C
:1005A000804001F019BA0000B0B5044600688168C7
:1005B000C90701D10020B0BD816821F0010181602F
:1005C00002F0FCF9054600BF20688068C007F1D042
:1005D00002F0F4F9401B0328F6D3A06A40F01000A3
:1005E000A062E06A40F00100E0620120B0BD0000BE
:1005F0000146406A826A12F0500F03D0006A026B13
:10060000084610470168826A42F400728262896873
:1006100001F46021B1F5602F01D1017B11B101F02E
:1006200053B900BF816A21F480718162816AC90473
:1006300048BF01F049B9816A41F00101816201F0CE
:1006400043B90000406A816A41F040018162C16A99
:1006500041F00401C16201F0B9B90000406A01F043
:10066000B3B90000B0B582B0044600200190216803
:100670008A68D2073FD1886840F00100886040F264
:10068000A400C2F2000000684DF68361C4F21B3181
:10069000A0FB0101880C01900198A0B101980138DC
:1006A0000190019878B1019801380190019850B1FA
:1006B000019801380190019828B101980138019002
:1006C00001980028EAD102F079F90546206880688F
:1006D000C00713D102F072F9401B0328F6D3A06AB9
:1006E00040F01000A062E06A40F00100E0620020EB
:1006F00084F82400012002B0B0BD00BF002002B089
:10070000B0BD00002DE9F04381B040F298380C46AE
:10071000C2F200080028C8F81000C8F8181043D02A
:100720000769054638460021FFF7E5FD28B96E69DF
:1007300000213046FFF709FE20B90027C4F2401718
:100740004FF080460021C4F2F0113846FFF7FDFD5E
:1007500000281CBF0027C4F2F01738464FF07E5126
:100760004FF07E59FFF7F1FD00210028C4F220115F
:10077000304608BF4F462F61FFF7E7FD4CF6CD47E7
:10078000C3F6CC5700281CBF0026C4F22016304602
:100790003946FFF7DAFD002808BF3E466E610026A5
:1007A0002E8300F029F82E834CB120463C2103F023
:1007B00025FFD8F818000068406AA8F80C0004F07B
:1007C000EFFE40F600400024C4F201004FF4004167
:1007D0000122A8F8014002F0EBF888F8034088F8FD
:1007E000004000F017FD05F0E5FA012001B0BDE87A
:1007F000F04307F07DB900002DE9F04740F298384A
:10080000C2F20008D8F81070002F00F0AA804FF64E
:100810000040C0F60000016842F22602CBF6BA2280
:10082000914240F09E804168022940F09A80D0E9D0
:1008300002654BF6A761C0F6FF6145F6B922314467
:10084000CFF6C642514005EB811247F6B91302EBD1
:100850009102C9F63763D0E904491A44514004EBC8
:10086000811202EB91021A44514009EB811202EB12
:1008700091021A4480695140814218BFBDE8F08757
:100880000021C4F2F0113046FFF75FFD00281CBFC5
:100890000026C4F2F01630464FF07E514FF07E5ADB
:1008A000FFF753FD00210028C4F22011284608BF9D
:1008B00056463E61FFF749FD4CF6CD46C3F6CC5691
:1008C00000281CBF0025C4F2201528463146FFF73A
:1008D0003CFD00210028C4F2FA31204608BF35460D
:1008E0007D61FFF732FD0025C4F2A01500281CBF72
:1008F0000024C4F2FA3420462946FFF726FD0028DA
:10090000A9F10100B0FA80F04FEA501040F27842AD
:1009100008BF2C4687F824000020C2F200023C6287
:10092000388340F20841107082F8200082F84000BD
:1009300040F2D842C2F20001C2F2000281F8500037
:10094000107082F8200088F860000870087481F840
:10095000200081F8300088F8500081F8400088F8C5
:100960000000BDE8F08700002DE9F04F85B040F2AF
:100970009839C2F20009D9F81000002800F0A580CB
:10098000D0E90447066A90F824B04BF6A760C0F699
:10099000FF6045F6B9212044CFF6C641484007EB39
:1009A000801147F6B91201EB9001C9F63762114484
:1009B000484006EB801101EB9001114448400BEBDD
:1009C000801101EB9001114481EA000A01F0C8FE98
:1009D0004FF6004501204FF00008C0F600050490D6
:1009E00001A86946CDE90088039501F0ABFD01201F
:1009F000294642F22602002301F026FEA91C01200E
:100A00004BF6BA22002301F01FFE291D012002220D
:100A1000002301F019FEA91D01200022002301F08E
:100A200013FEA2B205F108010120002301F00CFE23
:100A3000220C05F10A010120002301F005FEBAB2E3
:100A400005F10C010120002301F0FEFD3A0C05F137
:100A50000E010120002301F0F7FDB2B205F11001F3
:100A60000120002301F0F0FD320C05F112010120FC
:100A7000002301F0E9FD05F1140101205A4600238D
:100A800001F0E2FD05F1160101200022002301F032
:100A9000DBFD1FFA8AF205F118010120002301F0A5
:100AA000D3FD4FEA1A4205F11A010120002301F09B
:100AB000CBFD01F0BFFD01F081FF00F54870C9F8E2
:100AC000140089F8508089F8008005B0BDE8F08FE7
:100AD0002DE9F04383B040F60049C4F2010901F06A
:100AE0006DFF80464846102101F05CFF064601F08C
:100AF00065FF40F29837C2F20007797986B1C9B331
:100B0000B879A0BB787802282ED1787AB0FA80F034
:100B1000400978720020F8700020387027E000BF8C
:100B2000D1B1B97931BBB96B401AB0F57A7F21D315
:100B3000787801210228B97150D1FFF715FFF879B3
:100B40000128787008BF05F001F90020F8703870AE
:100B5000386998B99DE100BF0121A7F80510B86375
:100B6000386958B995E100BF05F06EF940B300202F
:100B7000A7F805003869002800F08B8148464FF43B
:100B8000007101F00FFF06460546002818BF012638
:100B900001F014FF40F20404C2F20004A178B14253
:100BA0005BD0F96B411A232957D3002DF863A67047
:100BB00053D105F049F938B3002005F04BF94CE06A
:100BC000B97840F204000129C2F2000000F0B080C0
:100BD0000229A1D101300221ABE000BF05F034F9B8
:100BE000002818BF0120F87105F02EF9002818BF61
:100BF00005F0D8F800203881F8704FF40070388084
:100C000038690028BAD144E1B87840F27842013816
:100C100018BF01200021C2F20002B87040F2084063
:100C2000117082F8201082F8401040F2D842C2F2CF
:100C30000000C2F2000280F85010117082F82010FB
:100C400087F860100170017480F8201080F830106F
:100C500087F8501080F84010397048464FF4807182
:100C600001F0A0FE05460646002818BF012501F048
:100C7000A5FE2179A94237D0396C411A232933D3F3
:100C80003864257186BB05F0DFF818B1012005F046
:100C9000E1F829E0B87840F27842023818BF012024
:100CA00040000021C2F20002B87040F2084011700A
:100CB00082F8201082F8401040F2D842C2F20000C0
:100CC000C2F2000280F85010117082F8201087F8EC
:100CD00060100170017480F8201080F8301087F8DF
:100CE000501080F8401039704846802101F05AFEBB
:100CF00005460646002818BF012501F05FFEA179D0
:100D0000A94254D0796C411A232950D3002E78641B
:100D1000A5714CD105F098F820B1022005F09AF8A1
:100D200045E000BF3869017E61B10021017618E01D
:100D3000032102780132D3B28B4288BF00220270B5
:100D4000EAE600BF48464FF40041012201F030FEC0
:100D50003869017EB1FA81F252090029027600F069
:100D6000B5810021417640F278420021C2F20002B2
:100D700040F20840117082F8201082F8401040F2D2
:100D8000D842C2F20000C2F2000280F85010117086
:100D900082F8201087F860100170017480F820102C
:100DA00080F8301087F8501080F8401039704846AD
:100DB000402101F0F7FD05460646002818BF012531
:100DC00001F0FCFD217AA94263D0B96C411A2329B4
:100DD0005FD3002EB86425725BD17878022858D092
:100DE000012815D104F0DEFFE0683969BA7A08619C
:100DF00020690A764861002A18BF01224A764846CF
:100E00004FF40041012201F0D3FD00201BE000BFA0
:100E10003869D0E90412037EC4E9031200210022DC
:100E2000C4F2C011C4F2E002C0E9041240F20111A0
:100E3000018348464FF400410022BB7201F0B8FD27
:100E400004F084FF012040F278420021C2F2000247
:100E5000787040F20840117082F8201082F840103B
:100E600040F2D842C2F20000C2F2000280F85010F4
:100E7000117082F8201087F860100170017480F8FA
:100E8000201080F8301087F8501080F84010F9706A
:100E90003970B86900B30068406AB989B881411AED
:100EA000F86C09B208440428F86407DB0438F864D5
:100EB000012000F07FFAF86C0328F7DC10F1040F32
:100EC0000ADC00BF0430F8644FF0FF3000F072FA23
:100ED000F86C10F1030FF5DB386938B1017E19B1F8
:100EE000417E19B9012100E000214176787801287E
:100EF00016D002281CD1F87810B33878012805D113
:100F0000F869A8EB00003C28C0F098800120C7F8E1
:100F10001C80387003B0BDE8F04307F0C1BA00BFD1
:100F200004F092FF00287BD0F87880F001007CE08C
:100F300004F08AFF002800F0858004F033FF95E07C
:100F4000012040F27841F870387040F208400024E7
:100F5000C2F20001C2F200000C7081F8204081F85A
:100F6000404040F2D84180F85040C2F20001047085
:100F7000047480F8204080F8304080F84040002021
:100F8000C7F81C800C7081F8204087F8604087F813
:100F9000504004F0F7FA40F24C00C2F20000D0E9F1
:100FA000003040F2FF718DE813004BA21F20042196
:100FB0001F2504F091FB002019217F221F2307F039
:100FC0004BFD40F25C06C2F20006D6E900304FF657
:100FD000FF77CDE9000743A20C202821029404F0FA
:100FE0007BFBD6E9003043A2CDE900070C20572156
:100FF000029404F071FB002084217F221F2307F05C
:101000002BFDD6E900303EA2CDE9000505208F2159
:10101000029404F061FB03B0BDE8F04307F040BA6E
:1010200004F094FE0020F870012000F0010004F0AC
:1010300031FFF878002804BF0120F87003B0BDE844
:10104000F08300BFF87888B13878012804D1F869B6
:10105000A8EB00003C28F1D301210020C7F81C8038
:10106000397003B0BDE8F04306F042BD40F278426B
:1010700001200021C2F20002F870387040F20840EE
:10108000117082F8201082F8401040F2D842C2F26B
:101090000000C2F20002C7F81C8080F850101170E6
:1010A00082F8201087F860100170017480F8201019
:1010B00080F8301087F8501080F8401000F0AAF83F
:1010C000012003B0BDE8F04306F012BD417E0029C7
:1010D0007FF449AE012145E653455454494E4753E8
:1010E000000000004D415820494E50555420504FAB
:1010F000574552005354415254204D4F444500002F
:10110000484F4C443A455849542050524553533A5D
:101110004544495400000000B0B540F23834C2F2F2
:101120000004204600F0B2FA42F6344040F6CC7596
:10113000C4F201000021C2F20005016041602846AE
:1011400003F05AFD2846002102F0C6FF284604217C
:1011500003F052FD2846042102F0BEFF40F20025B4
:10116000C2F2000505F148012046042200F072FF9A
:101170004FF42F7001F0D2F940F2640041F20C01FB
:10118000C2F20000C2F20001FFF7BCFA41F24C00CB
:10119000C2F2000003F068F86869002818BFB0BD0B
:1011A000FEE70000FEE700000020704700207047C7
:1011B00010B540F6BC14C2F2000440F67C11C2F235
:1011C00000012046002205F0BFF940F63C11C2F2B2
:1011D0000001204605F0B2F9002010BD10B540F620
:1011E000BC14C2F200040146204605F0A7F92046CF
:1011F00005F086F9002010BD40F68040C2F20000E4
:1012000001F034B840F6C440C2F2000001F02EB83C
:101210007047000070B584B00020002404F0B2F9DB
:1012200040F25C05C2F20005D5E900304FF4FC61E4
:10123000CDE9000155A26E200D21029404F04CFA74
:10124000D5E900304FF6E0714CF23412CDE90001DF
:10125000C0F600026E202B21029404F03DFAD5E97D
:1012600000304FF61F064CF23612CDE90006C0F6EC
:1012700000026E204921029404F02EFAD5E90030D4
:1012800043A2CDE9000600203C21029404F024FA98
:10129000D5E9003040F2FF76CDE900063DA20020FE
:1012A0006221029404F018FAD5E900304CF23912A8
:1012B000CDE90006C0F6000255206221029404F038
:1012C0000BFAD5E9003035A2CDE9000600207621E1
:1012D000029404F001FAD5E9003032A2CDE900060B
:1012E0005C207621029404F0F7F9D5E900304FF440
:1012F0007846CDE900062CA200208A21029404F051
:10130000EBF9D5E900302AA2CDE9000655208A2163
:10131000029404F0E1F9192019214E221F2307F04D
:101320009BFB192037214E221F2307F095FB192024
:1013300055214E221F2307F08FFB40F27841C2F265
:1013400000010C7081F8204081F8404040F2D84103
:10135000C2F2000140F208400C7081F8204040F2D7
:101360009831C2F20000C2F2000180F8504081F8CA
:1013700060400470047480F8204080F8304081F8A8
:10138000504080F8404004B070BD00BF55000000E0
:101390005345540056696E3A00000000496C696D6F
:1013A0003A0000004100000054656D703A000000F2
:1013B0002A430000F0B581B0002800F0F08040F230
:1013C0009836C2F200063769002F00F0E880717885
:1013D000022929D1727A317A82B301296ED000298B
:1013E00040F0DB80FEF7BFFF00213C6AC4F2A001A1
:1013F000FEF711FF2146FEF7B6FE0021C4F2FA31D6
:101400000446FEF7A2FF0025C4F2A01500281CBF69
:101410000024C4F2FA3420462946FEF796FF00283D
:1014200008BF2C463C62B8E0044604F00DFD68B1EC
:10143000204601B0BDE8F04004F046BC401848BF6B
:1014400001200128C8BF00203072A6E0B1782046F4
:1014500002293BD0012977D140F20401C2F20001F8
:10146000097853A252F82140FEF77DFF37692146E3
:101470003D69FEF7D0FE2946FEF775FE0021C4F255
:10148000F0110446FEF761FF00281CBF0024C4F2DF
:10149000F01420464FF07E514FF07E55FEF755FF79
:1014A000002840F27840C2F200004FF0000108BF6F
:1014B0002C463C6180F820103EE000BF97F82400E5
:1014C000B0FA80F0400987F8240066E040F2040199
:1014D000C2F20001497833A252F82140FEF743FFDF
:1014E000376921467D69FEF796FE2946FEF73BFEE9
:1014F0000021C4F220110446FEF727FF4CF6CD452B
:10150000C3F6CC5500281CBF0024C4F2201420468A
:101510002946FEF71AFF002840F27840C2F2000088
:101520004FF0000108BF2C467C6180F8201040F28B
:10153000D840C2F20000017040F20840C2F2000040
:101540000170317001B0F0BD7178012927D1FEF72B
:101550000AFF40F20405C2F2000500216C69C4F2E2
:10156000A001FEF758FE2146FEF7FDFD0021C4F262
:1015700016310446FEF7CDFE002100281CBF0024D2
:10158000C4F21634C4F2E1312046FEF7DEFE002834
:101590001CBF0024C4F2E1346C610020307001B043
:1015A000F0BD00BF0AD7233CCDCCCC3D0000803F2E
:1015B0000AD7233CCDCCCC3D0000803F0000204129
:1015C0007047000070B542F20C060446C4F20206F1
:1015D00001F0F4F93168C9071CD13068800644BFB6
:1015E000202030603068C00607D43069C00704D1BD
:1015F000306840075CBF002070BD3068C00641F213
:10160000D000C2F2000021D400213268520725D454
:101610002AE000BFC4B10546601C10D13068C00785
:10162000DBD03068C0071CBF30685FEAC070D4D020
:101630003068C007F2D1D0E73068C007CDD001F0E4
:10164000BDF9401BA042F7D9032070BDC16941F02C
:101650000201C16110213268520705D5C26941F00B
:10166000040142F00102C2613269D20702D10120B5
:10167000316070BDC26942F00402C261306920F07D
:10168000010030610120316070BD000070B582B092
:1016900004460020019094F82400012802D1022081
:1016A00002B070BD012084F824002046FEF77CFFC4
:1016B00020B1002184F8241002B070BD0646A06A53
:1016C00041F2021188430230A06240F2A400C2F24B
:1016D00000000568022001F0D7FEB5FBF0F04000E5
:1016E00001900198A8B100BF0198013801900198BC
:1016F00078B1019801380190019850B101980138F2
:101700000190019828B101980138019001980028B2
:10171000EAD12046FEF7A6FF2068816841F0080163
:10172000816001F04BF9054620688168090705D5FD
:1017300001F044F9401B0A28F6D910E0816841F015
:101740000401816001F03AF9054600BF2068806815
:10175000400709D501F032F9401B0B28F6D30120D0
:1017600010216FF0120203E001216FF003023046F6
:10177000A36A1A401143A162002184F8241002B028
:1017800070BD00007047000070B581B0002200926B
:1017900090F82420012A03D10221084601B070BD2F
:1017A0004A680123062A02EB820E80F8243007D80B
:1017B000D0F800C06FF004030CF134060CE000BF59
:1017C000D0F800C00C2A87BF0CF12C066FF0400344
:1017D0000CF130066FF022030EEB03021F23346876
:1017E00003FA02F50B6824EA050503FA02F22A431C
:1017F0003260092B03EB43021AD9DCF80C601E3A65
:10180000072589689540AE43914023F0010231439A
:10181000102ACCF80C1015D142F20041C4F201019B
:101820008C4517D0816A41F02001816201210AE0D4
:10183000DCF81030072689689640B343914019437D
:10184000CCF810100021002280F82420084601B0B6
:1018500070BD00BF89680902F4D4DCF80810102BB1
:1018600041F40001CCF80810ECD140F2A401C2F21E
:10187000000109684DF68362C4F21B32A1FB02121B
:10188000910C01EB81014900009100990029D9D008
:1018900000990139009100990029D3D000990139AC
:1018A000009100990029CDD000990139009100994B
:1018B0000029C7D0009901390091009900294FF003
:1018C0000001E5D1BFE700002DE9F041006842F6D4
:1018D0000001C4F2010188423AD042F20041C4F250
:1018E0000101884232D140F20020C2F2000000F132
:1018F0002C07B0F848108CCFB0F84E600A44B0F80E
:101900004A100B44B919478AC0E90B230137BEB20C
:10191000242E4163478238BFBDE8F08148F639671D
:10192000C3F6E307A2FB0726A3FB0723A1FB0712CD
:10193000F1084181D9088181D108C1810021C0E924
:101940000B1141634182012101704161BDE8F081C9
:1019500040F60048C4F2010840464FF400610122FD
:1019600001F026F840F23830C2F2000000F13005F4
:10197000284600F02DF80646284600F029F80746CC
:10198000284600F025F80446284600F021F8B1B2B8
:10199000BAB21144A2B2114480B20844FEF7ECFC82
:1019A0004FF07A51FEF737FCFEF7EBFC40F20027D0
:1019B0000346C2F2000740464FF4006100223B821A
:1019C000BDE8F04100F0F4BF704700007047000030
:1019D0000068C06C7047000010B50446006841689C
:1019E000890644BF01685FEA81710BD4416809062A
:1019F00044BF01685FEA41712AD4416849065BD45B
:101A000010BD00BFA16AC90603D4A16A41F40071E8
:101A1000A162816801F46021B1F5602F10D1217BB2
:101A200071B9416821F020014160A06A20F4807002
:101A3000A062A06AC00403D4A06A40F00100A062C2
:101A40002046FFF741FF20686FF012010160CDE7EB
:101A5000A16AC90603D4A16A41F40051A162816858
:101A600001F4E041B1F5E04F10D1416821F080016F
:101A70004160A06A20F48050A062A06AC00511D421
:101A8000A06A40F00100A0620CE000BF4168490577
:101A900008D4816801F46021B1F5602F02D1217B67
:101AA0000029E2D02046FFF76DFE20686FF00C01A0
:101AB000016041684906A3D50068C00708BF10BD92
:101AC000A06A40F48030A062204600F0A9F82068A7
:101AD0006FF00101016010BD002804BF01207047B4
:101AE000B0B50446806A28B120688168C9070CD067
:101AF00032E000BF0020E06284F82400204600F0BD
:101B000091F820688168C90726D1A16AC9063DD429
:101B1000A16A41F2021291430231A162E169D4E962
:101B2000013241EA030C531EB3FA83F35D091346F5
:101B3000B2F5807F18BF2B02217D257B01294CEA5D
:101B400045012ED145B3A56A45F02005A562E56A99
:101B500045F00105E56224E0816821F00101816022
:101B600000F02CFF054600BF20688168C907CCD073
:101B700000F024FF401B0328F6D3A06A40F01000B9
:101B8000A062E06A40F00100E062A06AA06A40F052
:101B90001000A0620120B0BDA56903EB4533A3F599
:101BA000C0534568B2F5807F25F4694543EA0503D3
:101BB000436083684FF2FD75CFF6E17503EA0503D4
:101BC00043EA0103836001D0012A07D1226900237F
:101BD000CFF6F07303EB025201E000BF0022C36AAC
:101BE00023F470031A43C262806840F6FE62CFF6A7
:101BF0001F721040884207D10020E062A16A0122D2
:101C000062F30101A162B0BDA06A40F0100020F0B3
:101C10000200A062E06A40F00100E0620120B0BD75
:101C200070470000F0B585B0016842F60002C4F2CA
:101C3000010291424FF00002CDE90322CDE90122D9
:101C400046D042F20042C4F20102914269D10746F5
:101C500041F21800C4F20200016841F40071016011
:101C6000016801F4007100910099016841F00401DC
:101C70000160006801A900F00400009000985B205A
:101C800001900320029040F60000C4F2010000F031
:101C90007FFD40F680440820C2F20004C4F2020036
:101CA0000021C4E9000104F1080080224FF4807390
:101CB0004FF4806520266EC02046E16100F0A4FB51
:101CC000002818BFFFF77CFC3C62676221E000BF80
:101CD00041F21800C4F20200016841F48061016021
:101CE000016801F4806100910099016841F00401EC
:101CF0000160006801A900F0040000900098042031
:101D000001900320029040F60000C4F2010000F0B0
:101D10003FFD12200021002200F0D0FE122000F032
:101D2000BBFE05B0F0BD00002DE9F04182B00027F8
:101D30000D460446019700F041FE21688A68D205ED
:101D400044D406464868C00503D4C86A10F4700F2E
:101D500046D040F2A400C2F20000076842F2924866
:101D60000220C1F2492801F08FFB216844F62413B8
:101D70000A69B7FBF0F0C2F292431A4206D1CA6870
:101D800044F62413C0F292031A4249D00A6912EAB7
:101D9000080F07D1CA6842F29243C0F249031A42BF
:101DA00000F084800A6949F24923C0F224031A42F0
:101DB0004FF0FC0242D1CF681F4208BF5422019B62
:101DC00002FB00F7BB423ED379E000BFA06A40F0BF
:101DD0002000A06284F82470012002B0BDE8F081E8
:101DE000086880076BD4002D55D0681C12D1086894
:101DF000800764D4086880075CBF08685FEA807069
:101E00005DD408688007F2D559E000BF21680868F2
:101E1000800754D400F0D2FD801BA842F6D93AE0E6
:101E20000A6912EA080F4FF0290207D1CB6842F283
:101E30009247C0F249073B4208BF1422019B02FBB4
:101E400000F7BB423BD235B3681C1FD1019801306B
:101E500001900198B84232D2019801300190019866
:101E6000B8422CD20198013001900198B84226D294
:101E70000198013001900198B842E7D31FE000BFFC
:101E80000198013001900198B84217D200F096FDF8
:101E9000801BA842F4D9A06A40F00400A062002090
:101EA00084F82400032002B0BDE8F0815422019B95
:101EB00002FB00F7BB42C6D301E000BF21686FF010
:101EC00012000860A06A40F40070A062886800F404
:101ED0006020B0F5602F01D1207B18B1002002B046
:101EE000BDE8F081A06A20F48070A062A06AC004FE
:101EF000F4D4A06A40F00100A062002002B0BDE866
:101F0000F0810000B0B582B0044690F824000128AA
:101F100002D1022002B0B0BD012084F824000020CC
:101F2000019020688168C90742D1816841F00101B0
:101F3000816040F2A400C2F2000000684DF68361A7
:101F4000C4F21B31A0FB0101880C01900198A0B1E3
:101F5000019801380190019878B1019801380190F9
:101F6000019850B1019801380190019828B1019869
:101F70000138019001980028EAD100F01FFD0546C4
:101F800020688168C90713D100F018FD401B0228A2
:101F9000F6D9A06A40F01000A062E06A40F00100AB
:101FA000E062002084F82400012002B0B0BD00BF30
:101FB000A26A42F2044140F20133C4F201019A43A1
:101FC00002F5807301F57F729042A3622AD0A36A62
:101FD00023F48013A36243685B0504D5A36A01253B
:101FE00065F30D33A362A56A0023ED044FF00005ED
:101FF00044BFE56A25F00605E56284F824306FF0F9
:1020000002030360836803F46023B3F5602F19D1E2
:10201000904213D0816841F4A0018160002002B099
:10202000B0BD00BF0B6813F4702FD0D0A36A43F487
:102030008013A3620B685B05D0D4D4E7096811F460
:10204000702FE7D0816841F480118160002002B0D8
:10205000B0BD0000F0B581B00446036842F6000050
:10206000C4F20100834205D042F20040C4F20100F4
:1020700083420BD142F20440C4F20100006810F424
:10208000702F03D0012001B0F0BD00BF94F82400F0
:10209000012803D1022001B0F0BD00BF012084F867
:1020A00024000020009098680E461546C00743D1D2
:1020B00098684DF6836140F00100986040F2A400FA
:1020C000C2F200000068C4F21B31A0FB0101880CC1
:1020D00000900098A8B100BF0098013800900098C7
:1020E00078B1009801380090009850B100980138FC
:1020F0000090009828B100980138009000980028BE
:10210000EAD100F05BFC074623689868C00713D14A
:1021100000F054FCC01B0228F6D9A06A40F0100061
:10212000A062E06A40F00100E062002084F8240030
:10213000012001B0F0BD00BF42F20440A16AC4F228
:10214000010040F60172914300F57F7201F5807144
:102150009342A16246D0A06A20F48010A062586821
:10216000400504D5A06A012161F30D30A062A16A87
:102170000020C9044FF0000144BFE16A21F00601CC
:10218000E16284F82400206A40F2F151C0F60001B7
:1021900040F25D6240F2456700F1280CC0F6000293
:1021A000C0F600078CE886006FF00201196099689C
:1021B000324641F48071996003F14C012B4600F0E6
:1021C0005DF92068816801F460228168B2F5602FB2
:1021D0000CBF41F4A00141F480118160002001B0E6
:1021E000F0BD00BF016811F4702FB4D0A16A41F4B2
:1021F0008011A16200684005B4D4B8E7B0B50446C8
:1022000090F82400012804BF0220B0BD01212068FD
:1022100084F824108168C90708D1214651F8280F95
:1022200041F2011220EA0202002018E0816821F048
:102230000101816000F0C2FB054600BF2068806894
:10224000C007EAD000F0BAFB401B0328F6D3A06A0F
:10225000214640F01000A06251F82C2F012042F0DE
:1022600001020A60002184F82410B0BD10B5D0E945
:102270000FCE0168DCF800300A6823FA0EF35C0721
:102280002AD512F0040427D00A68920603D40A68FB
:1022900022F004020A602F22C4F20202914240F2AC
:1022A0000402C4F2020259DD3023C4F2020399424F
:1022B00070D04423C4F20203994271D05823C4F26F
:1022C0000203994278D14FF480231360C16A002938
:1022D00040F097806EE000BF9C0727D512F0020403
:1022E00024D00A68920606D40A6822F00A020A601C
:1022F000012280F821202F22C4F20202914240F2F2
:102300000402C4F2020239DD3023C4F2020399420E
:102310005ED04423C4F2020399425DD05823C4F234
:10232000020399425ED14FF4003363E01B0741D5AD
:1023300012F0080208BF10BD0A6822F00E020A60FF
:10234000012101FA0EF2CCF804208163016B4FF4F5
:1023500080720029028454D12CE000BF0823C4F20B
:102360000203994222D01C23C4F20203994223D1D2
:1023700040231360C16A002943D11BE00823C4F243
:10238000020399422CD01C23C4F20203994229D1A2
:1023900020232FE04FF480631360C16A89BB09E0FA
:1023A0004FF480431360C16A59BB03E004231360F8
:1023B000C16A31BB10BD00BF02F168044FF08063F9
:1023C000A14208BF4FF480031360C16AC9B9F1E7A5
:1023D0004FF400730EE000BF4FF400530AE000BF5B
:1023E000022307E002F168044FF00073A14208BF26
:1023F0004FF400131360816A0022002980F8202026
:10240000D8D0BDE810400847002804BF012070471D
:102410002DE9F04101684FF6F872CBF6FD724CF6EB
:10242000CD430A44CCF6CC43A2FB03236FF0030256
:1024300002EA93020023C4F2020300F1040E00F149
:102440001007C0E90F329EE80051F0CF0A6843F64A
:10245000F0739A4342EA080242EA0C0242EA0E0290
:1024600022432A4332433A430A6000214FF48072E8
:1024700081630284BDE8F0410846704790F820C0AF
:10248000BCF1010F04BF02207047F0B590F821C0E5
:102490004FF0010EBCF1010F80F820E026D14FF083
:1024A000020C80F821C04FF0000CC0F838C0D0E911
:1024B00000C4C56AC66BDCF80070102C27F0010759
:1024C000CCF80070006C0EFA00F070600846CCF892
:1024D000043004BF10460A46CCF80800CCF80C20A3
:1024E000DCF8000045B140F00E000DE0002180F85E
:1024F00020100220F0BD00BF20F00400CCF8000046
:10250000DCF8000040F00A00CCF80000DCF8000025
:1025100040F00100CCF800000020F0BDB0B504464A
:1025200000F04CFA054640F22800C2F200000078A4
:10253000611C18BF044400BF00F040FA401BA042D9
:10254000FAD3B0BD2DE9F04381B041F2D005C2F21B
:1025500000052A7E012A03D1022001B0BDE8F083E4
:1025600004460120266828764CF250308846FFF752
:1025700029F8022E1CD100284ED1002042F210046E
:10258000E861C4F20204206840F004002060206882
:1025900040F0400020604CF25030FFF713F8216803
:1025A00021F0040121600021297601B0BDE8F0830B
:1025B00090BB4FF0FF30C8F80000D4E9027007EB81
:1025C0008020874228D242F21006C4F202064FF061
:1025D000000900BFC5F81C90306840F00200306070
:1025E0007760306840F0400030604CF25030FEF7C9
:1025F000E9FF316821F00201316098B9D4E90201A4
:1026000007F5806700EB81208742E3D3002000219B
:10261000297601B0BDE8F08301200021297601B0C0
:10262000BDE8F083C8F800700021297601B0BDE84C
:10263000F083000042F21001C4F20201086840F089
:10264000800200200A6070472DE9F04381B041F21A
:10265000D007C2F2000716463A7E012A04D10220B2
:1026600001B0BDE8F08300BF0546012038764CF28A
:1026700050300C469946FEF7A5FF28B10021397667
:1026800001B0BDE8F08300BF42F210080020C4F2A0
:102690000208F861D8F8000040F00100C8F8000016
:1026A0004CF250302680FEF78DFFD8F8001000283D
:1026B00021F00101C8F8001018BF0046DED1012D3D
:1026C000DCD00020F861D8F80000310C40F00100A7
:1026D000C8F800004CF250306180FEF773FFD8F864
:1026E0000010002821F00101C8F80010C6D1E81E32
:1026F00010F1030F4FF00000C0D8F861D8F80000C7
:1027000040F00100C8F800004CF25030A4F80490EA
:10271000FEF758FFD8F80010002821F00101C8F892
:102720000010ABD10020F861D8F800004FEA194141
:1027300040F00100C8F800004CF25030E180FEF794
:1027400041FFD8F80010002821F00101C8F800105E
:1027500018BF00460021397601B0BDE8F0830000C3
:1027600042F20400C4F20200C16809065CBF002006
:10277000704740F22311C4F26751016048F6AB1173
:10278000CCF6EF510160C068C0B2C00970470000CC
:102790002DE9F04F82B00E68002E00F0FF8040F26D
:1027A0000C4C40F2004E41F20042C4F2010CC4F263
:1027B000010EC4F201020427002401234FF0000A95
:1027C0004FF00009904208BF0327009749E000BF7F
:1027D00041F20002C4F20102009F904208BF0227AA
:1027E00004F00C030F229A402BEA020207FA03F3CB
:1027F0004FEA9A051A4346F825204E68F203DEF8A0
:10280000002054BF22EA080242EA0802CEF8002063
:10281000DEF80420B30354BF22EA080242EA0802A9
:10282000CEF80420F302DEF8082054BF22EA0802A2
:1028300042EA0802B302CEF80820DCF800204FF08C
:10284000010354BF22EA080242EA0802CCF8002041
:102850000E680AF1010A36FA0AF204F1040400F0E3
:102860009D8003FA0AFB16EA0B08F1D04E684FF67A
:10287000FF72C1F21002964212DC122E56D8DFE827
:1028800006F0350B4D49555555555555555555552A
:1028900055555545510000BFD1F80C9046E000BF9A
:1028A0004FF6FF72C1F2210296420FDC0022C1F204
:1028B000110296421AD00022C1F21202964215D09D
:1028C0000022C1F22102964210D02FE00022C1F274
:1028D000220296420AD00022C1F23102964205D06D
:1028E0000022C1F23202964220D100BF8A684AB16A
:1028F000012A14BFC0F814B0C0F810B04FF0080996
:1029000014E000BF4FF0040910E000BFCA6802F1F4
:1029100004090BE04FF0000908E000BFCA6802F1AB
:10292000080903E0CA6802F10C0900BF0246264606
:10293000B8F5807F24BF0432203E17680F25B540CC
:1029400027EA050509FA06F635431560CA79D20665
:102950007FF57EAF41F21803C4F202031A68AEF5A8
:102960007E7642F001021A601A6802F001020192BA
:10297000019A2AF0030256F802B040F60002C4F2AF
:102980000102904208D040F60042C4F20102904297
:102990007FF41EAF012723E7002721E702B0BDE83F
:1029A000F08F00008068084018BF012070470000C9
:1029B000002A08BF090401617047000041F21410A9
:1029C000C2F200000068704740F2280041F2141182
:1029D000C2F20000C2F2000100780A6810440860E8
:1029E0007047000080B542F20000C4F202000168A6
:1029F00041F010010160032000F08CF8002000F08D
:102A000005F800F027F8002080BD000070B540F206
:102A10002806C2F2000640F2A4013278C2F2000198
:102A20004FF47A730968B3FBF2F20446B1FBF2F19A
:102A3000084601F0D3FA0F2C4FF0010508D838B939
:102A40004FF0FF3021460022002500F037F8746077
:102A5000284670BD82B041F21800C4F2020001683D
:102A6000022241F001010160016801F001010191C0
:102A70000199416841F080514160406800F0805008
:102A8000009000980420C4F20100016862F31A610A
:102A9000016002B070470000002848BF704700F096
:102AA0001F01012202FA01F11C2202EAD0004EF2BB
:102AB0000012CEF2000281507047000010B54EF6B1
:102AC0000C5CCEF2000CDCF80030C3F3022E8EF06A
:102AD0000704042C28BF0424BEF103034FF0FF3E7B
:102AE0000EFA04F438BF0023A14399400EFA03F311
:102AF0009A43114300F00F0200F160430901043AC8
:102B000003F564436244002848BF02F10C031970C6
:102B100010BD00004EF60C51CEF200010A684FF6CF
:102B2000FF031A4060F30A2242F0806040F0FD701B
:102B30000860704701F0070C00EB4C1C0CF1280CEE
:102B400000EB4110090658BF00F5947C52B1ACF877
:102B500008301B0C01210A202CF8003000208CF8D2
:102B60000C107047002106202CF8003000208CF853
:102B70000C10704770470000D0F8683200EB41102D
:102B8000C26B184603F062BFD0F8683200EB411008
:102B9000D0F83C21184603F0BFBF000010B54FFA33
:102BA00081FC4FF49472BCF1000F48BF282201F061
:102BB000070302444FEAD11C02EB431181F801C024
:102BC00090F828C24FEA431EBCF1010F02F80E3004
:102BD00004BF022010BD0268012380F82832044699
:102BE000104604F0D7FC002084F8280210BD000035
:102BF000B0B5426801F00F03934284BF0120B0BD1D
:102C00004AB24FF49474002A48BF282401F0070305
:102C1000021990F828424FEAD11C02EB431181F8C7
:102C200001C04FEA431C012C4FF000048C7002F8E5
:102C30000C3004BF0220B0BD0268012380F82832A6
:102C40000546104604F03AFD204685F82842B0BDFE
:102C500001F0070100EB4110D0F84401704700007B
:102C600010B54FFA81FCBCF1000F01F0070C0DD438
:102C700000EB4C1E00240EF594718EF829418EF85D
:102C800028C1CEF838218EF82B3109E000EB4C1129
:102C900001F828CF01244C700A61CB70A1F80EC056
:102CA000022B04BF00220A7190F82822012A04BFD7
:102CB000022010BD0268012380F828320446104625
:102CC00004F022FB002084F8280210BD10B501F0AA
:102CD000070C00EB4C1E00680EF594710024CEF832
:102CE0003C21CEF84031CEF844418EF829418EF88F
:102CF00028C104F037FD002010BD0000B0B54268C7
:102D000001F0070494424FF0010229D84BB24FF46E
:102D10009475002B48BF28254FEAD11348BF2146A0
:102D200005444FEA411C05EB41114B7090F82832E5
:102D30008A70012B05F80C4004BF0220B0BD026868
:102D40000123054680F82832104604F0F1FC24B92E
:102D5000286805F50C7104F0AFFC002285F82822E4
:102D60001046B0BD80B501F0070C00EB4C1101F826
:102D700028CF01F1140E00684FF0000C8EE80C1003
:102D800001224A7004F0EEFC002080BD2DE9F04FD6
:102D900083B00446006804F043FE0146206809043D
:102DA00005D5B0F94410B1F1FF3F40F3A98004F01C
:102DB00037FE400519D52068B0F8441021F4806131
:102DC000A0F84410204600F0FBFA94F828020128ED
:102DD0000BD00120002584F8280284F824502068B4
:102DE000002104F07DFE84F82852206804F018FECB
:102DF00001462068490405D5B0F8441021F480410B
:102E0000A0F8441004F00CFE01462068890405D5A2
:102E1000B0F8441021F40051A0F8441004F000FE72
:102E200001462068C90411D404F0FAFD000527D436
:102E3000206804F0F5FD800548D4206804F0F0FD1A
:102E4000C00552D403B0BDE8F08F00BFB0F8401009
:102E500021F00401A0F84010B0F8401021F0080162
:102E6000A0F84010204600F0BDFA2068B0F84410E9
:102E700021F48051A0F8441004F0D2FD0005D7D50C
:102E80002068B0F8401041F00801A0F84010B0F8F8
:102E9000441021F40061A0F84410B0F8401041F053
:102EA0000401A0F8401004F0BBFDC00406D5206862
:102EB000B0F8441021F48051A0F84410204600F0EE
:102EC000CFFA206804F0ACFD8005B6D52068B0F8D4
:102ED000441021F40071A0F84410204600F086FA56
:102EE000206804F09DFDC005ACD52068B0F8441002
:102EF00021F48071A0F8441003B0BDE8F08F00BF4A
:102F000004F59471029104F1280504F50C7140F662
:102F10000F7A019114E000BF01F0070705EB47119C
:102F2000C1E9053200227E01CA6101224A70AF5513
:102F300004F018FC2068B0F9441000297FF537AF81
:102F4000B0F8442012F00F080CD030F928B04FEA46
:102F50004809BBF1FF3F35DD1FFA8BF00006E9D5CC
:102F60001CE100BF0188D20656D401EA0A0101F52E
:102F700000410180B0F8501094F8282000EB410087
:102F800000EB0210B0F80404E16B6FF39F20606463
:102F90000844E06320460021FFF7EEFD94F824008A
:102FA0000028C7D0206C0028C4D194F824002168E0
:102FB00040F08000C0B2A1F84C00002084F824004A
:102FC000B8E700BF30F8191040F60F7701EA0A01A0
:102FD000803120F81910029901EB481A9AF80C1068
:102FE000002977D09AF8001030F82120B0F850303E
:102FF00000EB0111520401EB430100F18180B1F8B3
:103000000C646FF39F26002E00F08880DAF814100D
:10301000BAF80A207DE000BF0A053DD409B2B1F13B
:10302000FF3F3FF787AF018801EA0A018031018045
:10303000B0F8501094F82821130100F20C4202EB72
:103040004101CB5A6FF39F23C4F84431A3B1D4F8A4
:103050003C1189B1B4F82E2104F0E6FCD4F83C010F
:10306000D4F844110844C4F83C0120460021FFF77D
:103070008BFD206800F20C42B0F85010D4F83831C3
:10308000002B00F0B1803E2B00F2BA8003F0010665
:1030900006EB53039B02C0E0B0F8501094F82821CF
:1030A00000EB410101EB0211B1F80C34B4F82E2110
:1030B00001996FF39F23C4F8443104F0B5FC2068F4
:1030C000018801EA0A0180310180204600F0A8F958
:1030D00030E700BFB0F850109AF8002000EB410133
:1030E00001EB0211B1F80C646FF39F26002E79D02A
:1030F000DAF81410BAF80620334604F095FC19E00B
:10310000B1F804646FF39F2646B1DAF81410BAF8E8
:103110000820334604F088FC01E000BF0026206848
:103120009AF8001048F2C00330F821203A401A43C0
:1031300020F82120DAF81C20DAE905103244CAF818
:103140001C208A19CAF81420E0B1DAF810309AF875
:103150000010B34218D8029E01F0070306EB43119A
:10316000C1E905200020C861487020685F01F3555F
:1031700004F0F8FA40F60F7A1FFA8BF000067FF59C
:10318000D9AE0BE09AF800102046FFF7FDFC40F6A0
:103190000F7A1FFA8BF000067FF5CCAE20684FEA5D
:1031A000481230F8191005EB481701EA0A0101F539
:1031B000004120F81910B0F85030A95C00EB430230
:1031C00002EB0112B2F80434D7E905626FF39F23D2
:1031D000FB613344002A7B617FF49EAE2046FFF7FB
:1031E000CBFCA7E60026A5E7535A48F2000723F4D4
:1031F000F8435352535ACFF6FF773B430DE000BFDD
:103200005E09DF064FF0FF3708BF07EB531648F2A1
:103210000003CFF6FF7343EA86235352018843F637
:103220000F72114048F2C00202F53F525140018036
:1032300080E60000002804BF01207047F0B585B08B
:10324000064690F8290228B9002086F82802304660
:1032500000F094F8032086F82902306804F022FA7E
:1032600006F1140E96E82F009EE81050376ACDE95B
:103270000054CDE902CE049704F08AF900286AD1FF
:1032800030680021002504F029FC7168002952D023
:1032900006F128004FF0010C0022002300EB42173A
:1032A00052018354DAB20133FA81DAB2914287F8DB
:1032B00001C0FD70C7E90455BD61EFD806F59470F3
:1032C00000220025002300BF00EB45176D01435588
:1032D00043F00105ECB2A1427A70FA70C7E904220A
:1032E000BA6128D900EB44176401055543F0020583
:1032F000ECB2A1427A70FA70C7E90422BA611AD915
:1033000000EB44176401055543F00305ECB2A142FC
:103310007A70FA70C7E90422BA610CD900EB44173D
:10332000640104330555DDB2A9427A70FA70C7E929
:103330000422BA61C8D806F10807D6E905543068F6
:103340008CCFD6E907CECDE9007502AD85E81050E7
:1033500004F094F930B1022086F82902012005B06A
:10336000F0BD00BF002086F82400012086F8290265
:10337000306804F081F9002005B0F0BD006845F622
:103380000041C4F20001884218BF704780B582B086
:1033900041F21C00C4F202000168002241F4000165
:1033A00001600068002100F40000019001981420E1
:1033B000FFF784FB142002B0BDE88040FFF76CBB30
:1033C00010B504468068022818BFFEF7F9F8D4F853
:1033D0006802012103F0A0FCD4F86802BDE81040A7
:1033E00003F058BCD0F8680203F07EBCD0F8680245
:1033F00003F084BC90F82822012A04BF0220704701
:1034000010B5012280F8282280F8241002680446B2
:10341000104604F065FB002084F8280210BD00006F
:10342000D0F8682200F50C71104603F08BBC000048
:1034300090F82812012904BF0220704710B501211D
:1034400080F828120446FFF795FB206804F012F973
:10345000206804F0D5FA002084F8280210BD00008E
:1034600010B50446D0F8680203F0BEFCA06900283D
:1034700008BF10BD4EF61050CEF20000016841F0BA
:103480000601016010BD0000012821D002280DD0E6
:10349000102808D141F20401C4F202010A6851F86F
:1034A000040CC00134D40020704700BF80B500F088
:1034B000C7F941F20401C4F2020109680222C1F312
:1034C000813102EB4101B0FBF1F0BDE88040704773
:1034D00041F20400C4F20200C16940F202320A4023
:1034E000B2F5817F04BF4FF40040704701F4407192
:1034F000B1F5407F18D0B1F5007F1CBF00207047A8
:10350000006A49F64041800701EAE070704700BF59
:10351000C2F3834015A3185CD2030DD440F6001209
:10352000C0F23D02504313E050F8040C4FF2244126
:10353000800301EAE07070470A6810A3C2F34042BA
:103540009A5C41F20023C0F27A03B3FBF2F25043DB
:103550000968490248BF70474AF6AB214000CAF6E5
:10356000AA21A0FB01014808704700BF020304051F
:10357000060708090A0B0C0D0E0F101001020000BF
:103580002DE9F04182B00446007841F21C06C007E4
:10359000C4F202064AD030685FEAC00808D4306836
:1035A00040F080503060306800F080500190019809
:1035B00047F20007C4F200073868C00512D4386823
:1035C00040F480703860FFF7F9F905463868C005A7
:1035D00008D4FFF7F3F9401B6428F7D9032002B0A1
:1035E000BDE8F081706810F4407012D0616801F499
:1035F000407188420DD0706840F24042C4F24222CD
:10360000012320F4407113600023C0071360716030
:1036100026D17068616820F440700843B8F1000F4B
:10362000706003D4306820F08050306020688107DB
:1036300007D556F8181CA26821F44041114346F8FA
:10364000181CC00607D556F8180CE16820F4800055
:10365000084346F8180C002002B0BDE8F08100BF16
:10366000FFF7ACF9054641F2883700BF7068800764
:10367000CFD4FFF7A3F9401BB8424FF00300F5D9B0
:10368000EAE70000002804BF012070472DE9F0435D
:1036900081B042F20008C4F202080446D8F80000E3
:1036A0000D4600F0070081420CD9D8F8000020F048
:1036B00007002843C8F80000D8F8000000F0070011
:1036C000A8426CD1206841F204098107C4F20209C2
:1036D00017D5410705D5D9F8001041F4E061C9F8C4
:1036E0000010010705D5D9F8001041F46051C9F860
:1036F0000010D9F80010A26821F0F0011143C9F8B8
:103700000010C00742D1D8F8000000F00700854241
:103710000CD2D8F8000020F007002843C8F80000B9
:10372000D8F8000000F00700A84238D1206841070F
:1037300007D5D9F80010E26821F4E0611143C9F817
:103740000010000708D5D9F80000216920F4605066
:1037500040EAC100C9F80000D9F8002002F00C00CE
:10376000082841F20020C0F27A004DD14CF2AA03A1
:10377000C2F38341C0F60003595CD20338D440F64B
:103780000010C0F23D0048433EE000BF606859F8B9
:10379000041C022808D0012826D1890306D4012060
:1037A00001B0BDE8F08300BF8901F8D5D9F8001059
:1037B00021F003010843C9F80000FFF7FFF80646AF
:1037C00041F28837D9F80000616800F00C00B0EBD6
:1037D000810F98D0FFF7F2F8801BB842F2D903208E
:1037E00001B0BDE8F08300BF8907D8D5DEE700BF90
:1037F000D9F8002049F67C03C2F34042C0F600032A
:103800009A5C4843B0FBF2F0D9F8001049F67E020A
:10381000C1F30311C0F60002515C40F2A40220FA89
:1038200001F140F22C00C2F200000068C2F2000276
:103830001160FFF7EBF8002001B0BDE8F083000055
:1038400040F2A40041F20401C2F20000C4F20201FD
:103850000068096849F68E02C1F3C221C0F6000271
:10386000515CC84070470000002804BF0120704729
:103870002DE9F04182B00446007841F20006C0070D
:10388000C4F202060CD0706800F00C00042840F06E
:1038900081803068800303D56068002800F046818D
:1038A000207880071BD5706810F00C0F09D0706865
:1038B00000F00C00082840F087807068C00300F119
:1038C00083803068800703D52069012840F02E816D
:1038D0003068616920F0F80040EAC100306020786B
:1038E000000713D4207840072CD4E569002D00F0A0
:1038F0001881706800F00C00082840F0A780012DA6
:1039000040F00481012002B0BDE8F081A0690028E8
:1039100000F084800020C4F242200121C0F880140D
:10392000FFF74CF8054600BF706A800700F1B280CF
:10393000FFF744F8401B0228F6D9032002B0BDE887
:10394000F08100BFF0695FEAC00808D4F06940F078
:103950008050F061F06900F080500090009847F2CC
:103960000007C4F200073868C00549D4386840F43D
:1039700080703860FFF722F8054600BF3868C00540
:103980003ED4FFF71BF8401B6428F7D9032002B090
:10399000BDE8F081706800F00C00082803D1706861
:1039A000C0033FF576AF61683068002900F00C81F4
:1039B000B1F5A02F00F00081B1F5803F40F01A81F1
:1039C00040F480301CE100BF2069002840F2000074
:1039D000C4F2422000F0888001210160FEF7EEFF72
:1039E000054600BF306880073FF572AFFEF7E6FF7F
:1039F000401B0228F6D9032002B0BDE8F08100BFC9
:103A0000E168306A002900F09D80052900F092806D
:103A1000012940F0AF8040F00100B1E00020C4F285
:103A200042200021C0F88014FEF7C8FF054600BF01
:103A3000706A80077FF556AFFEF7C0FF401B022873
:103A4000F6D9032002B0BDE8F08100BF0027C4F220
:103A5000422700203866FEF7B1FF022D05460DD142
:103A60003068800140F1DE80FEF7A8FF401B02288D
:103A70004FF00300F4D902B0BDE8F0813068800156
:103A80004FD5FEF79BFF401B02284FF00300F5D9EE
:103A9000F1E700BF40F2A400C2F20000006844F663
:103AA000D351C1F26201A0FB0101480A019000BF9D
:103AB00000BF0198411E002801913FF413AF00BFE1
:103AC0000198411E002801913FF40CAF00BF0198FE
:103AD000411E002801913FF405AF00BF0198411E2F
:103AE00000280191E4D1FDE600210160FEF766FFA8
:103AF000054600BF306880077FF5F1AEFEF75EFF38
:103B0000401B02284FF00300F4D9B4E77068216A23
:103B100000F480328A4209D1616A00F47010884250
:103B200004D1002002B0BDE8F08100BF012002B046
:103B3000BDE8F08140F004003062306A40F00100DE
:103B40001EE000BF20F001003062306A20F0040067
:103B50003062FEF733FF054641F28837306A80074E
:103B600020D5FEF72BFF401BB8424FF00300F5D9DC
:103B700081E700BF20F001003062306A20F00400CD
:103B80003062FEF71BFF054641F28837306A800736
:103B900008D4FEF713FF401BB842F7D9032002B048
:103BA000BDE8F081B8F1000F3FF59FAEF06920F05D
:103BB0008050F06199E600BF40F4802030603068AA
:103BC00040F480301CE000BF20F48030306030686A
:103BD00020F480203060FEF7F1FE05463068800357
:103BE0007FF55EAEFEF7EAFE401B64284FF003004F
:103BF000F4D940E720F480303060306820F4802031
:103C00003060FEF7DBFE0546306880033FF548AEC6
:103C1000FEF7D4FE401B6428F6D9032002B0BDE8AD
:103C2000F08100BF206AB0F5803F05D17168A268BD
:103C300021F40031114371607168626A21F47411DA
:103C400011430843706001203866FEF7B7FE044652
:103C5000306880013FF565AFFEF7B0FE001B02281B
:103C60004FF00300F4D906E7002804BF0120704795
:103C7000B0B504460020A06294F8511029B984F828
:103C80005000204600F032F80020022184F8511044
:103C9000D4E9001ED4E9023C0A6822F040020A601E
:103CA00043EA0E02236942EA0C0242EA030CD4E919
:103CB0000532E5694CEA030C02F4007E4CEA0E037F
:103CC00043EA050C256AA36A45EA0C052B430B6001
:103CD000042303EA12424A60CA6922F40062CA61FC
:103CE0000121606584F85110B0BD000070B586B048
:103CF000044640F60000C4F20100216800F520529D
:103D0000002691420596CDE90366029602D006B0E0
:103D100070BD00BF41F21801C4F202010A6842F40A
:103D200080520A600A6802F480520192019A0A687D
:103D300042F004020A60096801F00401019101994E
:103D4000A0210291022103910321059102A9FEF70E
:103D50001FFD40F6C4453020C2F20005C4F2020047
:103D60001021802285E8430005F10C004FF4807398
:103D70004FF4806C80E80C102846C5E90666FEF713
:103D800043FB002818BFFDF71BFCA5646C6206B05E
:103D900070BD00002DE9F04381B0044690F850005A
:103DA000012803D1022001B0BDE8F0834FF00108E3
:103DB0001D460F46164684F85080FEF7FFFD94F826
:103DC0005110012942D18146002F4FF0010018BF48
:103DD000002E00F0FB800320002284F85100626571
:103DE0002763A686E686A263A287E287A06831469B
:103DF000B0F5004F20682264626403D1026842F487
:103E0000804202600268520603D4026842F0400217
:103E1000026062680139E368B2FA82F2B1FA81F1B4
:103E200052094909B3F5006F41EA02013CD131B1B1
:103E300037F8021BC1602763E08E0138E086E08E10
:103E400000286BD0681C0ED11DE000BF0220BDE031
:103E5000216B31F8022BC2602163E08E0138E086CD
:103E6000E08E00285AD0206881688907F0D4FEF7D8
:103E7000A5FDA0EB0900A842F2D338E0FEF79EFDB5
:103E8000E08E00284AD0206881688907F6D5216B2A
:103E900031F8022BC2602163E08E0138E086E08EAB
:103EA0000028F0D13AE000BF39B139780173206BB6
:103EB00001302063E08E0138E086E08E70B3681C2C
:103EC0000BD11BE0216B09780173206B013020635B
:103ED000E08E0138E086E08E00B3206881688907B3
:103EE000F0D4FEF76BFDA0EB0900A842F3D303204A
:103EF0006CE000BFFEF762FDE08E78B1206881685B
:103F00008907F7D5216B09780173206B0130206395
:103F1000E08E0138E086E08E0028EFD120688168CD
:103F2000090646D5691C0ED0FEF748FDA0EB090135
:103F30002068A94212D281680906F5D439E000BF91
:103F40008168090635D58168090632D58168090678
:103F500044BF81685FEA01612BD5F1E7416821F038
:103F6000E00141606168B1F5827F0AD1A168B1F5D5
:103F7000004F02D0B1F5806F03D1016821F04001FC
:103F80000160A16AB1F5005F07D1016821F4005119
:103F90000160016841F400510160012184F8511071
:103FA000002184F85010616D41F0200161652021ED
:103FB0006165A16831B900210091C16800918068F4
:103FC00000900098606D002818BF0120002184F83F
:103FD000518084F8501001B0BDE8F083411E0020EC
:103FE000B0EB116F1CBF012070474EF21002CEF2F1
:103FF000000251604EF62351CEF20001F0230B7007
:104000000721906011607047704700007047000002
:1040100090F83C20012A04BF02207047B0B501F19E
:1040200008053CCDD1E900CE23F47C5322F4705234
:104030001A432EF4F0431A432CF4E0431A4324F4B9
:10404000C0431A432A43C96922F4804203681143DA
:104050005964002180F83C100020B0BD90F83C204D
:10406000012A4FF0020219D080B580F83D20026885
:104070005368D2F808C091E8024023F07003194356
:104080002CF0800343EA0E0351609360012100226B
:1040900080F83D1080F83C20BDE880401046704715
:1040A000006801F01F010422036A02FA01F123EA09
:1040B00001020262026A11430162416C41F4004153
:1040C0004164816801F00701062903D0016841F0CD
:1040D0000101016000207047006801F01F01042207
:1040E000036A02FA01F123EA01010162016A016235
:1040F000026A41F211110A4204D1026A40F24443B9
:104100001A4205D0026A0A4209D00020704700BF57
:10411000426C22F400424264026A0A42F5D1016A0A
:1041200040F244421142F0D1016821F001010160E6
:1041300000207047002804BF0120704710B590F898
:104140003D1031B9002180F83C10044600F056F8CB
:104150002046022180F83D10016840F2FF740B6890
:10416000C4F2000442F6004CA142C4F2010C15DC7A
:10417000B1F1804F1AD040F20042C4F200029142E5
:1041800014D0A14218DCB1F1804F1DD040F20042A2
:10419000C4F20002914217D01AE000BF614505D079
:1041A00040F60002C4F200029142EAD1826823F094
:1041B00070031343A142E6DD614505D040F60002DD
:1041C000C4F20002914203D1026923F44073134305
:1041D000846923F08002D0F804E0C368224361457B
:1041E0000A60CB62C1F828E002D14269CCF83020E5
:1041F00001224A6180F83D20002010BD80B582B0C8
:10420000006840F20041C4F20001884214D042F636
:104210000041C4F2010188420CD141F21800C4F2FD
:104220000200016841F400610160006800F4006070
:104230000190019802B080BD41F21800C4F2020062
:104240004168002241F0020141604068002100F015
:104250000200009000981D20FEF730FC1D2002B0E7
:10426000BDE88040FEF718BC0068C16841F001015C
:10427000C160816801F00701062903D0016841F09F
:10428000010101600020704790F83C20012A4FF0A6
:10429000020248D080B580F83D20D0F800C04FF62B
:1042A0007772DCF8083023EA0202CCF808200B68A9
:1042B0003F2B1DDD5F2B39DD602B5BD0B3F5005F3D
:1042C00000F09880702B26D1D1E901E3C968DCF8B1
:1042D000082043EA0E0322F47F4243EA01211143FE
:1042E000CCF80810DCF8081041F0770111E000BFAD
:1042F0001F2B03DC33B1102B04D00CE0202B01D09A
:10430000302B08D1DCF8081021F07001194341F07E
:104310000701CCF808100121002280F83D1080F838
:104320003C20BDE880401046704700BF402B41D084
:10433000502BF0D1D1F804E0C968DCF82030DCF86B
:10434000202022F00102CCF82020DCF8182022F0F6
:10435000F00242EA011123F00A0242EA0E02CCF80E
:104360001810CCF82020DCF8081041F0570121F09B
:104370002001CEE7D1F804E0C968DCF8203023F052
:104380001003CCF82030DCF81830DCF8202023F4BF
:10439000704322F0A00243EA013142EA0E12CCF847
:1043A0001810CCF82020DCF8081041F0670121F04B
:1043B0001001AEE7D1F804E0C968DCF82030DCF881
:1043C000202022F00102CCF82020DCF8182022F076
:1043D000F00242EA011123F00A0242EA0E02CCF88E
:1043E0001810CCF82020DCF8081041F0470121F02B
:1043F00030018EE7D1E901E3C968DCF8082043EA1F
:104400000E0322F47F4243EA01211143CCF8081045
:10441000DCF8081041F480417BE70000002804BF6D
:10442000012070472DE9F04F81B090F83D2042B94E
:10443000002280F83C2004460D4600F08BF8294607
:104440002046022280F83D20026844F20705936866
:1044500042F6004CAB43936040F2FF731468C4F221
:1044600000039A42C4F2010C14DCB2F1804F19D05F
:1044700040F20045C4F20005AA4213D09A4217DC6C
:10448000B2F1804F1CD040F20043C4F200039A42C4
:1044900016D01AE0624505D040F60005C4F20005CA
:1044A000AA42EBD1856824F070042C439A42E7DDE0
:1044B000624505D040F60003C4F200039A4204D1DD
:1044C000036924F4407543EA050424F080038469F9
:1044D000D0F804E0C568234362451360D562C2F892
:1044E00028E002D14369CCF830304FF0010CC2F81B
:1044F00014C095689469D2F820E0D1E90038D1E978
:10450000027B43EA050A8D694FF6FF7924EA090424
:1045100047EA05254FF6FC47BD43D1E9077644EA53
:104520000B040B692C4344EA07242EF02207496947
:1045300044EA031347EA080743EA063347EA01114E
:10454000C2F808A09361116280F83DC0002001B05C
:10455000BDE8F08F70B586B000680026B0F1804FDE
:10456000CDE904660396029602D006B070BD00BF86
:1045700041F21800C4F20200416840F6000441F024
:10458000010141604168C4F2010401F0010101919F
:104590000199016802AD41F004010160016801F078
:1045A000040101910199016841F00801016000686E
:1045B000294600F00800019001984FF40040CDE931
:1045C000020620460496FEF7E3F80820CDE902062D
:1045D00004F5806029460496FEF7DAF80420C4F258
:1045E000010001684FF6FF42CFF6FF02114041F093
:1045F000E06141F48071016006B070BD0268042979
:10460000106A0BD020F0010011B9012109E000BFB0
:104610001062106A40F001001062106A20F0100071
:1046200010211062106A08431062106840F0010106
:1046300000201160704700007047000010B501684D
:1046400004460869800744BFC8685FEA807039D4AF
:104650000869400744BFC8685FEA40703ED40869F3
:10466000000744BFC8685FEA007045D40869C00607
:1046700044BFC8685FEAC0604AD40869C0071CBF6D
:10468000C8685FEAC07051D10869000644BFC868B5
:104690005FEA006052D40869400644BFC8685FEA18
:1046A000406053D40869800646BFC8685FEA8060EE
:1046B00010BD6FF0200220460A61BDE81040FFF7F0
:1046C000A5BC00BF6FF00200086101202077886957
:1046D000800743D02046FFF7AFFF45E06FF00400AE
:1046E000086102202077886910F4407F40D020467E
:1046F000FFF7A2FF42E000BF6FF00800086104204E
:104700002077C86980073DD02046FFF795FF3FE03E
:104710006FF01000086108202077C86910F4407F0E
:104720003AD02046FFF788FF3CE000BF6FF0010061
:104730000861204600F098FA2168A5E76FF0800034
:1047400008612046FFF760FC2168A4E76FF0400095
:104750000861204600F02EFB2168A3E7204600F008
:1047600095F8204600F01AFA2168002020776FE7BC
:10477000204600F08BF8204600F010FA2168002057
:1047800020776CE7204600F081F8204600F006FA1A
:1047900021680020207769E7204600F077F820465E
:1047A00000F0FCF921680020207766E770B586B03C
:1047B000006840F20041C4F2000188424FF000015D
:1047C000CDE90411CDE9021136D042F60041C4F220
:1047D0000101884257D141F21800C4F20200016879
:1047E00040F6004441F0080101600168C4F2010490
:1047F00001F0080101910199016802AD41F0040145
:1048000001600068022600F00400019001984FF456
:10481000C04002902046294603960596FDF7B8FF52
:104820004FF44070CDE90206A4F580602946059654
:10483000FDF7AEFF06B070BD41F21800C4F20200F1
:10484000016841F008010160006802A900F0080059
:10485000019001982020029002200390059040F6DC
:104860000040C4F20100FDF793FF0420C4F20100F0
:1048700001684FF2FF32CFF6FF02114041F0E061D4
:1048800041F40061016006B070BD00007047000097
:1048900090F83C30012B4FF0020300F0F6804FEA15
:1048A000B202032A80F83D3000F2E9802DE9F0439E
:1048B000DFE802F002A43A74036842F600461A6A7E
:1048C000C4F2010622F001021A621D6A1A465C68EF
:1048D00052F818CFB3428E68D1F800E025F00205F7
:1048E00045EA06050CD1CE68D1E9057824F4407478
:1048F00025F00C0526F004063C43354344EA080441
:104900002CF0730747EA0E075C609F614F680969E6
:104910005F631D629F6947F008079F619F6927F0E9
:1049200004079F61A6E000BF036842F600461A6ACA
:10493000C4F2010622F480721A621D6A1A46D3F884
:1049400004C052F81CEFB3428E680C6825F4007561
:1049500045EA06250FD1CE68D1E90598360240F226
:10496000FF4725F44065BE4335432CF4405748EAE1
:10497000090647EA061C2EF073072743C3F804C054
:10498000DF614F680969DF631D62DF6947F008076F
:10499000DF61DF6927F00407DF616BE0036842F63F
:1049A00000471A6AC4F2010722F480521A621A46BA
:1049B000D3F820C05D6852F81C4FD1F800E08E6833
:1049C000BB4204D14F6925F4804545EA87152CF494
:1049D000005747EA063724F4E64646EA0E265D60AD
:1049E000DE614E6809691E641F62DF6947F4006773
:1049F000DF61DF6927F48067DF613AE0036842F630
:104A000000461A6AC4F2010622F010021A621D6AF8
:104A10001A46D3F804C052F8184FB3428E68D1F842
:104A200000E025F0200545EA06150FD1CE68D1E952
:104A300005986FF0400725F0C00507EA06163543D4
:104A40002CF4406748EA090647EA860C24F4E64459
:104A500044EA0E27C3F804C09F614F6809699F6349
:104A60001D629F6947F400679F619F6927F4806713
:104A70009F610902136819431160BDE8F0430121E9
:104A8000002380F83D1080F83C3018467047000045
:104A9000002804BF0120704710B590F83D1031B9CF
:104AA000002180F83C10044600F056F82046022110
:104AB00080F83D10016840F2FF740B68C4F20004F6
:104AC00042F6004CA142C4F2010C15DCB1F1804F5A
:104AD0001AD040F20042C4F20002914214D0A14226
:104AE00018DCB1F1804F1DD040F20042C4F2000248
:104AF000914217D01AE000BF614505D040F6000290
:104B0000C4F200029142EAD1826823F07003134399
:104B1000A142E6DD614505D040F60002C4F2000284
:104B2000914203D1026923F440731343846923F053
:104B30008002D0F804E0C368224361450A60CB627A
:104B4000C1F828E002D14269CCF8302001224A6144
:104B500080F83D20002010BD006840F60001C4F23E
:104B60000001884218BF704780B582B041F21C0036
:104B7000C4F202000168002241F0040101600068F3
:104B8000002100F00400019001981E20FDF796FF1F
:104B90001E2002B0BDE88040FDF77EBF70470000D8
:104BA000006801F01F010122036A8A4023EA020122
:104BB0000162036A42F64441C4F201011A43A1F1C1
:104BC00044039842026207D0816801F00701062978
:104BD0000BD10020704700BF0A6842F400420A600F
:104BE000816801F007010629F3D0016841F0010155
:104BF00001600020704700000246006801F01F01BC
:104C000001238B40016A42F6004C99430162C4F2D1
:104C1000010C016A604501620ED1DCF8201041F2FE
:104C20001113194208D1016A40F24443194203D1D9
:104C3000416C21F400414164016A41F211131942AF
:104C400004D00121002082F83D107047016A40F233
:104C500044431942F5D1016821F0010101600121AD
:104C6000002082F83D107047006840F20041C4F215
:104C70000001884218BF70472DE9F04F81B040F223
:104C8000002AC2F2000ABAF80E00FBF775FB43F2E5
:104C90003336C4F253063146FBF7BDFA4FF2000734
:104CA000C4F27F573946FBF7E8FA0025C4F2301505
:104CB0002946FBF7B0FABAF80A1081460846FBF716
:104CC0005BFB3146FBF7A7FA3946FBF7D6FA2946D4
:104CD000FBF7A1FABAF80C1080460846FBF74CFB2C
:104CE0003146FBF798FA3946FBF7C7FA0021C4F2C0
:104CF0004831FBF7C2FA41F26F21C3F60331FBF7EB
:104D0000BCFA00210646FBF704FB40F26407C2F23E
:104D10000007002818BF002697E8300848462146BB
:104D2000FBF773FA4FF07C51FBF775FA2146FBF75E
:104D30001AFA0446386040462946FBF766FA4FF0F7
:104D40007C51FBF768FA2946FBF70DFA786030468C
:104D50005946FBF75AFA4FF07C51FBF75CFA59467B
:104D6000FBF701FA397EB860F9B920464FF080416F
:104D7000FBF7C1FAC8B9DAF844504FF08041284631
:104D8000FBF7C7FA064620462946FBF73EFA4DF2E6
:104D90000A71C3F62341FBF73EFA2946FBF7E3F914
:104DA000002E18BF2046CAF8440001B0BDE8F04FFD
:104DB00000F044B870470000FEE7000080B540F600
:104DC000BC1040F23001C2F20000C2F20001002229
:104DD00001F000FE002818BFFCF7F2FB40F6BC1003
:104DE00040F2A801C2F20000C2F2000102F024F871
:104DF000002818BFFCF7E4FB40F6BC1040F2CC11D1
:104E0000C2F20000C2F2000101F090FB002818BFBE
:104E1000FCF7D6FB40F6BC10C2F2000002F022F80C
:104E2000002808BF80BDBDE88040FCF7C9BB00007A
:104E3000FEE7000070470000704700002DE9F04FCA
:104E400085B0FDF7BBFD40F2640AC2F2000A9AF891
:104E5000181040F2002B0446C2F2000B41B39BF83D
:104E6000010028BB0020CBE90700CBF82400DAF8CA
:104E70000000DAF8141040F6CC75CBE90F010120E0
:104E8000C2F20005ABF8020028460021CBF818401A
:104E9000FFF786FE28460021FFF702F92846042185
:104EA000FFF77EFE28460421FFF7FAF89AF818105B
:104EB00042F63446C4F2010600298BF8011041D0B5
:104EC000DAF800004FF08041FBF731FAA8B1DAF8C8
:104ED0000C000021C4F2A021FBF70DFA68B1DBF849
:104EE0001800201AC8284DD3DAF808000021C4F2AF
:104EF0000811FBF700FA002844D140F6CC744FF4B7
:104F00004070C2F200040025AAF8180020460021D3
:104F1000CBE90755CBF8245035607560FFF76CFE80
:104F200020460021FFF7D8F820460421FFF764FE51
:104F300020460421FFF7D0F88BF8015005B0BDE8FA
:104F4000F08F00BF40F6CC740020C2F20004CBE921
:104F50000700CBF824008AF8190030607060204602
:104F60000021FFF749FE20460021FFF7B5F8204653
:104F70000421FFF741FE2046042105B0BDE8F04FB3
:104F8000FFF7AAB840F6CC74C2F200042046002114
:104F90004FF00009FFF704FE20460021FFF780F8DC
:104FA00020460421FFF7FCFD20460421FFF778F896
:104FB0009AF81800F8B19AF82400012802D1DAF81A
:104FC000109018E0DBF82450DAF81040284621460B
:104FD000FBF7ADF970B949F6A631C3F6C4312846DE
:104FE000FBF7C1F821468146FBF785F9002808BF89
:104FF000A14600E0A1469BF80200DAF80050012823
:10500000CBF8249002D1DBF83C4007E0DAF814003A
:105010002C46CBF840000120ABF802002846214680
:10502000FBF7F3F84CF28F21C3F6F541FBF7F3F8E9
:105030002146FBF798F8DBF844700446CBF83C00B7
:1050400038464FF08041FBF772F9002804BFCBF8D7
:1050500044502F469BF8036086B141F27B41C3F672
:105060006E713846FBF7D7F801462046FBF751F939
:10507000B0B14CF29027CBF675471FE046F266615F
:10508000C3F666713846FBF7C6F801462046FBF7C3
:105090005CF958B141F26F27C3F683270EE000BFD9
:1050A00041F26F27C3F6832704E000BF4CF290273C
:1050B000CBF6754786F001008BF80300DBF8406003
:1050C000DAF8144030462146FBF73FF9002818BFB4
:1050D000264638463146FBF746F84CF6CD41C3F636
:1050E0004C610746FBF715F900281CBF4CF6CD476D
:1050F000C3F64C6738462146FBF727F900282846B7
:105100004FF07C5118BF2746CBF840704FF07C54CD
:10511000FBF7FFF828BB48464FF07C51FBF7F9F846
:105120004CF6CD44C3F6CC54D8B948462946FBF7D3
:105130001AF801464846FBF7A0F846F26661C3F646
:1051400066710546FBF701F900281CBF46F266654B
:10515000C3F6667528462146FBF7F7F8002818BF06
:105160002C46DAE9011648460094FBF74EF88146D2
:1051700038463146FBF749F84CF6CD41DBE9075498
:105180008046C3F64C714846FBF745F841F26F275D
:10519000C3F683273946FBF73EF829460395FAF70D
:1051A000E2FF49F69A110646C3F699714046FBF7AD
:1051B00032F83946FBF72FF821460494FAF7D3FF6B
:1051C00049F69A14C3F69964074630462146FBF720
:1051D000BCF849F69A15CBF6996500281CBF49F62C
:1051E0009A16C3F6996630462946FBF7AEF80028B2
:1051F0003846214608BF2E46FBF7A7F800281CBFFB
:1052000049F69A17C3F6996738462946FBF79DF881
:105210004CF28F210028C3F67541484608BF2F463F
:105220004D46FAF7F8FF009C2146FAF79CFF3146FD
:105230000190FAF798FF4CF6CD418146C3F6CC4178
:105240004046CDF80880FAF7E6FF2146FAF78BFFD3
:1052500039460090FAF787FF46F266610446C3F6C6
:1052600066714846FBF747F840B928460021FBF72E
:105270006CF818B1DDF80C8012E000BF4CF6CD419F
:10528000C3F6CC514846FBF752F8DDF80C8020B944
:1052900028460021FBF73DF810B9B046CBF81C605A
:1052A00046F266614CF6CD49C3F666712046C3F6F8
:1052B000CC59FBF720F8029E30B930460021FBF7AD
:1052C00044F808B1049C10E04CF6CD41C3F6CC5133
:1052D0002046FBF72CF8049C20B930460021FBF750
:1052E00018F810B93C46CBF8207001984146FAF7FF
:1052F0003AFF074600982146FAF735FF46F2666600
:10530000C3F66676044638463146FBF71EF8002899
:105310001CBF46F26667C3F6667738464946FBF718
:1053200014F800282046314608BF4F46FBF70DF819
:1053300000281CBF46F26664C3F6667420464946E0
:10534000FBF703F8002808BF4C4620463946FAF719
:10535000E0FF00284FF0010008BF3C4618BF0220C4
:105360008AF8190020464946FAF7D3FF00281CBFE7
:105370004CF6CD44C3F6CC5420463146FAF7E5FF4F
:105380004CF2000100281CBF46F26664C3F6667446
:10539000C4F279412046FAF73EFFFBF70BF840F2E2
:1053A000E73142F63442ABF80600091A80B2C4F283
:1053B0000102ABF80810106088B2506005B0BDE87B
:1053C000F08F00007F2888BF7047F0B581B00F468E
:1053D0009F292CD840F60044C4F201041546064625
:1053E00020464FF480610022FDF7E2FA721C7B1C1C
:1053F000F0B2F9B2D2B2DBB200F004F968BAADF89B
:105400000200204601210122FDF7D2FA40F6747015
:10541000C2F200000DF1020102224FF0FF33FEF74D
:10542000B9FC20464FF480610122FDF7C1FA01B0BA
:10543000BDE8F040704700002DE9F04782B00478E5
:10544000002C3DD040F6004940F6747AC4F20109C0
:10545000451CC2F2000A0DF1070802E0013C2006DB
:105460002ED015F8020B01218DF8070048460022C6
:10547000FDF79EFA5046414601224FF0FF33FEF7FA
:1054800089FC15F8016C16F07F070CD04846012105
:105490000122FDF78DFA504629463A464FF0FF3378
:1054A000FEF778FC3D4470B2B0F1FF3FD6DC15F852
:1054B000010BFF2808BF4FF4FA70FDF72FF8CDE776
:1054C00002B0BDE8F08700007F2898BF9F2901D96E
:1054D000704700BF2DE9F04381B0904640F600468A
:1054E00002449946C4F20106802A03EB0102089D9A
:1054F00088BFC0F18008A02A88BFC1F1A009044676
:1055000030460F464FF480610022FDF751FA08EB58
:10551000040009EB070101380139C2B2CBB2E0B295
:10552000F9B200F06FF868BA5FEA0941ADF802001D
:1055300018BF5FEA08401BD040F67477C2F200073C
:105540000DF10205444600BF304601210122FDF75E
:105550002FFA3846294602224FF0FF33FEF71AFC95
:10556000013C2004F0D1A9F101095FEA0940E9D129
:1055700030464FF480610122FDF71AFA01B0BDE810
:10558000F043704780B582B084460020002180221D
:10559000A023CDF800C0FFF797FF02B080BD000048
:1055A00010B540F60044C4F2010420464FF4806177
:1055B0000022FDF7FDF9204602210022FDF7F8F94F
:1055C0000520FCF7ABFF204602210122FDF7F0F990
:1055D0004CF2BA00C0F60000FFF72EFF4CF2F500C7
:1055E000C0F60000FFF728FF4CF20210C0F60000E2
:1055F000FFF722FF20464FF480610122BDE81040F2
:10560000FDF7D6B92DE9F04782B040F6004A0746CB
:105610002A20C4F2010A164689468DF80500504634
:105620000121002298460024FDF7C2F940F6747566
:10563000C2F200050DF10501284601224FF0FF33AB
:10564000FEF7A8FB5046012101228DF801408DF89C
:1056500002708DF803408DF80460FDF7A9F90DF193
:1056600001062846314604224FF0FF33FEF792FB35
:105670002B208DF80600504601210022FDF798F9F5
:105680000DF10601284601224FF0FF33FEF782FBA1
:105690005046012101228DF802908DF80480FDF71B
:1056A00087F92846314604224FF0FF33FEF772FB9C
:1056B0002C208DF80700504601210022FDF778F9D3
:1056C0000DF10701284601224FF0FF33FEF762FB80
:1056D00002B0BDE8F08700002DE9F04F89B0074621
:1056E00040F6004015468A46C4F201004FF480613E
:1056F00000221C46FDF75CF92B78002B00F0D080CF
:10570000C4F307202A4600285FFA84F9079000F0C6
:105710008580B9F1000F4FEA1420029000F09E80BE
:10572000DDE9131040F674754FEA11284FEA102B8B
:10573000C2F200050DF1220601940AE0049FDDF893
:1057400014A0019C039A4F4412F8013F002B00F073
:10575000A780B8B248447F280CD907998A441FFA19
:105760008AF001449F2900F29B80202B4FF0000714
:10577000EAD001E01FFA8AF00392029AE11910447C
:1057800001390138CAB21C46C3B2F8B25FFA8AF1D5
:105790000497CDF814A0FFF735FF0799A4F1200076
:1057A00048431299002701EB4000069004E000BF37
:1057B000079801378742C1D006984FF0000A30F8A9
:1057C000174017E0149801218DF8210040F60040A1
:1057D000C4F2010001228DF820B0FDF7E9F8284657
:1057E00008A902224FF0FF33FEF7D4FA0AF1010AAA
:1057F000D145DDD004FA0AF00004E3D51398012165
:105800008DF8230040F60040C4F2010001228DF81B
:105810002280FDF7CDF828463146E2E7AAF10100E3
:10582000561CC5B20DE000BFE0190138C2B2F8B293
:105830005FFA8AF12B46FFF7E5FE4F4416F8013B6D
:1058400073B3B8B248448028EED3BAF19F0F27D87B
:10585000202B4FF00007E7D1F0E700BF551C0FE009
:105860001FFA8AF002997A1E08440138C3B2F8B2CE
:105870005FFA8AF1D2B2FFF7C5FE15F8013B7BB1A2
:10588000B8B27F28ECD907998A441FFA8AF00144FC
:105890009F2905D8202B4FF00007E3D1EDE700BF8B
:1058A00040F60040C4F201004FF480610122FDF790
:1058B0007FF809B0BDE8F08F7047000010B508B35D
:1058C00040F25024C2F200042079002818BF10BD15
:1058D00040F2FA110020C2F200014FF47A726064C3
:1058E000606360610A80E060C4E90A00607140F2B0
:1058F0003840C4F200000260FDF760F860620120E9
:10590000207110BD40F2502040F2FA12C2F20000A5
:105910000021C2F200024FF47A7381804164416336
:1059200041611380C160C0E90A1140F23840C4F2FD
:105930000000036010BD00002DE9F04F81B0FDF7BD
:105940003DF840F25026C2F200063179DFE811F04E
:1059500004002C010E001E0040F23840C4F200008A
:105960004FF47A71016001B0BDE8F08F316B401ADD
:105970003228C0F0708140F200210020C2F2000104
:105980007063F0810870032064E100BF40F20020E2
:10599000C2F200000178002900F05D810021017051
:1059A00040F24820C2F200008088716B0844F189FF
:1059B000706301318AB2142AF181C0F04C814CF637
:1059C000CD41CCF6CC41A0FB0101C1F30F10FAF799
:1059D000D3FC0021CCF2E1313061FAF7C4FB4CF684
:1059E000CD41C3F6EC71FAF716FC0021C4F2FA318E
:1059F0000446FAF7AAFC0025C4F2C81500281CBF0B
:105A00000024C4F2FA3420462946FAF79EFC002806
:105A100008BF2C46B463B46BF06B4FF07C51FAF7BF
:105A2000FAFB054620464FF07C51FAF7F4FB294675
:105A3000FAF799FBB063B06BF06341F2F000C2F289
:105A4000000000693064306CB16BFAF7DEFB4CF695
:105A5000CD41C3F6CC518346FAF7DDFB4CF6CD4180
:105A6000746C8046C3F64C515846FAF7D4FB4FF09D
:105A70007C51FAF7D0FB2146FAF775FB0746404602
:105A80003946FAF770FB4FF07E510546FAF75DFC98
:105A9000814658460021FAF758FC824628460021E4
:105AA000FAF737FC054658460021FAF732FC002881
:105AB000384618BF2046002D08BF3846BAF1000FFF
:105AC00008BF0446B9F1000F08BF044620464FF056
:105AD0007E51FAF73AFC002818BF4FF07E5420465A
