:020000040800F2
:10000000E014002001010008A94A00082D4A000858
:10001000A54A0008011000088D82000800000000B9
:100020000000000000000000000000004154000833
:100030006D10000800000000AD4A00086557000878
:100040001B0100081B0100081B0100081B01000820
:100050001B0100081B0100081B0100081B01000810
:100060001B0100081B0100081B01000855100008B7
:100070001B010008611000081B0100081B0100089B
:100080001B0100081B010008890500081B0100086E
:10009000517500081B0100081B0100081B01000826
:1000A0001B0100081B0100081B0100081B010008C0
:1000B0001B010008B9570008C55700081B010008BC
:1000C0001B0100081B0100081B0100081B010008A0
:1000D0001B0100081B0100081B0100081B01000890
:1000E0001B0100081B0100081B010008DFF80CD0F1
:1000F00000F0E8F900480047E5860008E014002019
:100100000648804706480047FEE7FEE7FEE7FEE7B1
:10011000FEE7FEE7FEE7FEE7FEE7FEE769570008B9
:10012000ED00000810B5044604E00B7800F8013B30
:1001300003B1491C521EF8D2204610BD421C10F8D3
:10014000011B0029FBD1801A704710B5002200E086
:10015000521C835C8C5CA34201D1002BF8D1D8B235
:10016000E1B2401A10BDF0B480EA0102D40F42009F
:10017000B2EB410F02D20246084611464A0042D075
:10018000C30DDDB2C1F3C752AD1A202D35DAC1F36C
:10019000160141F4000204B15242C5F1200602FAF0
:1001A00006F12A411044B3EBD05F23D0C4B1012D36
:1001B000A0EBC35009DCF0BC4FF0004202EAC3528E
:1001C000DBB200F5000000F043B9400000F18070A0
:1001D00000EBC350A0F1807040EAD170490009E003
:1001E000490841EAC071A0EBC35000F50000400887
:1001F00000EBC350F0BC00F022B96142012202EBD7
:100200004101001BF6E7F0BC704781F00041AAE70E
:1002100080F00040A7E780EA010210B502F0004339
:10022000400022D04A001FD0010E01EB1261C0F342
:100230005600C2F3560240F4000042F40002A0FB54
:10024000022000047F39140400D0401C50EA124000
:1002500001D44000491EC2B20C0604EBD010401C71
:100260004008802A02D003E0002010BD20F00100E9
:10027000002900DA0020184310BD30B480EA0102E2
:1002800002F0004530F0004221F0004013D090B160
:10029000C30DD40DC2F31601C0F31600E41A41F4E5
:1002A000000140F400027D34914201D3641C00E05F
:1002B0004900002C02DA30BC002070474FF40000E7
:1002C0000023914201D3891A034340084FEA4101B8
:1002D000F7D151B1914202D14FF0004105E002D275
:1002E0004FF0010101E06FF0010103EBC45028441D
:1002F00030BC00F0A4B8002801DBC0F100400029A8
:1003000001DBC1F10041814201D80120704700208A
:100310007047002801DBC0F10040002901DBC1F17A
:100320000041814201D2012070470020704700281F
:1003300001DBC0F10040002901DBC1F10041814235
:1003400001D30120704700207047002801DBC0F175
:100350000040002901DBC1F10041814201D90120A7
:10036000704700207047C10F80EAE0700844CA0758
:100370009623002100F06CB896230022114600F06D
:1003800067B800F0004220F00040C10DC0F3160035
:1003900040F400007F2901DA00207047962903DC31
:1003A000C1F19601C84001E096398840002AF4D096
:1003B0004042704720F00040C10DC0F3160040F4E9
:1003C00000007F2901DA00207047962903DCC1F183
:1003D0009601C84070479639884070472DE9F05F14
:1003E0000546002092469B468846064681464024A4
:1003F0001BE0284641464746224600F08AF853460D
:100400005A46C01A914110D311461846224600F0B0
:1004100071F82D1A67EB01084F4622460120002192
:1004200000F068F817EB00094E41201EA4F101040A
:10043000DFDC484631462A464346BDE8F09F0029A6
:10044000A8BF7047401C490008BF20F0010070475A
:1004500010B4B0FA80FC00FA0CF050EA010404BFBA
:1004600010BC704749B1CCF1200421FA04F411FA10
:100470000CF118BF012121430843A3EB0C01CB1D54
:100480004FEA00614FEA102042BF002010BC7047C5
:1004900000EBC35010440029A4BF10BC7047401C9F
:1004A000490008BF20F0010010BC7047420005D091
:1004B000C0F3C7525242914201DC0020704700EB6A
:1004C000C15070471CB50948009009480190054685
:1004D000009C06E0E06840F0010394E807009847BC
:1004E0001034AC42F6D3FFF705FE000048BB00080D
:1004F00068BB0008202A04DB203A00FA02F1002041
:1005000070479140C2F1200320FA03F31943904051
:100510007047202A04DB203A21FA02F000217047BC
:1005200021FA02F3D040C2F120029140084319465B
:10053000704770B58C1810F8015B15F0070301D1F6
:1005400010F8013B2A1106D110F8012B03E010F836
:10055000016B01F8016B5B1EF9D12B0705D4002359
:10056000521E0DD401F8013BFAE710F8013BCB1AFB
:10057000921C03E013F8015B01F8015B521EF9D5F0
:10058000A142D8D3002070BD80B540F22C20C2F229
:10059000000001F045F840F23C30C2F20000BDE836
:1005A000804001F03DB80000B0B5044600688168A5
:1005B000C90701D10020B0BD816821F0010181602F
:1005C00002F020F8054600BF20688068C007F1D01F
:1005D00002F018F8401B0328F6D3A06A40F0100080
:1005E000A062E06A40F00100E0620120B0BD0000BE
:1005F0000146406A826A12F0500F03D0006A026B13
:10060000084610470168826A42F400728262896873
:1006100001F46021B1F5602F01D1017B11B100F02F
:100620007BBF00BF816A21F480718162816AC90445
:1006300048BF00F071BF816A41F00101816200F0A2
:100640006BBF0000406A816A41F040018162C16A6B
:1006500041F00401C16200F0DDBF0000406A00F01B
:10066000D7BF0000B0B582B00446002001902168D9
:100670008A68D2073FD1886840F00100886040F264
:100680009000C2F2000000684DF68361C4F21B3195
:10069000A0FB0101880C01900198A0B101980138DC
:1006A0000190019878B1019801380190019850B1FA
:1006B000019801380190019828B101980138019002
:1006C00001980028EAD101F09DFF05462068806866
:1006D000C00713D101F096FF401B0328F6D3A06A90
:1006E00040F01000A062E06A40F00100E0620020EB
:1006F00084F82400012002B0B0BD00BF002002B089
:10070000B0BD00002DE9F04F81B040F2AC398A460F
:10071000C2F200090028C9F80800C9F8101000F05A
:10072000BC800669054630460021FFF7E4FD28B984
:100730006F6900213846FFF708FE20B90026C4F291
:1007400040164FF0804700214FF6004BC4F2F011E5
:100750003046C0F6000BFFF7F8FD00281CBF00264E
:10076000C4F2F01630464FF07E514FF07E54FFF742
:10077000ECFD00210028C4F22011384608BF2646AF
:100780002E61FFF7E2FD4CF6CD48C3F6CC580028A9
:100790001CBF0027C4F2201738464146FFF7D5FD9D
:1007A0000024002808BF47462C83DBF8000042F2F3
:1007B0002601CBF6BA2188426F616DD1DBF80400C7
:1007C000012869D1DBE902674BF6E871C0F6FF61E9
:1007D00045F6BE223144CFF6C642514007EB8112A6
:1007E00047F6B91302EB9102C9F63763DBF8100044
:1007F0001A44514081424FD10021C4F2F0113046D9
:10080000FFF7A3FD00281CBF0026C4F2F0163046F7
:100810004FF07E514FF07E5BFFF797FD00210028DF
:10082000C4F22011384608BF5E462E61FFF78DFDE9
:1008300000281CBF0027C4F2201738464146FFF7A6
:1008400084FD40F2844200284FF00000C2F2000212
:1008500008BF47466F61287640F22441107082F845
:10086000200082F8400040F2E442C2F20001C2F2ED
:10087000000281F84000107082F8200089F85800CA
:1008800089F868000870087481F8200089F8480029
:1008900081F8300089F800002C83BAF1000F09D0EC
:1008A00050463C2103F0CEFCD9F810000068406AA5
:1008B000A9F8040004F038FC002089F80200A9F827
:1008C000000000F0D5FB04F0F9FF012001B0BDE805
:1008D000F04F06F0ABBE00002DE9F04385B040F2CA
:1008E000AC39C2F20009D9F80800002877D0D0E965
:1008F00004564BF6E870C0F6FF6045F6BE2128446A
:10090000CFF6C641484006EB801147F6B91201EB1D
:100910009001C9F63762114481EA000701F044FDF5
:100920004FF6004401204FF00008C0F60004049088
:1009300001A86946CDE90088039401F027FC012055
:10094000214642F22602002301F0A2FCA11C012054
:100950004BF6BA22002301F09BFC211D012001224D
:10096000002301F095FCA11D01200022002301F0CD
:100970008FFCAAB204F108010120002301F088FCD9
:100980002A0C04F10A010120002301F081FCB2B21B
:1009900004F10C010120002301F07AFC320C04F177
:1009A0000E010120002301F073FCBAB204F1100122
:1009B0000120002301F06CFC3A0C04F1120101202B
:1009C000002301F065FC01F059FC01F01BFE00F56D
:1009D0004870C9F80C0089F8488089F8008005B093
:1009E000BDE8F0832DE9F04F81B040F2AC36C2F2A1
:1009F0000006B068002800F04A8140F60048C4F2C2
:100A0000010840464FF4007101F0F0FD0546044630
:100A1000002818BF012501F0F5FD40F20407C2F2DD
:100A20000007B978A94236D0316B411A232932D355
:100A30003063BD707CBB04F08BFF18B1002004F064
:100A40008DFF28E0707840F28442013818BF012001
:100A50000021C2F20002707040F22440117082F84E
:100A6000201082F8401040F2E442C2F20000C2F2CC
:100A7000000280F84010117082F8201086F858109B
:100A800086F868100170017480F8201086F848100C
:100A900080F83010317040464FF4807101F0A6FDAF
:100AA00004460546002818BF012401F0ABFD397942
:100AB000A14237D0716B411A232933D370633C7143
:100AC00085BB04F045FF18B1012004F047FF29E081
:100AD000707840F28442023818BF012040000021A3
:100AE000C2F20002707040F22440117082F82010AF
:100AF00082F8401040F2E442C2F20000C2F200026A
:100B000080F84010117082F8201086F8581086F88E
:100B100068100170017480F8201086F8481080F881
:100B2000301031704046802101F060FD04460546DA
:100B3000002818BF012401F065FDB979A14241D018
:100B4000B16B411A23293DD3B063BC71D5BB04F00E
:100B5000FFFE18B1022004F001FF33E0B068017E0F
:100B6000B1FA81F25209027611B10021417603E017
:100B7000417E002900F0F881FFF7AEFE40F284428A
:100B80000021C2F2000240F22440117082F82010CD
:100B900082F8401040F2E442C2F20000C2F20002C9
:100BA00080F84010117082F8201086F8581086F8EE
:100BB00068100170017480F8201086F8481080F8E1
:100BC000301031704046402101F010FD04460546CA
:100BD000002818BF012401F015FD397AA14218D070
:100BE000F16B411A232914D3F0633C728DB904F0E0
:100BF000AFFE18B104F05AFE012202E004F02AFE12
:100C000000220020B070307040464FF4004101F0E7
:100C1000F3FC4046102101F0E9FC0546044600289B
:100C200018BF012501F0EEFCB97AA9422FD0316C32
:100C3000411A23292BD33064BD7244BB707802283B
:100C40000ED0012823D138780130C1B2032988BFE2
:100C50000020387040F28440C2F20000203011E0E1
:100C600078780130C1B2022988BF0020787040F244
:100C70008440C2F20000002180F8201040F2E440DD
:100C8000C2F200000021017086F8681031703069EE
:100C9000002800F02B810068406AB188B080411ABA
:100CA000706C09B2084404287064C0F28B80B1688B
:100CB00000297BD040F2040B4CF6CD4540F284492C
:100CC000C2F2000BC3F6CC55C2F200094FF0000A85
:100CD00004380029706461D004F03AFE20B101208C
:100CE00004F076FD59E000BF707802282AD0012870
:100CF00053D19BF80000D6F808804BF66021C0F66F
:100D0000000151F82000D8F81010FFF72CFA00214C
:100D1000C4F2F0110746FFF718FB00281CBF00279C
:100D2000C4F2F01738464FF07E51FFF70EFB002853
:100D30004FF07E5008BF0746C8F8107089F820A011
:100D400027E000BF9BF80100B4684BF68021C0F695
:100D5000000151F820006169FFF705FA0021C4F293
:100D600020110746FFF7F1FA00281CBF0027C4F244
:100D7000201738462946FFF7E8FA002840F2E440F9
:100D8000C2F2000008BF2F46676189F820A080F8F2
:100D900000A086F868A086F800A0706C032811DD1A
:100DA000B16804380029706496D1F7E7C11F38BFD5
:100DB00000214FF6FC720331C7F6FF721140401A52
:100DC0000438706410F1040F00F39080B1680029BA
:100DD00000F07E8040F2040B4CF6CD4540F2844991
:100DE000C2F2000BC3F6CC55C2F200094FF0000A64
:100DF00004300029706461D004F0AAFD20B14FF0E6
:100E0000FF3004F0E5FC58E0707802282AD0012871
:100E100053D19BF80000D6F808804BF66021C0F64D
:100E2000000151F82010D8F81000FFF7EEF900216A
:100E3000C4F2F0110746FFF788FA00281CBF00270C
:100E4000C4F2F01738464FF07E51FFF77EFA0028C3
:100E50004FF07E5008BF0746C8F8107089F820A0F0
:100E600027E000BF9BF80100B4684BF68021C0F674
:100E7000000151F820106069FFF7C7F90021C4F2A2
:100E800020110746FFF761FA00281CBF0027C4F2B3
:100E9000201738462946FFF758FA002840F2E44068
:100EA000C2F2000008BF2F46676189F820A080F8D1
:100EB00000A086F868A086F800A0706C10F1030FFF
:100EC00014DAB16804300029706495D1F6E700BFE8
:100ED0006FF00601091A38BF00214FF6FC7203318A
:100EE000C7F6FF72114008440430706404F030FD0E
:100EF00060B1B07880F0010004F050FDB0780028B7
:100F000004BF0120B07001B0BDE8F08FB06818B127
:100F1000017EB9B1417EB9B1B078D0B13078012845
:100F200005D101F06FFB7169401A3C28EBD301F049
:100F300069FB012170610020317001B0BDE8F04F04
:100F400006F074BB002100E001214176B078002852
:100F5000E4D10120B070307000F08AF8012001B0B7
:100F6000BDE8F04F06F062BB0121FFE570B540F22D
:100F7000E816C2F2000606F14404204600F0AEF97D
:100F800042F63440C4F2010000210160382040F6EE
:100F9000D875C4F20000C2F200050160284603F0D3
:100FA0004FFC2846002102F0BBFE2846042103F036
:100FB00047FC2846042102F0B3FE06F13C0120461E
:100FC000042200F06BFE4FF42F7001F0CBF840F2DA
:100FD0003C30C2F2000000F1300140F25800C2F291
:100FE0000000FFF78FFB41F21800C2F2000002F090
:100FF0005FFF7069002818BF70BD00BFFEE70000EA
:10100000FEE70000002070470020704710B540F652
:10101000C814C2F2000440F68811C2F20001204652
:10102000002205F02FF840F64811C2F200012046D8
:1010300005F022F8002010BD10B540F6C814C2F229
:1010400000040146204605F017F8204604F0F6FF9C
:10105000002010BD40F68C40C2F2000000F02ABF14
:1010600040F6D040C2F2000000F024BF70470000FC
:1010700070B584B00020002404F048F840F2500518
:10108000C2F20005D5E900304FF4FC61CDE9000162
:1010900055A26E200D21029404F0E2F8D5E900304B
:1010A0004FF6E0714BF60632CDE90001C0F60002C2
:1010B0006E202B21029404F0D3F8D5E900304FF6CE
:1010C0001F064BF60832CDE90006C0F600026E207E
:1010D0004921029404F0C4F8D5E9003043A2CDE9D7
:1010E000000600203C21029404F0BAF8D5E9003053
:1010F00040F2FF76CDE900063DA200206221029475
:1011000004F0AEF8D5E900304BF60B32CDE900061D
:10111000C0F6000255206221029404F0A1F8D5E93E
:10112000003035A2CDE9000600207621029404F0BB
:1011300097F8D5E9003032A2CDE900065C2076218F
:10114000029404F08DF8D5E900304FF47846CDE9EB
:1011500000062CA200208A21029404F081F8D5E92F
:1011600000302AA2CDE9000655208A21029404F01D
:1011700077F8192019214E221F2307F051F9192061
:1011800037214E221F2307F04BF9192055214E22FB
:101190001F2307F045F940F28441C2F200010C70B0
:1011A00081F8204081F8404040F2E441C2F2000161
:1011B00040F224400C7081F8204040F2AC31C2F281
:1011C0000000C2F2000180F8404081F8584081F8E8
:1011D00068400470047480F8204081F8484080F82A
:1011E000304004B070BD00BF5500000053455400AE
:1011F00056696E3A00000000496C696D3A000000C3
:101200004100000054656D703A0000002A43000060
:101210007047000070B542F20C060446C4F20206A4
:1012200001F0F0F93168C9071CD13068800644BF6D
:10123000202030603068C00607D43069C00704D170
:10124000306840075CBF002070BD3068C00641F2C6
:101250009800C2F2000021D400213268520725D440
:101260002AE000BFC4B10546601C10D13068C00739
:10127000DBD03068C0071CBF30685FEAC070D4D0D4
:101280003068C007F2D1D0E73068C007CDD001F098
:10129000B9F9401BA042F7D9032070BDC16941F0E4
:1012A0000201C16110213268520705D5C26941F0BF
:1012B000040142F00102C2613269D20702D1012069
:1012C000316070BDC26942F00402C261306920F031
:1012D000010030610120316070BD000070B582B046
:1012E00004460020019094F82400012802D1022035
:1012F00002B070BD012084F824002046FFF754F9A5
:1013000020B1002184F8241002B070BD0646A06A06
:1013100041F2021188430230A06240F29000C2F212
:1013200000000568022001F0D3FEB5FBF0F040009C
:1013300001900198A8B100BF01980138019001986F
:1013400078B1019801380190019850B101980138A5
:101350000190019828B10198013801900198002866
:10136000EAD12046FFF77EF92068816841F0080144
:10137000816001F047F9054620688168090705D5B5
:1013800001F040F9401B0A28F6D910E0816841F0CD
:101390000401816001F036F9054600BF20688068CD
:1013A000400709D501F02EF9401B0B28F6D3012088
:1013B00010216FF0120203E001216FF003023046AA
:1013C000A36A1A401143A162002184F8241002B0DC
:1013D00070BD00007047000070B581B0002200921F
:1013E00090F82420012A03D10221084601B070BDE3
:1013F0004A680123062A02EB820E80F8243007D8BF
:10140000D0F800C06FF004030CF134060CE000BF0C
:10141000D0F800C00C2A87BF0CF12C066FF04003F7
:101420000CF130066FF022030EEB03021F23346829
:1014300003FA02F50B6824EA050503FA02F22A43CF
:101440003260092B03EB43021AD9DCF80C601E3A18
:10145000072589689540AE43914023F0010231434E
:10146000102ACCF80C1015D142F20041C4F201014F
:101470008C4517D0816A41F02001816201210AE088
:10148000DCF81030072689689640B3439140194331
:10149000CCF810100021002280F82420084601B06A
:1014A00070BD00BF89680902F4D4DCF80810102B65
:1014B00041F40001CCF80810ECD140F29001C2F2E6
:1014C000000109684DF68362C4F21B32A1FB0212CF
:1014D000910C01EB81014900009100990029D9D0BC
:1014E00000990139009100990029D3D00099013960
:1014F000009100990029CDD00099013900910099FF
:101500000029C7D0009901390091009900294FF0B6
:101510000001E5D1BFE700002DE9F041006842F687
:101520000001C4F20101884238D042F20041C4F205
:101530000101884230D140F2E810C2F2000000F10F
:101540002C07818F8CCFB0F842600A44C18F0B44C6
:10155000B919078AC0E90B230137BEB2242E4163B3
:10156000078238BFBDE8F08148F63967C3F6E30764
:10157000A2FB0726A3FB0723A1FB0712F1080181A9
:10158000D9084181D10881810021C0E90B11416353
:101590000182012101704161BDE8F08140F60048FF
:1015A000C4F2010840464FF40061012201F024F822
:1015B00040F23C35C2F20005284600F02DF8064600
:1015C000284600F029F80746284600F025F804468A
:1015D000284600F021F8B1B2BAB21144A2B21144C7
:1015E00080B20844FEF7C8FE4FF07A51FEF713FEB2
:1015F000FEF7C7FE40F2E8170346C2F20007404676
:101600004FF400610022FB81BDE8F04100F0F4BF1F
:1016100070470000704700000068C06C7047000011
:1016200010B5044600684168890644BF01685FEA56
:1016300081710BD44168090644BF01685FEA4171BA
:101640002AD4416849065BD410BD00BFA16AC9060F
:1016500003D4A16A41F40071A162816801F46021A0
:10166000B1F5602F10D1217B71B9416821F02001C3
:101670004160A06A20F48070A062A06AC00403D414
:10168000A06A40F00100A0622046FFF745FF2068F5
:101690006FF012010160CDE7A16AC90603D4A16A07
:1016A00041F40051A162816801F4E041B1F5E04FDD
:1016B00010D1416821F080014160A06A20F480507F
:1016C000A062A06AC00511D4A06A40F00100A06227
:1016D0000CE000BF4168490508D4816801F460212D
:1016E000B1F5602F02D1217B0029E2D02046FFF71F
:1016F00071FE20686FF00C01016041684906A3D5B6
:101700000068C00708BF10BDA06A40F48030A06226
:10171000204600F0A9F820686FF00101016010BDBB
:10172000002804BF01207047B0B50446806A28B184
:1017300020688168C9070CD032E000BF0020E06259
:1017400084F82400204600F091F820688168C907D9
:1017500026D1A16AC9063DD4A16A41F20212914381
:101760000231A162E169D4E9013241EA030C531E5E
:10177000B3FA83F35D091346B2F5807F18BF2B02DD
:10178000217D257B01294CEA45012ED145B3A56A6F
:1017900045F02005A562E56A45F00105E56224E013
:1017A000816821F00101816000F02CFF054600BF37
:1017B00020688168C907CCD000F024FF401B0328B3
:1017C000F6D3A06A40F01000A062E06A40F0010089
:1017D000E062A06AA06A40F01000A0620120B0BDE3
:1017E000A56903EB4533A3F5C0534568B2F5807F87
:1017F00025F4694543EA0503436083684FF2FD75AC
:10180000CFF6E17503EA050343EA0103836001D0E3
:10181000012A07D122690023CFF6F07303EB0252AD
:1018200001E000BF0022C36A23F470031A43C262BE
:10183000806840F6FE62CFF61F721040884207D1E2
:101840000020E062A16A012262F30101A162B0BD41
:10185000A06A40F0100020F00200A062E06A40F0B0
:101860000100E0620120B0BD70470000F0B585B016
:10187000016842F60002C4F2010291424FF00002F8
:10188000CDE90322CDE9012246D042F20042C4F262
:101890000102914269D1074641F21800C4F20200E8
:1018A000016841F400710160016801F40071009168
:1018B0000099016841F004010160006801A900F08D
:1018C0000400009000985B2001900320029040F6F5
:1018D0000000C4F2010000F07FFD40F68C440820B7
:1018E000C2F20004C4F202000021C4E9000104F1C4
:1018F000080080224FF480734FF4806520266EC06C
:101900002046E16100F0A4FB002818BFFFF780FC2F
:101910003C62676221E000BF41F21800C4F202009D
:10192000016841F480610160016801F48061009107
:101930000099016841F004010160006801A900F00C
:10194000040000900098042001900320029040F6CB
:101950000000C4F2010000F03FFD1220002100222F
:1019600000F0D0FE122000F0BBFE05B0F0BD00007C
:101970002DE9F04182B000270D460446019700F0A2
:1019800041FE21688A68D20544D406464868C005ED
:1019900003D4C86A10F4700F46D040F29000C2F22F
:1019A0000000076842F292480220C1F2492801F083
:1019B0008FFB216844F624130A69B7FBF0F0C2F2EA
:1019C00092431A4206D1CA6844F62413C0F2920325
:1019D0001A4249D00A6912EA080F07D1CA6842F2CE
:1019E0009243C0F249031A4200F084800A6949F226
:1019F0004923C0F224031A424FF0FC0242D1CF68BF
:101A00001F4208BF5422019B02FB00F7BB423ED39A
:101A100079E000BFA06A40F02000A06284F8247042
:101A2000012002B0BDE8F081086880076BD4002D6A
:101A300055D0681C12D10868800764D408688007F4
:101A40005CBF08685FEA80705DD408688007F2D5E3
:101A500059E000BF21680868800754D400F0D2FD27
:101A6000801BA842F6D93AE00A6912EA080F4FF043
:101A7000290207D1CB6842F29247C0F249073B42A4
:101A800008BF1422019B02FB00F7BB423BD235B3D7
:101A9000681C1FD10198013001900198B84232D2E0
:101AA0000198013001900198B8422CD20198013080
:101AB00001900198B84226D2019801300190019816
:101AC000B842E7D31FE000BF0198013001900198B0
:101AD000B84217D200F096FD801BA842F4D9A06A44
:101AE00040F00400A062002084F82400032002B02B
:101AF000BDE8F0815422019B02FB00F7BB42C6D334
:101B000001E000BF21686FF012000860A06A40F495
:101B10000070A062886800F46020B0F5602F01D1E9
:101B2000207B18B1002002B0BDE8F081A06A20F44B
:101B30008070A062A06AC004F4D4A06A40F00100E2
:101B4000A062002002B0BDE8F0810000B0B582B014
:101B5000044690F82400012802D1022002B0B0BD52
:101B6000012084F824000020019020688168C907C2
:101B700042D1816841F00101816040F29000C2F2DF
:101B8000000000684DF68361C4F21B31A0FB010127
:101B9000880C01900198A0B101980138019001983A
:101BA00078B1019801380190019850B1019801383D
:101BB0000190019828B101980138019001980028FE
:101BC000EAD100F01FFD054620688168C90713D1DE
:101BD00000F018FD401B0228F6D9A06A40F0100062
:101BE000A062E06A40F00100E062002084F8240076
:101BF000012002B0B0BD00BFA26A42F2044140F22F
:101C00000133C4F201019A4302F5807301F57F723A
:101C10009042A3622AD0A36A23F48013A36243688C
:101C20005B0504D5A36A012565F30D33A362A56A9C
:101C30000023ED044FF0000544BFE56A25F00605DA
:101C4000E56284F824306FF002030360836803F4D4
:101C50006023B3F5602F19D1904213D0816841F40D
:101C6000A0018160002002B0B0BD00BF0B6813F47A
:101C7000702FD0D0A36A43F48013A3620B685B0576
:101C8000D0D4D4E7096811F4702FE7D0816841F40B
:101C900080118160002002B0B0BD0000F0B581B0BD
:101CA0000446036842F60000C4F20100834205D0F6
:101CB00042F20040C4F2010083420BD142F20440E0
:101CC000C4F20100006810F4702F03D0012001B0AD
:101CD000F0BD00BF94F82400012803D1022001B018
:101CE000F0BD00BF012084F8240000200090986817
:101CF0000E461546C00743D198684DF6836140F003
:101D00000100986040F29000C2F200000068C4F246
:101D10001B31A0FB0101880C00900098A8B100BF06
:101D2000009801380090009878B100980138009030
:101D3000009850B1009801380090009828B10098A0
:101D40000138009000980028EAD100F05BFC0746BB
:101D500023689868C00713D100F054FCC01B022808
:101D6000F6D9A06A40F01000A062E06A40F00100DD
:101D7000E062002084F82400012001B0F0BD00BF23
:101D800042F20440A16AC4F2010040F6017291439C
:101D900000F57F7201F580719342A16246D0A06A7E
:101DA00020F48010A0625868400504D5A06A012183
:101DB00061F30D30A062A16A0020C9044FF0000158
:101DC00044BFE16A21F00601E16284F82400206A40
:101DD00040F2F151C0F6000140F25D6240F2456709
:101DE00000F1280CC0F60002C0F600078CE886005F
:101DF0006FF0020119609968324641F48071996070
:101E000003F14C012B4600F05DF92068816801F474
:101E100060228168B2F5602F0CBF41F4A00141F44B
:101E200080118160002001B0F0BD00BF016811F495
:101E3000702FB4D0A16A41F48011A16200684005FE
:101E4000B4D4B8E7B0B5044690F82400012804BF24
:101E50000220B0BD0121206884F824108168C907E0
:101E600008D1214651F8280F41F2011220EA02025E
:101E7000002018E0816821F00101816000F0C2FBC0
:101E8000054600BF20688068C007EAD000F0BAFBB2
:101E9000401B0328F6D3A06A214640F01000A06240
:101EA00051F82C2F012042F001020A60002184F831
:101EB0002410B0BD10B5D0E90FCE0168DCF80030B9
:101EC0000A6823FA0EF35C072AD512F0040427D01F
:101ED0000A68920603D40A6822F004020A602F22DC
:101EE000C4F20202914240F20402C4F2020259DD3D
:101EF0003023C4F20203994270D04423C4F2020397
:101F0000994271D05823C4F20203994278D14FF418
:101F100080231360C16A002940F097806EE000BF03
:101F20009C0727D512F0020424D00A68920606D432
:101F30000A6822F00A020A60012280F821202F227A
:101F4000C4F20202914240F20402C4F2020239DDFC
:101F50003023C4F2020399425ED04423C4F2020348
:101F600099425DD05823C4F2020399425ED14FF4E6
:101F7000003363E01B0741D512F0080208BF10BD13
:101F80000A6822F00E020A60012101FA0EF2CCF872
:101F900004208163016B4FF480720029028454D1C4
:101FA0002CE000BF0823C4F20203994222D01C2374
:101FB000C4F20203994223D140231360C16A00296D
:101FC00043D11BE00823C4F2020399422CD01C2306
:101FD000C4F20203994229D120232FE04FF48063F9
:101FE0001360C16A89BB09E04FF480431360C16A82
:101FF00059BB03E004231360C16A31BB10BD00BFAD
:1020000002F168044FF08063A14208BF4FF48003DF
:102010001360C16AC9B9F1E74FF400730EE000BF65
:102020004FF400530AE000BF022307E002F1680406
:102030004FF00073A14208BF4FF400131360816A90
:102040000022002980F82020D8D0BDE810400847A1
:10205000002804BF012070472DE9F04101684FF6C8
:10206000F872CBF6FD724CF6CD430A44CCF6CC4365
:10207000A2FB03236FF0030202EA93020023C4F2DF
:10208000020300F1040E00F11007C0E90F329EE8D0
:102090000051F0CF0A6843F6F0739A4342EA08020F
:1020A00042EA0C0242EA0E0222432A4332433A43F6
:1020B0000A6000214FF4807281630284BDE8F04120
:1020C0000846704790F820C0BCF1010F04BF022001
:1020D0007047F0B590F821C04FF0010EBCF1010F30
:1020E00080F820E026D14FF0020C80F821C04FF09C
:1020F000000CC0F838C0D0E900C4C56AC66BDCF873
:102100000070102C27F00107CCF80070006C0EFA5C
:1021100000F070600846CCF8043004BF10460A4650
:10212000CCF80800CCF80C20DCF8000045B140F0F9
:102130000E000DE0002180F820100220F0BD00BF4D
:1021400020F00400CCF80000DCF8000040F00A00A9
:10215000CCF80000DCF8000040F00100CCF80000F2
:102160000020F0BDB0B5044600F04CFA054640F240
:102170001C00C2F200000078611C18BF044400BFBC
:1021800000F040FA401BA042FAD3B0BD2DE9F04365
:1021900081B041F29805C2F200052A7E012A03D1DE
:1021A000022001B0BDE8F0830446012026682876AD
:1021B0004CF250308846FFF72DF8022E1CD1002833
:1021C0004ED1002042F21004E861C4F202042068FB
:1021D00040F004002060206840F0400020604CF295
:1021E0005030FFF717F8216821F004012160002129
:1021F000297601B0BDE8F08390BB4FF0FF30C8F8FE
:102200000000D4E9027007EB8020874228D242F216
:102210001006C4F202064FF0000900BFC5F81C907A
:10222000306840F0020030607760306840F0400075
:1022300030604CF25030FEF7EDFF316821F00201C2
:10224000316098B9D4E9020107F5806700EB81207D
:102250008742E3D300200021297601B0BDE8F08356
:1022600001200021297601B0BDE8F083C8F8007094
:102270000021297601B0BDE8F083000042F2100190
:10228000C4F20201086840F0800200200A60704732
:102290002DE9F04381B041F29807C2F200071646DB
:1022A0003A7E012A04D1022001B0BDE8F08300BFCC
:1022B0000546012038764CF250300C469946FEF720
:1022C000A9FF28B10021397601B0BDE8F08300BF35
:1022D00042F210080020C4F20208F861D8F80000A9
:1022E00040F00100C8F800004CF250302680FEF7A4
:1022F00091FFD8F80010002821F00101C8F8001063
:1023000018BF0046DED1012DDCD00020F861D8F8DE
:102310000000310C40F00100C8F800004CF25030D1
:102320006180FEF777FFD8F80010002821F0010146
:10233000C8F80010C6D1E81E10F1030F4FF00000DE
:10234000C0D8F861D8F8000040F00100C8F80000DB
:102350004CF25030A4F80490FEF75CFFD8F800105F
:10236000002821F00101C8F80010ABD10020F8616D
:10237000D8F800004FEA194140F00100C8F8000009
:102380004CF25030E180FEF745FFD8F800100028ED
:1023900021F00101C8F8001018BF0046002139766D
:1023A00001B0BDE8F083000042F20400C4F2020074
:1023B000C16809065CBF0020704740F22311C4F2D7
:1023C0006751016048F6AB11CCF6EF510160C0686F
:1023D000C0B2C009704700002DE9F04F82B00E680E
:1023E000002E00F0FF8040F20C4C40F2004E41F213
:1023F0000042C4F2010CC4F2010EC4F2010204272F
:10240000002401234FF0000A4FF00009904208BF5A
:102410000327009749E000BF41F20002C4F2010225
:10242000009F904208BF022704F00C030F229A403D
:102430002BEA020207FA03F34FEA9A051A4346F819
:1024400025204E68F203DEF8002054BF22EA08027D
:1024500042EA0802CEF80020DEF80420B30354BF9D
:1024600022EA080242EA0802CEF80420F302DEF86B
:10247000082054BF22EA080242EA0802B302CEF85A
:102480000820DCF800204FF0010354BF22EA0802C4
:1024900042EA0802CCF800200E680AF1010A36FA76
:1024A0000AF204F1040400F09D8003FA0AFB16EA24
:1024B0000B08F1D04E684FF6FF72C1F2100296423F
:1024C00012DC122E56D8DFE806F0350B4D49555573
:1024D000555555555555555555555545510000BF00
:1024E000D1F80C9046E000BF4FF6FF72C1F2210216
:1024F00096420FDC0022C1F2110296421AD000224D
:10250000C1F21202964215D00022C1F22102964277
:1025100010D02FE00022C1F2220296420AD00022FF
:10252000C1F23102964205D00022C1F23202964237
:1025300020D100BF8A684AB1012A14BFC0F814B084
:10254000C0F810B04FF0080914E000BF4FF00409C4
:1025500010E000BFCA6802F104090BE04FF0000967
:1025600008E000BFCA6802F1080903E0CA6802F186
:102570000C0900BF02462646B8F5807F24BF04320E
:10258000203E17680F25B54027EA050509FA06F62B
:1025900035431560CA79D2067FF57EAF41F2180344
:1025A000C4F202031A68AEF57E7642F001021A60A8
:1025B0001A6802F001020192019A2AF0030256F809
:1025C00002B040F60002C4F20102904208D040F688
:1025D0000042C4F2010290427FF41EAF012723E7BC
:1025E000002721E702B0BDE8F08F000080680840B6
:1025F00018BF012070470000002A08BF09040161CC
:102600007047000041F2DC00C2F200000068704731
:1026100040F21C0041F2DC01C2F20000C2F20001F3
:1026200000780A68104408607047000080B542F2E4
:102630000000C4F20200016841F0100101600320B3
:1026400000F08CF8002000F005F800F027F80020DA
:1026500080BD000070B540F21C06C2F2000640F2D8
:1026600090013278C2F200014FF47A730968B3FB2B
:10267000F2F20446B1FBF2F1084601F0D3FA0F2C56
:102680004FF0010508D838B94FF0FF30214600223D
:10269000002500F037F87460284670BD82B041F222
:1026A0001800C4F202000168022241F00101016039
:1026B000016801F0010101910199416841F08051E7
:1026C0004160406800F08050009000980420C4F2FF
:1026D0000100016862F31A61016002B070470000F6
:1026E000002848BF704700F01F01012202FA01F1E3
:1026F0001C2202EAD0004EF20012CEF200028150FB
:102700007047000010B54EF60C5CCEF2000CDCF801
:102710000030C3F3022E8EF00704042C28BF0424DB
:10272000BEF103034FF0FF3E0EFA04F438BF00235E
:10273000A14399400EFA03F39A43114300F00F02AC
:1027400000F160430901043A03F564436244002840
:1027500048BF02F10C03197010BD00004EF60C5179
:10276000CEF200010A684FF6FF031A4060F30A2216
:1027700042F0806040F0FD700860704701F0070C87
:1027800000EB4C1C0CF1280C00EB4110090658BF63
:1027900000F5947C52B1ACF808301B0C01210A20E2
:1027A0002CF8003000208CF80C1070470021062017
:1027B0002CF8003000208CF80C1070477047000097
:1027C000D0F8683200EB4110C26B184603F0DCBE53
:1027D000D0F8683200EB4110D0F83C21184603F0E5
:1027E00039BF000010B54FFA81FC4FF49472BCF170
:1027F000000F48BF282201F0070302444FEAD11C12
:1028000002EB431181F801C090F828C24FEA431E41
:10281000BCF1010F02F80E3004BF022010BD0268A7
:10282000012380F828320446104604F051FC0020B1
:1028300084F8280210BD0000B0B5426801F00F0313
:10284000934284BF0120B0BD4AB24FF49474002A71
:1028500048BF282401F00703021990F828424FEAE4
:10286000D11C02EB431181F801C04FEA431C012C3B
:102870004FF000048C7002F80C3004BF0220B0BD91
:102880000268012380F828320546104604F0B4FCA3
:10289000204685F82842B0BD01F0070100EB411049
:1028A000D0F844017047000010B54FFA81FCBCF12C
:1028B000000F01F0070C0DD400EB4C1E00240EF5A8
:1028C00094718EF829418EF828C1CEF838218EF8FF
:1028D0002B3109E000EB4C1101F828CF01244C709A
:1028E0000A61CB70A1F80EC0022B04BF00220A714E
:1028F00090F82822012A04BF022010BD026801239B
:1029000080F828320446104604F09CFA002084F82F
:10291000280210BD10B501F0070C00EB4C1E00683A
:102920000EF594710024CEF83C21CEF84031CEF85B
:1029300044418EF829418EF828C104F0B1FC0020F2
:1029400010BD0000B0B5426801F0070494424FF09A
:10295000010229D84BB24FF49475002B48BF2825AB
:102960004FEAD11348BF214605444FEA411C05EB0D
:1029700041114B7090F828328A70012B05F80C40F9
:1029800004BF0220B0BD02680123054680F828324A
:10299000104604F06BFC24B9286805F50C7104F0AE
:1029A00029FC002285F828221046B0BD80B501F030
:1029B000070C00EB4C1101F828CF01F1140E006850
:1029C0004FF0000C8EE80C1001224A7004F068FCF5
:1029D000002080BD2DE9F04F83B00446006804F06C
:1029E000BDFD01462068090405D5B0F94410B1F1D8
:1029F000FF3F40F3A98004F0B1FD400519D52068E0
:102A0000B0F8441021F48061A0F84410204600F092
:102A1000FBFA94F8280201280BD00120002584F845
:102A2000280284F824502068002104F0F7FD84F87F
:102A30002852206804F092FD01462068490405D51B
:102A4000B0F8441021F48041A0F8441004F086FD51
:102A500001462068890405D5B0F8441021F40051DE
:102A6000A0F8441004F07AFD01462068C90411D48E
:102A700004F074FD000527D4206804F06FFD800584
:102A800048D4206804F06AFDC00552D403B0BDE804
:102A9000F08F00BFB0F8401021F00401A0F8401002
:102AA000B0F8401021F00801A0F84010204600F0D6
:102AB000BDFA2068B0F8441021F48051A0F8441009
:102AC00004F04CFD0005D7D52068B0F8401041F067
:102AD0000801A0F84010B0F8441021F40061A0F8FB
:102AE0004410B0F8401041F00401A0F8401004F088
:102AF00035FDC00406D52068B0F8441021F480519B
:102B0000A0F84410204600F0CFFA206804F026FD1B
:102B10008005B6D52068B0F8441021F40071A0F803
:102B20004410204600F086FA206804F017FDC00526
:102B3000ACD52068B0F8441021F48071A0F844109E
:102B400003B0BDE8F08F00BF04F59471029104F169
:102B5000280504F50C7140F60F7A019114E000BFCE
:102B600001F0070705EB4711C1E9053200227E019C
:102B7000CA6101224A70AF5504F092FB2068B0F997
:102B8000441000297FF537AFB0F8442012F00F0849
:102B90000CD030F928B04FEA4809BBF1FF3F35DDD2
:102BA0001FFA8BF00006E9D51CE100BF0188D206B0
:102BB00056D401EA0A0101F500410180B0F8501035
:102BC00094F8282000EB410000EB0210B0F8040458
:102BD000E16B6FF39F2060640844E06320460021AE
:102BE000FFF7EEFD94F824000028C7D0206C0028E1
:102BF000C4D194F82400216840F08000C0B2A1F84C
:102C00004C00002084F82400B8E700BF30F8191009
:102C100040F60F7701EA0A01803120F81910029975
:102C200001EB481A9AF80C10002977D09AF8001096
:102C300030F82120B0F8503000EB0111520401EBC4
:102C4000430100F18180B1F80C646FF39F26002EE0
:102C500000F08880DAF81410BAF80A207DE000BF8E
:102C60000A053DD409B2B1F1FF3F3FF787AF0188B4
:102C700001EA0A0180310180B0F8501094F828214F
:102C8000130100F20C4202EB4101CB5A6FF39F2378
:102C9000C4F84431A3B1D4F83C1189B1B4F82E2161
:102CA00004F060FCD4F83C01D4F844110844C4F8A2
:102CB0003C0120460021FFF78BFD206800F20C420A
:102CC000B0F85010D4F83831002B00F0B1803E2B12
:102CD00000F2BA8003F0010606EB53039B02C0E04A
:102CE000B0F8501094F8282100EB410101EB0211DB
:102CF000B1F80C34B4F82E2101996FF39F23C4F876
:102D0000443104F02FFC2068018801EA0A01803177
:102D10000180204600F0A8F930E700BFB0F850105D
:102D20009AF8002000EB410101EB0211B1F80C64AC
:102D30006FF39F26002E79D0DAF81410BAF8062027
:102D4000334604F00FFC19E0B1F804646FF39F26DA
:102D500046B1DAF81410BAF80820334604F002FC41
:102D600001E000BF002620689AF8001048F2C00376
:102D700030F821203A401A4320F82120DAF81C20AC
:102D8000DAE905103244CAF81C208A19CAF814205E
:102D9000E0B1DAF810309AF80010B34218D8029E69
:102DA00001F0070306EB4311C1E905200020C861CB
:102DB000487020685F01F35504F072FA40F60F7A0C
:102DC0001FFA8BF000067FF5D9AE0BE09AF80010E1
:102DD0002046FFF7FDFC40F60F7A1FFA8BF0000645
:102DE0007FF5CCAE20684FEA481230F8191005EB99
:102DF000481701EA0A0101F5004120F81910B0F85E
:102E00005030A95C00EB430202EB0112B2F804342B
:102E1000D7E905626FF39F23FB613344002A7B618E
:102E20007FF49EAE2046FFF7CBFCA7E60026A5E781
:102E3000535A48F2000723F4F8435352535ACFF63B
:102E4000FF773B430DE000BF5E09DF064FF0FF3721
:102E500008BF07EB531648F20003CFF6FF7343EAAF
:102E600086235352018843F60F72114048F2C00284
:102E700002F53F525140018080E60000002804BF67
:102E800001207047F0B585B0064690F8290228B9B0
:102E9000002086F82802304600F094F8032086F8D7
:102EA0002902306804F09CF906F1140E96E82F0010
:102EB0009EE81050376ACDE90054CDE902CE049760
:102EC00004F004F900286AD130680021002504F0DC
:102ED000A3FB7168002952D006F128004FF0010CC5
:102EE0000022002300EB421752018354DAB201336F
:102EF000FA81DAB2914287F801C0FD70C7E9045542
:102F0000BD61EFD806F5947000220025002300BFB4
:102F100000EB45176D01435543F00105ECB2A142AA
:102F20007A70FA70C7E90422BA6128D900EB441715
:102F30006401055543F00205ECB2A1427A70FA70C3
:102F4000C7E90422BA611AD900EB44176401055598
:102F500043F00305ECB2A1427A70FA70C7E904228B
:102F6000BA610CD900EB4417640104330555DDB296
:102F7000A9427A70FA70C7E90422BA61C8D806F18A
:102F80000807D6E9055430688CCFD6E907CECDE9DD
:102F9000007502AD85E8105004F00EF930B1022042
:102FA00086F82902012005B0F0BD00BF002086F898
:102FB0002400012086F82902306804F0FBF8002084
:102FC00005B0F0BD006845F60041C4F2000188423A
:102FD00018BF704780B582B041F21C00C4F20200F5
:102FE0000168002241F4000101600068002100F442
:102FF0000000019001981420FFF784FB142002B018
:10300000BDE88040FFF76CBB10B50446806802281D
:1030100018BFFEF7FDF8D4F86802012103F01AFC8E
:10302000D4F86802BDE8104003F0D2BBD0F86802C3
:1030300003F0F8BBD0F8680203F0FEBB90F828223A
:10304000012A04BF0220704710B5012280F828220F
:1030500080F8241002680446104604F0DFFA0020CD
:1030600084F8280210BD0000D0F8682200F50C7129
:10307000104603F005BC000090F82812012904BF97
:103080000220704710B5012180F828120446FFF78E
:1030900095FB206804F08CF8206804F04FFA0020BB
:1030A00084F8280210BD000010B50446D0F868026C
:1030B00003F038FCA069002808BF10BD4EF6105080
:1030C000CEF20000016841F00601016010BD000071
:1030D000012821D002280DD0102808D141F2040186
:1030E000C4F202010A6851F8040CC00134D4002073
:1030F000704700BF80B500F0C7F941F20401C4F287
:10310000020109680222C1F3813102EB4101B0FBE7
:10311000F1F0BDE88040704741F20400C4F20200C3
:10312000C16940F202320A40B2F5817F04BF4FF418
:103130000040704701F44071B1F5407F18D0B1F5FF
:10314000007F1CBF00207047006A49F6404180079D
:1031500001EAE070704700BFC2F3834015A3185C1A
:10316000D2030DD440F60012C0F23D02504313E0EA
:1031700050F8040C4FF22441800301EAE0707047DC
:103180000A6810A3C2F340429A5C41F20023C0F2E5
:103190007A03B3FBF2F250430968490248BF704713
:1031A0004AF6AB214000CAF6AA21A0FB010148085B
:1031B000704700BF02030405060708090A0B0C0D3F
:1031C0000E0F1010010200002DE9F04182B00446FC
:1031D000007841F21C06C007C4F202064AD03068EB
:1031E0005FEAC00808D4306840F080503060306832
:1031F00000F080500190019847F20007C4F20007E8
:103200003868C00512D4386840F480703860FFF721
:10321000F9F905463868C00508D4FFF7F3F9401BF3
:103220006428F7D9032002B0BDE8F081706810F47B
:10323000407012D0616801F4407188420DD070680E
:1032400040F24042C4F24222012320F44071136054
:103250000023C0071360716026D17068616820F494
:1032600040700843B8F1000F706003D4306820F05C
:10327000805030602068810707D556F8181CA26876
:1032800021F44041114346F8181CC00607D556F8F2
:10329000180CE16820F48000084346F8180C002060
:1032A00002B0BDE8F08100BFFFF7ACF9054641F27E
:1032B000883700BF70688007CFD4FFF7A3F9401BA1
:1032C000B8424FF00300F5D9EAE70000002804BF38
:1032D000012070472DE9F04381B042F20008C4F2AA
:1032E00002080446D8F800000D4600F007008142AD
:1032F0000CD9D8F8000020F007002843C8F80000D7
:10330000D8F8000000F00700A8426CD1206841F214
:1033100004098107C4F2020917D5410705D5D9F878
:10332000001041F4E061C9F80010010705D5D9F893
:10333000001041F46051C9F80010D9F80010A268DB
:1033400021F0F0011143C9F80010C00742D1D8F8AC
:10335000000000F0070085420CD2D8F8000020F0F1
:1033600007002843C8F80000D8F8000000F0070064
:10337000A84238D12068410707D5D9F80010E26883
:1033800021F4E0611143C9F80010000708D5D9F80D
:103390000000216920F4605040EAC100C9F8000033
:1033A000D9F8002002F00C00082841F20020C0F2F9
:1033B0007A004DD14BF67023C2F38341C0F600036F
:1033C000595CD20338D440F60010C0F23D004843A7
:1033D0003EE000BF606859F8041C022808D00128AC
:1033E00026D1890306D4012001B0BDE8F08300BFD7
:1033F0008901F8D5D9F8001021F003010843C9F874
:103400000000FFF7FFF8064641F28837D9F80000C0
:10341000616800F00C00B0EB810F98D0FFF7F2F874
:10342000801BB842F2D9032001B0BDE8F08300BF91
:103430008907D8D5DEE700BFD9F8002049F230234C
:10344000C2F34042C0F600039A5C4843B0FBF2F07E
:10345000D9F8001049F23222C1F30311C0F600027C
:10346000515C40F2900220FA01F140F22000C2F2D9
:1034700000000068C2F200021160FFF7EBF80020C4
:1034800001B0BDE8F083000040F2900041F2040179
:10349000C2F20000C4F202010068096849F2422247
:1034A000C1F3C221C0F60002515CC8407047000061
:1034B000002804BF012070472DE9F04182B0044686
:1034C000007841F20006C007C4F202060CD0706812
:1034D00000F00C00042840F081803068800303D5A0
:1034E0006068002800F04681207880071BD570684E
:1034F00010F00C0F09D0706800F00C00082840F0A4
:1035000087807068C00300F183803068800703D52E
:103510002069012840F02E813068616920F0F800B0
:1035200040EAC10030602078000713D420784007BB
:103530002CD4E569002D00F01881706800F00C00B3
:10354000082840F0A780012D40F00481012002B03E
:10355000BDE8F081A069002800F084800020C4F25A
:1035600042200121C0F88014FFF74CF8054600BF47
:10357000706A800700F1B280FFF744F8401B022810
:10358000F6D9032002B0BDE8F08100BFF0695FEA20
:10359000C00808D4F06940F08050F061F06900F094
:1035A00080500090009847F20007C4F20007386886
:1035B000C00549D4386840F480703860FFF722F8BD
:1035C000054600BF3868C0053ED4FFF71BF8401B16
:1035D0006428F7D9032002B0BDE8F081706800F0DC
:1035E0000C00082803D17068C0033FF576AF61680E
:1035F0003068002900F00C81B1F5A02F00F00081A7
:10360000B1F5803F40F01A8140F480301CE100BFEA
:103610002069002840F20000C4F2422000F08880B7
:1036200001210160FEF7EEFF054600BF306880070C
:103630003FF572AFFEF7E6FF401B0228F6D90320E4
:1036400002B0BDE8F08100BFE168306A002900F0F7
:103650009D80052900F09280012940F0AF8040F064
:103660000100B1E00020C4F242200021C0F8801423
:10367000FEF7C8FF054600BF706A80077FF556AFAA
:10368000FEF7C0FF401B0228F6D9032002B0BDE8B8
:10369000F08100BF0027C4F2422700203866FEF701
:1036A000B1FF022D05460DD13068800140F1DE806A
:1036B000FEF7A8FF401B02284FF00300F4D902B028
:1036C000BDE8F081306880014FD5FEF79BFF401BBD
:1036D00002284FF00300F5D9F1E700BF40F2900057
:1036E000C2F20000006844F6D351C1F26201A0FBAF
:1036F0000101480A019000BF00BF0198411E002847
:1037000001913FF413AF00BF0198411E00280191C1
:103710003FF40CAF00BF0198411E002801913FF417
:1037200005AF00BF0198411E00280191E4D1FDE6DC
:1037300000210160FEF766FF054600BF3068800784
:103740007FF5F1AEFEF75EFF401B02284FF003004D
:10375000F4D9B4E77068216A00F480328A4209D152
:10376000616A00F47010884204D1002002B0BDE804
:10377000F08100BF012002B0BDE8F08140F00400FC
:103780003062306A40F001001EE000BF20F001000E
:103790003062306A20F004003062FEF733FF0546E5
:1037A00041F28837306A800720D5FEF72BFF401B97
:1037B000B8424FF00300F5D981E700BF20F00100C7
:1037C0003062306A20F004003062FEF71BFF0546CD
:1037D00041F28837306A800708D4FEF713FF401B98
:1037E000B842F7D9032002B0BDE8F081B8F1000F6C
:1037F0003FF59FAEF06920F08050F06199E600BF80
:1038000040F480203060306840F480301CE000BF1D
:1038100020F480303060306820F480203060FEF783
:10382000F1FE0546306880037FF55EAEFEF7EAFEE6
:10383000401B64284FF00300F4D940E720F48030A7
:103840003060306820F480203060FEF7DBFE0546F3
:10385000306880033FF548AEFEF7D4FE401B642875
:10386000F6D9032002B0BDE8F08100BF206AB0F5B0
:10387000803F05D17168A26821F400311143716065
:103880007168626A21F47411114308437060012069
:103890003866FEF7B7FE0446306880013FF565AF35
:1038A000FEF7B0FE001B02284FF00300F4D906E734
:1038B000002804BF01207047B0B504460020A06274
:1038C00094F8511029B984F85000204600F032F8DD
:1038D0000020022184F85110D4E9001ED4E9023CF2
:1038E0000A6822F040020A6043EA0E02236942EAB3
:1038F0000C0242EA030CD4E90532E5694CEA030CF8
:1039000002F4007E4CEA0E0343EA050C256AA36A22
:1039100045EA0C052B430B60042303EA12424A607C
:10392000CA6922F40062CA610121606584F85110FD
:10393000B0BD000070B586B0044640F60000C4F289
:103940000100216800F52052002691420596CDE93C
:103950000366029602D006B070BD00BF41F21801A6
:10396000C4F202010A6842F480520A600A6802F452
:1039700080520192019A0A6842F004020A600968C2
:1039800001F0040101910199A0210291022103910A
:103990000321059102A9FEF71FFD40F6D045302016
:1039A000C2F20005C4F202001021802285E8430023
:1039B00005F10C004FF480734FF4806C80E80C101C
:1039C0002846C5E90666FEF743FB002818BFFDF749
:1039D0001FFCA5646C6206B070BD00002DE9F043C9
:1039E00081B0044690F85000012803D1022001B0B4
:1039F000BDE8F0834FF001081D460F46164684F8D7
:103A00005080FEF7FFFD94F85110012942D1814604
:103A1000002F4FF0010018BF002E00F0FB800320A4
:103A2000002284F8510062652763A686E686A263B9
:103A3000A287E287A0683146B0F5004F2068226473
:103A4000626403D1026842F4804202600268520656
:103A500003D4026842F04002026062680139E36800
:103A6000B2FA82F2B1FA81F152094909B3F5006F55
:103A700041EA02013CD131B137F8021BC160276332
:103A8000E08E0138E086E08E00286BD0681C0ED1F5
:103A90001DE000BF0220BDE0216B31F8022BC260A7
:103AA0002163E08E0138E086E08E00285AD020683D
:103AB00081688907F0D4FEF7A5FDA0EB0900A842B4
:103AC000F2D338E0FEF79EFDE08E00284AD0206851
:103AD00081688907F6D5216B31F8022BC26021631A
:103AE000E08E0138E086E08E0028F0D13AE000BF99
:103AF00039B139780173206B01302063E08E0138D1
:103B0000E086E08E70B3681C0BD11BE0216B097856
:103B10000173206B01302063E08E0138E086E08E77
:103B200000B3206881688907F0D4FEF76BFDA0EB35
:103B30000900A842F3D303206CE000BFFEF762FD4A
:103B4000E08E78B1206881688907F7D5216B097804
:103B50000173206B01302063E08E0138E086E08E37
:103B60000028EFD120688168090646D5691C0ED06F
:103B7000FEF748FDA0EB09012068A94212D2816836
:103B80000906F5D439E000BF8168090635D581689A
:103B9000090632D58168090644BF81685FEA016180
:103BA0002BD5F1E7416821F0E00141606168B1F592
:103BB000827F0AD1A168B1F5004F02D0B1F5806FC4
:103BC00003D1016821F040010160A16AB1F5005FF5
:103BD00007D1016821F400510160016841F40051EE
:103BE0000160012184F85110002184F85010616DAA
:103BF00041F02001616520216165A16831B9002192
:103C00000091C1680091806800900098606D002864
:103C100018BF0120002184F8518084F8501001B0B1
:103C2000BDE8F083411E0020B0EB116F1CBF0120E6
:103C300070474EF21002CEF2000251604EF6235150
:103C4000CEF20001F0230B700721906011607047E5
:103C5000704700007047000090F83C20012A04BF24
:103C600002207047B0B501F108053CCDD1E900CE86
:103C700023F47C5322F470521A432EF4F0431A4377
:103C80002CF4E0431A4324F4C0431A432A43C9697D
:103C900022F48042036811435964002180F83C10EB
:103CA0000020B0BD90F83C20012A4FF0020219D04C
:103CB00080B580F83D2002685368D2F808C091E8CA
:103CC000024023F0700319432CF0800343EA0E03F3
:103CD000516093600121002280F83D1080F83C2063
:103CE000BDE8804010467047006801F01F010422C3
:103CF000036A02FA01F123EA01020262026A114335
:103D00000162416C41F400414164816801F00701A6
:103D1000062903D0016841F00101016000207047CD
:103D2000006801F01F010422036A02FA01F123EA8C
:103D300001010162016A0162026A41F211110A4243
:103D400004D1026A40F244431A4205D0026A0A4290
:103D500009D00020704700BF426C22F40042426448
:103D6000026A0A42F5D1016A40F244421142F0D19E
:103D7000016821F00101016000207047002804BFA4
:103D80000120704710B590F83D1031B9002180F83E
:103D90003C10044600F056F82046022180F83D1001
:103DA000016840F2FF740B68C4F2000442F6004C54
:103DB000A142C4F2010C15DCB1F1804F1AD040F2DF
:103DC0000042C4F20002914214D0A14218DCB1F1C9
:103DD000804F1DD040F20042C4F20002914217D041
:103DE0001AE000BF614505D040F60002C4F20002AF
:103DF0009142EAD1826823F070031343A142E6DDC9
:103E0000614505D040F60002C4F20002914203D1A0
:103E1000026923F440731343846923F08002D0F8CD
:103E200004E0C368224361450A60CB62C1F828E020
:103E300002D14269CCF8302001224A6180F83D204D
:103E4000002010BD80B582B0006840F20041C4F28D
:103E50000001884214D042F60041C4F201018842B8
:103E60000CD141F21800C4F20200016841F4006173
:103E70000160006800F400600190019802B080BD0C
:103E800041F21800C4F202004168002241F0020130
:103E900041604068002100F00200009000981D2061
:103EA000FEF730FC1D2002B0BDE88040FEF718BCD4
:103EB0000068C16841F00101C160816801F007013B
:103EC000062903D0016841F001010160002070471C
:103ED00090F83C20012A4FF0020248D080B580F8CB
:103EE0003D20D0F800C04FF67772DCF8083023EAA6
:103EF0000202CCF808200B683F2B1DDD5F2B39DD5B
:103F0000602B5BD0B3F5005F00F09880702B26D15A
:103F1000D1E901E3C968DCF8082043EA0E0322F482
:103F20007F4243EA01211143CCF80810DCF8081065
:103F300041F0770111E000BF1F2B03DC33B1102BE0
:103F400004D00CE0202B01D0302B08D1DCF8081075
:103F500021F07001194341F00701CCF8081001214C
:103F6000002280F83D1080F83C20BDE880401046DB
:103F7000704700BF402B41D0502BF0D1D1F804E066
:103F8000C968DCF82030DCF8202022F00102CCF8EF
:103F90002020DCF8182022F0F00242EA011123F080
:103FA0000A0242EA0E02CCF81810CCF82020DCF805
:103FB000081041F0570121F02001CEE7D1F804E0CC
:103FC000C968DCF8203023F01003CCF82030DCF88E
:103FD0001830DCF8202023F4704322F0A00243EADA
:103FE000013142EA0E12CCF81810CCF82020DCF88F
:103FF000081041F0670121F01001AEE7D1F804E0AC
:10400000C968DCF82030DCF8202022F00102CCF86E
:104010002020DCF8182022F0F00242EA011123F0FF
:104020000A0242EA0E02CCF81810CCF82020DCF884
:10403000081041F0470121F030018EE7D1E901E39A
:10404000C968DCF8082043EA0E0322F47F4243EA01
:1040500001211143CCF80810DCF8081041F480412C
:104060007BE70000002804BF012070472DE9F04FD6
:1040700081B090F83D2042B9002280F83C200446EF
:104080000D4600F08BF829462046022280F83D209C
:10409000026844F20705936842F6004CAB43936014
:1040A00040F2FF731468C4F200039A42C4F2010C98
:1040B00014DCB2F1804F19D040F20045C4F2000583
:1040C000AA4213D09A4217DCB2F1804F1CD040F2C2
:1040D0000043C4F200039A4216D01AE0624505D0AC
:1040E00040F60005C4F20005AA42EBD1856824F031
:1040F00070042C439A42E7DD624505D040F6000388
:10410000C4F200039A4204D1036924F4407543EADF
:10411000050424F080038469D0F804E0C5682343D3
:1041200062451360D562C2F828E002D14369CCF839
:1041300030304FF0010CC2F814C095689469D2F881
:1041400020E0D1E90038D1E9027B43EA050A8D6914
:104150004FF6FF7924EA090447EA05254FF6FC47A4
:10416000BD43D1E9077644EA0B040B692C4344EACA
:1041700007242EF02207496944EA031347EA080797
:1041800043EA063347EA0111C2F808A093611162BD
:1041900080F83DC0002001B0BDE8F08F70B586B05A
:1041A00000680026B0F1804FCDE9046603960296C0
:1041B00002D006B070BD00BF41F21800C4F2020088
:1041C000416840F6000441F0010141604168C4F2D9
:1041D000010401F0010101910199016802AD41F072
:1041E00004010160016801F0040101910199016875
:1041F00041F0080101600068294600F008000190C4
:1042000001984FF40040CDE9020620460496FEF7DF
:10421000E3F80820CDE9020604F5806029460496FB
:10422000FEF7DAF80420C4F2010001684FF6FF42FD
:10423000CFF6FF02114041F0E06141F4807101606E
:1042400006B070BD02680429106A0BD020F001008E
:1042500011B9012109E000BF1062106A40F00100AD
:104260001062106A20F0100010211062106A0843DA
:104270001062106840F001010020116070470000DA
:104280007047000010B5016804460869800744BF04
:10429000C8685FEA807039D40869400744BFC868BD
:1042A0005FEA40703ED40869000744BFC8685FEA0F
:1042B000007045D40869C00644BFC8685FEAC060A2
:1042C0004AD40869C0071CBFC8685FEAC07051D1F2
:1042D0000869000644BFC8685FEA006052D40869F4
:1042E000400644BFC8685FEA406053D4086980064E
:1042F00046BFC8685FEA806010BD6FF020022046AC
:104300000A61BDE81040FFF7A5BC00BF6FF00200D6
:104310000861012020778869800743D02046FFF795
:10432000AFFF45E06FF00400086102202077886944
:1043300010F4407F40D02046FFF7A2FF42E000BFCC
:104340006FF00800086104202077C86980073DD01D
:104350002046FFF795FF3FE06FF01000086108204E
:104360002077C86910F4407F3AD02046FFF788FFD5
:104370003CE000BF6FF001000861204600F098FAB1
:104380002168A5E76FF0800008612046FFF760FC18
:104390002168A4E76FF040000861204600F044FB6C
:1043A0002168A3E7204600F095F8204600F01AFAAD
:1043B0002168002020776FE7204600F08BF8204628
:1043C00000F010FA2168002020776CE7204600F00A
:1043D00081F8204600F006FA21680020207769E77E
:1043E000204600F077F8204600F0FCF92168002014
:1043F000207766E770B586B0006840F20041C4F2ED
:10440000000188424FF00001CDE90411CDE902110D
:1044100036D042F60041C4F20101884257D141F240
:104420001800C4F20200016840F6004441F008019F
:1044300001600168C4F2010401F0080101910199D1
:10444000016802AD41F0040101600068022600F03D
:104450000400019001984FF4C04002902046294684
:1044600003960596FDF7B8FF4FF44070CDE90206BC
:10447000A4F5806029460596FDF7AEFF06B070BD35
:1044800041F21800C4F20200016841F00801016025
:10449000006802A900F00800019001982020029015
:1044A00002200390059040F60040C4F20100FDF7A1
:1044B00093FF0420C4F2010001684FF2FF32CFF6EF
:1044C000FF02114041F0E06141F40061016006B07B
:1044D00070BD00007047000090F83C30012B4FF099
:1044E000020300F0F6804FEAB202032A80F83D3062
:1044F00000F2E9802DE9F043DFE802F002A43A740B
:10450000036842F600461A6AC4F2010622F001026C
:104510001A621D6A1A465C6852F818CFB3428E6858
:10452000D1F800E025F0020545EA06050CD1CE6879
:10453000D1E9057824F4407425F00C0526F0040632
:104540003C43354344EA08042CF0730747EA0E075E
:104550005C609F614F6809695F631D629F6947F0F6
:1045600008079F619F6927F004079F61A6E000BFCD
:10457000036842F600461A6AC4F2010622F4807209
:104580001A621D6A1A46D3F804C052F81CEFB342EF
:104590008E680C6825F4007545EA06250FD1CE68B3
:1045A000D1E90598360240F2FF4725F44065BE4345
:1045B00035432CF4405748EA090647EA061C2EF01A
:1045C00073072743C3F804C0DF614F680969DF63DD
:1045D0001D62DF6947F00807DF61DF6927F0040724
:1045E000DF616BE0036842F600471A6AC4F2010714
:1045F00022F480521A621A46D3F820C05D6852F83D
:104600001C4FD1F800E08E68BB4204D14F6925F4FD
:10461000804545EA87152CF4005747EA063724F40D
:10462000E64646EA0E265D60DE614E6809691E6454
:104630001F62DF6947F40067DF61DF6927F4806785
:10464000DF613AE0036842F600461A6AC4F20106E6
:1046500022F010021A621D6A1A46D3F804C052F8FA
:10466000184FB3428E68D1F800E025F0200545EAE6
:1046700006150FD1CE68D1E905986FF0400725F0F7
:10468000C00507EA061635432CF4406748EA0906D8
:1046900047EA860C24F4E64444EA0E27C3F804C033
:1046A0009F614F6809699F631D629F6947F40067B6
:1046B0009F619F6927F480679F610902136819430E
:1046C0001160BDE8F0430121002380F83D1080F81F
:1046D0003C30184670470000002804BF0120704796
:1046E00010B590F83D1031B9002180F83C10044617
:1046F00000F056F82046022180F83D10016840F293
:10470000FF740B68C4F2000442F6004CA142C4F2EC
:10471000010C15DCB1F1804F1AD040F20042C4F216
:104720000002914214D0A14218DCB1F1804F1DD09B
:1047300040F20042C4F20002914217D01AE000BFDA
:10474000614505D040F60002C4F200029142EAD170
:10475000826823F070031343A142E6DD614505D072
:1047600040F60002C4F20002914203D1026923F430
:1047700040731343846923F08002D0F804E0C368D7
:10478000224361450A60CB62C1F828E002D1426948
:10479000CCF8302001224A6180F83D20002010BD75
:1047A000006840F60001C4F20001884218BF70475B
:1047B00080B582B041F21C00C4F202000168002200
:1047C00041F0040101600068002100F00400019044
:1047D00001981E20FDF796FF1E2002B0BDE8804024
:1047E000FDF77EBF70470000006801F01F01012245
:1047F000036A8A4023EA02010162036A42F64441E5
:10480000C4F201011A43A1F144039842026207D0A5
:10481000816801F0070106290BD10020704700BF15
:104820000A6842F400420A60816801F00701062923
:10483000F3D0016841F001010160002070470000E1
:104840000246006801F01F0101238B40016A42F615
:10485000004C99430162C4F2010C016A6045016297
:104860000ED1DCF8201041F21113194208D1016A6F
:1048700040F24443194203D1416C21F400414164A8
:10488000016A41F21113194204D00121002082F87B
:104890003D107047016A40F244431942F5D1016866
:1048A00021F0010101600121002082F83D107047D4
:1048B0002DE9F04F81B040F2E814C2F20004A08963
:1048C000FBF75AFD43F23336C4F253063146FBF789
:1048D000A2FC4FF20007C4F27F573946FBF7CDFC2C
:1048E0000025C4F230152946FBF795FC2189824644
:1048F0000846FBF741FD3146FBF78DFC3946FBF7D7
:10490000BCFC2946FBF787FC618980460846FBF71B
:1049100033FD3146FBF77FFC3946FBF7AEFC002147
:10492000C4F24831FBF7A9FC41F26F21C3F6033111
:10493000FBF7A3FC00210646FBF7EBFC4CF6CD4948
:10494000C3F6CC59002840F258055046494618BFD6
:104950000026C2F20005FBF75EFC46F2666B0746D6
:1049600095E81104C3F6667B5946FBF754FC3946BB
:10497000FBF7F9FB286040464946FBF74CFC07462D
:1049800020465946FBF747FC3946FBF7ECFB6860CD
:1049900030464946FBF73FFC044650465946FBF774
:1049A0003AFC2146FBF7DFFB297EA860D1B100F07D
:1049B0007FF868694CF6CD41AC68CBF64C51FBF7FB
:1049C000D2FB01462046FBF7A4FC0028287E4FF0CE
:1049D000020118BF0121002869761CBF01B0BDE8A3
:1049E000F08F01E00020687642F63440C4F2010006
:1049F00000210160382040F6D874C4F20000C2F2F1
:104A0000000401602046FFF71BFF20460021FFF74E
:104A100087F920460421FFF713FF2046042101B047
:104A2000BDE8F04FFFF77CB970470000FEE70000DB
:104A300080B540F6C81040F22401C2F20000C2F274
:104A40000001002201F064FD002818BFFCF7E0FB24
:104A500040F6C81040F29401C2F20000C2F2000118
:104A600001F088FF002818BFFCF7D2FB40F6C81001
:104A700040F2B811C2F20000C2F2000101F0F4FAF3
:104A8000002818BFFCF7C4FB40F6C810C2F20000B3
:104A900001F086FF002808BF80BDBDE88040FCF71C
:104AA000B7BB0000FEE70000704700007047000041
:104AB0002DE9F04F87B040F25808C2F2000898F88C
:104AC000180042F63447C4F2010798B340F6D87490
:104AD000C2F20004204600210025FFF785FE204693
:104AE0000021FFF701F920460421FFF77DFE204653
:104AF0000421FFF7F9F8D8F800604FF08041304604
:104B0000FBF715FC10BB40F2E810C2F20000C0E950
:104B1000065505624FF44070A8F81800382040F69A
:104B2000D874C4F20000C2F200043D600560204663
:104B3000002137E040F2E810C2F200000021C0E995
:104B40000611016288F8191022E000BFD8F80C00A5
:104B50000021C4F2A021FBF7CEFB68B1D8F81450B5
:104B6000D8F8089028464FF07E51FBF7FCFA014632
:104B70004846FBF7C0FB38BB40F2E810C2F2000029
:104B80000021C0E9061101624FF44070A8F8180036
:104B9000382040F6D874C4F20000C2F20004396034
:104BA00001602046FFF74CFE20460021FFF7B8F8D1
:104BB00020460421FFF744FE2046042107B0BDE84B
:104BC000F04FFFF7ADB800BF98F8180040F2E81AB0
:104BD000C2F2000AC0B1DAF81840D8F810702046C6
:104BE0003946FBF7A4FB18BB41F26F21C3F6034122
:104BF0002046FBF7B8FA39460446FBF77CFB002851
:104C000008BF3C4615E000BF002430464FF07C5101
:104C10004FF07C52CAF818400692FBF77AFB002846
:104C20003FD14CF6CD40C3F6CC500024069038E07E
:104C30003C4630464FF07C514FF07C52CAF8184049
:104C40000692FBF766FB60BB20464FF07C51FBF7FA
:104C500060FB00284CF6CD40C3F6CC50069020D126
:104C600030462146FBF77FFA01462046FBF705FB5D
:104C700046F26661C3F666710646FBF766FB4CF6C4
:104C8000CD47C3F6CC5700281CBF46F26666C3F674
:104C9000667630463946FBF758FB002818BF374682
:104CA0000697D8F804102046FBF7AFFA834628464B
:104CB0004946FBF7AAFA4CF6CD41DAE907468146A8
:104CC000C3F64C715846CDF808B0FBF7A4FA41F290
:104CD0006F25C3F683252946FBF79DFA21460594E7
:104CE000FBF741FA49F69A118246C3F69971484694
:104CF000FBF791FA2946FBF78EFA31460196FBF74E
:104D000032FA49F69A17C3F699670446504639466F
:104D1000FBF71BFB49F69A16CBF6996600281CBFD9
:104D200049F69A1AC3F6996A50463146FBF70DFBCD
:104D300000282046394608BFB246FBF706FB00288C
:104D40001CBF49F69A14C3F6996420463146FBF716
:104D5000FCFA4CF28F210028C3F67541584608BF73
:104D60003446FBF758FA069D2946FBF7FCF95146F5
:104D70000390FBF7F8F94CF6CD418346C3F6CC41DE
:104D80004846CDF81090FBF746FA2946FBF7EBF9B9
:104D9000214600900694FBF7E6F94CF6CD41074614
:104DA000C3F6CC515846FBF7B4FA46F26661814629
:104DB0000028C3F66671584618BF4FF00109FBF78B
:104DC000C4FA0646002818BF0126029C002120468E
:104DD000FBF7BBFA0546002820464FF0000118BF3C
:104DE0000125FBF796FA002818BF01202E420AD1B0
:104DF00040F2E81B10EA0900C2F2000B04BFCBF836
:104E00001CA0CDF814A046F26661C3F66671384660
:104E1000FBF79BFA4CF6CD49C3F6CC590646002861
:104E20003846494618BF0126FBF773FA04460028A6
:104E300018BF0124DDF810B000215846FBF785FAB1
:104E40000546002858464FF0000118BF0125FBF722
:104E500060FA002818BF01202E4208BF10EA0400A3
:104E60000AD0DDE90001FBF77EF940F2E8140746BD
:104E7000C2F2000406E000BF40F2E8140698C2F255
:104E80000004206203980599FBF76DF946F2666508
:104E9000C3F6667529460646FBF757FA00281CBF7D
:104EA00046F26666C3F6667630464946FBF74DFA2B
:104EB00000283846294608BF4E46FBF746FA002828
:104EC0001CBF46F26667C3F6667738464946FBF76D
:104ED0003CFA002808BF4F4638463146FBF719FA1E
:104EE00000284FF0010008BF374618BF022088F89D
:104EF000190038464946FBF70CFA00281CBF4CF64F
:104F0000CD47C3F6CC5738462946FBF71EFA4CF27C
:104F1000000100281CBF46F26667C3F66677C4F23C
:104F200079413846FBF777F9FBF744FA40F2E7316D
:104F300042F63442A080091A80B2C4F20102E18034
:104F4000106088B2506007B0BDE8F08F7F2888BF3E
:104F50007047F0B581B00F469F292CD840F6004429
:104F6000C4F201041546064620464FF48061002233
:104F7000FDF742FB721C7B1CF0B2F9B2D2B2DBB27D
:104F800000F004F968BAADF80200204601210122C0
:104F9000FDF732FB40F68070C2F200000DF1020115
:104FA00002224FF0FF33FEF719FD20464FF48061D7
:104FB0000122FDF721FB01B0BDE8F0407047000081
:104FC0002DE9F04782B00478002C3DD040F600492E
:104FD00040F6807AC4F20109451CC2F2000A0DF1C4
:104FE000070802E0013C20062ED015F8020B012133
:104FF0008DF8070048460022FDF7FEFA504641466C
:1050000001224FF0FF33FEF7E9FC15F8016C16F0B2
:105010007F070CD0484601210122FDF7EDFA5046EA
:1050200029463A464FF0FF33FEF7D8FC3D4470B2B4
:10503000B0F1FF3FD6DC15F8010BFF2808BF4FF495
:10504000FA70FDF78FF8CDE702B0BDE8F0870000F9
:105050007F2898BF9F2901D9704700BF2DE9F043F1
:1050600081B0904640F6004602449946C4F20106DB
:10507000802A03EB0102089D88BFC0F18008A02AA6
:1050800088BFC1F1A009044630460F464FF4806145
:105090000022FDF7B1FA08EB040009EB0701013823
:1050A0000139C2B2CBB2E0B2F9B200F06FF868BA1F
:1050B0005FEA0941ADF8020018BF5FEA08401BD063
:1050C00040F68077C2F200070DF10205444600BFAA
:1050D000304601210122FDF78FFA38462946022287
:1050E0004FF0FF33FEF77AFC013C2004F0D1A9F128
:1050F00001095FEA0940E9D130464FF4806101229D
:10510000FDF77AFA01B0BDE8F043704780B582B090
:105110008446002000218022A023CDF800C0FFF7A4
:1051200097FF02B080BD000010B540F60044C4F205
:10513000010420464FF480610022FDF75DFA20460D
:1051400002210022FDF758FA0520FDF70BF8204652
:1051500002210122FDF750FA4BF68C20C0F6000028
:10516000FFF72EFF4BF6C720C0F60000FFF728FF21
:105170004BF6D420C0F60000FFF722FF20464FF484
:1051800080610122BDE81040FDF736BA2DE9F047F5
:1051900082B040F6004A07462A20C4F2010A1646A9
:1051A00089468DF8050050460121002298460024CA
:1051B000FDF722FA40F68075C2F200050DF10501F7
:1051C000284601224FF0FF33FEF708FC504601212C
:1051D00001228DF801408DF802708DF803408DF8A2
:1051E0000460FDF709FA0DF1010628463146042254
:1051F0004FF0FF33FEF7F2FB2B208DF806005046F0
:1052000001210022FDF7F8F90DF1060128460122DF
:105210004FF0FF33FEF7E2FB5046012101228DF8EB
:1052200002908DF80480FDF7E7F928463146042204
:105230004FF0FF33FEF7D2FB2C208DF807005046CD
:1052400001210022FDF7D8F90DF1070128460122BE
:105250004FF0FF33FEF7C2FB02B0BDE8F08700005D
:105260002DE9F04F89B0074640F6004015468A46C2
:10527000C4F201004FF4806100221C46FDF7BCF926
:105280002B78002B00F0D080C4F307202A4600289A
:105290005FFA84F9079000F08580B9F1000F4FEABA
:1052A0001420029000F09E80DDE9131040F6807516
:1052B0004FEA11284FEA102BC2F200050DF1220629
:1052C00001940AE0049FDDF814A0019C039A4F4466
:1052D00012F8013F002B00F0A780B8B248447F28A5
:1052E0000CD907998A441FFA8AF001449F2900F2D9
:1052F0009B80202B4FF00007EAD001E01FFA8AF0D4
:105300000392029AE119104401390138CAB21C46CD
:10531000C3B2F8B25FFA8AF10497CDF814A0FFF790
:1053200035FF0799A4F1200048431299002701EBAB
:105330004000069004E000BF079801378742C1D0C3
:1053400006984FF0000A30F8174017E01498012132
:105350008DF8210040F60040C4F2010001228DF8D2
:1053600020B0FDF749F9284608A902224FF0FF3383
:10537000FEF734FB0AF1010AD145DDD004FA0AF048
:105380000004E3D5139801218DF8230040F6004076
:10539000C4F2010001228DF82280FDF72DF9284684
:1053A0003146E2E7AAF10100561CC5B20DE000BF8C
:1053B000E0190138C2B2F8B25FFA8AF12B46FFF762
:1053C000E5FE4F4416F8013B73B3B8B24844802859
:1053D000EED3BAF19F0F27D8202B4FF00007E7D16B
:1053E000F0E700BF551C0FE01FFA8AF002997A1E01
:1053F00008440138C3B2F8B25FFA8AF1D2B2FFF7BB
:10540000C5FE15F8013B7BB1B8B27F28ECD90799EE
:105410008A441FFA8AF001449F2905D8202B4FF0B7
:105420000007E3D1EDE700BF40F60040C4F2010001
:105430004FF480610122FDF7DFF809B0BDE8F08F7D
:105440007047000010B5F8B140F25C24C2F20004CD
:105450002079002818BF10BD0020E063E062A08121
:10546000606140F2E610C2F200004FF47A710180F0
:1054700040F23840C4F200000160FDF7C3F86062FA
:105480000120207110BD00BF40F25C20C2F200007C
:1054900000210171C163C1628181416140F2E61066
:1054A000C2F200004FF47A71018040F23840C4F239
:1054B0000000016010BD00002DE9F04F81B0FDF744
:1054C000A1F840F25C26C2F200063179DFE811F063
:1054D000040030010E001E0040F23840C4F200000B
:1054E0004FF47A71016001B0BDE8F08FB16A401AE3
:1054F0003228C0F0348140F2E8110020C2F20001ED
:10550000F062B0810870032028E100BF40F2E8108B
:10551000C2F200000178002900F021810021017011
:1055200040F22420C2F200008088F16A0844B18968
:10553000F06201318AB2142AB181C0F010814CF6B8
:10554000CD41CCF6CC41A0FB0101C1F30F10FAF71D
:1055500013FF0021CCF2E1313061FAF704FE4CF682
:10556000CD41C3F6EC71FAF756FE0021C4F2FA31D0
:105570000446FAF7EAFE0025C4F2C81500281CBF4D
:105580000024C4F2FA3420462946FAF7DEFE002849
:1055900008BF2C463463346B706B4FF07C51FAF7C4
:1055A0003AFE054620464FF07C51FAF734FE294674
:1055B000FAF7D9FD3063306B706341F2B800C2F284
:1055C00000000069B063B06B316BFAF71EFE4CF659
:1055D000CD41C3F6CC518346FAF71DFE4CF6CD41C2
:1055E000F46B8046C3F64C515846FAF714FE4FF060
:1055F0007C51FAF710FE2146FAF7B5FD0746404602
:105600003946FAF7B0FD4FF07E510546FAF79DFE98
:10561000814658460021FAF798FE82462846002126
:10562000FAF777FE054658460021FAF772FE002881
:10563000384618BF2046002D08BF3846BAF1000F83
:1056400008BF0446B9F1000F08BF044620464FF0DA
:105650007E51FAF77AFE002818BF4FF07E5420469C
:105660004FF03F414FF03F45FAF76FFE002808BF6B
:105670002C4640462146F463FAF775FD4FF07E5103
:105680000546FAF762FE002818BF4FF07E552846FF
:105690000021FAF75AFE0446002818BF2C4620467F
:1056A0004FF07E513462FAF750FE2546002818BFAD
:1056B0004FF07E5528460021FAF747FE00210028CA
:1056C00008BF0546CCF248412846FAF7A4FD002160
:1056D000C4F27A41FAF747FDFAF753FE40F2384137
:1056E000B0F57A7F28BF4FF47A70C4F20001C82861
:1056F00098BFC8207081086040F2E611C2F2000134
:105700007561088040F25800C2F200000021356B3C
:10571000D0E90278C4F290212046FAF77CFD41F2EC
:10572000B801C2F20001C860012081E8A00115E0C3
:10573000716A411A642912D340F23841C4F200015F
:105740004FF47A7270620A6040F2E811B062002091
:10575000C2F20001F062B08108700220307101B025
:10576000BDE8F08FFCF754BF41F20000C4F2020024
:105770000168002241F0010101604168CFF6FF029B
:105780001140416001684FF6FF72CFF6F66211409A
:105790000160016821F480210160416821F4FE016B
:1057A00041604FF41F0181604EF60850CEF20000B8
:1057B0004FF000610160704741F21800C2F2000032
:1057C000FEF760BD41F25800C2F20000FEF75ABD7C
:1057D000002808BF704770B5FAF7C5FD41F2B8065A
:1057E000C2F2000600213469C4F2A001FAF713FDE9
:1057F0002146FAF7B8FC0021C4F2E1310446FAF779
:10580000A4FD0025C4F2163500281CBF0024C4F2F4
:10581000E13420462946FAF798FD002808BF2C46B7
:1058200096F82000002106EB8000446140F2CC2075
:10583000C2F20000017440F25C20C2F20000346148
:1058400080F8401080F8501080F86010C170BDE8FA
:1058500070407047B0B540F2100040F25C24C2F2D4
:1058600000004FF0FF31C2F200040025C0E9001132
:1058700081604FF48070C4F806502060FCF7C2FECF
:10588000A061FCF7BFFEE06140F2CC20C2F2000054
:105890000574057080F8305080F8505084F84050FE
:1058A00084F8505084F86050B0BD000040F25C2095
:1058B000C2F200000021417070470000B0B541F213
:1058C000B800002140F2000E002340F2000CC2F2AA
:1058D0000000C4F2C8110024C4F2963EC4F2AF33F3
:1058E000C4F2C83C012280F82020C0E90014C0E9BD
:1058F0000214C0E9043EC0E9063C40F25C2540F2D7
:105900001000C2F20005C2F200004FF0FF31C5F8EE
:105910000640C0E9001181602C70FCF773FEA8619D
:10592000FCF770FEE86140F2CC20C2F20000A5F85E
:105930000140EC700474047080F8304080F85040EE
:1059400085F8404085F8504085F86040B0BD0000C3
:1059500040F25C20C2F2000040787047022888BF05
:10596000704741F2B801C2F2000101EB80025269B6
:1059700081F8200040F2CC200A61C2F20000002130
:105980000174017040F25C20C2F2000080F8401007
:1059900080F8501080F86010C17070472DE9F04F0A
:1059A00085B040F25C26C2F200067178012940F011
:1059B0001982002840F0EE80B078002800F0EA80DC
:1059C000FCF720FEB169411A3229C0F0F781B061BD
:1059D00041F2B800B6F808A0C2F20000D0E90054C5
:1059E0000AF1010081B25F29308122BF002030819D
:1059F0003070F08800215E289CBF0130F080C4F236
:105A0000E13128460AF1100BFAF79FFC0026C4F298
:105A1000163600281CBF0025C4F2E1352846314661
:105A2000FAF793FC0021002808BF3546CCF2163166
:105A30002846FAF798FB0021C4F29631FAF71DFCCC
:105A400040F20009C4F296294946FAF7E4FBFAF756
:105A500098FC0026C4F2A006C0F157082046314643
:105A6000FAF773FC00281CBF0024C4F2A0042046EF
:105A700000210025FAF769FC3146002818BF2046AE
:105A8000FAF7FBFB4946FAF7C6FBFAF77AFCBAF1DC
:105A90005E0FC0F15700049036D81FFA8BF42046F1
:105AA0000D2101224B230095FFF7D2FA20461F213A
:105AB0001F22FFF74BFA204632211F22FFF746FA3A
:105AC000204645211F22FFF741FAAAF15E0010F19E
:105AD0005F0F19D30BF1010084B2002720460D217E
